{
  "_format": "hh-sol-artifact-1",
  "contractName": "MoonCatStaking",
  "sourceName": "contracts/MoonCatStaking.sol",
  "abi": [
    {
      "inputs": [
        {
          "internalType": "contract MoonCatToken",
          "name": "_token",
          "type": "address"
        }
      ],
      "stateMutability": "nonpayable",
      "type": "constructor"
    },
    {
      "inputs": [],
      "name": "AccessControlBadConfirmation",
      "type": "error"
    },
    {
      "inputs": [
        {
          "internalType": "address",
          "name": "account",
          "type": "address"
        },
        {
          "internalType": "bytes32",
          "name": "neededRole",
          "type": "bytes32"
        }
      ],
      "name": "AccessControlUnauthorizedAccount",
      "type": "error"
    },
    {
      "inputs": [],
      "name": "EnforcedPause",
      "type": "error"
    },
    {
      "inputs": [],
      "name": "ExpectedPause",
      "type": "error"
    },
    {
      "inputs": [],
      "name": "ReentrancyGuardReentrantCall",
      "type": "error"
    },
    {
      "anonymous": false,
      "inputs": [
        {
          "indexed": true,
          "internalType": "address",
          "name": "by",
          "type": "address"
        }
      ],
      "name": "EmergencyModeDisabled",
      "type": "event"
    },
    {
      "anonymous": false,
      "inputs": [
        {
          "indexed": true,
          "internalType": "address",
          "name": "by",
          "type": "address"
        }
      ],
      "name": "EmergencyModeEnabled",
      "type": "event"
    },
    {
      "anonymous": false,
      "inputs": [
        {
          "indexed": true,
          "internalType": "address",
          "name": "user",
          "type": "address"
        },
        {
          "indexed": false,
          "internalType": "uint256",
          "name": "amount",
          "type": "uint256"
        },
        {
          "indexed": false,
          "internalType": "uint256",
          "name": "fee",
          "type": "uint256"
        }
      ],
      "name": "EmergencyWithdraw",
      "type": "event"
    },
    {
      "anonymous": false,
      "inputs": [
        {
          "indexed": true,
          "internalType": "address",
          "name": "user",
          "type": "address"
        },
        {
          "indexed": false,
          "internalType": "uint256",
          "name": "amount",
          "type": "uint256"
        },
        {
          "indexed": false,
          "internalType": "uint256",
          "name": "penalty",
          "type": "uint256"
        },
        {
          "indexed": true,
          "internalType": "string",
          "name": "stakeType",
          "type": "string"
        }
      ],
      "name": "ForceUnlocked",
      "type": "event"
    },
    {
      "anonymous": false,
      "inputs": [
        {
          "indexed": true,
          "internalType": "address",
          "name": "user",
          "type": "address"
        },
        {
          "indexed": false,
          "internalType": "uint256",
          "name": "reward",
          "type": "uint256"
        },
        {
          "indexed": true,
          "internalType": "string",
          "name": "stakeType",
          "type": "string"
        }
      ],
      "name": "InterestWithdrawn",
      "type": "event"
    },
    {
      "anonymous": false,
      "inputs": [
        {
          "indexed": false,
          "internalType": "address",
          "name": "account",
          "type": "address"
        }
      ],
      "name": "Paused",
      "type": "event"
    },
    {
      "anonymous": false,
      "inputs": [
        {
          "indexed": true,
          "internalType": "string",
          "name": "stakeType",
          "type": "string"
        },
        {
          "indexed": false,
          "internalType": "uint256",
          "name": "oldRate",
          "type": "uint256"
        },
        {
          "indexed": false,
          "internalType": "uint256",
          "name": "newRate",
          "type": "uint256"
        }
      ],
      "name": "RateChanged",
      "type": "event"
    },
    {
      "anonymous": false,
      "inputs": [
        {
          "indexed": true,
          "internalType": "address",
          "name": "user",
          "type": "address"
        },
        {
          "indexed": true,
          "internalType": "string",
          "name": "stakeType",
          "type": "string"
        },
        {
          "indexed": false,
          "internalType": "uint256",
          "name": "oldRate",
          "type": "uint256"
        },
        {
          "indexed": false,
          "internalType": "uint256",
          "name": "newRate",
          "type": "uint256"
        }
      ],
      "name": "RateUpdateOptIn",
      "type": "event"
    },
    {
      "anonymous": false,
      "inputs": [
        {
          "indexed": true,
          "internalType": "bytes32",
          "name": "role",
          "type": "bytes32"
        },
        {
          "indexed": true,
          "internalType": "bytes32",
          "name": "previousAdminRole",
          "type": "bytes32"
        },
        {
          "indexed": true,
          "internalType": "bytes32",
          "name": "newAdminRole",
          "type": "bytes32"
        }
      ],
      "name": "RoleAdminChanged",
      "type": "event"
    },
    {
      "anonymous": false,
      "inputs": [
        {
          "indexed": true,
          "internalType": "bytes32",
          "name": "role",
          "type": "bytes32"
        },
        {
          "indexed": true,
          "internalType": "address",
          "name": "account",
          "type": "address"
        },
        {
          "indexed": true,
          "internalType": "address",
          "name": "sender",
          "type": "address"
        }
      ],
      "name": "RoleGranted",
      "type": "event"
    },
    {
      "anonymous": false,
      "inputs": [
        {
          "indexed": true,
          "internalType": "bytes32",
          "name": "role",
          "type": "bytes32"
        },
        {
          "indexed": true,
          "internalType": "address",
          "name": "account",
          "type": "address"
        },
        {
          "indexed": true,
          "internalType": "address",
          "name": "sender",
          "type": "address"
        }
      ],
      "name": "RoleRevoked",
      "type": "event"
    },
    {
      "anonymous": false,
      "inputs": [
        {
          "indexed": true,
          "internalType": "address",
          "name": "user",
          "type": "address"
        },
        {
          "indexed": false,
          "internalType": "uint256",
          "name": "originalAmount",
          "type": "uint256"
        },
        {
          "indexed": false,
          "internalType": "uint256",
          "name": "compoundedInterest",
          "type": "uint256"
        },
        {
          "indexed": false,
          "internalType": "uint256",
          "name": "newTotal",
          "type": "uint256"
        },
        {
          "indexed": true,
          "internalType": "string",
          "name": "stakeType",
          "type": "string"
        }
      ],
      "name": "StakeCompounded",
      "type": "event"
    },
    {
      "anonymous": false,
      "inputs": [
        {
          "indexed": true,
          "internalType": "address",
          "name": "user",
          "type": "address"
        },
        {
          "indexed": false,
          "internalType": "uint256",
          "name": "amount",
          "type": "uint256"
        },
        {
          "indexed": false,
          "internalType": "uint256",
          "name": "since",
          "type": "uint256"
        },
        {
          "indexed": true,
          "internalType": "string",
          "name": "stakeType",
          "type": "string"
        }
      ],
      "name": "Staked",
      "type": "event"
    },
    {
      "anonymous": false,
      "inputs": [
        {
          "indexed": true,
          "internalType": "address",
          "name": "user",
          "type": "address"
        },
        {
          "indexed": false,
          "internalType": "uint256",
          "name": "unlockRequestTime",
          "type": "uint256"
        },
        {
          "indexed": true,
          "internalType": "string",
          "name": "stakeType",
          "type": "string"
        }
      ],
      "name": "UnlockRequested",
      "type": "event"
    },
    {
      "anonymous": false,
      "inputs": [
        {
          "indexed": false,
          "internalType": "address",
          "name": "account",
          "type": "address"
        }
      ],
      "name": "Unpaused",
      "type": "event"
    },
    {
      "anonymous": false,
      "inputs": [
        {
          "indexed": true,
          "internalType": "address",
          "name": "user",
          "type": "address"
        },
        {
          "indexed": false,
          "internalType": "uint256",
          "name": "amount",
          "type": "uint256"
        },
        {
          "indexed": false,
          "internalType": "uint256",
          "name": "reward",
          "type": "uint256"
        },
        {
          "indexed": true,
          "internalType": "string",
          "name": "stakeType",
          "type": "string"
        }
      ],
      "name": "Unstaked",
      "type": "event"
    },
    {
      "inputs": [],
      "name": "BASIS_POINTS",
      "outputs": [
        {
          "internalType": "uint256",
          "name": "",
          "type": "uint256"
        }
      ],
      "stateMutability": "view",
      "type": "function"
    },
    {
      "inputs": [],
      "name": "DEFAULT_ADMIN_ROLE",
      "outputs": [
        {
          "internalType": "bytes32",
          "name": "",
          "type": "bytes32"
        }
      ],
      "stateMutability": "view",
      "type": "function"
    },
    {
      "inputs": [],
      "name": "FORCE_UNLOCK_PENALTY",
      "outputs": [
        {
          "internalType": "uint256",
          "name": "",
          "type": "uint256"
        }
      ],
      "stateMutability": "view",
      "type": "function"
    },
    {
      "inputs": [],
      "name": "GOVERNOR_ROLE",
      "outputs": [
        {
          "internalType": "bytes32",
          "name": "",
          "type": "bytes32"
        }
      ],
      "stateMutability": "view",
      "type": "function"
    },
    {
      "inputs": [],
      "name": "MAX_RATE_1YEAR",
      "outputs": [
        {
          "internalType": "uint256",
          "name": "",
          "type": "uint256"
        }
      ],
      "stateMutability": "view",
      "type": "function"
    },
    {
      "inputs": [],
      "name": "MAX_RATE_7DAYS",
      "outputs": [
        {
          "internalType": "uint256",
          "name": "",
          "type": "uint256"
        }
      ],
      "stateMutability": "view",
      "type": "function"
    },
    {
      "inputs": [],
      "name": "MAX_STAKE_AMOUNT",
      "outputs": [
        {
          "internalType": "uint256",
          "name": "",
          "type": "uint256"
        }
      ],
      "stateMutability": "view",
      "type": "function"
    },
    {
      "inputs": [],
      "name": "MIN_RATE_1YEAR",
      "outputs": [
        {
          "internalType": "uint256",
          "name": "",
          "type": "uint256"
        }
      ],
      "stateMutability": "view",
      "type": "function"
    },
    {
      "inputs": [],
      "name": "MIN_RATE_7DAYS",
      "outputs": [
        {
          "internalType": "uint256",
          "name": "",
          "type": "uint256"
        }
      ],
      "stateMutability": "view",
      "type": "function"
    },
    {
      "inputs": [],
      "name": "PAUSER_ROLE",
      "outputs": [
        {
          "internalType": "bytes32",
          "name": "",
          "type": "bytes32"
        }
      ],
      "stateMutability": "view",
      "type": "function"
    },
    {
      "inputs": [],
      "name": "RATE_CHANGE_COOLDOWN",
      "outputs": [
        {
          "internalType": "uint256",
          "name": "",
          "type": "uint256"
        }
      ],
      "stateMutability": "view",
      "type": "function"
    },
    {
      "inputs": [],
      "name": "UNLOCK_PERIOD_1YEAR",
      "outputs": [
        {
          "internalType": "uint256",
          "name": "",
          "type": "uint256"
        }
      ],
      "stateMutability": "view",
      "type": "function"
    },
    {
      "inputs": [],
      "name": "UNLOCK_PERIOD_7DAYS",
      "outputs": [
        {
          "internalType": "uint256",
          "name": "",
          "type": "uint256"
        }
      ],
      "stateMutability": "view",
      "type": "function"
    },
    {
      "inputs": [],
      "name": "YEAR_IN_SECONDS",
      "outputs": [
        {
          "internalType": "uint256",
          "name": "",
          "type": "uint256"
        }
      ],
      "stateMutability": "view",
      "type": "function"
    },
    {
      "inputs": [
        {
          "components": [
            {
              "internalType": "uint256",
              "name": "amount",
              "type": "uint256"
            },
            {
              "internalType": "uint256",
              "name": "since",
              "type": "uint256"
            },
            {
              "internalType": "uint256",
              "name": "unlockRequestTime",
              "type": "uint256"
            },
            {
              "internalType": "bool",
              "name": "isLocked",
              "type": "bool"
            },
            {
              "internalType": "uint256",
              "name": "rate",
              "type": "uint256"
            },
            {
              "internalType": "uint256",
              "name": "unlockPeriod",
              "type": "uint256"
            }
          ],
          "internalType": "struct MoonCatStaking.Stake",
          "name": "stake",
          "type": "tuple"
        }
      ],
      "name": "calculatePendingRewards",
      "outputs": [
        {
          "internalType": "uint256",
          "name": "",
          "type": "uint256"
        }
      ],
      "stateMutability": "view",
      "type": "function"
    },
    {
      "inputs": [
        {
          "internalType": "address",
          "name": "user",
          "type": "address"
        },
        {
          "internalType": "bool",
          "name": "is7Days",
          "type": "bool"
        }
      ],
      "name": "debugCalculation",
      "outputs": [
        {
          "internalType": "uint256",
          "name": "stakeAmount",
          "type": "uint256"
        },
        {
          "internalType": "uint256",
          "name": "stakeDuration",
          "type": "uint256"
        },
        {
          "internalType": "uint256",
          "name": "rate",
          "type": "uint256"
        },
        {
          "internalType": "uint256",
          "name": "calculatedInterest",
          "type": "uint256"
        },
        {
          "internalType": "bool",
          "name": "isLocked",
          "type": "bool"
        },
        {
          "internalType": "uint256",
          "name": "unlockRequestTime",
          "type": "uint256"
        }
      ],
      "stateMutability": "view",
      "type": "function"
    },
    {
      "inputs": [],
      "name": "disableEmergencyMode",
      "outputs": [],
      "stateMutability": "nonpayable",
      "type": "function"
    },
    {
      "inputs": [],
      "name": "emergencyMode",
      "outputs": [
        {
          "internalType": "bool",
          "name": "",
          "type": "bool"
        }
      ],
      "stateMutability": "view",
      "type": "function"
    },
    {
      "inputs": [],
      "name": "emergencyWithdraw",
      "outputs": [],
      "stateMutability": "nonpayable",
      "type": "function"
    },
    {
      "inputs": [],
      "name": "enableEmergencyMode",
      "outputs": [],
      "stateMutability": "nonpayable",
      "type": "function"
    },
    {
      "inputs": [],
      "name": "forceUnlock1Year",
      "outputs": [],
      "stateMutability": "nonpayable",
      "type": "function"
    },
    {
      "inputs": [],
      "name": "forceUnlock7Days",
      "outputs": [],
      "stateMutability": "nonpayable",
      "type": "function"
    },
    {
      "inputs": [
        {
          "internalType": "address",
          "name": "user",
          "type": "address"
        }
      ],
      "name": "getAllStakingStats",
      "outputs": [
        {
          "components": [
            {
              "internalType": "uint256",
              "name": "totalStaked",
              "type": "uint256"
            },
            {
              "internalType": "uint256",
              "name": "totalCompounded",
              "type": "uint256"
            },
            {
              "internalType": "uint256",
              "name": "totalWithdrawn",
              "type": "uint256"
            },
            {
              "internalType": "uint256",
              "name": "currentPendingRewards",
              "type": "uint256"
            }
          ],
          "internalType": "struct MoonCatStaking.StakingStats",
          "name": "stats7Days",
          "type": "tuple"
        },
        {
          "components": [
            {
              "internalType": "uint256",
              "name": "totalStaked",
              "type": "uint256"
            },
            {
              "internalType": "uint256",
              "name": "totalCompounded",
              "type": "uint256"
            },
            {
              "internalType": "uint256",
              "name": "totalWithdrawn",
              "type": "uint256"
            },
            {
              "internalType": "uint256",
              "name": "currentPendingRewards",
              "type": "uint256"
            }
          ],
          "internalType": "struct MoonCatStaking.StakingStats",
          "name": "stats1Year",
          "type": "tuple"
        }
      ],
      "stateMutability": "view",
      "type": "function"
    },
    {
      "inputs": [
        {
          "internalType": "bytes32",
          "name": "role",
          "type": "bytes32"
        }
      ],
      "name": "getRoleAdmin",
      "outputs": [
        {
          "internalType": "bytes32",
          "name": "",
          "type": "bytes32"
        }
      ],
      "stateMutability": "view",
      "type": "function"
    },
    {
      "inputs": [
        {
          "internalType": "address",
          "name": "user",
          "type": "address"
        }
      ],
      "name": "getStakeDetails1Year",
      "outputs": [
        {
          "internalType": "uint256",
          "name": "stakedAmount",
          "type": "uint256"
        },
        {
          "internalType": "uint256",
          "name": "pendingRewards",
          "type": "uint256"
        },
        {
          "internalType": "bool",
          "name": "isLocked",
          "type": "bool"
        },
        {
          "internalType": "uint256",
          "name": "unlockRequestTime",
          "type": "uint256"
        },
        {
          "internalType": "uint256",
          "name": "timeStaked",
          "type": "uint256"
        },
        {
          "internalType": "uint256",
          "name": "rate",
          "type": "uint256"
        }
      ],
      "stateMutability": "view",
      "type": "function"
    },
    {
      "inputs": [
        {
          "internalType": "address",
          "name": "user",
          "type": "address"
        }
      ],
      "name": "getStakeDetails7Days",
      "outputs": [
        {
          "internalType": "uint256",
          "name": "stakedAmount",
          "type": "uint256"
        },
        {
          "internalType": "uint256",
          "name": "pendingRewards",
          "type": "uint256"
        },
        {
          "internalType": "bool",
          "name": "isLocked",
          "type": "bool"
        },
        {
          "internalType": "uint256",
          "name": "unlockRequestTime",
          "type": "uint256"
        },
        {
          "internalType": "uint256",
          "name": "timeStaked",
          "type": "uint256"
        },
        {
          "internalType": "uint256",
          "name": "rate",
          "type": "uint256"
        }
      ],
      "stateMutability": "view",
      "type": "function"
    },
    {
      "inputs": [
        {
          "internalType": "address",
          "name": "user",
          "type": "address"
        },
        {
          "internalType": "bool",
          "name": "is7Days",
          "type": "bool"
        }
      ],
      "name": "getTimeUntilUnlock",
      "outputs": [
        {
          "internalType": "uint256",
          "name": "",
          "type": "uint256"
        }
      ],
      "stateMutability": "view",
      "type": "function"
    },
    {
      "inputs": [
        {
          "internalType": "bytes32",
          "name": "role",
          "type": "bytes32"
        },
        {
          "internalType": "address",
          "name": "account",
          "type": "address"
        }
      ],
      "name": "grantRole",
      "outputs": [],
      "stateMutability": "nonpayable",
      "type": "function"
    },
    {
      "inputs": [
        {
          "internalType": "bytes32",
          "name": "role",
          "type": "bytes32"
        },
        {
          "internalType": "address",
          "name": "account",
          "type": "address"
        }
      ],
      "name": "hasRole",
      "outputs": [
        {
          "internalType": "bool",
          "name": "",
          "type": "bool"
        }
      ],
      "stateMutability": "view",
      "type": "function"
    },
    {
      "inputs": [
        {
          "components": [
            {
              "internalType": "uint256",
              "name": "amount",
              "type": "uint256"
            },
            {
              "internalType": "uint256",
              "name": "since",
              "type": "uint256"
            },
            {
              "internalType": "uint256",
              "name": "unlockRequestTime",
              "type": "uint256"
            },
            {
              "internalType": "bool",
              "name": "isLocked",
              "type": "bool"
            },
            {
              "internalType": "uint256",
              "name": "rate",
              "type": "uint256"
            },
            {
              "internalType": "uint256",
              "name": "unlockPeriod",
              "type": "uint256"
            }
          ],
          "internalType": "struct MoonCatStaking.Stake",
          "name": "stake",
          "type": "tuple"
        }
      ],
      "name": "isUnlockComplete",
      "outputs": [
        {
          "internalType": "bool",
          "name": "",
          "type": "bool"
        }
      ],
      "stateMutability": "view",
      "type": "function"
    },
    {
      "inputs": [],
      "name": "lastRateChange",
      "outputs": [
        {
          "internalType": "uint256",
          "name": "",
          "type": "uint256"
        }
      ],
      "stateMutability": "view",
      "type": "function"
    },
    {
      "inputs": [
        {
          "internalType": "bool",
          "name": "is7DayStake",
          "type": "bool"
        }
      ],
      "name": "optInToNewRate",
      "outputs": [],
      "stateMutability": "nonpayable",
      "type": "function"
    },
    {
      "inputs": [],
      "name": "pause",
      "outputs": [],
      "stateMutability": "nonpayable",
      "type": "function"
    },
    {
      "inputs": [],
      "name": "paused",
      "outputs": [
        {
          "internalType": "bool",
          "name": "",
          "type": "bool"
        }
      ],
      "stateMutability": "view",
      "type": "function"
    },
    {
      "inputs": [
        {
          "internalType": "bytes32",
          "name": "role",
          "type": "bytes32"
        },
        {
          "internalType": "address",
          "name": "callerConfirmation",
          "type": "address"
        }
      ],
      "name": "renounceRole",
      "outputs": [],
      "stateMutability": "nonpayable",
      "type": "function"
    },
    {
      "inputs": [],
      "name": "requestUnlock1Year",
      "outputs": [],
      "stateMutability": "nonpayable",
      "type": "function"
    },
    {
      "inputs": [],
      "name": "requestUnlock7Days",
      "outputs": [],
      "stateMutability": "nonpayable",
      "type": "function"
    },
    {
      "inputs": [
        {
          "internalType": "bytes32",
          "name": "role",
          "type": "bytes32"
        },
        {
          "internalType": "address",
          "name": "account",
          "type": "address"
        }
      ],
      "name": "revokeRole",
      "outputs": [],
      "stateMutability": "nonpayable",
      "type": "function"
    },
    {
      "inputs": [],
      "name": "rewardRate1Year",
      "outputs": [
        {
          "internalType": "uint256",
          "name": "",
          "type": "uint256"
        }
      ],
      "stateMutability": "view",
      "type": "function"
    },
    {
      "inputs": [],
      "name": "rewardRate7Days",
      "outputs": [
        {
          "internalType": "uint256",
          "name": "",
          "type": "uint256"
        }
      ],
      "stateMutability": "view",
      "type": "function"
    },
    {
      "inputs": [
        {
          "internalType": "uint256",
          "name": "_newRate",
          "type": "uint256"
        }
      ],
      "name": "setRewardRate1Year",
      "outputs": [],
      "stateMutability": "nonpayable",
      "type": "function"
    },
    {
      "inputs": [
        {
          "internalType": "uint256",
          "name": "_newRate",
          "type": "uint256"
        }
      ],
      "name": "setRewardRate7Days",
      "outputs": [],
      "stateMutability": "nonpayable",
      "type": "function"
    },
    {
      "inputs": [
        {
          "internalType": "uint256",
          "name": "_amount",
          "type": "uint256"
        }
      ],
      "name": "stake1Year",
      "outputs": [],
      "stateMutability": "nonpayable",
      "type": "function"
    },
    {
      "inputs": [
        {
          "internalType": "uint256",
          "name": "_amount",
          "type": "uint256"
        }
      ],
      "name": "stake7Days",
      "outputs": [],
      "stateMutability": "nonpayable",
      "type": "function"
    },
    {
      "inputs": [
        {
          "internalType": "address",
          "name": "",
          "type": "address"
        }
      ],
      "name": "stakes1Year",
      "outputs": [
        {
          "internalType": "uint256",
          "name": "amount",
          "type": "uint256"
        },
        {
          "internalType": "uint256",
          "name": "since",
          "type": "uint256"
        },
        {
          "internalType": "uint256",
          "name": "unlockRequestTime",
          "type": "uint256"
        },
        {
          "internalType": "bool",
          "name": "isLocked",
          "type": "bool"
        },
        {
          "internalType": "uint256",
          "name": "rate",
          "type": "uint256"
        },
        {
          "internalType": "uint256",
          "name": "unlockPeriod",
          "type": "uint256"
        }
      ],
      "stateMutability": "view",
      "type": "function"
    },
    {
      "inputs": [
        {
          "internalType": "address",
          "name": "",
          "type": "address"
        }
      ],
      "name": "stakes7Days",
      "outputs": [
        {
          "internalType": "uint256",
          "name": "amount",
          "type": "uint256"
        },
        {
          "internalType": "uint256",
          "name": "since",
          "type": "uint256"
        },
        {
          "internalType": "uint256",
          "name": "unlockRequestTime",
          "type": "uint256"
        },
        {
          "internalType": "bool",
          "name": "isLocked",
          "type": "bool"
        },
        {
          "internalType": "uint256",
          "name": "rate",
          "type": "uint256"
        },
        {
          "internalType": "uint256",
          "name": "unlockPeriod",
          "type": "uint256"
        }
      ],
      "stateMutability": "view",
      "type": "function"
    },
    {
      "inputs": [
        {
          "internalType": "address",
          "name": "",
          "type": "address"
        }
      ],
      "name": "stakingStats1Year",
      "outputs": [
        {
          "internalType": "uint256",
          "name": "totalStaked",
          "type": "uint256"
        },
        {
          "internalType": "uint256",
          "name": "totalCompounded",
          "type": "uint256"
        },
        {
          "internalType": "uint256",
          "name": "totalWithdrawn",
          "type": "uint256"
        },
        {
          "internalType": "uint256",
          "name": "currentPendingRewards",
          "type": "uint256"
        }
      ],
      "stateMutability": "view",
      "type": "function"
    },
    {
      "inputs": [
        {
          "internalType": "address",
          "name": "",
          "type": "address"
        }
      ],
      "name": "stakingStats7Days",
      "outputs": [
        {
          "internalType": "uint256",
          "name": "totalStaked",
          "type": "uint256"
        },
        {
          "internalType": "uint256",
          "name": "totalCompounded",
          "type": "uint256"
        },
        {
          "internalType": "uint256",
          "name": "totalWithdrawn",
          "type": "uint256"
        },
        {
          "internalType": "uint256",
          "name": "currentPendingRewards",
          "type": "uint256"
        }
      ],
      "stateMutability": "view",
      "type": "function"
    },
    {
      "inputs": [
        {
          "internalType": "bytes4",
          "name": "interfaceId",
          "type": "bytes4"
        }
      ],
      "name": "supportsInterface",
      "outputs": [
        {
          "internalType": "bool",
          "name": "",
          "type": "bool"
        }
      ],
      "stateMutability": "view",
      "type": "function"
    },
    {
      "inputs": [],
      "name": "token",
      "outputs": [
        {
          "internalType": "contract MoonCatToken",
          "name": "",
          "type": "address"
        }
      ],
      "stateMutability": "view",
      "type": "function"
    },
    {
      "inputs": [],
      "name": "unpause",
      "outputs": [],
      "stateMutability": "nonpayable",
      "type": "function"
    },
    {
      "inputs": [],
      "name": "unstake1Year",
      "outputs": [],
      "stateMutability": "nonpayable",
      "type": "function"
    },
    {
      "inputs": [],
      "name": "unstake7Days",
      "outputs": [],
      "stateMutability": "nonpayable",
      "type": "function"
    },
    {
      "inputs": [],
      "name": "withdrawAllInterest",
      "outputs": [],
      "stateMutability": "nonpayable",
      "type": "function"
    }
  ],
  "bytecode": "0x60a060405234801561001057600080fd5b5060405161640738038061640783398181016040528101906100329190610372565b60016000819055506000600260006101000a81548160ff021916908315150217905550600073ffffffffffffffffffffffffffffffffffffffff168173ffffffffffffffffffffffffffffffffffffffff16036100c4576040517f08c379a00000000000000000000000000000000000000000000000000000000081526004016100bb906103fc565b60405180910390fd5b8073ffffffffffffffffffffffffffffffffffffffff1660808173ffffffffffffffffffffffffffffffffffffffff168152505061010b6000801b3361018d60201b60201c565b5061013c7f7935bd0ae54bc31f548c14dba4d37c5c64b3f8ca900cb468fb8abd54d5894f553361018d60201b60201c565b5061016d7f65d7a28e3265b37a6474929f336521b332c1681b933f6cb9f3376673440d862a3361018d60201b60201c565b5061027a6007819055506103bf60088190555042600a819055505061041c565b600061019f838361028a60201b60201c565b61027f57600180600085815260200190815260200160002060000160008473ffffffffffffffffffffffffffffffffffffffff1673ffffffffffffffffffffffffffffffffffffffff16815260200190815260200160002060006101000a81548160ff02191690831515021790555061021c6102f560201b60201c565b73ffffffffffffffffffffffffffffffffffffffff168273ffffffffffffffffffffffffffffffffffffffff16847f2f8788117e7eff1d82e926ec794901d17c78024a50270940304540a733656f0d60405160405180910390a460019050610284565b600090505b92915050565b60006001600084815260200190815260200160002060000160008373ffffffffffffffffffffffffffffffffffffffff1673ffffffffffffffffffffffffffffffffffffffff16815260200190815260200160002060009054906101000a900460ff16905092915050565b600033905090565b600080fd5b600073ffffffffffffffffffffffffffffffffffffffff82169050919050565b600061032d82610302565b9050919050565b600061033f82610322565b9050919050565b61034f81610334565b811461035a57600080fd5b50565b60008151905061036c81610346565b92915050565b600060208284031215610388576103876102fd565b5b60006103968482850161035d565b91505092915050565b600082825260208201905092915050565b7f546f6b656e2063616e6e6f74206265207a65726f206164647265737300000000600082015250565b60006103e6601c8361039f565b91506103f1826103b0565b602082019050919050565b60006020820190508181036000830152610415816103d9565b9050919050565b608051615f9861046f60003960008181610d8601528181611aaa01528181611f750152818161235c01528181613308015281816138de01528181613e4f015281816142b9015261450f0152615f986000f3fe608060405234801561001057600080fd5b50600436106103425760003560e01c80638456cb59116101b8578063ccc5749011610104578063df912195116100a2578063e69702881161007c578063e697028814610950578063ef9525681461095a578063fb30eba814610964578063fc0c546a1461099957610342565b8063df912195146108e1578063e1f1c4a714610914578063e63ab1e91461093257610342565b8063da71ae79116100de578063da71ae791461084f578063db0794db1461086d578063db2e21bc146108a2578063dd847c88146108ac57610342565b8063ccc574901461080b578063cda01fc314610829578063d547741f1461083357610342565b8063a4c6347911610171578063bd42d2da1161014b578063bd42d2da14610795578063c513b600146107c5578063c541f839146107e3578063c5b1c7d01461080157610342565b8063a4c6347914610765578063ba3f1b5914610781578063bb9287ad1461078b57610342565b80638456cb591461068c57806386c39df41461069657806391d14854146106b2578063935feabe146106e25780639a71d6c414610712578063a217fddf1461074757610342565b806336568abe11610292578063690cc599116102305780636eaa7ba21161020a5780636eaa7ba21461060257806374912779146106205780637847ea531461065057806378a95e071461066e57610342565b8063690cc599146105bc5780636abcc092146105da5780636d3995c5146105f857610342565b80634cdcc9f11161026c5780634cdcc9f11461055a57806356e586ba146105765780635c975abb1461059457806364f47933146105b257610342565b806336568abe146105165780633f4ba83a1461053257806349730fc11461053c57610342565b80630f603702116102ff578063248a9ca3116102d9578063248a9ca31461049057806329da3d93146104c05780632f2ff15d146104dc5780632f92f1f2146104f857610342565b80630f6037021461042057806311268f4d146104555780631532d0ba1461048657610342565b806301ffc9a7146103475780630375643e14610377578063058c83bd14610395578063076d723d146103c85780630905f560146103e65780630f544ac714610404575b600080fd5b610361600480360381019061035c9190614c7e565b6109b7565b60405161036e9190614cc6565b60405180910390f35b61037f610a31565b60405161038c9190614cfa565b60405180910390f35b6103af60048036038101906103aa9190614d73565b610a36565b6040516103bf9493929190614da0565b60405180910390f35b6103d0610a66565b6040516103dd9190614cfa565b60405180910390f35b6103ee610a6b565b6040516103fb9190614cc6565b60405180910390f35b61041e60048036038101906104199190614e11565b610a7e565b005b61043a60048036038101906104359190614d73565b610f9b565b60405161044c96959493929190614e3e565b60405180910390f35b61046f600480360381019061046a9190614d73565b611077565b60405161047d929190614f03565b60405180910390f35b61048e6112d0565b005b6104aa60048036038101906104a59190614f63565b611504565b6040516104b79190614f9f565b60405180910390f35b6104da60048036038101906104d59190614e11565b611524565b005b6104f660048036038101906104f19190614fba565b6116bc565b005b6105006116de565b60405161050d9190614cfa565b60405180910390f35b610530600480360381019061052b9190614fba565b6116ec565b005b61053a611767565b005b61054461179c565b6040516105519190614cfa565b60405180910390f35b610574600480360381019061056f9190614e11565b6117a2565b005b61057e611cc0565b60405161058b9190614cfa565b60405180910390f35b61059c611cc6565b6040516105a99190614cc6565b60405180910390f35b6105ba611cdd565b005b6105c46120c2565b6040516105d19190614cfa565b60405180910390f35b6105e26120c8565b6040516105ef9190614cfa565b60405180910390f35b6106006120ce565b005b61060a6124aa565b6040516106179190614cfa565b60405180910390f35b61063a60048036038101906106359190615157565b6124b1565b6040516106479190614cc6565b60405180910390f35b6106586124ec565b6040516106659190614cfa565b60405180910390f35b6106766124f4565b6040516106839190614cfa565b60405180910390f35b6106946124fb565b005b6106b060048036038101906106ab9190614e11565b612530565b005b6106cc60048036038101906106c79190614fba565b6126c8565b6040516106d99190614cc6565b60405180910390f35b6106fc60048036038101906106f79190615184565b612733565b6040516107099190614cfa565b60405180910390f35b61072c60048036038101906107279190614d73565b612870565b60405161073e96959493929190614e3e565b60405180910390f35b61074f61294c565b60405161075c9190614f9f565b60405180910390f35b61077f600480360381019061077a91906151c4565b612953565b005b610789613048565b005b61079361327c565b005b6107af60048036038101906107aa9190615157565b613452565b6040516107bc9190614cfa565b60405180910390f35b6107cd613551565b6040516107da9190614cfa565b60405180910390f35b6107eb613557565b6040516107f89190614cfa565b60405180910390f35b61080961355f565b005b610813613625565b6040516108209190614f9f565b60405180910390f35b610831613649565b005b61084d60048036038101906108489190614fba565b613a2e565b005b610857613a50565b6040516108649190614cfa565b60405180910390f35b61088760048036038101906108829190615184565b613a56565b604051610899969594939291906151f1565b60405180910390f35b6108aa613bf0565b005b6108c660048036038101906108c19190614d73565b613f88565b6040516108d896959493929190615252565b60405180910390f35b6108fb60048036038101906108f69190614d73565b613fd1565b60405161090b9493929190614da0565b60405180910390f35b61091c614001565b6040516109299190614cfa565b60405180910390f35b61093a614007565b6040516109479190614f9f565b60405180910390f35b61095861402b565b005b610962614407565b005b61097e60048036038101906109799190614d73565b6144c4565b60405161099096959493929190615252565b60405180910390f35b6109a161450d565b6040516109ae9190615312565b60405180910390f35b60007f7965db0b000000000000000000000000000000000000000000000000000000007bffffffffffffffffffffffffffffffffffffffffffffffffffffffff1916827bffffffffffffffffffffffffffffffffffffffffffffffffffffffff19161480610a2a5750610a2982614531565b5b9050919050565b60c881565b60066020528060005260406000206000915090508060000154908060010154908060020154908060030154905084565b606481565b600960009054906101000a900460ff1681565b610a8661459b565b610a8e6145e1565b60008111610ad1576040517f08c379a0000000000000000000000000000000000000000000000000000000008152600401610ac89061538a565b60405180910390fd5b69d3c21bcecceda1000000811115610b1e576040517f08c379a0000000000000000000000000000000000000000000000000000000008152600401610b15906153f6565b60405180910390fd5b69d3c21bcecceda100000081600360003373ffffffffffffffffffffffffffffffffffffffff1673ffffffffffffffffffffffffffffffffffffffff16815260200190815260200160002060000154610b779190615445565b1115610bb8576040517f08c379a0000000000000000000000000000000000000000000000000000000008152600401610baf906154c5565b60405180910390fd5b6000600360003373ffffffffffffffffffffffffffffffffffffffff1673ffffffffffffffffffffffffffffffffffffffff168152602001908152602001600020905060008160000154118015610c1d57508060030160009054906101000a900460ff165b15610d84576000816000015490506000610c8e836040518060c00160405290816000820154815260200160018201548152602001600282015481526020016003820160009054906101000a900460ff1615151515815260200160048201548152602001600582015481525050613452565b905080836000016000828254610ca49190615445565b925050819055504283600101819055506000811115610d815780600560003373ffffffffffffffffffffffffffffffffffffffff1673ffffffffffffffffffffffffffffffffffffffff1681526020019081526020016000206001016000828254610d0f9190615445565b92505081905550604051610d229061553c565b60405180910390203373ffffffffffffffffffffffffffffffffffffffff167f7bdaaefb6d3f467f6801b8f10e62f3ad80c945b1770ecb80fdce030e2599fa7084848760000154604051610d7893929190615551565b60405180910390a35b50505b7f000000000000000000000000000000000000000000000000000000000000000073ffffffffffffffffffffffffffffffffffffffff166323b872dd3330856040518463ffffffff1660e01b8152600401610de193929190615597565b6020604051808303816000875af1158015610e00573d6000803e3d6000fd5b505050506040513d601f19601f82011682018060405250810190610e2491906155e3565b610e63576040517f08c379a0000000000000000000000000000000000000000000000000000000008152600401610e5a9061565c565b60405180910390fd5b81816000016000828254610e779190615445565b9250508190555042816001018190555060018160030160006101000a81548160ff021916908315150217905550600081600201819055506000816004015403610ed257600754816004018190555062093a8081600501819055505b81600560003373ffffffffffffffffffffffffffffffffffffffff1673ffffffffffffffffffffffffffffffffffffffff1681526020019081526020016000206000016000828254610f249190615445565b92505081905550604051610f379061553c565b60405180910390203373ffffffffffffffffffffffffffffffffffffffff167f66d612d12bb1902ec26fd9a4991d9d58d71d0580427497d62731e7527f1e01a48442604051610f8792919061567c565b60405180910390a350610f98614622565b50565b6000806000806000806000600360008973ffffffffffffffffffffffffffffffffffffffff1673ffffffffffffffffffffffffffffffffffffffff1681526020019081526020016000206040518060c00160405290816000820154815260200160018201548152602001600282015481526020016003820160009054906101000a900460ff16151515158152602001600482015481526020016005820154815250509050806000015161104d82613452565b82606001518360400151846020015185608001519650965096509650965096505091939550919395565b61107f614bef565b611087614bef565b600560008473ffffffffffffffffffffffffffffffffffffffff1673ffffffffffffffffffffffffffffffffffffffff1681526020019081526020016000206040518060800160405290816000820154815260200160018201548152602001600282015481526020016003820154815250509150600660008473ffffffffffffffffffffffffffffffffffffffff1673ffffffffffffffffffffffffffffffffffffffff16815260200190815260200160002060405180608001604052908160008201548152602001600182015481526020016002820154815260200160038201548152505090506000600360008573ffffffffffffffffffffffffffffffffffffffff1673ffffffffffffffffffffffffffffffffffffffff1681526020019081526020016000206040518060c00160405290816000820154815260200160018201548152602001600282015481526020016003820160009054906101000a900460ff161515151581526020016004820154815260200160058201548152505090506000600460008673ffffffffffffffffffffffffffffffffffffffff1673ffffffffffffffffffffffffffffffffffffffff1681526020019081526020016000206040518060c00160405290816000820154815260200160018201548152602001600282015481526020016003820160009054906101000a900460ff161515151581526020016004820154815260200160058201548152505090506112ae82613452565b8460600181815250506112c081613452565b8360600181815250505050915091565b6112d86145e1565b6000600460003373ffffffffffffffffffffffffffffffffffffffff1673ffffffffffffffffffffffffffffffffffffffff16815260200190815260200160002090506000816000015411611362576040517f08c379a0000000000000000000000000000000000000000000000000000000008152600401611359906156f1565b60405180910390fd5b60008160020154146113a9576040517f08c379a00000000000000000000000000000000000000000000000000000000081526004016113a09061575d565b60405180910390fd5b600061140c826040518060c00160405290816000820154815260200160018201548152602001600282015481526020016003820160009054906101000a900460ff1615151515815260200160048201548152602001600582015481525050613452565b9050600081111561148c578082600001600082825461142b9190615445565b9250508190555080600660003373ffffffffffffffffffffffffffffffffffffffff1673ffffffffffffffffffffffffffffffffffffffff16815260200190815260200160002060010160008282546114849190615445565b925050819055505b4282600101819055504282600201819055506040516114aa906157c9565b60405180910390203373ffffffffffffffffffffffffffffffffffffffff167faf1e05ce41cdb4bdc4f23bff459f1b9173663f6a49fcf52898845f8d65906886426040516114f89190614cfa565b60405180910390a35050565b600060016000838152602001908152602001600020600101549050919050565b7f7935bd0ae54bc31f548c14dba4d37c5c64b3f8ca900cb468fb8abd54d5894f5561154e8161462c565b6115566145e1565b61138882111561159b576040517f08c379a00000000000000000000000000000000000000000000000000000000081526004016115929061582a565b60405180910390fd5b60648210156115df576040517f08c379a00000000000000000000000000000000000000000000000000000000081526004016115d690615896565b60405180910390fd5b6000600a54141580156115fc57506115fa6000801b336126c8565b155b156116555762093a80600a546116129190615445565b421015611654576040517f08c379a000000000000000000000000000000000000000000000000000000000815260040161164b90615902565b60405180910390fd5b5b600060075490508260078190555042600a819055506040516116769061553c565b60405180910390207f4451261fd4f7dbcc8fd7251b7a2f5501686e0ab7fad43ce240b0a0d60155eb6b82856040516116af92919061567c565b60405180910390a2505050565b6116c582611504565b6116ce8161462c565b6116d88383614640565b50505050565b69d3c21bcecceda100000081565b6116f4614731565b73ffffffffffffffffffffffffffffffffffffffff168173ffffffffffffffffffffffffffffffffffffffff1614611758576040517f6697b23200000000000000000000000000000000000000000000000000000000815260040160405180910390fd5b6117628282614739565b505050565b7f65d7a28e3265b37a6474929f336521b332c1681b933f6cb9f3376673440d862a6117918161462c565b61179961482c565b50565b60075481565b6117aa61459b565b6117b26145e1565b600081116117f5576040517f08c379a00000000000000000000000000000000000000000000000000000000081526004016117ec9061538a565b60405180910390fd5b69d3c21bcecceda1000000811115611842576040517f08c379a0000000000000000000000000000000000000000000000000000000008152600401611839906153f6565b60405180910390fd5b69d3c21bcecceda100000081600460003373ffffffffffffffffffffffffffffffffffffffff1673ffffffffffffffffffffffffffffffffffffffff1681526020019081526020016000206000015461189b9190615445565b11156118dc576040517f08c379a00000000000000000000000000000000000000000000000000000000081526004016118d3906154c5565b60405180910390fd5b6000600460003373ffffffffffffffffffffffffffffffffffffffff1673ffffffffffffffffffffffffffffffffffffffff16815260200190815260200160002090506000816000015411801561194157508060030160009054906101000a900460ff165b15611aa85760008160000154905060006119b2836040518060c00160405290816000820154815260200160018201548152602001600282015481526020016003820160009054906101000a900460ff1615151515815260200160048201548152602001600582015481525050613452565b9050808360000160008282546119c89190615445565b925050819055504283600101819055506000811115611aa55780600660003373ffffffffffffffffffffffffffffffffffffffff1673ffffffffffffffffffffffffffffffffffffffff1681526020019081526020016000206001016000828254611a339190615445565b92505081905550604051611a46906157c9565b60405180910390203373ffffffffffffffffffffffffffffffffffffffff167f7bdaaefb6d3f467f6801b8f10e62f3ad80c945b1770ecb80fdce030e2599fa7084848760000154604051611a9c93929190615551565b60405180910390a35b50505b7f000000000000000000000000000000000000000000000000000000000000000073ffffffffffffffffffffffffffffffffffffffff166323b872dd3330856040518463ffffffff1660e01b8152600401611b0593929190615597565b6020604051808303816000875af1158015611b24573d6000803e3d6000fd5b505050506040513d601f19601f82011682018060405250810190611b4891906155e3565b611b87576040517f08c379a0000000000000000000000000000000000000000000000000000000008152600401611b7e9061565c565b60405180910390fd5b81816000016000828254611b9b9190615445565b9250508190555042816001018190555060018160030160006101000a81548160ff021916908315150217905550600081600201819055506000816004015403611bf75760085481600401819055506301e1338081600501819055505b81600660003373ffffffffffffffffffffffffffffffffffffffff1673ffffffffffffffffffffffffffffffffffffffff1681526020019081526020016000206000016000828254611c499190615445565b92505081905550604051611c5c906157c9565b60405180910390203373ffffffffffffffffffffffffffffffffffffffff167f66d612d12bb1902ec26fd9a4991d9d58d71d0580427497d62731e7527f1e01a48442604051611cac92919061567c565b60405180910390a350611cbd614622565b50565b6126ac81565b6000600260009054906101000a900460ff16905090565b611ce561459b565b611ced6145e1565b6000600460003373ffffffffffffffffffffffffffffffffffffffff1673ffffffffffffffffffffffffffffffffffffffff16815260200190815260200160002090506000816000015411611d77576040517f08c379a0000000000000000000000000000000000000000000000000000000008152600401611d6e906156f1565b60405180910390fd5b6000816002015411611dbe576040517f08c379a0000000000000000000000000000000000000000000000000000000008152600401611db59061596e565b60405180910390fd5b6301e133808160020154611dd29190615445565b421015611e14576040517f08c379a0000000000000000000000000000000000000000000000000000000008152600401611e0b906159da565b60405180910390fd5b6000816000015490506000611e80836040518060c00160405290816000820154815260200160018201548152602001600282015481526020016003820160009054906101000a900460ff1615151515815260200160048201548152602001600582015481525050613452565b905060008183611e909190615445565b90506000821115611ef55781600660003373ffffffffffffffffffffffffffffffffffffffff1673ffffffffffffffffffffffffffffffffffffffff1681526020019081526020016000206002016000828254611eed9190615445565b925050819055505b600460003373ffffffffffffffffffffffffffffffffffffffff1673ffffffffffffffffffffffffffffffffffffffff168152602001908152602001600020600080820160009055600182016000905560028201600090556003820160006101000a81549060ff02191690556004820160009055600582016000905550507f000000000000000000000000000000000000000000000000000000000000000073ffffffffffffffffffffffffffffffffffffffff1663a9059cbb33836040518363ffffffff1660e01b8152600401611fce9291906159fa565b6020604051808303816000875af1158015611fed573d6000803e3d6000fd5b505050506040513d601f19601f8201168201806040525081019061201191906155e3565b612050576040517f08c379a00000000000000000000000000000000000000000000000000000000081526004016120479061565c565b60405180910390fd5b60405161205c906157c9565b60405180910390203373ffffffffffffffffffffffffffffffffffffffff167fd224ec5ad02946fe147952e6ad900ce0567e05d53bd64beb1b564a8c603d869c85856040516120ac92919061567c565b60405180910390a3505050506120c0614622565b565b61138881565b60085481565b6120d661459b565b6120de6145e1565b6000600360003373ffffffffffffffffffffffffffffffffffffffff1673ffffffffffffffffffffffffffffffffffffffff16815260200190815260200160002090506000816000015411612168576040517f08c379a000000000000000000000000000000000000000000000000000000000815260040161215f906156f1565b60405180910390fd5b6000816002015411156121d15760008160050154826002015461218b9190615445565b90508042106121cf576040517f08c379a00000000000000000000000000000000000000000000000000000000081526004016121c690615a6f565b60405180910390fd5b505b6000612234826040518060c00160405290816000820154815260200160018201548152602001600282015481526020016003820160009054906101000a900460ff1615151515815260200160048201548152602001600582015481525050613452565b905060008183600001546122489190615445565b905060008211156122ad5781600560003373ffffffffffffffffffffffffffffffffffffffff1673ffffffffffffffffffffffffffffffffffffffff16815260200190815260200160002060020160008282546122a59190615445565b925050819055505b6000612710611388836122c09190615a8f565b6122ca9190615b00565b9050600081836122da9190615b31565b9050600360003373ffffffffffffffffffffffffffffffffffffffff1673ffffffffffffffffffffffffffffffffffffffff168152602001908152602001600020600080820160009055600182016000905560028201600090556003820160006101000a81549060ff02191690556004820160009055600582016000905550507f000000000000000000000000000000000000000000000000000000000000000073ffffffffffffffffffffffffffffffffffffffff1663a9059cbb33836040518363ffffffff1660e01b81526004016123b59291906159fa565b6020604051808303816000875af11580156123d4573d6000803e3d6000fd5b505050506040513d601f19601f820116820180604052508101906123f891906155e3565b612437576040517f08c379a000000000000000000000000000000000000000000000000000000000815260040161242e9061565c565b60405180910390fd5b6040516124439061553c565b60405180910390203373ffffffffffffffffffffffffffffffffffffffff167f07d8a820151595a9521ea31802fb99d26992342fa0127530e142ff352ccd6a75838560405161249392919061567c565b60405180910390a350505050506124a8614622565b565b62093a8081565b6000808260400151036124c757600090506124e7565b60008260a0015190508083604001516124e09190615445565b4210159150505b919050565b6301e1338081565b62093a8081565b7f65d7a28e3265b37a6474929f336521b332c1681b933f6cb9f3376673440d862a6125258161462c565b61252d61488f565b50565b7f7935bd0ae54bc31f548c14dba4d37c5c64b3f8ca900cb468fb8abd54d5894f5561255a8161462c565b6125626145e1565b6126ac8211156125a7576040517f08c379a000000000000000000000000000000000000000000000000000000000815260040161259e9061582a565b60405180910390fd5b60c88210156125eb576040517f08c379a00000000000000000000000000000000000000000000000000000000081526004016125e290615896565b60405180910390fd5b6000600a541415801561260857506126066000801b336126c8565b155b156126615762093a80600a5461261e9190615445565b421015612660576040517f08c379a000000000000000000000000000000000000000000000000000000000815260040161265790615902565b60405180910390fd5b5b600060085490508260088190555042600a81905550604051612682906157c9565b60405180910390207f4451261fd4f7dbcc8fd7251b7a2f5501686e0ab7fad43ce240b0a0d60155eb6b82856040516126bb92919061567c565b60405180910390a2505050565b60006001600084815260200190815260200160002060000160008373ffffffffffffffffffffffffffffffffffffffff1673ffffffffffffffffffffffffffffffffffffffff16815260200190815260200160002060009054906101000a900460ff16905092915050565b6000808261277f57600460008573ffffffffffffffffffffffffffffffffffffffff1673ffffffffffffffffffffffffffffffffffffffff1681526020019081526020016000206127bf565b600360008573ffffffffffffffffffffffffffffffffffffffff1673ffffffffffffffffffffffffffffffffffffffff1681526020019081526020016000205b6040518060c00160405290816000820154815260200160018201548152602001600282015481526020016003820160009054906101000a900460ff16151515158152602001600482015481526020016005820154815250509050600081604001510361282f57600091505061286a565b60008160a0015182604001516128459190615445565b90508042106128595760009250505061286a565b42816128659190615b31565b925050505b92915050565b6000806000806000806000600460008973ffffffffffffffffffffffffffffffffffffffff1673ffffffffffffffffffffffffffffffffffffffff1681526020019081526020016000206040518060c00160405290816000820154815260200160018201548152602001600282015481526020016003820160009054906101000a900460ff16151515158152602001600482015481526020016005820154815250509050806000015161292282613452565b82606001518360400151846020015185608001519650965096509650965096505091939550919395565b6000801b81565b61295b6145e1565b600960009054906101000a900460ff16156129ab576040517f08c379a00000000000000000000000000000000000000000000000000000000081526004016129a290615bb1565b60405180910390fd5b8015612cfd576000600360003373ffffffffffffffffffffffffffffffffffffffff1673ffffffffffffffffffffffffffffffffffffffff16815260200190815260200160002090506000816000015411612a3b576040517f08c379a0000000000000000000000000000000000000000000000000000000008152600401612a32906156f1565b60405180910390fd5b8060030160009054906101000a900460ff16612a8c576040517f08c379a0000000000000000000000000000000000000000000000000000000008152600401612a8390615c1d565b60405180910390fd5b6000816002015414612ad3576040517f08c379a0000000000000000000000000000000000000000000000000000000008152600401612aca90615c89565b60405180910390fd5b600754816004015410612b1b576040517f08c379a0000000000000000000000000000000000000000000000000000000008152600401612b1290615cf5565b60405180910390fd5b6000612b7e826040518060c00160405290816000820154815260200160018201548152602001600282015481526020016003820160009054906101000a900460ff1615151515815260200160048201548152602001600582015481525050613452565b90506000826000015490506000821115612c715781836000016000828254612ba69190615445565b9250508190555081600560003373ffffffffffffffffffffffffffffffffffffffff1673ffffffffffffffffffffffffffffffffffffffff1681526020019081526020016000206001016000828254612bff9190615445565b92505081905550604051612c129061553c565b60405180910390203373ffffffffffffffffffffffffffffffffffffffff167f7bdaaefb6d3f467f6801b8f10e62f3ad80c945b1770ecb80fdce030e2599fa7083858760000154604051612c6893929190615551565b60405180910390a35b6000836004015490506007548460040181905550428460010181905550604051612c9a9061553c565b60405180910390203373ffffffffffffffffffffffffffffffffffffffff167f52dbe18db70a75dd71c1962b1993104267f1664218df26cbc3cd67e804e9193683600754604051612cec92919061567c565b60405180910390a350505050613045565b6000600460003373ffffffffffffffffffffffffffffffffffffffff1673ffffffffffffffffffffffffffffffffffffffff16815260200190815260200160002090506000816000015411612d87576040517f08c379a0000000000000000000000000000000000000000000000000000000008152600401612d7e906156f1565b60405180910390fd5b8060030160009054906101000a900460ff16612dd8576040517f08c379a0000000000000000000000000000000000000000000000000000000008152600401612dcf90615c1d565b60405180910390fd5b6000816002015414612e1f576040517f08c379a0000000000000000000000000000000000000000000000000000000008152600401612e1690615c89565b60405180910390fd5b600854816004015410612e67576040517f08c379a0000000000000000000000000000000000000000000000000000000008152600401612e5e90615cf5565b60405180910390fd5b6000612eca826040518060c00160405290816000820154815260200160018201548152602001600282015481526020016003820160009054906101000a900460ff1615151515815260200160048201548152602001600582015481525050613452565b90506000826000015490506000821115612fbd5781836000016000828254612ef29190615445565b9250508190555081600660003373ffffffffffffffffffffffffffffffffffffffff1673ffffffffffffffffffffffffffffffffffffffff1681526020019081526020016000206001016000828254612f4b9190615445565b92505081905550604051612f5e906157c9565b60405180910390203373ffffffffffffffffffffffffffffffffffffffff167f7bdaaefb6d3f467f6801b8f10e62f3ad80c945b1770ecb80fdce030e2599fa7083858760000154604051612fb493929190615551565b60405180910390a35b6000836004015490506008548460040181905550428460010181905550604051612fe6906157c9565b60405180910390203373ffffffffffffffffffffffffffffffffffffffff167f52dbe18db70a75dd71c1962b1993104267f1664218df26cbc3cd67e804e919368360085460405161303892919061567c565b60405180910390a3505050505b50565b6130506145e1565b6000600360003373ffffffffffffffffffffffffffffffffffffffff1673ffffffffffffffffffffffffffffffffffffffff168152602001908152602001600020905060008160000154116130da576040517f08c379a00000000000000000000000000000000000000000000000000000000081526004016130d1906156f1565b60405180910390fd5b6000816002015414613121576040517f08c379a00000000000000000000000000000000000000000000000000000000081526004016131189061575d565b60405180910390fd5b6000613184826040518060c00160405290816000820154815260200160018201548152602001600282015481526020016003820160009054906101000a900460ff1615151515815260200160048201548152602001600582015481525050613452565b9050600081111561320457808260000160008282546131a39190615445565b9250508190555080600560003373ffffffffffffffffffffffffffffffffffffffff1673ffffffffffffffffffffffffffffffffffffffff16815260200190815260200160002060010160008282546131fc9190615445565b925050819055505b4282600101819055504282600201819055506040516132229061553c565b60405180910390203373ffffffffffffffffffffffffffffffffffffffff167faf1e05ce41cdb4bdc4f23bff459f1b9173663f6a49fcf52898845f8d65906886426040516132709190614cfa565b60405180910390a35050565b61328461459b565b61328c6145e1565b600080613298336148f2565b905080826132a69190615445565b915060006132b333614a28565b905080836132c19190615445565b925060008311613306576040517f08c379a00000000000000000000000000000000000000000000000000000000081526004016132fd90615d61565b60405180910390fd5b7f000000000000000000000000000000000000000000000000000000000000000073ffffffffffffffffffffffffffffffffffffffff1663a9059cbb33856040518363ffffffff1660e01b81526004016133619291906159fa565b6020604051808303816000875af1158015613380573d6000803e3d6000fd5b505050506040513d601f19601f820116820180604052508101906133a491906155e3565b6133e3576040517f08c379a00000000000000000000000000000000000000000000000000000000081526004016133da9061565c565b60405180910390fd5b6040516133ef90615dcd565b60405180910390203373ffffffffffffffffffffffffffffffffffffffff167f763d906f989b508baa591b85de06a2ce96a1335d3064e5477fe743df43a30b458560405161343d9190614cfa565b60405180910390a3505050613450614622565b565b6000808260000151148061346857508160600151155b15613476576000905061354c565b60008260800151905060008360a001519050600080856040015111156134f65760008286604001516134a89190615445565b90508042106134dd57808660200151106134c557600091506134d8565b8560200151816134d59190615b31565b91505b6134f0565b8560200151426134ed9190615b31565b91505b50613509565b8460200151426135069190615b31565b90505b60006301e1338061271061351d9190615a8f565b8285886000015161352e9190615a8f565b6135389190615a8f565b6135429190615b00565b9050809450505050505b919050565b61138881565b6301e1338081565b6000801b61356c8161462c565b600960009054906101000a900460ff16156135bc576040517f08c379a00000000000000000000000000000000000000000000000000000000081526004016135b390615e2e565b60405180910390fd5b6001600960006101000a81548160ff0219169083151502179055506135df61488f565b3373ffffffffffffffffffffffffffffffffffffffff167fc0a1c7e9f05b4d536e1ff8606bae9b847cdb43ef4a9b2d7a503a88cee08dccdb60405160405180910390a250565b7f7935bd0ae54bc31f548c14dba4d37c5c64b3f8ca900cb468fb8abd54d5894f5581565b61365161459b565b6136596145e1565b6000600360003373ffffffffffffffffffffffffffffffffffffffff1673ffffffffffffffffffffffffffffffffffffffff168152602001908152602001600020905060008160000154116136e3576040517f08c379a00000000000000000000000000000000000000000000000000000000081526004016136da906156f1565b60405180910390fd5b600081600201541161372a576040517f08c379a00000000000000000000000000000000000000000000000000000000081526004016137219061596e565b60405180910390fd5b62093a80816002015461373d9190615445565b42101561377f576040517f08c379a0000000000000000000000000000000000000000000000000000000008152600401613776906159da565b60405180910390fd5b60006137e2826040518060c00160405290816000820154815260200160018201548152602001600282015481526020016003820160009054906101000a900460ff1615151515815260200160048201548152602001600582015481525050613452565b9050600082600001549050600082111561385e5781816138029190615445565b905081600560003373ffffffffffffffffffffffffffffffffffffffff1673ffffffffffffffffffffffffffffffffffffffff16815260200190815260200160002060020160008282546138569190615445565b925050819055505b600360003373ffffffffffffffffffffffffffffffffffffffff1673ffffffffffffffffffffffffffffffffffffffff168152602001908152602001600020600080820160009055600182016000905560028201600090556003820160006101000a81549060ff02191690556004820160009055600582016000905550507f000000000000000000000000000000000000000000000000000000000000000073ffffffffffffffffffffffffffffffffffffffff1663a9059cbb33836040518363ffffffff1660e01b81526004016139379291906159fa565b6020604051808303816000875af1158015613956573d6000803e3d6000fd5b505050506040513d601f19601f8201168201806040525081019061397a91906155e3565b6139b9576040517f08c379a00000000000000000000000000000000000000000000000000000000081526004016139b09061565c565b60405180910390fd5b6040516139c59061553c565b60405180910390203373ffffffffffffffffffffffffffffffffffffffff167fd224ec5ad02946fe147952e6ad900ce0567e05d53bd64beb1b564a8c603d869c856000015485604051613a1992919061567c565b60405180910390a3505050613a2c614622565b565b613a3782611504565b613a408161462c565b613a4a8383614739565b50505050565b600a5481565b600080600080600080600087613aaa57600460008a73ffffffffffffffffffffffffffffffffffffffff1673ffffffffffffffffffffffffffffffffffffffff168152602001908152602001600020613aea565b600360008a73ffffffffffffffffffffffffffffffffffffffff1673ffffffffffffffffffffffffffffffffffffffff1681526020019081526020016000205b6040518060c00160405290816000820154815260200160018201548152602001600282015481526020016003820160009054906101000a900460ff1615151515815260200160048201548152602001600582015481525050905060008082604001511115613ba15760008260a001518360400151613b689190615445565b9050804210613b8857826020015181613b819190615b31565b9150613b9b565b826020015142613b989190615b31565b91505b50613bb4565b816020015142613bb19190615b31565b90505b6000613bbf83613452565b9050826000015182846080015183866060015187604001519850985098509850985098505050509295509295509295565b613bf861459b565b600960009054906101000a900460ff16613c47576040517f08c379a0000000000000000000000000000000000000000000000000000000008152600401613c3e90615e9a565b60405180910390fd5b600080600360003373ffffffffffffffffffffffffffffffffffffffff1673ffffffffffffffffffffffffffffffffffffffff1681526020019081526020016000209050600081600001541115613d2957806000015482613ca89190615445565b9150600360003373ffffffffffffffffffffffffffffffffffffffff1673ffffffffffffffffffffffffffffffffffffffff168152602001908152602001600020600080820160009055600182016000905560028201600090556003820160006101000a81549060ff02191690556004820160009055600582016000905550505b6000600460003373ffffffffffffffffffffffffffffffffffffffff1673ffffffffffffffffffffffffffffffffffffffff1681526020019081526020016000209050600081600001541115613e0a57806000015483613d899190615445565b9250600460003373ffffffffffffffffffffffffffffffffffffffff1673ffffffffffffffffffffffffffffffffffffffff168152602001908152602001600020600080820160009055600182016000905560028201600090556003820160006101000a81549060ff02191690556004820160009055600582016000905550505b60008311613e4d576040517f08c379a0000000000000000000000000000000000000000000000000000000008152600401613e44906156f1565b60405180910390fd5b7f000000000000000000000000000000000000000000000000000000000000000073ffffffffffffffffffffffffffffffffffffffff1663a9059cbb33856040518363ffffffff1660e01b8152600401613ea89291906159fa565b6020604051808303816000875af1158015613ec7573d6000803e3d6000fd5b505050506040513d601f19601f82011682018060405250810190613eeb91906155e3565b613f2a576040517f08c379a0000000000000000000000000000000000000000000000000000000008152600401613f219061565c565b60405180910390fd5b3373ffffffffffffffffffffffffffffffffffffffff167fbb757047c2b5f3974fe26b7c10f732e7bce710b0952a71082702781e62ae0595846000604051613f73929190615ef5565b60405180910390a2505050613f86614622565b565b60046020528060005260406000206000915090508060000154908060010154908060020154908060030160009054906101000a900460ff16908060040154908060050154905086565b60056020528060005260406000206000915090508060000154908060010154908060020154908060030154905084565b61271081565b7f65d7a28e3265b37a6474929f336521b332c1681b933f6cb9f3376673440d862a81565b61403361459b565b61403b6145e1565b6000600460003373ffffffffffffffffffffffffffffffffffffffff1673ffffffffffffffffffffffffffffffffffffffff168152602001908152602001600020905060008160000154116140c5576040517f08c379a00000000000000000000000000000000000000000000000000000000081526004016140bc906156f1565b60405180910390fd5b60008160020154111561412e576000816005015482600201546140e89190615445565b905080421061412c576040517f08c379a000000000000000000000000000000000000000000000000000000000815260040161412390615a6f565b60405180910390fd5b505b6000614191826040518060c00160405290816000820154815260200160018201548152602001600282015481526020016003820160009054906101000a900460ff1615151515815260200160048201548152602001600582015481525050613452565b905060008183600001546141a59190615445565b9050600082111561420a5781600660003373ffffffffffffffffffffffffffffffffffffffff1673ffffffffffffffffffffffffffffffffffffffff16815260200190815260200160002060020160008282546142029190615445565b925050819055505b60006127106113888361421d9190615a8f565b6142279190615b00565b9050600081836142379190615b31565b9050600460003373ffffffffffffffffffffffffffffffffffffffff1673ffffffffffffffffffffffffffffffffffffffff168152602001908152602001600020600080820160009055600182016000905560028201600090556003820160006101000a81549060ff02191690556004820160009055600582016000905550507f000000000000000000000000000000000000000000000000000000000000000073ffffffffffffffffffffffffffffffffffffffff1663a9059cbb33836040518363ffffffff1660e01b81526004016143129291906159fa565b6020604051808303816000875af1158015614331573d6000803e3d6000fd5b505050506040513d601f19601f8201168201806040525081019061435591906155e3565b614394576040517f08c379a000000000000000000000000000000000000000000000000000000000815260040161438b9061565c565b60405180910390fd5b6040516143a0906157c9565b60405180910390203373ffffffffffffffffffffffffffffffffffffffff167f07d8a820151595a9521ea31802fb99d26992342fa0127530e142ff352ccd6a7583856040516143f092919061567c565b60405180910390a35050505050614405614622565b565b6000801b6144148161462c565b600960009054906101000a900460ff16614463576040517f08c379a000000000000000000000000000000000000000000000000000000000815260040161445a90615e9a565b60405180910390fd5b6000600960006101000a81548160ff0219169083151502179055503373ffffffffffffffffffffffffffffffffffffffff167fa972065ead597970ce6435ff5c8c9c52ed08bce7f296a931c2aea74e0505584760405160405180910390a250565b60036020528060005260406000206000915090508060000154908060010154908060020154908060030160009054906101000a900460ff16908060040154908060050154905086565b7f000000000000000000000000000000000000000000000000000000000000000081565b60007f01ffc9a7000000000000000000000000000000000000000000000000000000007bffffffffffffffffffffffffffffffffffffffffffffffffffffffff1916827bffffffffffffffffffffffffffffffffffffffffffffffffffffffff1916149050919050565b6002600054036145d7576040517f3ee5aeb500000000000000000000000000000000000000000000000000000000815260040160405180910390fd5b6002600081905550565b6145e9611cc6565b15614620576040517fd93c066500000000000000000000000000000000000000000000000000000000815260040160405180910390fd5b565b6001600081905550565b61463d81614638614731565b614b5e565b50565b600061464c83836126c8565b61472657600180600085815260200190815260200160002060000160008473ffffffffffffffffffffffffffffffffffffffff1673ffffffffffffffffffffffffffffffffffffffff16815260200190815260200160002060006101000a81548160ff0219169083151502179055506146c3614731565b73ffffffffffffffffffffffffffffffffffffffff168273ffffffffffffffffffffffffffffffffffffffff16847f2f8788117e7eff1d82e926ec794901d17c78024a50270940304540a733656f0d60405160405180910390a46001905061472b565b600090505b92915050565b600033905090565b600061474583836126c8565b156148215760006001600085815260200190815260200160002060000160008473ffffffffffffffffffffffffffffffffffffffff1673ffffffffffffffffffffffffffffffffffffffff16815260200190815260200160002060006101000a81548160ff0219169083151502179055506147be614731565b73ffffffffffffffffffffffffffffffffffffffff168273ffffffffffffffffffffffffffffffffffffffff16847ff6391f5c32d9c69d2a47ea670b442974b53935d1edc7fd64eb21e047a839171b60405160405180910390a460019050614826565b600090505b92915050565b614834614baf565b6000600260006101000a81548160ff0219169083151502179055507f5db9ee0a495bf2e6ff9c91a7834c1ba4fdd244a5e8aa4e537bd38aeae4b073aa614878614731565b6040516148859190615f1e565b60405180910390a1565b6148976145e1565b6001600260006101000a81548160ff0219169083151502179055507f62e78cea01bee320cd4e420270b5ea74000d11b0c9f74754ebdbfc544b05a2586148db614731565b6040516148e89190615f1e565b60405180910390a1565b600080600360008473ffffffffffffffffffffffffffffffffffffffff1673ffffffffffffffffffffffffffffffffffffffff1681526020019081526020016000209050600081600001540361494c576000915050614a23565b60006149af826040518060c00160405290816000820154815260200160018201548152602001600282015481526020016003820160009054906101000a900460ff1615151515815260200160048201548152602001600582015481525050613452565b90506000811115614a1d5742826001018190555080600560008673ffffffffffffffffffffffffffffffffffffffff1673ffffffffffffffffffffffffffffffffffffffff1681526020019081526020016000206002016000828254614a159190615445565b925050819055505b80925050505b919050565b600080600460008473ffffffffffffffffffffffffffffffffffffffff1673ffffffffffffffffffffffffffffffffffffffff16815260200190815260200160002090506000816000015403614a82576000915050614b59565b6000614ae5826040518060c00160405290816000820154815260200160018201548152602001600282015481526020016003820160009054906101000a900460ff1615151515815260200160048201548152602001600582015481525050613452565b90506000811115614b535742826001018190555080600660008673ffffffffffffffffffffffffffffffffffffffff1673ffffffffffffffffffffffffffffffffffffffff1681526020019081526020016000206002016000828254614b4b9190615445565b925050819055505b80925050505b919050565b614b6882826126c8565b614bab5780826040517fe2517d3f000000000000000000000000000000000000000000000000000000008152600401614ba2929190615f39565b60405180910390fd5b5050565b614bb7611cc6565b614bed576040517f8dfc202b00000000000000000000000000000000000000000000000000000000815260040160405180910390fd5b565b6040518060800160405280600081526020016000815260200160008152602001600081525090565b6000604051905090565b600080fd5b60007fffffffff0000000000000000000000000000000000000000000000000000000082169050919050565b614c5b81614c26565b8114614c6657600080fd5b50565b600081359050614c7881614c52565b92915050565b600060208284031215614c9457614c93614c21565b5b6000614ca284828501614c69565b91505092915050565b60008115159050919050565b614cc081614cab565b82525050565b6000602082019050614cdb6000830184614cb7565b92915050565b6000819050919050565b614cf481614ce1565b82525050565b6000602082019050614d0f6000830184614ceb565b92915050565b600073ffffffffffffffffffffffffffffffffffffffff82169050919050565b6000614d4082614d15565b9050919050565b614d5081614d35565b8114614d5b57600080fd5b50565b600081359050614d6d81614d47565b92915050565b600060208284031215614d8957614d88614c21565b5b6000614d9784828501614d5e565b91505092915050565b6000608082019050614db56000830187614ceb565b614dc26020830186614ceb565b614dcf6040830185614ceb565b614ddc6060830184614ceb565b95945050505050565b614dee81614ce1565b8114614df957600080fd5b50565b600081359050614e0b81614de5565b92915050565b600060208284031215614e2757614e26614c21565b5b6000614e3584828501614dfc565b91505092915050565b600060c082019050614e536000830189614ceb565b614e606020830188614ceb565b614e6d6040830187614cb7565b614e7a6060830186614ceb565b614e876080830185614ceb565b614e9460a0830184614ceb565b979650505050505050565b614ea881614ce1565b82525050565b608082016000820151614ec46000850182614e9f565b506020820151614ed76020850182614e9f565b506040820151614eea6040850182614e9f565b506060820151614efd6060850182614e9f565b50505050565b600061010082019050614f196000830185614eae565b614f266080830184614eae565b9392505050565b6000819050919050565b614f4081614f2d565b8114614f4b57600080fd5b50565b600081359050614f5d81614f37565b92915050565b600060208284031215614f7957614f78614c21565b5b6000614f8784828501614f4e565b91505092915050565b614f9981614f2d565b82525050565b6000602082019050614fb46000830184614f90565b92915050565b60008060408385031215614fd157614fd0614c21565b5b6000614fdf85828601614f4e565b9250506020614ff085828601614d5e565b9150509250929050565b600080fd5b6000601f19601f8301169050919050565b7f4e487b7100000000000000000000000000000000000000000000000000000000600052604160045260246000fd5b61504882614fff565b810181811067ffffffffffffffff8211171561506757615066615010565b5b80604052505050565b600061507a614c17565b9050615086828261503f565b919050565b61509481614cab565b811461509f57600080fd5b50565b6000813590506150b18161508b565b92915050565b600060c082840312156150cd576150cc614ffa565b5b6150d760c0615070565b905060006150e784828501614dfc565b60008301525060206150fb84828501614dfc565b602083015250604061510f84828501614dfc565b6040830152506060615123848285016150a2565b606083015250608061513784828501614dfc565b60808301525060a061514b84828501614dfc565b60a08301525092915050565b600060c0828403121561516d5761516c614c21565b5b600061517b848285016150b7565b91505092915050565b6000806040838503121561519b5761519a614c21565b5b60006151a985828601614d5e565b92505060206151ba858286016150a2565b9150509250929050565b6000602082840312156151da576151d9614c21565b5b60006151e8848285016150a2565b91505092915050565b600060c0820190506152066000830189614ceb565b6152136020830188614ceb565b6152206040830187614ceb565b61522d6060830186614ceb565b61523a6080830185614cb7565b61524760a0830184614ceb565b979650505050505050565b600060c0820190506152676000830189614ceb565b6152746020830188614ceb565b6152816040830187614ceb565b61528e6060830186614cb7565b61529b6080830185614ceb565b6152a860a0830184614ceb565b979650505050505050565b6000819050919050565b60006152d86152d36152ce84614d15565b6152b3565b614d15565b9050919050565b60006152ea826152bd565b9050919050565b60006152fc826152df565b9050919050565b61530c816152f1565b82525050565b60006020820190506153276000830184615303565b92915050565b600082825260208201905092915050565b7f43616e6e6f74207374616b652030000000000000000000000000000000000000600082015250565b6000615374600e8361532d565b915061537f8261533e565b602082019050919050565b600060208201905081810360008301526153a381615367565b9050919050565b7f416d6f756e742065786365656473206d6178696d756d00000000000000000000600082015250565b60006153e060168361532d565b91506153eb826153aa565b602082019050919050565b6000602082019050818103600083015261540f816153d3565b9050919050565b7f4e487b7100000000000000000000000000000000000000000000000000000000600052601160045260246000fd5b600061545082614ce1565b915061545b83614ce1565b925082820190508082111561547357615472615416565b5b92915050565b7f546f74616c20776f756c6420657863656564206d6178696d756d000000000000600082015250565b60006154af601a8361532d565b91506154ba82615479565b602082019050919050565b600060208201905081810360008301526154de816154a2565b9050919050565b600081905092915050565b7f372d446179000000000000000000000000000000000000000000000000000000600082015250565b60006155266005836154e5565b9150615531826154f0565b600582019050919050565b600061554782615519565b9150819050919050565b60006060820190506155666000830186614ceb565b6155736020830185614ceb565b6155806040830184614ceb565b949350505050565b61559181614d35565b82525050565b60006060820190506155ac6000830186615588565b6155b96020830185615588565b6155c66040830184614ceb565b949350505050565b6000815190506155dd8161508b565b92915050565b6000602082840312156155f9576155f8614c21565b5b6000615607848285016155ce565b91505092915050565b7f5472616e73666572206661696c65640000000000000000000000000000000000600082015250565b6000615646600f8361532d565b915061565182615610565b602082019050919050565b6000602082019050818103600083015261567581615639565b9050919050565b60006040820190506156916000830185614ceb565b61569e6020830184614ceb565b9392505050565b7f4e6f207374616b6520666f756e64000000000000000000000000000000000000600082015250565b60006156db600e8361532d565b91506156e6826156a5565b602082019050919050565b6000602082019050818103600083015261570a816156ce565b9050919050565b7f416c726561647920756e6c6f636b696e67000000000000000000000000000000600082015250565b600061574760118361532d565b915061575282615711565b602082019050919050565b600060208201905081810360008301526157768161573a565b9050919050565b7f312d596561720000000000000000000000000000000000000000000000000000600082015250565b60006157b36006836154e5565b91506157be8261577d565b600682019050919050565b60006157d4826157a6565b9150819050919050565b7f5261746520746f6f206869676800000000000000000000000000000000000000600082015250565b6000615814600d8361532d565b915061581f826157de565b602082019050919050565b6000602082019050818103600083015261584381615807565b9050919050565b7f5261746520746f6f206c6f770000000000000000000000000000000000000000600082015250565b6000615880600c8361532d565b915061588b8261584a565b602082019050919050565b600060208201905081810360008301526158af81615873565b9050919050565b7f52617465206368616e676520746f6f20736f6f6e000000000000000000000000600082015250565b60006158ec60148361532d565b91506158f7826158b6565b602082019050919050565b6000602082019050818103600083015261591b816158df565b9050919050565b7f556e6c6f636b206e6f7420726571756573746564000000000000000000000000600082015250565b600061595860148361532d565b915061596382615922565b602082019050919050565b600060208201905081810360008301526159878161594b565b9050919050565b7f5374696c6c206c6f636b65640000000000000000000000000000000000000000600082015250565b60006159c4600c8361532d565b91506159cf8261598e565b602082019050919050565b600060208201905081810360008301526159f3816159b7565b9050919050565b6000604082019050615a0f6000830185615588565b615a1c6020830184614ceb565b9392505050565b7f556e6c6f636b20706572696f64206f7665722c2075736520756e7374616b6500600082015250565b6000615a59601f8361532d565b9150615a6482615a23565b602082019050919050565b60006020820190508181036000830152615a8881615a4c565b9050919050565b6000615a9a82614ce1565b9150615aa583614ce1565b9250828202615ab381614ce1565b91508282048414831517615aca57615ac9615416565b5b5092915050565b7f4e487b7100000000000000000000000000000000000000000000000000000000600052601260045260246000fd5b6000615b0b82614ce1565b9150615b1683614ce1565b925082615b2657615b25615ad1565b5b828204905092915050565b6000615b3c82614ce1565b9150615b4783614ce1565b9250828203905081811115615b5f57615b5e615416565b5b92915050565b7f456d657267656e6379206d6f6465206163746976650000000000000000000000600082015250565b6000615b9b60158361532d565b9150615ba682615b65565b602082019050919050565b60006020820190508181036000830152615bca81615b8e565b9050919050565b7f5374616b65206e6f74206c6f636b656400000000000000000000000000000000600082015250565b6000615c0760108361532d565b9150615c1282615bd1565b602082019050919050565b60006020820190508181036000830152615c3681615bfa565b9050919050565b7f43616e6e6f74206f70742d696e20647572696e6720756e6c6f636b0000000000600082015250565b6000615c73601b8361532d565b9150615c7e82615c3d565b602082019050919050565b60006020820190508181036000830152615ca281615c66565b9050919050565b7f43757272656e742072617465206e6f74206c6f77657200000000000000000000600082015250565b6000615cdf60168361532d565b9150615cea82615ca9565b602082019050919050565b60006020820190508181036000830152615d0e81615cd2565b9050919050565b7f4e6f207265776172647320617661696c61626c65000000000000000000000000600082015250565b6000615d4b60148361532d565b9150615d5682615d15565b602082019050919050565b60006020820190508181036000830152615d7a81615d3e565b9050919050565b7f416c6c0000000000000000000000000000000000000000000000000000000000600082015250565b6000615db76003836154e5565b9150615dc282615d81565b600382019050919050565b6000615dd882615daa565b9150819050919050565b7f456d657267656e6379206d6f646520616c726561647920616374697665000000600082015250565b6000615e18601d8361532d565b9150615e2382615de2565b602082019050919050565b60006020820190508181036000830152615e4781615e0b565b9050919050565b7f456d657267656e6379206d6f6465206e6f742061637469766500000000000000600082015250565b6000615e8460198361532d565b9150615e8f82615e4e565b602082019050919050565b60006020820190508181036000830152615eb381615e77565b9050919050565b6000819050919050565b6000615edf615eda615ed584615eba565b6152b3565b614ce1565b9050919050565b615eef81615ec4565b82525050565b6000604082019050615f0a6000830185614ceb565b615f176020830184615ee6565b9392505050565b6000602082019050615f336000830184615588565b92915050565b6000604082019050615f4e6000830185615588565b615f5b6020830184614f90565b939250505056fea2646970667358221220db5c31c797a133cd3afb5c3861fd93e72f2ae3a54dfe52f7982dc8d701faf60b64736f6c634300081b0033",
  "linkReferences": {},
  "deployedLinkReferences": {}
}