{
  "_format": "hh-sol-artifact-1",
  "contractName": "MoonCatStaking",
  "sourceName": "contracts/MoonCatStaking.sol",
  "abi": [
    {
      "inputs": [
        {
          "internalType": "contract MoonCatToken",
          "name": "_token",
          "type": "address"
        }
      ],
      "stateMutability": "nonpayable",
      "type": "constructor"
    },
    {
      "inputs": [],
      "name": "AccessControlBadConfirmation",
      "type": "error"
    },
    {
      "inputs": [
        {
          "internalType": "address",
          "name": "account",
          "type": "address"
        },
        {
          "internalType": "bytes32",
          "name": "neededRole",
          "type": "bytes32"
        }
      ],
      "name": "AccessControlUnauthorizedAccount",
      "type": "error"
    },
    {
      "inputs": [],
      "name": "EnforcedPause",
      "type": "error"
    },
    {
      "inputs": [],
      "name": "ExpectedPause",
      "type": "error"
    },
    {
      "inputs": [],
      "name": "ReentrancyGuardReentrantCall",
      "type": "error"
    },
    {
      "anonymous": false,
      "inputs": [
        {
          "indexed": true,
          "internalType": "address",
          "name": "by",
          "type": "address"
        }
      ],
      "name": "EmergencyModeEnabled",
      "type": "event"
    },
    {
      "anonymous": false,
      "inputs": [
        {
          "indexed": true,
          "internalType": "address",
          "name": "user",
          "type": "address"
        },
        {
          "indexed": false,
          "internalType": "uint256",
          "name": "amount",
          "type": "uint256"
        },
        {
          "indexed": false,
          "internalType": "uint256",
          "name": "fee",
          "type": "uint256"
        }
      ],
      "name": "EmergencyWithdraw",
      "type": "event"
    },
    {
      "anonymous": false,
      "inputs": [
        {
          "indexed": true,
          "internalType": "address",
          "name": "user",
          "type": "address"
        },
        {
          "indexed": false,
          "internalType": "uint256",
          "name": "amount",
          "type": "uint256"
        },
        {
          "indexed": false,
          "internalType": "uint256",
          "name": "penalty",
          "type": "uint256"
        },
        {
          "indexed": true,
          "internalType": "string",
          "name": "stakeType",
          "type": "string"
        }
      ],
      "name": "ForceUnlocked",
      "type": "event"
    },
    {
      "anonymous": false,
      "inputs": [
        {
          "indexed": true,
          "internalType": "address",
          "name": "user",
          "type": "address"
        },
        {
          "indexed": false,
          "internalType": "uint256",
          "name": "reward",
          "type": "uint256"
        },
        {
          "indexed": true,
          "internalType": "string",
          "name": "stakeType",
          "type": "string"
        }
      ],
      "name": "InterestWithdrawn",
      "type": "event"
    },
    {
      "anonymous": false,
      "inputs": [
        {
          "indexed": false,
          "internalType": "address",
          "name": "account",
          "type": "address"
        }
      ],
      "name": "Paused",
      "type": "event"
    },
    {
      "anonymous": false,
      "inputs": [
        {
          "indexed": true,
          "internalType": "string",
          "name": "stakeType",
          "type": "string"
        },
        {
          "indexed": false,
          "internalType": "uint256",
          "name": "oldRate",
          "type": "uint256"
        },
        {
          "indexed": false,
          "internalType": "uint256",
          "name": "newRate",
          "type": "uint256"
        }
      ],
      "name": "RateChanged",
      "type": "event"
    },
    {
      "anonymous": false,
      "inputs": [
        {
          "indexed": true,
          "internalType": "bytes32",
          "name": "role",
          "type": "bytes32"
        },
        {
          "indexed": true,
          "internalType": "bytes32",
          "name": "previousAdminRole",
          "type": "bytes32"
        },
        {
          "indexed": true,
          "internalType": "bytes32",
          "name": "newAdminRole",
          "type": "bytes32"
        }
      ],
      "name": "RoleAdminChanged",
      "type": "event"
    },
    {
      "anonymous": false,
      "inputs": [
        {
          "indexed": true,
          "internalType": "bytes32",
          "name": "role",
          "type": "bytes32"
        },
        {
          "indexed": true,
          "internalType": "address",
          "name": "account",
          "type": "address"
        },
        {
          "indexed": true,
          "internalType": "address",
          "name": "sender",
          "type": "address"
        }
      ],
      "name": "RoleGranted",
      "type": "event"
    },
    {
      "anonymous": false,
      "inputs": [
        {
          "indexed": true,
          "internalType": "bytes32",
          "name": "role",
          "type": "bytes32"
        },
        {
          "indexed": true,
          "internalType": "address",
          "name": "account",
          "type": "address"
        },
        {
          "indexed": true,
          "internalType": "address",
          "name": "sender",
          "type": "address"
        }
      ],
      "name": "RoleRevoked",
      "type": "event"
    },
    {
      "anonymous": false,
      "inputs": [
        {
          "indexed": true,
          "internalType": "address",
          "name": "user",
          "type": "address"
        },
        {
          "indexed": false,
          "internalType": "uint256",
          "name": "originalAmount",
          "type": "uint256"
        },
        {
          "indexed": false,
          "internalType": "uint256",
          "name": "compoundedInterest",
          "type": "uint256"
        },
        {
          "indexed": false,
          "internalType": "uint256",
          "name": "newTotal",
          "type": "uint256"
        },
        {
          "indexed": true,
          "internalType": "string",
          "name": "stakeType",
          "type": "string"
        }
      ],
      "name": "StakeCompounded",
      "type": "event"
    },
    {
      "anonymous": false,
      "inputs": [
        {
          "indexed": true,
          "internalType": "address",
          "name": "user",
          "type": "address"
        },
        {
          "indexed": false,
          "internalType": "uint256",
          "name": "amount",
          "type": "uint256"
        },
        {
          "indexed": false,
          "internalType": "uint256",
          "name": "since",
          "type": "uint256"
        },
        {
          "indexed": true,
          "internalType": "string",
          "name": "stakeType",
          "type": "string"
        }
      ],
      "name": "Staked",
      "type": "event"
    },
    {
      "anonymous": false,
      "inputs": [
        {
          "indexed": true,
          "internalType": "address",
          "name": "user",
          "type": "address"
        },
        {
          "indexed": false,
          "internalType": "uint256",
          "name": "unlockRequestTime",
          "type": "uint256"
        },
        {
          "indexed": true,
          "internalType": "string",
          "name": "stakeType",
          "type": "string"
        }
      ],
      "name": "UnlockRequested",
      "type": "event"
    },
    {
      "anonymous": false,
      "inputs": [
        {
          "indexed": false,
          "internalType": "address",
          "name": "account",
          "type": "address"
        }
      ],
      "name": "Unpaused",
      "type": "event"
    },
    {
      "anonymous": false,
      "inputs": [
        {
          "indexed": true,
          "internalType": "address",
          "name": "user",
          "type": "address"
        },
        {
          "indexed": false,
          "internalType": "uint256",
          "name": "amount",
          "type": "uint256"
        },
        {
          "indexed": false,
          "internalType": "uint256",
          "name": "reward",
          "type": "uint256"
        },
        {
          "indexed": true,
          "internalType": "string",
          "name": "stakeType",
          "type": "string"
        }
      ],
      "name": "Unstaked",
      "type": "event"
    },
    {
      "inputs": [],
      "name": "BASIS_POINTS",
      "outputs": [
        {
          "internalType": "uint256",
          "name": "",
          "type": "uint256"
        }
      ],
      "stateMutability": "view",
      "type": "function"
    },
    {
      "inputs": [],
      "name": "DEFAULT_ADMIN_ROLE",
      "outputs": [
        {
          "internalType": "bytes32",
          "name": "",
          "type": "bytes32"
        }
      ],
      "stateMutability": "view",
      "type": "function"
    },
    {
      "inputs": [],
      "name": "FORCE_UNLOCK_PENALTY",
      "outputs": [
        {
          "internalType": "uint256",
          "name": "",
          "type": "uint256"
        }
      ],
      "stateMutability": "view",
      "type": "function"
    },
    {
      "inputs": [],
      "name": "GOVERNOR_ROLE",
      "outputs": [
        {
          "internalType": "bytes32",
          "name": "",
          "type": "bytes32"
        }
      ],
      "stateMutability": "view",
      "type": "function"
    },
    {
      "inputs": [],
      "name": "MAX_RATE_1YEAR",
      "outputs": [
        {
          "internalType": "uint256",
          "name": "",
          "type": "uint256"
        }
      ],
      "stateMutability": "view",
      "type": "function"
    },
    {
      "inputs": [],
      "name": "MAX_RATE_7DAYS",
      "outputs": [
        {
          "internalType": "uint256",
          "name": "",
          "type": "uint256"
        }
      ],
      "stateMutability": "view",
      "type": "function"
    },
    {
      "inputs": [],
      "name": "PAUSER_ROLE",
      "outputs": [
        {
          "internalType": "bytes32",
          "name": "",
          "type": "bytes32"
        }
      ],
      "stateMutability": "view",
      "type": "function"
    },
    {
      "inputs": [],
      "name": "RATE_CHANGE_COOLDOWN",
      "outputs": [
        {
          "internalType": "uint256",
          "name": "",
          "type": "uint256"
        }
      ],
      "stateMutability": "view",
      "type": "function"
    },
    {
      "inputs": [],
      "name": "UNLOCK_PERIOD_1YEAR",
      "outputs": [
        {
          "internalType": "uint256",
          "name": "",
          "type": "uint256"
        }
      ],
      "stateMutability": "view",
      "type": "function"
    },
    {
      "inputs": [],
      "name": "UNLOCK_PERIOD_7DAYS",
      "outputs": [
        {
          "internalType": "uint256",
          "name": "",
          "type": "uint256"
        }
      ],
      "stateMutability": "view",
      "type": "function"
    },
    {
      "inputs": [
        {
          "components": [
            {
              "internalType": "uint256",
              "name": "amount",
              "type": "uint256"
            },
            {
              "internalType": "uint256",
              "name": "since",
              "type": "uint256"
            },
            {
              "internalType": "uint256",
              "name": "unlockRequestTime",
              "type": "uint256"
            },
            {
              "internalType": "bool",
              "name": "isLocked",
              "type": "bool"
            }
          ],
          "internalType": "struct MoonCatStaking.Stake",
          "name": "stake",
          "type": "tuple"
        },
        {
          "internalType": "uint256",
          "name": "rate",
          "type": "uint256"
        }
      ],
      "name": "calculatePendingRewards",
      "outputs": [
        {
          "internalType": "uint256",
          "name": "",
          "type": "uint256"
        }
      ],
      "stateMutability": "view",
      "type": "function"
    },
    {
      "inputs": [
        {
          "internalType": "address",
          "name": "account",
          "type": "address"
        }
      ],
      "name": "checkRoles",
      "outputs": [
        {
          "internalType": "bool",
          "name": "isAdmin",
          "type": "bool"
        },
        {
          "internalType": "bool",
          "name": "isGovernor",
          "type": "bool"
        },
        {
          "internalType": "bool",
          "name": "isPauser",
          "type": "bool"
        }
      ],
      "stateMutability": "view",
      "type": "function"
    },
    {
      "inputs": [],
      "name": "emergencyMode",
      "outputs": [
        {
          "internalType": "bool",
          "name": "",
          "type": "bool"
        }
      ],
      "stateMutability": "view",
      "type": "function"
    },
    {
      "inputs": [],
      "name": "emergencyWithdraw",
      "outputs": [],
      "stateMutability": "nonpayable",
      "type": "function"
    },
    {
      "inputs": [],
      "name": "emergencyWithdrawalFee",
      "outputs": [
        {
          "internalType": "uint256",
          "name": "",
          "type": "uint256"
        }
      ],
      "stateMutability": "view",
      "type": "function"
    },
    {
      "inputs": [],
      "name": "enableEmergencyMode",
      "outputs": [],
      "stateMutability": "nonpayable",
      "type": "function"
    },
    {
      "inputs": [],
      "name": "forceUnlock1Year",
      "outputs": [],
      "stateMutability": "nonpayable",
      "type": "function"
    },
    {
      "inputs": [],
      "name": "forceUnlock7Days",
      "outputs": [],
      "stateMutability": "nonpayable",
      "type": "function"
    },
    {
      "inputs": [
        {
          "internalType": "address",
          "name": "user",
          "type": "address"
        }
      ],
      "name": "getAllStakingStats",
      "outputs": [
        {
          "components": [
            {
              "internalType": "uint256",
              "name": "totalStaked",
              "type": "uint256"
            },
            {
              "internalType": "uint256",
              "name": "totalCompounded",
              "type": "uint256"
            },
            {
              "internalType": "uint256",
              "name": "totalWithdrawn",
              "type": "uint256"
            },
            {
              "internalType": "uint256",
              "name": "currentPendingRewards",
              "type": "uint256"
            }
          ],
          "internalType": "struct MoonCatStaking.StakingStats",
          "name": "stats7Days",
          "type": "tuple"
        },
        {
          "components": [
            {
              "internalType": "uint256",
              "name": "totalStaked",
              "type": "uint256"
            },
            {
              "internalType": "uint256",
              "name": "totalCompounded",
              "type": "uint256"
            },
            {
              "internalType": "uint256",
              "name": "totalWithdrawn",
              "type": "uint256"
            },
            {
              "internalType": "uint256",
              "name": "currentPendingRewards",
              "type": "uint256"
            }
          ],
          "internalType": "struct MoonCatStaking.StakingStats",
          "name": "stats1Year",
          "type": "tuple"
        }
      ],
      "stateMutability": "view",
      "type": "function"
    },
    {
      "inputs": [],
      "name": "getDebugInfo",
      "outputs": [
        {
          "internalType": "bool",
          "name": "isPaused",
          "type": "bool"
        },
        {
          "internalType": "bool",
          "name": "hasGovernorRole",
          "type": "bool"
        },
        {
          "internalType": "bool",
          "name": "hasAdminRole",
          "type": "bool"
        },
        {
          "internalType": "uint256",
          "name": "currentRate7Days",
          "type": "uint256"
        },
        {
          "internalType": "uint256",
          "name": "currentRate1Year",
          "type": "uint256"
        },
        {
          "internalType": "uint256",
          "name": "lastChangeTime",
          "type": "uint256"
        },
        {
          "internalType": "uint256",
          "name": "timeUntilNextChange",
          "type": "uint256"
        },
        {
          "internalType": "bool",
          "name": "canChangeRate",
          "type": "bool"
        }
      ],
      "stateMutability": "view",
      "type": "function"
    },
    {
      "inputs": [
        {
          "internalType": "address",
          "name": "user",
          "type": "address"
        }
      ],
      "name": "getPendingRewards1Year",
      "outputs": [
        {
          "internalType": "uint256",
          "name": "",
          "type": "uint256"
        }
      ],
      "stateMutability": "view",
      "type": "function"
    },
    {
      "inputs": [
        {
          "internalType": "address",
          "name": "user",
          "type": "address"
        }
      ],
      "name": "getPendingRewards7Days",
      "outputs": [
        {
          "internalType": "uint256",
          "name": "",
          "type": "uint256"
        }
      ],
      "stateMutability": "view",
      "type": "function"
    },
    {
      "inputs": [
        {
          "internalType": "bytes32",
          "name": "role",
          "type": "bytes32"
        }
      ],
      "name": "getRoleAdmin",
      "outputs": [
        {
          "internalType": "bytes32",
          "name": "",
          "type": "bytes32"
        }
      ],
      "stateMutability": "view",
      "type": "function"
    },
    {
      "inputs": [
        {
          "internalType": "address",
          "name": "user",
          "type": "address"
        }
      ],
      "name": "getStakeDetails1Year",
      "outputs": [
        {
          "internalType": "uint256",
          "name": "stakedAmount",
          "type": "uint256"
        },
        {
          "internalType": "uint256",
          "name": "pendingRewards",
          "type": "uint256"
        },
        {
          "internalType": "bool",
          "name": "isLocked",
          "type": "bool"
        },
        {
          "internalType": "uint256",
          "name": "unlockRequestTime",
          "type": "uint256"
        },
        {
          "internalType": "uint256",
          "name": "timeStaked",
          "type": "uint256"
        }
      ],
      "stateMutability": "view",
      "type": "function"
    },
    {
      "inputs": [
        {
          "internalType": "address",
          "name": "user",
          "type": "address"
        }
      ],
      "name": "getStakeDetails7Days",
      "outputs": [
        {
          "internalType": "uint256",
          "name": "stakedAmount",
          "type": "uint256"
        },
        {
          "internalType": "uint256",
          "name": "pendingRewards",
          "type": "uint256"
        },
        {
          "internalType": "bool",
          "name": "isLocked",
          "type": "bool"
        },
        {
          "internalType": "uint256",
          "name": "unlockRequestTime",
          "type": "uint256"
        },
        {
          "internalType": "uint256",
          "name": "timeStaked",
          "type": "uint256"
        }
      ],
      "stateMutability": "view",
      "type": "function"
    },
    {
      "inputs": [
        {
          "internalType": "bytes32",
          "name": "role",
          "type": "bytes32"
        },
        {
          "internalType": "address",
          "name": "account",
          "type": "address"
        }
      ],
      "name": "grantRole",
      "outputs": [],
      "stateMutability": "nonpayable",
      "type": "function"
    },
    {
      "inputs": [
        {
          "internalType": "bytes32",
          "name": "role",
          "type": "bytes32"
        },
        {
          "internalType": "address",
          "name": "account",
          "type": "address"
        }
      ],
      "name": "hasRole",
      "outputs": [
        {
          "internalType": "bool",
          "name": "",
          "type": "bool"
        }
      ],
      "stateMutability": "view",
      "type": "function"
    },
    {
      "inputs": [],
      "name": "lastRateChange",
      "outputs": [
        {
          "internalType": "uint256",
          "name": "",
          "type": "uint256"
        }
      ],
      "stateMutability": "view",
      "type": "function"
    },
    {
      "inputs": [],
      "name": "pause",
      "outputs": [],
      "stateMutability": "nonpayable",
      "type": "function"
    },
    {
      "inputs": [],
      "name": "paused",
      "outputs": [
        {
          "internalType": "bool",
          "name": "",
          "type": "bool"
        }
      ],
      "stateMutability": "view",
      "type": "function"
    },
    {
      "inputs": [
        {
          "internalType": "bytes32",
          "name": "role",
          "type": "bytes32"
        },
        {
          "internalType": "address",
          "name": "callerConfirmation",
          "type": "address"
        }
      ],
      "name": "renounceRole",
      "outputs": [],
      "stateMutability": "nonpayable",
      "type": "function"
    },
    {
      "inputs": [],
      "name": "requestUnlock1Year",
      "outputs": [],
      "stateMutability": "nonpayable",
      "type": "function"
    },
    {
      "inputs": [],
      "name": "requestUnlock7Days",
      "outputs": [],
      "stateMutability": "nonpayable",
      "type": "function"
    },
    {
      "inputs": [
        {
          "internalType": "bytes32",
          "name": "role",
          "type": "bytes32"
        },
        {
          "internalType": "address",
          "name": "account",
          "type": "address"
        }
      ],
      "name": "revokeRole",
      "outputs": [],
      "stateMutability": "nonpayable",
      "type": "function"
    },
    {
      "inputs": [],
      "name": "rewardRate1Year",
      "outputs": [
        {
          "internalType": "uint256",
          "name": "",
          "type": "uint256"
        }
      ],
      "stateMutability": "view",
      "type": "function"
    },
    {
      "inputs": [],
      "name": "rewardRate7Days",
      "outputs": [
        {
          "internalType": "uint256",
          "name": "",
          "type": "uint256"
        }
      ],
      "stateMutability": "view",
      "type": "function"
    },
    {
      "inputs": [
        {
          "internalType": "uint256",
          "name": "_newRate",
          "type": "uint256"
        }
      ],
      "name": "setRewardRate1Year",
      "outputs": [],
      "stateMutability": "nonpayable",
      "type": "function"
    },
    {
      "inputs": [
        {
          "internalType": "uint256",
          "name": "_newRate",
          "type": "uint256"
        }
      ],
      "name": "setRewardRate7Days",
      "outputs": [],
      "stateMutability": "nonpayable",
      "type": "function"
    },
    {
      "inputs": [
        {
          "internalType": "uint256",
          "name": "_amount",
          "type": "uint256"
        }
      ],
      "name": "stake1Year",
      "outputs": [],
      "stateMutability": "nonpayable",
      "type": "function"
    },
    {
      "inputs": [
        {
          "internalType": "uint256",
          "name": "_amount",
          "type": "uint256"
        }
      ],
      "name": "stake7Days",
      "outputs": [],
      "stateMutability": "nonpayable",
      "type": "function"
    },
    {
      "inputs": [
        {
          "internalType": "address",
          "name": "",
          "type": "address"
        }
      ],
      "name": "stakes1Year",
      "outputs": [
        {
          "internalType": "uint256",
          "name": "amount",
          "type": "uint256"
        },
        {
          "internalType": "uint256",
          "name": "since",
          "type": "uint256"
        },
        {
          "internalType": "uint256",
          "name": "unlockRequestTime",
          "type": "uint256"
        },
        {
          "internalType": "bool",
          "name": "isLocked",
          "type": "bool"
        }
      ],
      "stateMutability": "view",
      "type": "function"
    },
    {
      "inputs": [
        {
          "internalType": "address",
          "name": "",
          "type": "address"
        }
      ],
      "name": "stakes7Days",
      "outputs": [
        {
          "internalType": "uint256",
          "name": "amount",
          "type": "uint256"
        },
        {
          "internalType": "uint256",
          "name": "since",
          "type": "uint256"
        },
        {
          "internalType": "uint256",
          "name": "unlockRequestTime",
          "type": "uint256"
        },
        {
          "internalType": "bool",
          "name": "isLocked",
          "type": "bool"
        }
      ],
      "stateMutability": "view",
      "type": "function"
    },
    {
      "inputs": [
        {
          "internalType": "address",
          "name": "",
          "type": "address"
        }
      ],
      "name": "stakingStats1Year",
      "outputs": [
        {
          "internalType": "uint256",
          "name": "totalStaked",
          "type": "uint256"
        },
        {
          "internalType": "uint256",
          "name": "totalCompounded",
          "type": "uint256"
        },
        {
          "internalType": "uint256",
          "name": "totalWithdrawn",
          "type": "uint256"
        },
        {
          "internalType": "uint256",
          "name": "currentPendingRewards",
          "type": "uint256"
        }
      ],
      "stateMutability": "view",
      "type": "function"
    },
    {
      "inputs": [
        {
          "internalType": "address",
          "name": "",
          "type": "address"
        }
      ],
      "name": "stakingStats7Days",
      "outputs": [
        {
          "internalType": "uint256",
          "name": "totalStaked",
          "type": "uint256"
        },
        {
          "internalType": "uint256",
          "name": "totalCompounded",
          "type": "uint256"
        },
        {
          "internalType": "uint256",
          "name": "totalWithdrawn",
          "type": "uint256"
        },
        {
          "internalType": "uint256",
          "name": "currentPendingRewards",
          "type": "uint256"
        }
      ],
      "stateMutability": "view",
      "type": "function"
    },
    {
      "inputs": [
        {
          "internalType": "bytes4",
          "name": "interfaceId",
          "type": "bytes4"
        }
      ],
      "name": "supportsInterface",
      "outputs": [
        {
          "internalType": "bool",
          "name": "",
          "type": "bool"
        }
      ],
      "stateMutability": "view",
      "type": "function"
    },
    {
      "inputs": [],
      "name": "token",
      "outputs": [
        {
          "internalType": "contract MoonCatToken",
          "name": "",
          "type": "address"
        }
      ],
      "stateMutability": "view",
      "type": "function"
    },
    {
      "inputs": [],
      "name": "unpause",
      "outputs": [],
      "stateMutability": "nonpayable",
      "type": "function"
    },
    {
      "inputs": [],
      "name": "unstake1Year",
      "outputs": [],
      "stateMutability": "nonpayable",
      "type": "function"
    },
    {
      "inputs": [],
      "name": "unstake7Days",
      "outputs": [],
      "stateMutability": "nonpayable",
      "type": "function"
    },
    {
      "inputs": [],
      "name": "withdrawAllInterest",
      "outputs": [],
      "stateMutability": "nonpayable",
      "type": "function"
    }
  ],
  "bytecode": "0x60a06040526103e8600a5534801561001657600080fd5b5060405161511f38038061511f83398181016040528101906100389190610378565b60016000819055506000600260006101000a81548160ff021916908315150217905550600073ffffffffffffffffffffffffffffffffffffffff168173ffffffffffffffffffffffffffffffffffffffff16036100ca576040517f08c379a00000000000000000000000000000000000000000000000000000000081526004016100c190610402565b60405180910390fd5b8073ffffffffffffffffffffffffffffffffffffffff1660808173ffffffffffffffffffffffffffffffffffffffff16815250506101116000801b3361019360201b60201c565b506101427f7935bd0ae54bc31f548c14dba4d37c5c64b3f8ca900cb468fb8abd54d5894f553361019360201b60201c565b506101737f65d7a28e3265b37a6474929f336521b332c1681b933f6cb9f3376673440d862a3361019360201b60201c565b5061027a6007819055506103bf60088190555042600b8190555050610422565b60006101a5838361029060201b60201c565b61028557600180600085815260200190815260200160002060000160008473ffffffffffffffffffffffffffffffffffffffff1673ffffffffffffffffffffffffffffffffffffffff16815260200190815260200160002060006101000a81548160ff0219169083151502179055506102226102fb60201b60201c565b73ffffffffffffffffffffffffffffffffffffffff168273ffffffffffffffffffffffffffffffffffffffff16847f2f8788117e7eff1d82e926ec794901d17c78024a50270940304540a733656f0d60405160405180910390a46001905061028a565b600090505b92915050565b60006001600084815260200190815260200160002060000160008373ffffffffffffffffffffffffffffffffffffffff1673ffffffffffffffffffffffffffffffffffffffff16815260200190815260200160002060009054906101000a900460ff16905092915050565b600033905090565b600080fd5b600073ffffffffffffffffffffffffffffffffffffffff82169050919050565b600061033382610308565b9050919050565b600061034582610328565b9050919050565b6103558161033a565b811461036057600080fd5b50565b6000815190506103728161034c565b92915050565b60006020828403121561038e5761038d610303565b5b600061039c84828501610363565b91505092915050565b600082825260208201905092915050565b7f546f6b656e2063616e6e6f74206265207a65726f206164647265737300000000600082015250565b60006103ec601c836103a5565b91506103f7826103b6565b602082019050919050565b6000602082019050818103600083015261041b816103df565b9050919050565b608051614c9c61048360003960008181610a0001528181610c960152818161182701528181611abd01528181611e7b015281816121140152818161289801528181612cd00152818161310f0152818161342001526135ab0152614c9c6000f3fe608060405234801561001057600080fd5b50600436106102d65760003560e01c806378a95e0711610182578063c5b1c7d0116100e9578063dd847c88116100a2578063e63ab1e91161007c578063e63ab1e91461086e578063e69702881461088c578063fb30eba814610896578063fc0c546a146108c9576102d6565b8063dd847c88146107ea578063df9121951461081d578063e1f1c4a714610850576102d6565b8063c5b1c7d014610774578063ccc574901461077e578063cda01fc31461079c578063d547741f146107a6578063da71ae79146107c2578063db2e21bc146107e0576102d6565b8063a217fddf1161013b578063a217fddf146106d6578063ba3f1b59146106f4578063bb9287ad146106fe578063c1eaf85e14610708578063c513b60014610738578063c541f83914610756576102d6565b806378a95e07146105fe5780638456cb591461061c57806386c39df4146106265780638bd4dfe31461064257806391d14854146106725780639a71d6c4146106a2576102d6565b806329da3d931161024157806356e586ba116101fa578063690cc599116101d4578063690cc5991461059a5780636abcc092146105b85780636d3995c5146105d65780636eaa7ba2146105e0576102d6565b806356e586ba146105545780635c975abb1461057257806364f4793314610590576102d6565b806329da3d93146104bc5780632f2ff15d146104d857806336568abe146104f45780633f4ba83a1461051057806349730fc11461051a5780634cdcc9f114610538576102d6565b806311268f4d1161029357806311268f4d146103ca5780631532d0ba146103fb578063187342f614610405578063187ff78d14610437578063237b51b214610467578063248a9ca31461048c576102d6565b806301ffc9a7146102db578063058c83bd1461030b57806308520b861461033e5780630905f5601461035c5780630f544ac71461037a5780630f60370214610396575b600080fd5b6102f560048036038101906102f09190613cf8565b6108e7565b6040516103029190613d40565b60405180910390f35b61032560048036038101906103209190613db9565b610961565b6040516103359493929190613dff565b60405180910390f35b610346610991565b6040516103539190613e44565b60405180910390f35b610364610997565b6040516103719190613d40565b60405180910390f35b610394600480360381019061038f9190613e8b565b6109aa565b005b6103b060048036038101906103ab9190613db9565b610e87565b6040516103c1959493929190613eb8565b60405180910390f35b6103e460048036038101906103df9190613db9565b610f49565b6040516103f2929190613f6f565b60405180910390f35b610403611180565b005b61041f600480360381019061041a9190613db9565b6113ca565b60405161042e93929190613f99565b60405180910390f35b610451600480360381019061044c9190614105565b61143d565b60405161045e9190613e44565b60405180910390f35b61046f6114cd565b604051610483989796959493929190614145565b60405180910390f35b6104a660048036038101906104a191906141f9565b611585565b6040516104b39190614235565b60405180910390f35b6104d660048036038101906104d19190613e8b565b6115a5565b005b6104f260048036038101906104ed9190614250565b6116f9565b005b61050e60048036038101906105099190614250565b61171b565b005b610518611796565b005b6105226117cb565b60405161052f9190613e44565b60405180910390f35b610552600480360381019061054d9190613e8b565b6117d1565b005b61055c611cae565b6040516105699190613e44565b60405180910390f35b61057a611cb4565b6040516105879190613d40565b60405180910390f35b610598611ccb565b005b6105a2611fc7565b6040516105af9190613e44565b60405180910390f35b6105c0611fcd565b6040516105cd9190613e44565b60405180910390f35b6105de611fd3565b005b6105e8612260565b6040516105f59190613e44565b60405180910390f35b610606612267565b6040516106139190613e44565b60405180910390f35b61062461226e565b005b610640600480360381019061063b9190613e8b565b6122a3565b005b61065c60048036038101906106579190613db9565b6123f7565b6040516106699190613e44565b60405180910390f35b61068c60048036038101906106879190614250565b61248e565b6040516106999190613d40565b60405180910390f35b6106bc60048036038101906106b79190613db9565b6124f9565b6040516106cd959493929190613eb8565b60405180910390f35b6106de6125bb565b6040516106eb9190614235565b60405180910390f35b6106fc6125c2565b005b61070661280c565b005b610722600480360381019061071d9190613db9565b6129e2565b60405161072f9190613e44565b60405180910390f35b610740612a79565b60405161074d9190613e44565b60405180910390f35b61075e612a7f565b60405161076b9190613e44565b60405180910390f35b61077c612a87565b005b610786612afd565b6040516107939190614235565b60405180910390f35b6107a4612b21565b005b6107c060048036038101906107bb9190614250565b612e1c565b005b6107ca612e3e565b6040516107d79190613e44565b60405180910390f35b6107e8612e44565b005b61080460048036038101906107ff9190613db9565b613248565b6040516108149493929190614290565b60405180910390f35b61083760048036038101906108329190613db9565b613285565b6040516108479493929190613dff565b60405180910390f35b6108586132b5565b6040516108659190613e44565b60405180910390f35b6108766132bb565b6040516108839190614235565b60405180910390f35b6108946132df565b005b6108b060048036038101906108ab9190613db9565b61356c565b6040516108c09493929190614290565b60405180910390f35b6108d16135a9565b6040516108de9190614334565b60405180910390f35b60007f7965db0b000000000000000000000000000000000000000000000000000000007bffffffffffffffffffffffffffffffffffffffffffffffffffffffff1916827bffffffffffffffffffffffffffffffffffffffffffffffffffffffff1916148061095a5750610959826135cd565b5b9050919050565b60066020528060005260406000206000915090508060000154908060010154908060020154908060030154905084565b600a5481565b600960009054906101000a900460ff1681565b6109b2613637565b6109ba61367d565b600081116109fd576040517f08c379a00000000000000000000000000000000000000000000000000000000081526004016109f4906143ac565b60405180910390fd5b807f000000000000000000000000000000000000000000000000000000000000000073ffffffffffffffffffffffffffffffffffffffff166370a08231336040518263ffffffff1660e01b8152600401610a5791906143db565b602060405180830381865afa158015610a74573d6000803e3d6000fd5b505050506040513d601f19601f82011682018060405250810190610a98919061440b565b1015610ad9576040517f08c379a0000000000000000000000000000000000000000000000000000000008152600401610ad090614484565b60405180910390fd5b6000600360003373ffffffffffffffffffffffffffffffffffffffff1673ffffffffffffffffffffffffffffffffffffffff168152602001908152602001600020905060008160000154118015610b3e57508060030160009054906101000a900460ff165b15610c94576000816000015490506000610b9e836040518060800160405290816000820154815260200160018201548152602001600282015481526020016003820160009054906101000a900460ff16151515158152505060075461143d565b905080836000016000828254610bb491906144d3565b925050819055504283600101819055506000811115610c915780600560003373ffffffffffffffffffffffffffffffffffffffff1673ffffffffffffffffffffffffffffffffffffffff1681526020019081526020016000206001016000828254610c1f91906144d3565b92505081905550604051610c329061455e565b60405180910390203373ffffffffffffffffffffffffffffffffffffffff167f7bdaaefb6d3f467f6801b8f10e62f3ad80c945b1770ecb80fdce030e2599fa7084848760000154604051610c8893929190614573565b60405180910390a35b50505b7f000000000000000000000000000000000000000000000000000000000000000073ffffffffffffffffffffffffffffffffffffffff166323b872dd3330856040518463ffffffff1660e01b8152600401610cf1939291906145aa565b6020604051808303816000875af1158015610d10573d6000803e3d6000fd5b505050506040513d601f19601f82011682018060405250810190610d3491906145f6565b610d73576040517f08c379a0000000000000000000000000000000000000000000000000000000008152600401610d6a9061466f565b60405180910390fd5b81816000016000828254610d8791906144d3565b9250508190555042816001018190555060018160030160006101000a81548160ff0219169083151502179055506000816002018190555081600560003373ffffffffffffffffffffffffffffffffffffffff1673ffffffffffffffffffffffffffffffffffffffff1681526020019081526020016000206000016000828254610e1091906144d3565b92505081905550604051610e239061455e565b60405180910390203373ffffffffffffffffffffffffffffffffffffffff167f66d612d12bb1902ec26fd9a4991d9d58d71d0580427497d62731e7527f1e01a48442604051610e7392919061468f565b60405180910390a350610e846136be565b50565b600080600080600080600360008873ffffffffffffffffffffffffffffffffffffffff1673ffffffffffffffffffffffffffffffffffffffff1681526020019081526020016000206040518060800160405290816000820154815260200160018201548152602001600282015481526020016003820160009054906101000a900460ff16151515158152505090508060000151610f268260075461143d565b826060015183604001518460200151955095509550955095505091939590929450565b610f51613c69565b610f59613c69565b600560008473ffffffffffffffffffffffffffffffffffffffff1673ffffffffffffffffffffffffffffffffffffffff1681526020019081526020016000206040518060800160405290816000820154815260200160018201548152602001600282015481526020016003820154815250509150600660008473ffffffffffffffffffffffffffffffffffffffff1673ffffffffffffffffffffffffffffffffffffffff16815260200190815260200160002060405180608001604052908160008201548152602001600182015481526020016002820154815260200160038201548152505090506000600360008573ffffffffffffffffffffffffffffffffffffffff1673ffffffffffffffffffffffffffffffffffffffff1681526020019081526020016000206040518060800160405290816000820154815260200160018201548152602001600282015481526020016003820160009054906101000a900460ff16151515158152505090506000600460008673ffffffffffffffffffffffffffffffffffffffff1673ffffffffffffffffffffffffffffffffffffffff1681526020019081526020016000206040518060800160405290816000820154815260200160018201548152602001600282015481526020016003820160009054906101000a900460ff161515151581525050905061115b8260075461143d565b8460600181815250506111708160085461143d565b8360600181815250505050915091565b61118861367d565b6000600460003373ffffffffffffffffffffffffffffffffffffffff1673ffffffffffffffffffffffffffffffffffffffff16815260200190815260200160002090506000816000015411611212576040517f08c379a000000000000000000000000000000000000000000000000000000000815260040161120990614704565b60405180910390fd5b8060030160009054906101000a900460ff16611263576040517f08c379a000000000000000000000000000000000000000000000000000000000815260040161125a90614770565b60405180910390fd5b60006112b5826040518060800160405290816000820154815260200160018201548152602001600282015481526020016003820160009054906101000a900460ff16151515158152505060085461143d565b9050600081111561133557808260000160008282546112d491906144d3565b9250508190555080600660003373ffffffffffffffffffffffffffffffffffffffff1673ffffffffffffffffffffffffffffffffffffffff168152602001908152602001600020600101600082825461132d91906144d3565b925050819055505b42826001018190555042826002018190555060008260030160006101000a81548160ff021916908315150217905550604051611370906147dc565b60405180910390203373ffffffffffffffffffffffffffffffffffffffff167faf1e05ce41cdb4bdc4f23bff459f1b9173663f6a49fcf52898845f8d65906886426040516113be9190613e44565b60405180910390a35050565b60008060006113dc6000801b8561248e565b6114067f7935bd0ae54bc31f548c14dba4d37c5c64b3f8ca900cb468fb8abd54d5894f558661248e565b6114307f65d7a28e3265b37a6474929f336521b332c1681b933f6cb9f3376673440d862a8761248e565b9250925092509193909250565b600082606001511580611454575060008360000151145b1561146257600090506114c7565b600083602001514261147491906147f1565b905060006301e1338084836114899190614825565b6114939190614896565b90506127108111156114a55761271090505b6127108186600001516114b89190614825565b6114c29190614896565b925050505b92915050565b600080600080600080600080600062093a80600b546114ec91906144d3565b90506114f6611cb4565b6115207f7935bd0ae54bc31f548c14dba4d37c5c64b3f8ca900cb468fb8abd54d5894f553361248e565b61152d6000801b3361248e565b600754600854600b548642101561154f57428761154a91906147f1565b611552565b60005b874210158061156a57506115696000801b3361248e565b5b98509850985098509850985098509850509091929394959697565b600060016000838152602001908152602001600020600101549050919050565b7f7935bd0ae54bc31f548c14dba4d37c5c64b3f8ca900cb468fb8abd54d5894f556115cf816136c8565b6115d761367d565b6107d082111561161c576040517f08c379a000000000000000000000000000000000000000000000000000000000815260040161161390614913565b60405180910390fd5b6000600b541415801561163957506116376000801b3361248e565b155b156116925762093a80600b5461164f91906144d3565b421015611691576040517f08c379a00000000000000000000000000000000000000000000000000000000081526004016116889061497f565b60405180910390fd5b5b600060075490508260078190555042600b819055506040516116b39061455e565b60405180910390207f4451261fd4f7dbcc8fd7251b7a2f5501686e0ab7fad43ce240b0a0d60155eb6b82856040516116ec92919061468f565b60405180910390a2505050565b61170282611585565b61170b816136c8565b61171583836136dc565b50505050565b6117236137cd565b73ffffffffffffffffffffffffffffffffffffffff168173ffffffffffffffffffffffffffffffffffffffff1614611787576040517f6697b23200000000000000000000000000000000000000000000000000000000815260040160405180910390fd5b61179182826137d5565b505050565b7f65d7a28e3265b37a6474929f336521b332c1681b933f6cb9f3376673440d862a6117c0816136c8565b6117c86138c8565b50565b60075481565b6117d9613637565b6117e161367d565b60008111611824576040517f08c379a000000000000000000000000000000000000000000000000000000000815260040161181b906143ac565b60405180910390fd5b807f000000000000000000000000000000000000000000000000000000000000000073ffffffffffffffffffffffffffffffffffffffff166370a08231336040518263ffffffff1660e01b815260040161187e91906143db565b602060405180830381865afa15801561189b573d6000803e3d6000fd5b505050506040513d601f19601f820116820180604052508101906118bf919061440b565b1015611900576040517f08c379a00000000000000000000000000000000000000000000000000000000081526004016118f790614484565b60405180910390fd5b6000600460003373ffffffffffffffffffffffffffffffffffffffff1673ffffffffffffffffffffffffffffffffffffffff16815260200190815260200160002090506000816000015411801561196557508060030160009054906101000a900460ff165b15611abb5760008160000154905060006119c5836040518060800160405290816000820154815260200160018201548152602001600282015481526020016003820160009054906101000a900460ff16151515158152505060085461143d565b9050808360000160008282546119db91906144d3565b925050819055504283600101819055506000811115611ab85780600660003373ffffffffffffffffffffffffffffffffffffffff1673ffffffffffffffffffffffffffffffffffffffff1681526020019081526020016000206001016000828254611a4691906144d3565b92505081905550604051611a59906147dc565b60405180910390203373ffffffffffffffffffffffffffffffffffffffff167f7bdaaefb6d3f467f6801b8f10e62f3ad80c945b1770ecb80fdce030e2599fa7084848760000154604051611aaf93929190614573565b60405180910390a35b50505b7f000000000000000000000000000000000000000000000000000000000000000073ffffffffffffffffffffffffffffffffffffffff166323b872dd3330856040518463ffffffff1660e01b8152600401611b18939291906145aa565b6020604051808303816000875af1158015611b37573d6000803e3d6000fd5b505050506040513d601f19601f82011682018060405250810190611b5b91906145f6565b611b9a576040517f08c379a0000000000000000000000000000000000000000000000000000000008152600401611b919061466f565b60405180910390fd5b81816000016000828254611bae91906144d3565b9250508190555042816001018190555060018160030160006101000a81548160ff0219169083151502179055506000816002018190555081600660003373ffffffffffffffffffffffffffffffffffffffff1673ffffffffffffffffffffffffffffffffffffffff1681526020019081526020016000206000016000828254611c3791906144d3565b92505081905550604051611c4a906147dc565b60405180910390203373ffffffffffffffffffffffffffffffffffffffff167f66d612d12bb1902ec26fd9a4991d9d58d71d0580427497d62731e7527f1e01a48442604051611c9a92919061468f565b60405180910390a350611cab6136be565b50565b610dac81565b6000600260009054906101000a900460ff16905090565b611cd3613637565b611cdb61367d565b6000600460003373ffffffffffffffffffffffffffffffffffffffff1673ffffffffffffffffffffffffffffffffffffffff16815260200190815260200160002090506000816000015411611d65576040517f08c379a0000000000000000000000000000000000000000000000000000000008152600401611d5c90614704565b60405180910390fd5b6000816002015411611dac576040517f08c379a0000000000000000000000000000000000000000000000000000000008152600401611da3906149eb565b60405180910390fd5b6301e133808160020154611dc091906144d3565b421015611e02576040517f08c379a0000000000000000000000000000000000000000000000000000000008152600401611df990614a57565b60405180910390fd5b600081600001549050600460003373ffffffffffffffffffffffffffffffffffffffff1673ffffffffffffffffffffffffffffffffffffffff168152602001908152602001600020600080820160009055600182016000905560028201600090556003820160006101000a81549060ff021916905550507f000000000000000000000000000000000000000000000000000000000000000073ffffffffffffffffffffffffffffffffffffffff1663a9059cbb33836040518363ffffffff1660e01b8152600401611ed4929190614a77565b6020604051808303816000875af1158015611ef3573d6000803e3d6000fd5b505050506040513d601f19601f82011682018060405250810190611f1791906145f6565b611f56576040517f08c379a0000000000000000000000000000000000000000000000000000000008152600401611f4d9061466f565b60405180910390fd5b604051611f62906147dc565b60405180910390203373ffffffffffffffffffffffffffffffffffffffff167fd224ec5ad02946fe147952e6ad900ce0567e05d53bd64beb1b564a8c603d869c836000604051611fb3929190614adb565b60405180910390a35050611fc56136be565b565b6107d081565b60085481565b611fdb613637565b611fe361367d565b6000600360003373ffffffffffffffffffffffffffffffffffffffff1673ffffffffffffffffffffffffffffffffffffffff1681526020019081526020016000209050600081600001541161206d576040517f08c379a000000000000000000000000000000000000000000000000000000000815260040161206490614704565b60405180910390fd5b600061271061138883600001546120849190614825565b61208e9190614896565b905060008183600001546120a291906147f1565b9050600360003373ffffffffffffffffffffffffffffffffffffffff1673ffffffffffffffffffffffffffffffffffffffff168152602001908152602001600020600080820160009055600182016000905560028201600090556003820160006101000a81549060ff021916905550507f000000000000000000000000000000000000000000000000000000000000000073ffffffffffffffffffffffffffffffffffffffff1663a9059cbb33836040518363ffffffff1660e01b815260040161216d929190614a77565b6020604051808303816000875af115801561218c573d6000803e3d6000fd5b505050506040513d601f19601f820116820180604052508101906121b091906145f6565b6121ef576040517f08c379a00000000000000000000000000000000000000000000000000000000081526004016121e69061466f565b60405180910390fd5b6040516121fb9061455e565b60405180910390203373ffffffffffffffffffffffffffffffffffffffff167f07d8a820151595a9521ea31802fb99d26992342fa0127530e142ff352ccd6a75838560405161224b92919061468f565b60405180910390a350505061225e6136be565b565b62093a8081565b62093a8081565b7f65d7a28e3265b37a6474929f336521b332c1681b933f6cb9f3376673440d862a612298816136c8565b6122a061392b565b50565b7f7935bd0ae54bc31f548c14dba4d37c5c64b3f8ca900cb468fb8abd54d5894f556122cd816136c8565b6122d561367d565b610dac82111561231a576040517f08c379a000000000000000000000000000000000000000000000000000000000815260040161231190614913565b60405180910390fd5b6000600b541415801561233757506123356000801b3361248e565b155b156123905762093a80600b5461234d91906144d3565b42101561238f576040517f08c379a00000000000000000000000000000000000000000000000000000000081526004016123869061497f565b60405180910390fd5b5b600060085490508260088190555042600b819055506040516123b1906147dc565b60405180910390207f4451261fd4f7dbcc8fd7251b7a2f5501686e0ab7fad43ce240b0a0d60155eb6b82856040516123ea92919061468f565b60405180910390a2505050565b6000612487600360008473ffffffffffffffffffffffffffffffffffffffff1673ffffffffffffffffffffffffffffffffffffffff1681526020019081526020016000206040518060800160405290816000820154815260200160018201548152602001600282015481526020016003820160009054906101000a900460ff16151515158152505060075461143d565b9050919050565b60006001600084815260200190815260200160002060000160008373ffffffffffffffffffffffffffffffffffffffff1673ffffffffffffffffffffffffffffffffffffffff16815260200190815260200160002060009054906101000a900460ff16905092915050565b600080600080600080600460008873ffffffffffffffffffffffffffffffffffffffff1673ffffffffffffffffffffffffffffffffffffffff1681526020019081526020016000206040518060800160405290816000820154815260200160018201548152602001600282015481526020016003820160009054906101000a900460ff161515151581525050905080600001516125988260085461143d565b826060015183604001518460200151955095509550955095505091939590929450565b6000801b81565b6125ca61367d565b6000600360003373ffffffffffffffffffffffffffffffffffffffff1673ffffffffffffffffffffffffffffffffffffffff16815260200190815260200160002090506000816000015411612654576040517f08c379a000000000000000000000000000000000000000000000000000000000815260040161264b90614704565b60405180910390fd5b8060030160009054906101000a900460ff166126a5576040517f08c379a000000000000000000000000000000000000000000000000000000000815260040161269c90614770565b60405180910390fd5b60006126f7826040518060800160405290816000820154815260200160018201548152602001600282015481526020016003820160009054906101000a900460ff16151515158152505060075461143d565b90506000811115612777578082600001600082825461271691906144d3565b9250508190555080600560003373ffffffffffffffffffffffffffffffffffffffff1673ffffffffffffffffffffffffffffffffffffffff168152602001908152602001600020600101600082825461276f91906144d3565b925050819055505b42826001018190555042826002018190555060008260030160006101000a81548160ff0219169083151502179055506040516127b29061455e565b60405180910390203373ffffffffffffffffffffffffffffffffffffffff167faf1e05ce41cdb4bdc4f23bff459f1b9173663f6a49fcf52898845f8d65906886426040516128009190613e44565b60405180910390a35050565b612814613637565b61281c61367d565b6000806128283361398e565b9050808261283691906144d3565b9150600061284333613ab3565b9050808361285191906144d3565b925060008311612896576040517f08c379a000000000000000000000000000000000000000000000000000000000815260040161288d90614b50565b60405180910390fd5b7f000000000000000000000000000000000000000000000000000000000000000073ffffffffffffffffffffffffffffffffffffffff1663a9059cbb33856040518363ffffffff1660e01b81526004016128f1929190614a77565b6020604051808303816000875af1158015612910573d6000803e3d6000fd5b505050506040513d601f19601f8201168201806040525081019061293491906145f6565b612973576040517f08c379a000000000000000000000000000000000000000000000000000000000815260040161296a9061466f565b60405180910390fd5b60405161297f90614bbc565b60405180910390203373ffffffffffffffffffffffffffffffffffffffff167f763d906f989b508baa591b85de06a2ce96a1335d3064e5477fe743df43a30b45856040516129cd9190613e44565b60405180910390a35050506129e06136be565b565b6000612a72600460008473ffffffffffffffffffffffffffffffffffffffff1673ffffffffffffffffffffffffffffffffffffffff1681526020019081526020016000206040518060800160405290816000820154815260200160018201548152602001600282015481526020016003820160009054906101000a900460ff16151515158152505060085461143d565b9050919050565b61138881565b6301e1338081565b6000801b612a94816136c8565b6001600960006101000a81548160ff021916908315150217905550612ab761392b565b3373ffffffffffffffffffffffffffffffffffffffff167fc0a1c7e9f05b4d536e1ff8606bae9b847cdb43ef4a9b2d7a503a88cee08dccdb60405160405180910390a250565b7f7935bd0ae54bc31f548c14dba4d37c5c64b3f8ca900cb468fb8abd54d5894f5581565b612b29613637565b612b3161367d565b6000600360003373ffffffffffffffffffffffffffffffffffffffff1673ffffffffffffffffffffffffffffffffffffffff16815260200190815260200160002090506000816000015411612bbb576040517f08c379a0000000000000000000000000000000000000000000000000000000008152600401612bb290614704565b60405180910390fd5b6000816002015411612c02576040517f08c379a0000000000000000000000000000000000000000000000000000000008152600401612bf9906149eb565b60405180910390fd5b62093a808160020154612c1591906144d3565b421015612c57576040517f08c379a0000000000000000000000000000000000000000000000000000000008152600401612c4e90614a57565b60405180910390fd5b600081600001549050600360003373ffffffffffffffffffffffffffffffffffffffff1673ffffffffffffffffffffffffffffffffffffffff168152602001908152602001600020600080820160009055600182016000905560028201600090556003820160006101000a81549060ff021916905550507f000000000000000000000000000000000000000000000000000000000000000073ffffffffffffffffffffffffffffffffffffffff1663a9059cbb33836040518363ffffffff1660e01b8152600401612d29929190614a77565b6020604051808303816000875af1158015612d48573d6000803e3d6000fd5b505050506040513d601f19601f82011682018060405250810190612d6c91906145f6565b612dab576040517f08c379a0000000000000000000000000000000000000000000000000000000008152600401612da29061466f565b60405180910390fd5b604051612db79061455e565b60405180910390203373ffffffffffffffffffffffffffffffffffffffff167fd224ec5ad02946fe147952e6ad900ce0567e05d53bd64beb1b564a8c603d869c836000604051612e08929190614adb565b60405180910390a35050612e1a6136be565b565b612e2582611585565b612e2e816136c8565b612e3883836137d5565b50505050565b600b5481565b612e4c613637565b600960009054906101000a900460ff16612e9b576040517f08c379a0000000000000000000000000000000000000000000000000000000008152600401612e9290614c1d565b60405180910390fd5b6000806000600360003373ffffffffffffffffffffffffffffffffffffffff1673ffffffffffffffffffffffffffffffffffffffff1681526020019081526020016000209050600081600001541115612fb4576000816000015490506000612710600a5483612f0a9190614825565b612f149190614896565b905060008183612f2491906147f1565b90508086612f3291906144d3565b95508185612f4091906144d3565b9450600360003373ffffffffffffffffffffffffffffffffffffffff1673ffffffffffffffffffffffffffffffffffffffff168152602001908152602001600020600080820160009055600182016000905560028201600090556003820160006101000a81549060ff021916905550505050505b6000600460003373ffffffffffffffffffffffffffffffffffffffff1673ffffffffffffffffffffffffffffffffffffffff16815260200190815260200160002090506000816000015411156130ca576000816000015490506000612710600a54836130209190614825565b61302a9190614896565b90506000818361303a91906147f1565b9050808761304891906144d3565b9650818661305691906144d3565b9550600460003373ffffffffffffffffffffffffffffffffffffffff1673ffffffffffffffffffffffffffffffffffffffff168152602001908152602001600020600080820160009055600182016000905560028201600090556003820160006101000a81549060ff021916905550505050505b6000841161310d576040517f08c379a000000000000000000000000000000000000000000000000000000000815260040161310490614704565b60405180910390fd5b7f000000000000000000000000000000000000000000000000000000000000000073ffffffffffffffffffffffffffffffffffffffff1663a9059cbb33866040518363ffffffff1660e01b8152600401613168929190614a77565b6020604051808303816000875af1158015613187573d6000803e3d6000fd5b505050506040513d601f19601f820116820180604052508101906131ab91906145f6565b6131ea576040517f08c379a00000000000000000000000000000000000000000000000000000000081526004016131e19061466f565b60405180910390fd5b3373ffffffffffffffffffffffffffffffffffffffff167fbb757047c2b5f3974fe26b7c10f732e7bce710b0952a71082702781e62ae0595858560405161323292919061468f565b60405180910390a2505050506132466136be565b565b60046020528060005260406000206000915090508060000154908060010154908060020154908060030160009054906101000a900460ff16905084565b60056020528060005260406000206000915090508060000154908060010154908060020154908060030154905084565b61271081565b7f65d7a28e3265b37a6474929f336521b332c1681b933f6cb9f3376673440d862a81565b6132e7613637565b6132ef61367d565b6000600460003373ffffffffffffffffffffffffffffffffffffffff1673ffffffffffffffffffffffffffffffffffffffff16815260200190815260200160002090506000816000015411613379576040517f08c379a000000000000000000000000000000000000000000000000000000000815260040161337090614704565b60405180910390fd5b600061271061138883600001546133909190614825565b61339a9190614896565b905060008183600001546133ae91906147f1565b9050600460003373ffffffffffffffffffffffffffffffffffffffff1673ffffffffffffffffffffffffffffffffffffffff168152602001908152602001600020600080820160009055600182016000905560028201600090556003820160006101000a81549060ff021916905550507f000000000000000000000000000000000000000000000000000000000000000073ffffffffffffffffffffffffffffffffffffffff1663a9059cbb33836040518363ffffffff1660e01b8152600401613479929190614a77565b6020604051808303816000875af1158015613498573d6000803e3d6000fd5b505050506040513d601f19601f820116820180604052508101906134bc91906145f6565b6134fb576040517f08c379a00000000000000000000000000000000000000000000000000000000081526004016134f29061466f565b60405180910390fd5b604051613507906147dc565b60405180910390203373ffffffffffffffffffffffffffffffffffffffff167f07d8a820151595a9521ea31802fb99d26992342fa0127530e142ff352ccd6a75838560405161355792919061468f565b60405180910390a350505061356a6136be565b565b60036020528060005260406000206000915090508060000154908060010154908060020154908060030160009054906101000a900460ff16905084565b7f000000000000000000000000000000000000000000000000000000000000000081565b60007f01ffc9a7000000000000000000000000000000000000000000000000000000007bffffffffffffffffffffffffffffffffffffffffffffffffffffffff1916827bffffffffffffffffffffffffffffffffffffffffffffffffffffffff1916149050919050565b600260005403613673576040517f3ee5aeb500000000000000000000000000000000000000000000000000000000815260040160405180910390fd5b6002600081905550565b613685611cb4565b156136bc576040517fd93c066500000000000000000000000000000000000000000000000000000000815260040160405180910390fd5b565b6001600081905550565b6136d9816136d46137cd565b613bd8565b50565b60006136e8838361248e565b6137c257600180600085815260200190815260200160002060000160008473ffffffffffffffffffffffffffffffffffffffff1673ffffffffffffffffffffffffffffffffffffffff16815260200190815260200160002060006101000a81548160ff02191690831515021790555061375f6137cd565b73ffffffffffffffffffffffffffffffffffffffff168273ffffffffffffffffffffffffffffffffffffffff16847f2f8788117e7eff1d82e926ec794901d17c78024a50270940304540a733656f0d60405160405180910390a4600190506137c7565b600090505b92915050565b600033905090565b60006137e1838361248e565b156138bd5760006001600085815260200190815260200160002060000160008473ffffffffffffffffffffffffffffffffffffffff1673ffffffffffffffffffffffffffffffffffffffff16815260200190815260200160002060006101000a81548160ff02191690831515021790555061385a6137cd565b73ffffffffffffffffffffffffffffffffffffffff168273ffffffffffffffffffffffffffffffffffffffff16847ff6391f5c32d9c69d2a47ea670b442974b53935d1edc7fd64eb21e047a839171b60405160405180910390a4600190506138c2565b600090505b92915050565b6138d0613c29565b6000600260006101000a81548160ff0219169083151502179055507f5db9ee0a495bf2e6ff9c91a7834c1ba4fdd244a5e8aa4e537bd38aeae4b073aa6139146137cd565b60405161392191906143db565b60405180910390a1565b61393361367d565b6001600260006101000a81548160ff0219169083151502179055507f62e78cea01bee320cd4e420270b5ea74000d11b0c9f74754ebdbfc544b05a2586139776137cd565b60405161398491906143db565b60405180910390a1565b600080600360008473ffffffffffffffffffffffffffffffffffffffff1673ffffffffffffffffffffffffffffffffffffffff168152602001908152602001600020905060008160000154036139e8576000915050613aae565b6000613a3a826040518060800160405290816000820154815260200160018201548152602001600282015481526020016003820160009054906101000a900460ff16151515158152505060075461143d565b90506000811115613aa85742826001018190555080600560008673ffffffffffffffffffffffffffffffffffffffff1673ffffffffffffffffffffffffffffffffffffffff1681526020019081526020016000206002016000828254613aa091906144d3565b925050819055505b80925050505b919050565b600080600460008473ffffffffffffffffffffffffffffffffffffffff1673ffffffffffffffffffffffffffffffffffffffff16815260200190815260200160002090506000816000015403613b0d576000915050613bd3565b6000613b5f826040518060800160405290816000820154815260200160018201548152602001600282015481526020016003820160009054906101000a900460ff16151515158152505060085461143d565b90506000811115613bcd5742826001018190555080600660008673ffffffffffffffffffffffffffffffffffffffff1673ffffffffffffffffffffffffffffffffffffffff1681526020019081526020016000206002016000828254613bc591906144d3565b925050819055505b80925050505b919050565b613be2828261248e565b613c255780826040517fe2517d3f000000000000000000000000000000000000000000000000000000008152600401613c1c929190614c3d565b60405180910390fd5b5050565b613c31611cb4565b613c67576040517f8dfc202b00000000000000000000000000000000000000000000000000000000815260040160405180910390fd5b565b6040518060800160405280600081526020016000815260200160008152602001600081525090565b6000604051905090565b600080fd5b60007fffffffff0000000000000000000000000000000000000000000000000000000082169050919050565b613cd581613ca0565b8114613ce057600080fd5b50565b600081359050613cf281613ccc565b92915050565b600060208284031215613d0e57613d0d613c9b565b5b6000613d1c84828501613ce3565b91505092915050565b60008115159050919050565b613d3a81613d25565b82525050565b6000602082019050613d556000830184613d31565b92915050565b600073ffffffffffffffffffffffffffffffffffffffff82169050919050565b6000613d8682613d5b565b9050919050565b613d9681613d7b565b8114613da157600080fd5b50565b600081359050613db381613d8d565b92915050565b600060208284031215613dcf57613dce613c9b565b5b6000613ddd84828501613da4565b91505092915050565b6000819050919050565b613df981613de6565b82525050565b6000608082019050613e146000830187613df0565b613e216020830186613df0565b613e2e6040830185613df0565b613e3b6060830184613df0565b95945050505050565b6000602082019050613e596000830184613df0565b92915050565b613e6881613de6565b8114613e7357600080fd5b50565b600081359050613e8581613e5f565b92915050565b600060208284031215613ea157613ea0613c9b565b5b6000613eaf84828501613e76565b91505092915050565b600060a082019050613ecd6000830188613df0565b613eda6020830187613df0565b613ee76040830186613d31565b613ef46060830185613df0565b613f016080830184613df0565b9695505050505050565b613f1481613de6565b82525050565b608082016000820151613f306000850182613f0b565b506020820151613f436020850182613f0b565b506040820151613f566040850182613f0b565b506060820151613f696060850182613f0b565b50505050565b600061010082019050613f856000830185613f1a565b613f926080830184613f1a565b9392505050565b6000606082019050613fae6000830186613d31565b613fbb6020830185613d31565b613fc86040830184613d31565b949350505050565b600080fd5b6000601f19601f8301169050919050565b7f4e487b7100000000000000000000000000000000000000000000000000000000600052604160045260246000fd5b61401e82613fd5565b810181811067ffffffffffffffff8211171561403d5761403c613fe6565b5b80604052505050565b6000614050613c91565b905061405c8282614015565b919050565b61406a81613d25565b811461407557600080fd5b50565b60008135905061408781614061565b92915050565b6000608082840312156140a3576140a2613fd0565b5b6140ad6080614046565b905060006140bd84828501613e76565b60008301525060206140d184828501613e76565b60208301525060406140e584828501613e76565b60408301525060606140f984828501614078565b60608301525092915050565b60008060a0838503121561411c5761411b613c9b565b5b600061412a8582860161408d565b925050608061413b85828601613e76565b9150509250929050565b60006101008201905061415b600083018b613d31565b614168602083018a613d31565b6141756040830189613d31565b6141826060830188613df0565b61418f6080830187613df0565b61419c60a0830186613df0565b6141a960c0830185613df0565b6141b660e0830184613d31565b9998505050505050505050565b6000819050919050565b6141d6816141c3565b81146141e157600080fd5b50565b6000813590506141f3816141cd565b92915050565b60006020828403121561420f5761420e613c9b565b5b600061421d848285016141e4565b91505092915050565b61422f816141c3565b82525050565b600060208201905061424a6000830184614226565b92915050565b6000806040838503121561426757614266613c9b565b5b6000614275858286016141e4565b925050602061428685828601613da4565b9150509250929050565b60006080820190506142a56000830187613df0565b6142b26020830186613df0565b6142bf6040830185613df0565b6142cc6060830184613d31565b95945050505050565b6000819050919050565b60006142fa6142f56142f084613d5b565b6142d5565b613d5b565b9050919050565b600061430c826142df565b9050919050565b600061431e82614301565b9050919050565b61432e81614313565b82525050565b60006020820190506143496000830184614325565b92915050565b600082825260208201905092915050565b7f43616e6e6f74207374616b652030000000000000000000000000000000000000600082015250565b6000614396600e8361434f565b91506143a182614360565b602082019050919050565b600060208201905081810360008301526143c581614389565b9050919050565b6143d581613d7b565b82525050565b60006020820190506143f060008301846143cc565b92915050565b60008151905061440581613e5f565b92915050565b60006020828403121561442157614420613c9b565b5b600061442f848285016143f6565b91505092915050565b7f496e73756666696369656e742062616c616e6365000000000000000000000000600082015250565b600061446e60148361434f565b915061447982614438565b602082019050919050565b6000602082019050818103600083015261449d81614461565b9050919050565b7f4e487b7100000000000000000000000000000000000000000000000000000000600052601160045260246000fd5b60006144de82613de6565b91506144e983613de6565b9250828201905080821115614501576145006144a4565b5b92915050565b600081905092915050565b7f372d446179000000000000000000000000000000000000000000000000000000600082015250565b6000614548600583614507565b915061455382614512565b600582019050919050565b60006145698261453b565b9150819050919050565b60006060820190506145886000830186613df0565b6145956020830185613df0565b6145a26040830184613df0565b949350505050565b60006060820190506145bf60008301866143cc565b6145cc60208301856143cc565b6145d96040830184613df0565b949350505050565b6000815190506145f081614061565b92915050565b60006020828403121561460c5761460b613c9b565b5b600061461a848285016145e1565b91505092915050565b7f5472616e73666572206661696c65640000000000000000000000000000000000600082015250565b6000614659600f8361434f565b915061466482614623565b602082019050919050565b600060208201905081810360008301526146888161464c565b9050919050565b60006040820190506146a46000830185613df0565b6146b16020830184613df0565b9392505050565b7f4e6f207374616b6520666f756e64000000000000000000000000000000000000600082015250565b60006146ee600e8361434f565b91506146f9826146b8565b602082019050919050565b6000602082019050818103600083015261471d816146e1565b9050919050565b7f416c726561647920756e6c6f636b696e67000000000000000000000000000000600082015250565b600061475a60118361434f565b915061476582614724565b602082019050919050565b600060208201905081810360008301526147898161474d565b9050919050565b7f312d596561720000000000000000000000000000000000000000000000000000600082015250565b60006147c6600683614507565b91506147d182614790565b600682019050919050565b60006147e7826147b9565b9150819050919050565b60006147fc82613de6565b915061480783613de6565b925082820390508181111561481f5761481e6144a4565b5b92915050565b600061483082613de6565b915061483b83613de6565b925082820261484981613de6565b915082820484148315176148605761485f6144a4565b5b5092915050565b7f4e487b7100000000000000000000000000000000000000000000000000000000600052601260045260246000fd5b60006148a182613de6565b91506148ac83613de6565b9250826148bc576148bb614867565b5b828204905092915050565b7f5261746520746f6f206869676800000000000000000000000000000000000000600082015250565b60006148fd600d8361434f565b9150614908826148c7565b602082019050919050565b6000602082019050818103600083015261492c816148f0565b9050919050565b7f52617465206368616e676520746f6f20736f6f6e000000000000000000000000600082015250565b600061496960148361434f565b915061497482614933565b602082019050919050565b600060208201905081810360008301526149988161495c565b9050919050565b7f556e6c6f636b206e6f7420726571756573746564000000000000000000000000600082015250565b60006149d560148361434f565b91506149e08261499f565b602082019050919050565b60006020820190508181036000830152614a04816149c8565b9050919050565b7f5374696c6c206c6f636b65640000000000000000000000000000000000000000600082015250565b6000614a41600c8361434f565b9150614a4c82614a0b565b602082019050919050565b60006020820190508181036000830152614a7081614a34565b9050919050565b6000604082019050614a8c60008301856143cc565b614a996020830184613df0565b9392505050565b6000819050919050565b6000614ac5614ac0614abb84614aa0565b6142d5565b613de6565b9050919050565b614ad581614aaa565b82525050565b6000604082019050614af06000830185613df0565b614afd6020830184614acc565b9392505050565b7f4e6f207265776172647320617661696c61626c65000000000000000000000000600082015250565b6000614b3a60148361434f565b9150614b4582614b04565b602082019050919050565b60006020820190508181036000830152614b6981614b2d565b9050919050565b7f416c6c0000000000000000000000000000000000000000000000000000000000600082015250565b6000614ba6600383614507565b9150614bb182614b70565b600382019050919050565b6000614bc782614b99565b9150819050919050565b7f456d657267656e6379206d6f6465206e6f742061637469766500000000000000600082015250565b6000614c0760198361434f565b9150614c1282614bd1565b602082019050919050565b60006020820190508181036000830152614c3681614bfa565b9050919050565b6000604082019050614c5260008301856143cc565b614c5f6020830184614226565b939250505056fea2646970667358221220ae163c1961e422d72cf675ce43a884c11bde50972fb45a2a84fdf1877ad390cb64736f6c634300081b0033",
  "linkReferences": {},
  "deployedLinkReferences": {}
}