{
  "_format": "hh-sol-artifact-1",
  "contractName": "MoonCatStaking",
  "sourceName": "contracts/MoonCatStaking.sol",
  "abi": [
    {
      "inputs": [
        {
          "internalType": "contract MoonCatToken",
          "name": "_token",
          "type": "address"
        }
      ],
      "stateMutability": "nonpayable",
      "type": "constructor"
    },
    {
      "inputs": [],
      "name": "AccessControlBadConfirmation",
      "type": "error"
    },
    {
      "inputs": [
        {
          "internalType": "address",
          "name": "account",
          "type": "address"
        },
        {
          "internalType": "bytes32",
          "name": "neededRole",
          "type": "bytes32"
        }
      ],
      "name": "AccessControlUnauthorizedAccount",
      "type": "error"
    },
    {
      "inputs": [],
      "name": "EnforcedPause",
      "type": "error"
    },
    {
      "inputs": [],
      "name": "ExpectedPause",
      "type": "error"
    },
    {
      "inputs": [],
      "name": "ReentrancyGuardReentrantCall",
      "type": "error"
    },
    {
      "anonymous": false,
      "inputs": [
        {
          "indexed": true,
          "internalType": "address",
          "name": "by",
          "type": "address"
        }
      ],
      "name": "EmergencyModeEnabled",
      "type": "event"
    },
    {
      "anonymous": false,
      "inputs": [
        {
          "indexed": true,
          "internalType": "address",
          "name": "user",
          "type": "address"
        },
        {
          "indexed": false,
          "internalType": "uint256",
          "name": "amount",
          "type": "uint256"
        },
        {
          "indexed": false,
          "internalType": "uint256",
          "name": "fee",
          "type": "uint256"
        }
      ],
      "name": "EmergencyWithdraw",
      "type": "event"
    },
    {
      "anonymous": false,
      "inputs": [
        {
          "indexed": true,
          "internalType": "address",
          "name": "user",
          "type": "address"
        },
        {
          "indexed": false,
          "internalType": "uint256",
          "name": "amount",
          "type": "uint256"
        },
        {
          "indexed": false,
          "internalType": "uint256",
          "name": "penalty",
          "type": "uint256"
        },
        {
          "indexed": true,
          "internalType": "string",
          "name": "stakeType",
          "type": "string"
        }
      ],
      "name": "ForceUnlocked",
      "type": "event"
    },
    {
      "anonymous": false,
      "inputs": [
        {
          "indexed": true,
          "internalType": "address",
          "name": "user",
          "type": "address"
        },
        {
          "indexed": false,
          "internalType": "uint256",
          "name": "reward",
          "type": "uint256"
        },
        {
          "indexed": true,
          "internalType": "string",
          "name": "stakeType",
          "type": "string"
        }
      ],
      "name": "InterestWithdrawn",
      "type": "event"
    },
    {
      "anonymous": false,
      "inputs": [
        {
          "indexed": false,
          "internalType": "address",
          "name": "account",
          "type": "address"
        }
      ],
      "name": "Paused",
      "type": "event"
    },
    {
      "anonymous": false,
      "inputs": [
        {
          "indexed": true,
          "internalType": "string",
          "name": "stakeType",
          "type": "string"
        },
        {
          "indexed": false,
          "internalType": "uint256",
          "name": "oldRate",
          "type": "uint256"
        },
        {
          "indexed": false,
          "internalType": "uint256",
          "name": "newRate",
          "type": "uint256"
        }
      ],
      "name": "RateChanged",
      "type": "event"
    },
    {
      "anonymous": false,
      "inputs": [
        {
          "indexed": true,
          "internalType": "bytes32",
          "name": "role",
          "type": "bytes32"
        },
        {
          "indexed": true,
          "internalType": "bytes32",
          "name": "previousAdminRole",
          "type": "bytes32"
        },
        {
          "indexed": true,
          "internalType": "bytes32",
          "name": "newAdminRole",
          "type": "bytes32"
        }
      ],
      "name": "RoleAdminChanged",
      "type": "event"
    },
    {
      "anonymous": false,
      "inputs": [
        {
          "indexed": true,
          "internalType": "bytes32",
          "name": "role",
          "type": "bytes32"
        },
        {
          "indexed": true,
          "internalType": "address",
          "name": "account",
          "type": "address"
        },
        {
          "indexed": true,
          "internalType": "address",
          "name": "sender",
          "type": "address"
        }
      ],
      "name": "RoleGranted",
      "type": "event"
    },
    {
      "anonymous": false,
      "inputs": [
        {
          "indexed": true,
          "internalType": "bytes32",
          "name": "role",
          "type": "bytes32"
        },
        {
          "indexed": true,
          "internalType": "address",
          "name": "account",
          "type": "address"
        },
        {
          "indexed": true,
          "internalType": "address",
          "name": "sender",
          "type": "address"
        }
      ],
      "name": "RoleRevoked",
      "type": "event"
    },
    {
      "anonymous": false,
      "inputs": [
        {
          "indexed": true,
          "internalType": "address",
          "name": "user",
          "type": "address"
        },
        {
          "indexed": false,
          "internalType": "uint256",
          "name": "originalAmount",
          "type": "uint256"
        },
        {
          "indexed": false,
          "internalType": "uint256",
          "name": "compoundedInterest",
          "type": "uint256"
        },
        {
          "indexed": false,
          "internalType": "uint256",
          "name": "newTotal",
          "type": "uint256"
        },
        {
          "indexed": true,
          "internalType": "string",
          "name": "stakeType",
          "type": "string"
        }
      ],
      "name": "StakeCompounded",
      "type": "event"
    },
    {
      "anonymous": false,
      "inputs": [
        {
          "indexed": true,
          "internalType": "address",
          "name": "user",
          "type": "address"
        },
        {
          "indexed": false,
          "internalType": "uint256",
          "name": "amount",
          "type": "uint256"
        },
        {
          "indexed": false,
          "internalType": "uint256",
          "name": "since",
          "type": "uint256"
        },
        {
          "indexed": true,
          "internalType": "string",
          "name": "stakeType",
          "type": "string"
        }
      ],
      "name": "Staked",
      "type": "event"
    },
    {
      "anonymous": false,
      "inputs": [
        {
          "indexed": true,
          "internalType": "address",
          "name": "user",
          "type": "address"
        },
        {
          "indexed": false,
          "internalType": "uint256",
          "name": "unlockRequestTime",
          "type": "uint256"
        },
        {
          "indexed": true,
          "internalType": "string",
          "name": "stakeType",
          "type": "string"
        }
      ],
      "name": "UnlockRequested",
      "type": "event"
    },
    {
      "anonymous": false,
      "inputs": [
        {
          "indexed": false,
          "internalType": "address",
          "name": "account",
          "type": "address"
        }
      ],
      "name": "Unpaused",
      "type": "event"
    },
    {
      "anonymous": false,
      "inputs": [
        {
          "indexed": true,
          "internalType": "address",
          "name": "user",
          "type": "address"
        },
        {
          "indexed": false,
          "internalType": "uint256",
          "name": "amount",
          "type": "uint256"
        },
        {
          "indexed": false,
          "internalType": "uint256",
          "name": "reward",
          "type": "uint256"
        },
        {
          "indexed": true,
          "internalType": "string",
          "name": "stakeType",
          "type": "string"
        }
      ],
      "name": "Unstaked",
      "type": "event"
    },
    {
      "inputs": [],
      "name": "BASIS_POINTS",
      "outputs": [
        {
          "internalType": "uint256",
          "name": "",
          "type": "uint256"
        }
      ],
      "stateMutability": "view",
      "type": "function"
    },
    {
      "inputs": [],
      "name": "DEFAULT_ADMIN_ROLE",
      "outputs": [
        {
          "internalType": "bytes32",
          "name": "",
          "type": "bytes32"
        }
      ],
      "stateMutability": "view",
      "type": "function"
    },
    {
      "inputs": [],
      "name": "FORCE_UNLOCK_PENALTY",
      "outputs": [
        {
          "internalType": "uint256",
          "name": "",
          "type": "uint256"
        }
      ],
      "stateMutability": "view",
      "type": "function"
    },
    {
      "inputs": [],
      "name": "GOVERNOR_ROLE",
      "outputs": [
        {
          "internalType": "bytes32",
          "name": "",
          "type": "bytes32"
        }
      ],
      "stateMutability": "view",
      "type": "function"
    },
    {
      "inputs": [],
      "name": "MAX_RATE_1YEAR",
      "outputs": [
        {
          "internalType": "uint256",
          "name": "",
          "type": "uint256"
        }
      ],
      "stateMutability": "view",
      "type": "function"
    },
    {
      "inputs": [],
      "name": "MAX_RATE_7DAYS",
      "outputs": [
        {
          "internalType": "uint256",
          "name": "",
          "type": "uint256"
        }
      ],
      "stateMutability": "view",
      "type": "function"
    },
    {
      "inputs": [],
      "name": "MAX_STAKE_AMOUNT",
      "outputs": [
        {
          "internalType": "uint256",
          "name": "",
          "type": "uint256"
        }
      ],
      "stateMutability": "view",
      "type": "function"
    },
    {
      "inputs": [],
      "name": "PAUSER_ROLE",
      "outputs": [
        {
          "internalType": "bytes32",
          "name": "",
          "type": "bytes32"
        }
      ],
      "stateMutability": "view",
      "type": "function"
    },
    {
      "inputs": [],
      "name": "RATE_CHANGE_COOLDOWN",
      "outputs": [
        {
          "internalType": "uint256",
          "name": "",
          "type": "uint256"
        }
      ],
      "stateMutability": "view",
      "type": "function"
    },
    {
      "inputs": [],
      "name": "UNLOCK_PERIOD_1YEAR",
      "outputs": [
        {
          "internalType": "uint256",
          "name": "",
          "type": "uint256"
        }
      ],
      "stateMutability": "view",
      "type": "function"
    },
    {
      "inputs": [],
      "name": "UNLOCK_PERIOD_7DAYS",
      "outputs": [
        {
          "internalType": "uint256",
          "name": "",
          "type": "uint256"
        }
      ],
      "stateMutability": "view",
      "type": "function"
    },
    {
      "inputs": [
        {
          "components": [
            {
              "internalType": "uint256",
              "name": "amount",
              "type": "uint256"
            },
            {
              "internalType": "uint256",
              "name": "since",
              "type": "uint256"
            },
            {
              "internalType": "uint256",
              "name": "unlockRequestTime",
              "type": "uint256"
            },
            {
              "internalType": "bool",
              "name": "isLocked",
              "type": "bool"
            }
          ],
          "internalType": "struct MoonCatStaking.Stake",
          "name": "stake",
          "type": "tuple"
        },
        {
          "internalType": "uint256",
          "name": "rate",
          "type": "uint256"
        }
      ],
      "name": "calculatePendingRewards",
      "outputs": [
        {
          "internalType": "uint256",
          "name": "",
          "type": "uint256"
        }
      ],
      "stateMutability": "view",
      "type": "function"
    },
    {
      "inputs": [
        {
          "internalType": "address",
          "name": "user",
          "type": "address"
        },
        {
          "internalType": "bool",
          "name": "is7Days",
          "type": "bool"
        }
      ],
      "name": "debugCalculation",
      "outputs": [
        {
          "internalType": "uint256",
          "name": "stakeAmount",
          "type": "uint256"
        },
        {
          "internalType": "uint256",
          "name": "stakeDuration",
          "type": "uint256"
        },
        {
          "internalType": "uint256",
          "name": "rate",
          "type": "uint256"
        },
        {
          "internalType": "uint256",
          "name": "calculatedInterest",
          "type": "uint256"
        },
        {
          "internalType": "bool",
          "name": "isLocked",
          "type": "bool"
        },
        {
          "internalType": "uint256",
          "name": "unlockRequestTime",
          "type": "uint256"
        }
      ],
      "stateMutability": "view",
      "type": "function"
    },
    {
      "inputs": [],
      "name": "emergencyMode",
      "outputs": [
        {
          "internalType": "bool",
          "name": "",
          "type": "bool"
        }
      ],
      "stateMutability": "view",
      "type": "function"
    },
    {
      "inputs": [],
      "name": "emergencyWithdraw",
      "outputs": [],
      "stateMutability": "nonpayable",
      "type": "function"
    },
    {
      "inputs": [],
      "name": "emergencyWithdrawalFee",
      "outputs": [
        {
          "internalType": "uint256",
          "name": "",
          "type": "uint256"
        }
      ],
      "stateMutability": "view",
      "type": "function"
    },
    {
      "inputs": [],
      "name": "enableEmergencyMode",
      "outputs": [],
      "stateMutability": "nonpayable",
      "type": "function"
    },
    {
      "inputs": [],
      "name": "forceUnlock1Year",
      "outputs": [],
      "stateMutability": "nonpayable",
      "type": "function"
    },
    {
      "inputs": [],
      "name": "forceUnlock7Days",
      "outputs": [],
      "stateMutability": "nonpayable",
      "type": "function"
    },
    {
      "inputs": [
        {
          "internalType": "address",
          "name": "user",
          "type": "address"
        }
      ],
      "name": "getAllStakingStats",
      "outputs": [
        {
          "components": [
            {
              "internalType": "uint256",
              "name": "totalStaked",
              "type": "uint256"
            },
            {
              "internalType": "uint256",
              "name": "totalCompounded",
              "type": "uint256"
            },
            {
              "internalType": "uint256",
              "name": "totalWithdrawn",
              "type": "uint256"
            },
            {
              "internalType": "uint256",
              "name": "currentPendingRewards",
              "type": "uint256"
            }
          ],
          "internalType": "struct MoonCatStaking.StakingStats",
          "name": "stats7Days",
          "type": "tuple"
        },
        {
          "components": [
            {
              "internalType": "uint256",
              "name": "totalStaked",
              "type": "uint256"
            },
            {
              "internalType": "uint256",
              "name": "totalCompounded",
              "type": "uint256"
            },
            {
              "internalType": "uint256",
              "name": "totalWithdrawn",
              "type": "uint256"
            },
            {
              "internalType": "uint256",
              "name": "currentPendingRewards",
              "type": "uint256"
            }
          ],
          "internalType": "struct MoonCatStaking.StakingStats",
          "name": "stats1Year",
          "type": "tuple"
        }
      ],
      "stateMutability": "view",
      "type": "function"
    },
    {
      "inputs": [
        {
          "internalType": "bytes32",
          "name": "role",
          "type": "bytes32"
        }
      ],
      "name": "getRoleAdmin",
      "outputs": [
        {
          "internalType": "bytes32",
          "name": "",
          "type": "bytes32"
        }
      ],
      "stateMutability": "view",
      "type": "function"
    },
    {
      "inputs": [
        {
          "internalType": "address",
          "name": "user",
          "type": "address"
        }
      ],
      "name": "getStakeDetails1Year",
      "outputs": [
        {
          "internalType": "uint256",
          "name": "stakedAmount",
          "type": "uint256"
        },
        {
          "internalType": "uint256",
          "name": "pendingRewards",
          "type": "uint256"
        },
        {
          "internalType": "bool",
          "name": "isLocked",
          "type": "bool"
        },
        {
          "internalType": "uint256",
          "name": "unlockRequestTime",
          "type": "uint256"
        },
        {
          "internalType": "uint256",
          "name": "timeStaked",
          "type": "uint256"
        }
      ],
      "stateMutability": "view",
      "type": "function"
    },
    {
      "inputs": [
        {
          "internalType": "address",
          "name": "user",
          "type": "address"
        }
      ],
      "name": "getStakeDetails7Days",
      "outputs": [
        {
          "internalType": "uint256",
          "name": "stakedAmount",
          "type": "uint256"
        },
        {
          "internalType": "uint256",
          "name": "pendingRewards",
          "type": "uint256"
        },
        {
          "internalType": "bool",
          "name": "isLocked",
          "type": "bool"
        },
        {
          "internalType": "uint256",
          "name": "unlockRequestTime",
          "type": "uint256"
        },
        {
          "internalType": "uint256",
          "name": "timeStaked",
          "type": "uint256"
        }
      ],
      "stateMutability": "view",
      "type": "function"
    },
    {
      "inputs": [
        {
          "internalType": "address",
          "name": "user",
          "type": "address"
        },
        {
          "internalType": "bool",
          "name": "is7Days",
          "type": "bool"
        }
      ],
      "name": "getTimeUntilUnlock",
      "outputs": [
        {
          "internalType": "uint256",
          "name": "",
          "type": "uint256"
        }
      ],
      "stateMutability": "view",
      "type": "function"
    },
    {
      "inputs": [
        {
          "internalType": "bytes32",
          "name": "role",
          "type": "bytes32"
        },
        {
          "internalType": "address",
          "name": "account",
          "type": "address"
        }
      ],
      "name": "grantRole",
      "outputs": [],
      "stateMutability": "nonpayable",
      "type": "function"
    },
    {
      "inputs": [
        {
          "internalType": "bytes32",
          "name": "role",
          "type": "bytes32"
        },
        {
          "internalType": "address",
          "name": "account",
          "type": "address"
        }
      ],
      "name": "hasRole",
      "outputs": [
        {
          "internalType": "bool",
          "name": "",
          "type": "bool"
        }
      ],
      "stateMutability": "view",
      "type": "function"
    },
    {
      "inputs": [
        {
          "components": [
            {
              "internalType": "uint256",
              "name": "amount",
              "type": "uint256"
            },
            {
              "internalType": "uint256",
              "name": "since",
              "type": "uint256"
            },
            {
              "internalType": "uint256",
              "name": "unlockRequestTime",
              "type": "uint256"
            },
            {
              "internalType": "bool",
              "name": "isLocked",
              "type": "bool"
            }
          ],
          "internalType": "struct MoonCatStaking.Stake",
          "name": "stake",
          "type": "tuple"
        },
        {
          "internalType": "bool",
          "name": "is7Days",
          "type": "bool"
        }
      ],
      "name": "isUnlockComplete",
      "outputs": [
        {
          "internalType": "bool",
          "name": "",
          "type": "bool"
        }
      ],
      "stateMutability": "view",
      "type": "function"
    },
    {
      "inputs": [],
      "name": "lastRateChange",
      "outputs": [
        {
          "internalType": "uint256",
          "name": "",
          "type": "uint256"
        }
      ],
      "stateMutability": "view",
      "type": "function"
    },
    {
      "inputs": [],
      "name": "pause",
      "outputs": [],
      "stateMutability": "nonpayable",
      "type": "function"
    },
    {
      "inputs": [],
      "name": "paused",
      "outputs": [
        {
          "internalType": "bool",
          "name": "",
          "type": "bool"
        }
      ],
      "stateMutability": "view",
      "type": "function"
    },
    {
      "inputs": [
        {
          "internalType": "bytes32",
          "name": "role",
          "type": "bytes32"
        },
        {
          "internalType": "address",
          "name": "callerConfirmation",
          "type": "address"
        }
      ],
      "name": "renounceRole",
      "outputs": [],
      "stateMutability": "nonpayable",
      "type": "function"
    },
    {
      "inputs": [],
      "name": "requestUnlock1Year",
      "outputs": [],
      "stateMutability": "nonpayable",
      "type": "function"
    },
    {
      "inputs": [],
      "name": "requestUnlock7Days",
      "outputs": [],
      "stateMutability": "nonpayable",
      "type": "function"
    },
    {
      "inputs": [
        {
          "internalType": "bytes32",
          "name": "role",
          "type": "bytes32"
        },
        {
          "internalType": "address",
          "name": "account",
          "type": "address"
        }
      ],
      "name": "revokeRole",
      "outputs": [],
      "stateMutability": "nonpayable",
      "type": "function"
    },
    {
      "inputs": [],
      "name": "rewardRate1Year",
      "outputs": [
        {
          "internalType": "uint256",
          "name": "",
          "type": "uint256"
        }
      ],
      "stateMutability": "view",
      "type": "function"
    },
    {
      "inputs": [],
      "name": "rewardRate7Days",
      "outputs": [
        {
          "internalType": "uint256",
          "name": "",
          "type": "uint256"
        }
      ],
      "stateMutability": "view",
      "type": "function"
    },
    {
      "inputs": [
        {
          "internalType": "uint256",
          "name": "_newRate",
          "type": "uint256"
        }
      ],
      "name": "setRewardRate1Year",
      "outputs": [],
      "stateMutability": "nonpayable",
      "type": "function"
    },
    {
      "inputs": [
        {
          "internalType": "uint256",
          "name": "_newRate",
          "type": "uint256"
        }
      ],
      "name": "setRewardRate7Days",
      "outputs": [],
      "stateMutability": "nonpayable",
      "type": "function"
    },
    {
      "inputs": [
        {
          "internalType": "uint256",
          "name": "_amount",
          "type": "uint256"
        }
      ],
      "name": "stake1Year",
      "outputs": [],
      "stateMutability": "nonpayable",
      "type": "function"
    },
    {
      "inputs": [
        {
          "internalType": "uint256",
          "name": "_amount",
          "type": "uint256"
        }
      ],
      "name": "stake7Days",
      "outputs": [],
      "stateMutability": "nonpayable",
      "type": "function"
    },
    {
      "inputs": [
        {
          "internalType": "address",
          "name": "",
          "type": "address"
        }
      ],
      "name": "stakes1Year",
      "outputs": [
        {
          "internalType": "uint256",
          "name": "amount",
          "type": "uint256"
        },
        {
          "internalType": "uint256",
          "name": "since",
          "type": "uint256"
        },
        {
          "internalType": "uint256",
          "name": "unlockRequestTime",
          "type": "uint256"
        },
        {
          "internalType": "bool",
          "name": "isLocked",
          "type": "bool"
        }
      ],
      "stateMutability": "view",
      "type": "function"
    },
    {
      "inputs": [
        {
          "internalType": "address",
          "name": "",
          "type": "address"
        }
      ],
      "name": "stakes7Days",
      "outputs": [
        {
          "internalType": "uint256",
          "name": "amount",
          "type": "uint256"
        },
        {
          "internalType": "uint256",
          "name": "since",
          "type": "uint256"
        },
        {
          "internalType": "uint256",
          "name": "unlockRequestTime",
          "type": "uint256"
        },
        {
          "internalType": "bool",
          "name": "isLocked",
          "type": "bool"
        }
      ],
      "stateMutability": "view",
      "type": "function"
    },
    {
      "inputs": [
        {
          "internalType": "address",
          "name": "",
          "type": "address"
        }
      ],
      "name": "stakingStats1Year",
      "outputs": [
        {
          "internalType": "uint256",
          "name": "totalStaked",
          "type": "uint256"
        },
        {
          "internalType": "uint256",
          "name": "totalCompounded",
          "type": "uint256"
        },
        {
          "internalType": "uint256",
          "name": "totalWithdrawn",
          "type": "uint256"
        },
        {
          "internalType": "uint256",
          "name": "currentPendingRewards",
          "type": "uint256"
        }
      ],
      "stateMutability": "view",
      "type": "function"
    },
    {
      "inputs": [
        {
          "internalType": "address",
          "name": "",
          "type": "address"
        }
      ],
      "name": "stakingStats7Days",
      "outputs": [
        {
          "internalType": "uint256",
          "name": "totalStaked",
          "type": "uint256"
        },
        {
          "internalType": "uint256",
          "name": "totalCompounded",
          "type": "uint256"
        },
        {
          "internalType": "uint256",
          "name": "totalWithdrawn",
          "type": "uint256"
        },
        {
          "internalType": "uint256",
          "name": "currentPendingRewards",
          "type": "uint256"
        }
      ],
      "stateMutability": "view",
      "type": "function"
    },
    {
      "inputs": [
        {
          "internalType": "bytes4",
          "name": "interfaceId",
          "type": "bytes4"
        }
      ],
      "name": "supportsInterface",
      "outputs": [
        {
          "internalType": "bool",
          "name": "",
          "type": "bool"
        }
      ],
      "stateMutability": "view",
      "type": "function"
    },
    {
      "inputs": [],
      "name": "token",
      "outputs": [
        {
          "internalType": "contract MoonCatToken",
          "name": "",
          "type": "address"
        }
      ],
      "stateMutability": "view",
      "type": "function"
    },
    {
      "inputs": [],
      "name": "unpause",
      "outputs": [],
      "stateMutability": "nonpayable",
      "type": "function"
    },
    {
      "inputs": [],
      "name": "unstake1Year",
      "outputs": [],
      "stateMutability": "nonpayable",
      "type": "function"
    },
    {
      "inputs": [],
      "name": "unstake7Days",
      "outputs": [],
      "stateMutability": "nonpayable",
      "type": "function"
    },
    {
      "inputs": [],
      "name": "withdrawAllInterest",
      "outputs": [],
      "stateMutability": "nonpayable",
      "type": "function"
    }
  ],
  "bytecode": "0x60a06040526103e8600a5534801561001657600080fd5b5060405161528238038061528283398181016040528101906100389190610378565b60016000819055506000600260006101000a81548160ff021916908315150217905550600073ffffffffffffffffffffffffffffffffffffffff168173ffffffffffffffffffffffffffffffffffffffff16036100ca576040517f08c379a00000000000000000000000000000000000000000000000000000000081526004016100c190610402565b60405180910390fd5b8073ffffffffffffffffffffffffffffffffffffffff1660808173ffffffffffffffffffffffffffffffffffffffff16815250506101116000801b3361019360201b60201c565b506101427f7935bd0ae54bc31f548c14dba4d37c5c64b3f8ca900cb468fb8abd54d5894f553361019360201b60201c565b506101737f65d7a28e3265b37a6474929f336521b332c1681b933f6cb9f3376673440d862a3361019360201b60201c565b5061027a6007819055506103bf60088190555042600b8190555050610422565b60006101a5838361029060201b60201c565b61028557600180600085815260200190815260200160002060000160008473ffffffffffffffffffffffffffffffffffffffff1673ffffffffffffffffffffffffffffffffffffffff16815260200190815260200160002060006101000a81548160ff0219169083151502179055506102226102fb60201b60201c565b73ffffffffffffffffffffffffffffffffffffffff168273ffffffffffffffffffffffffffffffffffffffff16847f2f8788117e7eff1d82e926ec794901d17c78024a50270940304540a733656f0d60405160405180910390a46001905061028a565b600090505b92915050565b60006001600084815260200190815260200160002060000160008373ffffffffffffffffffffffffffffffffffffffff1673ffffffffffffffffffffffffffffffffffffffff16815260200190815260200160002060009054906101000a900460ff16905092915050565b600033905090565b600080fd5b600073ffffffffffffffffffffffffffffffffffffffff82169050919050565b600061033382610308565b9050919050565b600061034582610328565b9050919050565b6103558161033a565b811461036057600080fd5b50565b6000815190506103728161034c565b92915050565b60006020828403121561038e5761038d610303565b5b600061039c84828501610363565b91505092915050565b600082825260208201905092915050565b7f546f6b656e2063616e6e6f74206265207a65726f206164647265737300000000600082015250565b60006103ec601c836103a5565b91506103f7826103b6565b602082019050919050565b6000602082019050818103600083015261041b816103df565b9050919050565b608051614e0d61047560003960008181610c9d01528181611a4001528181611dfe015281816120970152818161289c01528181612c3d0152818161322a0152818161353b01526136c60152614e0d6000f3fe608060405234801561001057600080fd5b50600436106102d65760003560e01c806378a95e0711610182578063ccc57490116100e9578063dd847c88116100a2578063e63ab1e91161007c578063e63ab1e91461086a578063e697028814610888578063fb30eba814610892578063fc0c546a146108c5576102d6565b8063dd847c88146107e6578063df91219514610819578063e1f1c4a71461084c576102d6565b8063ccc5749014610745578063cda01fc314610763578063d547741f1461076d578063da71ae7914610789578063db0794db146107a7578063db2e21bc146107dc576102d6565b8063a217fddf1161013b578063a217fddf146106cd578063ba3f1b59146106eb578063bb9287ad146106f5578063c513b600146106ff578063c541f8391461071d578063c5b1c7d01461073b576102d6565b806378a95e07146105f55780638456cb591461061357806386c39df41461061d57806391d1485414610639578063935feabe146106695780639a71d6c414610699576102d6565b80632f92f1f21161024157806356e586ba116101fa578063690cc599116101d4578063690cc599146105915780636abcc092146105af5780636d3995c5146105cd5780636eaa7ba2146105d7576102d6565b806356e586ba1461054b5780635c975abb1461056957806364f4793314610587576102d6565b80632f92f1f21461049d578063324d5d4a146104bb57806336568abe146104eb5780633f4ba83a1461050757806349730fc1146105115780634cdcc9f11461052f576102d6565b806311268f4d1161029357806311268f4d146103ca5780631532d0ba146103fb578063187ff78d14610405578063248a9ca31461043557806329da3d93146104655780632f2ff15d14610481576102d6565b806301ffc9a7146102db578063058c83bd1461030b57806308520b861461033e5780630905f5601461035c5780630f544ac71461037a5780630f60370214610396575b600080fd5b6102f560048036038101906102f09190613e13565b6108e3565b6040516103029190613e5b565b60405180910390f35b61032560048036038101906103209190613ed4565b61095d565b6040516103359493929190613f1a565b60405180910390f35b61034661098d565b6040516103539190613f5f565b60405180910390f35b610364610993565b6040516103719190613e5b565b60405180910390f35b610394600480360381019061038f9190613fa6565b6109a6565b005b6103b060048036038101906103ab9190613ed4565b610e8e565b6040516103c1959493929190613fd3565b60405180910390f35b6103e460048036038101906103df9190613ed4565b610f50565b6040516103f292919061408a565b60405180910390f35b610403611187565b005b61041f600480360381019061041a91906141e9565b6113aa565b60405161042c9190613f5f565b60405180910390f35b61044f600480360381019061044a919061425f565b6114a4565b60405161045c919061429b565b60405180910390f35b61047f600480360381019061047a9190613fa6565b6114c4565b005b61049b600480360381019061049691906142b6565b611618565b005b6104a561163a565b6040516104b29190613f5f565b60405180910390f35b6104d560048036038101906104d091906142f6565b611648565b6040516104e29190613e5b565b60405180910390f35b610505600480360381019061050091906142b6565b611693565b005b61050f61170e565b005b610519611743565b6040516105269190613f5f565b60405180910390f35b61054960048036038101906105449190613fa6565b611749565b005b610553611c31565b6040516105609190613f5f565b60405180910390f35b610571611c37565b60405161057e9190613e5b565b60405180910390f35b61058f611c4e565b005b610599611f4a565b6040516105a69190613f5f565b60405180910390f35b6105b7611f50565b6040516105c49190613f5f565b60405180910390f35b6105d5611f56565b005b6105df6121e3565b6040516105ec9190613f5f565b60405180910390f35b6105fd6121ea565b60405161060a9190613f5f565b60405180910390f35b61061b6121f1565b005b61063760048036038101906106329190613fa6565b612226565b005b610653600480360381019061064e91906142b6565b61237a565b6040516106609190613e5b565b60405180910390f35b610683600480360381019061067e9190614336565b6123e5565b6040516106909190613f5f565b60405180910390f35b6106b360048036038101906106ae9190613ed4565b612524565b6040516106c4959493929190613fd3565b60405180910390f35b6106d56125e6565b6040516106e2919061429b565b60405180910390f35b6106f36125ed565b005b6106fd612810565b005b6107076129e6565b6040516107149190613f5f565b60405180910390f35b6107256129ec565b6040516107329190613f5f565b60405180910390f35b6107436129f4565b005b61074d612a6a565b60405161075a919061429b565b60405180910390f35b61076b612a8e565b005b610787600480360381019061078291906142b6565b612d89565b005b610791612dab565b60405161079e9190613f5f565b60405180910390f35b6107c160048036038101906107bc9190614336565b612db1565b6040516107d396959493929190614376565b60405180910390f35b6107e4612f5f565b005b61080060048036038101906107fb9190613ed4565b613363565b60405161081094939291906143d7565b60405180910390f35b610833600480360381019061082e9190613ed4565b6133a0565b6040516108439493929190613f1a565b60405180910390f35b6108546133d0565b6040516108619190613f5f565b60405180910390f35b6108726133d6565b60405161087f919061429b565b60405180910390f35b6108906133fa565b005b6108ac60048036038101906108a79190613ed4565b613687565b6040516108bc94939291906143d7565b60405180910390f35b6108cd6136c4565b6040516108da919061447b565b60405180910390f35b60007f7965db0b000000000000000000000000000000000000000000000000000000007bffffffffffffffffffffffffffffffffffffffffffffffffffffffff1916827bffffffffffffffffffffffffffffffffffffffffffffffffffffffff191614806109565750610955826136e8565b5b9050919050565b60066020528060005260406000206000915090508060000154908060010154908060020154908060030154905084565b600a5481565b600960009054906101000a900460ff1681565b6109ae613752565b6109b6613798565b600081116109f9576040517f08c379a00000000000000000000000000000000000000000000000000000000081526004016109f0906144f3565b60405180910390fd5b69d3c21bcecceda1000000811115610a46576040517f08c379a0000000000000000000000000000000000000000000000000000000008152600401610a3d9061455f565b60405180910390fd5b69d3c21bcecceda100000081600360003373ffffffffffffffffffffffffffffffffffffffff1673ffffffffffffffffffffffffffffffffffffffff16815260200190815260200160002060000154610a9f91906145ae565b1115610ae0576040517f08c379a0000000000000000000000000000000000000000000000000000000008152600401610ad79061462e565b60405180910390fd5b6000600360003373ffffffffffffffffffffffffffffffffffffffff1673ffffffffffffffffffffffffffffffffffffffff168152602001908152602001600020905060008160000154118015610b4557508060030160009054906101000a900460ff165b15610c9b576000816000015490506000610ba5836040518060800160405290816000820154815260200160018201548152602001600282015481526020016003820160009054906101000a900460ff1615151515815250506007546113aa565b905080836000016000828254610bbb91906145ae565b925050819055504283600101819055506000811115610c985780600560003373ffffffffffffffffffffffffffffffffffffffff1673ffffffffffffffffffffffffffffffffffffffff1681526020019081526020016000206001016000828254610c2691906145ae565b92505081905550604051610c39906146a5565b60405180910390203373ffffffffffffffffffffffffffffffffffffffff167f7bdaaefb6d3f467f6801b8f10e62f3ad80c945b1770ecb80fdce030e2599fa7084848760000154604051610c8f939291906146ba565b60405180910390a35b50505b7f000000000000000000000000000000000000000000000000000000000000000073ffffffffffffffffffffffffffffffffffffffff166323b872dd3330856040518463ffffffff1660e01b8152600401610cf893929190614700565b6020604051808303816000875af1158015610d17573d6000803e3d6000fd5b505050506040513d601f19601f82011682018060405250810190610d3b919061474c565b610d7a576040517f08c379a0000000000000000000000000000000000000000000000000000000008152600401610d71906147c5565b60405180910390fd5b81816000016000828254610d8e91906145ae565b9250508190555042816001018190555060018160030160006101000a81548160ff0219169083151502179055506000816002018190555081600560003373ffffffffffffffffffffffffffffffffffffffff1673ffffffffffffffffffffffffffffffffffffffff1681526020019081526020016000206000016000828254610e1791906145ae565b92505081905550604051610e2a906146a5565b60405180910390203373ffffffffffffffffffffffffffffffffffffffff167f66d612d12bb1902ec26fd9a4991d9d58d71d0580427497d62731e7527f1e01a48442604051610e7a9291906147e5565b60405180910390a350610e8b6137d9565b50565b600080600080600080600360008873ffffffffffffffffffffffffffffffffffffffff1673ffffffffffffffffffffffffffffffffffffffff1681526020019081526020016000206040518060800160405290816000820154815260200160018201548152602001600282015481526020016003820160009054906101000a900460ff16151515158152505090508060000151610f2d826007546113aa565b826060015183604001518460200151955095509550955095505091939590929450565b610f58613d84565b610f60613d84565b600560008473ffffffffffffffffffffffffffffffffffffffff1673ffffffffffffffffffffffffffffffffffffffff1681526020019081526020016000206040518060800160405290816000820154815260200160018201548152602001600282015481526020016003820154815250509150600660008473ffffffffffffffffffffffffffffffffffffffff1673ffffffffffffffffffffffffffffffffffffffff16815260200190815260200160002060405180608001604052908160008201548152602001600182015481526020016002820154815260200160038201548152505090506000600360008573ffffffffffffffffffffffffffffffffffffffff1673ffffffffffffffffffffffffffffffffffffffff1681526020019081526020016000206040518060800160405290816000820154815260200160018201548152602001600282015481526020016003820160009054906101000a900460ff16151515158152505090506000600460008673ffffffffffffffffffffffffffffffffffffffff1673ffffffffffffffffffffffffffffffffffffffff1681526020019081526020016000206040518060800160405290816000820154815260200160018201548152602001600282015481526020016003820160009054906101000a900460ff1615151515815250509050611162826007546113aa565b846060018181525050611177816008546113aa565b8360600181815250505050915091565b61118f613798565b6000600460003373ffffffffffffffffffffffffffffffffffffffff1673ffffffffffffffffffffffffffffffffffffffff16815260200190815260200160002090506000816000015411611219576040517f08c379a00000000000000000000000000000000000000000000000000000000081526004016112109061485a565b60405180910390fd5b6000816002015414611260576040517f08c379a0000000000000000000000000000000000000000000000000000000008152600401611257906148c6565b60405180910390fd5b60006112b2826040518060800160405290816000820154815260200160018201548152602001600282015481526020016003820160009054906101000a900460ff1615151515815250506008546113aa565b9050600081111561133257808260000160008282546112d191906145ae565b9250508190555080600660003373ffffffffffffffffffffffffffffffffffffffff1673ffffffffffffffffffffffffffffffffffffffff168152602001908152602001600020600101600082825461132a91906145ae565b925050819055505b42826001018190555042826002018190555060405161135090614932565b60405180910390203373ffffffffffffffffffffffffffffffffffffffff167faf1e05ce41cdb4bdc4f23bff459f1b9173663f6a49fcf52898845f8d659068864260405161139e9190613f5f565b60405180910390a35050565b600080836000015114806113c057508260600151155b156113ce576000905061149e565b6000808460400151111561144457600060075484146113f1576301e133806113f6565b62093a805b9050600081866040015161140a91906145ae565b905080421061142a578560200151816114239190614947565b925061143d565b85602001514261143a9190614947565b92505b5050611457565b8360200151426114549190614947565b90505b60006301e133809050600081612710611470919061497b565b83868860000151611481919061497b565b61148b919061497b565b61149591906149ec565b90508093505050505b92915050565b600060016000838152602001908152602001600020600101549050919050565b7f7935bd0ae54bc31f548c14dba4d37c5c64b3f8ca900cb468fb8abd54d5894f556114ee816137e3565b6114f6613798565b61138882111561153b576040517f08c379a000000000000000000000000000000000000000000000000000000000815260040161153290614a69565b60405180910390fd5b6000600b541415801561155857506115566000801b3361237a565b155b156115b15762093a80600b5461156e91906145ae565b4210156115b0576040517f08c379a00000000000000000000000000000000000000000000000000000000081526004016115a790614ad5565b60405180910390fd5b5b600060075490508260078190555042600b819055506040516115d2906146a5565b60405180910390207f4451261fd4f7dbcc8fd7251b7a2f5501686e0ab7fad43ce240b0a0d60155eb6b828560405161160b9291906147e5565b60405180910390a2505050565b611621826114a4565b61162a816137e3565b61163483836137f7565b50505050565b69d3c21bcecceda100000081565b60008083604001510361165e576000905061168d565b60008261166f576301e13380611674565b62093a805b905080846040015161168691906145ae565b4210159150505b92915050565b61169b6138e8565b73ffffffffffffffffffffffffffffffffffffffff168173ffffffffffffffffffffffffffffffffffffffff16146116ff576040517f6697b23200000000000000000000000000000000000000000000000000000000815260040160405180910390fd5b61170982826138f0565b505050565b7f65d7a28e3265b37a6474929f336521b332c1681b933f6cb9f3376673440d862a611738816137e3565b6117406139e3565b50565b60075481565b611751613752565b611759613798565b6000811161179c576040517f08c379a0000000000000000000000000000000000000000000000000000000008152600401611793906144f3565b60405180910390fd5b69d3c21bcecceda10000008111156117e9576040517f08c379a00000000000000000000000000000000000000000000000000000000081526004016117e09061455f565b60405180910390fd5b69d3c21bcecceda100000081600460003373ffffffffffffffffffffffffffffffffffffffff1673ffffffffffffffffffffffffffffffffffffffff1681526020019081526020016000206000015461184291906145ae565b1115611883576040517f08c379a000000000000000000000000000000000000000000000000000000000815260040161187a9061462e565b60405180910390fd5b6000600460003373ffffffffffffffffffffffffffffffffffffffff1673ffffffffffffffffffffffffffffffffffffffff1681526020019081526020016000209050600081600001541180156118e857508060030160009054906101000a900460ff165b15611a3e576000816000015490506000611948836040518060800160405290816000820154815260200160018201548152602001600282015481526020016003820160009054906101000a900460ff1615151515815250506008546113aa565b90508083600001600082825461195e91906145ae565b925050819055504283600101819055506000811115611a3b5780600660003373ffffffffffffffffffffffffffffffffffffffff1673ffffffffffffffffffffffffffffffffffffffff16815260200190815260200160002060010160008282546119c991906145ae565b925050819055506040516119dc90614932565b60405180910390203373ffffffffffffffffffffffffffffffffffffffff167f7bdaaefb6d3f467f6801b8f10e62f3ad80c945b1770ecb80fdce030e2599fa7084848760000154604051611a32939291906146ba565b60405180910390a35b50505b7f000000000000000000000000000000000000000000000000000000000000000073ffffffffffffffffffffffffffffffffffffffff166323b872dd3330856040518463ffffffff1660e01b8152600401611a9b93929190614700565b6020604051808303816000875af1158015611aba573d6000803e3d6000fd5b505050506040513d601f19601f82011682018060405250810190611ade919061474c565b611b1d576040517f08c379a0000000000000000000000000000000000000000000000000000000008152600401611b14906147c5565b60405180910390fd5b81816000016000828254611b3191906145ae565b9250508190555042816001018190555060018160030160006101000a81548160ff0219169083151502179055506000816002018190555081600660003373ffffffffffffffffffffffffffffffffffffffff1673ffffffffffffffffffffffffffffffffffffffff1681526020019081526020016000206000016000828254611bba91906145ae565b92505081905550604051611bcd90614932565b60405180910390203373ffffffffffffffffffffffffffffffffffffffff167f66d612d12bb1902ec26fd9a4991d9d58d71d0580427497d62731e7527f1e01a48442604051611c1d9291906147e5565b60405180910390a350611c2e6137d9565b50565b6126ac81565b6000600260009054906101000a900460ff16905090565b611c56613752565b611c5e613798565b6000600460003373ffffffffffffffffffffffffffffffffffffffff1673ffffffffffffffffffffffffffffffffffffffff16815260200190815260200160002090506000816000015411611ce8576040517f08c379a0000000000000000000000000000000000000000000000000000000008152600401611cdf9061485a565b60405180910390fd5b6000816002015411611d2f576040517f08c379a0000000000000000000000000000000000000000000000000000000008152600401611d2690614b41565b60405180910390fd5b6301e133808160020154611d4391906145ae565b421015611d85576040517f08c379a0000000000000000000000000000000000000000000000000000000008152600401611d7c90614bad565b60405180910390fd5b600081600001549050600460003373ffffffffffffffffffffffffffffffffffffffff1673ffffffffffffffffffffffffffffffffffffffff168152602001908152602001600020600080820160009055600182016000905560028201600090556003820160006101000a81549060ff021916905550507f000000000000000000000000000000000000000000000000000000000000000073ffffffffffffffffffffffffffffffffffffffff1663a9059cbb33836040518363ffffffff1660e01b8152600401611e57929190614bcd565b6020604051808303816000875af1158015611e76573d6000803e3d6000fd5b505050506040513d601f19601f82011682018060405250810190611e9a919061474c565b611ed9576040517f08c379a0000000000000000000000000000000000000000000000000000000008152600401611ed0906147c5565b60405180910390fd5b604051611ee590614932565b60405180910390203373ffffffffffffffffffffffffffffffffffffffff167fd224ec5ad02946fe147952e6ad900ce0567e05d53bd64beb1b564a8c603d869c836000604051611f36929190614c31565b60405180910390a35050611f486137d9565b565b61138881565b60085481565b611f5e613752565b611f66613798565b6000600360003373ffffffffffffffffffffffffffffffffffffffff1673ffffffffffffffffffffffffffffffffffffffff16815260200190815260200160002090506000816000015411611ff0576040517f08c379a0000000000000000000000000000000000000000000000000000000008152600401611fe79061485a565b60405180910390fd5b60006127106113888360000154612007919061497b565b61201191906149ec565b905060008183600001546120259190614947565b9050600360003373ffffffffffffffffffffffffffffffffffffffff1673ffffffffffffffffffffffffffffffffffffffff168152602001908152602001600020600080820160009055600182016000905560028201600090556003820160006101000a81549060ff021916905550507f000000000000000000000000000000000000000000000000000000000000000073ffffffffffffffffffffffffffffffffffffffff1663a9059cbb33836040518363ffffffff1660e01b81526004016120f0929190614bcd565b6020604051808303816000875af115801561210f573d6000803e3d6000fd5b505050506040513d601f19601f82011682018060405250810190612133919061474c565b612172576040517f08c379a0000000000000000000000000000000000000000000000000000000008152600401612169906147c5565b60405180910390fd5b60405161217e906146a5565b60405180910390203373ffffffffffffffffffffffffffffffffffffffff167f07d8a820151595a9521ea31802fb99d26992342fa0127530e142ff352ccd6a7583856040516121ce9291906147e5565b60405180910390a35050506121e16137d9565b565b62093a8081565b62093a8081565b7f65d7a28e3265b37a6474929f336521b332c1681b933f6cb9f3376673440d862a61221b816137e3565b612223613a46565b50565b7f7935bd0ae54bc31f548c14dba4d37c5c64b3f8ca900cb468fb8abd54d5894f55612250816137e3565b612258613798565b6126ac82111561229d576040517f08c379a000000000000000000000000000000000000000000000000000000000815260040161229490614a69565b60405180910390fd5b6000600b54141580156122ba57506122b86000801b3361237a565b155b156123135762093a80600b546122d091906145ae565b421015612312576040517f08c379a000000000000000000000000000000000000000000000000000000000815260040161230990614ad5565b60405180910390fd5b5b600060085490508260088190555042600b8190555060405161233490614932565b60405180910390207f4451261fd4f7dbcc8fd7251b7a2f5501686e0ab7fad43ce240b0a0d60155eb6b828560405161236d9291906147e5565b60405180910390a2505050565b60006001600084815260200190815260200160002060000160008373ffffffffffffffffffffffffffffffffffffffff1673ffffffffffffffffffffffffffffffffffffffff16815260200190815260200160002060009054906101000a900460ff16905092915050565b6000808261243157600460008573ffffffffffffffffffffffffffffffffffffffff1673ffffffffffffffffffffffffffffffffffffffff168152602001908152602001600020612471565b600360008573ffffffffffffffffffffffffffffffffffffffff1673ffffffffffffffffffffffffffffffffffffffff1681526020019081526020016000205b6040518060800160405290816000820154815260200160018201548152602001600282015481526020016003820160009054906101000a900460ff161515151581525050905060008160400151036124cd57600091505061251e565b6000836124de576301e133806124e3565b62093a805b905060008183604001516124f791906145ae565b905080421061250c576000935050505061251e565b42816125189190614947565b93505050505b92915050565b600080600080600080600460008873ffffffffffffffffffffffffffffffffffffffff1673ffffffffffffffffffffffffffffffffffffffff1681526020019081526020016000206040518060800160405290816000820154815260200160018201548152602001600282015481526020016003820160009054906101000a900460ff161515151581525050905080600001516125c3826008546113aa565b826060015183604001518460200151955095509550955095505091939590929450565b6000801b81565b6125f5613798565b6000600360003373ffffffffffffffffffffffffffffffffffffffff1673ffffffffffffffffffffffffffffffffffffffff1681526020019081526020016000209050600081600001541161267f576040517f08c379a00000000000000000000000000000000000000000000000000000000081526004016126769061485a565b60405180910390fd5b60008160020154146126c6576040517f08c379a00000000000000000000000000000000000000000000000000000000081526004016126bd906148c6565b60405180910390fd5b6000612718826040518060800160405290816000820154815260200160018201548152602001600282015481526020016003820160009054906101000a900460ff1615151515815250506007546113aa565b90506000811115612798578082600001600082825461273791906145ae565b9250508190555080600560003373ffffffffffffffffffffffffffffffffffffffff1673ffffffffffffffffffffffffffffffffffffffff168152602001908152602001600020600101600082825461279091906145ae565b925050819055505b4282600101819055504282600201819055506040516127b6906146a5565b60405180910390203373ffffffffffffffffffffffffffffffffffffffff167faf1e05ce41cdb4bdc4f23bff459f1b9173663f6a49fcf52898845f8d65906886426040516128049190613f5f565b60405180910390a35050565b612818613752565b612820613798565b60008061282c33613aa9565b9050808261283a91906145ae565b9150600061284733613bce565b9050808361285591906145ae565b92506000831161289a576040517f08c379a000000000000000000000000000000000000000000000000000000000815260040161289190614ca6565b60405180910390fd5b7f000000000000000000000000000000000000000000000000000000000000000073ffffffffffffffffffffffffffffffffffffffff1663a9059cbb33856040518363ffffffff1660e01b81526004016128f5929190614bcd565b6020604051808303816000875af1158015612914573d6000803e3d6000fd5b505050506040513d601f19601f82011682018060405250810190612938919061474c565b612977576040517f08c379a000000000000000000000000000000000000000000000000000000000815260040161296e906147c5565b60405180910390fd5b60405161298390614d12565b60405180910390203373ffffffffffffffffffffffffffffffffffffffff167f763d906f989b508baa591b85de06a2ce96a1335d3064e5477fe743df43a30b45856040516129d19190613f5f565b60405180910390a35050506129e46137d9565b565b61138881565b6301e1338081565b6000801b612a01816137e3565b6001600960006101000a81548160ff021916908315150217905550612a24613a46565b3373ffffffffffffffffffffffffffffffffffffffff167fc0a1c7e9f05b4d536e1ff8606bae9b847cdb43ef4a9b2d7a503a88cee08dccdb60405160405180910390a250565b7f7935bd0ae54bc31f548c14dba4d37c5c64b3f8ca900cb468fb8abd54d5894f5581565b612a96613752565b612a9e613798565b6000600360003373ffffffffffffffffffffffffffffffffffffffff1673ffffffffffffffffffffffffffffffffffffffff16815260200190815260200160002090506000816000015411612b28576040517f08c379a0000000000000000000000000000000000000000000000000000000008152600401612b1f9061485a565b60405180910390fd5b6000816002015411612b6f576040517f08c379a0000000000000000000000000000000000000000000000000000000008152600401612b6690614b41565b60405180910390fd5b62093a808160020154612b8291906145ae565b421015612bc4576040517f08c379a0000000000000000000000000000000000000000000000000000000008152600401612bbb90614bad565b60405180910390fd5b600081600001549050600360003373ffffffffffffffffffffffffffffffffffffffff1673ffffffffffffffffffffffffffffffffffffffff168152602001908152602001600020600080820160009055600182016000905560028201600090556003820160006101000a81549060ff021916905550507f000000000000000000000000000000000000000000000000000000000000000073ffffffffffffffffffffffffffffffffffffffff1663a9059cbb33836040518363ffffffff1660e01b8152600401612c96929190614bcd565b6020604051808303816000875af1158015612cb5573d6000803e3d6000fd5b505050506040513d601f19601f82011682018060405250810190612cd9919061474c565b612d18576040517f08c379a0000000000000000000000000000000000000000000000000000000008152600401612d0f906147c5565b60405180910390fd5b604051612d24906146a5565b60405180910390203373ffffffffffffffffffffffffffffffffffffffff167fd224ec5ad02946fe147952e6ad900ce0567e05d53bd64beb1b564a8c603d869c836000604051612d75929190614c31565b60405180910390a35050612d876137d9565b565b612d92826114a4565b612d9b816137e3565b612da583836138f0565b50505050565b600b5481565b600080600080600080600087612e0557600460008a73ffffffffffffffffffffffffffffffffffffffff1673ffffffffffffffffffffffffffffffffffffffff168152602001908152602001600020612e45565b600360008a73ffffffffffffffffffffffffffffffffffffffff1673ffffffffffffffffffffffffffffffffffffffff1681526020019081526020016000205b6040518060800160405290816000820154815260200160018201548152602001600282015481526020016003820160009054906101000a900460ff1615151515815250509050600088612e9a57600854612e9e565b6007545b905060008083604001511115612f125760008a612ebf576301e13380612ec4565b62093a805b90506000818560400151612ed891906145ae565b9050804210612ef857846020015181612ef19190614947565b9250612f0b565b846020015142612f089190614947565b92505b5050612f25565b826020015142612f229190614947565b90505b6000612f3184846113aa565b9050836000015182848387606001518860400151995099509950995099509950505050509295509295509295565b612f67613752565b600960009054906101000a900460ff16612fb6576040517f08c379a0000000000000000000000000000000000000000000000000000000008152600401612fad90614d73565b60405180910390fd5b6000806000600360003373ffffffffffffffffffffffffffffffffffffffff1673ffffffffffffffffffffffffffffffffffffffff16815260200190815260200160002090506000816000015411156130cf576000816000015490506000612710600a5483613025919061497b565b61302f91906149ec565b90506000818361303f9190614947565b9050808661304d91906145ae565b9550818561305b91906145ae565b9450600360003373ffffffffffffffffffffffffffffffffffffffff1673ffffffffffffffffffffffffffffffffffffffff168152602001908152602001600020600080820160009055600182016000905560028201600090556003820160006101000a81549060ff021916905550505050505b6000600460003373ffffffffffffffffffffffffffffffffffffffff1673ffffffffffffffffffffffffffffffffffffffff16815260200190815260200160002090506000816000015411156131e5576000816000015490506000612710600a548361313b919061497b565b61314591906149ec565b9050600081836131559190614947565b9050808761316391906145ae565b9650818661317191906145ae565b9550600460003373ffffffffffffffffffffffffffffffffffffffff1673ffffffffffffffffffffffffffffffffffffffff168152602001908152602001600020600080820160009055600182016000905560028201600090556003820160006101000a81549060ff021916905550505050505b60008411613228576040517f08c379a000000000000000000000000000000000000000000000000000000000815260040161321f9061485a565b60405180910390fd5b7f000000000000000000000000000000000000000000000000000000000000000073ffffffffffffffffffffffffffffffffffffffff1663a9059cbb33866040518363ffffffff1660e01b8152600401613283929190614bcd565b6020604051808303816000875af11580156132a2573d6000803e3d6000fd5b505050506040513d601f19601f820116820180604052508101906132c6919061474c565b613305576040517f08c379a00000000000000000000000000000000000000000000000000000000081526004016132fc906147c5565b60405180910390fd5b3373ffffffffffffffffffffffffffffffffffffffff167fbb757047c2b5f3974fe26b7c10f732e7bce710b0952a71082702781e62ae0595858560405161334d9291906147e5565b60405180910390a2505050506133616137d9565b565b60046020528060005260406000206000915090508060000154908060010154908060020154908060030160009054906101000a900460ff16905084565b60056020528060005260406000206000915090508060000154908060010154908060020154908060030154905084565b61271081565b7f65d7a28e3265b37a6474929f336521b332c1681b933f6cb9f3376673440d862a81565b613402613752565b61340a613798565b6000600460003373ffffffffffffffffffffffffffffffffffffffff1673ffffffffffffffffffffffffffffffffffffffff16815260200190815260200160002090506000816000015411613494576040517f08c379a000000000000000000000000000000000000000000000000000000000815260040161348b9061485a565b60405180910390fd5b600061271061138883600001546134ab919061497b565b6134b591906149ec565b905060008183600001546134c99190614947565b9050600460003373ffffffffffffffffffffffffffffffffffffffff1673ffffffffffffffffffffffffffffffffffffffff168152602001908152602001600020600080820160009055600182016000905560028201600090556003820160006101000a81549060ff021916905550507f000000000000000000000000000000000000000000000000000000000000000073ffffffffffffffffffffffffffffffffffffffff1663a9059cbb33836040518363ffffffff1660e01b8152600401613594929190614bcd565b6020604051808303816000875af11580156135b3573d6000803e3d6000fd5b505050506040513d601f19601f820116820180604052508101906135d7919061474c565b613616576040517f08c379a000000000000000000000000000000000000000000000000000000000815260040161360d906147c5565b60405180910390fd5b60405161362290614932565b60405180910390203373ffffffffffffffffffffffffffffffffffffffff167f07d8a820151595a9521ea31802fb99d26992342fa0127530e142ff352ccd6a7583856040516136729291906147e5565b60405180910390a35050506136856137d9565b565b60036020528060005260406000206000915090508060000154908060010154908060020154908060030160009054906101000a900460ff16905084565b7f000000000000000000000000000000000000000000000000000000000000000081565b60007f01ffc9a7000000000000000000000000000000000000000000000000000000007bffffffffffffffffffffffffffffffffffffffffffffffffffffffff1916827bffffffffffffffffffffffffffffffffffffffffffffffffffffffff1916149050919050565b60026000540361378e576040517f3ee5aeb500000000000000000000000000000000000000000000000000000000815260040160405180910390fd5b6002600081905550565b6137a0611c37565b156137d7576040517fd93c066500000000000000000000000000000000000000000000000000000000815260040160405180910390fd5b565b6001600081905550565b6137f4816137ef6138e8565b613cf3565b50565b6000613803838361237a565b6138dd57600180600085815260200190815260200160002060000160008473ffffffffffffffffffffffffffffffffffffffff1673ffffffffffffffffffffffffffffffffffffffff16815260200190815260200160002060006101000a81548160ff02191690831515021790555061387a6138e8565b73ffffffffffffffffffffffffffffffffffffffff168273ffffffffffffffffffffffffffffffffffffffff16847f2f8788117e7eff1d82e926ec794901d17c78024a50270940304540a733656f0d60405160405180910390a4600190506138e2565b600090505b92915050565b600033905090565b60006138fc838361237a565b156139d85760006001600085815260200190815260200160002060000160008473ffffffffffffffffffffffffffffffffffffffff1673ffffffffffffffffffffffffffffffffffffffff16815260200190815260200160002060006101000a81548160ff0219169083151502179055506139756138e8565b73ffffffffffffffffffffffffffffffffffffffff168273ffffffffffffffffffffffffffffffffffffffff16847ff6391f5c32d9c69d2a47ea670b442974b53935d1edc7fd64eb21e047a839171b60405160405180910390a4600190506139dd565b600090505b92915050565b6139eb613d44565b6000600260006101000a81548160ff0219169083151502179055507f5db9ee0a495bf2e6ff9c91a7834c1ba4fdd244a5e8aa4e537bd38aeae4b073aa613a2f6138e8565b604051613a3c9190614d93565b60405180910390a1565b613a4e613798565b6001600260006101000a81548160ff0219169083151502179055507f62e78cea01bee320cd4e420270b5ea74000d11b0c9f74754ebdbfc544b05a258613a926138e8565b604051613a9f9190614d93565b60405180910390a1565b600080600360008473ffffffffffffffffffffffffffffffffffffffff1673ffffffffffffffffffffffffffffffffffffffff16815260200190815260200160002090506000816000015403613b03576000915050613bc9565b6000613b55826040518060800160405290816000820154815260200160018201548152602001600282015481526020016003820160009054906101000a900460ff1615151515815250506007546113aa565b90506000811115613bc35742826001018190555080600560008673ffffffffffffffffffffffffffffffffffffffff1673ffffffffffffffffffffffffffffffffffffffff1681526020019081526020016000206002016000828254613bbb91906145ae565b925050819055505b80925050505b919050565b600080600460008473ffffffffffffffffffffffffffffffffffffffff1673ffffffffffffffffffffffffffffffffffffffff16815260200190815260200160002090506000816000015403613c28576000915050613cee565b6000613c7a826040518060800160405290816000820154815260200160018201548152602001600282015481526020016003820160009054906101000a900460ff1615151515815250506008546113aa565b90506000811115613ce85742826001018190555080600660008673ffffffffffffffffffffffffffffffffffffffff1673ffffffffffffffffffffffffffffffffffffffff1681526020019081526020016000206002016000828254613ce091906145ae565b925050819055505b80925050505b919050565b613cfd828261237a565b613d405780826040517fe2517d3f000000000000000000000000000000000000000000000000000000008152600401613d37929190614dae565b60405180910390fd5b5050565b613d4c611c37565b613d82576040517f8dfc202b00000000000000000000000000000000000000000000000000000000815260040160405180910390fd5b565b6040518060800160405280600081526020016000815260200160008152602001600081525090565b6000604051905090565b600080fd5b60007fffffffff0000000000000000000000000000000000000000000000000000000082169050919050565b613df081613dbb565b8114613dfb57600080fd5b50565b600081359050613e0d81613de7565b92915050565b600060208284031215613e2957613e28613db6565b5b6000613e3784828501613dfe565b91505092915050565b60008115159050919050565b613e5581613e40565b82525050565b6000602082019050613e706000830184613e4c565b92915050565b600073ffffffffffffffffffffffffffffffffffffffff82169050919050565b6000613ea182613e76565b9050919050565b613eb181613e96565b8114613ebc57600080fd5b50565b600081359050613ece81613ea8565b92915050565b600060208284031215613eea57613ee9613db6565b5b6000613ef884828501613ebf565b91505092915050565b6000819050919050565b613f1481613f01565b82525050565b6000608082019050613f2f6000830187613f0b565b613f3c6020830186613f0b565b613f496040830185613f0b565b613f566060830184613f0b565b95945050505050565b6000602082019050613f746000830184613f0b565b92915050565b613f8381613f01565b8114613f8e57600080fd5b50565b600081359050613fa081613f7a565b92915050565b600060208284031215613fbc57613fbb613db6565b5b6000613fca84828501613f91565b91505092915050565b600060a082019050613fe86000830188613f0b565b613ff56020830187613f0b565b6140026040830186613e4c565b61400f6060830185613f0b565b61401c6080830184613f0b565b9695505050505050565b61402f81613f01565b82525050565b60808201600082015161404b6000850182614026565b50602082015161405e6020850182614026565b5060408201516140716040850182614026565b5060608201516140846060850182614026565b50505050565b6000610100820190506140a06000830185614035565b6140ad6080830184614035565b9392505050565b600080fd5b6000601f19601f8301169050919050565b7f4e487b7100000000000000000000000000000000000000000000000000000000600052604160045260246000fd5b614102826140b9565b810181811067ffffffffffffffff82111715614121576141206140ca565b5b80604052505050565b6000614134613dac565b905061414082826140f9565b919050565b61414e81613e40565b811461415957600080fd5b50565b60008135905061416b81614145565b92915050565b600060808284031215614187576141866140b4565b5b614191608061412a565b905060006141a184828501613f91565b60008301525060206141b584828501613f91565b60208301525060406141c984828501613f91565b60408301525060606141dd8482850161415c565b60608301525092915050565b60008060a08385031215614200576141ff613db6565b5b600061420e85828601614171565b925050608061421f85828601613f91565b9150509250929050565b6000819050919050565b61423c81614229565b811461424757600080fd5b50565b60008135905061425981614233565b92915050565b60006020828403121561427557614274613db6565b5b60006142838482850161424a565b91505092915050565b61429581614229565b82525050565b60006020820190506142b0600083018461428c565b92915050565b600080604083850312156142cd576142cc613db6565b5b60006142db8582860161424a565b92505060206142ec85828601613ebf565b9150509250929050565b60008060a0838503121561430d5761430c613db6565b5b600061431b85828601614171565b925050608061432c8582860161415c565b9150509250929050565b6000806040838503121561434d5761434c613db6565b5b600061435b85828601613ebf565b925050602061436c8582860161415c565b9150509250929050565b600060c08201905061438b6000830189613f0b565b6143986020830188613f0b565b6143a56040830187613f0b565b6143b26060830186613f0b565b6143bf6080830185613e4c565b6143cc60a0830184613f0b565b979650505050505050565b60006080820190506143ec6000830187613f0b565b6143f96020830186613f0b565b6144066040830185613f0b565b6144136060830184613e4c565b95945050505050565b6000819050919050565b600061444161443c61443784613e76565b61441c565b613e76565b9050919050565b600061445382614426565b9050919050565b600061446582614448565b9050919050565b6144758161445a565b82525050565b6000602082019050614490600083018461446c565b92915050565b600082825260208201905092915050565b7f43616e6e6f74207374616b652030000000000000000000000000000000000000600082015250565b60006144dd600e83614496565b91506144e8826144a7565b602082019050919050565b6000602082019050818103600083015261450c816144d0565b9050919050565b7f416d6f756e742065786365656473206d6178696d756d00000000000000000000600082015250565b6000614549601683614496565b915061455482614513565b602082019050919050565b600060208201905081810360008301526145788161453c565b9050919050565b7f4e487b7100000000000000000000000000000000000000000000000000000000600052601160045260246000fd5b60006145b982613f01565b91506145c483613f01565b92508282019050808211156145dc576145db61457f565b5b92915050565b7f546f74616c20776f756c6420657863656564206d6178696d756d000000000000600082015250565b6000614618601a83614496565b9150614623826145e2565b602082019050919050565b600060208201905081810360008301526146478161460b565b9050919050565b600081905092915050565b7f372d446179000000000000000000000000000000000000000000000000000000600082015250565b600061468f60058361464e565b915061469a82614659565b600582019050919050565b60006146b082614682565b9150819050919050565b60006060820190506146cf6000830186613f0b565b6146dc6020830185613f0b565b6146e96040830184613f0b565b949350505050565b6146fa81613e96565b82525050565b600060608201905061471560008301866146f1565b61472260208301856146f1565b61472f6040830184613f0b565b949350505050565b60008151905061474681614145565b92915050565b60006020828403121561476257614761613db6565b5b600061477084828501614737565b91505092915050565b7f5472616e73666572206661696c65640000000000000000000000000000000000600082015250565b60006147af600f83614496565b91506147ba82614779565b602082019050919050565b600060208201905081810360008301526147de816147a2565b9050919050565b60006040820190506147fa6000830185613f0b565b6148076020830184613f0b565b9392505050565b7f4e6f207374616b6520666f756e64000000000000000000000000000000000000600082015250565b6000614844600e83614496565b915061484f8261480e565b602082019050919050565b6000602082019050818103600083015261487381614837565b9050919050565b7f416c726561647920756e6c6f636b696e67000000000000000000000000000000600082015250565b60006148b0601183614496565b91506148bb8261487a565b602082019050919050565b600060208201905081810360008301526148df816148a3565b9050919050565b7f312d596561720000000000000000000000000000000000000000000000000000600082015250565b600061491c60068361464e565b9150614927826148e6565b600682019050919050565b600061493d8261490f565b9150819050919050565b600061495282613f01565b915061495d83613f01565b92508282039050818111156149755761497461457f565b5b92915050565b600061498682613f01565b915061499183613f01565b925082820261499f81613f01565b915082820484148315176149b6576149b561457f565b5b5092915050565b7f4e487b7100000000000000000000000000000000000000000000000000000000600052601260045260246000fd5b60006149f782613f01565b9150614a0283613f01565b925082614a1257614a116149bd565b5b828204905092915050565b7f5261746520746f6f206869676800000000000000000000000000000000000000600082015250565b6000614a53600d83614496565b9150614a5e82614a1d565b602082019050919050565b60006020820190508181036000830152614a8281614a46565b9050919050565b7f52617465206368616e676520746f6f20736f6f6e000000000000000000000000600082015250565b6000614abf601483614496565b9150614aca82614a89565b602082019050919050565b60006020820190508181036000830152614aee81614ab2565b9050919050565b7f556e6c6f636b206e6f7420726571756573746564000000000000000000000000600082015250565b6000614b2b601483614496565b9150614b3682614af5565b602082019050919050565b60006020820190508181036000830152614b5a81614b1e565b9050919050565b7f5374696c6c206c6f636b65640000000000000000000000000000000000000000600082015250565b6000614b97600c83614496565b9150614ba282614b61565b602082019050919050565b60006020820190508181036000830152614bc681614b8a565b9050919050565b6000604082019050614be260008301856146f1565b614bef6020830184613f0b565b9392505050565b6000819050919050565b6000614c1b614c16614c1184614bf6565b61441c565b613f01565b9050919050565b614c2b81614c00565b82525050565b6000604082019050614c466000830185613f0b565b614c536020830184614c22565b9392505050565b7f4e6f207265776172647320617661696c61626c65000000000000000000000000600082015250565b6000614c90601483614496565b9150614c9b82614c5a565b602082019050919050565b60006020820190508181036000830152614cbf81614c83565b9050919050565b7f416c6c0000000000000000000000000000000000000000000000000000000000600082015250565b6000614cfc60038361464e565b9150614d0782614cc6565b600382019050919050565b6000614d1d82614cef565b9150819050919050565b7f456d657267656e6379206d6f6465206e6f742061637469766500000000000000600082015250565b6000614d5d601983614496565b9150614d6882614d27565b602082019050919050565b60006020820190508181036000830152614d8c81614d50565b9050919050565b6000602082019050614da860008301846146f1565b92915050565b6000604082019050614dc360008301856146f1565b614dd0602083018461428c565b939250505056fea26469706673582212208d15920be26dae84e432acd778d7f135b42d9358a3543d5c869cd0dfcd5c9f4f64736f6c634300081b0033",
  "linkReferences": {},
  "deployedLinkReferences": {}
}