{
  "_format": "hh-sol-artifact-1",
  "contractName": "MoonCatStaking",
  "sourceName": "contracts/MoonCatStaking.sol",
  "abi": [
    {
      "inputs": [
        {
          "internalType": "contract MoonCatToken",
          "name": "_token",
          "type": "address"
        }
      ],
      "stateMutability": "nonpayable",
      "type": "constructor"
    },
    {
      "inputs": [],
      "name": "AccessControlBadConfirmation",
      "type": "error"
    },
    {
      "inputs": [
        {
          "internalType": "address",
          "name": "account",
          "type": "address"
        },
        {
          "internalType": "bytes32",
          "name": "neededRole",
          "type": "bytes32"
        }
      ],
      "name": "AccessControlUnauthorizedAccount",
      "type": "error"
    },
    {
      "inputs": [],
      "name": "EnforcedPause",
      "type": "error"
    },
    {
      "inputs": [],
      "name": "ExpectedPause",
      "type": "error"
    },
    {
      "inputs": [],
      "name": "ReentrancyGuardReentrantCall",
      "type": "error"
    },
    {
      "anonymous": false,
      "inputs": [
        {
          "indexed": true,
          "internalType": "address",
          "name": "by",
          "type": "address"
        }
      ],
      "name": "EmergencyModeEnabled",
      "type": "event"
    },
    {
      "anonymous": false,
      "inputs": [
        {
          "indexed": true,
          "internalType": "address",
          "name": "user",
          "type": "address"
        },
        {
          "indexed": false,
          "internalType": "uint256",
          "name": "amount",
          "type": "uint256"
        },
        {
          "indexed": false,
          "internalType": "uint256",
          "name": "fee",
          "type": "uint256"
        }
      ],
      "name": "EmergencyWithdraw",
      "type": "event"
    },
    {
      "anonymous": false,
      "inputs": [
        {
          "indexed": true,
          "internalType": "address",
          "name": "user",
          "type": "address"
        },
        {
          "indexed": false,
          "internalType": "uint256",
          "name": "amount",
          "type": "uint256"
        },
        {
          "indexed": false,
          "internalType": "uint256",
          "name": "penalty",
          "type": "uint256"
        },
        {
          "indexed": true,
          "internalType": "string",
          "name": "stakeType",
          "type": "string"
        }
      ],
      "name": "ForceUnlocked",
      "type": "event"
    },
    {
      "anonymous": false,
      "inputs": [
        {
          "indexed": true,
          "internalType": "address",
          "name": "user",
          "type": "address"
        },
        {
          "indexed": false,
          "internalType": "uint256",
          "name": "reward",
          "type": "uint256"
        },
        {
          "indexed": true,
          "internalType": "string",
          "name": "stakeType",
          "type": "string"
        }
      ],
      "name": "InterestWithdrawn",
      "type": "event"
    },
    {
      "anonymous": false,
      "inputs": [
        {
          "indexed": false,
          "internalType": "address",
          "name": "account",
          "type": "address"
        }
      ],
      "name": "Paused",
      "type": "event"
    },
    {
      "anonymous": false,
      "inputs": [
        {
          "indexed": true,
          "internalType": "string",
          "name": "stakeType",
          "type": "string"
        },
        {
          "indexed": false,
          "internalType": "uint256",
          "name": "oldRate",
          "type": "uint256"
        },
        {
          "indexed": false,
          "internalType": "uint256",
          "name": "newRate",
          "type": "uint256"
        }
      ],
      "name": "RateChanged",
      "type": "event"
    },
    {
      "anonymous": false,
      "inputs": [
        {
          "indexed": true,
          "internalType": "bytes32",
          "name": "role",
          "type": "bytes32"
        },
        {
          "indexed": true,
          "internalType": "bytes32",
          "name": "previousAdminRole",
          "type": "bytes32"
        },
        {
          "indexed": true,
          "internalType": "bytes32",
          "name": "newAdminRole",
          "type": "bytes32"
        }
      ],
      "name": "RoleAdminChanged",
      "type": "event"
    },
    {
      "anonymous": false,
      "inputs": [
        {
          "indexed": true,
          "internalType": "bytes32",
          "name": "role",
          "type": "bytes32"
        },
        {
          "indexed": true,
          "internalType": "address",
          "name": "account",
          "type": "address"
        },
        {
          "indexed": true,
          "internalType": "address",
          "name": "sender",
          "type": "address"
        }
      ],
      "name": "RoleGranted",
      "type": "event"
    },
    {
      "anonymous": false,
      "inputs": [
        {
          "indexed": true,
          "internalType": "bytes32",
          "name": "role",
          "type": "bytes32"
        },
        {
          "indexed": true,
          "internalType": "address",
          "name": "account",
          "type": "address"
        },
        {
          "indexed": true,
          "internalType": "address",
          "name": "sender",
          "type": "address"
        }
      ],
      "name": "RoleRevoked",
      "type": "event"
    },
    {
      "anonymous": false,
      "inputs": [
        {
          "indexed": true,
          "internalType": "address",
          "name": "user",
          "type": "address"
        },
        {
          "indexed": false,
          "internalType": "uint256",
          "name": "amount",
          "type": "uint256"
        },
        {
          "indexed": false,
          "internalType": "uint256",
          "name": "since",
          "type": "uint256"
        },
        {
          "indexed": true,
          "internalType": "string",
          "name": "stakeType",
          "type": "string"
        }
      ],
      "name": "Staked",
      "type": "event"
    },
    {
      "anonymous": false,
      "inputs": [
        {
          "indexed": true,
          "internalType": "address",
          "name": "user",
          "type": "address"
        },
        {
          "indexed": false,
          "internalType": "uint256",
          "name": "unlockRequestTime",
          "type": "uint256"
        },
        {
          "indexed": true,
          "internalType": "string",
          "name": "stakeType",
          "type": "string"
        }
      ],
      "name": "UnlockRequested",
      "type": "event"
    },
    {
      "anonymous": false,
      "inputs": [
        {
          "indexed": false,
          "internalType": "address",
          "name": "account",
          "type": "address"
        }
      ],
      "name": "Unpaused",
      "type": "event"
    },
    {
      "anonymous": false,
      "inputs": [
        {
          "indexed": true,
          "internalType": "address",
          "name": "user",
          "type": "address"
        },
        {
          "indexed": false,
          "internalType": "uint256",
          "name": "amount",
          "type": "uint256"
        },
        {
          "indexed": false,
          "internalType": "uint256",
          "name": "reward",
          "type": "uint256"
        },
        {
          "indexed": true,
          "internalType": "string",
          "name": "stakeType",
          "type": "string"
        }
      ],
      "name": "Unstaked",
      "type": "event"
    },
    {
      "inputs": [],
      "name": "BASIS_POINTS",
      "outputs": [
        {
          "internalType": "uint256",
          "name": "",
          "type": "uint256"
        }
      ],
      "stateMutability": "view",
      "type": "function"
    },
    {
      "inputs": [],
      "name": "DEFAULT_ADMIN_ROLE",
      "outputs": [
        {
          "internalType": "bytes32",
          "name": "",
          "type": "bytes32"
        }
      ],
      "stateMutability": "view",
      "type": "function"
    },
    {
      "inputs": [],
      "name": "FORCE_UNLOCK_PENALTY",
      "outputs": [
        {
          "internalType": "uint256",
          "name": "",
          "type": "uint256"
        }
      ],
      "stateMutability": "view",
      "type": "function"
    },
    {
      "inputs": [],
      "name": "GOVERNOR_ROLE",
      "outputs": [
        {
          "internalType": "bytes32",
          "name": "",
          "type": "bytes32"
        }
      ],
      "stateMutability": "view",
      "type": "function"
    },
    {
      "inputs": [],
      "name": "MAX_RATE_1YEAR",
      "outputs": [
        {
          "internalType": "uint256",
          "name": "",
          "type": "uint256"
        }
      ],
      "stateMutability": "view",
      "type": "function"
    },
    {
      "inputs": [],
      "name": "MAX_RATE_7DAYS",
      "outputs": [
        {
          "internalType": "uint256",
          "name": "",
          "type": "uint256"
        }
      ],
      "stateMutability": "view",
      "type": "function"
    },
    {
      "inputs": [],
      "name": "PAUSER_ROLE",
      "outputs": [
        {
          "internalType": "bytes32",
          "name": "",
          "type": "bytes32"
        }
      ],
      "stateMutability": "view",
      "type": "function"
    },
    {
      "inputs": [],
      "name": "RATE_CHANGE_COOLDOWN",
      "outputs": [
        {
          "internalType": "uint256",
          "name": "",
          "type": "uint256"
        }
      ],
      "stateMutability": "view",
      "type": "function"
    },
    {
      "inputs": [],
      "name": "UNLOCK_PERIOD_1YEAR",
      "outputs": [
        {
          "internalType": "uint256",
          "name": "",
          "type": "uint256"
        }
      ],
      "stateMutability": "view",
      "type": "function"
    },
    {
      "inputs": [],
      "name": "UNLOCK_PERIOD_7DAYS",
      "outputs": [
        {
          "internalType": "uint256",
          "name": "",
          "type": "uint256"
        }
      ],
      "stateMutability": "view",
      "type": "function"
    },
    {
      "inputs": [
        {
          "components": [
            {
              "internalType": "uint256",
              "name": "amount",
              "type": "uint256"
            },
            {
              "internalType": "uint256",
              "name": "since",
              "type": "uint256"
            },
            {
              "internalType": "uint256",
              "name": "unlockRequestTime",
              "type": "uint256"
            },
            {
              "internalType": "bool",
              "name": "isLocked",
              "type": "bool"
            }
          ],
          "internalType": "struct MoonCatStaking.Stake",
          "name": "stake",
          "type": "tuple"
        },
        {
          "internalType": "uint256",
          "name": "rate",
          "type": "uint256"
        }
      ],
      "name": "calculatePendingRewards",
      "outputs": [
        {
          "internalType": "uint256",
          "name": "",
          "type": "uint256"
        }
      ],
      "stateMutability": "view",
      "type": "function"
    },
    {
      "inputs": [
        {
          "internalType": "address",
          "name": "account",
          "type": "address"
        }
      ],
      "name": "checkRoles",
      "outputs": [
        {
          "internalType": "bool",
          "name": "isAdmin",
          "type": "bool"
        },
        {
          "internalType": "bool",
          "name": "isGovernor",
          "type": "bool"
        },
        {
          "internalType": "bool",
          "name": "isPauser",
          "type": "bool"
        }
      ],
      "stateMutability": "view",
      "type": "function"
    },
    {
      "inputs": [],
      "name": "emergencyMode",
      "outputs": [
        {
          "internalType": "bool",
          "name": "",
          "type": "bool"
        }
      ],
      "stateMutability": "view",
      "type": "function"
    },
    {
      "inputs": [],
      "name": "emergencyWithdraw",
      "outputs": [],
      "stateMutability": "nonpayable",
      "type": "function"
    },
    {
      "inputs": [],
      "name": "emergencyWithdrawalFee",
      "outputs": [
        {
          "internalType": "uint256",
          "name": "",
          "type": "uint256"
        }
      ],
      "stateMutability": "view",
      "type": "function"
    },
    {
      "inputs": [],
      "name": "enableEmergencyMode",
      "outputs": [],
      "stateMutability": "nonpayable",
      "type": "function"
    },
    {
      "inputs": [],
      "name": "forceUnlock1Year",
      "outputs": [],
      "stateMutability": "nonpayable",
      "type": "function"
    },
    {
      "inputs": [],
      "name": "forceUnlock7Days",
      "outputs": [],
      "stateMutability": "nonpayable",
      "type": "function"
    },
    {
      "inputs": [],
      "name": "getDebugInfo",
      "outputs": [
        {
          "internalType": "bool",
          "name": "isPaused",
          "type": "bool"
        },
        {
          "internalType": "bool",
          "name": "hasGovernorRole",
          "type": "bool"
        },
        {
          "internalType": "bool",
          "name": "hasAdminRole",
          "type": "bool"
        },
        {
          "internalType": "uint256",
          "name": "currentRate7Days",
          "type": "uint256"
        },
        {
          "internalType": "uint256",
          "name": "currentRate1Year",
          "type": "uint256"
        },
        {
          "internalType": "uint256",
          "name": "lastChangeTime",
          "type": "uint256"
        },
        {
          "internalType": "uint256",
          "name": "timeUntilNextChange",
          "type": "uint256"
        },
        {
          "internalType": "bool",
          "name": "canChangeRate",
          "type": "bool"
        }
      ],
      "stateMutability": "view",
      "type": "function"
    },
    {
      "inputs": [
        {
          "internalType": "address",
          "name": "user",
          "type": "address"
        }
      ],
      "name": "getPendingRewards1Year",
      "outputs": [
        {
          "internalType": "uint256",
          "name": "",
          "type": "uint256"
        }
      ],
      "stateMutability": "view",
      "type": "function"
    },
    {
      "inputs": [
        {
          "internalType": "address",
          "name": "user",
          "type": "address"
        }
      ],
      "name": "getPendingRewards7Days",
      "outputs": [
        {
          "internalType": "uint256",
          "name": "",
          "type": "uint256"
        }
      ],
      "stateMutability": "view",
      "type": "function"
    },
    {
      "inputs": [
        {
          "internalType": "bytes32",
          "name": "role",
          "type": "bytes32"
        }
      ],
      "name": "getRoleAdmin",
      "outputs": [
        {
          "internalType": "bytes32",
          "name": "",
          "type": "bytes32"
        }
      ],
      "stateMutability": "view",
      "type": "function"
    },
    {
      "inputs": [
        {
          "internalType": "bytes32",
          "name": "role",
          "type": "bytes32"
        },
        {
          "internalType": "address",
          "name": "account",
          "type": "address"
        }
      ],
      "name": "grantRole",
      "outputs": [],
      "stateMutability": "nonpayable",
      "type": "function"
    },
    {
      "inputs": [
        {
          "internalType": "bytes32",
          "name": "role",
          "type": "bytes32"
        },
        {
          "internalType": "address",
          "name": "account",
          "type": "address"
        }
      ],
      "name": "hasRole",
      "outputs": [
        {
          "internalType": "bool",
          "name": "",
          "type": "bool"
        }
      ],
      "stateMutability": "view",
      "type": "function"
    },
    {
      "inputs": [],
      "name": "lastRateChange",
      "outputs": [
        {
          "internalType": "uint256",
          "name": "",
          "type": "uint256"
        }
      ],
      "stateMutability": "view",
      "type": "function"
    },
    {
      "inputs": [],
      "name": "pause",
      "outputs": [],
      "stateMutability": "nonpayable",
      "type": "function"
    },
    {
      "inputs": [],
      "name": "paused",
      "outputs": [
        {
          "internalType": "bool",
          "name": "",
          "type": "bool"
        }
      ],
      "stateMutability": "view",
      "type": "function"
    },
    {
      "inputs": [
        {
          "internalType": "bytes32",
          "name": "role",
          "type": "bytes32"
        },
        {
          "internalType": "address",
          "name": "callerConfirmation",
          "type": "address"
        }
      ],
      "name": "renounceRole",
      "outputs": [],
      "stateMutability": "nonpayable",
      "type": "function"
    },
    {
      "inputs": [],
      "name": "requestUnlock1Year",
      "outputs": [],
      "stateMutability": "nonpayable",
      "type": "function"
    },
    {
      "inputs": [],
      "name": "requestUnlock7Days",
      "outputs": [],
      "stateMutability": "nonpayable",
      "type": "function"
    },
    {
      "inputs": [
        {
          "internalType": "bytes32",
          "name": "role",
          "type": "bytes32"
        },
        {
          "internalType": "address",
          "name": "account",
          "type": "address"
        }
      ],
      "name": "revokeRole",
      "outputs": [],
      "stateMutability": "nonpayable",
      "type": "function"
    },
    {
      "inputs": [],
      "name": "rewardRate1Year",
      "outputs": [
        {
          "internalType": "uint256",
          "name": "",
          "type": "uint256"
        }
      ],
      "stateMutability": "view",
      "type": "function"
    },
    {
      "inputs": [],
      "name": "rewardRate7Days",
      "outputs": [
        {
          "internalType": "uint256",
          "name": "",
          "type": "uint256"
        }
      ],
      "stateMutability": "view",
      "type": "function"
    },
    {
      "inputs": [
        {
          "internalType": "uint256",
          "name": "_newRate",
          "type": "uint256"
        }
      ],
      "name": "setRewardRate1Year",
      "outputs": [],
      "stateMutability": "nonpayable",
      "type": "function"
    },
    {
      "inputs": [
        {
          "internalType": "uint256",
          "name": "_newRate",
          "type": "uint256"
        }
      ],
      "name": "setRewardRate7Days",
      "outputs": [],
      "stateMutability": "nonpayable",
      "type": "function"
    },
    {
      "inputs": [
        {
          "internalType": "uint256",
          "name": "_amount",
          "type": "uint256"
        }
      ],
      "name": "stake1Year",
      "outputs": [],
      "stateMutability": "nonpayable",
      "type": "function"
    },
    {
      "inputs": [
        {
          "internalType": "uint256",
          "name": "_amount",
          "type": "uint256"
        }
      ],
      "name": "stake7Days",
      "outputs": [],
      "stateMutability": "nonpayable",
      "type": "function"
    },
    {
      "inputs": [
        {
          "internalType": "address",
          "name": "",
          "type": "address"
        }
      ],
      "name": "stakes1Year",
      "outputs": [
        {
          "internalType": "uint256",
          "name": "amount",
          "type": "uint256"
        },
        {
          "internalType": "uint256",
          "name": "since",
          "type": "uint256"
        },
        {
          "internalType": "uint256",
          "name": "unlockRequestTime",
          "type": "uint256"
        },
        {
          "internalType": "bool",
          "name": "isLocked",
          "type": "bool"
        }
      ],
      "stateMutability": "view",
      "type": "function"
    },
    {
      "inputs": [
        {
          "internalType": "address",
          "name": "",
          "type": "address"
        }
      ],
      "name": "stakes7Days",
      "outputs": [
        {
          "internalType": "uint256",
          "name": "amount",
          "type": "uint256"
        },
        {
          "internalType": "uint256",
          "name": "since",
          "type": "uint256"
        },
        {
          "internalType": "uint256",
          "name": "unlockRequestTime",
          "type": "uint256"
        },
        {
          "internalType": "bool",
          "name": "isLocked",
          "type": "bool"
        }
      ],
      "stateMutability": "view",
      "type": "function"
    },
    {
      "inputs": [
        {
          "internalType": "bytes4",
          "name": "interfaceId",
          "type": "bytes4"
        }
      ],
      "name": "supportsInterface",
      "outputs": [
        {
          "internalType": "bool",
          "name": "",
          "type": "bool"
        }
      ],
      "stateMutability": "view",
      "type": "function"
    },
    {
      "inputs": [],
      "name": "token",
      "outputs": [
        {
          "internalType": "contract MoonCatToken",
          "name": "",
          "type": "address"
        }
      ],
      "stateMutability": "view",
      "type": "function"
    },
    {
      "inputs": [],
      "name": "unpause",
      "outputs": [],
      "stateMutability": "nonpayable",
      "type": "function"
    },
    {
      "inputs": [],
      "name": "unstake1Year",
      "outputs": [],
      "stateMutability": "nonpayable",
      "type": "function"
    },
    {
      "inputs": [],
      "name": "unstake7Days",
      "outputs": [],
      "stateMutability": "nonpayable",
      "type": "function"
    },
    {
      "inputs": [],
      "name": "withdrawAllInterest",
      "outputs": [],
      "stateMutability": "nonpayable",
      "type": "function"
    }
  ],
  "bytecode": "0x60a06040526103e860085534801561001657600080fd5b5060405161468738038061468783398181016040528101906100389190610378565b60016000819055506000600260006101000a81548160ff021916908315150217905550600073ffffffffffffffffffffffffffffffffffffffff168173ffffffffffffffffffffffffffffffffffffffff16036100ca576040517f08c379a00000000000000000000000000000000000000000000000000000000081526004016100c190610402565b60405180910390fd5b8073ffffffffffffffffffffffffffffffffffffffff1660808173ffffffffffffffffffffffffffffffffffffffff16815250506101116000801b3361019360201b60201c565b506101427f7935bd0ae54bc31f548c14dba4d37c5c64b3f8ca900cb468fb8abd54d5894f553361019360201b60201c565b506101737f65d7a28e3265b37a6474929f336521b332c1681b933f6cb9f3376673440d862a3361019360201b60201c565b5061027a6005819055506103bf6006819055504260098190555050610422565b60006101a5838361029060201b60201c565b61028557600180600085815260200190815260200160002060000160008473ffffffffffffffffffffffffffffffffffffffff1673ffffffffffffffffffffffffffffffffffffffff16815260200190815260200160002060006101000a81548160ff0219169083151502179055506102226102fb60201b60201c565b73ffffffffffffffffffffffffffffffffffffffff168273ffffffffffffffffffffffffffffffffffffffff16847f2f8788117e7eff1d82e926ec794901d17c78024a50270940304540a733656f0d60405160405180910390a46001905061028a565b600090505b92915050565b60006001600084815260200190815260200160002060000160008373ffffffffffffffffffffffffffffffffffffffff1673ffffffffffffffffffffffffffffffffffffffff16815260200190815260200160002060009054906101000a900460ff16905092915050565b600033905090565b600080fd5b600073ffffffffffffffffffffffffffffffffffffffff82169050919050565b600061033382610308565b9050919050565b600061034582610328565b9050919050565b6103558161033a565b811461036057600080fd5b50565b6000815190506103728161034c565b92915050565b60006020828403121561038e5761038d610303565b5b600061039c84828501610363565b91505092915050565b600082825260208201905092915050565b7f546f6b656e2063616e6e6f74206265207a65726f206164647265737300000000600082015250565b60006103ec601c836103a5565b91506103f7826103b6565b602082019050919050565b6000602082019050818103600083015261041b816103df565b9050919050565b6080516142046104836000396000818161087a01528181610a3901528181611215015281816113d401528181611739015281816119d20152818161203101528181612469015281816128a801528181612b890152612d1401526142046000f3fe608060405234801561001057600080fd5b506004361061027f5760003560e01c806378a95e071161015c578063c5b1c7d0116100ce578063dd847c8811610087578063dd847c88146106c7578063e1f1c4a7146106fa578063e63ab1e914610718578063e697028814610736578063fb30eba814610740578063fc0c546a146107735761027f565b8063c5b1c7d014610651578063ccc574901461065b578063cda01fc314610679578063d547741f14610683578063da71ae791461069f578063db2e21bc146106bd5761027f565b8063a217fddf11610120578063a217fddf146105b3578063ba3f1b59146105d1578063bb9287ad146105db578063c1eaf85e146105e5578063c513b60014610615578063c541f839146106335761027f565b806378a95e071461050f5780638456cb591461052d57806386c39df4146105375780638bd4dfe31461055357806391d14854146105835761027f565b806336568abe116101f55780635c975abb116101b95780635c975abb1461048357806364f47933146104a1578063690cc599146104ab5780636abcc092146104c95780636d3995c5146104e75780636eaa7ba2146104f15761027f565b806336568abe146104055780633f4ba83a1461042157806349730fc11461042b5780634cdcc9f11461044957806356e586ba146104655761027f565b8063187342f611610247578063187342f614610316578063187ff78d14610348578063237b51b214610378578063248a9ca31461039d57806329da3d93146103cd5780632f2ff15d146103e95761027f565b806301ffc9a71461028457806308520b86146102b45780630905f560146102d25780630f544ac7146102f05780631532d0ba1461030c575b600080fd5b61029e600480360381019061029991906133bd565b610791565b6040516102ab9190613405565b60405180910390f35b6102bc61080b565b6040516102c99190613439565b60405180910390f35b6102da610811565b6040516102e79190613405565b60405180910390f35b61030a60048036038101906103059190613480565b610824565b005b610314610bd1565b005b610330600480360381019061032b919061350b565b610db8565b60405161033f93929190613538565b60405180910390f35b610362600480360381019061035d91906136a4565b610e2b565b60405161036f9190613439565b60405180910390f35b610380610ebb565b6040516103949897969594939291906136e4565b60405180910390f35b6103b760048036038101906103b29190613798565b610f73565b6040516103c491906137d4565b60405180910390f35b6103e760048036038101906103e29190613480565b610f93565b005b61040360048036038101906103fe91906137ef565b6110e7565b005b61041f600480360381019061041a91906137ef565b611109565b005b610429611184565b005b6104336111b9565b6040516104409190613439565b60405180910390f35b610463600480360381019061045e9190613480565b6111bf565b005b61046d61156c565b60405161047a9190613439565b60405180910390f35b61048b611572565b6040516104989190613405565b60405180910390f35b6104a9611589565b005b6104b3611885565b6040516104c09190613439565b60405180910390f35b6104d161188b565b6040516104de9190613439565b60405180910390f35b6104ef611891565b005b6104f9611b1e565b6040516105069190613439565b60405180910390f35b610517611b25565b6040516105249190613439565b60405180910390f35b610535611b2c565b005b610551600480360381019061054c9190613480565b611b61565b005b61056d6004803603810190610568919061350b565b611cb5565b60405161057a9190613439565b60405180910390f35b61059d600480360381019061059891906137ef565b611d4c565b6040516105aa9190613405565b60405180910390f35b6105bb611db7565b6040516105c891906137d4565b60405180910390f35b6105d9611dbe565b005b6105e3611fa5565b005b6105ff60048036038101906105fa919061350b565b61217b565b60405161060c9190613439565b60405180910390f35b61061d612212565b60405161062a9190613439565b60405180910390f35b61063b612218565b6040516106489190613439565b60405180910390f35b610659612220565b005b610663612296565b60405161067091906137d4565b60405180910390f35b6106816122ba565b005b61069d600480360381019061069891906137ef565b6125b5565b005b6106a76125d7565b6040516106b49190613439565b60405180910390f35b6106c56125dd565b005b6106e160048036038101906106dc919061350b565b6129e1565b6040516106f1949392919061382f565b60405180910390f35b610702612a1e565b60405161070f9190613439565b60405180910390f35b610720612a24565b60405161072d91906137d4565b60405180910390f35b61073e612a48565b005b61075a6004803603810190610755919061350b565b612cd5565b60405161076a949392919061382f565b60405180910390f35b61077b612d12565b60405161078891906138d3565b60405180910390f35b60007f7965db0b000000000000000000000000000000000000000000000000000000007bffffffffffffffffffffffffffffffffffffffffffffffffffffffff1916827bffffffffffffffffffffffffffffffffffffffffffffffffffffffff19161480610804575061080382612d36565b5b9050919050565b60085481565b600760009054906101000a900460ff1681565b61082c612da0565b610834612de6565b60008111610877576040517f08c379a000000000000000000000000000000000000000000000000000000000815260040161086e9061394b565b60405180910390fd5b807f000000000000000000000000000000000000000000000000000000000000000073ffffffffffffffffffffffffffffffffffffffff166370a08231336040518263ffffffff1660e01b81526004016108d1919061397a565b602060405180830381865afa1580156108ee573d6000803e3d6000fd5b505050506040513d601f19601f8201168201806040525081019061091291906139aa565b1015610953576040517f08c379a000000000000000000000000000000000000000000000000000000000815260040161094a90613a23565b60405180910390fd5b6000600360003373ffffffffffffffffffffffffffffffffffffffff1673ffffffffffffffffffffffffffffffffffffffff1681526020019081526020016000209050600081600001541180156109b857508060030160009054906101000a900460ff165b15610a37576000610a0f826040518060800160405290816000820154815260200160018201548152602001600282015481526020016003820160009054906101000a900460ff161515151581525050600554610e2b565b905080826000016000828254610a259190613a72565b92505081905550428260010181905550505b7f000000000000000000000000000000000000000000000000000000000000000073ffffffffffffffffffffffffffffffffffffffff166323b872dd3330856040518463ffffffff1660e01b8152600401610a9493929190613aa6565b6020604051808303816000875af1158015610ab3573d6000803e3d6000fd5b505050506040513d601f19601f82011682018060405250810190610ad79190613af2565b610b16576040517f08c379a0000000000000000000000000000000000000000000000000000000008152600401610b0d90613b6b565b60405180910390fd5b81816000016000828254610b2a9190613a72565b9250508190555042816001018190555060018160030160006101000a81548160ff02191690831515021790555060008160020181905550604051610b6d90613be2565b60405180910390203373ffffffffffffffffffffffffffffffffffffffff167f66d612d12bb1902ec26fd9a4991d9d58d71d0580427497d62731e7527f1e01a48442604051610bbd929190613bf7565b60405180910390a350610bce612e27565b50565b610bd9612de6565b6000600460003373ffffffffffffffffffffffffffffffffffffffff1673ffffffffffffffffffffffffffffffffffffffff16815260200190815260200160002090506000816000015411610c63576040517f08c379a0000000000000000000000000000000000000000000000000000000008152600401610c5a90613c6c565b60405180910390fd5b8060030160009054906101000a900460ff16610cb4576040517f08c379a0000000000000000000000000000000000000000000000000000000008152600401610cab90613cd8565b60405180910390fd5b6000610d06826040518060800160405290816000820154815260200160018201548152602001600282015481526020016003820160009054906101000a900460ff161515151581525050600654610e2b565b905080826000016000828254610d1c9190613a72565b9250508190555042826001018190555042826002018190555060008260030160006101000a81548160ff021916908315150217905550604051610d5e90613d44565b60405180910390203373ffffffffffffffffffffffffffffffffffffffff167faf1e05ce41cdb4bdc4f23bff459f1b9173663f6a49fcf52898845f8d6590688642604051610dac9190613439565b60405180910390a35050565b6000806000610dca6000801b85611d4c565b610df47f7935bd0ae54bc31f548c14dba4d37c5c64b3f8ca900cb468fb8abd54d5894f5586611d4c565b610e1e7f65d7a28e3265b37a6474929f336521b332c1681b933f6cb9f3376673440d862a87611d4c565b9250925092509193909250565b600082606001511580610e42575060008360000151145b15610e505760009050610eb5565b6000836020015142610e629190613d59565b905060006301e133808483610e779190613d8d565b610e819190613dfe565b9050612710811115610e935761271090505b612710818660000151610ea69190613d8d565b610eb09190613dfe565b925050505b92915050565b600080600080600080600080600062093a80600954610eda9190613a72565b9050610ee4611572565b610f0e7f7935bd0ae54bc31f548c14dba4d37c5c64b3f8ca900cb468fb8abd54d5894f5533611d4c565b610f1b6000801b33611d4c565b60055460065460095486421015610f3d574287610f389190613d59565b610f40565b60005b8742101580610f585750610f576000801b33611d4c565b5b98509850985098509850985098509850509091929394959697565b600060016000838152602001908152602001600020600101549050919050565b7f7935bd0ae54bc31f548c14dba4d37c5c64b3f8ca900cb468fb8abd54d5894f55610fbd81612e31565b610fc5612de6565b6107d082111561100a576040517f08c379a000000000000000000000000000000000000000000000000000000000815260040161100190613e7b565b60405180910390fd5b60006009541415801561102757506110256000801b33611d4c565b155b156110805762093a8060095461103d9190613a72565b42101561107f576040517f08c379a000000000000000000000000000000000000000000000000000000000815260040161107690613ee7565b60405180910390fd5b5b6000600554905082600581905550426009819055506040516110a190613be2565b60405180910390207f4451261fd4f7dbcc8fd7251b7a2f5501686e0ab7fad43ce240b0a0d60155eb6b82856040516110da929190613bf7565b60405180910390a2505050565b6110f082610f73565b6110f981612e31565b6111038383612e45565b50505050565b611111612f36565b73ffffffffffffffffffffffffffffffffffffffff168173ffffffffffffffffffffffffffffffffffffffff1614611175576040517f6697b23200000000000000000000000000000000000000000000000000000000815260040160405180910390fd5b61117f8282612f3e565b505050565b7f65d7a28e3265b37a6474929f336521b332c1681b933f6cb9f3376673440d862a6111ae81612e31565b6111b6613031565b50565b60055481565b6111c7612da0565b6111cf612de6565b60008111611212576040517f08c379a00000000000000000000000000000000000000000000000000000000081526004016112099061394b565b60405180910390fd5b807f000000000000000000000000000000000000000000000000000000000000000073ffffffffffffffffffffffffffffffffffffffff166370a08231336040518263ffffffff1660e01b815260040161126c919061397a565b602060405180830381865afa158015611289573d6000803e3d6000fd5b505050506040513d601f19601f820116820180604052508101906112ad91906139aa565b10156112ee576040517f08c379a00000000000000000000000000000000000000000000000000000000081526004016112e590613a23565b60405180910390fd5b6000600460003373ffffffffffffffffffffffffffffffffffffffff1673ffffffffffffffffffffffffffffffffffffffff16815260200190815260200160002090506000816000015411801561135357508060030160009054906101000a900460ff165b156113d25760006113aa826040518060800160405290816000820154815260200160018201548152602001600282015481526020016003820160009054906101000a900460ff161515151581525050600654610e2b565b9050808260000160008282546113c09190613a72565b92505081905550428260010181905550505b7f000000000000000000000000000000000000000000000000000000000000000073ffffffffffffffffffffffffffffffffffffffff166323b872dd3330856040518463ffffffff1660e01b815260040161142f93929190613aa6565b6020604051808303816000875af115801561144e573d6000803e3d6000fd5b505050506040513d601f19601f820116820180604052508101906114729190613af2565b6114b1576040517f08c379a00000000000000000000000000000000000000000000000000000000081526004016114a890613b6b565b60405180910390fd5b818160000160008282546114c59190613a72565b9250508190555042816001018190555060018160030160006101000a81548160ff0219169083151502179055506000816002018190555060405161150890613d44565b60405180910390203373ffffffffffffffffffffffffffffffffffffffff167f66d612d12bb1902ec26fd9a4991d9d58d71d0580427497d62731e7527f1e01a48442604051611558929190613bf7565b60405180910390a350611569612e27565b50565b610dac81565b6000600260009054906101000a900460ff16905090565b611591612da0565b611599612de6565b6000600460003373ffffffffffffffffffffffffffffffffffffffff1673ffffffffffffffffffffffffffffffffffffffff16815260200190815260200160002090506000816000015411611623576040517f08c379a000000000000000000000000000000000000000000000000000000000815260040161161a90613c6c565b60405180910390fd5b600081600201541161166a576040517f08c379a000000000000000000000000000000000000000000000000000000000815260040161166190613f53565b60405180910390fd5b6301e13380816002015461167e9190613a72565b4210156116c0576040517f08c379a00000000000000000000000000000000000000000000000000000000081526004016116b790613fbf565b60405180910390fd5b600081600001549050600460003373ffffffffffffffffffffffffffffffffffffffff1673ffffffffffffffffffffffffffffffffffffffff168152602001908152602001600020600080820160009055600182016000905560028201600090556003820160006101000a81549060ff021916905550507f000000000000000000000000000000000000000000000000000000000000000073ffffffffffffffffffffffffffffffffffffffff1663a9059cbb33836040518363ffffffff1660e01b8152600401611792929190613fdf565b6020604051808303816000875af11580156117b1573d6000803e3d6000fd5b505050506040513d601f19601f820116820180604052508101906117d59190613af2565b611814576040517f08c379a000000000000000000000000000000000000000000000000000000000815260040161180b90613b6b565b60405180910390fd5b60405161182090613d44565b60405180910390203373ffffffffffffffffffffffffffffffffffffffff167fd224ec5ad02946fe147952e6ad900ce0567e05d53bd64beb1b564a8c603d869c836000604051611871929190614043565b60405180910390a35050611883612e27565b565b6107d081565b60065481565b611899612da0565b6118a1612de6565b6000600360003373ffffffffffffffffffffffffffffffffffffffff1673ffffffffffffffffffffffffffffffffffffffff1681526020019081526020016000209050600081600001541161192b576040517f08c379a000000000000000000000000000000000000000000000000000000000815260040161192290613c6c565b60405180910390fd5b600061271061138883600001546119429190613d8d565b61194c9190613dfe565b905060008183600001546119609190613d59565b9050600360003373ffffffffffffffffffffffffffffffffffffffff1673ffffffffffffffffffffffffffffffffffffffff168152602001908152602001600020600080820160009055600182016000905560028201600090556003820160006101000a81549060ff021916905550507f000000000000000000000000000000000000000000000000000000000000000073ffffffffffffffffffffffffffffffffffffffff1663a9059cbb33836040518363ffffffff1660e01b8152600401611a2b929190613fdf565b6020604051808303816000875af1158015611a4a573d6000803e3d6000fd5b505050506040513d601f19601f82011682018060405250810190611a6e9190613af2565b611aad576040517f08c379a0000000000000000000000000000000000000000000000000000000008152600401611aa490613b6b565b60405180910390fd5b604051611ab990613be2565b60405180910390203373ffffffffffffffffffffffffffffffffffffffff167f07d8a820151595a9521ea31802fb99d26992342fa0127530e142ff352ccd6a758385604051611b09929190613bf7565b60405180910390a3505050611b1c612e27565b565b62093a8081565b62093a8081565b7f65d7a28e3265b37a6474929f336521b332c1681b933f6cb9f3376673440d862a611b5681612e31565b611b5e613094565b50565b7f7935bd0ae54bc31f548c14dba4d37c5c64b3f8ca900cb468fb8abd54d5894f55611b8b81612e31565b611b93612de6565b610dac821115611bd8576040517f08c379a0000000000000000000000000000000000000000000000000000000008152600401611bcf90613e7b565b60405180910390fd5b600060095414158015611bf55750611bf36000801b33611d4c565b155b15611c4e5762093a80600954611c0b9190613a72565b421015611c4d576040517f08c379a0000000000000000000000000000000000000000000000000000000008152600401611c4490613ee7565b60405180910390fd5b5b600060065490508260068190555042600981905550604051611c6f90613d44565b60405180910390207f4451261fd4f7dbcc8fd7251b7a2f5501686e0ab7fad43ce240b0a0d60155eb6b8285604051611ca8929190613bf7565b60405180910390a2505050565b6000611d45600360008473ffffffffffffffffffffffffffffffffffffffff1673ffffffffffffffffffffffffffffffffffffffff1681526020019081526020016000206040518060800160405290816000820154815260200160018201548152602001600282015481526020016003820160009054906101000a900460ff161515151581525050600554610e2b565b9050919050565b60006001600084815260200190815260200160002060000160008373ffffffffffffffffffffffffffffffffffffffff1673ffffffffffffffffffffffffffffffffffffffff16815260200190815260200160002060009054906101000a900460ff16905092915050565b6000801b81565b611dc6612de6565b6000600360003373ffffffffffffffffffffffffffffffffffffffff1673ffffffffffffffffffffffffffffffffffffffff16815260200190815260200160002090506000816000015411611e50576040517f08c379a0000000000000000000000000000000000000000000000000000000008152600401611e4790613c6c565b60405180910390fd5b8060030160009054906101000a900460ff16611ea1576040517f08c379a0000000000000000000000000000000000000000000000000000000008152600401611e9890613cd8565b60405180910390fd5b6000611ef3826040518060800160405290816000820154815260200160018201548152602001600282015481526020016003820160009054906101000a900460ff161515151581525050600554610e2b565b905080826000016000828254611f099190613a72565b9250508190555042826001018190555042826002018190555060008260030160006101000a81548160ff021916908315150217905550604051611f4b90613be2565b60405180910390203373ffffffffffffffffffffffffffffffffffffffff167faf1e05ce41cdb4bdc4f23bff459f1b9173663f6a49fcf52898845f8d6590688642604051611f999190613439565b60405180910390a35050565b611fad612da0565b611fb5612de6565b600080611fc1336130f7565b90508082611fcf9190613a72565b91506000611fdc336131de565b90508083611fea9190613a72565b92506000831161202f576040517f08c379a0000000000000000000000000000000000000000000000000000000008152600401612026906140b8565b60405180910390fd5b7f000000000000000000000000000000000000000000000000000000000000000073ffffffffffffffffffffffffffffffffffffffff1663a9059cbb33856040518363ffffffff1660e01b815260040161208a929190613fdf565b6020604051808303816000875af11580156120a9573d6000803e3d6000fd5b505050506040513d601f19601f820116820180604052508101906120cd9190613af2565b61210c576040517f08c379a000000000000000000000000000000000000000000000000000000000815260040161210390613b6b565b60405180910390fd5b60405161211890614124565b60405180910390203373ffffffffffffffffffffffffffffffffffffffff167f763d906f989b508baa591b85de06a2ce96a1335d3064e5477fe743df43a30b45856040516121669190613439565b60405180910390a3505050612179612e27565b565b600061220b600460008473ffffffffffffffffffffffffffffffffffffffff1673ffffffffffffffffffffffffffffffffffffffff1681526020019081526020016000206040518060800160405290816000820154815260200160018201548152602001600282015481526020016003820160009054906101000a900460ff161515151581525050600654610e2b565b9050919050565b61138881565b6301e1338081565b6000801b61222d81612e31565b6001600760006101000a81548160ff021916908315150217905550612250613094565b3373ffffffffffffffffffffffffffffffffffffffff167fc0a1c7e9f05b4d536e1ff8606bae9b847cdb43ef4a9b2d7a503a88cee08dccdb60405160405180910390a250565b7f7935bd0ae54bc31f548c14dba4d37c5c64b3f8ca900cb468fb8abd54d5894f5581565b6122c2612da0565b6122ca612de6565b6000600360003373ffffffffffffffffffffffffffffffffffffffff1673ffffffffffffffffffffffffffffffffffffffff16815260200190815260200160002090506000816000015411612354576040517f08c379a000000000000000000000000000000000000000000000000000000000815260040161234b90613c6c565b60405180910390fd5b600081600201541161239b576040517f08c379a000000000000000000000000000000000000000000000000000000000815260040161239290613f53565b60405180910390fd5b62093a8081600201546123ae9190613a72565b4210156123f0576040517f08c379a00000000000000000000000000000000000000000000000000000000081526004016123e790613fbf565b60405180910390fd5b600081600001549050600360003373ffffffffffffffffffffffffffffffffffffffff1673ffffffffffffffffffffffffffffffffffffffff168152602001908152602001600020600080820160009055600182016000905560028201600090556003820160006101000a81549060ff021916905550507f000000000000000000000000000000000000000000000000000000000000000073ffffffffffffffffffffffffffffffffffffffff1663a9059cbb33836040518363ffffffff1660e01b81526004016124c2929190613fdf565b6020604051808303816000875af11580156124e1573d6000803e3d6000fd5b505050506040513d601f19601f820116820180604052508101906125059190613af2565b612544576040517f08c379a000000000000000000000000000000000000000000000000000000000815260040161253b90613b6b565b60405180910390fd5b60405161255090613be2565b60405180910390203373ffffffffffffffffffffffffffffffffffffffff167fd224ec5ad02946fe147952e6ad900ce0567e05d53bd64beb1b564a8c603d869c8360006040516125a1929190614043565b60405180910390a350506125b3612e27565b565b6125be82610f73565b6125c781612e31565b6125d18383612f3e565b50505050565b60095481565b6125e5612da0565b600760009054906101000a900460ff16612634576040517f08c379a000000000000000000000000000000000000000000000000000000000815260040161262b90614185565b60405180910390fd5b6000806000600360003373ffffffffffffffffffffffffffffffffffffffff1673ffffffffffffffffffffffffffffffffffffffff168152602001908152602001600020905060008160000154111561274d576000816000015490506000612710600854836126a39190613d8d565b6126ad9190613dfe565b9050600081836126bd9190613d59565b905080866126cb9190613a72565b955081856126d99190613a72565b9450600360003373ffffffffffffffffffffffffffffffffffffffff1673ffffffffffffffffffffffffffffffffffffffff168152602001908152602001600020600080820160009055600182016000905560028201600090556003820160006101000a81549060ff021916905550505050505b6000600460003373ffffffffffffffffffffffffffffffffffffffff1673ffffffffffffffffffffffffffffffffffffffff1681526020019081526020016000209050600081600001541115612863576000816000015490506000612710600854836127b99190613d8d565b6127c39190613dfe565b9050600081836127d39190613d59565b905080876127e19190613a72565b965081866127ef9190613a72565b9550600460003373ffffffffffffffffffffffffffffffffffffffff1673ffffffffffffffffffffffffffffffffffffffff168152602001908152602001600020600080820160009055600182016000905560028201600090556003820160006101000a81549060ff021916905550505050505b600084116128a6576040517f08c379a000000000000000000000000000000000000000000000000000000000815260040161289d90613c6c565b60405180910390fd5b7f000000000000000000000000000000000000000000000000000000000000000073ffffffffffffffffffffffffffffffffffffffff1663a9059cbb33866040518363ffffffff1660e01b8152600401612901929190613fdf565b6020604051808303816000875af1158015612920573d6000803e3d6000fd5b505050506040513d601f19601f820116820180604052508101906129449190613af2565b612983576040517f08c379a000000000000000000000000000000000000000000000000000000000815260040161297a90613b6b565b60405180910390fd5b3373ffffffffffffffffffffffffffffffffffffffff167fbb757047c2b5f3974fe26b7c10f732e7bce710b0952a71082702781e62ae059585856040516129cb929190613bf7565b60405180910390a2505050506129df612e27565b565b60046020528060005260406000206000915090508060000154908060010154908060020154908060030160009054906101000a900460ff16905084565b61271081565b7f65d7a28e3265b37a6474929f336521b332c1681b933f6cb9f3376673440d862a81565b612a50612da0565b612a58612de6565b6000600460003373ffffffffffffffffffffffffffffffffffffffff1673ffffffffffffffffffffffffffffffffffffffff16815260200190815260200160002090506000816000015411612ae2576040517f08c379a0000000000000000000000000000000000000000000000000000000008152600401612ad990613c6c565b60405180910390fd5b60006127106113888360000154612af99190613d8d565b612b039190613dfe565b90506000818360000154612b179190613d59565b9050600460003373ffffffffffffffffffffffffffffffffffffffff1673ffffffffffffffffffffffffffffffffffffffff168152602001908152602001600020600080820160009055600182016000905560028201600090556003820160006101000a81549060ff021916905550507f000000000000000000000000000000000000000000000000000000000000000073ffffffffffffffffffffffffffffffffffffffff1663a9059cbb33836040518363ffffffff1660e01b8152600401612be2929190613fdf565b6020604051808303816000875af1158015612c01573d6000803e3d6000fd5b505050506040513d601f19601f82011682018060405250810190612c259190613af2565b612c64576040517f08c379a0000000000000000000000000000000000000000000000000000000008152600401612c5b90613b6b565b60405180910390fd5b604051612c7090613d44565b60405180910390203373ffffffffffffffffffffffffffffffffffffffff167f07d8a820151595a9521ea31802fb99d26992342fa0127530e142ff352ccd6a758385604051612cc0929190613bf7565b60405180910390a3505050612cd3612e27565b565b60036020528060005260406000206000915090508060000154908060010154908060020154908060030160009054906101000a900460ff16905084565b7f000000000000000000000000000000000000000000000000000000000000000081565b60007f01ffc9a7000000000000000000000000000000000000000000000000000000007bffffffffffffffffffffffffffffffffffffffffffffffffffffffff1916827bffffffffffffffffffffffffffffffffffffffffffffffffffffffff1916149050919050565b600260005403612ddc576040517f3ee5aeb500000000000000000000000000000000000000000000000000000000815260040160405180910390fd5b6002600081905550565b612dee611572565b15612e25576040517fd93c066500000000000000000000000000000000000000000000000000000000815260040160405180910390fd5b565b6001600081905550565b612e4281612e3d612f36565b6132c5565b50565b6000612e518383611d4c565b612f2b57600180600085815260200190815260200160002060000160008473ffffffffffffffffffffffffffffffffffffffff1673ffffffffffffffffffffffffffffffffffffffff16815260200190815260200160002060006101000a81548160ff021916908315150217905550612ec8612f36565b73ffffffffffffffffffffffffffffffffffffffff168273ffffffffffffffffffffffffffffffffffffffff16847f2f8788117e7eff1d82e926ec794901d17c78024a50270940304540a733656f0d60405160405180910390a460019050612f30565b600090505b92915050565b600033905090565b6000612f4a8383611d4c565b156130265760006001600085815260200190815260200160002060000160008473ffffffffffffffffffffffffffffffffffffffff1673ffffffffffffffffffffffffffffffffffffffff16815260200190815260200160002060006101000a81548160ff021916908315150217905550612fc3612f36565b73ffffffffffffffffffffffffffffffffffffffff168273ffffffffffffffffffffffffffffffffffffffff16847ff6391f5c32d9c69d2a47ea670b442974b53935d1edc7fd64eb21e047a839171b60405160405180910390a46001905061302b565b600090505b92915050565b613039613316565b6000600260006101000a81548160ff0219169083151502179055507f5db9ee0a495bf2e6ff9c91a7834c1ba4fdd244a5e8aa4e537bd38aeae4b073aa61307d612f36565b60405161308a919061397a565b60405180910390a1565b61309c612de6565b6001600260006101000a81548160ff0219169083151502179055507f62e78cea01bee320cd4e420270b5ea74000d11b0c9f74754ebdbfc544b05a2586130e0612f36565b6040516130ed919061397a565b60405180910390a1565b600080600360008473ffffffffffffffffffffffffffffffffffffffff1673ffffffffffffffffffffffffffffffffffffffff168152602001908152602001600020905060008160000154148061315d57508060030160009054906101000a900460ff16155b1561316c5760009150506131d9565b60006131be826040518060800160405290816000820154815260200160018201548152602001600282015481526020016003820160009054906101000a900460ff161515151581525050600554610e2b565b905060008111156131d3574282600101819055505b80925050505b919050565b600080600460008473ffffffffffffffffffffffffffffffffffffffff1673ffffffffffffffffffffffffffffffffffffffff168152602001908152602001600020905060008160000154148061324457508060030160009054906101000a900460ff16155b156132535760009150506132c0565b60006132a5826040518060800160405290816000820154815260200160018201548152602001600282015481526020016003820160009054906101000a900460ff161515151581525050600654610e2b565b905060008111156132ba574282600101819055505b80925050505b919050565b6132cf8282611d4c565b6133125780826040517fe2517d3f0000000000000000000000000000000000000000000000000000000081526004016133099291906141a5565b60405180910390fd5b5050565b61331e611572565b613354576040517f8dfc202b00000000000000000000000000000000000000000000000000000000815260040160405180910390fd5b565b6000604051905090565b600080fd5b60007fffffffff0000000000000000000000000000000000000000000000000000000082169050919050565b61339a81613365565b81146133a557600080fd5b50565b6000813590506133b781613391565b92915050565b6000602082840312156133d3576133d2613360565b5b60006133e1848285016133a8565b91505092915050565b60008115159050919050565b6133ff816133ea565b82525050565b600060208201905061341a60008301846133f6565b92915050565b6000819050919050565b61343381613420565b82525050565b600060208201905061344e600083018461342a565b92915050565b61345d81613420565b811461346857600080fd5b50565b60008135905061347a81613454565b92915050565b60006020828403121561349657613495613360565b5b60006134a48482850161346b565b91505092915050565b600073ffffffffffffffffffffffffffffffffffffffff82169050919050565b60006134d8826134ad565b9050919050565b6134e8816134cd565b81146134f357600080fd5b50565b600081359050613505816134df565b92915050565b60006020828403121561352157613520613360565b5b600061352f848285016134f6565b91505092915050565b600060608201905061354d60008301866133f6565b61355a60208301856133f6565b61356760408301846133f6565b949350505050565b600080fd5b6000601f19601f8301169050919050565b7f4e487b7100000000000000000000000000000000000000000000000000000000600052604160045260246000fd5b6135bd82613574565b810181811067ffffffffffffffff821117156135dc576135db613585565b5b80604052505050565b60006135ef613356565b90506135fb82826135b4565b919050565b613609816133ea565b811461361457600080fd5b50565b60008135905061362681613600565b92915050565b6000608082840312156136425761364161356f565b5b61364c60806135e5565b9050600061365c8482850161346b565b60008301525060206136708482850161346b565b60208301525060406136848482850161346b565b604083015250606061369884828501613617565b60608301525092915050565b60008060a083850312156136bb576136ba613360565b5b60006136c98582860161362c565b92505060806136da8582860161346b565b9150509250929050565b6000610100820190506136fa600083018b6133f6565b613707602083018a6133f6565b61371460408301896133f6565b613721606083018861342a565b61372e608083018761342a565b61373b60a083018661342a565b61374860c083018561342a565b61375560e08301846133f6565b9998505050505050505050565b6000819050919050565b61377581613762565b811461378057600080fd5b50565b6000813590506137928161376c565b92915050565b6000602082840312156137ae576137ad613360565b5b60006137bc84828501613783565b91505092915050565b6137ce81613762565b82525050565b60006020820190506137e960008301846137c5565b92915050565b6000806040838503121561380657613805613360565b5b600061381485828601613783565b9250506020613825858286016134f6565b9150509250929050565b6000608082019050613844600083018761342a565b613851602083018661342a565b61385e604083018561342a565b61386b60608301846133f6565b95945050505050565b6000819050919050565b600061389961389461388f846134ad565b613874565b6134ad565b9050919050565b60006138ab8261387e565b9050919050565b60006138bd826138a0565b9050919050565b6138cd816138b2565b82525050565b60006020820190506138e860008301846138c4565b92915050565b600082825260208201905092915050565b7f43616e6e6f74207374616b652030000000000000000000000000000000000000600082015250565b6000613935600e836138ee565b9150613940826138ff565b602082019050919050565b6000602082019050818103600083015261396481613928565b9050919050565b613974816134cd565b82525050565b600060208201905061398f600083018461396b565b92915050565b6000815190506139a481613454565b92915050565b6000602082840312156139c0576139bf613360565b5b60006139ce84828501613995565b91505092915050565b7f496e73756666696369656e742062616c616e6365000000000000000000000000600082015250565b6000613a0d6014836138ee565b9150613a18826139d7565b602082019050919050565b60006020820190508181036000830152613a3c81613a00565b9050919050565b7f4e487b7100000000000000000000000000000000000000000000000000000000600052601160045260246000fd5b6000613a7d82613420565b9150613a8883613420565b9250828201905080821115613aa057613a9f613a43565b5b92915050565b6000606082019050613abb600083018661396b565b613ac8602083018561396b565b613ad5604083018461342a565b949350505050565b600081519050613aec81613600565b92915050565b600060208284031215613b0857613b07613360565b5b6000613b1684828501613add565b91505092915050565b7f5472616e73666572206661696c65640000000000000000000000000000000000600082015250565b6000613b55600f836138ee565b9150613b6082613b1f565b602082019050919050565b60006020820190508181036000830152613b8481613b48565b9050919050565b600081905092915050565b7f372d446179000000000000000000000000000000000000000000000000000000600082015250565b6000613bcc600583613b8b565b9150613bd782613b96565b600582019050919050565b6000613bed82613bbf565b9150819050919050565b6000604082019050613c0c600083018561342a565b613c19602083018461342a565b9392505050565b7f4e6f207374616b6520666f756e64000000000000000000000000000000000000600082015250565b6000613c56600e836138ee565b9150613c6182613c20565b602082019050919050565b60006020820190508181036000830152613c8581613c49565b9050919050565b7f416c726561647920756e6c6f636b696e67000000000000000000000000000000600082015250565b6000613cc26011836138ee565b9150613ccd82613c8c565b602082019050919050565b60006020820190508181036000830152613cf181613cb5565b9050919050565b7f312d596561720000000000000000000000000000000000000000000000000000600082015250565b6000613d2e600683613b8b565b9150613d3982613cf8565b600682019050919050565b6000613d4f82613d21565b9150819050919050565b6000613d6482613420565b9150613d6f83613420565b9250828203905081811115613d8757613d86613a43565b5b92915050565b6000613d9882613420565b9150613da383613420565b9250828202613db181613420565b91508282048414831517613dc857613dc7613a43565b5b5092915050565b7f4e487b7100000000000000000000000000000000000000000000000000000000600052601260045260246000fd5b6000613e0982613420565b9150613e1483613420565b925082613e2457613e23613dcf565b5b828204905092915050565b7f5261746520746f6f206869676800000000000000000000000000000000000000600082015250565b6000613e65600d836138ee565b9150613e7082613e2f565b602082019050919050565b60006020820190508181036000830152613e9481613e58565b9050919050565b7f52617465206368616e676520746f6f20736f6f6e000000000000000000000000600082015250565b6000613ed16014836138ee565b9150613edc82613e9b565b602082019050919050565b60006020820190508181036000830152613f0081613ec4565b9050919050565b7f556e6c6f636b206e6f7420726571756573746564000000000000000000000000600082015250565b6000613f3d6014836138ee565b9150613f4882613f07565b602082019050919050565b60006020820190508181036000830152613f6c81613f30565b9050919050565b7f5374696c6c206c6f636b65640000000000000000000000000000000000000000600082015250565b6000613fa9600c836138ee565b9150613fb482613f73565b602082019050919050565b60006020820190508181036000830152613fd881613f9c565b9050919050565b6000604082019050613ff4600083018561396b565b614001602083018461342a565b9392505050565b6000819050919050565b600061402d61402861402384614008565b613874565b613420565b9050919050565b61403d81614012565b82525050565b6000604082019050614058600083018561342a565b6140656020830184614034565b9392505050565b7f4e6f207265776172647320617661696c61626c65000000000000000000000000600082015250565b60006140a26014836138ee565b91506140ad8261406c565b602082019050919050565b600060208201905081810360008301526140d181614095565b9050919050565b7f416c6c0000000000000000000000000000000000000000000000000000000000600082015250565b600061410e600383613b8b565b9150614119826140d8565b600382019050919050565b600061412f82614101565b9150819050919050565b7f456d657267656e6379206d6f6465206e6f742061637469766500000000000000600082015250565b600061416f6019836138ee565b915061417a82614139565b602082019050919050565b6000602082019050818103600083015261419e81614162565b9050919050565b60006040820190506141ba600083018561396b565b6141c760208301846137c5565b939250505056fea26469706673582212203fddefc88506313bc60c7c39189f8549df1443b23c73e594baed33ff5619ee8f64736f6c634300081b0033",
  "linkReferences": {},
  "deployedLinkReferences": {}
}