{
  "_format": "hh-sol-artifact-1",
  "contractName": "MoonCatStaking",
  "sourceName": "contracts/MoonCatStaking.sol",
  "abi": [
    {
      "inputs": [
        {
          "internalType": "contract MoonCatToken",
          "name": "_token",
          "type": "address"
        }
      ],
      "stateMutability": "nonpayable",
      "type": "constructor"
    },
    {
      "inputs": [],
      "name": "AccessControlBadConfirmation",
      "type": "error"
    },
    {
      "inputs": [
        {
          "internalType": "address",
          "name": "account",
          "type": "address"
        },
        {
          "internalType": "bytes32",
          "name": "neededRole",
          "type": "bytes32"
        }
      ],
      "name": "AccessControlUnauthorizedAccount",
      "type": "error"
    },
    {
      "inputs": [],
      "name": "EnforcedPause",
      "type": "error"
    },
    {
      "inputs": [],
      "name": "ExpectedPause",
      "type": "error"
    },
    {
      "inputs": [],
      "name": "ReentrancyGuardReentrantCall",
      "type": "error"
    },
    {
      "anonymous": false,
      "inputs": [
        {
          "indexed": true,
          "internalType": "address",
          "name": "by",
          "type": "address"
        }
      ],
      "name": "EmergencyModeEnabled",
      "type": "event"
    },
    {
      "anonymous": false,
      "inputs": [
        {
          "indexed": true,
          "internalType": "address",
          "name": "user",
          "type": "address"
        },
        {
          "indexed": false,
          "internalType": "uint256",
          "name": "amount",
          "type": "uint256"
        },
        {
          "indexed": false,
          "internalType": "uint256",
          "name": "fee",
          "type": "uint256"
        }
      ],
      "name": "EmergencyWithdraw",
      "type": "event"
    },
    {
      "anonymous": false,
      "inputs": [
        {
          "indexed": true,
          "internalType": "address",
          "name": "user",
          "type": "address"
        },
        {
          "indexed": false,
          "internalType": "uint256",
          "name": "amount",
          "type": "uint256"
        },
        {
          "indexed": false,
          "internalType": "uint256",
          "name": "penalty",
          "type": "uint256"
        },
        {
          "indexed": true,
          "internalType": "string",
          "name": "stakeType",
          "type": "string"
        }
      ],
      "name": "ForceUnlocked",
      "type": "event"
    },
    {
      "anonymous": false,
      "inputs": [
        {
          "indexed": true,
          "internalType": "address",
          "name": "user",
          "type": "address"
        },
        {
          "indexed": false,
          "internalType": "uint256",
          "name": "reward",
          "type": "uint256"
        },
        {
          "indexed": true,
          "internalType": "string",
          "name": "stakeType",
          "type": "string"
        }
      ],
      "name": "InterestWithdrawn",
      "type": "event"
    },
    {
      "anonymous": false,
      "inputs": [
        {
          "indexed": false,
          "internalType": "address",
          "name": "account",
          "type": "address"
        }
      ],
      "name": "Paused",
      "type": "event"
    },
    {
      "anonymous": false,
      "inputs": [
        {
          "indexed": true,
          "internalType": "string",
          "name": "stakeType",
          "type": "string"
        },
        {
          "indexed": false,
          "internalType": "uint256",
          "name": "oldRate",
          "type": "uint256"
        },
        {
          "indexed": false,
          "internalType": "uint256",
          "name": "newRate",
          "type": "uint256"
        }
      ],
      "name": "RateChanged",
      "type": "event"
    },
    {
      "anonymous": false,
      "inputs": [
        {
          "indexed": true,
          "internalType": "bytes32",
          "name": "role",
          "type": "bytes32"
        },
        {
          "indexed": true,
          "internalType": "bytes32",
          "name": "previousAdminRole",
          "type": "bytes32"
        },
        {
          "indexed": true,
          "internalType": "bytes32",
          "name": "newAdminRole",
          "type": "bytes32"
        }
      ],
      "name": "RoleAdminChanged",
      "type": "event"
    },
    {
      "anonymous": false,
      "inputs": [
        {
          "indexed": true,
          "internalType": "bytes32",
          "name": "role",
          "type": "bytes32"
        },
        {
          "indexed": true,
          "internalType": "address",
          "name": "account",
          "type": "address"
        },
        {
          "indexed": true,
          "internalType": "address",
          "name": "sender",
          "type": "address"
        }
      ],
      "name": "RoleGranted",
      "type": "event"
    },
    {
      "anonymous": false,
      "inputs": [
        {
          "indexed": true,
          "internalType": "bytes32",
          "name": "role",
          "type": "bytes32"
        },
        {
          "indexed": true,
          "internalType": "address",
          "name": "account",
          "type": "address"
        },
        {
          "indexed": true,
          "internalType": "address",
          "name": "sender",
          "type": "address"
        }
      ],
      "name": "RoleRevoked",
      "type": "event"
    },
    {
      "anonymous": false,
      "inputs": [
        {
          "indexed": true,
          "internalType": "address",
          "name": "user",
          "type": "address"
        },
        {
          "indexed": false,
          "internalType": "uint256",
          "name": "originalAmount",
          "type": "uint256"
        },
        {
          "indexed": false,
          "internalType": "uint256",
          "name": "compoundedInterest",
          "type": "uint256"
        },
        {
          "indexed": false,
          "internalType": "uint256",
          "name": "newTotal",
          "type": "uint256"
        },
        {
          "indexed": true,
          "internalType": "string",
          "name": "stakeType",
          "type": "string"
        }
      ],
      "name": "StakeCompounded",
      "type": "event"
    },
    {
      "anonymous": false,
      "inputs": [
        {
          "indexed": true,
          "internalType": "address",
          "name": "user",
          "type": "address"
        },
        {
          "indexed": false,
          "internalType": "uint256",
          "name": "amount",
          "type": "uint256"
        },
        {
          "indexed": false,
          "internalType": "uint256",
          "name": "since",
          "type": "uint256"
        },
        {
          "indexed": true,
          "internalType": "string",
          "name": "stakeType",
          "type": "string"
        }
      ],
      "name": "Staked",
      "type": "event"
    },
    {
      "anonymous": false,
      "inputs": [
        {
          "indexed": true,
          "internalType": "address",
          "name": "user",
          "type": "address"
        },
        {
          "indexed": false,
          "internalType": "uint256",
          "name": "unlockRequestTime",
          "type": "uint256"
        },
        {
          "indexed": true,
          "internalType": "string",
          "name": "stakeType",
          "type": "string"
        }
      ],
      "name": "UnlockRequested",
      "type": "event"
    },
    {
      "anonymous": false,
      "inputs": [
        {
          "indexed": false,
          "internalType": "address",
          "name": "account",
          "type": "address"
        }
      ],
      "name": "Unpaused",
      "type": "event"
    },
    {
      "anonymous": false,
      "inputs": [
        {
          "indexed": true,
          "internalType": "address",
          "name": "user",
          "type": "address"
        },
        {
          "indexed": false,
          "internalType": "uint256",
          "name": "amount",
          "type": "uint256"
        },
        {
          "indexed": false,
          "internalType": "uint256",
          "name": "reward",
          "type": "uint256"
        },
        {
          "indexed": true,
          "internalType": "string",
          "name": "stakeType",
          "type": "string"
        }
      ],
      "name": "Unstaked",
      "type": "event"
    },
    {
      "inputs": [],
      "name": "BASIS_POINTS",
      "outputs": [
        {
          "internalType": "uint256",
          "name": "",
          "type": "uint256"
        }
      ],
      "stateMutability": "view",
      "type": "function"
    },
    {
      "inputs": [],
      "name": "DEFAULT_ADMIN_ROLE",
      "outputs": [
        {
          "internalType": "bytes32",
          "name": "",
          "type": "bytes32"
        }
      ],
      "stateMutability": "view",
      "type": "function"
    },
    {
      "inputs": [],
      "name": "FORCE_UNLOCK_PENALTY",
      "outputs": [
        {
          "internalType": "uint256",
          "name": "",
          "type": "uint256"
        }
      ],
      "stateMutability": "view",
      "type": "function"
    },
    {
      "inputs": [],
      "name": "GOVERNOR_ROLE",
      "outputs": [
        {
          "internalType": "bytes32",
          "name": "",
          "type": "bytes32"
        }
      ],
      "stateMutability": "view",
      "type": "function"
    },
    {
      "inputs": [],
      "name": "MAX_RATE_1YEAR",
      "outputs": [
        {
          "internalType": "uint256",
          "name": "",
          "type": "uint256"
        }
      ],
      "stateMutability": "view",
      "type": "function"
    },
    {
      "inputs": [],
      "name": "MAX_RATE_7DAYS",
      "outputs": [
        {
          "internalType": "uint256",
          "name": "",
          "type": "uint256"
        }
      ],
      "stateMutability": "view",
      "type": "function"
    },
    {
      "inputs": [],
      "name": "MAX_STAKE_AMOUNT",
      "outputs": [
        {
          "internalType": "uint256",
          "name": "",
          "type": "uint256"
        }
      ],
      "stateMutability": "view",
      "type": "function"
    },
    {
      "inputs": [],
      "name": "PAUSER_ROLE",
      "outputs": [
        {
          "internalType": "bytes32",
          "name": "",
          "type": "bytes32"
        }
      ],
      "stateMutability": "view",
      "type": "function"
    },
    {
      "inputs": [],
      "name": "RATE_CHANGE_COOLDOWN",
      "outputs": [
        {
          "internalType": "uint256",
          "name": "",
          "type": "uint256"
        }
      ],
      "stateMutability": "view",
      "type": "function"
    },
    {
      "inputs": [],
      "name": "UNLOCK_PERIOD_1YEAR",
      "outputs": [
        {
          "internalType": "uint256",
          "name": "",
          "type": "uint256"
        }
      ],
      "stateMutability": "view",
      "type": "function"
    },
    {
      "inputs": [],
      "name": "UNLOCK_PERIOD_7DAYS",
      "outputs": [
        {
          "internalType": "uint256",
          "name": "",
          "type": "uint256"
        }
      ],
      "stateMutability": "view",
      "type": "function"
    },
    {
      "inputs": [
        {
          "components": [
            {
              "internalType": "uint256",
              "name": "amount",
              "type": "uint256"
            },
            {
              "internalType": "uint256",
              "name": "since",
              "type": "uint256"
            },
            {
              "internalType": "uint256",
              "name": "unlockRequestTime",
              "type": "uint256"
            },
            {
              "internalType": "bool",
              "name": "isLocked",
              "type": "bool"
            }
          ],
          "internalType": "struct MoonCatStaking.Stake",
          "name": "stake",
          "type": "tuple"
        },
        {
          "internalType": "uint256",
          "name": "rate",
          "type": "uint256"
        }
      ],
      "name": "calculatePendingRewards",
      "outputs": [
        {
          "internalType": "uint256",
          "name": "",
          "type": "uint256"
        }
      ],
      "stateMutability": "view",
      "type": "function"
    },
    {
      "inputs": [
        {
          "internalType": "address",
          "name": "user",
          "type": "address"
        },
        {
          "internalType": "bool",
          "name": "is7Days",
          "type": "bool"
        }
      ],
      "name": "debugCalculation",
      "outputs": [
        {
          "internalType": "uint256",
          "name": "stakeAmount",
          "type": "uint256"
        },
        {
          "internalType": "uint256",
          "name": "stakeDuration",
          "type": "uint256"
        },
        {
          "internalType": "uint256",
          "name": "rate",
          "type": "uint256"
        },
        {
          "internalType": "uint256",
          "name": "calculatedInterest",
          "type": "uint256"
        },
        {
          "internalType": "bool",
          "name": "isLocked",
          "type": "bool"
        },
        {
          "internalType": "uint256",
          "name": "unlockRequestTime",
          "type": "uint256"
        }
      ],
      "stateMutability": "view",
      "type": "function"
    },
    {
      "inputs": [],
      "name": "emergencyMode",
      "outputs": [
        {
          "internalType": "bool",
          "name": "",
          "type": "bool"
        }
      ],
      "stateMutability": "view",
      "type": "function"
    },
    {
      "inputs": [],
      "name": "emergencyWithdraw",
      "outputs": [],
      "stateMutability": "nonpayable",
      "type": "function"
    },
    {
      "inputs": [],
      "name": "enableEmergencyMode",
      "outputs": [],
      "stateMutability": "nonpayable",
      "type": "function"
    },
    {
      "inputs": [],
      "name": "forceUnlock1Year",
      "outputs": [],
      "stateMutability": "nonpayable",
      "type": "function"
    },
    {
      "inputs": [],
      "name": "forceUnlock7Days",
      "outputs": [],
      "stateMutability": "nonpayable",
      "type": "function"
    },
    {
      "inputs": [
        {
          "internalType": "address",
          "name": "user",
          "type": "address"
        }
      ],
      "name": "getAllStakingStats",
      "outputs": [
        {
          "components": [
            {
              "internalType": "uint256",
              "name": "totalStaked",
              "type": "uint256"
            },
            {
              "internalType": "uint256",
              "name": "totalCompounded",
              "type": "uint256"
            },
            {
              "internalType": "uint256",
              "name": "totalWithdrawn",
              "type": "uint256"
            },
            {
              "internalType": "uint256",
              "name": "currentPendingRewards",
              "type": "uint256"
            }
          ],
          "internalType": "struct MoonCatStaking.StakingStats",
          "name": "stats7Days",
          "type": "tuple"
        },
        {
          "components": [
            {
              "internalType": "uint256",
              "name": "totalStaked",
              "type": "uint256"
            },
            {
              "internalType": "uint256",
              "name": "totalCompounded",
              "type": "uint256"
            },
            {
              "internalType": "uint256",
              "name": "totalWithdrawn",
              "type": "uint256"
            },
            {
              "internalType": "uint256",
              "name": "currentPendingRewards",
              "type": "uint256"
            }
          ],
          "internalType": "struct MoonCatStaking.StakingStats",
          "name": "stats1Year",
          "type": "tuple"
        }
      ],
      "stateMutability": "view",
      "type": "function"
    },
    {
      "inputs": [
        {
          "internalType": "bytes32",
          "name": "role",
          "type": "bytes32"
        }
      ],
      "name": "getRoleAdmin",
      "outputs": [
        {
          "internalType": "bytes32",
          "name": "",
          "type": "bytes32"
        }
      ],
      "stateMutability": "view",
      "type": "function"
    },
    {
      "inputs": [
        {
          "internalType": "address",
          "name": "user",
          "type": "address"
        }
      ],
      "name": "getStakeDetails1Year",
      "outputs": [
        {
          "internalType": "uint256",
          "name": "stakedAmount",
          "type": "uint256"
        },
        {
          "internalType": "uint256",
          "name": "pendingRewards",
          "type": "uint256"
        },
        {
          "internalType": "bool",
          "name": "isLocked",
          "type": "bool"
        },
        {
          "internalType": "uint256",
          "name": "unlockRequestTime",
          "type": "uint256"
        },
        {
          "internalType": "uint256",
          "name": "timeStaked",
          "type": "uint256"
        }
      ],
      "stateMutability": "view",
      "type": "function"
    },
    {
      "inputs": [
        {
          "internalType": "address",
          "name": "user",
          "type": "address"
        }
      ],
      "name": "getStakeDetails7Days",
      "outputs": [
        {
          "internalType": "uint256",
          "name": "stakedAmount",
          "type": "uint256"
        },
        {
          "internalType": "uint256",
          "name": "pendingRewards",
          "type": "uint256"
        },
        {
          "internalType": "bool",
          "name": "isLocked",
          "type": "bool"
        },
        {
          "internalType": "uint256",
          "name": "unlockRequestTime",
          "type": "uint256"
        },
        {
          "internalType": "uint256",
          "name": "timeStaked",
          "type": "uint256"
        }
      ],
      "stateMutability": "view",
      "type": "function"
    },
    {
      "inputs": [
        {
          "internalType": "address",
          "name": "user",
          "type": "address"
        },
        {
          "internalType": "bool",
          "name": "is7Days",
          "type": "bool"
        }
      ],
      "name": "getTimeUntilUnlock",
      "outputs": [
        {
          "internalType": "uint256",
          "name": "",
          "type": "uint256"
        }
      ],
      "stateMutability": "view",
      "type": "function"
    },
    {
      "inputs": [
        {
          "internalType": "bytes32",
          "name": "role",
          "type": "bytes32"
        },
        {
          "internalType": "address",
          "name": "account",
          "type": "address"
        }
      ],
      "name": "grantRole",
      "outputs": [],
      "stateMutability": "nonpayable",
      "type": "function"
    },
    {
      "inputs": [
        {
          "internalType": "bytes32",
          "name": "role",
          "type": "bytes32"
        },
        {
          "internalType": "address",
          "name": "account",
          "type": "address"
        }
      ],
      "name": "hasRole",
      "outputs": [
        {
          "internalType": "bool",
          "name": "",
          "type": "bool"
        }
      ],
      "stateMutability": "view",
      "type": "function"
    },
    {
      "inputs": [
        {
          "components": [
            {
              "internalType": "uint256",
              "name": "amount",
              "type": "uint256"
            },
            {
              "internalType": "uint256",
              "name": "since",
              "type": "uint256"
            },
            {
              "internalType": "uint256",
              "name": "unlockRequestTime",
              "type": "uint256"
            },
            {
              "internalType": "bool",
              "name": "isLocked",
              "type": "bool"
            }
          ],
          "internalType": "struct MoonCatStaking.Stake",
          "name": "stake",
          "type": "tuple"
        },
        {
          "internalType": "bool",
          "name": "is7Days",
          "type": "bool"
        }
      ],
      "name": "isUnlockComplete",
      "outputs": [
        {
          "internalType": "bool",
          "name": "",
          "type": "bool"
        }
      ],
      "stateMutability": "view",
      "type": "function"
    },
    {
      "inputs": [],
      "name": "lastRateChange",
      "outputs": [
        {
          "internalType": "uint256",
          "name": "",
          "type": "uint256"
        }
      ],
      "stateMutability": "view",
      "type": "function"
    },
    {
      "inputs": [],
      "name": "pause",
      "outputs": [],
      "stateMutability": "nonpayable",
      "type": "function"
    },
    {
      "inputs": [],
      "name": "paused",
      "outputs": [
        {
          "internalType": "bool",
          "name": "",
          "type": "bool"
        }
      ],
      "stateMutability": "view",
      "type": "function"
    },
    {
      "inputs": [
        {
          "internalType": "bytes32",
          "name": "role",
          "type": "bytes32"
        },
        {
          "internalType": "address",
          "name": "callerConfirmation",
          "type": "address"
        }
      ],
      "name": "renounceRole",
      "outputs": [],
      "stateMutability": "nonpayable",
      "type": "function"
    },
    {
      "inputs": [],
      "name": "requestUnlock1Year",
      "outputs": [],
      "stateMutability": "nonpayable",
      "type": "function"
    },
    {
      "inputs": [],
      "name": "requestUnlock7Days",
      "outputs": [],
      "stateMutability": "nonpayable",
      "type": "function"
    },
    {
      "inputs": [
        {
          "internalType": "bytes32",
          "name": "role",
          "type": "bytes32"
        },
        {
          "internalType": "address",
          "name": "account",
          "type": "address"
        }
      ],
      "name": "revokeRole",
      "outputs": [],
      "stateMutability": "nonpayable",
      "type": "function"
    },
    {
      "inputs": [],
      "name": "rewardRate1Year",
      "outputs": [
        {
          "internalType": "uint256",
          "name": "",
          "type": "uint256"
        }
      ],
      "stateMutability": "view",
      "type": "function"
    },
    {
      "inputs": [],
      "name": "rewardRate7Days",
      "outputs": [
        {
          "internalType": "uint256",
          "name": "",
          "type": "uint256"
        }
      ],
      "stateMutability": "view",
      "type": "function"
    },
    {
      "inputs": [
        {
          "internalType": "uint256",
          "name": "_newRate",
          "type": "uint256"
        }
      ],
      "name": "setRewardRate1Year",
      "outputs": [],
      "stateMutability": "nonpayable",
      "type": "function"
    },
    {
      "inputs": [
        {
          "internalType": "uint256",
          "name": "_newRate",
          "type": "uint256"
        }
      ],
      "name": "setRewardRate7Days",
      "outputs": [],
      "stateMutability": "nonpayable",
      "type": "function"
    },
    {
      "inputs": [
        {
          "internalType": "uint256",
          "name": "_amount",
          "type": "uint256"
        }
      ],
      "name": "stake1Year",
      "outputs": [],
      "stateMutability": "nonpayable",
      "type": "function"
    },
    {
      "inputs": [
        {
          "internalType": "uint256",
          "name": "_amount",
          "type": "uint256"
        }
      ],
      "name": "stake7Days",
      "outputs": [],
      "stateMutability": "nonpayable",
      "type": "function"
    },
    {
      "inputs": [
        {
          "internalType": "address",
          "name": "",
          "type": "address"
        }
      ],
      "name": "stakes1Year",
      "outputs": [
        {
          "internalType": "uint256",
          "name": "amount",
          "type": "uint256"
        },
        {
          "internalType": "uint256",
          "name": "since",
          "type": "uint256"
        },
        {
          "internalType": "uint256",
          "name": "unlockRequestTime",
          "type": "uint256"
        },
        {
          "internalType": "bool",
          "name": "isLocked",
          "type": "bool"
        }
      ],
      "stateMutability": "view",
      "type": "function"
    },
    {
      "inputs": [
        {
          "internalType": "address",
          "name": "",
          "type": "address"
        }
      ],
      "name": "stakes7Days",
      "outputs": [
        {
          "internalType": "uint256",
          "name": "amount",
          "type": "uint256"
        },
        {
          "internalType": "uint256",
          "name": "since",
          "type": "uint256"
        },
        {
          "internalType": "uint256",
          "name": "unlockRequestTime",
          "type": "uint256"
        },
        {
          "internalType": "bool",
          "name": "isLocked",
          "type": "bool"
        }
      ],
      "stateMutability": "view",
      "type": "function"
    },
    {
      "inputs": [
        {
          "internalType": "address",
          "name": "",
          "type": "address"
        }
      ],
      "name": "stakingStats1Year",
      "outputs": [
        {
          "internalType": "uint256",
          "name": "totalStaked",
          "type": "uint256"
        },
        {
          "internalType": "uint256",
          "name": "totalCompounded",
          "type": "uint256"
        },
        {
          "internalType": "uint256",
          "name": "totalWithdrawn",
          "type": "uint256"
        },
        {
          "internalType": "uint256",
          "name": "currentPendingRewards",
          "type": "uint256"
        }
      ],
      "stateMutability": "view",
      "type": "function"
    },
    {
      "inputs": [
        {
          "internalType": "address",
          "name": "",
          "type": "address"
        }
      ],
      "name": "stakingStats7Days",
      "outputs": [
        {
          "internalType": "uint256",
          "name": "totalStaked",
          "type": "uint256"
        },
        {
          "internalType": "uint256",
          "name": "totalCompounded",
          "type": "uint256"
        },
        {
          "internalType": "uint256",
          "name": "totalWithdrawn",
          "type": "uint256"
        },
        {
          "internalType": "uint256",
          "name": "currentPendingRewards",
          "type": "uint256"
        }
      ],
      "stateMutability": "view",
      "type": "function"
    },
    {
      "inputs": [
        {
          "internalType": "bytes4",
          "name": "interfaceId",
          "type": "bytes4"
        }
      ],
      "name": "supportsInterface",
      "outputs": [
        {
          "internalType": "bool",
          "name": "",
          "type": "bool"
        }
      ],
      "stateMutability": "view",
      "type": "function"
    },
    {
      "inputs": [],
      "name": "token",
      "outputs": [
        {
          "internalType": "contract MoonCatToken",
          "name": "",
          "type": "address"
        }
      ],
      "stateMutability": "view",
      "type": "function"
    },
    {
      "inputs": [],
      "name": "unpause",
      "outputs": [],
      "stateMutability": "nonpayable",
      "type": "function"
    },
    {
      "inputs": [],
      "name": "unstake1Year",
      "outputs": [],
      "stateMutability": "nonpayable",
      "type": "function"
    },
    {
      "inputs": [],
      "name": "unstake7Days",
      "outputs": [],
      "stateMutability": "nonpayable",
      "type": "function"
    },
    {
      "inputs": [],
      "name": "withdrawAllInterest",
      "outputs": [],
      "stateMutability": "nonpayable",
      "type": "function"
    }
  ],
  "bytecode": "0x60a060405234801561001057600080fd5b5060405161288b38038061288b83398101604081905261002f9161016b565b60016000556002805460ff191690556001600160a01b03811661005157600080fd5b6001600160a01b0381166080526100696000336100d6565b506100947f7935bd0ae54bc31f548c14dba4d37c5c64b3f8ca900cb468fb8abd54d5894f55336100d6565b506100bf7f65d7a28e3265b37a6474929f336521b332c1681b933f6cb9f3376673440d862a336100d6565b505061027a6007556103bf60085542600a5561019b565b60008281526001602090815260408083206001600160a01b038516845290915281205460ff166101615760008381526001602081815260408084206001600160a01b0387168086529252808420805460ff19169093179092559051339286917f2f8788117e7eff1d82e926ec794901d17c78024a50270940304540a733656f0d9190a4506001610165565b5060005b92915050565b60006020828403121561017d57600080fd5b81516001600160a01b038116811461019457600080fd5b9392505050565b60805161269d6101ee600039600081816106ea015281816108f6015281816111710152818161138b015281816115140152818161193a01528181611b7e01528181611e4b0152611fc8015261269d6000f3fe608060405234801561001057600080fd5b50600436106102bb5760003560e01c806378a95e0711610182578063ccc57490116100e9578063dd847c88116100a2578063e63ab1e91161007c578063e63ab1e91461067c578063e6970288146106a3578063fb30eba8146106ab578063fc0c546a146106e557600080fd5b8063dd847c88146105e4578063df9121951461063e578063e1f1c4a71461067357600080fd5b8063ccc574901461054f578063cda01fc314610576578063d547741f1461057e578063da71ae7914610591578063db0794db1461059a578063db2e21bc146105dc57600080fd5b8063a217fddf1161013b578063a217fddf14610524578063ba3f1b591461052c578063bb9287ad14610534578063c513b600146104ac578063c541f8391461053c578063c5b1c7d01461054757600080fd5b806378a95e07146104c65780638456cb59146104d057806386c39df4146104d857806391d14854146104eb578063935feabe146104fe5780639a71d6c41461051157600080fd5b8063324d5d4a116102265780635c975abb116101df5780635c975abb1461049957806364f47933146104a4578063690cc599146104ac5780636abcc092146104b55780636d3995c5146104be5780636eaa7ba2146104c657600080fd5b8063324d5d4a1461044657806336568abe146104595780633f4ba83a1461046c57806349730fc1146104745780634cdcc9f11461047d57806356e586ba1461049057600080fd5b80631532d0ba116102785780631532d0ba146103c2578063187ff78d146103ca578063248a9ca3146103eb57806329da3d931461040f5780632f2ff15d146104225780632f92f1f21461043557600080fd5b806301ffc9a7146102c0578063058c83bd146102e85780630905f5601461033d5780630f544ac71461034a5780630f6037021461035f57806311268f4d146103a1575b600080fd5b6102d36102ce3660046123d0565b610724565b60405190151581526020015b60405180910390f35b61031d6102f6366004612416565b60066020526000908152604090208054600182015460028301546003909301549192909184565b6040805194855260208501939093529183015260608201526080016102df565b6009546102d39060ff1681565b61035d610358366004612431565b61075b565b005b61037261036d366004612416565b610a2b565b6040516102df959493929190948552602085019390935290151560408401526060830152608082015260a00190565b6103b46103af366004612416565b610ab2565b6040516102df92919061244a565b61035d610c24565b6103dd6103d8366004612520565b610d39565b6040519081526020016102df565b6103dd6103f9366004612431565b6000908152600160208190526040909120015490565b61035d61041d366004612431565b610e1e565b61035d61043036600461254b565b610ef7565b6103dd69d3c21bcecceda100000081565b6102d3610454366004612577565b610f23565b61035d61046736600461254b565b610f6c565b61035d610fa4565b6103dd60075481565b61035d61048b366004612431565b610fd6565b6103dd6126ac81565b60025460ff166102d3565b61035d611257565b6103dd61138881565b6103dd60085481565b61035d611460565b6103dd62093a8081565b61035d6115d5565b61035d6104e6366004612431565b611607565b6102d36104f936600461254b565b61169b565b6103dd61050c3660046125af565b6116c6565b61037261051f366004612416565b611794565b6103dd600081565b61035d6117f9565b61035d6118ce565b6103dd6301e1338081565b61035d611a00565b6103dd7f7935bd0ae54bc31f548c14dba4d37c5c64b3f8ca900cb468fb8abd54d5894f5581565b61035d611a4e565b61035d61058c36600461254b565b611c00565b6103dd600a5481565b6105ad6105a83660046125af565b611c26565b6040805196875260208701959095529385019290925260608401521515608083015260a082015260c0016102df565b61035d611d69565b61061c6105f2366004612416565b60046020526000908152604090208054600182015460028301546003909301549192909160ff1684565b60408051948552602085019390935291830152151560608201526080016102df565b61031d61064c366004612416565b60056020526000908152604090208054600182015460028301546003909301549192909184565b6103dd61271081565b6103dd7f65d7a28e3265b37a6474929f336521b332c1681b933f6cb9f3376673440d862a81565b61035d611f11565b61061c6106b9366004612416565b600360208190526000918252604090912080546001820154600283015492909301549092919060ff1684565b61070c7f000000000000000000000000000000000000000000000000000000000000000081565b6040516001600160a01b0390911681526020016102df565b60006001600160e01b03198216637965db0b60e01b148061075557506301ffc9a760e01b6001600160e01b03198316145b92915050565b61076361204a565b61076b612074565b6000811161077857600080fd5b69d3c21bcecceda100000081111561078f57600080fd5b3360009081526003602052604090205469d3c21bcecceda1000000906107b69083906125f1565b11156107c157600080fd5b3360009081526003602052604090208054158015906107e45750600381015460ff165b156108d45780546040805160808101825282815260018401546020820152600284015491810191909152600383015460ff161515606082015260075460009161082c91610d39565b90508083600001600082825461084291906125f1565b909155505042600184015580156108d15733600090815260056020526040812060010180548392906108759084906125f1565b909155505060405161088690612604565b60408051918290038220855485845260208401859052838301529051909133917f7bdaaefb6d3f467f6801b8f10e62f3ad80c945b1770ecb80fdce030e2599fa709181900360600190a35b50505b6040516323b872dd60e01b8152336004820152306024820152604481018390527f00000000000000000000000000000000000000000000000000000000000000006001600160a01b0316906323b872dd906064016020604051808303816000875af1158015610947573d6000803e3d6000fd5b505050506040513d601f19601f8201168201806040525081019061096b9190612615565b61097457600080fd5b8181600001600082825461098891906125f1565b90915550504260018083019190915560038201805460ff1916909117905560006002820181905533815260056020526040812080548492906109cb9084906125f1565b90915550506040516109dc90612604565b604080519182900382208483524260208401529133917f66d612d12bb1902ec26fd9a4991d9d58d71d0580427497d62731e7527f1e01a4910160405180910390a350610a286001600055565b50565b6001600160a01b0381166000908152600360208181526040808420815160808101835281548082526001830154948201949094526002820154928101929092529092015460ff161515606083015260075483928392839283929190610a91908390610d39565b60608301516040840151602090940151929a91995097509195509350915050565b610add6040518060800160405280600081526020016000815260200160008152602001600081525090565b610b086040518060800160405280600081526020016000815260200160008152602001600081525090565b50506001600160a01b038116600081815260056020908152604080832081516080808201845282548252600180840154838701526002808501548487015260039485015460608086019190915289895260068852868920875180860189528154815281850154818b015281840154818a015290870154818301528a8a52868952878a2088518087018a528154815281860154818c015281850154818b01529088015460ff9081161515828501529b8b5260048a529988902088519586018952805486529384015498850198909852908201549583019590955290920154909516151591810191909152600754919291610c02908390610d39565b6060850152600854610c15908290610d39565b60608401525091939092509050565b610c2c612074565b3360009081526004602052604090208054610c4657600080fd5b600281015415610c5557600080fd5b604080516080810182528254815260018301546020820152600283015491810191909152600382015460ff1615156060820152600854600091610c9791610d39565b90508015610ce05780826000016000828254610cb391906125f1565b90915550503360009081526006602052604081206001018054839290610cda9084906125f1565b90915550505b42600183018190556002830155604051610cf990612632565b6040519081900381204282529033907faf1e05ce41cdb4bdc4f23bff459f1b9173663f6a49fcf52898845f8d659068869060200160405180910390a35050565b81516000901580610d4c57508260600151155b15610d5957506000610755565b604083015160009015610dcc5760006007548414610d7b576301e13380610d80565b62093a805b90506000818660400151610d9491906125f1565b9050804210610db3576020860151610dac9082612644565b9250610dc5565b6020860151610dc29042612644565b92505b5050610dde565b6020840151610ddb9042612644565b90505b6301e133806000610df182612710612657565b86518490610e00908890612657565b610e0a9190612657565b610e14919061266e565b9695505050505050565b7f7935bd0ae54bc31f548c14dba4d37c5c64b3f8ca900cb468fb8abd54d5894f55610e4881612098565b610e50612074565b611388821115610e5f57600080fd5b600a5415801590610e785750610e7660003361169b565b155b15610e9a5762093a80600a54610e8e91906125f1565b421015610e9a57600080fd5b600780549083905542600a55604051610eb290612604565b6040805191829003822083835260208301869052917f4451261fd4f7dbcc8fd7251b7a2f5501686e0ab7fad43ce240b0a0d60155eb6b910160405180910390a2505050565b60008281526001602081905260409091200154610f1381612098565b610f1d83836120a2565b50505050565b60008260400151600003610f3957506000610755565b600082610f4a576301e13380610f4f565b62093a805b9050808460400151610f6191906125f1565b421015949350505050565b6001600160a01b0381163314610f955760405163334bd91960e11b815260040160405180910390fd5b610f9f828261211b565b505050565b7f65d7a28e3265b37a6474929f336521b332c1681b933f6cb9f3376673440d862a610fce81612098565b610a28612188565b610fde61204a565b610fe6612074565b60008111610ff357600080fd5b69d3c21bcecceda100000081111561100a57600080fd5b3360009081526004602052604090205469d3c21bcecceda1000000906110319083906125f1565b111561103c57600080fd5b33600090815260046020526040902080541580159061105f5750600381015460ff165b1561114f5780546040805160808101825282815260018401546020820152600284015491810191909152600383015460ff16151560608201526008546000916110a791610d39565b9050808360000160008282546110bd91906125f1565b9091555050426001840155801561114c5733600090815260066020526040812060010180548392906110f09084906125f1565b909155505060405161110190612632565b60408051918290038220855485845260208401859052838301529051909133917f7bdaaefb6d3f467f6801b8f10e62f3ad80c945b1770ecb80fdce030e2599fa709181900360600190a35b50505b6040516323b872dd60e01b8152336004820152306024820152604481018390527f00000000000000000000000000000000000000000000000000000000000000006001600160a01b0316906323b872dd906064016020604051808303816000875af11580156111c2573d6000803e3d6000fd5b505050506040513d601f19601f820116820180604052508101906111e69190612615565b6111ef57600080fd5b8181600001600082825461120391906125f1565b90915550504260018083019190915560038201805460ff1916909117905560006002820181905533815260066020526040812080548492906112469084906125f1565b90915550506040516109dc90612632565b61125f61204a565b611267612074565b336000908152600460205260409020805461128157600080fd5b600081600201541161129257600080fd5b6301e1338081600201546112a691906125f1565b4210156112b257600080fd5b604080516080810182528254815260018301546020820152600283015491810191909152600382015460ff16151560608201526008546000916112f491610d39565b825490915081156113365761130982826125f1565b336000908152600660205260408120600201805492935084929091906113309084906125f1565b90915550505b3360008181526004602081905260408083208381556001810184905560028101939093556003909201805460ff19169055905163a9059cbb60e01b815290810191909152602481018290526001600160a01b037f0000000000000000000000000000000000000000000000000000000000000000169063a9059cbb906044016020604051808303816000875af11580156113d4573d6000803e3d6000fd5b505050506040513d601f19601f820116820180604052508101906113f89190612615565b61140157600080fd5b60405161140d90612632565b6040805191829003822085548352602083018590529133917fd224ec5ad02946fe147952e6ad900ce0567e05d53bd64beb1b564a8c603d869c91015b60405180910390a350505061145e6001600055565b565b61146861204a565b611470612074565b336000908152600360205260409020805461148a57600080fd5b600061271061138883600001546114a19190612657565b6114ab919061266e565b905060008183600001546114bf9190612644565b3360008181526003602081905260408083208381556001810184905560028101939093559101805460ff191690555163a9059cbb60e01b81526004810191909152602481018290529091506001600160a01b037f0000000000000000000000000000000000000000000000000000000000000000169063a9059cbb906044016020604051808303816000875af115801561155d573d6000803e3d6000fd5b505050506040513d601f19601f820116820180604052508101906115819190612615565b61158a57600080fd5b60405161159690612604565b60408051918290038220838352602083018590529133917f07d8a820151595a9521ea31802fb99d26992342fa0127530e142ff352ccd6a759101611449565b7f65d7a28e3265b37a6474929f336521b332c1681b933f6cb9f3376673440d862a6115ff81612098565b610a286121da565b7f7935bd0ae54bc31f548c14dba4d37c5c64b3f8ca900cb468fb8abd54d5894f5561163181612098565b611639612074565b6126ac82111561164857600080fd5b600a5415801590611661575061165f60003361169b565b155b156116835762093a80600a5461167791906125f1565b42101561168357600080fd5b600880549083905542600a55604051610eb290612632565b60009182526001602090815260408084206001600160a01b0393909316845291905290205460ff1690565b600080826116eb576001600160a01b0384166000908152600460205260409020611704565b6001600160a01b03841660009081526003602052604090205b604080516080810182528254815260018301546020820152600283015491810182905260039092015460ff161515606083015290915060000361174b576000915050610755565b60008361175c576301e13380611761565b62093a805b9050600081836040015161177591906125f1565b905080421061178a5760009350505050610755565b610e144282612644565b6001600160a01b0381166000908152600460209081526040808320815160808101835281548082526001830154948201949094526002820154928101929092526003015460ff1615156060820152600854839283928392839290610a91908390610d39565b611801612074565b336000908152600360205260409020805461181b57600080fd5b60028101541561182a57600080fd5b604080516080810182528254815260018301546020820152600283015491810191909152600382015460ff161515606082015260075460009161186c91610d39565b905080156118b5578082600001600082825461188891906125f1565b909155505033600090815260056020526040812060010180548392906118af9084906125f1565b90915550505b42600183018190556002830155604051610cf990612604565b6118d661204a565b6118de612074565b6000806118ea33612217565b90506118f681836125f1565b91506000611903336122c8565b905061190f81846125f1565b92506000831161191e57600080fd5b60405163a9059cbb60e01b8152336004820152602481018490527f00000000000000000000000000000000000000000000000000000000000000006001600160a01b03169063a9059cbb906044016020604051808303816000875af115801561198b573d6000803e3d6000fd5b505050506040513d601f19601f820116820180604052508101906119af9190612615565b6119b857600080fd5b60405162105b1b60ea1b81526003016040519081900381208482529033907f763d906f989b508baa591b85de06a2ce96a1335d3064e5477fe743df43a30b4590602001611449565b6000611a0b81612098565b6009805460ff19166001179055611a206121da565b60405133907fc0a1c7e9f05b4d536e1ff8606bae9b847cdb43ef4a9b2d7a503a88cee08dccdb90600090a250565b611a5661204a565b611a5e612074565b3360009081526003602052604090208054611a7857600080fd5b6000816002015411611a8957600080fd5b62093a808160020154611a9c91906125f1565b421015611aa857600080fd5b604080516080810182528254815260018301546020820152600283015491810191909152600382015460ff1615156060820152600754600091611aea91610d39565b82549091508115611b2c57611aff82826125f1565b33600090815260056020526040812060020180549293508492909190611b269084906125f1565b90915550505b3360008181526003602081905260408083208381556001810184905560028101939093559101805460ff191690555163a9059cbb60e01b81526004810191909152602481018290526001600160a01b037f0000000000000000000000000000000000000000000000000000000000000000169063a9059cbb906044016020604051808303816000875af1158015611bc7573d6000803e3d6000fd5b505050506040513d601f19601f82011682018060405250810190611beb9190612615565b611bf457600080fd5b60405161140d90612604565b60008281526001602081905260409091200154611c1c81612098565b610f1d838361211b565b600080600080600080600087611c53576001600160a01b0389166000908152600460205260409020611c6c565b6001600160a01b03891660009081526003602052604090205b60408051608081018252825481526001830154602082015260028301549181019190915260039091015460ff16151560608201529050600088611cb157600854611cb5565b6007545b905060008083604001511115611d275760008a611cd6576301e13380611cdb565b62093a805b90506000818560400151611cef91906125f1565b9050804210611d0e576020850151611d079082612644565b9250611d20565b6020850151611d1d9042612644565b92505b5050611d39565b6020830151611d369042612644565b90505b6000611d458484610d39565b84516060860151604090960151909e939d50939b5099509297509095509350505050565b611d7161204a565b60095460ff16611d8057600080fd5b336000908152600360205260408120805415611dd1578054611da290836125f1565b336000908152600360208190526040822082815560018101839055600281019290925501805460ff1916905591505b336000908152600460205260409020805415611e22578054611df390846125f1565b336000908152600460205260408120818155600181018290556002810191909155600301805460ff1916905592505b60008311611e2f57600080fd5b60405163a9059cbb60e01b8152336004820152602481018490527f00000000000000000000000000000000000000000000000000000000000000006001600160a01b03169063a9059cbb906044016020604051808303816000875af1158015611e9c573d6000803e3d6000fd5b505050506040513d601f19601f82011682018060405250810190611ec09190612615565b611ec957600080fd5b604080518481526000602082015233917fbb757047c2b5f3974fe26b7c10f732e7bce710b0952a71082702781e62ae0595910160405180910390a250505061145e6001600055565b611f1961204a565b611f21612074565b3360009081526004602052604090208054611f3b57600080fd5b60006127106113888360000154611f529190612657565b611f5c919061266e565b90506000818360000154611f709190612644565b3360008181526004602081905260408083208381556001810184905560028101939093556003909201805460ff19169055905163a9059cbb60e01b815290810191909152602481018290529091506001600160a01b037f0000000000000000000000000000000000000000000000000000000000000000169063a9059cbb906044016020604051808303816000875af1158015612011573d6000803e3d6000fd5b505050506040513d601f19601f820116820180604052508101906120359190612615565b61203e57600080fd5b60405161159690612632565b60026000540361206d57604051633ee5aeb560e01b815260040160405180910390fd5b6002600055565b60025460ff161561145e5760405163d93c066560e01b815260040160405180910390fd5b610a28813361236c565b60006120ae838361169b565b6121135760008381526001602081815260408084206001600160a01b0387168086529252808420805460ff19169093179092559051339286917f2f8788117e7eff1d82e926ec794901d17c78024a50270940304540a733656f0d9190a4506001610755565b506000610755565b6000612127838361169b565b156121135760008381526001602090815260408083206001600160a01b0386168085529252808320805460ff1916905551339286917ff6391f5c32d9c69d2a47ea670b442974b53935d1edc7fd64eb21e047a839171b9190a4506001610755565b6121906123ad565b6002805460ff191690557f5db9ee0a495bf2e6ff9c91a7834c1ba4fdd244a5e8aa4e537bd38aeae4b073aa335b6040516001600160a01b03909116815260200160405180910390a1565b6121e2612074565b6002805460ff191660011790557f62e78cea01bee320cd4e420270b5ea74000d11b0c9f74754ebdbfc544b05a2586121bd3390565b6001600160a01b0381166000908152600360205260408120805482036122405750600092915050565b604080516080810182528254815260018301546020820152600283015491810191909152600382015460ff161515606082015260075460009161228291610d39565b905080156122c1574260018301556001600160a01b038416600090815260056020526040812060020180548392906122bb9084906125f1565b90915550505b9392505050565b6001600160a01b0381166000908152600460205260408120805482036122f15750600092915050565b604080516080810182528254815260018301546020820152600283015491810191909152600382015460ff161515606082015260085460009161233391610d39565b905080156122c1574260018301556001600160a01b038416600090815260066020526040812060020180548392906122bb9084906125f1565b612376828261169b565b6123a95760405163e2517d3f60e01b81526001600160a01b03821660048201526024810183905260440160405180910390fd5b5050565b60025460ff1661145e57604051638dfc202b60e01b815260040160405180910390fd5b6000602082840312156123e257600080fd5b81356001600160e01b0319811681146122c157600080fd5b80356001600160a01b038116811461241157600080fd5b919050565b60006020828403121561242857600080fd5b6122c1826123fa565b60006020828403121561244357600080fd5b5035919050565b82518152602080840151818301526040808501518184015260608086015181850152845160808501529184015160a084015283015160c083015282015160e082015261010081016122c1565b8015158114610a2857600080fd5b6000608082840312156124b657600080fd5b6040516080810181811067ffffffffffffffff821117156124e757634e487b7160e01b600052604160045260246000fd5b604090815283358252602080850135908301528381013590820152905080606083013561251381612496565b6060919091015292915050565b60008060a0838503121561253357600080fd5b61253d84846124a4565b946080939093013593505050565b6000806040838503121561255e57600080fd5b8235915061256e602084016123fa565b90509250929050565b60008060a0838503121561258a57600080fd5b61259484846124a4565b915060808301356125a481612496565b809150509250929050565b600080604083850312156125c257600080fd5b6125cb836123fa565b915060208301356125a481612496565b634e487b7160e01b600052601160045260246000fd5b80820180821115610755576107556125db565b64372d44617960d81b815260050190565b60006020828403121561262757600080fd5b81516122c181612496565b651896acb2b0b960d11b815260060190565b81810381811115610755576107556125db565b8082028115828204841417610755576107556125db565b60008261268b57634e487b7160e01b600052601260045260246000fd5b50049056fea164736f6c634300081b000a",
  "linkReferences": {},
  "deployedLinkReferences": {}
}