{
  "_format": "hh-sol-artifact-1",
  "contractName": "MoonCatStaking",
  "sourceName": "contracts/MoonCatStaking.sol",
  "abi": [
    {
      "inputs": [
        {
          "internalType": "contract MoonCatToken",
          "name": "_token",
          "type": "address"
        }
      ],
      "stateMutability": "nonpayable",
      "type": "constructor"
    },
    {
      "inputs": [],
      "name": "AccessControlBadConfirmation",
      "type": "error"
    },
    {
      "inputs": [
        {
          "internalType": "address",
          "name": "account",
          "type": "address"
        },
        {
          "internalType": "bytes32",
          "name": "neededRole",
          "type": "bytes32"
        }
      ],
      "name": "AccessControlUnauthorizedAccount",
      "type": "error"
    },
    {
      "inputs": [],
      "name": "EnforcedPause",
      "type": "error"
    },
    {
      "inputs": [],
      "name": "ExpectedPause",
      "type": "error"
    },
    {
      "inputs": [],
      "name": "ReentrancyGuardReentrantCall",
      "type": "error"
    },
    {
      "anonymous": false,
      "inputs": [
        {
          "indexed": true,
          "internalType": "address",
          "name": "by",
          "type": "address"
        }
      ],
      "name": "EmergencyModeDisabled",
      "type": "event"
    },
    {
      "anonymous": false,
      "inputs": [
        {
          "indexed": true,
          "internalType": "address",
          "name": "by",
          "type": "address"
        }
      ],
      "name": "EmergencyModeEnabled",
      "type": "event"
    },
    {
      "anonymous": false,
      "inputs": [
        {
          "indexed": true,
          "internalType": "address",
          "name": "user",
          "type": "address"
        },
        {
          "indexed": false,
          "internalType": "uint256",
          "name": "amount",
          "type": "uint256"
        },
        {
          "indexed": false,
          "internalType": "uint256",
          "name": "fee",
          "type": "uint256"
        }
      ],
      "name": "EmergencyWithdraw",
      "type": "event"
    },
    {
      "anonymous": false,
      "inputs": [
        {
          "indexed": true,
          "internalType": "address",
          "name": "user",
          "type": "address"
        },
        {
          "indexed": false,
          "internalType": "uint256",
          "name": "amount",
          "type": "uint256"
        },
        {
          "indexed": false,
          "internalType": "uint256",
          "name": "penalty",
          "type": "uint256"
        },
        {
          "indexed": true,
          "internalType": "string",
          "name": "stakeType",
          "type": "string"
        }
      ],
      "name": "ForceUnlocked",
      "type": "event"
    },
    {
      "anonymous": false,
      "inputs": [
        {
          "indexed": true,
          "internalType": "address",
          "name": "user",
          "type": "address"
        },
        {
          "indexed": false,
          "internalType": "uint256",
          "name": "reward",
          "type": "uint256"
        },
        {
          "indexed": true,
          "internalType": "string",
          "name": "stakeType",
          "type": "string"
        }
      ],
      "name": "InterestWithdrawn",
      "type": "event"
    },
    {
      "anonymous": false,
      "inputs": [
        {
          "indexed": false,
          "internalType": "address",
          "name": "account",
          "type": "address"
        }
      ],
      "name": "Paused",
      "type": "event"
    },
    {
      "anonymous": false,
      "inputs": [
        {
          "indexed": true,
          "internalType": "string",
          "name": "stakeType",
          "type": "string"
        },
        {
          "indexed": false,
          "internalType": "uint256",
          "name": "oldRate",
          "type": "uint256"
        },
        {
          "indexed": false,
          "internalType": "uint256",
          "name": "newRate",
          "type": "uint256"
        }
      ],
      "name": "RateChanged",
      "type": "event"
    },
    {
      "anonymous": false,
      "inputs": [
        {
          "indexed": true,
          "internalType": "bytes32",
          "name": "role",
          "type": "bytes32"
        },
        {
          "indexed": true,
          "internalType": "bytes32",
          "name": "previousAdminRole",
          "type": "bytes32"
        },
        {
          "indexed": true,
          "internalType": "bytes32",
          "name": "newAdminRole",
          "type": "bytes32"
        }
      ],
      "name": "RoleAdminChanged",
      "type": "event"
    },
    {
      "anonymous": false,
      "inputs": [
        {
          "indexed": true,
          "internalType": "bytes32",
          "name": "role",
          "type": "bytes32"
        },
        {
          "indexed": true,
          "internalType": "address",
          "name": "account",
          "type": "address"
        },
        {
          "indexed": true,
          "internalType": "address",
          "name": "sender",
          "type": "address"
        }
      ],
      "name": "RoleGranted",
      "type": "event"
    },
    {
      "anonymous": false,
      "inputs": [
        {
          "indexed": true,
          "internalType": "bytes32",
          "name": "role",
          "type": "bytes32"
        },
        {
          "indexed": true,
          "internalType": "address",
          "name": "account",
          "type": "address"
        },
        {
          "indexed": true,
          "internalType": "address",
          "name": "sender",
          "type": "address"
        }
      ],
      "name": "RoleRevoked",
      "type": "event"
    },
    {
      "anonymous": false,
      "inputs": [
        {
          "indexed": true,
          "internalType": "address",
          "name": "user",
          "type": "address"
        },
        {
          "indexed": false,
          "internalType": "uint256",
          "name": "originalAmount",
          "type": "uint256"
        },
        {
          "indexed": false,
          "internalType": "uint256",
          "name": "compoundedInterest",
          "type": "uint256"
        },
        {
          "indexed": false,
          "internalType": "uint256",
          "name": "newTotal",
          "type": "uint256"
        },
        {
          "indexed": true,
          "internalType": "string",
          "name": "stakeType",
          "type": "string"
        }
      ],
      "name": "StakeCompounded",
      "type": "event"
    },
    {
      "anonymous": false,
      "inputs": [
        {
          "indexed": true,
          "internalType": "address",
          "name": "user",
          "type": "address"
        },
        {
          "indexed": false,
          "internalType": "uint256",
          "name": "amount",
          "type": "uint256"
        },
        {
          "indexed": false,
          "internalType": "uint256",
          "name": "since",
          "type": "uint256"
        },
        {
          "indexed": true,
          "internalType": "string",
          "name": "stakeType",
          "type": "string"
        }
      ],
      "name": "Staked",
      "type": "event"
    },
    {
      "anonymous": false,
      "inputs": [
        {
          "indexed": true,
          "internalType": "address",
          "name": "user",
          "type": "address"
        },
        {
          "indexed": false,
          "internalType": "uint256",
          "name": "unlockRequestTime",
          "type": "uint256"
        },
        {
          "indexed": true,
          "internalType": "string",
          "name": "stakeType",
          "type": "string"
        }
      ],
      "name": "UnlockRequested",
      "type": "event"
    },
    {
      "anonymous": false,
      "inputs": [
        {
          "indexed": false,
          "internalType": "address",
          "name": "account",
          "type": "address"
        }
      ],
      "name": "Unpaused",
      "type": "event"
    },
    {
      "anonymous": false,
      "inputs": [
        {
          "indexed": true,
          "internalType": "address",
          "name": "user",
          "type": "address"
        },
        {
          "indexed": false,
          "internalType": "uint256",
          "name": "amount",
          "type": "uint256"
        },
        {
          "indexed": false,
          "internalType": "uint256",
          "name": "reward",
          "type": "uint256"
        },
        {
          "indexed": true,
          "internalType": "string",
          "name": "stakeType",
          "type": "string"
        }
      ],
      "name": "Unstaked",
      "type": "event"
    },
    {
      "inputs": [],
      "name": "BASIS_POINTS",
      "outputs": [
        {
          "internalType": "uint256",
          "name": "",
          "type": "uint256"
        }
      ],
      "stateMutability": "view",
      "type": "function"
    },
    {
      "inputs": [],
      "name": "DEFAULT_ADMIN_ROLE",
      "outputs": [
        {
          "internalType": "bytes32",
          "name": "",
          "type": "bytes32"
        }
      ],
      "stateMutability": "view",
      "type": "function"
    },
    {
      "inputs": [],
      "name": "FORCE_UNLOCK_PENALTY",
      "outputs": [
        {
          "internalType": "uint256",
          "name": "",
          "type": "uint256"
        }
      ],
      "stateMutability": "view",
      "type": "function"
    },
    {
      "inputs": [],
      "name": "GOVERNOR_ROLE",
      "outputs": [
        {
          "internalType": "bytes32",
          "name": "",
          "type": "bytes32"
        }
      ],
      "stateMutability": "view",
      "type": "function"
    },
    {
      "inputs": [],
      "name": "MAX_RATE_1YEAR",
      "outputs": [
        {
          "internalType": "uint256",
          "name": "",
          "type": "uint256"
        }
      ],
      "stateMutability": "view",
      "type": "function"
    },
    {
      "inputs": [],
      "name": "MAX_RATE_7DAYS",
      "outputs": [
        {
          "internalType": "uint256",
          "name": "",
          "type": "uint256"
        }
      ],
      "stateMutability": "view",
      "type": "function"
    },
    {
      "inputs": [],
      "name": "MAX_STAKE_AMOUNT",
      "outputs": [
        {
          "internalType": "uint256",
          "name": "",
          "type": "uint256"
        }
      ],
      "stateMutability": "view",
      "type": "function"
    },
    {
      "inputs": [],
      "name": "PAUSER_ROLE",
      "outputs": [
        {
          "internalType": "bytes32",
          "name": "",
          "type": "bytes32"
        }
      ],
      "stateMutability": "view",
      "type": "function"
    },
    {
      "inputs": [],
      "name": "RATE_CHANGE_COOLDOWN",
      "outputs": [
        {
          "internalType": "uint256",
          "name": "",
          "type": "uint256"
        }
      ],
      "stateMutability": "view",
      "type": "function"
    },
    {
      "inputs": [],
      "name": "UNLOCK_PERIOD_1YEAR",
      "outputs": [
        {
          "internalType": "uint256",
          "name": "",
          "type": "uint256"
        }
      ],
      "stateMutability": "view",
      "type": "function"
    },
    {
      "inputs": [],
      "name": "UNLOCK_PERIOD_7DAYS",
      "outputs": [
        {
          "internalType": "uint256",
          "name": "",
          "type": "uint256"
        }
      ],
      "stateMutability": "view",
      "type": "function"
    },
    {
      "inputs": [],
      "name": "YEAR_IN_SECONDS",
      "outputs": [
        {
          "internalType": "uint256",
          "name": "",
          "type": "uint256"
        }
      ],
      "stateMutability": "view",
      "type": "function"
    },
    {
      "inputs": [
        {
          "components": [
            {
              "internalType": "uint256",
              "name": "amount",
              "type": "uint256"
            },
            {
              "internalType": "uint256",
              "name": "since",
              "type": "uint256"
            },
            {
              "internalType": "uint256",
              "name": "unlockRequestTime",
              "type": "uint256"
            },
            {
              "internalType": "bool",
              "name": "isLocked",
              "type": "bool"
            },
            {
              "internalType": "uint256",
              "name": "rate",
              "type": "uint256"
            },
            {
              "internalType": "uint256",
              "name": "unlockPeriod",
              "type": "uint256"
            }
          ],
          "internalType": "struct MoonCatStaking.Stake",
          "name": "stake",
          "type": "tuple"
        }
      ],
      "name": "calculatePendingRewards",
      "outputs": [
        {
          "internalType": "uint256",
          "name": "",
          "type": "uint256"
        }
      ],
      "stateMutability": "view",
      "type": "function"
    },
    {
      "inputs": [
        {
          "internalType": "address",
          "name": "user",
          "type": "address"
        },
        {
          "internalType": "bool",
          "name": "is7Days",
          "type": "bool"
        }
      ],
      "name": "debugCalculation",
      "outputs": [
        {
          "internalType": "uint256",
          "name": "stakeAmount",
          "type": "uint256"
        },
        {
          "internalType": "uint256",
          "name": "stakeDuration",
          "type": "uint256"
        },
        {
          "internalType": "uint256",
          "name": "rate",
          "type": "uint256"
        },
        {
          "internalType": "uint256",
          "name": "calculatedInterest",
          "type": "uint256"
        },
        {
          "internalType": "bool",
          "name": "isLocked",
          "type": "bool"
        },
        {
          "internalType": "uint256",
          "name": "unlockRequestTime",
          "type": "uint256"
        }
      ],
      "stateMutability": "view",
      "type": "function"
    },
    {
      "inputs": [],
      "name": "disableEmergencyMode",
      "outputs": [],
      "stateMutability": "nonpayable",
      "type": "function"
    },
    {
      "inputs": [],
      "name": "emergencyMode",
      "outputs": [
        {
          "internalType": "bool",
          "name": "",
          "type": "bool"
        }
      ],
      "stateMutability": "view",
      "type": "function"
    },
    {
      "inputs": [],
      "name": "emergencyWithdraw",
      "outputs": [],
      "stateMutability": "nonpayable",
      "type": "function"
    },
    {
      "inputs": [],
      "name": "enableEmergencyMode",
      "outputs": [],
      "stateMutability": "nonpayable",
      "type": "function"
    },
    {
      "inputs": [],
      "name": "forceUnlock1Year",
      "outputs": [],
      "stateMutability": "nonpayable",
      "type": "function"
    },
    {
      "inputs": [],
      "name": "forceUnlock7Days",
      "outputs": [],
      "stateMutability": "nonpayable",
      "type": "function"
    },
    {
      "inputs": [
        {
          "internalType": "address",
          "name": "user",
          "type": "address"
        }
      ],
      "name": "getAllStakingStats",
      "outputs": [
        {
          "components": [
            {
              "internalType": "uint256",
              "name": "totalStaked",
              "type": "uint256"
            },
            {
              "internalType": "uint256",
              "name": "totalCompounded",
              "type": "uint256"
            },
            {
              "internalType": "uint256",
              "name": "totalWithdrawn",
              "type": "uint256"
            },
            {
              "internalType": "uint256",
              "name": "currentPendingRewards",
              "type": "uint256"
            }
          ],
          "internalType": "struct MoonCatStaking.StakingStats",
          "name": "stats7Days",
          "type": "tuple"
        },
        {
          "components": [
            {
              "internalType": "uint256",
              "name": "totalStaked",
              "type": "uint256"
            },
            {
              "internalType": "uint256",
              "name": "totalCompounded",
              "type": "uint256"
            },
            {
              "internalType": "uint256",
              "name": "totalWithdrawn",
              "type": "uint256"
            },
            {
              "internalType": "uint256",
              "name": "currentPendingRewards",
              "type": "uint256"
            }
          ],
          "internalType": "struct MoonCatStaking.StakingStats",
          "name": "stats1Year",
          "type": "tuple"
        }
      ],
      "stateMutability": "view",
      "type": "function"
    },
    {
      "inputs": [
        {
          "internalType": "bytes32",
          "name": "role",
          "type": "bytes32"
        }
      ],
      "name": "getRoleAdmin",
      "outputs": [
        {
          "internalType": "bytes32",
          "name": "",
          "type": "bytes32"
        }
      ],
      "stateMutability": "view",
      "type": "function"
    },
    {
      "inputs": [
        {
          "internalType": "address",
          "name": "user",
          "type": "address"
        }
      ],
      "name": "getStakeDetails1Year",
      "outputs": [
        {
          "internalType": "uint256",
          "name": "stakedAmount",
          "type": "uint256"
        },
        {
          "internalType": "uint256",
          "name": "pendingRewards",
          "type": "uint256"
        },
        {
          "internalType": "bool",
          "name": "isLocked",
          "type": "bool"
        },
        {
          "internalType": "uint256",
          "name": "unlockRequestTime",
          "type": "uint256"
        },
        {
          "internalType": "uint256",
          "name": "timeStaked",
          "type": "uint256"
        },
        {
          "internalType": "uint256",
          "name": "rate",
          "type": "uint256"
        }
      ],
      "stateMutability": "view",
      "type": "function"
    },
    {
      "inputs": [
        {
          "internalType": "address",
          "name": "user",
          "type": "address"
        }
      ],
      "name": "getStakeDetails7Days",
      "outputs": [
        {
          "internalType": "uint256",
          "name": "stakedAmount",
          "type": "uint256"
        },
        {
          "internalType": "uint256",
          "name": "pendingRewards",
          "type": "uint256"
        },
        {
          "internalType": "bool",
          "name": "isLocked",
          "type": "bool"
        },
        {
          "internalType": "uint256",
          "name": "unlockRequestTime",
          "type": "uint256"
        },
        {
          "internalType": "uint256",
          "name": "timeStaked",
          "type": "uint256"
        },
        {
          "internalType": "uint256",
          "name": "rate",
          "type": "uint256"
        }
      ],
      "stateMutability": "view",
      "type": "function"
    },
    {
      "inputs": [
        {
          "internalType": "address",
          "name": "user",
          "type": "address"
        },
        {
          "internalType": "bool",
          "name": "is7Days",
          "type": "bool"
        }
      ],
      "name": "getTimeUntilUnlock",
      "outputs": [
        {
          "internalType": "uint256",
          "name": "",
          "type": "uint256"
        }
      ],
      "stateMutability": "view",
      "type": "function"
    },
    {
      "inputs": [
        {
          "internalType": "bytes32",
          "name": "role",
          "type": "bytes32"
        },
        {
          "internalType": "address",
          "name": "account",
          "type": "address"
        }
      ],
      "name": "grantRole",
      "outputs": [],
      "stateMutability": "nonpayable",
      "type": "function"
    },
    {
      "inputs": [
        {
          "internalType": "bytes32",
          "name": "role",
          "type": "bytes32"
        },
        {
          "internalType": "address",
          "name": "account",
          "type": "address"
        }
      ],
      "name": "hasRole",
      "outputs": [
        {
          "internalType": "bool",
          "name": "",
          "type": "bool"
        }
      ],
      "stateMutability": "view",
      "type": "function"
    },
    {
      "inputs": [
        {
          "components": [
            {
              "internalType": "uint256",
              "name": "amount",
              "type": "uint256"
            },
            {
              "internalType": "uint256",
              "name": "since",
              "type": "uint256"
            },
            {
              "internalType": "uint256",
              "name": "unlockRequestTime",
              "type": "uint256"
            },
            {
              "internalType": "bool",
              "name": "isLocked",
              "type": "bool"
            },
            {
              "internalType": "uint256",
              "name": "rate",
              "type": "uint256"
            },
            {
              "internalType": "uint256",
              "name": "unlockPeriod",
              "type": "uint256"
            }
          ],
          "internalType": "struct MoonCatStaking.Stake",
          "name": "stake",
          "type": "tuple"
        }
      ],
      "name": "isUnlockComplete",
      "outputs": [
        {
          "internalType": "bool",
          "name": "",
          "type": "bool"
        }
      ],
      "stateMutability": "view",
      "type": "function"
    },
    {
      "inputs": [],
      "name": "lastRateChange",
      "outputs": [
        {
          "internalType": "uint256",
          "name": "",
          "type": "uint256"
        }
      ],
      "stateMutability": "view",
      "type": "function"
    },
    {
      "inputs": [],
      "name": "paused",
      "outputs": [
        {
          "internalType": "bool",
          "name": "",
          "type": "bool"
        }
      ],
      "stateMutability": "view",
      "type": "function"
    },
    {
      "inputs": [
        {
          "internalType": "bytes32",
          "name": "role",
          "type": "bytes32"
        },
        {
          "internalType": "address",
          "name": "callerConfirmation",
          "type": "address"
        }
      ],
      "name": "renounceRole",
      "outputs": [],
      "stateMutability": "nonpayable",
      "type": "function"
    },
    {
      "inputs": [],
      "name": "requestUnlock1Year",
      "outputs": [],
      "stateMutability": "nonpayable",
      "type": "function"
    },
    {
      "inputs": [],
      "name": "requestUnlock7Days",
      "outputs": [],
      "stateMutability": "nonpayable",
      "type": "function"
    },
    {
      "inputs": [
        {
          "internalType": "bytes32",
          "name": "role",
          "type": "bytes32"
        },
        {
          "internalType": "address",
          "name": "account",
          "type": "address"
        }
      ],
      "name": "revokeRole",
      "outputs": [],
      "stateMutability": "nonpayable",
      "type": "function"
    },
    {
      "inputs": [],
      "name": "rewardRate1Year",
      "outputs": [
        {
          "internalType": "uint256",
          "name": "",
          "type": "uint256"
        }
      ],
      "stateMutability": "view",
      "type": "function"
    },
    {
      "inputs": [],
      "name": "rewardRate7Days",
      "outputs": [
        {
          "internalType": "uint256",
          "name": "",
          "type": "uint256"
        }
      ],
      "stateMutability": "view",
      "type": "function"
    },
    {
      "inputs": [
        {
          "internalType": "uint256",
          "name": "_newRate",
          "type": "uint256"
        }
      ],
      "name": "setRewardRate1Year",
      "outputs": [],
      "stateMutability": "nonpayable",
      "type": "function"
    },
    {
      "inputs": [
        {
          "internalType": "uint256",
          "name": "_newRate",
          "type": "uint256"
        }
      ],
      "name": "setRewardRate7Days",
      "outputs": [],
      "stateMutability": "nonpayable",
      "type": "function"
    },
    {
      "inputs": [
        {
          "internalType": "uint256",
          "name": "_amount",
          "type": "uint256"
        }
      ],
      "name": "stake1Year",
      "outputs": [],
      "stateMutability": "nonpayable",
      "type": "function"
    },
    {
      "inputs": [
        {
          "internalType": "uint256",
          "name": "_amount",
          "type": "uint256"
        }
      ],
      "name": "stake7Days",
      "outputs": [],
      "stateMutability": "nonpayable",
      "type": "function"
    },
    {
      "inputs": [
        {
          "internalType": "address",
          "name": "",
          "type": "address"
        }
      ],
      "name": "stakes1Year",
      "outputs": [
        {
          "internalType": "uint256",
          "name": "amount",
          "type": "uint256"
        },
        {
          "internalType": "uint256",
          "name": "since",
          "type": "uint256"
        },
        {
          "internalType": "uint256",
          "name": "unlockRequestTime",
          "type": "uint256"
        },
        {
          "internalType": "bool",
          "name": "isLocked",
          "type": "bool"
        },
        {
          "internalType": "uint256",
          "name": "rate",
          "type": "uint256"
        },
        {
          "internalType": "uint256",
          "name": "unlockPeriod",
          "type": "uint256"
        }
      ],
      "stateMutability": "view",
      "type": "function"
    },
    {
      "inputs": [
        {
          "internalType": "address",
          "name": "",
          "type": "address"
        }
      ],
      "name": "stakes7Days",
      "outputs": [
        {
          "internalType": "uint256",
          "name": "amount",
          "type": "uint256"
        },
        {
          "internalType": "uint256",
          "name": "since",
          "type": "uint256"
        },
        {
          "internalType": "uint256",
          "name": "unlockRequestTime",
          "type": "uint256"
        },
        {
          "internalType": "bool",
          "name": "isLocked",
          "type": "bool"
        },
        {
          "internalType": "uint256",
          "name": "rate",
          "type": "uint256"
        },
        {
          "internalType": "uint256",
          "name": "unlockPeriod",
          "type": "uint256"
        }
      ],
      "stateMutability": "view",
      "type": "function"
    },
    {
      "inputs": [
        {
          "internalType": "address",
          "name": "",
          "type": "address"
        }
      ],
      "name": "stakingStats1Year",
      "outputs": [
        {
          "internalType": "uint256",
          "name": "totalStaked",
          "type": "uint256"
        },
        {
          "internalType": "uint256",
          "name": "totalCompounded",
          "type": "uint256"
        },
        {
          "internalType": "uint256",
          "name": "totalWithdrawn",
          "type": "uint256"
        },
        {
          "internalType": "uint256",
          "name": "currentPendingRewards",
          "type": "uint256"
        }
      ],
      "stateMutability": "view",
      "type": "function"
    },
    {
      "inputs": [
        {
          "internalType": "address",
          "name": "",
          "type": "address"
        }
      ],
      "name": "stakingStats7Days",
      "outputs": [
        {
          "internalType": "uint256",
          "name": "totalStaked",
          "type": "uint256"
        },
        {
          "internalType": "uint256",
          "name": "totalCompounded",
          "type": "uint256"
        },
        {
          "internalType": "uint256",
          "name": "totalWithdrawn",
          "type": "uint256"
        },
        {
          "internalType": "uint256",
          "name": "currentPendingRewards",
          "type": "uint256"
        }
      ],
      "stateMutability": "view",
      "type": "function"
    },
    {
      "inputs": [
        {
          "internalType": "bytes4",
          "name": "interfaceId",
          "type": "bytes4"
        }
      ],
      "name": "supportsInterface",
      "outputs": [
        {
          "internalType": "bool",
          "name": "",
          "type": "bool"
        }
      ],
      "stateMutability": "view",
      "type": "function"
    },
    {
      "inputs": [],
      "name": "token",
      "outputs": [
        {
          "internalType": "contract MoonCatToken",
          "name": "",
          "type": "address"
        }
      ],
      "stateMutability": "view",
      "type": "function"
    },
    {
      "inputs": [],
      "name": "unstake1Year",
      "outputs": [],
      "stateMutability": "nonpayable",
      "type": "function"
    },
    {
      "inputs": [],
      "name": "unstake7Days",
      "outputs": [],
      "stateMutability": "nonpayable",
      "type": "function"
    },
    {
      "inputs": [],
      "name": "withdrawAllInterest",
      "outputs": [],
      "stateMutability": "nonpayable",
      "type": "function"
    }
  ],
  "bytecode": "0x60a060405234801561001057600080fd5b5060405161583838038061583883398181016040528101906100329190610372565b60016000819055506000600260006101000a81548160ff021916908315150217905550600073ffffffffffffffffffffffffffffffffffffffff168173ffffffffffffffffffffffffffffffffffffffff16036100c4576040517f08c379a00000000000000000000000000000000000000000000000000000000081526004016100bb906103fc565b60405180910390fd5b8073ffffffffffffffffffffffffffffffffffffffff1660808173ffffffffffffffffffffffffffffffffffffffff168152505061010b6000801b3361018d60201b60201c565b5061013c7f7935bd0ae54bc31f548c14dba4d37c5c64b3f8ca900cb468fb8abd54d5894f553361018d60201b60201c565b5061016d7f65d7a28e3265b37a6474929f336521b332c1681b933f6cb9f3376673440d862a3361018d60201b60201c565b5061027a6007819055506103bf60088190555042600a819055505061041c565b600061019f838361028a60201b60201c565b61027f57600180600085815260200190815260200160002060000160008473ffffffffffffffffffffffffffffffffffffffff1673ffffffffffffffffffffffffffffffffffffffff16815260200190815260200160002060006101000a81548160ff02191690831515021790555061021c6102f560201b60201c565b73ffffffffffffffffffffffffffffffffffffffff168273ffffffffffffffffffffffffffffffffffffffff16847f2f8788117e7eff1d82e926ec794901d17c78024a50270940304540a733656f0d60405160405180910390a460019050610284565b600090505b92915050565b60006001600084815260200190815260200160002060000160008373ffffffffffffffffffffffffffffffffffffffff1673ffffffffffffffffffffffffffffffffffffffff16815260200190815260200160002060009054906101000a900460ff16905092915050565b600033905090565b600080fd5b600073ffffffffffffffffffffffffffffffffffffffff82169050919050565b600061032d82610302565b9050919050565b600061033f82610322565b9050919050565b61034f81610334565b811461035a57600080fd5b50565b60008151905061036c81610346565b92915050565b600060208284031215610388576103876102fd565b5b60006103968482850161035d565b91505092915050565b600082825260208201905092915050565b7f546f6b656e2063616e6e6f74206265207a65726f206164647265737300000000600082015250565b60006103e6601c8361039f565b91506103f1826103b0565b602082019050919050565b60006020820190508181036000830152610415816103d9565b9050919050565b6080516153c961046f60003960008181610c890152818161193401528181611dfd015281816121e701528181612a2501528181612ffb0152818161356c015281816139d60152613c2c01526153c96000f3fe608060405234801561001057600080fd5b50600436106102bb5760003560e01c806386c39df411610182578063cda01fc3116100e9578063df912195116100a2578063e69702881161007c578063e69702881461085d578063ef95256814610867578063fb30eba814610871578063fc0c546a146108a6576102bb565b8063df912195146107ee578063e1f1c4a714610821578063e63ab1e91461083f576102bb565b8063cda01fc314610736578063d547741f14610740578063da71ae791461075c578063db0794db1461077a578063db2e21bc146107af578063dd847c88146107b9576102bb565b8063bb9287ad1161013b578063bb9287ad14610698578063bd42d2da146106a2578063c513b600146106d2578063c541f839146106f0578063c5b1c7d01461070e578063ccc5749014610718576102bb565b806386c39df4146105bf57806391d14854146105db578063935feabe1461060b5780639a71d6c41461063b578063a217fddf14610670578063ba3f1b591461068e576102bb565b806349730fc1116102265780636abcc092116101df5780636abcc0921461050d5780636d3995c51461052b5780636eaa7ba21461053557806374912779146105535780637847ea531461058357806378a95e07146105a1576102bb565b806349730fc11461046f5780634cdcc9f11461048d57806356e586ba146104a95780635c975abb146104c757806364f47933146104e5578063690cc599146104ef576102bb565b80631532d0ba116102785780631532d0ba146103c3578063248a9ca3146103cd57806329da3d93146103fd5780632f2ff15d146104195780632f92f1f21461043557806336568abe14610453576102bb565b806301ffc9a7146102c0578063058c83bd146102f05780630905f560146103235780630f544ac7146103415780630f6037021461035d57806311268f4d14610392575b600080fd5b6102da60048036038101906102d591906142f8565b6108c4565b6040516102e79190614340565b60405180910390f35b61030a600480360381019061030591906143b9565b61093e565b60405161031a94939291906143ff565b60405180910390f35b61032b61096e565b6040516103389190614340565b60405180910390f35b61035b60048036038101906103569190614470565b610981565b005b610377600480360381019061037291906143b9565b610e9e565b6040516103899695949392919061449d565b60405180910390f35b6103ac60048036038101906103a791906143b9565b610f7a565b6040516103ba929190614562565b60405180910390f35b6103cb6111d3565b005b6103e760048036038101906103e291906145c2565b611407565b6040516103f491906145fe565b60405180910390f35b61041760048036038101906104129190614470565b611427565b005b610433600480360381019061042e9190614619565b61157b565b005b61043d61159d565b60405161044a9190614659565b60405180910390f35b61046d60048036038101906104689190614619565b6115ab565b005b610477611626565b6040516104849190614659565b60405180910390f35b6104a760048036038101906104a29190614470565b61162c565b005b6104b1611b4a565b6040516104be9190614659565b60405180910390f35b6104cf611b50565b6040516104dc9190614340565b60405180910390f35b6104ed611b67565b005b6104f7611f4d565b6040516105049190614659565b60405180910390f35b610515611f53565b6040516105229190614659565b60405180910390f35b610533611f59565b005b61053d612335565b60405161054a9190614659565b60405180910390f35b61056d600480360381019061056891906147d1565b61233c565b60405161057a9190614340565b60405180910390f35b61058b612377565b6040516105989190614659565b60405180910390f35b6105a961237f565b6040516105b69190614659565b60405180910390f35b6105d960048036038101906105d49190614470565b612386565b005b6105f560048036038101906105f09190614619565b6124da565b6040516106029190614340565b60405180910390f35b610625600480360381019061062091906147fe565b612545565b6040516106329190614659565b60405180910390f35b610655600480360381019061065091906143b9565b612682565b6040516106679695949392919061449d565b60405180910390f35b61067861275e565b60405161068591906145fe565b60405180910390f35b610696612765565b005b6106a0612999565b005b6106bc60048036038101906106b791906147d1565b612b6f565b6040516106c99190614659565b60405180910390f35b6106da612c6e565b6040516106e79190614659565b60405180910390f35b6106f8612c74565b6040516107059190614659565b60405180910390f35b610716612c7c565b005b610720612d42565b60405161072d91906145fe565b60405180910390f35b61073e612d66565b005b61075a60048036038101906107559190614619565b61314b565b005b61076461316d565b6040516107719190614659565b60405180910390f35b610794600480360381019061078f91906147fe565b613173565b6040516107a69695949392919061483e565b60405180910390f35b6107b761330d565b005b6107d360048036038101906107ce91906143b9565b6136a5565b6040516107e59695949392919061489f565b60405180910390f35b610808600480360381019061080391906143b9565b6136ee565b60405161081894939291906143ff565b60405180910390f35b61082961371e565b6040516108369190614659565b60405180910390f35b610847613724565b60405161085491906145fe565b60405180910390f35b610865613748565b005b61086f613b24565b005b61088b600480360381019061088691906143b9565b613be1565b60405161089d9695949392919061489f565b60405180910390f35b6108ae613c2a565b6040516108bb919061495f565b60405180910390f35b60007f7965db0b000000000000000000000000000000000000000000000000000000007bffffffffffffffffffffffffffffffffffffffffffffffffffffffff1916827bffffffffffffffffffffffffffffffffffffffffffffffffffffffff19161480610937575061093682613c4e565b5b9050919050565b60066020528060005260406000206000915090508060000154908060010154908060020154908060030154905084565b600960009054906101000a900460ff1681565b610989613cb8565b610991613cfe565b600081116109d4576040517f08c379a00000000000000000000000000000000000000000000000000000000081526004016109cb906149d7565b60405180910390fd5b69d3c21bcecceda1000000811115610a21576040517f08c379a0000000000000000000000000000000000000000000000000000000008152600401610a1890614a43565b60405180910390fd5b69d3c21bcecceda100000081600360003373ffffffffffffffffffffffffffffffffffffffff1673ffffffffffffffffffffffffffffffffffffffff16815260200190815260200160002060000154610a7a9190614a92565b1115610abb576040517f08c379a0000000000000000000000000000000000000000000000000000000008152600401610ab290614b12565b60405180910390fd5b6000600360003373ffffffffffffffffffffffffffffffffffffffff1673ffffffffffffffffffffffffffffffffffffffff168152602001908152602001600020905060008160000154118015610b2057508060030160009054906101000a900460ff165b15610c87576000816000015490506000610b91836040518060c00160405290816000820154815260200160018201548152602001600282015481526020016003820160009054906101000a900460ff1615151515815260200160048201548152602001600582015481525050612b6f565b905080836000016000828254610ba79190614a92565b925050819055504283600101819055506000811115610c845780600560003373ffffffffffffffffffffffffffffffffffffffff1673ffffffffffffffffffffffffffffffffffffffff1681526020019081526020016000206001016000828254610c129190614a92565b92505081905550604051610c2590614b89565b60405180910390203373ffffffffffffffffffffffffffffffffffffffff167f7bdaaefb6d3f467f6801b8f10e62f3ad80c945b1770ecb80fdce030e2599fa7084848760000154604051610c7b93929190614b9e565b60405180910390a35b50505b7f000000000000000000000000000000000000000000000000000000000000000073ffffffffffffffffffffffffffffffffffffffff166323b872dd3330856040518463ffffffff1660e01b8152600401610ce493929190614be4565b6020604051808303816000875af1158015610d03573d6000803e3d6000fd5b505050506040513d601f19601f82011682018060405250810190610d279190614c30565b610d66576040517f08c379a0000000000000000000000000000000000000000000000000000000008152600401610d5d90614ca9565b60405180910390fd5b81816000016000828254610d7a9190614a92565b9250508190555042816001018190555060018160030160006101000a81548160ff021916908315150217905550600081600201819055506000816004015403610dd557600754816004018190555062093a8081600501819055505b81600560003373ffffffffffffffffffffffffffffffffffffffff1673ffffffffffffffffffffffffffffffffffffffff1681526020019081526020016000206000016000828254610e279190614a92565b92505081905550604051610e3a90614b89565b60405180910390203373ffffffffffffffffffffffffffffffffffffffff167f66d612d12bb1902ec26fd9a4991d9d58d71d0580427497d62731e7527f1e01a48442604051610e8a929190614cc9565b60405180910390a350610e9b613d3f565b50565b6000806000806000806000600360008973ffffffffffffffffffffffffffffffffffffffff1673ffffffffffffffffffffffffffffffffffffffff1681526020019081526020016000206040518060c00160405290816000820154815260200160018201548152602001600282015481526020016003820160009054906101000a900460ff161515151581526020016004820154815260200160058201548152505090508060000151610f5082612b6f565b82606001518360400151846020015185608001519650965096509650965096505091939550919395565b610f82614269565b610f8a614269565b600560008473ffffffffffffffffffffffffffffffffffffffff1673ffffffffffffffffffffffffffffffffffffffff1681526020019081526020016000206040518060800160405290816000820154815260200160018201548152602001600282015481526020016003820154815250509150600660008473ffffffffffffffffffffffffffffffffffffffff1673ffffffffffffffffffffffffffffffffffffffff16815260200190815260200160002060405180608001604052908160008201548152602001600182015481526020016002820154815260200160038201548152505090506000600360008573ffffffffffffffffffffffffffffffffffffffff1673ffffffffffffffffffffffffffffffffffffffff1681526020019081526020016000206040518060c00160405290816000820154815260200160018201548152602001600282015481526020016003820160009054906101000a900460ff161515151581526020016004820154815260200160058201548152505090506000600460008673ffffffffffffffffffffffffffffffffffffffff1673ffffffffffffffffffffffffffffffffffffffff1681526020019081526020016000206040518060c00160405290816000820154815260200160018201548152602001600282015481526020016003820160009054906101000a900460ff161515151581526020016004820154815260200160058201548152505090506111b182612b6f565b8460600181815250506111c381612b6f565b8360600181815250505050915091565b6111db613cfe565b6000600460003373ffffffffffffffffffffffffffffffffffffffff1673ffffffffffffffffffffffffffffffffffffffff16815260200190815260200160002090506000816000015411611265576040517f08c379a000000000000000000000000000000000000000000000000000000000815260040161125c90614d3e565b60405180910390fd5b60008160020154146112ac576040517f08c379a00000000000000000000000000000000000000000000000000000000081526004016112a390614daa565b60405180910390fd5b600061130f826040518060c00160405290816000820154815260200160018201548152602001600282015481526020016003820160009054906101000a900460ff1615151515815260200160048201548152602001600582015481525050612b6f565b9050600081111561138f578082600001600082825461132e9190614a92565b9250508190555080600660003373ffffffffffffffffffffffffffffffffffffffff1673ffffffffffffffffffffffffffffffffffffffff16815260200190815260200160002060010160008282546113879190614a92565b925050819055505b4282600101819055504282600201819055506040516113ad90614e16565b60405180910390203373ffffffffffffffffffffffffffffffffffffffff167faf1e05ce41cdb4bdc4f23bff459f1b9173663f6a49fcf52898845f8d65906886426040516113fb9190614659565b60405180910390a35050565b600060016000838152602001908152602001600020600101549050919050565b7f7935bd0ae54bc31f548c14dba4d37c5c64b3f8ca900cb468fb8abd54d5894f5561145181613d49565b611459613cfe565b61138882111561149e576040517f08c379a000000000000000000000000000000000000000000000000000000000815260040161149590614e77565b60405180910390fd5b6000600a54141580156114bb57506114b96000801b336124da565b155b156115145762093a80600a546114d19190614a92565b421015611513576040517f08c379a000000000000000000000000000000000000000000000000000000000815260040161150a90614ee3565b60405180910390fd5b5b600060075490508260078190555042600a8190555060405161153590614b89565b60405180910390207f4451261fd4f7dbcc8fd7251b7a2f5501686e0ab7fad43ce240b0a0d60155eb6b828560405161156e929190614cc9565b60405180910390a2505050565b61158482611407565b61158d81613d49565b6115978383613d5d565b50505050565b69d3c21bcecceda100000081565b6115b3613e4e565b73ffffffffffffffffffffffffffffffffffffffff168173ffffffffffffffffffffffffffffffffffffffff1614611617576040517f6697b23200000000000000000000000000000000000000000000000000000000815260040160405180910390fd5b6116218282613e56565b505050565b60075481565b611634613cb8565b61163c613cfe565b6000811161167f576040517f08c379a0000000000000000000000000000000000000000000000000000000008152600401611676906149d7565b60405180910390fd5b69d3c21bcecceda10000008111156116cc576040517f08c379a00000000000000000000000000000000000000000000000000000000081526004016116c390614a43565b60405180910390fd5b69d3c21bcecceda100000081600460003373ffffffffffffffffffffffffffffffffffffffff1673ffffffffffffffffffffffffffffffffffffffff168152602001908152602001600020600001546117259190614a92565b1115611766576040517f08c379a000000000000000000000000000000000000000000000000000000000815260040161175d90614b12565b60405180910390fd5b6000600460003373ffffffffffffffffffffffffffffffffffffffff1673ffffffffffffffffffffffffffffffffffffffff1681526020019081526020016000209050600081600001541180156117cb57508060030160009054906101000a900460ff165b1561193257600081600001549050600061183c836040518060c00160405290816000820154815260200160018201548152602001600282015481526020016003820160009054906101000a900460ff1615151515815260200160048201548152602001600582015481525050612b6f565b9050808360000160008282546118529190614a92565b92505081905550428360010181905550600081111561192f5780600660003373ffffffffffffffffffffffffffffffffffffffff1673ffffffffffffffffffffffffffffffffffffffff16815260200190815260200160002060010160008282546118bd9190614a92565b925050819055506040516118d090614e16565b60405180910390203373ffffffffffffffffffffffffffffffffffffffff167f7bdaaefb6d3f467f6801b8f10e62f3ad80c945b1770ecb80fdce030e2599fa708484876000015460405161192693929190614b9e565b60405180910390a35b50505b7f000000000000000000000000000000000000000000000000000000000000000073ffffffffffffffffffffffffffffffffffffffff166323b872dd3330856040518463ffffffff1660e01b815260040161198f93929190614be4565b6020604051808303816000875af11580156119ae573d6000803e3d6000fd5b505050506040513d601f19601f820116820180604052508101906119d29190614c30565b611a11576040517f08c379a0000000000000000000000000000000000000000000000000000000008152600401611a0890614ca9565b60405180910390fd5b81816000016000828254611a259190614a92565b9250508190555042816001018190555060018160030160006101000a81548160ff021916908315150217905550600081600201819055506000816004015403611a815760085481600401819055506301e1338081600501819055505b81600660003373ffffffffffffffffffffffffffffffffffffffff1673ffffffffffffffffffffffffffffffffffffffff1681526020019081526020016000206000016000828254611ad39190614a92565b92505081905550604051611ae690614e16565b60405180910390203373ffffffffffffffffffffffffffffffffffffffff167f66d612d12bb1902ec26fd9a4991d9d58d71d0580427497d62731e7527f1e01a48442604051611b36929190614cc9565b60405180910390a350611b47613d3f565b50565b6126ac81565b6000600260009054906101000a900460ff16905090565b611b6f613cb8565b611b77613cfe565b6000600460003373ffffffffffffffffffffffffffffffffffffffff1673ffffffffffffffffffffffffffffffffffffffff16815260200190815260200160002090506000816000015411611c01576040517f08c379a0000000000000000000000000000000000000000000000000000000008152600401611bf890614d3e565b60405180910390fd5b6000816002015411611c48576040517f08c379a0000000000000000000000000000000000000000000000000000000008152600401611c3f90614f4f565b60405180910390fd5b6301e133808160020154611c5c9190614a92565b421015611c9e576040517f08c379a0000000000000000000000000000000000000000000000000000000008152600401611c9590614fbb565b60405180910390fd5b6000611d01826040518060c00160405290816000820154815260200160018201548152602001600282015481526020016003820160009054906101000a900460ff1615151515815260200160048201548152602001600582015481525050612b6f565b90506000826000015490506000821115611d7d578181611d219190614a92565b905081600660003373ffffffffffffffffffffffffffffffffffffffff1673ffffffffffffffffffffffffffffffffffffffff1681526020019081526020016000206002016000828254611d759190614a92565b925050819055505b600460003373ffffffffffffffffffffffffffffffffffffffff1673ffffffffffffffffffffffffffffffffffffffff168152602001908152602001600020600080820160009055600182016000905560028201600090556003820160006101000a81549060ff02191690556004820160009055600582016000905550507f000000000000000000000000000000000000000000000000000000000000000073ffffffffffffffffffffffffffffffffffffffff1663a9059cbb33836040518363ffffffff1660e01b8152600401611e56929190614fdb565b6020604051808303816000875af1158015611e75573d6000803e3d6000fd5b505050506040513d601f19601f82011682018060405250810190611e999190614c30565b611ed8576040517f08c379a0000000000000000000000000000000000000000000000000000000008152600401611ecf90614ca9565b60405180910390fd5b604051611ee490614e16565b60405180910390203373ffffffffffffffffffffffffffffffffffffffff167fd224ec5ad02946fe147952e6ad900ce0567e05d53bd64beb1b564a8c603d869c856000015485604051611f38929190614cc9565b60405180910390a3505050611f4b613d3f565b565b61138881565b60085481565b611f61613cb8565b611f69613cfe565b6000600360003373ffffffffffffffffffffffffffffffffffffffff1673ffffffffffffffffffffffffffffffffffffffff16815260200190815260200160002090506000816000015411611ff3576040517f08c379a0000000000000000000000000000000000000000000000000000000008152600401611fea90614d3e565b60405180910390fd5b60008160020154111561205c576000816005015482600201546120169190614a92565b905080421061205a576040517f08c379a000000000000000000000000000000000000000000000000000000000815260040161205190615050565b60405180910390fd5b505b60006120bf826040518060c00160405290816000820154815260200160018201548152602001600282015481526020016003820160009054906101000a900460ff1615151515815260200160048201548152602001600582015481525050612b6f565b905060008183600001546120d39190614a92565b905060008211156121385781600560003373ffffffffffffffffffffffffffffffffffffffff1673ffffffffffffffffffffffffffffffffffffffff16815260200190815260200160002060020160008282546121309190614a92565b925050819055505b60006127106113888361214b9190615070565b61215591906150e1565b9050600081836121659190615112565b9050600360003373ffffffffffffffffffffffffffffffffffffffff1673ffffffffffffffffffffffffffffffffffffffff168152602001908152602001600020600080820160009055600182016000905560028201600090556003820160006101000a81549060ff02191690556004820160009055600582016000905550507f000000000000000000000000000000000000000000000000000000000000000073ffffffffffffffffffffffffffffffffffffffff1663a9059cbb33836040518363ffffffff1660e01b8152600401612240929190614fdb565b6020604051808303816000875af115801561225f573d6000803e3d6000fd5b505050506040513d601f19601f820116820180604052508101906122839190614c30565b6122c2576040517f08c379a00000000000000000000000000000000000000000000000000000000081526004016122b990614ca9565b60405180910390fd5b6040516122ce90614b89565b60405180910390203373ffffffffffffffffffffffffffffffffffffffff167f07d8a820151595a9521ea31802fb99d26992342fa0127530e142ff352ccd6a75838560405161231e929190614cc9565b60405180910390a35050505050612333613d3f565b565b62093a8081565b6000808260400151036123525760009050612372565b60008260a00151905080836040015161236b9190614a92565b4210159150505b919050565b6301e1338081565b62093a8081565b7f7935bd0ae54bc31f548c14dba4d37c5c64b3f8ca900cb468fb8abd54d5894f556123b081613d49565b6123b8613cfe565b6126ac8211156123fd576040517f08c379a00000000000000000000000000000000000000000000000000000000081526004016123f490614e77565b60405180910390fd5b6000600a541415801561241a57506124186000801b336124da565b155b156124735762093a80600a546124309190614a92565b421015612472576040517f08c379a000000000000000000000000000000000000000000000000000000000815260040161246990614ee3565b60405180910390fd5b5b600060085490508260088190555042600a8190555060405161249490614e16565b60405180910390207f4451261fd4f7dbcc8fd7251b7a2f5501686e0ab7fad43ce240b0a0d60155eb6b82856040516124cd929190614cc9565b60405180910390a2505050565b60006001600084815260200190815260200160002060000160008373ffffffffffffffffffffffffffffffffffffffff1673ffffffffffffffffffffffffffffffffffffffff16815260200190815260200160002060009054906101000a900460ff16905092915050565b6000808261259157600460008573ffffffffffffffffffffffffffffffffffffffff1673ffffffffffffffffffffffffffffffffffffffff1681526020019081526020016000206125d1565b600360008573ffffffffffffffffffffffffffffffffffffffff1673ffffffffffffffffffffffffffffffffffffffff1681526020019081526020016000205b6040518060c00160405290816000820154815260200160018201548152602001600282015481526020016003820160009054906101000a900460ff16151515158152602001600482015481526020016005820154815250509050600081604001510361264157600091505061267c565b60008160a0015182604001516126579190614a92565b905080421061266b5760009250505061267c565b42816126779190615112565b925050505b92915050565b6000806000806000806000600460008973ffffffffffffffffffffffffffffffffffffffff1673ffffffffffffffffffffffffffffffffffffffff1681526020019081526020016000206040518060c00160405290816000820154815260200160018201548152602001600282015481526020016003820160009054906101000a900460ff16151515158152602001600482015481526020016005820154815250509050806000015161273482612b6f565b82606001518360400151846020015185608001519650965096509650965096505091939550919395565b6000801b81565b61276d613cfe565b6000600360003373ffffffffffffffffffffffffffffffffffffffff1673ffffffffffffffffffffffffffffffffffffffff168152602001908152602001600020905060008160000154116127f7576040517f08c379a00000000000000000000000000000000000000000000000000000000081526004016127ee90614d3e565b60405180910390fd5b600081600201541461283e576040517f08c379a000000000000000000000000000000000000000000000000000000000815260040161283590614daa565b60405180910390fd5b60006128a1826040518060c00160405290816000820154815260200160018201548152602001600282015481526020016003820160009054906101000a900460ff1615151515815260200160048201548152602001600582015481525050612b6f565b9050600081111561292157808260000160008282546128c09190614a92565b9250508190555080600560003373ffffffffffffffffffffffffffffffffffffffff1673ffffffffffffffffffffffffffffffffffffffff16815260200190815260200160002060010160008282546129199190614a92565b925050819055505b42826001018190555042826002018190555060405161293f90614b89565b60405180910390203373ffffffffffffffffffffffffffffffffffffffff167faf1e05ce41cdb4bdc4f23bff459f1b9173663f6a49fcf52898845f8d659068864260405161298d9190614659565b60405180910390a35050565b6129a1613cb8565b6129a9613cfe565b6000806129b533613f49565b905080826129c39190614a92565b915060006129d03361407f565b905080836129de9190614a92565b925060008311612a23576040517f08c379a0000000000000000000000000000000000000000000000000000000008152600401612a1a90615192565b60405180910390fd5b7f000000000000000000000000000000000000000000000000000000000000000073ffffffffffffffffffffffffffffffffffffffff1663a9059cbb33856040518363ffffffff1660e01b8152600401612a7e929190614fdb565b6020604051808303816000875af1158015612a9d573d6000803e3d6000fd5b505050506040513d601f19601f82011682018060405250810190612ac19190614c30565b612b00576040517f08c379a0000000000000000000000000000000000000000000000000000000008152600401612af790614ca9565b60405180910390fd5b604051612b0c906151fe565b60405180910390203373ffffffffffffffffffffffffffffffffffffffff167f763d906f989b508baa591b85de06a2ce96a1335d3064e5477fe743df43a30b4585604051612b5a9190614659565b60405180910390a3505050612b6d613d3f565b565b60008082600001511480612b8557508160600151155b15612b935760009050612c69565b60008260800151905060008360a00151905060008085604001511115612c13576000828660400151612bc59190614a92565b9050804210612bfa5780866020015110612be25760009150612bf5565b856020015181612bf29190615112565b91505b612c0d565b856020015142612c0a9190615112565b91505b50612c26565b846020015142612c239190615112565b90505b60006301e13380612710612c3a9190615070565b82858860000151612c4b9190615070565b612c559190615070565b612c5f91906150e1565b9050809450505050505b919050565b61138881565b6301e1338081565b6000801b612c8981613d49565b600960009054906101000a900460ff1615612cd9576040517f08c379a0000000000000000000000000000000000000000000000000000000008152600401612cd09061525f565b60405180910390fd5b6001600960006101000a81548160ff021916908315150217905550612cfc6141b5565b3373ffffffffffffffffffffffffffffffffffffffff167fc0a1c7e9f05b4d536e1ff8606bae9b847cdb43ef4a9b2d7a503a88cee08dccdb60405160405180910390a250565b7f7935bd0ae54bc31f548c14dba4d37c5c64b3f8ca900cb468fb8abd54d5894f5581565b612d6e613cb8565b612d76613cfe565b6000600360003373ffffffffffffffffffffffffffffffffffffffff1673ffffffffffffffffffffffffffffffffffffffff16815260200190815260200160002090506000816000015411612e00576040517f08c379a0000000000000000000000000000000000000000000000000000000008152600401612df790614d3e565b60405180910390fd5b6000816002015411612e47576040517f08c379a0000000000000000000000000000000000000000000000000000000008152600401612e3e90614f4f565b60405180910390fd5b62093a808160020154612e5a9190614a92565b421015612e9c576040517f08c379a0000000000000000000000000000000000000000000000000000000008152600401612e9390614fbb565b60405180910390fd5b6000612eff826040518060c00160405290816000820154815260200160018201548152602001600282015481526020016003820160009054906101000a900460ff1615151515815260200160048201548152602001600582015481525050612b6f565b90506000826000015490506000821115612f7b578181612f1f9190614a92565b905081600560003373ffffffffffffffffffffffffffffffffffffffff1673ffffffffffffffffffffffffffffffffffffffff1681526020019081526020016000206002016000828254612f739190614a92565b925050819055505b600360003373ffffffffffffffffffffffffffffffffffffffff1673ffffffffffffffffffffffffffffffffffffffff168152602001908152602001600020600080820160009055600182016000905560028201600090556003820160006101000a81549060ff02191690556004820160009055600582016000905550507f000000000000000000000000000000000000000000000000000000000000000073ffffffffffffffffffffffffffffffffffffffff1663a9059cbb33836040518363ffffffff1660e01b8152600401613054929190614fdb565b6020604051808303816000875af1158015613073573d6000803e3d6000fd5b505050506040513d601f19601f820116820180604052508101906130979190614c30565b6130d6576040517f08c379a00000000000000000000000000000000000000000000000000000000081526004016130cd90614ca9565b60405180910390fd5b6040516130e290614b89565b60405180910390203373ffffffffffffffffffffffffffffffffffffffff167fd224ec5ad02946fe147952e6ad900ce0567e05d53bd64beb1b564a8c603d869c856000015485604051613136929190614cc9565b60405180910390a3505050613149613d3f565b565b61315482611407565b61315d81613d49565b6131678383613e56565b50505050565b600a5481565b6000806000806000806000876131c757600460008a73ffffffffffffffffffffffffffffffffffffffff1673ffffffffffffffffffffffffffffffffffffffff168152602001908152602001600020613207565b600360008a73ffffffffffffffffffffffffffffffffffffffff1673ffffffffffffffffffffffffffffffffffffffff1681526020019081526020016000205b6040518060c00160405290816000820154815260200160018201548152602001600282015481526020016003820160009054906101000a900460ff16151515158152602001600482015481526020016005820154815250509050600080826040015111156132be5760008260a0015183604001516132859190614a92565b90508042106132a55782602001518161329e9190615112565b91506132b8565b8260200151426132b59190615112565b91505b506132d1565b8160200151426132ce9190615112565b90505b60006132dc83612b6f565b9050826000015182846080015183866060015187604001519850985098509850985098505050509295509295509295565b613315613cb8565b600960009054906101000a900460ff16613364576040517f08c379a000000000000000000000000000000000000000000000000000000000815260040161335b906152cb565b60405180910390fd5b600080600360003373ffffffffffffffffffffffffffffffffffffffff1673ffffffffffffffffffffffffffffffffffffffff1681526020019081526020016000209050600081600001541115613446578060000154826133c59190614a92565b9150600360003373ffffffffffffffffffffffffffffffffffffffff1673ffffffffffffffffffffffffffffffffffffffff168152602001908152602001600020600080820160009055600182016000905560028201600090556003820160006101000a81549060ff02191690556004820160009055600582016000905550505b6000600460003373ffffffffffffffffffffffffffffffffffffffff1673ffffffffffffffffffffffffffffffffffffffff1681526020019081526020016000209050600081600001541115613527578060000154836134a69190614a92565b9250600460003373ffffffffffffffffffffffffffffffffffffffff1673ffffffffffffffffffffffffffffffffffffffff168152602001908152602001600020600080820160009055600182016000905560028201600090556003820160006101000a81549060ff02191690556004820160009055600582016000905550505b6000831161356a576040517f08c379a000000000000000000000000000000000000000000000000000000000815260040161356190614d3e565b60405180910390fd5b7f000000000000000000000000000000000000000000000000000000000000000073ffffffffffffffffffffffffffffffffffffffff1663a9059cbb33856040518363ffffffff1660e01b81526004016135c5929190614fdb565b6020604051808303816000875af11580156135e4573d6000803e3d6000fd5b505050506040513d601f19601f820116820180604052508101906136089190614c30565b613647576040517f08c379a000000000000000000000000000000000000000000000000000000000815260040161363e90614ca9565b60405180910390fd5b3373ffffffffffffffffffffffffffffffffffffffff167fbb757047c2b5f3974fe26b7c10f732e7bce710b0952a71082702781e62ae0595846000604051613690929190615326565b60405180910390a25050506136a3613d3f565b565b60046020528060005260406000206000915090508060000154908060010154908060020154908060030160009054906101000a900460ff16908060040154908060050154905086565b60056020528060005260406000206000915090508060000154908060010154908060020154908060030154905084565b61271081565b7f65d7a28e3265b37a6474929f336521b332c1681b933f6cb9f3376673440d862a81565b613750613cb8565b613758613cfe565b6000600460003373ffffffffffffffffffffffffffffffffffffffff1673ffffffffffffffffffffffffffffffffffffffff168152602001908152602001600020905060008160000154116137e2576040517f08c379a00000000000000000000000000000000000000000000000000000000081526004016137d990614d3e565b60405180910390fd5b60008160020154111561384b576000816005015482600201546138059190614a92565b9050804210613849576040517f08c379a000000000000000000000000000000000000000000000000000000000815260040161384090615050565b60405180910390fd5b505b60006138ae826040518060c00160405290816000820154815260200160018201548152602001600282015481526020016003820160009054906101000a900460ff1615151515815260200160048201548152602001600582015481525050612b6f565b905060008183600001546138c29190614a92565b905060008211156139275781600660003373ffffffffffffffffffffffffffffffffffffffff1673ffffffffffffffffffffffffffffffffffffffff168152602001908152602001600020600201600082825461391f9190614a92565b925050819055505b60006127106113888361393a9190615070565b61394491906150e1565b9050600081836139549190615112565b9050600460003373ffffffffffffffffffffffffffffffffffffffff1673ffffffffffffffffffffffffffffffffffffffff168152602001908152602001600020600080820160009055600182016000905560028201600090556003820160006101000a81549060ff02191690556004820160009055600582016000905550507f000000000000000000000000000000000000000000000000000000000000000073ffffffffffffffffffffffffffffffffffffffff1663a9059cbb33836040518363ffffffff1660e01b8152600401613a2f929190614fdb565b6020604051808303816000875af1158015613a4e573d6000803e3d6000fd5b505050506040513d601f19601f82011682018060405250810190613a729190614c30565b613ab1576040517f08c379a0000000000000000000000000000000000000000000000000000000008152600401613aa890614ca9565b60405180910390fd5b604051613abd90614e16565b60405180910390203373ffffffffffffffffffffffffffffffffffffffff167f07d8a820151595a9521ea31802fb99d26992342fa0127530e142ff352ccd6a758385604051613b0d929190614cc9565b60405180910390a35050505050613b22613d3f565b565b6000801b613b3181613d49565b600960009054906101000a900460ff16613b80576040517f08c379a0000000000000000000000000000000000000000000000000000000008152600401613b77906152cb565b60405180910390fd5b6000600960006101000a81548160ff0219169083151502179055503373ffffffffffffffffffffffffffffffffffffffff167fa972065ead597970ce6435ff5c8c9c52ed08bce7f296a931c2aea74e0505584760405160405180910390a250565b60036020528060005260406000206000915090508060000154908060010154908060020154908060030160009054906101000a900460ff16908060040154908060050154905086565b7f000000000000000000000000000000000000000000000000000000000000000081565b60007f01ffc9a7000000000000000000000000000000000000000000000000000000007bffffffffffffffffffffffffffffffffffffffffffffffffffffffff1916827bffffffffffffffffffffffffffffffffffffffffffffffffffffffff1916149050919050565b600260005403613cf4576040517f3ee5aeb500000000000000000000000000000000000000000000000000000000815260040160405180910390fd5b6002600081905550565b613d06611b50565b15613d3d576040517fd93c066500000000000000000000000000000000000000000000000000000000815260040160405180910390fd5b565b6001600081905550565b613d5a81613d55613e4e565b614218565b50565b6000613d6983836124da565b613e4357600180600085815260200190815260200160002060000160008473ffffffffffffffffffffffffffffffffffffffff1673ffffffffffffffffffffffffffffffffffffffff16815260200190815260200160002060006101000a81548160ff021916908315150217905550613de0613e4e565b73ffffffffffffffffffffffffffffffffffffffff168273ffffffffffffffffffffffffffffffffffffffff16847f2f8788117e7eff1d82e926ec794901d17c78024a50270940304540a733656f0d60405160405180910390a460019050613e48565b600090505b92915050565b600033905090565b6000613e6283836124da565b15613f3e5760006001600085815260200190815260200160002060000160008473ffffffffffffffffffffffffffffffffffffffff1673ffffffffffffffffffffffffffffffffffffffff16815260200190815260200160002060006101000a81548160ff021916908315150217905550613edb613e4e565b73ffffffffffffffffffffffffffffffffffffffff168273ffffffffffffffffffffffffffffffffffffffff16847ff6391f5c32d9c69d2a47ea670b442974b53935d1edc7fd64eb21e047a839171b60405160405180910390a460019050613f43565b600090505b92915050565b600080600360008473ffffffffffffffffffffffffffffffffffffffff1673ffffffffffffffffffffffffffffffffffffffff16815260200190815260200160002090506000816000015403613fa357600091505061407a565b6000614006826040518060c00160405290816000820154815260200160018201548152602001600282015481526020016003820160009054906101000a900460ff1615151515815260200160048201548152602001600582015481525050612b6f565b905060008111156140745742826001018190555080600560008673ffffffffffffffffffffffffffffffffffffffff1673ffffffffffffffffffffffffffffffffffffffff168152602001908152602001600020600201600082825461406c9190614a92565b925050819055505b80925050505b919050565b600080600460008473ffffffffffffffffffffffffffffffffffffffff1673ffffffffffffffffffffffffffffffffffffffff168152602001908152602001600020905060008160000154036140d95760009150506141b0565b600061413c826040518060c00160405290816000820154815260200160018201548152602001600282015481526020016003820160009054906101000a900460ff1615151515815260200160048201548152602001600582015481525050612b6f565b905060008111156141aa5742826001018190555080600660008673ffffffffffffffffffffffffffffffffffffffff1673ffffffffffffffffffffffffffffffffffffffff16815260200190815260200160002060020160008282546141a29190614a92565b925050819055505b80925050505b919050565b6141bd613cfe565b6001600260006101000a81548160ff0219169083151502179055507f62e78cea01bee320cd4e420270b5ea74000d11b0c9f74754ebdbfc544b05a258614201613e4e565b60405161420e919061534f565b60405180910390a1565b61422282826124da565b6142655780826040517fe2517d3f00000000000000000000000000000000000000000000000000000000815260040161425c92919061536a565b60405180910390fd5b5050565b6040518060800160405280600081526020016000815260200160008152602001600081525090565b6000604051905090565b600080fd5b60007fffffffff0000000000000000000000000000000000000000000000000000000082169050919050565b6142d5816142a0565b81146142e057600080fd5b50565b6000813590506142f2816142cc565b92915050565b60006020828403121561430e5761430d61429b565b5b600061431c848285016142e3565b91505092915050565b60008115159050919050565b61433a81614325565b82525050565b60006020820190506143556000830184614331565b92915050565b600073ffffffffffffffffffffffffffffffffffffffff82169050919050565b60006143868261435b565b9050919050565b6143968161437b565b81146143a157600080fd5b50565b6000813590506143b38161438d565b92915050565b6000602082840312156143cf576143ce61429b565b5b60006143dd848285016143a4565b91505092915050565b6000819050919050565b6143f9816143e6565b82525050565b600060808201905061441460008301876143f0565b61442160208301866143f0565b61442e60408301856143f0565b61443b60608301846143f0565b95945050505050565b61444d816143e6565b811461445857600080fd5b50565b60008135905061446a81614444565b92915050565b6000602082840312156144865761448561429b565b5b60006144948482850161445b565b91505092915050565b600060c0820190506144b260008301896143f0565b6144bf60208301886143f0565b6144cc6040830187614331565b6144d960608301866143f0565b6144e660808301856143f0565b6144f360a08301846143f0565b979650505050505050565b614507816143e6565b82525050565b60808201600082015161452360008501826144fe565b50602082015161453660208501826144fe565b50604082015161454960408501826144fe565b50606082015161455c60608501826144fe565b50505050565b600061010082019050614578600083018561450d565b614585608083018461450d565b9392505050565b6000819050919050565b61459f8161458c565b81146145aa57600080fd5b50565b6000813590506145bc81614596565b92915050565b6000602082840312156145d8576145d761429b565b5b60006145e6848285016145ad565b91505092915050565b6145f88161458c565b82525050565b600060208201905061461360008301846145ef565b92915050565b600080604083850312156146305761462f61429b565b5b600061463e858286016145ad565b925050602061464f858286016143a4565b9150509250929050565b600060208201905061466e60008301846143f0565b92915050565b600080fd5b6000601f19601f8301169050919050565b7f4e487b7100000000000000000000000000000000000000000000000000000000600052604160045260246000fd5b6146c282614679565b810181811067ffffffffffffffff821117156146e1576146e061468a565b5b80604052505050565b60006146f4614291565b905061470082826146b9565b919050565b61470e81614325565b811461471957600080fd5b50565b60008135905061472b81614705565b92915050565b600060c0828403121561474757614746614674565b5b61475160c06146ea565b905060006147618482850161445b565b60008301525060206147758482850161445b565b60208301525060406147898482850161445b565b604083015250606061479d8482850161471c565b60608301525060806147b18482850161445b565b60808301525060a06147c58482850161445b565b60a08301525092915050565b600060c082840312156147e7576147e661429b565b5b60006147f584828501614731565b91505092915050565b600080604083850312156148155761481461429b565b5b6000614823858286016143a4565b92505060206148348582860161471c565b9150509250929050565b600060c08201905061485360008301896143f0565b61486060208301886143f0565b61486d60408301876143f0565b61487a60608301866143f0565b6148876080830185614331565b61489460a08301846143f0565b979650505050505050565b600060c0820190506148b460008301896143f0565b6148c160208301886143f0565b6148ce60408301876143f0565b6148db6060830186614331565b6148e860808301856143f0565b6148f560a08301846143f0565b979650505050505050565b6000819050919050565b600061492561492061491b8461435b565b614900565b61435b565b9050919050565b60006149378261490a565b9050919050565b60006149498261492c565b9050919050565b6149598161493e565b82525050565b60006020820190506149746000830184614950565b92915050565b600082825260208201905092915050565b7f43616e6e6f74207374616b652030000000000000000000000000000000000000600082015250565b60006149c1600e8361497a565b91506149cc8261498b565b602082019050919050565b600060208201905081810360008301526149f0816149b4565b9050919050565b7f416d6f756e742065786365656473206d6178696d756d00000000000000000000600082015250565b6000614a2d60168361497a565b9150614a38826149f7565b602082019050919050565b60006020820190508181036000830152614a5c81614a20565b9050919050565b7f4e487b7100000000000000000000000000000000000000000000000000000000600052601160045260246000fd5b6000614a9d826143e6565b9150614aa8836143e6565b9250828201905080821115614ac057614abf614a63565b5b92915050565b7f546f74616c20776f756c6420657863656564206d6178696d756d000000000000600082015250565b6000614afc601a8361497a565b9150614b0782614ac6565b602082019050919050565b60006020820190508181036000830152614b2b81614aef565b9050919050565b600081905092915050565b7f372d446179000000000000000000000000000000000000000000000000000000600082015250565b6000614b73600583614b32565b9150614b7e82614b3d565b600582019050919050565b6000614b9482614b66565b9150819050919050565b6000606082019050614bb360008301866143f0565b614bc060208301856143f0565b614bcd60408301846143f0565b949350505050565b614bde8161437b565b82525050565b6000606082019050614bf96000830186614bd5565b614c066020830185614bd5565b614c1360408301846143f0565b949350505050565b600081519050614c2a81614705565b92915050565b600060208284031215614c4657614c4561429b565b5b6000614c5484828501614c1b565b91505092915050565b7f5472616e73666572206661696c65640000000000000000000000000000000000600082015250565b6000614c93600f8361497a565b9150614c9e82614c5d565b602082019050919050565b60006020820190508181036000830152614cc281614c86565b9050919050565b6000604082019050614cde60008301856143f0565b614ceb60208301846143f0565b9392505050565b7f4e6f207374616b6520666f756e64000000000000000000000000000000000000600082015250565b6000614d28600e8361497a565b9150614d3382614cf2565b602082019050919050565b60006020820190508181036000830152614d5781614d1b565b9050919050565b7f416c726561647920756e6c6f636b696e67000000000000000000000000000000600082015250565b6000614d9460118361497a565b9150614d9f82614d5e565b602082019050919050565b60006020820190508181036000830152614dc381614d87565b9050919050565b7f312d596561720000000000000000000000000000000000000000000000000000600082015250565b6000614e00600683614b32565b9150614e0b82614dca565b600682019050919050565b6000614e2182614df3565b9150819050919050565b7f5261746520746f6f206869676800000000000000000000000000000000000000600082015250565b6000614e61600d8361497a565b9150614e6c82614e2b565b602082019050919050565b60006020820190508181036000830152614e9081614e54565b9050919050565b7f52617465206368616e676520746f6f20736f6f6e000000000000000000000000600082015250565b6000614ecd60148361497a565b9150614ed882614e97565b602082019050919050565b60006020820190508181036000830152614efc81614ec0565b9050919050565b7f556e6c6f636b206e6f7420726571756573746564000000000000000000000000600082015250565b6000614f3960148361497a565b9150614f4482614f03565b602082019050919050565b60006020820190508181036000830152614f6881614f2c565b9050919050565b7f5374696c6c206c6f636b65640000000000000000000000000000000000000000600082015250565b6000614fa5600c8361497a565b9150614fb082614f6f565b602082019050919050565b60006020820190508181036000830152614fd481614f98565b9050919050565b6000604082019050614ff06000830185614bd5565b614ffd60208301846143f0565b9392505050565b7f556e6c6f636b20706572696f64206f7665722c2075736520756e7374616b6500600082015250565b600061503a601f8361497a565b915061504582615004565b602082019050919050565b600060208201905081810360008301526150698161502d565b9050919050565b600061507b826143e6565b9150615086836143e6565b9250828202615094816143e6565b915082820484148315176150ab576150aa614a63565b5b5092915050565b7f4e487b7100000000000000000000000000000000000000000000000000000000600052601260045260246000fd5b60006150ec826143e6565b91506150f7836143e6565b925082615107576151066150b2565b5b828204905092915050565b600061511d826143e6565b9150615128836143e6565b92508282039050818111156151405761513f614a63565b5b92915050565b7f4e6f207265776172647320617661696c61626c65000000000000000000000000600082015250565b600061517c60148361497a565b915061518782615146565b602082019050919050565b600060208201905081810360008301526151ab8161516f565b9050919050565b7f416c6c0000000000000000000000000000000000000000000000000000000000600082015250565b60006151e8600383614b32565b91506151f3826151b2565b600382019050919050565b6000615209826151db565b9150819050919050565b7f456d657267656e6379206d6f646520616c726561647920616374697665000000600082015250565b6000615249601d8361497a565b915061525482615213565b602082019050919050565b600060208201905081810360008301526152788161523c565b9050919050565b7f456d657267656e6379206d6f6465206e6f742061637469766500000000000000600082015250565b60006152b560198361497a565b91506152c08261527f565b602082019050919050565b600060208201905081810360008301526152e4816152a8565b9050919050565b6000819050919050565b600061531061530b615306846152eb565b614900565b6143e6565b9050919050565b615320816152f5565b82525050565b600060408201905061533b60008301856143f0565b6153486020830184615317565b9392505050565b60006020820190506153646000830184614bd5565b92915050565b600060408201905061537f6000830185614bd5565b61538c60208301846145ef565b939250505056fea264697066735822122044df8dd8e9622a533e9efa3a255e4519e4fd1743b27c348e2507d132f7b7649264736f6c634300081b0033",
  "linkReferences": {},
  "deployedLinkReferences": {}
}