{
  "_format": "hh-sol-artifact-1",
  "contractName": "TokenSaleWithOracle",
  "sourceName": "contracts/TokenSaleWithOracle.sol",
  "abi": [
    {
      "inputs": [
        {
          "internalType": "address",
          "name": "_mctToken",
          "type": "address"
        },
        {
          "internalType": "address",
          "name": "_usdtToken",
          "type": "address"
        },
        {
          "internalType": "address",
          "name": "_treasuryWallet",
          "type": "address"
        },
        {
          "internalType": "uint256",
          "name": "_initialEthPrice",
          "type": "uint256"
        }
      ],
      "stateMutability": "nonpayable",
      "type": "constructor"
    },
    {
      "inputs": [
        {
          "internalType": "address",
          "name": "owner",
          "type": "address"
        }
      ],
      "name": "OwnableInvalidOwner",
      "type": "error"
    },
    {
      "inputs": [
        {
          "internalType": "address",
          "name": "account",
          "type": "address"
        }
      ],
      "name": "OwnableUnauthorizedAccount",
      "type": "error"
    },
    {
      "inputs": [],
      "name": "ReentrancyGuardReentrantCall",
      "type": "error"
    },
    {
      "anonymous": false,
      "inputs": [
        {
          "indexed": false,
          "internalType": "uint256",
          "name": "newPrice",
          "type": "uint256"
        }
      ],
      "name": "EthPriceUpdated",
      "type": "event"
    },
    {
      "anonymous": false,
      "inputs": [
        {
          "indexed": false,
          "internalType": "uint256",
          "name": "amount",
          "type": "uint256"
        }
      ],
      "name": "EthWithdrawn",
      "type": "event"
    },
    {
      "anonymous": false,
      "inputs": [
        {
          "indexed": true,
          "internalType": "address",
          "name": "token",
          "type": "address"
        },
        {
          "indexed": false,
          "internalType": "uint256",
          "name": "amount",
          "type": "uint256"
        }
      ],
      "name": "FundsWithdrawn",
      "type": "event"
    },
    {
      "anonymous": false,
      "inputs": [
        {
          "indexed": true,
          "internalType": "address",
          "name": "previousOwner",
          "type": "address"
        },
        {
          "indexed": true,
          "internalType": "address",
          "name": "newOwner",
          "type": "address"
        }
      ],
      "name": "OwnershipTransferred",
      "type": "event"
    },
    {
      "anonymous": false,
      "inputs": [
        {
          "indexed": true,
          "internalType": "address",
          "name": "buyer",
          "type": "address"
        },
        {
          "indexed": false,
          "internalType": "uint256",
          "name": "amountUSD",
          "type": "uint256"
        },
        {
          "indexed": false,
          "internalType": "uint256",
          "name": "tokenAmount",
          "type": "uint256"
        }
      ],
      "name": "TokensPurchased",
      "type": "event"
    },
    {
      "anonymous": false,
      "inputs": [
        {
          "indexed": true,
          "internalType": "address",
          "name": "newWallet",
          "type": "address"
        }
      ],
      "name": "TreasuryWalletUpdated",
      "type": "event"
    },
    {
      "inputs": [],
      "name": "MAX_PURCHASE_USD",
      "outputs": [
        {
          "internalType": "uint256",
          "name": "",
          "type": "uint256"
        }
      ],
      "stateMutability": "view",
      "type": "function"
    },
    {
      "inputs": [],
      "name": "MIN_PURCHASE_USD",
      "outputs": [
        {
          "internalType": "uint256",
          "name": "",
          "type": "uint256"
        }
      ],
      "stateMutability": "view",
      "type": "function"
    },
    {
      "inputs": [],
      "name": "TOKEN_PRICE_USD",
      "outputs": [
        {
          "internalType": "uint256",
          "name": "",
          "type": "uint256"
        }
      ],
      "stateMutability": "view",
      "type": "function"
    },
    {
      "inputs": [],
      "name": "buyWithETH",
      "outputs": [],
      "stateMutability": "payable",
      "type": "function"
    },
    {
      "inputs": [
        {
          "internalType": "uint256",
          "name": "amount",
          "type": "uint256"
        }
      ],
      "name": "buyWithUSDT",
      "outputs": [],
      "stateMutability": "nonpayable",
      "type": "function"
    },
    {
      "inputs": [
        {
          "internalType": "uint256",
          "name": "usdAmount",
          "type": "uint256"
        }
      ],
      "name": "calculateTokensForUsd",
      "outputs": [
        {
          "internalType": "uint256",
          "name": "",
          "type": "uint256"
        }
      ],
      "stateMutability": "pure",
      "type": "function"
    },
    {
      "inputs": [],
      "name": "ethPriceUSD",
      "outputs": [
        {
          "internalType": "uint256",
          "name": "",
          "type": "uint256"
        }
      ],
      "stateMutability": "view",
      "type": "function"
    },
    {
      "inputs": [],
      "name": "getTotalRaised",
      "outputs": [
        {
          "internalType": "uint256",
          "name": "eth",
          "type": "uint256"
        },
        {
          "internalType": "uint256",
          "name": "usdt",
          "type": "uint256"
        }
      ],
      "stateMutability": "view",
      "type": "function"
    },
    {
      "inputs": [],
      "name": "mctToken",
      "outputs": [
        {
          "internalType": "contract IERC20",
          "name": "",
          "type": "address"
        }
      ],
      "stateMutability": "view",
      "type": "function"
    },
    {
      "inputs": [],
      "name": "owner",
      "outputs": [
        {
          "internalType": "address",
          "name": "",
          "type": "address"
        }
      ],
      "stateMutability": "view",
      "type": "function"
    },
    {
      "inputs": [],
      "name": "renounceOwnership",
      "outputs": [],
      "stateMutability": "nonpayable",
      "type": "function"
    },
    {
      "inputs": [
        {
          "internalType": "address",
          "name": "_newWallet",
          "type": "address"
        }
      ],
      "name": "setTreasuryWallet",
      "outputs": [],
      "stateMutability": "nonpayable",
      "type": "function"
    },
    {
      "inputs": [],
      "name": "totalEthRaised",
      "outputs": [
        {
          "internalType": "uint256",
          "name": "",
          "type": "uint256"
        }
      ],
      "stateMutability": "view",
      "type": "function"
    },
    {
      "inputs": [],
      "name": "totalUsdtRaised",
      "outputs": [
        {
          "internalType": "uint256",
          "name": "",
          "type": "uint256"
        }
      ],
      "stateMutability": "view",
      "type": "function"
    },
    {
      "inputs": [
        {
          "internalType": "address",
          "name": "newOwner",
          "type": "address"
        }
      ],
      "name": "transferOwnership",
      "outputs": [],
      "stateMutability": "nonpayable",
      "type": "function"
    },
    {
      "inputs": [],
      "name": "treasuryWallet",
      "outputs": [
        {
          "internalType": "address",
          "name": "",
          "type": "address"
        }
      ],
      "stateMutability": "view",
      "type": "function"
    },
    {
      "inputs": [
        {
          "internalType": "uint256",
          "name": "_newPrice",
          "type": "uint256"
        }
      ],
      "name": "updateEthPrice",
      "outputs": [],
      "stateMutability": "nonpayable",
      "type": "function"
    },
    {
      "inputs": [],
      "name": "usdtToken",
      "outputs": [
        {
          "internalType": "contract IERC20",
          "name": "",
          "type": "address"
        }
      ],
      "stateMutability": "view",
      "type": "function"
    },
    {
      "inputs": [],
      "name": "withdrawETH",
      "outputs": [],
      "stateMutability": "nonpayable",
      "type": "function"
    },
    {
      "inputs": [
        {
          "internalType": "address",
          "name": "token",
          "type": "address"
        }
      ],
      "name": "withdrawToken",
      "outputs": [],
      "stateMutability": "nonpayable",
      "type": "function"
    },
    {
      "inputs": [],
      "name": "withdrawUSDT",
      "outputs": [],
      "stateMutability": "nonpayable",
      "type": "function"
    },
    {
      "stateMutability": "payable",
      "type": "receive"
    }
  ],
  "bytecode": "0x608060405234801561001057600080fd5b5060405161228a38038061228a833981810160405281019061003291906102ef565b336001600081905550600073ffffffffffffffffffffffffffffffffffffffff168173ffffffffffffffffffffffffffffffffffffffff16036100ad5760006040517f1e4fbdf70000000000000000000000000000000000000000000000000000000081526004016100a49190610365565b60405180910390fd5b6100bc8161019060201b60201c565b5083600260006101000a81548173ffffffffffffffffffffffffffffffffffffffff021916908373ffffffffffffffffffffffffffffffffffffffff16021790555082600360006101000a81548173ffffffffffffffffffffffffffffffffffffffff021916908373ffffffffffffffffffffffffffffffffffffffff16021790555081600460006101000a81548173ffffffffffffffffffffffffffffffffffffffff021916908373ffffffffffffffffffffffffffffffffffffffff1602179055508060078190555050505050610380565b6000600160009054906101000a900473ffffffffffffffffffffffffffffffffffffffff16905081600160006101000a81548173ffffffffffffffffffffffffffffffffffffffff021916908373ffffffffffffffffffffffffffffffffffffffff1602179055508173ffffffffffffffffffffffffffffffffffffffff168173ffffffffffffffffffffffffffffffffffffffff167f8be0079c531659141344cd1fd0a4f28419497f9722a3daafe3b4186f6b6457e060405160405180910390a35050565b600080fd5b600073ffffffffffffffffffffffffffffffffffffffff82169050919050565b60006102868261025b565b9050919050565b6102968161027b565b81146102a157600080fd5b50565b6000815190506102b38161028d565b92915050565b6000819050919050565b6102cc816102b9565b81146102d757600080fd5b50565b6000815190506102e9816102c3565b92915050565b6000806000806080858703121561030957610308610256565b5b6000610317878288016102a4565b9450506020610328878288016102a4565b9350506040610339878288016102a4565b925050606061034a878288016102da565b91505092959194509250565b61035f8161027b565b82525050565b600060208201905061037a6000830184610356565b92915050565b611efb8061038f6000396000f3fe60806040526004361061012e5760003560e01c80638da5cb5b116100ab578063c9e904be1161006f578063c9e904be14610381578063d73d56bb146103ac578063e086e5ec146103d7578063e6672fe7146103ee578063f2fde38b14610419578063f7a182f51461044257610135565b80638da5cb5b146102ad5780639f550293146102d8578063a7c6016014610304578063a8602fea1461032d578063a98ad46c1461035657610135565b8063362e496b116100f2578063362e496b146102005780634626402b146102175780636ea33e4e14610242578063715018a61461026d578063894760691461028457610135565b8063150d283d1461013a5780631aae8491146101445780631d634fb21461016f57806321370942146101ac5780632de8f450146101d557610135565b3661013557005b600080fd5b61014261046d565b005b34801561015057600080fd5b506101596106cd565b6040516101669190611515565b60405180910390f35b34801561017b57600080fd5b5061019660048036038101906101919190611561565b6106d5565b6040516101a39190611515565b60405180910390f35b3480156101b857600080fd5b506101d360048036038101906101ce9190611561565b610700565b005b3480156101e157600080fd5b506101ea61078c565b6040516101f79190611515565b60405180910390f35b34801561020c57600080fd5b50610215610795565b005b34801561022357600080fd5b5061022c6109f4565b60405161023991906115cf565b60405180910390f35b34801561024e57600080fd5b50610257610a1a565b6040516102649190611515565b60405180910390f35b34801561027957600080fd5b50610282610a20565b005b34801561029057600080fd5b506102ab60048036038101906102a69190611616565b610a34565b005b3480156102b957600080fd5b506102c2610cc4565b6040516102cf91906115cf565b60405180910390f35b3480156102e457600080fd5b506102ed610cee565b6040516102fb929190611643565b60405180910390f35b34801561031057600080fd5b5061032b60048036038101906103269190611561565b610cff565b005b34801561033957600080fd5b50610354600480360381019061034f9190611616565b61101b565b005b34801561036257600080fd5b5061036b611119565b60405161037891906116cb565b60405180910390f35b34801561038d57600080fd5b5061039661113f565b6040516103a39190611515565b60405180910390f35b3480156103b857600080fd5b506103c1611145565b6040516103ce9190611515565b60405180910390f35b3480156103e357600080fd5b506103ec61114b565b005b3480156103fa57600080fd5b506104036112a4565b60405161041091906116cb565b60405180910390f35b34801561042557600080fd5b50610440600480360381019061043b9190611616565b6112ca565b005b34801561044e57600080fd5b50610457611350565b6040516104649190611515565b60405180910390f35b610475611357565b600034116104b8576040517f08c379a00000000000000000000000000000000000000000000000000000000081526004016104af90611743565b60405180910390fd5b6000670de0b6b3a7640000600754346104d19190611792565b6104db9190611803565b90506305f5e100811015610524576040517f08c379a000000000000000000000000000000000000000000000000000000000815260040161051b90611880565b60405180910390fd5b640ba43b740081111561056c576040517f08c379a0000000000000000000000000000000000000000000000000000000008152600401610563906118ec565b60405180910390fd5b6000610577826106d5565b9050346005600082825461058b919061190c565b92505081905550600260009054906101000a900473ffffffffffffffffffffffffffffffffffffffff1673ffffffffffffffffffffffffffffffffffffffff1663a9059cbb33836040518363ffffffff1660e01b81526004016105ef929190611940565b6020604051808303816000875af115801561060e573d6000803e3d6000fd5b505050506040513d601f19601f8201168201806040525081019061063291906119a1565b610671576040517f08c379a000000000000000000000000000000000000000000000000000000000815260040161066890611a1a565b60405180910390fd5b3373ffffffffffffffffffffffffffffffffffffffff167f8fafebcaf9d154343dad25669bfa277f4fbacd7ac6b0c4fed522580e040a0f3383836040516106b9929190611643565b60405180910390a250506106cb61139d565b565b6305f5e10081565b6000624c4b40670de0b6b3a7640000836106ef9190611792565b6106f99190611803565b9050919050565b6107086113a7565b6000811161074b576040517f08c379a000000000000000000000000000000000000000000000000000000000815260040161074290611a86565b60405180910390fd5b806007819055507f9193344cc8802d31c4aa2815214e792efa5a9fa7daa8e102ab2ad3576e74b51b816040516107819190611515565b60405180910390a150565b640ba43b740081565b61079d6113a7565b6000600360009054906101000a900473ffffffffffffffffffffffffffffffffffffffff1673ffffffffffffffffffffffffffffffffffffffff166370a08231306040518263ffffffff1660e01b81526004016107fa91906115cf565b602060405180830381865afa158015610817573d6000803e3d6000fd5b505050506040513d601f19601f8201168201806040525081019061083b9190611abb565b905060008111610880576040517f08c379a000000000000000000000000000000000000000000000000000000000815260040161087790611b34565b60405180910390fd5b600360009054906101000a900473ffffffffffffffffffffffffffffffffffffffff1673ffffffffffffffffffffffffffffffffffffffff1663a9059cbb600460009054906101000a900473ffffffffffffffffffffffffffffffffffffffff16836040518363ffffffff1660e01b81526004016108ff929190611940565b6020604051808303816000875af115801561091e573d6000803e3d6000fd5b505050506040513d601f19601f8201168201806040525081019061094291906119a1565b610981576040517f08c379a000000000000000000000000000000000000000000000000000000000815260040161097890611ba0565b60405180910390fd5b600360009054906101000a900473ffffffffffffffffffffffffffffffffffffffff1673ffffffffffffffffffffffffffffffffffffffff167feaff4b37086828766ad3268786972c0cd24259d4c87a80f9d3963a3c3d999b0d826040516109e99190611515565b60405180910390a250565b600460009054906101000a900473ffffffffffffffffffffffffffffffffffffffff1681565b60065481565b610a286113a7565b610a32600061142e565b565b610a3c6113a7565b600260009054906101000a900473ffffffffffffffffffffffffffffffffffffffff1673ffffffffffffffffffffffffffffffffffffffff168173ffffffffffffffffffffffffffffffffffffffff1603610acc576040517f08c379a0000000000000000000000000000000000000000000000000000000008152600401610ac390611c0c565b60405180910390fd5b600081905060008173ffffffffffffffffffffffffffffffffffffffff166370a08231306040518263ffffffff1660e01b8152600401610b0c91906115cf565b602060405180830381865afa158015610b29573d6000803e3d6000fd5b505050506040513d601f19601f82011682018060405250810190610b4d9190611abb565b905060008111610b92576040517f08c379a0000000000000000000000000000000000000000000000000000000008152600401610b8990611c78565b60405180910390fd5b8173ffffffffffffffffffffffffffffffffffffffff1663a9059cbb600460009054906101000a900473ffffffffffffffffffffffffffffffffffffffff16836040518363ffffffff1660e01b8152600401610bef929190611940565b6020604051808303816000875af1158015610c0e573d6000803e3d6000fd5b505050506040513d601f19601f82011682018060405250810190610c3291906119a1565b610c71576040517f08c379a0000000000000000000000000000000000000000000000000000000008152600401610c6890611a1a565b60405180910390fd5b8273ffffffffffffffffffffffffffffffffffffffff167feaff4b37086828766ad3268786972c0cd24259d4c87a80f9d3963a3c3d999b0d82604051610cb79190611515565b60405180910390a2505050565b6000600160009054906101000a900473ffffffffffffffffffffffffffffffffffffffff16905090565b600080600554600654915091509091565b610d07611357565b60008111610d4a576040517f08c379a0000000000000000000000000000000000000000000000000000000008152600401610d4190611ce4565b60405180910390fd5b6305f5e100811015610d91576040517f08c379a0000000000000000000000000000000000000000000000000000000008152600401610d8890611880565b60405180910390fd5b640ba43b7400811115610dd9576040517f08c379a0000000000000000000000000000000000000000000000000000000008152600401610dd0906118ec565b60405180910390fd5b600360009054906101000a900473ffffffffffffffffffffffffffffffffffffffff1673ffffffffffffffffffffffffffffffffffffffff166323b872dd3330846040518463ffffffff1660e01b8152600401610e3893929190611d04565b6020604051808303816000875af1158015610e57573d6000803e3d6000fd5b505050506040513d601f19601f82011682018060405250810190610e7b91906119a1565b610eba576040517f08c379a0000000000000000000000000000000000000000000000000000000008152600401610eb190611ba0565b60405180910390fd5b6000610ec5826106d5565b90508160066000828254610ed9919061190c565b92505081905550600260009054906101000a900473ffffffffffffffffffffffffffffffffffffffff1673ffffffffffffffffffffffffffffffffffffffff1663a9059cbb33836040518363ffffffff1660e01b8152600401610f3d929190611940565b6020604051808303816000875af1158015610f5c573d6000803e3d6000fd5b505050506040513d601f19601f82011682018060405250810190610f8091906119a1565b610fbf576040517f08c379a0000000000000000000000000000000000000000000000000000000008152600401610fb690611a1a565b60405180910390fd5b3373ffffffffffffffffffffffffffffffffffffffff167f8fafebcaf9d154343dad25669bfa277f4fbacd7ac6b0c4fed522580e040a0f338383604051611007929190611643565b60405180910390a25061101861139d565b50565b6110236113a7565b600073ffffffffffffffffffffffffffffffffffffffff168173ffffffffffffffffffffffffffffffffffffffff1603611092576040517f08c379a000000000000000000000000000000000000000000000000000000000815260040161108990611d87565b60405180910390fd5b80600460006101000a81548173ffffffffffffffffffffffffffffffffffffffff021916908373ffffffffffffffffffffffffffffffffffffffff1602179055508073ffffffffffffffffffffffffffffffffffffffff167f97c79b3848e51f57983ac89e4403452655c8d83ceba8199011de63a74f60d1a760405160405180910390a250565b600360009054906101000a900473ffffffffffffffffffffffffffffffffffffffff1681565b60055481565b60075481565b6111536113a7565b60004790506000811161119b576040517f08c379a000000000000000000000000000000000000000000000000000000000815260040161119290611df3565b60405180910390fd5b6000600460009054906101000a900473ffffffffffffffffffffffffffffffffffffffff1673ffffffffffffffffffffffffffffffffffffffff16826040516111e390611e44565b60006040518083038185875af1925050503d8060008114611220576040519150601f19603f3d011682016040523d82523d6000602084013e611225565b606091505b5050905080611269576040517f08c379a000000000000000000000000000000000000000000000000000000000815260040161126090611ea5565b60405180910390fd5b7f7909752b76037727fecfc6c1abb7264306fd284ff7be21e2aa09bf2fdc00579d826040516112989190611515565b60405180910390a15050565b600260009054906101000a900473ffffffffffffffffffffffffffffffffffffffff1681565b6112d26113a7565b600073ffffffffffffffffffffffffffffffffffffffff168173ffffffffffffffffffffffffffffffffffffffff16036113445760006040517f1e4fbdf700000000000000000000000000000000000000000000000000000000815260040161133b91906115cf565b60405180910390fd5b61134d8161142e565b50565b624c4b4081565b600260005403611393576040517f3ee5aeb500000000000000000000000000000000000000000000000000000000815260040160405180910390fd5b6002600081905550565b6001600081905550565b6113af6114f4565b73ffffffffffffffffffffffffffffffffffffffff166113cd610cc4565b73ffffffffffffffffffffffffffffffffffffffff161461142c576113f06114f4565b6040517f118cdaa700000000000000000000000000000000000000000000000000000000815260040161142391906115cf565b60405180910390fd5b565b6000600160009054906101000a900473ffffffffffffffffffffffffffffffffffffffff16905081600160006101000a81548173ffffffffffffffffffffffffffffffffffffffff021916908373ffffffffffffffffffffffffffffffffffffffff1602179055508173ffffffffffffffffffffffffffffffffffffffff168173ffffffffffffffffffffffffffffffffffffffff167f8be0079c531659141344cd1fd0a4f28419497f9722a3daafe3b4186f6b6457e060405160405180910390a35050565b600033905090565b6000819050919050565b61150f816114fc565b82525050565b600060208201905061152a6000830184611506565b92915050565b600080fd5b61153e816114fc565b811461154957600080fd5b50565b60008135905061155b81611535565b92915050565b60006020828403121561157757611576611530565b5b60006115858482850161154c565b91505092915050565b600073ffffffffffffffffffffffffffffffffffffffff82169050919050565b60006115b98261158e565b9050919050565b6115c9816115ae565b82525050565b60006020820190506115e460008301846115c0565b92915050565b6115f3816115ae565b81146115fe57600080fd5b50565b600081359050611610816115ea565b92915050565b60006020828403121561162c5761162b611530565b5b600061163a84828501611601565b91505092915050565b60006040820190506116586000830185611506565b6116656020830184611506565b9392505050565b6000819050919050565b600061169161168c6116878461158e565b61166c565b61158e565b9050919050565b60006116a382611676565b9050919050565b60006116b582611698565b9050919050565b6116c5816116aa565b82525050565b60006020820190506116e060008301846116bc565b92915050565b600082825260208201905092915050565b7f4e6f204554482073656e74000000000000000000000000000000000000000000600082015250565b600061172d600b836116e6565b9150611738826116f7565b602082019050919050565b6000602082019050818103600083015261175c81611720565b9050919050565b7f4e487b7100000000000000000000000000000000000000000000000000000000600052601160045260246000fd5b600061179d826114fc565b91506117a8836114fc565b92508282026117b6816114fc565b915082820484148315176117cd576117cc611763565b5b5092915050565b7f4e487b7100000000000000000000000000000000000000000000000000000000600052601260045260246000fd5b600061180e826114fc565b9150611819836114fc565b925082611829576118286117d4565b5b828204905092915050565b7f42656c6f77206d696e696d756d20707572636861736500000000000000000000600082015250565b600061186a6016836116e6565b915061187582611834565b602082019050919050565b600060208201905081810360008301526118998161185d565b9050919050565b7f45786365656473206d6178696d756d2070757263686173650000000000000000600082015250565b60006118d66018836116e6565b91506118e1826118a0565b602082019050919050565b60006020820190508181036000830152611905816118c9565b9050919050565b6000611917826114fc565b9150611922836114fc565b925082820190508082111561193a57611939611763565b5b92915050565b600060408201905061195560008301856115c0565b6119626020830184611506565b9392505050565b60008115159050919050565b61197e81611969565b811461198957600080fd5b50565b60008151905061199b81611975565b92915050565b6000602082840312156119b7576119b6611530565b5b60006119c58482850161198c565b91505092915050565b7f546f6b656e207472616e73666572206661696c65640000000000000000000000600082015250565b6000611a046015836116e6565b9150611a0f826119ce565b602082019050919050565b60006020820190508181036000830152611a33816119f7565b9050919050565b7f496e76616c696420707269636500000000000000000000000000000000000000600082015250565b6000611a70600d836116e6565b9150611a7b82611a3a565b602082019050919050565b60006020820190508181036000830152611a9f81611a63565b9050919050565b600081519050611ab581611535565b92915050565b600060208284031215611ad157611ad0611530565b5b6000611adf84828501611aa6565b91505092915050565b7f4e6f205553445420746f20776974686472617700000000000000000000000000600082015250565b6000611b1e6013836116e6565b9150611b2982611ae8565b602082019050919050565b60006020820190508181036000830152611b4d81611b11565b9050919050565b7f55534454207472616e73666572206661696c6564000000000000000000000000600082015250565b6000611b8a6014836116e6565b9150611b9582611b54565b602082019050919050565b60006020820190508181036000830152611bb981611b7d565b9050919050565b7f43616e6e6f742077697468647261772073616c6520746f6b656e730000000000600082015250565b6000611bf6601b836116e6565b9150611c0182611bc0565b602082019050919050565b60006020820190508181036000830152611c2581611be9565b9050919050565b7f4e6f20746f6b656e7320746f2077697468647261770000000000000000000000600082015250565b6000611c626015836116e6565b9150611c6d82611c2c565b602082019050919050565b60006020820190508181036000830152611c9181611c55565b9050919050565b7f4e6f20555344542073656e740000000000000000000000000000000000000000600082015250565b6000611cce600c836116e6565b9150611cd982611c98565b602082019050919050565b60006020820190508181036000830152611cfd81611cc1565b9050919050565b6000606082019050611d1960008301866115c0565b611d2660208301856115c0565b611d336040830184611506565b949350505050565b7f496e76616c696420616464726573730000000000000000000000000000000000600082015250565b6000611d71600f836116e6565b9150611d7c82611d3b565b602082019050919050565b60006020820190508181036000830152611da081611d64565b9050919050565b7f4e6f2045544820746f2077697468647261770000000000000000000000000000600082015250565b6000611ddd6012836116e6565b9150611de882611da7565b602082019050919050565b60006020820190508181036000830152611e0c81611dd0565b9050919050565b600081905092915050565b50565b6000611e2e600083611e13565b9150611e3982611e1e565b600082019050919050565b6000611e4f82611e21565b9150819050919050565b7f4661696c656420746f2073656e64204554480000000000000000000000000000600082015250565b6000611e8f6012836116e6565b9150611e9a82611e59565b602082019050919050565b60006020820190508181036000830152611ebe81611e82565b905091905056fea2646970667358221220508251d9215d24092a50bc318971c9b17cca0ceb66a2395f5c55bcc03177c13c64736f6c634300081b0033",
  "linkReferences": {},
  "deployedLinkReferences": {}
}