{
  "_format": "hh-sol-artifact-1",
  "contractName": "TokenSaleWithOracle",
  "sourceName": "contracts/TokenSaleWithOracle.sol",
  "abi": [
    {
      "inputs": [
        {
          "internalType": "address",
          "name": "_mctToken",
          "type": "address"
        },
        {
          "internalType": "address",
          "name": "_usdtToken",
          "type": "address"
        },
        {
          "internalType": "address",
          "name": "_treasuryWallet",
          "type": "address"
        },
        {
          "internalType": "uint256",
          "name": "_initialEthPrice",
          "type": "uint256"
        }
      ],
      "stateMutability": "nonpayable",
      "type": "constructor"
    },
    {
      "inputs": [
        {
          "internalType": "address",
          "name": "owner",
          "type": "address"
        }
      ],
      "name": "OwnableInvalidOwner",
      "type": "error"
    },
    {
      "inputs": [
        {
          "internalType": "address",
          "name": "account",
          "type": "address"
        }
      ],
      "name": "OwnableUnauthorizedAccount",
      "type": "error"
    },
    {
      "inputs": [],
      "name": "ReentrancyGuardReentrantCall",
      "type": "error"
    },
    {
      "anonymous": false,
      "inputs": [
        {
          "indexed": false,
          "internalType": "uint256",
          "name": "newPrice",
          "type": "uint256"
        }
      ],
      "name": "EthPriceUpdated",
      "type": "event"
    },
    {
      "anonymous": false,
      "inputs": [
        {
          "indexed": false,
          "internalType": "uint256",
          "name": "amount",
          "type": "uint256"
        }
      ],
      "name": "EthWithdrawn",
      "type": "event"
    },
    {
      "anonymous": false,
      "inputs": [
        {
          "indexed": true,
          "internalType": "address",
          "name": "token",
          "type": "address"
        },
        {
          "indexed": false,
          "internalType": "uint256",
          "name": "amount",
          "type": "uint256"
        }
      ],
      "name": "FundsWithdrawn",
      "type": "event"
    },
    {
      "anonymous": false,
      "inputs": [
        {
          "indexed": true,
          "internalType": "address",
          "name": "previousOwner",
          "type": "address"
        },
        {
          "indexed": true,
          "internalType": "address",
          "name": "newOwner",
          "type": "address"
        }
      ],
      "name": "OwnershipTransferred",
      "type": "event"
    },
    {
      "anonymous": false,
      "inputs": [
        {
          "indexed": true,
          "internalType": "address",
          "name": "buyer",
          "type": "address"
        },
        {
          "indexed": false,
          "internalType": "uint256",
          "name": "amountUSD",
          "type": "uint256"
        },
        {
          "indexed": false,
          "internalType": "uint256",
          "name": "tokenAmount",
          "type": "uint256"
        }
      ],
      "name": "TokensPurchased",
      "type": "event"
    },
    {
      "anonymous": false,
      "inputs": [
        {
          "indexed": true,
          "internalType": "address",
          "name": "newWallet",
          "type": "address"
        }
      ],
      "name": "TreasuryWalletUpdated",
      "type": "event"
    },
    {
      "inputs": [],
      "name": "MAX_PURCHASE_USD",
      "outputs": [
        {
          "internalType": "uint256",
          "name": "",
          "type": "uint256"
        }
      ],
      "stateMutability": "view",
      "type": "function"
    },
    {
      "inputs": [],
      "name": "MIN_PURCHASE_USD",
      "outputs": [
        {
          "internalType": "uint256",
          "name": "",
          "type": "uint256"
        }
      ],
      "stateMutability": "view",
      "type": "function"
    },
    {
      "inputs": [],
      "name": "TOKEN_PRICE_USD",
      "outputs": [
        {
          "internalType": "uint256",
          "name": "",
          "type": "uint256"
        }
      ],
      "stateMutability": "view",
      "type": "function"
    },
    {
      "inputs": [],
      "name": "buyWithETH",
      "outputs": [],
      "stateMutability": "payable",
      "type": "function"
    },
    {
      "inputs": [
        {
          "internalType": "uint256",
          "name": "amount",
          "type": "uint256"
        }
      ],
      "name": "buyWithUSDT",
      "outputs": [],
      "stateMutability": "nonpayable",
      "type": "function"
    },
    {
      "inputs": [
        {
          "internalType": "uint256",
          "name": "usdAmount",
          "type": "uint256"
        }
      ],
      "name": "calculateTokensForUsd",
      "outputs": [
        {
          "internalType": "uint256",
          "name": "",
          "type": "uint256"
        }
      ],
      "stateMutability": "pure",
      "type": "function"
    },
    {
      "inputs": [],
      "name": "ethPriceUSD",
      "outputs": [
        {
          "internalType": "uint256",
          "name": "",
          "type": "uint256"
        }
      ],
      "stateMutability": "view",
      "type": "function"
    },
    {
      "inputs": [],
      "name": "getTotalRaised",
      "outputs": [
        {
          "internalType": "uint256",
          "name": "eth",
          "type": "uint256"
        },
        {
          "internalType": "uint256",
          "name": "usdt",
          "type": "uint256"
        }
      ],
      "stateMutability": "view",
      "type": "function"
    },
    {
      "inputs": [],
      "name": "mctToken",
      "outputs": [
        {
          "internalType": "contract IERC20",
          "name": "",
          "type": "address"
        }
      ],
      "stateMutability": "view",
      "type": "function"
    },
    {
      "inputs": [],
      "name": "owner",
      "outputs": [
        {
          "internalType": "address",
          "name": "",
          "type": "address"
        }
      ],
      "stateMutability": "view",
      "type": "function"
    },
    {
      "inputs": [],
      "name": "renounceOwnership",
      "outputs": [],
      "stateMutability": "nonpayable",
      "type": "function"
    },
    {
      "inputs": [
        {
          "internalType": "address",
          "name": "_newWallet",
          "type": "address"
        }
      ],
      "name": "setTreasuryWallet",
      "outputs": [],
      "stateMutability": "nonpayable",
      "type": "function"
    },
    {
      "inputs": [],
      "name": "totalEthRaised",
      "outputs": [
        {
          "internalType": "uint256",
          "name": "",
          "type": "uint256"
        }
      ],
      "stateMutability": "view",
      "type": "function"
    },
    {
      "inputs": [],
      "name": "totalUsdtRaised",
      "outputs": [
        {
          "internalType": "uint256",
          "name": "",
          "type": "uint256"
        }
      ],
      "stateMutability": "view",
      "type": "function"
    },
    {
      "inputs": [
        {
          "internalType": "address",
          "name": "newOwner",
          "type": "address"
        }
      ],
      "name": "transferOwnership",
      "outputs": [],
      "stateMutability": "nonpayable",
      "type": "function"
    },
    {
      "inputs": [],
      "name": "treasuryWallet",
      "outputs": [
        {
          "internalType": "address",
          "name": "",
          "type": "address"
        }
      ],
      "stateMutability": "view",
      "type": "function"
    },
    {
      "inputs": [
        {
          "internalType": "uint256",
          "name": "_newPrice",
          "type": "uint256"
        }
      ],
      "name": "updateEthPrice",
      "outputs": [],
      "stateMutability": "nonpayable",
      "type": "function"
    },
    {
      "inputs": [],
      "name": "usdtToken",
      "outputs": [
        {
          "internalType": "contract IERC20",
          "name": "",
          "type": "address"
        }
      ],
      "stateMutability": "view",
      "type": "function"
    },
    {
      "inputs": [],
      "name": "withdrawETH",
      "outputs": [],
      "stateMutability": "nonpayable",
      "type": "function"
    },
    {
      "inputs": [
        {
          "internalType": "address",
          "name": "token",
          "type": "address"
        }
      ],
      "name": "withdrawToken",
      "outputs": [],
      "stateMutability": "nonpayable",
      "type": "function"
    },
    {
      "inputs": [],
      "name": "withdrawUSDT",
      "outputs": [],
      "stateMutability": "nonpayable",
      "type": "function"
    },
    {
      "stateMutability": "payable",
      "type": "receive"
    }
  ],
  "bytecode": "0x608060405234801561001057600080fd5b50604051610e2b380380610e2b83398101604081905261002f91610117565b6001600055338061005a57604051631e4fbdf760e01b81526000600482015260240160405180910390fd5b610063816100a9565b50600280546001600160a01b03199081166001600160a01b0396871617909155600380548216948616949094179093556004805490931691909316179055600755610162565b600180546001600160a01b038381166001600160a01b0319831681179093556040519116919082907f8be0079c531659141344cd1fd0a4f28419497f9722a3daafe3b4186f6b6457e090600090a35050565b80516001600160a01b038116811461011257600080fd5b919050565b6000806000806080858703121561012d57600080fd5b610136856100fb565b9350610144602086016100fb565b9250610152604086016100fb565b6060959095015193969295505050565b610cba806101716000396000f3fe60806040526004361061012e5760003560e01c80638da5cb5b116100ab578063c9e904be1161006f578063c9e904be14610306578063d73d56bb1461031c578063e086e5ec14610332578063e6672fe714610347578063f2fde38b14610367578063f7a182f51461038757600080fd5b80638da5cb5b146102605780639f5502931461027e578063a7c60160146102a6578063a8602fea146102c6578063a98ad46c146102e657600080fd5b8063362e496b116100f2578063362e496b146101c85780634626402b146101dd5780636ea33e4e14610215578063715018a61461022b578063894760691461024057600080fd5b8063150d283d1461013a5780631aae8491146101445780631d634fb21461016f578063213709421461018f5780632de8f450146101af57600080fd5b3661013557005b600080fd5b61014261039e565b005b34801561015057600080fd5b5061015c6305f5e10081565b6040519081526020015b60405180910390f35b34801561017b57600080fd5b5061015c61018a366004610bc7565b6104e6565b34801561019b57600080fd5b506101426101aa366004610bc7565b61050e565b3480156101bb57600080fd5b5061015c640ba43b740081565b3480156101d457600080fd5b5061014261055e565b3480156101e957600080fd5b506004546101fd906001600160a01b031681565b6040516001600160a01b039091168152602001610166565b34801561022157600080fd5b5061015c60065481565b34801561023757600080fd5b506101426106ad565b34801561024c57600080fd5b5061014261025b366004610be0565b6106bf565b34801561026c57600080fd5b506001546001600160a01b03166101fd565b34801561028a57600080fd5b5060055460065460408051928352602083019190915201610166565b3480156102b257600080fd5b506101426102c1366004610bc7565b610828565b3480156102d257600080fd5b506101426102e1366004610be0565b6109cf565b3480156102f257600080fd5b506003546101fd906001600160a01b031681565b34801561031257600080fd5b5061015c60055481565b34801561032857600080fd5b5061015c60075481565b34801561033e57600080fd5b50610142610a34565b34801561035357600080fd5b506002546101fd906001600160a01b031681565b34801561037357600080fd5b50610142610382366004610be0565b610ade565b34801561039357600080fd5b5061015c624c4b4081565b6103a6610b1e565b600034116103b357600080fd5b6000670de0b6b3a7640000600754346103cc9190610c26565b6103d69190610c3d565b90506305f5e1008110156103e957600080fd5b640ba43b74008111156103fb57600080fd5b6000610406826104e6565b9050346005600082825461041a9190610c5f565b909155505060025460405163a9059cbb60e01b8152336004820152602481018390526001600160a01b039091169063a9059cbb906044016020604051808303816000875af1158015610470573d6000803e3d6000fd5b505050506040513d601f19601f820116820180604052508101906104949190610c72565b61049d57600080fd5b604080518381526020810183905233917f8fafebcaf9d154343dad25669bfa277f4fbacd7ac6b0c4fed522580e040a0f33910160405180910390a250506104e46001600055565b565b6000624c4b406104fe83670de0b6b3a7640000610c26565b6105089190610c3d565b92915050565b610516610b48565b6000811161052357600080fd5b60078190556040518181527f9193344cc8802d31c4aa2815214e792efa5a9fa7daa8e102ab2ad3576e74b51b9060200160405180910390a150565b610566610b48565b6003546040516370a0823160e01b81523060048201526000916001600160a01b0316906370a0823190602401602060405180830381865afa1580156105af573d6000803e3d6000fd5b505050506040513d601f19601f820116820180604052508101906105d39190610c94565b9050600081116105e257600080fd5b6003546004805460405163a9059cbb60e01b81526001600160a01b0391821692810192909252602482018490529091169063a9059cbb906044016020604051808303816000875af115801561063b573d6000803e3d6000fd5b505050506040513d601f19601f8201168201806040525081019061065f9190610c72565b61066857600080fd5b6003546040518281526001600160a01b03909116907feaff4b37086828766ad3268786972c0cd24259d4c87a80f9d3963a3c3d999b0d9060200160405180910390a250565b6106b5610b48565b6104e46000610b75565b6106c7610b48565b6002546001600160a01b03908116908216036106e257600080fd5b6040516370a0823160e01b815230600482015281906000906001600160a01b038316906370a0823190602401602060405180830381865afa15801561072b573d6000803e3d6000fd5b505050506040513d601f19601f8201168201806040525081019061074f9190610c94565b90506000811161075e57600080fd5b6004805460405163a9059cbb60e01b81526001600160a01b03918216928101929092526024820183905283169063a9059cbb906044016020604051808303816000875af11580156107b3573d6000803e3d6000fd5b505050506040513d601f19601f820116820180604052508101906107d79190610c72565b6107e057600080fd5b826001600160a01b03167feaff4b37086828766ad3268786972c0cd24259d4c87a80f9d3963a3c3d999b0d8260405161081b91815260200190565b60405180910390a2505050565b610830610b1e565b6000811161083d57600080fd5b6305f5e10081101561084e57600080fd5b640ba43b740081111561086057600080fd5b6003546040516323b872dd60e01b8152336004820152306024820152604481018390526001600160a01b03909116906323b872dd906064016020604051808303816000875af11580156108b7573d6000803e3d6000fd5b505050506040513d601f19601f820116820180604052508101906108db9190610c72565b6108e457600080fd5b60006108ef826104e6565b905081600660008282546109039190610c5f565b909155505060025460405163a9059cbb60e01b8152336004820152602481018390526001600160a01b039091169063a9059cbb906044016020604051808303816000875af1158015610959573d6000803e3d6000fd5b505050506040513d601f19601f8201168201806040525081019061097d9190610c72565b61098657600080fd5b604080518381526020810183905233917f8fafebcaf9d154343dad25669bfa277f4fbacd7ac6b0c4fed522580e040a0f33910160405180910390a2506109cc6001600055565b50565b6109d7610b48565b6001600160a01b0381166109ea57600080fd5b600480546001600160a01b0319166001600160a01b0383169081179091556040517f97c79b3848e51f57983ac89e4403452655c8d83ceba8199011de63a74f60d1a790600090a250565b610a3c610b48565b4780610a4757600080fd5b6004546040516000916001600160a01b03169083908381818185875af1925050503d8060008114610a94576040519150601f19603f3d011682016040523d82523d6000602084013e610a99565b606091505b5050905080610aa757600080fd5b6040518281527f7909752b76037727fecfc6c1abb7264306fd284ff7be21e2aa09bf2fdc00579d9060200160405180910390a15050565b610ae6610b48565b6001600160a01b038116610b1557604051631e4fbdf760e01b8152600060048201526024015b60405180910390fd5b6109cc81610b75565b600260005403610b4157604051633ee5aeb560e01b815260040160405180910390fd5b6002600055565b6001546001600160a01b031633146104e45760405163118cdaa760e01b8152336004820152602401610b0c565b600180546001600160a01b038381166001600160a01b0319831681179093556040519116919082907f8be0079c531659141344cd1fd0a4f28419497f9722a3daafe3b4186f6b6457e090600090a35050565b600060208284031215610bd957600080fd5b5035919050565b600060208284031215610bf257600080fd5b81356001600160a01b0381168114610c0957600080fd5b9392505050565b634e487b7160e01b600052601160045260246000fd5b808202811582820484141761050857610508610c10565b600082610c5a57634e487b7160e01b600052601260045260246000fd5b500490565b8082018082111561050857610508610c10565b600060208284031215610c8457600080fd5b81518015158114610c0957600080fd5b600060208284031215610ca657600080fd5b505191905056fea164736f6c634300081b000a",
  "linkReferences": {},
  "deployedLinkReferences": {}
}