{
  "_format": "hh-sol-artifact-1",
  "contractName": "MoonCatToken",
  "sourceName": "contracts/MoonCatToken.sol",
  "abi": [
    {
      "inputs": [
        {
          "internalType": "string",
          "name": "name",
          "type": "string"
        },
        {
          "internalType": "string",
          "name": "symbol",
          "type": "string"
        },
        {
          "internalType": "uint256",
          "name": "initialSupply",
          "type": "uint256"
        }
      ],
      "stateMutability": "nonpayable",
      "type": "constructor"
    },
    {
      "inputs": [],
      "name": "CheckpointUnorderedInsertion",
      "type": "error"
    },
    {
      "inputs": [],
      "name": "ECDSAInvalidSignature",
      "type": "error"
    },
    {
      "inputs": [
        {
          "internalType": "uint256",
          "name": "length",
          "type": "uint256"
        }
      ],
      "name": "ECDSAInvalidSignatureLength",
      "type": "error"
    },
    {
      "inputs": [
        {
          "internalType": "bytes32",
          "name": "s",
          "type": "bytes32"
        }
      ],
      "name": "ECDSAInvalidSignatureS",
      "type": "error"
    },
    {
      "inputs": [
        {
          "internalType": "uint256",
          "name": "increasedSupply",
          "type": "uint256"
        },
        {
          "internalType": "uint256",
          "name": "cap",
          "type": "uint256"
        }
      ],
      "name": "ERC20ExceededSafeSupply",
      "type": "error"
    },
    {
      "inputs": [
        {
          "internalType": "address",
          "name": "spender",
          "type": "address"
        },
        {
          "internalType": "uint256",
          "name": "allowance",
          "type": "uint256"
        },
        {
          "internalType": "uint256",
          "name": "needed",
          "type": "uint256"
        }
      ],
      "name": "ERC20InsufficientAllowance",
      "type": "error"
    },
    {
      "inputs": [
        {
          "internalType": "address",
          "name": "sender",
          "type": "address"
        },
        {
          "internalType": "uint256",
          "name": "balance",
          "type": "uint256"
        },
        {
          "internalType": "uint256",
          "name": "needed",
          "type": "uint256"
        }
      ],
      "name": "ERC20InsufficientBalance",
      "type": "error"
    },
    {
      "inputs": [
        {
          "internalType": "address",
          "name": "approver",
          "type": "address"
        }
      ],
      "name": "ERC20InvalidApprover",
      "type": "error"
    },
    {
      "inputs": [
        {
          "internalType": "address",
          "name": "receiver",
          "type": "address"
        }
      ],
      "name": "ERC20InvalidReceiver",
      "type": "error"
    },
    {
      "inputs": [
        {
          "internalType": "address",
          "name": "sender",
          "type": "address"
        }
      ],
      "name": "ERC20InvalidSender",
      "type": "error"
    },
    {
      "inputs": [
        {
          "internalType": "address",
          "name": "spender",
          "type": "address"
        }
      ],
      "name": "ERC20InvalidSpender",
      "type": "error"
    },
    {
      "inputs": [
        {
          "internalType": "uint256",
          "name": "deadline",
          "type": "uint256"
        }
      ],
      "name": "ERC2612ExpiredSignature",
      "type": "error"
    },
    {
      "inputs": [
        {
          "internalType": "address",
          "name": "signer",
          "type": "address"
        },
        {
          "internalType": "address",
          "name": "owner",
          "type": "address"
        }
      ],
      "name": "ERC2612InvalidSigner",
      "type": "error"
    },
    {
      "inputs": [
        {
          "internalType": "uint256",
          "name": "timepoint",
          "type": "uint256"
        },
        {
          "internalType": "uint48",
          "name": "clock",
          "type": "uint48"
        }
      ],
      "name": "ERC5805FutureLookup",
      "type": "error"
    },
    {
      "inputs": [],
      "name": "ERC6372InconsistentClock",
      "type": "error"
    },
    {
      "inputs": [],
      "name": "EnforcedPause",
      "type": "error"
    },
    {
      "inputs": [],
      "name": "ExpectedPause",
      "type": "error"
    },
    {
      "inputs": [
        {
          "internalType": "address",
          "name": "account",
          "type": "address"
        },
        {
          "internalType": "uint256",
          "name": "currentNonce",
          "type": "uint256"
        }
      ],
      "name": "InvalidAccountNonce",
      "type": "error"
    },
    {
      "inputs": [],
      "name": "InvalidShortString",
      "type": "error"
    },
    {
      "inputs": [
        {
          "internalType": "address",
          "name": "owner",
          "type": "address"
        }
      ],
      "name": "OwnableInvalidOwner",
      "type": "error"
    },
    {
      "inputs": [
        {
          "internalType": "address",
          "name": "account",
          "type": "address"
        }
      ],
      "name": "OwnableUnauthorizedAccount",
      "type": "error"
    },
    {
      "inputs": [
        {
          "internalType": "uint8",
          "name": "bits",
          "type": "uint8"
        },
        {
          "internalType": "uint256",
          "name": "value",
          "type": "uint256"
        }
      ],
      "name": "SafeCastOverflowedUintDowncast",
      "type": "error"
    },
    {
      "inputs": [
        {
          "internalType": "string",
          "name": "str",
          "type": "string"
        }
      ],
      "name": "StringTooLong",
      "type": "error"
    },
    {
      "inputs": [
        {
          "internalType": "uint256",
          "name": "expiry",
          "type": "uint256"
        }
      ],
      "name": "VotesExpiredSignature",
      "type": "error"
    },
    {
      "anonymous": false,
      "inputs": [
        {
          "indexed": true,
          "internalType": "address",
          "name": "account",
          "type": "address"
        },
        {
          "indexed": false,
          "internalType": "bool",
          "name": "excluded",
          "type": "bool"
        }
      ],
      "name": "AddressExcludedFromTax",
      "type": "event"
    },
    {
      "anonymous": false,
      "inputs": [
        {
          "indexed": true,
          "internalType": "address",
          "name": "owner",
          "type": "address"
        },
        {
          "indexed": true,
          "internalType": "address",
          "name": "spender",
          "type": "address"
        },
        {
          "indexed": false,
          "internalType": "uint256",
          "name": "value",
          "type": "uint256"
        }
      ],
      "name": "Approval",
      "type": "event"
    },
    {
      "anonymous": false,
      "inputs": [
        {
          "indexed": true,
          "internalType": "address",
          "name": "delegator",
          "type": "address"
        },
        {
          "indexed": true,
          "internalType": "address",
          "name": "fromDelegate",
          "type": "address"
        },
        {
          "indexed": true,
          "internalType": "address",
          "name": "toDelegate",
          "type": "address"
        }
      ],
      "name": "DelegateChanged",
      "type": "event"
    },
    {
      "anonymous": false,
      "inputs": [
        {
          "indexed": true,
          "internalType": "address",
          "name": "delegate",
          "type": "address"
        },
        {
          "indexed": false,
          "internalType": "uint256",
          "name": "previousVotes",
          "type": "uint256"
        },
        {
          "indexed": false,
          "internalType": "uint256",
          "name": "newVotes",
          "type": "uint256"
        }
      ],
      "name": "DelegateVotesChanged",
      "type": "event"
    },
    {
      "anonymous": false,
      "inputs": [],
      "name": "EIP712DomainChanged",
      "type": "event"
    },
    {
      "anonymous": false,
      "inputs": [
        {
          "indexed": true,
          "internalType": "address",
          "name": "previousOwner",
          "type": "address"
        },
        {
          "indexed": true,
          "internalType": "address",
          "name": "newOwner",
          "type": "address"
        }
      ],
      "name": "OwnershipTransferred",
      "type": "event"
    },
    {
      "anonymous": false,
      "inputs": [
        {
          "indexed": false,
          "internalType": "address",
          "name": "account",
          "type": "address"
        }
      ],
      "name": "Paused",
      "type": "event"
    },
    {
      "anonymous": false,
      "inputs": [
        {
          "indexed": false,
          "internalType": "address",
          "name": "oldCollector",
          "type": "address"
        },
        {
          "indexed": false,
          "internalType": "address",
          "name": "newCollector",
          "type": "address"
        }
      ],
      "name": "TaxCollectorUpdated",
      "type": "event"
    },
    {
      "anonymous": false,
      "inputs": [
        {
          "indexed": false,
          "internalType": "uint256",
          "name": "oldRate",
          "type": "uint256"
        },
        {
          "indexed": false,
          "internalType": "uint256",
          "name": "newRate",
          "type": "uint256"
        }
      ],
      "name": "TaxRateUpdated",
      "type": "event"
    },
    {
      "anonymous": false,
      "inputs": [
        {
          "indexed": true,
          "internalType": "address",
          "name": "from",
          "type": "address"
        },
        {
          "indexed": true,
          "internalType": "address",
          "name": "to",
          "type": "address"
        },
        {
          "indexed": false,
          "internalType": "uint256",
          "name": "value",
          "type": "uint256"
        }
      ],
      "name": "Transfer",
      "type": "event"
    },
    {
      "anonymous": false,
      "inputs": [
        {
          "indexed": false,
          "internalType": "address",
          "name": "account",
          "type": "address"
        }
      ],
      "name": "Unpaused",
      "type": "event"
    },
    {
      "inputs": [],
      "name": "CLOCK_MODE",
      "outputs": [
        {
          "internalType": "string",
          "name": "",
          "type": "string"
        }
      ],
      "stateMutability": "pure",
      "type": "function"
    },
    {
      "inputs": [],
      "name": "DOMAIN_SEPARATOR",
      "outputs": [
        {
          "internalType": "bytes32",
          "name": "",
          "type": "bytes32"
        }
      ],
      "stateMutability": "view",
      "type": "function"
    },
    {
      "inputs": [],
      "name": "MAX_TAX_RATE",
      "outputs": [
        {
          "internalType": "uint256",
          "name": "",
          "type": "uint256"
        }
      ],
      "stateMutability": "view",
      "type": "function"
    },
    {
      "inputs": [
        {
          "internalType": "address",
          "name": "owner",
          "type": "address"
        },
        {
          "internalType": "address",
          "name": "spender",
          "type": "address"
        }
      ],
      "name": "allowance",
      "outputs": [
        {
          "internalType": "uint256",
          "name": "",
          "type": "uint256"
        }
      ],
      "stateMutability": "view",
      "type": "function"
    },
    {
      "inputs": [
        {
          "internalType": "address",
          "name": "spender",
          "type": "address"
        },
        {
          "internalType": "uint256",
          "name": "value",
          "type": "uint256"
        }
      ],
      "name": "approve",
      "outputs": [
        {
          "internalType": "bool",
          "name": "",
          "type": "bool"
        }
      ],
      "stateMutability": "nonpayable",
      "type": "function"
    },
    {
      "inputs": [
        {
          "internalType": "address",
          "name": "account",
          "type": "address"
        }
      ],
      "name": "balanceOf",
      "outputs": [
        {
          "internalType": "uint256",
          "name": "",
          "type": "uint256"
        }
      ],
      "stateMutability": "view",
      "type": "function"
    },
    {
      "inputs": [
        {
          "internalType": "address",
          "name": "account",
          "type": "address"
        },
        {
          "internalType": "uint32",
          "name": "pos",
          "type": "uint32"
        }
      ],
      "name": "checkpoints",
      "outputs": [
        {
          "components": [
            {
              "internalType": "uint48",
              "name": "_key",
              "type": "uint48"
            },
            {
              "internalType": "uint208",
              "name": "_value",
              "type": "uint208"
            }
          ],
          "internalType": "struct Checkpoints.Checkpoint208",
          "name": "",
          "type": "tuple"
        }
      ],
      "stateMutability": "view",
      "type": "function"
    },
    {
      "inputs": [],
      "name": "clock",
      "outputs": [
        {
          "internalType": "uint48",
          "name": "",
          "type": "uint48"
        }
      ],
      "stateMutability": "view",
      "type": "function"
    },
    {
      "inputs": [],
      "name": "decimals",
      "outputs": [
        {
          "internalType": "uint8",
          "name": "",
          "type": "uint8"
        }
      ],
      "stateMutability": "view",
      "type": "function"
    },
    {
      "inputs": [
        {
          "internalType": "address",
          "name": "delegatee",
          "type": "address"
        }
      ],
      "name": "delegate",
      "outputs": [],
      "stateMutability": "nonpayable",
      "type": "function"
    },
    {
      "inputs": [
        {
          "internalType": "address",
          "name": "delegatee",
          "type": "address"
        },
        {
          "internalType": "uint256",
          "name": "nonce",
          "type": "uint256"
        },
        {
          "internalType": "uint256",
          "name": "expiry",
          "type": "uint256"
        },
        {
          "internalType": "uint8",
          "name": "v",
          "type": "uint8"
        },
        {
          "internalType": "bytes32",
          "name": "r",
          "type": "bytes32"
        },
        {
          "internalType": "bytes32",
          "name": "s",
          "type": "bytes32"
        }
      ],
      "name": "delegateBySig",
      "outputs": [],
      "stateMutability": "nonpayable",
      "type": "function"
    },
    {
      "inputs": [
        {
          "internalType": "address",
          "name": "account",
          "type": "address"
        }
      ],
      "name": "delegates",
      "outputs": [
        {
          "internalType": "address",
          "name": "",
          "type": "address"
        }
      ],
      "stateMutability": "view",
      "type": "function"
    },
    {
      "inputs": [],
      "name": "eip712Domain",
      "outputs": [
        {
          "internalType": "bytes1",
          "name": "fields",
          "type": "bytes1"
        },
        {
          "internalType": "string",
          "name": "name",
          "type": "string"
        },
        {
          "internalType": "string",
          "name": "version",
          "type": "string"
        },
        {
          "internalType": "uint256",
          "name": "chainId",
          "type": "uint256"
        },
        {
          "internalType": "address",
          "name": "verifyingContract",
          "type": "address"
        },
        {
          "internalType": "bytes32",
          "name": "salt",
          "type": "bytes32"
        },
        {
          "internalType": "uint256[]",
          "name": "extensions",
          "type": "uint256[]"
        }
      ],
      "stateMutability": "view",
      "type": "function"
    },
    {
      "inputs": [
        {
          "internalType": "address",
          "name": "account",
          "type": "address"
        }
      ],
      "name": "excludeFromTax",
      "outputs": [],
      "stateMutability": "nonpayable",
      "type": "function"
    },
    {
      "inputs": [
        {
          "internalType": "address",
          "name": "",
          "type": "address"
        }
      ],
      "name": "excludedFromTax",
      "outputs": [
        {
          "internalType": "bool",
          "name": "",
          "type": "bool"
        }
      ],
      "stateMutability": "view",
      "type": "function"
    },
    {
      "inputs": [],
      "name": "getDomainSeparator",
      "outputs": [
        {
          "internalType": "bytes32",
          "name": "",
          "type": "bytes32"
        }
      ],
      "stateMutability": "view",
      "type": "function"
    },
    {
      "inputs": [
        {
          "internalType": "uint256",
          "name": "timepoint",
          "type": "uint256"
        }
      ],
      "name": "getPastTotalSupply",
      "outputs": [
        {
          "internalType": "uint256",
          "name": "",
          "type": "uint256"
        }
      ],
      "stateMutability": "view",
      "type": "function"
    },
    {
      "inputs": [
        {
          "internalType": "address",
          "name": "account",
          "type": "address"
        },
        {
          "internalType": "uint256",
          "name": "timepoint",
          "type": "uint256"
        }
      ],
      "name": "getPastVotes",
      "outputs": [
        {
          "internalType": "uint256",
          "name": "",
          "type": "uint256"
        }
      ],
      "stateMutability": "view",
      "type": "function"
    },
    {
      "inputs": [
        {
          "internalType": "address",
          "name": "account",
          "type": "address"
        }
      ],
      "name": "getVotes",
      "outputs": [
        {
          "internalType": "uint256",
          "name": "",
          "type": "uint256"
        }
      ],
      "stateMutability": "view",
      "type": "function"
    },
    {
      "inputs": [
        {
          "internalType": "address",
          "name": "account",
          "type": "address"
        }
      ],
      "name": "includeInTax",
      "outputs": [],
      "stateMutability": "nonpayable",
      "type": "function"
    },
    {
      "inputs": [],
      "name": "name",
      "outputs": [
        {
          "internalType": "string",
          "name": "",
          "type": "string"
        }
      ],
      "stateMutability": "view",
      "type": "function"
    },
    {
      "inputs": [
        {
          "internalType": "address",
          "name": "owner",
          "type": "address"
        }
      ],
      "name": "nonces",
      "outputs": [
        {
          "internalType": "uint256",
          "name": "",
          "type": "uint256"
        }
      ],
      "stateMutability": "view",
      "type": "function"
    },
    {
      "inputs": [
        {
          "internalType": "address",
          "name": "account",
          "type": "address"
        }
      ],
      "name": "numCheckpoints",
      "outputs": [
        {
          "internalType": "uint32",
          "name": "",
          "type": "uint32"
        }
      ],
      "stateMutability": "view",
      "type": "function"
    },
    {
      "inputs": [],
      "name": "owner",
      "outputs": [
        {
          "internalType": "address",
          "name": "",
          "type": "address"
        }
      ],
      "stateMutability": "view",
      "type": "function"
    },
    {
      "inputs": [],
      "name": "pause",
      "outputs": [],
      "stateMutability": "nonpayable",
      "type": "function"
    },
    {
      "inputs": [],
      "name": "paused",
      "outputs": [
        {
          "internalType": "bool",
          "name": "",
          "type": "bool"
        }
      ],
      "stateMutability": "view",
      "type": "function"
    },
    {
      "inputs": [
        {
          "internalType": "address",
          "name": "owner",
          "type": "address"
        },
        {
          "internalType": "address",
          "name": "spender",
          "type": "address"
        },
        {
          "internalType": "uint256",
          "name": "value",
          "type": "uint256"
        },
        {
          "internalType": "uint256",
          "name": "deadline",
          "type": "uint256"
        },
        {
          "internalType": "uint8",
          "name": "v",
          "type": "uint8"
        },
        {
          "internalType": "bytes32",
          "name": "r",
          "type": "bytes32"
        },
        {
          "internalType": "bytes32",
          "name": "s",
          "type": "bytes32"
        }
      ],
      "name": "permit",
      "outputs": [],
      "stateMutability": "nonpayable",
      "type": "function"
    },
    {
      "inputs": [],
      "name": "renounceOwnership",
      "outputs": [],
      "stateMutability": "nonpayable",
      "type": "function"
    },
    {
      "inputs": [
        {
          "internalType": "address",
          "name": "newCollector",
          "type": "address"
        }
      ],
      "name": "setTaxCollector",
      "outputs": [],
      "stateMutability": "nonpayable",
      "type": "function"
    },
    {
      "inputs": [
        {
          "internalType": "uint256",
          "name": "newTaxRate",
          "type": "uint256"
        }
      ],
      "name": "setTaxRate",
      "outputs": [],
      "stateMutability": "nonpayable",
      "type": "function"
    },
    {
      "inputs": [],
      "name": "symbol",
      "outputs": [
        {
          "internalType": "string",
          "name": "",
          "type": "string"
        }
      ],
      "stateMutability": "view",
      "type": "function"
    },
    {
      "inputs": [],
      "name": "taxCollector",
      "outputs": [
        {
          "internalType": "address",
          "name": "",
          "type": "address"
        }
      ],
      "stateMutability": "view",
      "type": "function"
    },
    {
      "inputs": [],
      "name": "taxRate",
      "outputs": [
        {
          "internalType": "uint256",
          "name": "",
          "type": "uint256"
        }
      ],
      "stateMutability": "view",
      "type": "function"
    },
    {
      "inputs": [],
      "name": "totalSupply",
      "outputs": [
        {
          "internalType": "uint256",
          "name": "",
          "type": "uint256"
        }
      ],
      "stateMutability": "view",
      "type": "function"
    },
    {
      "inputs": [
        {
          "internalType": "address",
          "name": "recipient",
          "type": "address"
        },
        {
          "internalType": "uint256",
          "name": "amount",
          "type": "uint256"
        }
      ],
      "name": "transfer",
      "outputs": [
        {
          "internalType": "bool",
          "name": "",
          "type": "bool"
        }
      ],
      "stateMutability": "nonpayable",
      "type": "function"
    },
    {
      "inputs": [
        {
          "internalType": "address",
          "name": "sender",
          "type": "address"
        },
        {
          "internalType": "address",
          "name": "recipient",
          "type": "address"
        },
        {
          "internalType": "uint256",
          "name": "amount",
          "type": "uint256"
        }
      ],
      "name": "transferFrom",
      "outputs": [
        {
          "internalType": "bool",
          "name": "",
          "type": "bool"
        }
      ],
      "stateMutability": "nonpayable",
      "type": "function"
    },
    {
      "inputs": [
        {
          "internalType": "address",
          "name": "newOwner",
          "type": "address"
        }
      ],
      "name": "transferOwnership",
      "outputs": [],
      "stateMutability": "nonpayable",
      "type": "function"
    },
    {
      "inputs": [],
      "name": "unpause",
      "outputs": [],
      "stateMutability": "nonpayable",
      "type": "function"
    }
  ],
  "bytecode": "0x6101606040526064600c5534801561001657600080fd5b506040516164d23803806164d283398181016040528101906100389190611335565b3383806040518060400160405280600181526020017f31000000000000000000000000000000000000000000000000000000000000008152508686816003908161008291906115d7565b50806004908161009291906115d7565b5050506100a960058361033e60201b90919060201c565b61012081815250506100c560068261033e60201b90919060201c565b6101408181525050818051906020012060e08181525050808051906020012061010081815250504660a0818152505061010261038e60201b60201c565b608081815250503073ffffffffffffffffffffffffffffffffffffffff1660c08173ffffffffffffffffffffffffffffffffffffffff16815250505050506000600b60006101000a81548160ff021916908315150217905550600073ffffffffffffffffffffffffffffffffffffffff168173ffffffffffffffffffffffffffffffffffffffff16036101cd5760006040517f1e4fbdf70000000000000000000000000000000000000000000000000000000081526004016101c491906116ea565b60405180910390fd5b6101dc816103e960201b60201c565b5060008111610220576040517f08c379a000000000000000000000000000000000000000000000000000000000815260040161021790611762565b60405180910390fd5b61022e6104af60201b60201c565b600a61023a91906118f1565b7fffffffffffffffffffffffffffffffffffffffffffffffffffffffffffffffff610265919061196b565b8111156102a7576040517f08c379a000000000000000000000000000000000000000000000000000000000815260040161029e906119e8565b60405180910390fd5b6102b56104b860201b60201c565b600d60006101000a81548173ffffffffffffffffffffffffffffffffffffffff021916908373ffffffffffffffffffffffffffffffffffffffff1602179055506103366103066104b860201b60201c565b6103146104af60201b60201c565b600a61032091906118f1565b8361032b9190611a08565b6104c060201b60201c565b505050611dc0565b6000602083511015610360576103598361054860201b60201c565b9050610388565b82610370836105b060201b60201c565b600001908161037f91906115d7565b5060ff60001b90505b92915050565b60007f8b73c3c69bb8fe3d512ecc4cf759cc79239f7b179b0ffacaa9a75d522b39400f60e0516101005146306040516020016103ce959493929190611a72565b60405160208183030381529060405280519060200120905090565b6000600b60019054906101000a900473ffffffffffffffffffffffffffffffffffffffff16905081600b60016101000a81548173ffffffffffffffffffffffffffffffffffffffff021916908373ffffffffffffffffffffffffffffffffffffffff1602179055508173ffffffffffffffffffffffffffffffffffffffff168173ffffffffffffffffffffffffffffffffffffffff167f8be0079c531659141344cd1fd0a4f28419497f9722a3daafe3b4186f6b6457e060405160405180910390a35050565b60006012905090565b600033905090565b600073ffffffffffffffffffffffffffffffffffffffff168273ffffffffffffffffffffffffffffffffffffffff16036105325760006040517fec442f0500000000000000000000000000000000000000000000000000000000815260040161052991906116ea565b60405180910390fd5b610544600083836105ba60201b60201c565b5050565b600080829050601f8151111561059557826040517f305a27a900000000000000000000000000000000000000000000000000000000815260040161058c9190611afe565b60405180910390fd5b8051816105a190611b50565b60001c1760001b915050919050565b6000819050919050565b6105cb8383836105d060201b60201c565b505050565b6105e183838361069960201b60201c565b600073ffffffffffffffffffffffffffffffffffffffff168373ffffffffffffffffffffffffffffffffffffffff16036106835760006106256108be60201b60201c565b905060006106376108c860201b60201c565b9050808211156106805781816040517f1cb15d26000000000000000000000000000000000000000000000000000000008152600401610677929190611bb7565b60405180910390fd5b50505b6106948383836108ec60201b60201c565b505050565b600073ffffffffffffffffffffffffffffffffffffffff168373ffffffffffffffffffffffffffffffffffffffff16036106eb5780600260008282546106df9190611be0565b925050819055506107be565b60008060008573ffffffffffffffffffffffffffffffffffffffff1673ffffffffffffffffffffffffffffffffffffffff16815260200190815260200160002054905081811015610777578381836040517fe450d38c00000000000000000000000000000000000000000000000000000000815260040161076e93929190611c14565b60405180910390fd5b8181036000808673ffffffffffffffffffffffffffffffffffffffff1673ffffffffffffffffffffffffffffffffffffffff16815260200190815260200160002081905550505b600073ffffffffffffffffffffffffffffffffffffffff168273ffffffffffffffffffffffffffffffffffffffff16036108075780600260008282540392505081905550610854565b806000808473ffffffffffffffffffffffffffffffffffffffff1673ffffffffffffffffffffffffffffffffffffffff168152602001908152602001600020600082825401925050819055505b8173ffffffffffffffffffffffffffffffffffffffff168373ffffffffffffffffffffffffffffffffffffffff167fddf252ad1be2c89b69c2b068fc378daa952ba7f163c4a11628f55a4df523b3ef836040516108b19190611c4b565b60405180910390a3505050565b6000600254905090565b600079ffffffffffffffffffffffffffffffffffffffffffffffffffff8016905090565b600073ffffffffffffffffffffffffffffffffffffffff168373ffffffffffffffffffffffffffffffffffffffff160361094c57610949600a6109de60201b6117cb1761093e846109f460201b60201c565b610a6260201b60201c565b50505b600073ffffffffffffffffffffffffffffffffffffffff168273ffffffffffffffffffffffffffffffffffffffff16036109ac576109a9600a610aab60201b6117e11761099e846109f460201b60201c565b610a6260201b60201c565b50505b6109d96109be84610ac160201b60201c565b6109cd84610ac160201b60201c565b83610b2a60201b60201c565b505050565b600081836109ec9190611c8c565b905092915050565b600079ffffffffffffffffffffffffffffffffffffffffffffffffffff8016821115610a5a5760d0826040517f6dfcc650000000000000000000000000000000000000000000000000000000008152600401610a51929190611d15565b60405180910390fd5b819050919050565b600080610a9f610a76610dc960201b60201c565b610a8f610a8888610dd160201b60201c565b868860201c565b87610e3f60201b9092919060201c565b91509150935093915050565b60008183610ab99190611d3e565b905092915050565b6000600860008373ffffffffffffffffffffffffffffffffffffffff1673ffffffffffffffffffffffffffffffffffffffff16815260200190815260200160002060009054906101000a900473ffffffffffffffffffffffffffffffffffffffff169050919050565b8173ffffffffffffffffffffffffffffffffffffffff168373ffffffffffffffffffffffffffffffffffffffff1614158015610b665750600081115b15610dc457600073ffffffffffffffffffffffffffffffffffffffff168373ffffffffffffffffffffffffffffffffffffffff1614610c9757600080610c08600960008773ffffffffffffffffffffffffffffffffffffffff1673ffffffffffffffffffffffffffffffffffffffff168152602001908152602001600020610aab60201b6117e117610bfd866109f460201b60201c565b610a6260201b60201c565b79ffffffffffffffffffffffffffffffffffffffffffffffffffff16915079ffffffffffffffffffffffffffffffffffffffffffffffffffff1691508473ffffffffffffffffffffffffffffffffffffffff167fdec2bacdd2f05b59de34da9b523dff8be42e5e38e818c82fdb0bae774387a7248383604051610c8c929190611bb7565b60405180910390a250505b600073ffffffffffffffffffffffffffffffffffffffff168273ffffffffffffffffffffffffffffffffffffffff1614610dc357600080610d34600960008673ffffffffffffffffffffffffffffffffffffffff1673ffffffffffffffffffffffffffffffffffffffff1681526020019081526020016000206109de60201b6117cb17610d29866109f460201b60201c565b610a6260201b60201c565b79ffffffffffffffffffffffffffffffffffffffffffffffffffff16915079ffffffffffffffffffffffffffffffffffffffffffffffffffff1691508373ffffffffffffffffffffffffffffffffffffffff167fdec2bacdd2f05b59de34da9b523dff8be42e5e38e818c82fdb0bae774387a7248383604051610db8929190611bb7565b60405180910390a250505b5b505050565b600042905090565b6000808260000180549050905060008114610e3457610e0583600001600183610dfa9190611d8c565b610e6260201b60201c565b60000160069054906101000a900479ffffffffffffffffffffffffffffffffffffffffffffffffffff16610e37565b60005b915050919050565b600080610e56856000018585610e7760201b60201c565b91509150935093915050565b60008260005281602060002001905092915050565b600080600085805490509050600081111561109a576000610eaa87600184610e9f9190611d8c565b610e6260201b60201c565b905060008160000160009054906101000a900465ffffffffffff16905060008260000160069054906101000a900479ffffffffffffffffffffffffffffffffffffffffffffffffffff1690508765ffffffffffff168265ffffffffffff161115610f40576040517f2520601d00000000000000000000000000000000000000000000000000000000815260040160405180910390fd5b8765ffffffffffff168265ffffffffffff1603610fab57868360000160066101000a81548179ffffffffffffffffffffffffffffffffffffffffffffffffffff021916908379ffffffffffffffffffffffffffffffffffffffffffffffffffff16021790555061108b565b8860405180604001604052808a65ffffffffffff1681526020018979ffffffffffffffffffffffffffffffffffffffffffffffffffff168152509080600181540180825580915050600190039060005260206000200160009091909190915060008201518160000160006101000a81548165ffffffffffff021916908365ffffffffffff16021790555060208201518160000160066101000a81548179ffffffffffffffffffffffffffffffffffffffffffffffffffff021916908379ffffffffffffffffffffffffffffffffffffffffffffffffffff16021790555050505b80879550955050505050611182565b8560405180604001604052808765ffffffffffff1681526020018679ffffffffffffffffffffffffffffffffffffffffffffffffffff168152509080600181540180825580915050600190039060005260206000200160009091909190915060008201518160000160006101000a81548165ffffffffffff021916908365ffffffffffff16021790555060208201518160000160066101000a81548179ffffffffffffffffffffffffffffffffffffffffffffffffffff021916908379ffffffffffffffffffffffffffffffffffffffffffffffffffff160217905550505060008492509250505b935093915050565b6000604051905090565b600080fd5b600080fd5b600080fd5b600080fd5b6000601f19601f8301169050919050565b7f4e487b7100000000000000000000000000000000000000000000000000000000600052604160045260246000fd5b6111f1826111a8565b810181811067ffffffffffffffff821117156112105761120f6111b9565b5b80604052505050565b600061122361118a565b905061122f82826111e8565b919050565b600067ffffffffffffffff82111561124f5761124e6111b9565b5b611258826111a8565b9050602081019050919050565b60005b83811015611283578082015181840152602081019050611268565b60008484015250505050565b60006112a261129d84611234565b611219565b9050828152602081018484840111156112be576112bd6111a3565b5b6112c9848285611265565b509392505050565b600082601f8301126112e6576112e561119e565b5b81516112f684826020860161128f565b91505092915050565b6000819050919050565b611312816112ff565b811461131d57600080fd5b50565b60008151905061132f81611309565b92915050565b60008060006060848603121561134e5761134d611194565b5b600084015167ffffffffffffffff81111561136c5761136b611199565b5b611378868287016112d1565b935050602084015167ffffffffffffffff81111561139957611398611199565b5b6113a5868287016112d1565b92505060406113b686828701611320565b9150509250925092565b600081519050919050565b7f4e487b7100000000000000000000000000000000000000000000000000000000600052602260045260246000fd5b6000600282049050600182168061141257607f821691505b602082108103611425576114246113cb565b5b50919050565b60008190508160005260206000209050919050565b60006020601f8301049050919050565b600082821b905092915050565b60006008830261148d7fffffffffffffffffffffffffffffffffffffffffffffffffffffffffffffffff82611450565b6114978683611450565b95508019841693508086168417925050509392505050565b6000819050919050565b60006114d46114cf6114ca846112ff565b6114af565b6112ff565b9050919050565b6000819050919050565b6114ee836114b9565b6115026114fa826114db565b84845461145d565b825550505050565b600090565b61151761150a565b6115228184846114e5565b505050565b5b818110156115465761153b60008261150f565b600181019050611528565b5050565b601f82111561158b5761155c8161142b565b61156584611440565b81016020851015611574578190505b61158861158085611440565b830182611527565b50505b505050565b600082821c905092915050565b60006115ae60001984600802611590565b1980831691505092915050565b60006115c7838361159d565b9150826002028217905092915050565b6115e0826113c0565b67ffffffffffffffff8111156115f9576115f86111b9565b5b61160382546113fa565b61160e82828561154a565b600060209050601f831160018114611641576000841561162f578287015190505b61163985826115bb565b8655506116a1565b601f19841661164f8661142b565b60005b8281101561167757848901518255600182019150602085019450602081019050611652565b868310156116945784890151611690601f89168261159d565b8355505b6001600288020188555050505b505050505050565b600073ffffffffffffffffffffffffffffffffffffffff82169050919050565b60006116d4826116a9565b9050919050565b6116e4816116c9565b82525050565b60006020820190506116ff60008301846116db565b92915050565b600082825260208201905092915050565b7f496e697469616c20737570706c79206d75737420626520706f73697469766500600082015250565b600061174c601f83611705565b915061175782611716565b602082019050919050565b6000602082019050818103600083015261177b8161173f565b9050919050565b7f4e487b7100000000000000000000000000000000000000000000000000000000600052601160045260246000fd5b60008160011c9050919050565b6000808291508390505b6001851115611808578086048111156117e4576117e3611782565b5b60018516156117f35780820291505b8081029050611801856117b1565b94506117c8565b94509492505050565b60008261182157600190506118dd565b8161182f57600090506118dd565b8160018114611845576002811461184f5761187e565b60019150506118dd565b60ff84111561186157611860611782565b5b8360020a91508482111561187857611877611782565b5b506118dd565b5060208310610133831016604e8410600b84101617156118b35782820a9050838111156118ae576118ad611782565b5b6118dd565b6118c084848460016117be565b925090508184048111156118d7576118d6611782565b5b81810290505b9392505050565b600060ff82169050919050565b60006118fc826112ff565b9150611907836118e4565b92506119347fffffffffffffffffffffffffffffffffffffffffffffffffffffffffffffffff8484611811565b905092915050565b7f4e487b7100000000000000000000000000000000000000000000000000000000600052601260045260246000fd5b6000611976826112ff565b9150611981836112ff565b9250826119915761199061193c565b5b828204905092915050565b7f496e697469616c20737570706c7920746f6f206c617267650000000000000000600082015250565b60006119d2601883611705565b91506119dd8261199c565b602082019050919050565b60006020820190508181036000830152611a01816119c5565b9050919050565b6000611a13826112ff565b9150611a1e836112ff565b9250828202611a2c816112ff565b91508282048414831517611a4357611a42611782565b5b5092915050565b6000819050919050565b611a5d81611a4a565b82525050565b611a6c816112ff565b82525050565b600060a082019050611a876000830188611a54565b611a946020830187611a54565b611aa16040830186611a54565b611aae6060830185611a63565b611abb60808301846116db565b9695505050505050565b6000611ad0826113c0565b611ada8185611705565b9350611aea818560208601611265565b611af3816111a8565b840191505092915050565b60006020820190508181036000830152611b188184611ac5565b905092915050565b600081519050919050565b6000819050602082019050919050565b6000611b478251611a4a565b80915050919050565b6000611b5b82611b20565b82611b6584611b2b565b9050611b7081611b3b565b92506020821015611bb057611bab7fffffffffffffffffffffffffffffffffffffffffffffffffffffffffffffffff83602003600802611450565b831692505b5050919050565b6000604082019050611bcc6000830185611a63565b611bd96020830184611a63565b9392505050565b6000611beb826112ff565b9150611bf6836112ff565b9250828201905080821115611c0e57611c0d611782565b5b92915050565b6000606082019050611c2960008301866116db565b611c366020830185611a63565b611c436040830184611a63565b949350505050565b6000602082019050611c606000830184611a63565b92915050565b600079ffffffffffffffffffffffffffffffffffffffffffffffffffff82169050919050565b6000611c9782611c66565b9150611ca283611c66565b9250828201905079ffffffffffffffffffffffffffffffffffffffffffffffffffff811115611cd457611cd3611782565b5b92915050565b6000819050919050565b6000611cff611cfa611cf584611cda565b6114af565b6118e4565b9050919050565b611d0f81611ce4565b82525050565b6000604082019050611d2a6000830185611d06565b611d376020830184611a63565b9392505050565b6000611d4982611c66565b9150611d5483611c66565b9250828203905079ffffffffffffffffffffffffffffffffffffffffffffffffffff811115611d8657611d85611782565b5b92915050565b6000611d97826112ff565b9150611da2836112ff565b9250828203905081811115611dba57611db9611782565b5b92915050565b60805160a05160c05160e0516101005161012051610140516146b8611e1a6000396000611e6101526000611e26015260006123fa015260006123d90152600061190c015260006119620152600061198b01526146b86000f3fe608060405234801561001057600080fd5b50600436106102325760003560e01c80638456cb5911610130578063a9059cbb116100b8578063dd62ed3e1161007c578063dd62ed3e14610699578063e17c4c74146106c9578063ed24911d146106e5578063f1127ed814610703578063f2fde38b1461073357610232565b8063a9059cbb146105f7578063bea1dcf814610627578063c3cda52014610645578063c6d69a3014610661578063d505accf1461067d57610232565b80638fa81732116100ff5780638fa817321461053d57806391ddadf41461055b57806395d89b4114610579578063989763ef146105975780639ab24eb0146105c757610232565b80638456cb59146104c157806384b0196e146104cb5780638da5cb5b146104ef5780638e539e8c1461050d57610232565b80634bf5d7e9116101be5780636fcfff45116101825780636fcfff451461040957806370a0823114610439578063715018a614610469578063771a3a1d146104735780637ecebe001461049157610232565b80634bf5d7e914610365578063587cde1e146103835780635c19a95c146103b35780635c975abb146103cf57806360d1259e146103ed57610232565b806323b872dd1161020557806323b872dd146102bf578063313ce567146102ef5780633644e5151461030d5780633a46b1a81461032b5780633f4ba83a1461035b57610232565b806306fdde031461023757806308695b4114610255578063095ea7b31461027157806318160ddd146102a1575b600080fd5b61023f61074f565b60405161024c9190613770565b60405180910390f35b61026f600480360381019061026a91906137f5565b6107e1565b005b61028b60048036038101906102869190613858565b6108ff565b60405161029891906138b3565b60405180910390f35b6102a9610922565b6040516102b691906138dd565b60405180910390f35b6102d960048036038101906102d491906138f8565b61092c565b6040516102e691906138b3565b60405180910390f35b6102f7610a65565b6040516103049190613967565b60405180910390f35b610315610a6e565b604051610322919061399b565b60405180910390f35b61034560048036038101906103409190613858565b610a7d565b60405161035291906138dd565b60405180910390f35b610363610b56565b005b61036d610b68565b60405161037a9190613770565b60405180910390f35b61039d600480360381019061039891906137f5565b610ba5565b6040516103aa91906139c5565b60405180910390f35b6103cd60048036038101906103c891906137f5565b610c0e565b005b6103d7610c28565b6040516103e491906138b3565b60405180910390f35b610407600480360381019061040291906137f5565b610c3f565b005b610423600480360381019061041e91906137f5565b610d62565b60405161043091906139ff565b60405180910390f35b610453600480360381019061044e91906137f5565b610d74565b60405161046091906138dd565b60405180910390f35b610471610dbc565b005b61047b610dd0565b60405161048891906138dd565b60405180910390f35b6104ab60048036038101906104a691906137f5565b610dd6565b6040516104b891906138dd565b60405180910390f35b6104c9610de8565b005b6104d3610dfa565b6040516104e69796959493929190613b13565b60405180910390f35b6104f7610ea4565b60405161050491906139c5565b60405180910390f35b61052760048036038101906105229190613b97565b610ece565b60405161053491906138dd565b60405180910390f35b610545610f69565b60405161055291906138dd565b60405180910390f35b610563610f6f565b6040516105709190613be5565b60405180910390f35b610581610f77565b60405161058e9190613770565b60405180910390f35b6105b160048036038101906105ac91906137f5565b611009565b6040516105be91906138b3565b60405180910390f35b6105e160048036038101906105dc91906137f5565b611029565b6040516105ee91906138dd565b60405180910390f35b610611600480360381019061060c9190613858565b611095565b60405161061e91906138b3565b60405180910390f35b61062f6112a6565b60405161063c91906139c5565b60405180910390f35b61065f600480360381019061065a9190613c58565b6112cc565b005b61067b60048036038101906106769190613b97565b611392565b005b61069760048036038101906106929190613ce5565b61142a565b005b6106b360048036038101906106ae9190613d87565b611572565b6040516106c091906138dd565b60405180910390f35b6106e360048036038101906106de91906137f5565b6115f9565b005b6106ed61171c565b6040516106fa919061399b565b60405180910390f35b61071d60048036038101906107189190613df3565b61172b565b60405161072a9190613ea6565b60405180910390f35b61074d600480360381019061074891906137f5565b611745565b005b60606003805461075e90613ef0565b80601f016020809104026020016040519081016040528092919081815260200182805461078a90613ef0565b80156107d75780601f106107ac576101008083540402835291602001916107d7565b820191906000526020600020905b8154815290600101906020018083116107ba57829003601f168201915b5050505050905090565b6107e96117f7565b80600073ffffffffffffffffffffffffffffffffffffffff168173ffffffffffffffffffffffffffffffffffffffff1603610859576040517f08c379a000000000000000000000000000000000000000000000000000000000815260040161085090613f6d565b60405180910390fd5b6000600d60009054906101000a900473ffffffffffffffffffffffffffffffffffffffff16905082600d60006101000a81548173ffffffffffffffffffffffffffffffffffffffff021916908373ffffffffffffffffffffffffffffffffffffffff1602179055507f6044923ecb0965a63f176aa00cb41dc97a3255923e1e084d97bc6728b07765ae81846040516108f2929190613f8d565b60405180910390a1505050565b60008061090a61187e565b9050610917818585611886565b600191505092915050565b6000600254905090565b6000610936611898565b600e60008573ffffffffffffffffffffffffffffffffffffffff1673ffffffffffffffffffffffffffffffffffffffff16815260200190815260200160002060009054906101000a900460ff16806109d75750600e60008473ffffffffffffffffffffffffffffffffffffffff1673ffffffffffffffffffffffffffffffffffffffff16815260200190815260200160002060009054906101000a900460ff165b156109ee576109e78484846118d9565b9050610a5e565b6000612710600c5484610a019190613fe5565b610a0b9190614056565b905060008184610a1b9190614087565b9050610a288686836118d9565b50610a5686600d60009054906101000a900473ffffffffffffffffffffffffffffffffffffffff16846118d9565b506001925050505b9392505050565b60006012905090565b6000610a78611908565b905090565b600080610a88610f6f565b90508065ffffffffffff168310610ad85782816040517fecd3f81e000000000000000000000000000000000000000000000000000000008152600401610acf9291906140bb565b60405180910390fd5b610b31610ae4846119bf565b600960008773ffffffffffffffffffffffffffffffffffffffff1673ffffffffffffffffffffffffffffffffffffffff168152602001908152602001600020611a1990919063ffffffff16565b79ffffffffffffffffffffffffffffffffffffffffffffffffffff1691505092915050565b610b5e6117f7565b610b66611b13565b565b60606040518060400160405280600e81526020017f6d6f64653d74696d657374616d70000000000000000000000000000000000000815250905090565b6000600860008373ffffffffffffffffffffffffffffffffffffffff1673ffffffffffffffffffffffffffffffffffffffff16815260200190815260200160002060009054906101000a900473ffffffffffffffffffffffffffffffffffffffff169050919050565b6000610c1861187e565b9050610c248183611b76565b5050565b6000600b60009054906101000a900460ff16905090565b610c476117f7565b80600073ffffffffffffffffffffffffffffffffffffffff168173ffffffffffffffffffffffffffffffffffffffff1603610cb7576040517f08c379a0000000000000000000000000000000000000000000000000000000008152600401610cae90613f6d565b60405180910390fd5b6001600e60008473ffffffffffffffffffffffffffffffffffffffff1673ffffffffffffffffffffffffffffffffffffffff16815260200190815260200160002060006101000a81548160ff0219169083151502179055508173ffffffffffffffffffffffffffffffffffffffff167f58b182f10f8497fe6013ebaa04cd13806fd9353e32506059d50ca956c48818896001604051610d5691906138b3565b60405180910390a25050565b6000610d6d82611c8a565b9050919050565b60008060008373ffffffffffffffffffffffffffffffffffffffff1673ffffffffffffffffffffffffffffffffffffffff168152602001908152602001600020549050919050565b610dc46117f7565b610dce6000611ce2565b565b600c5481565b6000610de182611da8565b9050919050565b610df06117f7565b610df8611dba565b565b600060608060008060006060610e0e611e1d565b610e16611e58565b46306000801b600067ffffffffffffffff811115610e3757610e366140e4565b5b604051908082528060200260200182016040528015610e655781602001602082028036833780820191505090505b507f0f00000000000000000000000000000000000000000000000000000000000000959493929190965096509650965096509650965090919293949596565b6000600b60019054906101000a900473ffffffffffffffffffffffffffffffffffffffff16905090565b600080610ed9610f6f565b90508065ffffffffffff168310610f295782816040517fecd3f81e000000000000000000000000000000000000000000000000000000008152600401610f209291906140bb565b60405180910390fd5b610f45610f35846119bf565b600a611a1990919063ffffffff16565b79ffffffffffffffffffffffffffffffffffffffffffffffffffff16915050919050565b6103e881565b600042905090565b606060048054610f8690613ef0565b80601f0160208091040260200160405190810160405280929190818152602001828054610fb290613ef0565b8015610fff5780601f10610fd457610100808354040283529160200191610fff565b820191906000526020600020905b815481529060010190602001808311610fe257829003601f168201915b5050505050905090565b600e6020528060005260406000206000915054906101000a900460ff1681565b6000611072600960008473ffffffffffffffffffffffffffffffffffffffff1673ffffffffffffffffffffffffffffffffffffffff168152602001908152602001600020611e93565b79ffffffffffffffffffffffffffffffffffffffffffffffffffff169050919050565b600061109f611898565b600073ffffffffffffffffffffffffffffffffffffffff168373ffffffffffffffffffffffffffffffffffffffff160361110e576040517f08c379a00000000000000000000000000000000000000000000000000000000081526004016111059061415f565b60405180910390fd5b61111e61111961187e565b610d74565b821115611160576040517f08c379a0000000000000000000000000000000000000000000000000000000008152600401611157906141cb565b60405180910390fd5b600e600061116c61187e565b73ffffffffffffffffffffffffffffffffffffffff1673ffffffffffffffffffffffffffffffffffffffff16815260200190815260200160002060009054906101000a900460ff16806112085750600e60008473ffffffffffffffffffffffffffffffffffffffff1673ffffffffffffffffffffffffffffffffffffffff16815260200190815260200160002060009054906101000a900460ff165b156112245761121f61121861187e565b8484611efb565b61129c565b6000612710600c54846112379190613fe5565b6112419190614056565b9050600081846112519190614087565b905061126561125e61187e565b8683611efb565b61129961127061187e565b600d60009054906101000a900473ffffffffffffffffffffffffffffffffffffffff1684611efb565b50505b6001905092915050565b600d60009054906101000a900473ffffffffffffffffffffffffffffffffffffffff1681565b8342111561131157836040517f4683af0e00000000000000000000000000000000000000000000000000000000815260040161130891906138dd565b60405180910390fd5b600061137361136b7fe48329057bfd03d55e49b547132e39cffd9c1820ad7b9d4c5307691425d15adf89898960405160200161135094939291906141eb565b60405160208183030381529060405280519060200120611fef565b858585612009565b905061137f8187612039565b6113898188611b76565b50505050505050565b61139a6117f7565b6103e88111156113df576040517f08c379a00000000000000000000000000000000000000000000000000000000081526004016113d69061427c565b60405180910390fd5b6000600c54905081600c819055507fa8ee157eb2a9aa895d74df4d2d3bc0ad165ff3162f8ec46a4ecf602dd5c48fda818360405161141e92919061429c565b60405180910390a15050565b8342111561146f57836040517f6279130200000000000000000000000000000000000000000000000000000000815260040161146691906138dd565b60405180910390fd5b60007f6e71edae12b1b97f4d1f60370fef10105fa2faae0126114a169c64845d6126c988888861149e8c612091565b896040516020016114b4969594939291906142c5565b60405160208183030381529060405280519060200120905060006114d782611fef565b905060006114e782878787612009565b90508973ffffffffffffffffffffffffffffffffffffffff168173ffffffffffffffffffffffffffffffffffffffff161461155b57808a6040517f4b800e46000000000000000000000000000000000000000000000000000000008152600401611552929190613f8d565b60405180910390fd5b6115668a8a8a611886565b50505050505050505050565b6000600160008473ffffffffffffffffffffffffffffffffffffffff1673ffffffffffffffffffffffffffffffffffffffff16815260200190815260200160002060008373ffffffffffffffffffffffffffffffffffffffff1673ffffffffffffffffffffffffffffffffffffffff16815260200190815260200160002054905092915050565b6116016117f7565b80600073ffffffffffffffffffffffffffffffffffffffff168173ffffffffffffffffffffffffffffffffffffffff1603611671576040517f08c379a000000000000000000000000000000000000000000000000000000000815260040161166890613f6d565b60405180910390fd5b6000600e60008473ffffffffffffffffffffffffffffffffffffffff1673ffffffffffffffffffffffffffffffffffffffff16815260200190815260200160002060006101000a81548160ff0219169083151502179055508173ffffffffffffffffffffffffffffffffffffffff167f58b182f10f8497fe6013ebaa04cd13806fd9353e32506059d50ca956c4881889600060405161171091906138b3565b60405180910390a25050565b6000611726611908565b905090565b6117336136a2565b61173d83836120e8565b905092915050565b61174d6117f7565b600073ffffffffffffffffffffffffffffffffffffffff168173ffffffffffffffffffffffffffffffffffffffff16036117bf5760006040517f1e4fbdf70000000000000000000000000000000000000000000000000000000081526004016117b691906139c5565b60405180910390fd5b6117c881611ce2565b50565b600081836117d99190614326565b905092915050565b600081836117ef9190614374565b905092915050565b6117ff61187e565b73ffffffffffffffffffffffffffffffffffffffff1661181d610ea4565b73ffffffffffffffffffffffffffffffffffffffff161461187c5761184061187e565b6040517f118cdaa700000000000000000000000000000000000000000000000000000000815260040161187391906139c5565b60405180910390fd5b565b600033905090565b6118938383836001612149565b505050565b6118a0610c28565b156118d7576040517fd93c066500000000000000000000000000000000000000000000000000000000815260040160405180910390fd5b565b6000806118e461187e565b90506118f1858285612320565b6118fc858585611efb565b60019150509392505050565b60007f000000000000000000000000000000000000000000000000000000000000000073ffffffffffffffffffffffffffffffffffffffff163073ffffffffffffffffffffffffffffffffffffffff1614801561198457507f000000000000000000000000000000000000000000000000000000000000000046145b156119b1577f000000000000000000000000000000000000000000000000000000000000000090506119bc565b6119b96123b4565b90505b90565b600065ffffffffffff8016821115611a11576030826040517f6dfcc650000000000000000000000000000000000000000000000000000000008152600401611a08929190614407565b60405180910390fd5b819050919050565b600080836000018054905090506000808290506005831115611aa1576000611a408461244a565b84611a4b9190614087565b9050611a5a87600001826125e7565b60000160009054906101000a900465ffffffffffff1665ffffffffffff168665ffffffffffff161015611a8f57809150611a9f565b600181611a9c9190614430565b92505b505b6000611ab2876000018785856125fc565b905060008114611b0457611ad587600001600183611ad09190614087565b6125e7565b60000160069054906101000a900479ffffffffffffffffffffffffffffffffffffffffffffffffffff16611b07565b60005b94505050505092915050565b611b1b612675565b6000600b60006101000a81548160ff0219169083151502179055507f5db9ee0a495bf2e6ff9c91a7834c1ba4fdd244a5e8aa4e537bd38aeae4b073aa611b5f61187e565b604051611b6c91906139c5565b60405180910390a1565b6000611b8183610ba5565b905081600860008573ffffffffffffffffffffffffffffffffffffffff1673ffffffffffffffffffffffffffffffffffffffff16815260200190815260200160002060006101000a81548173ffffffffffffffffffffffffffffffffffffffff021916908373ffffffffffffffffffffffffffffffffffffffff1602179055508173ffffffffffffffffffffffffffffffffffffffff168173ffffffffffffffffffffffffffffffffffffffff168473ffffffffffffffffffffffffffffffffffffffff167f3134e8a2e6d97e929a7e54011ea5485d7d196dd5f0ba4d4ef95803e8e3fc257f60405160405180910390a4611c858183611c80866126b5565b6126c7565b505050565b6000611cdb611cd6600960008573ffffffffffffffffffffffffffffffffffffffff1673ffffffffffffffffffffffffffffffffffffffff168152602001908152602001600020612940565b612951565b9050919050565b6000600b60019054906101000a900473ffffffffffffffffffffffffffffffffffffffff16905081600b60016101000a81548173ffffffffffffffffffffffffffffffffffffffff021916908373ffffffffffffffffffffffffffffffffffffffff1602179055508173ffffffffffffffffffffffffffffffffffffffff168173ffffffffffffffffffffffffffffffffffffffff167f8be0079c531659141344cd1fd0a4f28419497f9722a3daafe3b4186f6b6457e060405160405180910390a35050565b6000611db3826129a9565b9050919050565b611dc2611898565b6001600b60006101000a81548160ff0219169083151502179055507f62e78cea01bee320cd4e420270b5ea74000d11b0c9f74754ebdbfc544b05a258611e0661187e565b604051611e1391906139c5565b60405180910390a1565b6060611e5360057f00000000000000000000000000000000000000000000000000000000000000006129f290919063ffffffff16565b905090565b6060611e8e60067f00000000000000000000000000000000000000000000000000000000000000006129f290919063ffffffff16565b905090565b6000808260000180549050905060008114611ef057611ec183600001600183611ebc9190614087565b6125e7565b60000160069054906101000a900479ffffffffffffffffffffffffffffffffffffffffffffffffffff16611ef3565b60005b915050919050565b600073ffffffffffffffffffffffffffffffffffffffff168373ffffffffffffffffffffffffffffffffffffffff1603611f6d5760006040517f96c6fd1e000000000000000000000000000000000000000000000000000000008152600401611f6491906139c5565b60405180910390fd5b600073ffffffffffffffffffffffffffffffffffffffff168273ffffffffffffffffffffffffffffffffffffffff1603611fdf5760006040517fec442f05000000000000000000000000000000000000000000000000000000008152600401611fd691906139c5565b60405180910390fd5b611fea838383612aa2565b505050565b6000612002611ffc611908565b83612ab2565b9050919050565b60008060008061201b88888888612af3565b92509250925061202b8282612be7565b829350505050949350505050565b600061204483612091565b905080821461208c5782816040517f752d88c0000000000000000000000000000000000000000000000000000000008152600401612083929190614464565b60405180910390fd5b505050565b6000600760008373ffffffffffffffffffffffffffffffffffffffff1673ffffffffffffffffffffffffffffffffffffffff1681526020019081526020016000206000815480929190600101919050559050919050565b6120f06136a2565b61214182600960008673ffffffffffffffffffffffffffffffffffffffff1673ffffffffffffffffffffffffffffffffffffffff168152602001908152602001600020612d4b90919063ffffffff16565b905092915050565b600073ffffffffffffffffffffffffffffffffffffffff168473ffffffffffffffffffffffffffffffffffffffff16036121bb5760006040517fe602df050000000000000000000000000000000000000000000000000000000081526004016121b291906139c5565b60405180910390fd5b600073ffffffffffffffffffffffffffffffffffffffff168373ffffffffffffffffffffffffffffffffffffffff160361222d5760006040517f94280d6200000000000000000000000000000000000000000000000000000000815260040161222491906139c5565b60405180910390fd5b81600160008673ffffffffffffffffffffffffffffffffffffffff1673ffffffffffffffffffffffffffffffffffffffff16815260200190815260200160002060008573ffffffffffffffffffffffffffffffffffffffff1673ffffffffffffffffffffffffffffffffffffffff16815260200190815260200160002081905550801561231a578273ffffffffffffffffffffffffffffffffffffffff168473ffffffffffffffffffffffffffffffffffffffff167f8c5be1e5ebec7d5bd14f71427d1e84f3dd0314c0f7b2291e5b200ac8c7c3b9258460405161231191906138dd565b60405180910390a35b50505050565b600061232c8484611572565b90507fffffffffffffffffffffffffffffffffffffffffffffffffffffffffffffffff81146123ae578181101561239e578281836040517ffb8f41b20000000000000000000000000000000000000000000000000000000081526004016123959392919061448d565b60405180910390fd5b6123ad84848484036000612149565b5b50505050565b60007f8b73c3c69bb8fe3d512ecc4cf759cc79239f7b179b0ffacaa9a75d522b39400f7f00000000000000000000000000000000000000000000000000000000000000007f0000000000000000000000000000000000000000000000000000000000000000463060405160200161242f9594939291906144c4565b60405160208183030381529060405280519060200120905090565b60006001821161245c578190506125e2565b6000829050600060019050700100000000000000000000000000000000821061248e57608082901c9150604081901b90505b6801000000000000000082106124ad57604082901c9150602081901b90505b64010000000082106124c857602082901c9150601081901b90505b6201000082106124e157601082901c9150600881901b90505b61010082106124f957600882901c9150600481901b90505b6010821061251057600482901c9150600281901b90505b6004821061252057600181901b90505b600181600302901c9050600181858161253c5761253b614027565b5b048201901c9050600181858161255557612554614027565b5b048201901c9050600181858161256e5761256d614027565b5b048201901c9050600181858161258757612586614027565b5b048201901c905060018185816125a05761259f614027565b5b048201901c905060018185816125b9576125b8614027565b5b048201901c90506125db8185816125d3576125d2614027565b5b048211612e20565b8103925050505b919050565b60008260005281602060002001905092915050565b60005b8183101561266a5760006126138484612e2c565b90508465ffffffffffff1661262887836125e7565b60000160009054906101000a900465ffffffffffff1665ffffffffffff16111561265457809250612664565b6001816126619190614430565b93505b506125ff565b819050949350505050565b61267d610c28565b6126b3576040517f8dfc202b00000000000000000000000000000000000000000000000000000000815260040160405180910390fd5b565b60006126c082610d74565b9050919050565b8173ffffffffffffffffffffffffffffffffffffffff168373ffffffffffffffffffffffffffffffffffffffff16141580156127035750600081115b1561293b57600073ffffffffffffffffffffffffffffffffffffffff168373ffffffffffffffffffffffffffffffffffffffff161461282157600080612792600960008773ffffffffffffffffffffffffffffffffffffffff1673ffffffffffffffffffffffffffffffffffffffff1681526020019081526020016000206117e161278d86612e52565b612ec0565b79ffffffffffffffffffffffffffffffffffffffffffffffffffff16915079ffffffffffffffffffffffffffffffffffffffffffffffffffff1691508473ffffffffffffffffffffffffffffffffffffffff167fdec2bacdd2f05b59de34da9b523dff8be42e5e38e818c82fdb0bae774387a724838360405161281692919061429c565b60405180910390a250505b600073ffffffffffffffffffffffffffffffffffffffff168273ffffffffffffffffffffffffffffffffffffffff161461293a576000806128ab600960008673ffffffffffffffffffffffffffffffffffffffff1673ffffffffffffffffffffffffffffffffffffffff1681526020019081526020016000206117cb6128a686612e52565b612ec0565b79ffffffffffffffffffffffffffffffffffffffffffffffffffff16915079ffffffffffffffffffffffffffffffffffffffffffffffffffff1691508373ffffffffffffffffffffffffffffffffffffffff167fdec2bacdd2f05b59de34da9b523dff8be42e5e38e818c82fdb0bae774387a724838360405161292f92919061429c565b60405180910390a250505b5b505050565b600081600001805490509050919050565b600063ffffffff80168211156129a1576020826040517f6dfcc650000000000000000000000000000000000000000000000000000000008152600401612998929190614552565b60405180910390fd5b819050919050565b6000600760008373ffffffffffffffffffffffffffffffffffffffff1673ffffffffffffffffffffffffffffffffffffffff168152602001908152602001600020549050919050565b606060ff60001b8314612a0f57612a0883612f00565b9050612a9c565b818054612a1b90613ef0565b80601f0160208091040260200160405190810160405280929190818152602001828054612a4790613ef0565b8015612a945780601f10612a6957610100808354040283529160200191612a94565b820191906000526020600020905b815481529060010190602001808311612a7757829003601f168201915b505050505090505b92915050565b612aad838383612f74565b505050565b60006040517f190100000000000000000000000000000000000000000000000000000000000081528360028201528260228201526042812091505092915050565b60008060007f7fffffffffffffffffffffffffffffff5d576e7357a4501ddfe92f46681b20a08460001c1115612b33576000600385925092509250612bdd565b600060018888888860405160008152602001604052604051612b58949392919061457b565b6020604051602081039080840390855afa158015612b7a573d6000803e3d6000fd5b505050602060405103519050600073ffffffffffffffffffffffffffffffffffffffff168173ffffffffffffffffffffffffffffffffffffffff1603612bce57600060016000801b93509350935050612bdd565b8060008060001b935093509350505b9450945094915050565b60006003811115612bfb57612bfa6145c0565b5b826003811115612c0e57612c0d6145c0565b5b0315612d475760016003811115612c2857612c276145c0565b5b826003811115612c3b57612c3a6145c0565b5b03612c72576040517ff645eedf00000000000000000000000000000000000000000000000000000000815260040160405180910390fd5b60026003811115612c8657612c856145c0565b5b826003811115612c9957612c986145c0565b5b03612cde578060001c6040517ffce698f7000000000000000000000000000000000000000000000000000000008152600401612cd591906138dd565b60405180910390fd5b600380811115612cf157612cf06145c0565b5b826003811115612d0457612d036145c0565b5b03612d4657806040517fd78bce0c000000000000000000000000000000000000000000000000000000008152600401612d3d919061399b565b60405180910390fd5b5b5050565b612d536136a2565b826000018263ffffffff1681548110612d6f57612d6e6145ef565b5b906000526020600020016040518060400160405290816000820160009054906101000a900465ffffffffffff1665ffffffffffff1665ffffffffffff1681526020016000820160069054906101000a900479ffffffffffffffffffffffffffffffffffffffffffffffffffff1679ffffffffffffffffffffffffffffffffffffffffffffffffffff1679ffffffffffffffffffffffffffffffffffffffffffffffffffff1681525050905092915050565b60008115159050919050565b60006002828418612e3d9190614056565b828416612e4a9190614430565b905092915050565b600079ffffffffffffffffffffffffffffffffffffffffffffffffffff8016821115612eb85760d0826040517f6dfcc650000000000000000000000000000000000000000000000000000000008152600401612eaf929190614659565b60405180910390fd5b819050919050565b600080612ef4612ece610f6f565b612ee4612eda88611e93565b868863ffffffff16565b876130259092919063ffffffff16565b91509150935093915050565b60606000612f0d83613042565b90506000602067ffffffffffffffff811115612f2c57612f2b6140e4565b5b6040519080825280601f01601f191660200182016040528015612f5e5781602001600182028036833780820191505090505b5090508181528360208201528092505050919050565b612f7f838383613092565b600073ffffffffffffffffffffffffffffffffffffffff168373ffffffffffffffffffffffffffffffffffffffff1603613015576000612fbd610922565b90506000612fc96132b7565b9050808211156130125781816040517f1cb15d2600000000000000000000000000000000000000000000000000000000815260040161300992919061429c565b60405180910390fd5b50505b6130208383836132db565b505050565b600080613036856000018585613395565b91509150935093915050565b60008060ff8360001c169050601f811115613089576040517fb3512b0c00000000000000000000000000000000000000000000000000000000815260040160405180910390fd5b80915050919050565b600073ffffffffffffffffffffffffffffffffffffffff168373ffffffffffffffffffffffffffffffffffffffff16036130e45780600260008282546130d89190614430565b925050819055506131b7565b60008060008573ffffffffffffffffffffffffffffffffffffffff1673ffffffffffffffffffffffffffffffffffffffff16815260200190815260200160002054905081811015613170578381836040517fe450d38c0000000000000000000000000000000000000000000000000000000081526004016131679392919061448d565b60405180910390fd5b8181036000808673ffffffffffffffffffffffffffffffffffffffff1673ffffffffffffffffffffffffffffffffffffffff16815260200190815260200160002081905550505b600073ffffffffffffffffffffffffffffffffffffffff168273ffffffffffffffffffffffffffffffffffffffff1603613200578060026000828254039250508190555061324d565b806000808473ffffffffffffffffffffffffffffffffffffffff1673ffffffffffffffffffffffffffffffffffffffff168152602001908152602001600020600082825401925050819055505b8173ffffffffffffffffffffffffffffffffffffffff168373ffffffffffffffffffffffffffffffffffffffff167fddf252ad1be2c89b69c2b068fc378daa952ba7f163c4a11628f55a4df523b3ef836040516132aa91906138dd565b60405180910390a3505050565b600079ffffffffffffffffffffffffffffffffffffffffffffffffffff8016905090565b600073ffffffffffffffffffffffffffffffffffffffff168373ffffffffffffffffffffffffffffffffffffffff160361332857613325600a6117cb61332084612e52565b612ec0565b50505b600073ffffffffffffffffffffffffffffffffffffffff168273ffffffffffffffffffffffffffffffffffffffff160361337557613372600a6117e161336d84612e52565b612ec0565b50505b61339061338184610ba5565b61338a84610ba5565b836126c7565b505050565b60008060008580549050905060008111156135b25760006133c2876001846133bd9190614087565b6125e7565b905060008160000160009054906101000a900465ffffffffffff16905060008260000160069054906101000a900479ffffffffffffffffffffffffffffffffffffffffffffffffffff1690508765ffffffffffff168265ffffffffffff161115613458576040517f2520601d00000000000000000000000000000000000000000000000000000000815260040160405180910390fd5b8765ffffffffffff168265ffffffffffff16036134c357868360000160066101000a81548179ffffffffffffffffffffffffffffffffffffffffffffffffffff021916908379ffffffffffffffffffffffffffffffffffffffffffffffffffff1602179055506135a3565b8860405180604001604052808a65ffffffffffff1681526020018979ffffffffffffffffffffffffffffffffffffffffffffffffffff168152509080600181540180825580915050600190039060005260206000200160009091909190915060008201518160000160006101000a81548165ffffffffffff021916908365ffffffffffff16021790555060208201518160000160066101000a81548179ffffffffffffffffffffffffffffffffffffffffffffffffffff021916908379ffffffffffffffffffffffffffffffffffffffffffffffffffff16021790555050505b8087955095505050505061369a565b8560405180604001604052808765ffffffffffff1681526020018679ffffffffffffffffffffffffffffffffffffffffffffffffffff168152509080600181540180825580915050600190039060005260206000200160009091909190915060008201518160000160006101000a81548165ffffffffffff021916908365ffffffffffff16021790555060208201518160000160066101000a81548179ffffffffffffffffffffffffffffffffffffffffffffffffffff021916908379ffffffffffffffffffffffffffffffffffffffffffffffffffff160217905550505060008492509250505b935093915050565b6040518060400160405280600065ffffffffffff168152602001600079ffffffffffffffffffffffffffffffffffffffffffffffffffff1681525090565b600081519050919050565b600082825260208201905092915050565b60005b8381101561371a5780820151818401526020810190506136ff565b60008484015250505050565b6000601f19601f8301169050919050565b6000613742826136e0565b61374c81856136eb565b935061375c8185602086016136fc565b61376581613726565b840191505092915050565b6000602082019050818103600083015261378a8184613737565b905092915050565b600080fd5b600073ffffffffffffffffffffffffffffffffffffffff82169050919050565b60006137c282613797565b9050919050565b6137d2816137b7565b81146137dd57600080fd5b50565b6000813590506137ef816137c9565b92915050565b60006020828403121561380b5761380a613792565b5b6000613819848285016137e0565b91505092915050565b6000819050919050565b61383581613822565b811461384057600080fd5b50565b6000813590506138528161382c565b92915050565b6000806040838503121561386f5761386e613792565b5b600061387d858286016137e0565b925050602061388e85828601613843565b9150509250929050565b60008115159050919050565b6138ad81613898565b82525050565b60006020820190506138c860008301846138a4565b92915050565b6138d781613822565b82525050565b60006020820190506138f260008301846138ce565b92915050565b60008060006060848603121561391157613910613792565b5b600061391f868287016137e0565b9350506020613930868287016137e0565b925050604061394186828701613843565b9150509250925092565b600060ff82169050919050565b6139618161394b565b82525050565b600060208201905061397c6000830184613958565b92915050565b6000819050919050565b61399581613982565b82525050565b60006020820190506139b0600083018461398c565b92915050565b6139bf816137b7565b82525050565b60006020820190506139da60008301846139b6565b92915050565b600063ffffffff82169050919050565b6139f9816139e0565b82525050565b6000602082019050613a1460008301846139f0565b92915050565b60007fff0000000000000000000000000000000000000000000000000000000000000082169050919050565b613a4f81613a1a565b82525050565b600081519050919050565b600082825260208201905092915050565b6000819050602082019050919050565b613a8a81613822565b82525050565b6000613a9c8383613a81565b60208301905092915050565b6000602082019050919050565b6000613ac082613a55565b613aca8185613a60565b9350613ad583613a71565b8060005b83811015613b06578151613aed8882613a90565b9750613af883613aa8565b925050600181019050613ad9565b5085935050505092915050565b600060e082019050613b28600083018a613a46565b8181036020830152613b3a8189613737565b90508181036040830152613b4e8188613737565b9050613b5d60608301876138ce565b613b6a60808301866139b6565b613b7760a083018561398c565b81810360c0830152613b898184613ab5565b905098975050505050505050565b600060208284031215613bad57613bac613792565b5b6000613bbb84828501613843565b91505092915050565b600065ffffffffffff82169050919050565b613bdf81613bc4565b82525050565b6000602082019050613bfa6000830184613bd6565b92915050565b613c098161394b565b8114613c1457600080fd5b50565b600081359050613c2681613c00565b92915050565b613c3581613982565b8114613c4057600080fd5b50565b600081359050613c5281613c2c565b92915050565b60008060008060008060c08789031215613c7557613c74613792565b5b6000613c8389828a016137e0565b9650506020613c9489828a01613843565b9550506040613ca589828a01613843565b9450506060613cb689828a01613c17565b9350506080613cc789828a01613c43565b92505060a0613cd889828a01613c43565b9150509295509295509295565b600080600080600080600060e0888a031215613d0457613d03613792565b5b6000613d128a828b016137e0565b9750506020613d238a828b016137e0565b9650506040613d348a828b01613843565b9550506060613d458a828b01613843565b9450506080613d568a828b01613c17565b93505060a0613d678a828b01613c43565b92505060c0613d788a828b01613c43565b91505092959891949750929550565b60008060408385031215613d9e57613d9d613792565b5b6000613dac858286016137e0565b9250506020613dbd858286016137e0565b9150509250929050565b613dd0816139e0565b8114613ddb57600080fd5b50565b600081359050613ded81613dc7565b92915050565b60008060408385031215613e0a57613e09613792565b5b6000613e18858286016137e0565b9250506020613e2985828601613dde565b9150509250929050565b613e3c81613bc4565b82525050565b600079ffffffffffffffffffffffffffffffffffffffffffffffffffff82169050919050565b613e7181613e42565b82525050565b604082016000820151613e8d6000850182613e33565b506020820151613ea06020850182613e68565b50505050565b6000604082019050613ebb6000830184613e77565b92915050565b7f4e487b7100000000000000000000000000000000000000000000000000000000600052602260045260246000fd5b60006002820490506001821680613f0857607f821691505b602082108103613f1b57613f1a613ec1565b5b50919050565b7f496e76616c696420616464726573730000000000000000000000000000000000600082015250565b6000613f57600f836136eb565b9150613f6282613f21565b602082019050919050565b60006020820190508181036000830152613f8681613f4a565b9050919050565b6000604082019050613fa260008301856139b6565b613faf60208301846139b6565b9392505050565b7f4e487b7100000000000000000000000000000000000000000000000000000000600052601160045260246000fd5b6000613ff082613822565b9150613ffb83613822565b925082820261400981613822565b915082820484148315176140205761401f613fb6565b5b5092915050565b7f4e487b7100000000000000000000000000000000000000000000000000000000600052601260045260246000fd5b600061406182613822565b915061406c83613822565b92508261407c5761407b614027565b5b828204905092915050565b600061409282613822565b915061409d83613822565b92508282039050818111156140b5576140b4613fb6565b5b92915050565b60006040820190506140d060008301856138ce565b6140dd6020830184613bd6565b9392505050565b7f4e487b7100000000000000000000000000000000000000000000000000000000600052604160045260246000fd5b7f5472616e7366657220746f207a65726f20616464726573730000000000000000600082015250565b60006141496018836136eb565b915061415482614113565b602082019050919050565b600060208201905081810360008301526141788161413c565b9050919050565b7f496e73756666696369656e742062616c616e6365000000000000000000000000600082015250565b60006141b56014836136eb565b91506141c08261417f565b602082019050919050565b600060208201905081810360008301526141e4816141a8565b9050919050565b6000608082019050614200600083018761398c565b61420d60208301866139b6565b61421a60408301856138ce565b61422760608301846138ce565b95945050505050565b7f546178207261746520746f6f2068696768000000000000000000000000000000600082015250565b60006142666011836136eb565b915061427182614230565b602082019050919050565b6000602082019050818103600083015261429581614259565b9050919050565b60006040820190506142b160008301856138ce565b6142be60208301846138ce565b9392505050565b600060c0820190506142da600083018961398c565b6142e760208301886139b6565b6142f460408301876139b6565b61430160608301866138ce565b61430e60808301856138ce565b61431b60a08301846138ce565b979650505050505050565b600061433182613e42565b915061433c83613e42565b9250828201905079ffffffffffffffffffffffffffffffffffffffffffffffffffff81111561436e5761436d613fb6565b5b92915050565b600061437f82613e42565b915061438a83613e42565b9250828203905079ffffffffffffffffffffffffffffffffffffffffffffffffffff8111156143bc576143bb613fb6565b5b92915050565b6000819050919050565b6000819050919050565b60006143f16143ec6143e7846143c2565b6143cc565b61394b565b9050919050565b614401816143d6565b82525050565b600060408201905061441c60008301856143f8565b61442960208301846138ce565b9392505050565b600061443b82613822565b915061444683613822565b925082820190508082111561445e5761445d613fb6565b5b92915050565b600060408201905061447960008301856139b6565b61448660208301846138ce565b9392505050565b60006060820190506144a260008301866139b6565b6144af60208301856138ce565b6144bc60408301846138ce565b949350505050565b600060a0820190506144d9600083018861398c565b6144e6602083018761398c565b6144f3604083018661398c565b61450060608301856138ce565b61450d60808301846139b6565b9695505050505050565b6000819050919050565b600061453c61453761453284614517565b6143cc565b61394b565b9050919050565b61454c81614521565b82525050565b60006040820190506145676000830185614543565b61457460208301846138ce565b9392505050565b6000608082019050614590600083018761398c565b61459d6020830186613958565b6145aa604083018561398c565b6145b7606083018461398c565b95945050505050565b7f4e487b7100000000000000000000000000000000000000000000000000000000600052602160045260246000fd5b7f4e487b7100000000000000000000000000000000000000000000000000000000600052603260045260246000fd5b6000819050919050565b600061464361463e6146398461461e565b6143cc565b61394b565b9050919050565b61465381614628565b82525050565b600060408201905061466e600083018561464a565b61467b60208301846138ce565b939250505056fea264697066735822122047b669d0c2b3f62f61cbcd97ec439a1e3216c9d1495ace048db61a58ad855e6364736f6c634300081b0033",
  "linkReferences": {},
  "deployedLinkReferences": {}
}