{
  "_format": "hh-sol-artifact-1",
  "contractName": "TokenSaleWithPyth",
  "sourceName": "contracts/TokenSaleWithPyth.sol",
  "abi": [
    {
      "inputs": [
        {
          "internalType": "address",
          "name": "_mctToken",
          "type": "address"
        },
        {
          "internalType": "address",
          "name": "_usdtToken",
          "type": "address"
        },
        {
          "internalType": "address",
          "name": "_treasuryWallet",
          "type": "address"
        },
        {
          "internalType": "address",
          "name": "_pythAddress",
          "type": "address"
        }
      ],
      "stateMutability": "nonpayable",
      "type": "constructor"
    },
    {
      "inputs": [
        {
          "internalType": "address",
          "name": "owner",
          "type": "address"
        }
      ],
      "name": "OwnableInvalidOwner",
      "type": "error"
    },
    {
      "inputs": [
        {
          "internalType": "address",
          "name": "account",
          "type": "address"
        }
      ],
      "name": "OwnableUnauthorizedAccount",
      "type": "error"
    },
    {
      "inputs": [],
      "name": "ReentrancyGuardReentrantCall",
      "type": "error"
    },
    {
      "inputs": [
        {
          "internalType": "address",
          "name": "token",
          "type": "address"
        }
      ],
      "name": "SafeERC20FailedOperation",
      "type": "error"
    },
    {
      "anonymous": false,
      "inputs": [
        {
          "indexed": true,
          "internalType": "address",
          "name": "owner",
          "type": "address"
        }
      ],
      "name": "ContractPaused",
      "type": "event"
    },
    {
      "anonymous": false,
      "inputs": [
        {
          "indexed": true,
          "internalType": "address",
          "name": "owner",
          "type": "address"
        }
      ],
      "name": "ContractUnpaused",
      "type": "event"
    },
    {
      "anonymous": false,
      "inputs": [],
      "name": "EmergencyModeDisabled",
      "type": "event"
    },
    {
      "anonymous": false,
      "inputs": [],
      "name": "EmergencyModeEnabled",
      "type": "event"
    },
    {
      "anonymous": false,
      "inputs": [
        {
          "indexed": true,
          "internalType": "address",
          "name": "user",
          "type": "address"
        },
        {
          "indexed": false,
          "internalType": "uint256",
          "name": "ethAmount",
          "type": "uint256"
        },
        {
          "indexed": false,
          "internalType": "uint256",
          "name": "usdtAmount",
          "type": "uint256"
        }
      ],
      "name": "EmergencyWithdraw",
      "type": "event"
    },
    {
      "anonymous": false,
      "inputs": [
        {
          "indexed": false,
          "internalType": "uint256",
          "name": "amount",
          "type": "uint256"
        }
      ],
      "name": "EthWithdrawn",
      "type": "event"
    },
    {
      "anonymous": false,
      "inputs": [
        {
          "indexed": true,
          "internalType": "address",
          "name": "token",
          "type": "address"
        },
        {
          "indexed": false,
          "internalType": "uint256",
          "name": "amount",
          "type": "uint256"
        }
      ],
      "name": "FundsWithdrawn",
      "type": "event"
    },
    {
      "anonymous": false,
      "inputs": [
        {
          "indexed": true,
          "internalType": "address",
          "name": "previousOwner",
          "type": "address"
        },
        {
          "indexed": true,
          "internalType": "address",
          "name": "newOwner",
          "type": "address"
        }
      ],
      "name": "OwnershipTransferred",
      "type": "event"
    },
    {
      "anonymous": false,
      "inputs": [
        {
          "indexed": false,
          "internalType": "uint256",
          "name": "oldPrice",
          "type": "uint256"
        },
        {
          "indexed": false,
          "internalType": "uint256",
          "name": "newPrice",
          "type": "uint256"
        },
        {
          "indexed": false,
          "internalType": "uint256",
          "name": "timestamp",
          "type": "uint256"
        }
      ],
      "name": "PriceUpdated",
      "type": "event"
    },
    {
      "anonymous": false,
      "inputs": [
        {
          "indexed": false,
          "internalType": "uint256",
          "name": "amount",
          "type": "uint256"
        },
        {
          "indexed": false,
          "internalType": "uint256",
          "name": "newBalance",
          "type": "uint256"
        }
      ],
      "name": "PriceUpdatesFunded",
      "type": "event"
    },
    {
      "anonymous": false,
      "inputs": [],
      "name": "SaleFinalized",
      "type": "event"
    },
    {
      "anonymous": false,
      "inputs": [
        {
          "indexed": true,
          "internalType": "address",
          "name": "buyer",
          "type": "address"
        },
        {
          "indexed": false,
          "internalType": "uint256",
          "name": "amountUSD",
          "type": "uint256"
        },
        {
          "indexed": false,
          "internalType": "uint256",
          "name": "tokenAmount",
          "type": "uint256"
        }
      ],
      "name": "TokensPurchased",
      "type": "event"
    },
    {
      "anonymous": false,
      "inputs": [
        {
          "indexed": true,
          "internalType": "address",
          "name": "user",
          "type": "address"
        },
        {
          "indexed": false,
          "internalType": "uint256",
          "name": "amount",
          "type": "uint256"
        }
      ],
      "name": "TokensWithdrawn",
      "type": "event"
    },
    {
      "anonymous": false,
      "inputs": [
        {
          "indexed": true,
          "internalType": "address",
          "name": "newWallet",
          "type": "address"
        }
      ],
      "name": "TreasuryWalletUpdated",
      "type": "event"
    },
    {
      "inputs": [],
      "name": "ETH_USD_PRICE_ID",
      "outputs": [
        {
          "internalType": "bytes32",
          "name": "",
          "type": "bytes32"
        }
      ],
      "stateMutability": "view",
      "type": "function"
    },
    {
      "inputs": [],
      "name": "MAX_PURCHASE_USD",
      "outputs": [
        {
          "internalType": "uint256",
          "name": "",
          "type": "uint256"
        }
      ],
      "stateMutability": "view",
      "type": "function"
    },
    {
      "inputs": [],
      "name": "MIN_PURCHASE_USD",
      "outputs": [
        {
          "internalType": "uint256",
          "name": "",
          "type": "uint256"
        }
      ],
      "stateMutability": "view",
      "type": "function"
    },
    {
      "inputs": [],
      "name": "PRICE_FRESHNESS_THRESHOLD",
      "outputs": [
        {
          "internalType": "uint256",
          "name": "",
          "type": "uint256"
        }
      ],
      "stateMutability": "view",
      "type": "function"
    },
    {
      "inputs": [],
      "name": "TOKEN_PRICE_USD",
      "outputs": [
        {
          "internalType": "uint256",
          "name": "",
          "type": "uint256"
        }
      ],
      "stateMutability": "view",
      "type": "function"
    },
    {
      "inputs": [],
      "name": "buyWithETH",
      "outputs": [],
      "stateMutability": "payable",
      "type": "function"
    },
    {
      "inputs": [
        {
          "internalType": "uint256",
          "name": "amount",
          "type": "uint256"
        }
      ],
      "name": "buyWithUSDT",
      "outputs": [],
      "stateMutability": "nonpayable",
      "type": "function"
    },
    {
      "inputs": [],
      "name": "cachedEthPrice",
      "outputs": [
        {
          "internalType": "uint256",
          "name": "",
          "type": "uint256"
        }
      ],
      "stateMutability": "view",
      "type": "function"
    },
    {
      "inputs": [
        {
          "internalType": "uint256",
          "name": "usdAmount",
          "type": "uint256"
        }
      ],
      "name": "calculateTokensForUsd",
      "outputs": [
        {
          "internalType": "uint256",
          "name": "",
          "type": "uint256"
        }
      ],
      "stateMutability": "pure",
      "type": "function"
    },
    {
      "inputs": [],
      "name": "disableEmergencyMode",
      "outputs": [],
      "stateMutability": "nonpayable",
      "type": "function"
    },
    {
      "inputs": [],
      "name": "emergencyMode",
      "outputs": [
        {
          "internalType": "bool",
          "name": "",
          "type": "bool"
        }
      ],
      "stateMutability": "view",
      "type": "function"
    },
    {
      "inputs": [],
      "name": "emergencyWithdraw",
      "outputs": [],
      "stateMutability": "nonpayable",
      "type": "function"
    },
    {
      "inputs": [],
      "name": "enableEmergencyMode",
      "outputs": [],
      "stateMutability": "nonpayable",
      "type": "function"
    },
    {
      "inputs": [
        {
          "internalType": "address",
          "name": "",
          "type": "address"
        }
      ],
      "name": "ethContributions",
      "outputs": [
        {
          "internalType": "uint256",
          "name": "",
          "type": "uint256"
        }
      ],
      "stateMutability": "view",
      "type": "function"
    },
    {
      "inputs": [],
      "name": "finalizeSale",
      "outputs": [],
      "stateMutability": "nonpayable",
      "type": "function"
    },
    {
      "inputs": [],
      "name": "fundPriceUpdates",
      "outputs": [],
      "stateMutability": "payable",
      "type": "function"
    },
    {
      "inputs": [],
      "name": "getEthPrice",
      "outputs": [
        {
          "internalType": "uint256",
          "name": "",
          "type": "uint256"
        }
      ],
      "stateMutability": "view",
      "type": "function"
    },
    {
      "inputs": [
        {
          "internalType": "address",
          "name": "user",
          "type": "address"
        }
      ],
      "name": "getTokenBalance",
      "outputs": [
        {
          "internalType": "uint256",
          "name": "",
          "type": "uint256"
        }
      ],
      "stateMutability": "view",
      "type": "function"
    },
    {
      "inputs": [],
      "name": "getTotalRaised",
      "outputs": [
        {
          "internalType": "uint256",
          "name": "eth",
          "type": "uint256"
        },
        {
          "internalType": "uint256",
          "name": "usdt",
          "type": "uint256"
        }
      ],
      "stateMutability": "view",
      "type": "function"
    },
    {
      "inputs": [
        {
          "internalType": "address",
          "name": "user",
          "type": "address"
        }
      ],
      "name": "getUserContributions",
      "outputs": [
        {
          "internalType": "uint256",
          "name": "eth",
          "type": "uint256"
        },
        {
          "internalType": "uint256",
          "name": "usdt",
          "type": "uint256"
        }
      ],
      "stateMutability": "view",
      "type": "function"
    },
    {
      "inputs": [],
      "name": "lastPriceTimestamp",
      "outputs": [
        {
          "internalType": "uint256",
          "name": "",
          "type": "uint256"
        }
      ],
      "stateMutability": "view",
      "type": "function"
    },
    {
      "inputs": [],
      "name": "mctToken",
      "outputs": [
        {
          "internalType": "contract IERC20",
          "name": "",
          "type": "address"
        }
      ],
      "stateMutability": "view",
      "type": "function"
    },
    {
      "inputs": [],
      "name": "owner",
      "outputs": [
        {
          "internalType": "address",
          "name": "",
          "type": "address"
        }
      ],
      "stateMutability": "view",
      "type": "function"
    },
    {
      "inputs": [],
      "name": "pause",
      "outputs": [],
      "stateMutability": "nonpayable",
      "type": "function"
    },
    {
      "inputs": [],
      "name": "paused",
      "outputs": [
        {
          "internalType": "bool",
          "name": "",
          "type": "bool"
        }
      ],
      "stateMutability": "view",
      "type": "function"
    },
    {
      "inputs": [
        {
          "internalType": "address",
          "name": "",
          "type": "address"
        }
      ],
      "name": "pendingTokens",
      "outputs": [
        {
          "internalType": "uint256",
          "name": "",
          "type": "uint256"
        }
      ],
      "stateMutability": "view",
      "type": "function"
    },
    {
      "inputs": [],
      "name": "pyth",
      "outputs": [
        {
          "internalType": "contract IPyth",
          "name": "",
          "type": "address"
        }
      ],
      "stateMutability": "view",
      "type": "function"
    },
    {
      "inputs": [],
      "name": "remainingTokens",
      "outputs": [
        {
          "internalType": "uint256",
          "name": "",
          "type": "uint256"
        }
      ],
      "stateMutability": "view",
      "type": "function"
    },
    {
      "inputs": [],
      "name": "renounceOwnership",
      "outputs": [],
      "stateMutability": "nonpayable",
      "type": "function"
    },
    {
      "inputs": [],
      "name": "saleFinalized",
      "outputs": [
        {
          "internalType": "bool",
          "name": "",
          "type": "bool"
        }
      ],
      "stateMutability": "view",
      "type": "function"
    },
    {
      "inputs": [
        {
          "internalType": "address",
          "name": "_newWallet",
          "type": "address"
        }
      ],
      "name": "setTreasuryWallet",
      "outputs": [],
      "stateMutability": "nonpayable",
      "type": "function"
    },
    {
      "inputs": [],
      "name": "totalEthRaised",
      "outputs": [
        {
          "internalType": "uint256",
          "name": "",
          "type": "uint256"
        }
      ],
      "stateMutability": "view",
      "type": "function"
    },
    {
      "inputs": [],
      "name": "totalUsdtRaised",
      "outputs": [
        {
          "internalType": "uint256",
          "name": "",
          "type": "uint256"
        }
      ],
      "stateMutability": "view",
      "type": "function"
    },
    {
      "inputs": [
        {
          "internalType": "address",
          "name": "newOwner",
          "type": "address"
        }
      ],
      "name": "transferOwnership",
      "outputs": [],
      "stateMutability": "nonpayable",
      "type": "function"
    },
    {
      "inputs": [],
      "name": "treasuryWallet",
      "outputs": [
        {
          "internalType": "address",
          "name": "",
          "type": "address"
        }
      ],
      "stateMutability": "view",
      "type": "function"
    },
    {
      "inputs": [],
      "name": "unpause",
      "outputs": [],
      "stateMutability": "nonpayable",
      "type": "function"
    },
    {
      "inputs": [
        {
          "internalType": "bytes[]",
          "name": "priceUpdate",
          "type": "bytes[]"
        }
      ],
      "name": "updateEthPrice",
      "outputs": [
        {
          "internalType": "uint256",
          "name": "",
          "type": "uint256"
        }
      ],
      "stateMutability": "nonpayable",
      "type": "function"
    },
    {
      "inputs": [
        {
          "internalType": "address",
          "name": "",
          "type": "address"
        }
      ],
      "name": "usdtContributions",
      "outputs": [
        {
          "internalType": "uint256",
          "name": "",
          "type": "uint256"
        }
      ],
      "stateMutability": "view",
      "type": "function"
    },
    {
      "inputs": [],
      "name": "usdtToken",
      "outputs": [
        {
          "internalType": "contract IERC20",
          "name": "",
          "type": "address"
        }
      ],
      "stateMutability": "view",
      "type": "function"
    },
    {
      "inputs": [],
      "name": "withdrawETH",
      "outputs": [],
      "stateMutability": "nonpayable",
      "type": "function"
    },
    {
      "inputs": [],
      "name": "withdrawPriceUpdateFunds",
      "outputs": [],
      "stateMutability": "nonpayable",
      "type": "function"
    },
    {
      "inputs": [
        {
          "internalType": "address",
          "name": "token",
          "type": "address"
        }
      ],
      "name": "withdrawToken",
      "outputs": [],
      "stateMutability": "nonpayable",
      "type": "function"
    },
    {
      "inputs": [],
      "name": "withdrawTokens",
      "outputs": [],
      "stateMutability": "nonpayable",
      "type": "function"
    },
    {
      "inputs": [],
      "name": "withdrawUSDT",
      "outputs": [],
      "stateMutability": "nonpayable",
      "type": "function"
    },
    {
      "stateMutability": "payable",
      "type": "receive"
    }
  ],
  "bytecode": "0x60806040526000600860006101000a81548160ff02191690831515021790555034801561002b57600080fd5b506040516148c73803806148c7833981810160405281019061004d919061056c565b336001600081905550600073ffffffffffffffffffffffffffffffffffffffff168173ffffffffffffffffffffffffffffffffffffffff16036100c85760006040517f1e4fbdf70000000000000000000000000000000000000000000000000000000081526004016100bf91906105e2565b60405180910390fd5b6100d78161044360201b60201c565b50600073ffffffffffffffffffffffffffffffffffffffff168473ffffffffffffffffffffffffffffffffffffffff1603610147576040517f08c379a000000000000000000000000000000000000000000000000000000000815260040161013e9061065a565b60405180910390fd5b600073ffffffffffffffffffffffffffffffffffffffff168373ffffffffffffffffffffffffffffffffffffffff16036101b6576040517f08c379a00000000000000000000000000000000000000000000000000000000081526004016101ad906106c6565b60405180910390fd5b600073ffffffffffffffffffffffffffffffffffffffff168273ffffffffffffffffffffffffffffffffffffffff1603610225576040517f08c379a000000000000000000000000000000000000000000000000000000000815260040161021c90610732565b60405180910390fd5b600073ffffffffffffffffffffffffffffffffffffffff168173ffffffffffffffffffffffffffffffffffffffff1603610294576040517f08c379a000000000000000000000000000000000000000000000000000000000815260040161028b9061079e565b60405180910390fd5b83600260006101000a81548173ffffffffffffffffffffffffffffffffffffffff021916908373ffffffffffffffffffffffffffffffffffffffff16021790555082600360006101000a81548173ffffffffffffffffffffffffffffffffffffffff021916908373ffffffffffffffffffffffffffffffffffffffff16021790555081600560006101000a81548173ffffffffffffffffffffffffffffffffffffffff021916908373ffffffffffffffffffffffffffffffffffffffff16021790555080600460006101000a81548173ffffffffffffffffffffffffffffffffffffffff021916908373ffffffffffffffffffffffffffffffffffffffff160217905550600260009054906101000a900473ffffffffffffffffffffffffffffffffffffffff1673ffffffffffffffffffffffffffffffffffffffff166370a08231306040518263ffffffff1660e01b81526004016103f391906105e2565b602060405180830381865afa158015610410573d6000803e3d6000fd5b505050506040513d601f19601f8201168201806040525081019061043491906107f4565b600c8190555050505050610821565b6000600160009054906101000a900473ffffffffffffffffffffffffffffffffffffffff16905081600160006101000a81548173ffffffffffffffffffffffffffffffffffffffff021916908373ffffffffffffffffffffffffffffffffffffffff1602179055508173ffffffffffffffffffffffffffffffffffffffff168173ffffffffffffffffffffffffffffffffffffffff167f8be0079c531659141344cd1fd0a4f28419497f9722a3daafe3b4186f6b6457e060405160405180910390a35050565b600080fd5b600073ffffffffffffffffffffffffffffffffffffffff82169050919050565b60006105398261050e565b9050919050565b6105498161052e565b811461055457600080fd5b50565b60008151905061056681610540565b92915050565b6000806000806080858703121561058657610585610509565b5b600061059487828801610557565b94505060206105a587828801610557565b93505060406105b687828801610557565b92505060606105c787828801610557565b91505092959194509250565b6105dc8161052e565b82525050565b60006020820190506105f760008301846105d3565b92915050565b600082825260208201905092915050565b7f4d43543a207a65726f2061646472657373000000000000000000000000000000600082015250565b60006106446011836105fd565b915061064f8261060e565b602082019050919050565b6000602082019050818103600083015261067381610637565b9050919050565b7f555344543a207a65726f20616464726573730000000000000000000000000000600082015250565b60006106b06012836105fd565b91506106bb8261067a565b602082019050919050565b600060208201905081810360008301526106df816106a3565b9050919050565b7f54726561737572793a207a65726f206164647265737300000000000000000000600082015250565b600061071c6016836105fd565b9150610727826106e6565b602082019050919050565b6000602082019050818103600083015261074b8161070f565b9050919050565b7f507974683a207a65726f20616464726573730000000000000000000000000000600082015250565b60006107886012836105fd565b915061079382610752565b602082019050919050565b600060208201905081810360008301526107b78161077b565b9050919050565b6000819050919050565b6107d1816107be565b81146107dc57600080fd5b50565b6000815190506107ee816107c8565b92915050565b60006020828403121561080a57610809610509565b5b6000610818848285016107df565b91505092915050565b614097806108306000396000f3fe60806040526004361061026b5760003560e01c80638da5cb5b11610144578063c9e904be116100b6578063e730395a1161007a578063e730395a1461083f578063e9bc18011461087c578063ef952568146108a7578063f2fde38b146108be578063f7a182f5146108e7578063f98d06f0146109125761027a565b8063c9e904be1461077d578063db2e21bc146107a8578063e086e5ec146107bf578063e36465a3146107d6578063e6672fe7146108145761027a565b8063a7c6016011610108578063a7c6016014610681578063a8602fea146106aa578063a98ad46c146106d3578063bf583903146106fe578063c031a66f14610729578063c5b1c7d0146107665761027a565b80638da5cb5b146105b857806396607c65146105e35780639a55fd80146106205780639f5502931461062a578063a5f0dea2146106565761027a565b806358a687ec116101dd5780636ea33e4e116101a15780636ea33e4e146104f4578063715018a61461051f5780637de93f93146105365780638456cb591461056157806389476069146105785780638d8f2adb146105a15761027a565b806358a687ec146104455780635bbf74911461045c5780635c975abb1461048757806367c9b017146104b25780636e0c370a146104dd5761027a565b80632b2da7c81161022f5780632b2da7c8146103475780632de8f45014610384578063362e496b146103af5780633aecd0e3146103c65780633f4ba83a146104035780634626402b1461041a5761027a565b80630905f5601461027f5780631322ec8c146102aa578063150d283d146102d55780631aae8491146102df5780631d634fb21461030a5761027a565b3661027a5761027861093d565b005b600080fd5b34801561028b57600080fd5b50610294610d15565b6040516102a19190612b33565b60405180910390f35b3480156102b657600080fd5b506102bf610d28565b6040516102cc9190612b67565b60405180910390f35b6102dd61093d565b005b3480156102eb57600080fd5b506102f4610d2e565b6040516103019190612b67565b60405180910390f35b34801561031657600080fd5b50610331600480360381019061032c9190612bc2565b610d36565b60405161033e9190612b67565b60405180910390f35b34801561035357600080fd5b5061036e60048036038101906103699190612c4d565b610d6e565b60405161037b9190612b67565b60405180910390f35b34801561039057600080fd5b50610399610d86565b6040516103a69190612b67565b60405180910390f35b3480156103bb57600080fd5b506103c4610d8f565b005b3480156103d257600080fd5b506103ed60048036038101906103e89190612c4d565b610f5c565b6040516103fa9190612b67565b60405180910390f35b34801561040f57600080fd5b50610418610fa5565b005b34801561042657600080fd5b5061042f61100d565b60405161043c9190612c89565b60405180910390f35b34801561045157600080fd5b5061045a611033565b005b34801561046857600080fd5b50610471611084565b60405161047e9190612cbd565b60405180910390f35b34801561049357600080fd5b5061049c6110ab565b6040516104a99190612b33565b60405180910390f35b3480156104be57600080fd5b506104c76110be565b6040516104d49190612b67565b60405180910390f35b3480156104e957600080fd5b506104f261115d565b005b34801561050057600080fd5b5061050961126e565b6040516105169190612b67565b60405180910390f35b34801561052b57600080fd5b50610534611274565b005b34801561054257600080fd5b5061054b611288565b6040516105589190612b67565b60405180910390f35b34801561056d57600080fd5b5061057661128e565b005b34801561058457600080fd5b5061059f600480360381019061059a9190612c4d565b6112f6565b005b3480156105ad57600080fd5b506105b6611544565b005b3480156105c457600080fd5b506105cd61170d565b6040516105da9190612c89565b60405180910390f35b3480156105ef57600080fd5b5061060a60048036038101906106059190612d3d565b611737565b6040516106179190612b67565b60405180910390f35b610628611b6d565b005b34801561063657600080fd5b5061063f611bcb565b60405161064d929190612d8a565b60405180910390f35b34801561066257600080fd5b5061066b611bdc565b6040516106789190612b33565b60405180910390f35b34801561068d57600080fd5b506106a860048036038101906106a39190612bc2565b611bef565b005b3480156106b657600080fd5b506106d160048036038101906106cc9190612c4d565b611fe6565b005b3480156106df57600080fd5b506106e86120e4565b6040516106f59190612e12565b60405180910390f35b34801561070a57600080fd5b5061071361210a565b6040516107209190612b67565b60405180910390f35b34801561073557600080fd5b50610750600480360381019061074b9190612c4d565b612110565b60405161075d9190612b67565b60405180910390f35b34801561077257600080fd5b5061077b612128565b005b34801561078957600080fd5b50610792612179565b60405161079f9190612b67565b60405180910390f35b3480156107b457600080fd5b506107bd61217f565b005b3480156107cb57600080fd5b506107d4612497565b005b3480156107e257600080fd5b506107fd60048036038101906107f89190612c4d565b6125fd565b60405161080b929190612d8a565b60405180910390f35b34801561082057600080fd5b50610829612689565b6040516108369190612e12565b60405180910390f35b34801561084b57600080fd5b5061086660048036038101906108619190612c4d565b6126af565b6040516108739190612b67565b60405180910390f35b34801561088857600080fd5b506108916126c7565b60405161089e9190612b67565b60405180910390f35b3480156108b357600080fd5b506108bc6126cc565b005b3480156108ca57600080fd5b506108e560048036038101906108e09190612c4d565b61271d565b005b3480156108f357600080fd5b506108fc6127a3565b6040516109099190612b67565b60405180910390f35b34801561091e57600080fd5b506109276127aa565b6040516109349190612e4e565b60405180910390f35b6109456127d0565b600d60009054906101000a900460ff1615610995576040517f08c379a000000000000000000000000000000000000000000000000000000000815260040161098c90612ec6565b60405180910390fd5b600860019054906101000a900460ff16156109e5576040517f08c379a00000000000000000000000000000000000000000000000000000000081526004016109dc90612f58565b60405180910390fd5b60003411610a28576040517f08c379a0000000000000000000000000000000000000000000000000000000008152600401610a1f90612fc4565b60405180910390fd5b600860009054906101000a900460ff1615610a78576040517f08c379a0000000000000000000000000000000000000000000000000000000008152600401610a6f90613030565b60405180910390fd5b6000610a826110be565b90506000670de0b6b3a76400008234610a9b919061307f565b610aa591906130f0565b90506305f5e100811015610aee576040517f08c379a0000000000000000000000000000000000000000000000000000000008152600401610ae59061316d565b60405180910390fd5b640ba43b7400811115610b36576040517f08c379a0000000000000000000000000000000000000000000000000000000008152600401610b2d906131d9565b60405180910390fd5b6000610b4182610d36565b9050600c54811115610b88576040517f08c379a0000000000000000000000000000000000000000000000000000000008152600401610b7f90613245565b60405180910390fd5b80600c6000828254610b9a9190613265565b925050819055503460066000828254610bb39190613299565b9250508190555034600960003373ffffffffffffffffffffffffffffffffffffffff1673ffffffffffffffffffffffffffffffffffffffff1681526020019081526020016000206000828254610c099190613299565b9250508190555080600b60003373ffffffffffffffffffffffffffffffffffffffff1673ffffffffffffffffffffffffffffffffffffffff1681526020019081526020016000206000828254610c5f9190613299565b925050819055503373ffffffffffffffffffffffffffffffffffffffff167f8fafebcaf9d154343dad25669bfa277f4fbacd7ac6b0c4fed522580e040a0f338383604051610cae929190612d8a565b60405180910390a26000600c5403610d08576001600860006101000a81548160ff0219169083151502179055507ff33fd39ddc653e5f9033d50b852a4e85dc19ab2e3553927ce281aa99f9718c5d60405160405180910390a15b505050610d13612816565b565b600860019054906101000a900460ff1681565b60105481565b6305f5e10081565b6000624c4b406103e8670de0b6b3a764000084610d53919061307f565b610d5d919061307f565b610d6791906130f0565b9050919050565b600a6020528060005260406000206000915090505481565b640ba43b740081565b610d97612820565b6000600360009054906101000a900473ffffffffffffffffffffffffffffffffffffffff1673ffffffffffffffffffffffffffffffffffffffff166370a08231306040518263ffffffff1660e01b8152600401610df49190612c89565b602060405180830381865afa158015610e11573d6000803e3d6000fd5b505050506040513d601f19601f82011682018060405250810190610e3591906132e2565b905060008111610e7a576040517f08c379a0000000000000000000000000000000000000000000000000000000008152600401610e719061335b565b60405180910390fd5b610ee9600560009054906101000a900473ffffffffffffffffffffffffffffffffffffffff1682600360009054906101000a900473ffffffffffffffffffffffffffffffffffffffff1673ffffffffffffffffffffffffffffffffffffffff166128a79092919063ffffffff16565b600360009054906101000a900473ffffffffffffffffffffffffffffffffffffffff1673ffffffffffffffffffffffffffffffffffffffff167feaff4b37086828766ad3268786972c0cd24259d4c87a80f9d3963a3c3d999b0d82604051610f519190612b67565b60405180910390a250565b6000600b60008373ffffffffffffffffffffffffffffffffffffffff1673ffffffffffffffffffffffffffffffffffffffff168152602001908152602001600020549050919050565b610fad612820565b6000600d60006101000a81548160ff0219169083151502179055503373ffffffffffffffffffffffffffffffffffffffff167f5b65b0c1363b3003db9bcc5e1fd8805a6d6bf5bf6dc9d3431ee4494cd7d1176660405160405180910390a2565b600560009054906101000a900473ffffffffffffffffffffffffffffffffffffffff1681565b61103b612820565b6001600860006101000a81548160ff0219169083151502179055507ff33fd39ddc653e5f9033d50b852a4e85dc19ab2e3553927ce281aa99f9718c5d60405160405180910390a1565b7fff61491a931112ddf1bd8147cd1b641375f79f5825126d665480874634fd0ace60001b81565b600d60009054906101000a900460ff1681565b60008060105411611104576040517f08c379a00000000000000000000000000000000000000000000000000000000081526004016110fb906133c7565b60405180910390fd5b6078600f54426111149190613265565b1115611155576040517f08c379a000000000000000000000000000000000000000000000000000000000815260040161114c90613433565b60405180910390fd5b601054905090565b611165612820565b6000600e549050600081116111af576040517f08c379a00000000000000000000000000000000000000000000000000000000081526004016111a69061349f565b60405180910390fd5b6000600e8190555060006111c161170d565b73ffffffffffffffffffffffffffffffffffffffff16826040516111e4906134f0565b60006040518083038185875af1925050503d8060008114611221576040519150601f19603f3d011682016040523d82523d6000602084013e611226565b606091505b505090508061126a576040517f08c379a000000000000000000000000000000000000000000000000000000000815260040161126190613551565b60405180910390fd5b5050565b60075481565b61127c612820565b6112866000612926565b565b600f5481565b611296612820565b6001600d60006101000a81548160ff0219169083151502179055503373ffffffffffffffffffffffffffffffffffffffff167f81990fd9a5c552b8e3677917d8a03c07678f0d2cb68f88b634aca2022e9bd19f60405160405180910390a2565b6112fe612820565b600260009054906101000a900473ffffffffffffffffffffffffffffffffffffffff1673ffffffffffffffffffffffffffffffffffffffff168173ffffffffffffffffffffffffffffffffffffffff160361138e576040517f08c379a0000000000000000000000000000000000000000000000000000000008152600401611385906135bd565b60405180910390fd5b600860019054906101000a900460ff16156113de576040517f08c379a00000000000000000000000000000000000000000000000000000000081526004016113d59061364f565b60405180910390fd5b600081905060008173ffffffffffffffffffffffffffffffffffffffff166370a08231306040518263ffffffff1660e01b815260040161141e9190612c89565b602060405180830381865afa15801561143b573d6000803e3d6000fd5b505050506040513d601f19601f8201168201806040525081019061145f91906132e2565b9050600081116114a4576040517f08c379a000000000000000000000000000000000000000000000000000000000815260040161149b906136bb565b60405180910390fd5b6114f1600560009054906101000a900473ffffffffffffffffffffffffffffffffffffffff16828473ffffffffffffffffffffffffffffffffffffffff166128a79092919063ffffffff16565b8273ffffffffffffffffffffffffffffffffffffffff167feaff4b37086828766ad3268786972c0cd24259d4c87a80f9d3963a3c3d999b0d826040516115379190612b67565b60405180910390a2505050565b61154c6127d0565b600860009054906101000a900460ff1661159b576040517f08c379a000000000000000000000000000000000000000000000000000000000815260040161159290613727565b60405180910390fd5b6000600b60003373ffffffffffffffffffffffffffffffffffffffff1673ffffffffffffffffffffffffffffffffffffffff16815260200190815260200160002054905060008111611622576040517f08c379a0000000000000000000000000000000000000000000000000000000008152600401611619906136bb565b60405180910390fd5b6000600b60003373ffffffffffffffffffffffffffffffffffffffff1673ffffffffffffffffffffffffffffffffffffffff168152602001908152602001600020819055506116b43382600260009054906101000a900473ffffffffffffffffffffffffffffffffffffffff1673ffffffffffffffffffffffffffffffffffffffff166128a79092919063ffffffff16565b3373ffffffffffffffffffffffffffffffffffffffff167f6352c5382c4a4578e712449ca65e83cdb392d045dfcf1cad9615189db2da244b826040516116fa9190612b67565b60405180910390a25061170b612816565b565b6000600160009054906101000a900473ffffffffffffffffffffffffffffffffffffffff16905090565b600080600e541161177d576040517f08c379a0000000000000000000000000000000000000000000000000000000008152600401611774906137b9565b60405180910390fd5b6000600460009054906101000a900473ffffffffffffffffffffffffffffffffffffffff1673ffffffffffffffffffffffffffffffffffffffff1663d47eed4585856040518363ffffffff1660e01b81526004016117dc92919061395d565b602060405180830381865afa1580156117f9573d6000803e3d6000fd5b505050506040513d601f19601f8201168201806040525081019061181d91906132e2565b905080600e541015611864576040517f08c379a000000000000000000000000000000000000000000000000000000000815260040161185b906139cd565b60405180910390fd5b60006010549050600460009054906101000a900473ffffffffffffffffffffffffffffffffffffffff1673ffffffffffffffffffffffffffffffffffffffff1663ef9e5e288387876040518463ffffffff1660e01b81526004016118c992919061395d565b6000604051808303818588803b1580156118e257600080fd5b505af11580156118f6573d6000803e3d6000fd5b505050505081600e600082825461190d9190613265565b925050819055506000600460009054906101000a900473ffffffffffffffffffffffffffffffffffffffff1673ffffffffffffffffffffffffffffffffffffffff1663a4ae35e07fff61491a931112ddf1bd8147cd1b641375f79f5825126d665480874634fd0ace60001b60786040518363ffffffff1660e01b81526004016119979291906139ed565b608060405180830381865afa1580156119b4573d6000803e3d6000fd5b505050506040513d601f19601f820116820180604052508101906119d89190613bc0565b90506000816000015160070b13611a24576040517f08c379a0000000000000000000000000000000000000000000000000000000008152600401611a1b90613c5f565b60405180910390fd5b60648160000151611a359190613c7f565b67ffffffffffffffff16816020015167ffffffffffffffff161115611a8f576040517f08c379a0000000000000000000000000000000000000000000000000000000008152600401611a8690613d22565b60405180910390fd5b7ffffffffffffffffffffffffffffffffffffffffffffffffffffffffffffffff8816040015160030b14611af8576040517f08c379a0000000000000000000000000000000000000000000000000000000008152600401611aef90613d8e565b60405180910390fd5b60006064826000015167ffffffffffffffff16611b1591906130f0565b90508060108190555042600f819055507f15819dd2fd9f6418b142e798d08a18d0bf06ea368f4480b7b0d3f75bd966bc48838242604051611b5893929190613dae565b60405180910390a18094505050505092915050565b611b75612820565b34600e6000828254611b879190613299565b925050819055507fcfae18dc4518621ffdb2e3accce0d0f3fcc32f77cb50fc74a48a8abbd129bc0234600e54604051611bc1929190612d8a565b60405180910390a1565b600080600654600754915091509091565b600860009054906101000a900460ff1681565b611bf76127d0565b600d60009054906101000a900460ff1615611c47576040517f08c379a0000000000000000000000000000000000000000000000000000000008152600401611c3e90612ec6565b60405180910390fd5b600860019054906101000a900460ff1615611c97576040517f08c379a0000000000000000000000000000000000000000000000000000000008152600401611c8e90612f58565b60405180910390fd5b60008111611cda576040517f08c379a0000000000000000000000000000000000000000000000000000000008152600401611cd190613e31565b60405180910390fd5b600860009054906101000a900460ff1615611d2a576040517f08c379a0000000000000000000000000000000000000000000000000000000008152600401611d2190613030565b60405180910390fd5b6305f5e100811015611d71576040517f08c379a0000000000000000000000000000000000000000000000000000000008152600401611d689061316d565b60405180910390fd5b640ba43b7400811115611db9576040517f08c379a0000000000000000000000000000000000000000000000000000000008152600401611db0906131d9565b60405180910390fd5b6000611dc482610d36565b9050600c54811115611e0b576040517f08c379a0000000000000000000000000000000000000000000000000000000008152600401611e0290613245565b60405180910390fd5b611e5a333084600360009054906101000a900473ffffffffffffffffffffffffffffffffffffffff1673ffffffffffffffffffffffffffffffffffffffff166129ec909392919063ffffffff16565b80600c6000828254611e6c9190613265565b925050819055508160076000828254611e859190613299565b9250508190555081600a60003373ffffffffffffffffffffffffffffffffffffffff1673ffffffffffffffffffffffffffffffffffffffff1681526020019081526020016000206000828254611edb9190613299565b9250508190555080600b60003373ffffffffffffffffffffffffffffffffffffffff1673ffffffffffffffffffffffffffffffffffffffff1681526020019081526020016000206000828254611f319190613299565b925050819055503373ffffffffffffffffffffffffffffffffffffffff167f8fafebcaf9d154343dad25669bfa277f4fbacd7ac6b0c4fed522580e040a0f338383604051611f80929190612d8a565b60405180910390a26000600c5403611fda576001600860006101000a81548160ff0219169083151502179055507ff33fd39ddc653e5f9033d50b852a4e85dc19ab2e3553927ce281aa99f9718c5d60405160405180910390a15b50611fe3612816565b50565b611fee612820565b600073ffffffffffffffffffffffffffffffffffffffff168173ffffffffffffffffffffffffffffffffffffffff160361205d576040517f08c379a000000000000000000000000000000000000000000000000000000000815260040161205490613e9d565b60405180910390fd5b80600560006101000a81548173ffffffffffffffffffffffffffffffffffffffff021916908373ffffffffffffffffffffffffffffffffffffffff1602179055508073ffffffffffffffffffffffffffffffffffffffff167f97c79b3848e51f57983ac89e4403452655c8d83ceba8199011de63a74f60d1a760405160405180910390a250565b600360009054906101000a900473ffffffffffffffffffffffffffffffffffffffff1681565b600c5481565b600b6020528060005260406000206000915090505481565b612130612820565b6001600860016101000a81548160ff0219169083151502179055507f2064d51aa5a8bd67928c7675e267e05c67ad5adf7c9098d0a602d01f36fda9c560405160405180910390a1565b60065481565b6121876127d0565b600860019054906101000a900460ff166121d6576040517f08c379a00000000000000000000000000000000000000000000000000000000081526004016121cd90613f09565b60405180910390fd5b6000600960003373ffffffffffffffffffffffffffffffffffffffff1673ffffffffffffffffffffffffffffffffffffffff1681526020019081526020016000205490506000600a60003373ffffffffffffffffffffffffffffffffffffffff1673ffffffffffffffffffffffffffffffffffffffff1681526020019081526020016000205490506000600960003373ffffffffffffffffffffffffffffffffffffffff1673ffffffffffffffffffffffffffffffffffffffff168152602001908152602001600020819055506000600a60003373ffffffffffffffffffffffffffffffffffffffff1673ffffffffffffffffffffffffffffffffffffffff168152602001908152602001600020819055506000600b60003373ffffffffffffffffffffffffffffffffffffffff1673ffffffffffffffffffffffffffffffffffffffff1681526020019081526020016000208190555060008211156123e45760003373ffffffffffffffffffffffffffffffffffffffff168360405161235c906134f0565b60006040518083038185875af1925050503d8060008114612399576040519150601f19603f3d011682016040523d82523d6000602084013e61239e565b606091505b50509050806123e2576040517f08c379a00000000000000000000000000000000000000000000000000000000081526004016123d990613f75565b60405180910390fd5b505b600081111561243b5761243a3382600360009054906101000a900473ffffffffffffffffffffffffffffffffffffffff1673ffffffffffffffffffffffffffffffffffffffff166128a79092919063ffffffff16565b5b3373ffffffffffffffffffffffffffffffffffffffff167fbb757047c2b5f3974fe26b7c10f732e7bce710b0952a71082702781e62ae05958383604051612483929190612d8a565b60405180910390a25050612495612816565b565b61249f612820565b6000600e54476124af9190613265565b9050600081116124f4576040517f08c379a00000000000000000000000000000000000000000000000000000000081526004016124eb90613fe1565b60405180910390fd5b6000600560009054906101000a900473ffffffffffffffffffffffffffffffffffffffff1673ffffffffffffffffffffffffffffffffffffffff168260405161253c906134f0565b60006040518083038185875af1925050503d8060008114612579576040519150601f19603f3d011682016040523d82523d6000602084013e61257e565b606091505b50509050806125c2576040517f08c379a00000000000000000000000000000000000000000000000000000000081526004016125b990613f75565b60405180910390fd5b7f7909752b76037727fecfc6c1abb7264306fd284ff7be21e2aa09bf2fdc00579d826040516125f19190612b67565b60405180910390a15050565b600080600960008473ffffffffffffffffffffffffffffffffffffffff1673ffffffffffffffffffffffffffffffffffffffff16815260200190815260200160002054600a60008573ffffffffffffffffffffffffffffffffffffffff1673ffffffffffffffffffffffffffffffffffffffff1681526020019081526020016000205491509150915091565b600260009054906101000a900473ffffffffffffffffffffffffffffffffffffffff1681565b60096020528060005260406000206000915090505481565b607881565b6126d4612820565b6000600860016101000a81548160ff0219169083151502179055507f0ba07ae52ba5d382f0af001934b3681d1490b6116d058e1b4bc448b15152280e60405160405180910390a1565b612725612820565b600073ffffffffffffffffffffffffffffffffffffffff168173ffffffffffffffffffffffffffffffffffffffff16036127975760006040517f1e4fbdf700000000000000000000000000000000000000000000000000000000815260040161278e9190612c89565b60405180910390fd5b6127a081612926565b50565b624c4b4081565b600460009054906101000a900473ffffffffffffffffffffffffffffffffffffffff1681565b60026000540361280c576040517f3ee5aeb500000000000000000000000000000000000000000000000000000000815260040160405180910390fd5b6002600081905550565b6001600081905550565b612828612a6e565b73ffffffffffffffffffffffffffffffffffffffff1661284661170d565b73ffffffffffffffffffffffffffffffffffffffff16146128a557612869612a6e565b6040517f118cdaa700000000000000000000000000000000000000000000000000000000815260040161289c9190612c89565b60405180910390fd5b565b612921838473ffffffffffffffffffffffffffffffffffffffff1663a9059cbb85856040516024016128da929190614001565b604051602081830303815290604052915060e01b6020820180517bffffffffffffffffffffffffffffffffffffffffffffffffffffffff8381831617835250505050612a76565b505050565b6000600160009054906101000a900473ffffffffffffffffffffffffffffffffffffffff16905081600160006101000a81548173ffffffffffffffffffffffffffffffffffffffff021916908373ffffffffffffffffffffffffffffffffffffffff1602179055508173ffffffffffffffffffffffffffffffffffffffff168173ffffffffffffffffffffffffffffffffffffffff167f8be0079c531659141344cd1fd0a4f28419497f9722a3daafe3b4186f6b6457e060405160405180910390a35050565b612a68848573ffffffffffffffffffffffffffffffffffffffff166323b872dd868686604051602401612a219392919061402a565b604051602081830303815290604052915060e01b6020820180517bffffffffffffffffffffffffffffffffffffffffffffffffffffffff8381831617835250505050612a76565b50505050565b600033905090565b600080602060008451602086016000885af180612a99576040513d6000823e3d81fd5b3d925060005191505060008214612ab4576001811415612ad0565b60008473ffffffffffffffffffffffffffffffffffffffff163b145b15612b1257836040517f5274afe7000000000000000000000000000000000000000000000000000000008152600401612b099190612c89565b60405180910390fd5b50505050565b60008115159050919050565b612b2d81612b18565b82525050565b6000602082019050612b486000830184612b24565b92915050565b6000819050919050565b612b6181612b4e565b82525050565b6000602082019050612b7c6000830184612b58565b92915050565b6000604051905090565b600080fd5b600080fd5b612b9f81612b4e565b8114612baa57600080fd5b50565b600081359050612bbc81612b96565b92915050565b600060208284031215612bd857612bd7612b8c565b5b6000612be684828501612bad565b91505092915050565b600073ffffffffffffffffffffffffffffffffffffffff82169050919050565b6000612c1a82612bef565b9050919050565b612c2a81612c0f565b8114612c3557600080fd5b50565b600081359050612c4781612c21565b92915050565b600060208284031215612c6357612c62612b8c565b5b6000612c7184828501612c38565b91505092915050565b612c8381612c0f565b82525050565b6000602082019050612c9e6000830184612c7a565b92915050565b6000819050919050565b612cb781612ca4565b82525050565b6000602082019050612cd26000830184612cae565b92915050565b600080fd5b600080fd5b600080fd5b60008083601f840112612cfd57612cfc612cd8565b5b8235905067ffffffffffffffff811115612d1a57612d19612cdd565b5b602083019150836020820283011115612d3657612d35612ce2565b5b9250929050565b60008060208385031215612d5457612d53612b8c565b5b600083013567ffffffffffffffff811115612d7257612d71612b91565b5b612d7e85828601612ce7565b92509250509250929050565b6000604082019050612d9f6000830185612b58565b612dac6020830184612b58565b9392505050565b6000819050919050565b6000612dd8612dd3612dce84612bef565b612db3565b612bef565b9050919050565b6000612dea82612dbd565b9050919050565b6000612dfc82612ddf565b9050919050565b612e0c81612df1565b82525050565b6000602082019050612e276000830184612e03565b92915050565b6000612e3882612ddf565b9050919050565b612e4881612e2d565b82525050565b6000602082019050612e636000830184612e3f565b92915050565b600082825260208201905092915050565b7f436f6e7472616374206973207061757365640000000000000000000000000000600082015250565b6000612eb0601283612e69565b9150612ebb82612e7a565b602082019050919050565b60006020820190508181036000830152612edf81612ea3565b9050919050565b7f456d657267656e6379206d6f64653a207075726368617365732064697361626c60008201527f6564000000000000000000000000000000000000000000000000000000000000602082015250565b6000612f42602283612e69565b9150612f4d82612ee6565b604082019050919050565b60006020820190508181036000830152612f7181612f35565b9050919050565b7f4e6f204554482073656e74000000000000000000000000000000000000000000600082015250565b6000612fae600b83612e69565b9150612fb982612f78565b602082019050919050565b60006020820190508181036000830152612fdd81612fa1565b9050919050565b7f53616c652069732066696e697368656400000000000000000000000000000000600082015250565b600061301a601083612e69565b915061302582612fe4565b602082019050919050565b600060208201905081810360008301526130498161300d565b9050919050565b7f4e487b7100000000000000000000000000000000000000000000000000000000600052601160045260246000fd5b600061308a82612b4e565b915061309583612b4e565b92508282026130a381612b4e565b915082820484148315176130ba576130b9613050565b5b5092915050565b7f4e487b7100000000000000000000000000000000000000000000000000000000600052601260045260246000fd5b60006130fb82612b4e565b915061310683612b4e565b925082613116576131156130c1565b5b828204905092915050565b7f42656c6f77206d696e696d756d20707572636861736500000000000000000000600082015250565b6000613157601683612e69565b915061316282613121565b602082019050919050565b600060208201905081810360008301526131868161314a565b9050919050565b7f45786365656473206d6178696d756d2070757263686173650000000000000000600082015250565b60006131c3601883612e69565b91506131ce8261318d565b602082019050919050565b600060208201905081810360008301526131f2816131b6565b9050919050565b7f4e6f7420656e6f75676820746f6b656e732072656d61696e696e670000000000600082015250565b600061322f601b83612e69565b915061323a826131f9565b602082019050919050565b6000602082019050818103600083015261325e81613222565b9050919050565b600061327082612b4e565b915061327b83612b4e565b925082820390508181111561329357613292613050565b5b92915050565b60006132a482612b4e565b91506132af83612b4e565b92508282019050808211156132c7576132c6613050565b5b92915050565b6000815190506132dc81612b96565b92915050565b6000602082840312156132f8576132f7612b8c565b5b6000613306848285016132cd565b91505092915050565b7f4e6f205553445420746f20776974686472617700000000000000000000000000600082015250565b6000613345601383612e69565b91506133508261330f565b602082019050919050565b6000602082019050818103600083015261337481613338565b9050919050565b7f5072696365206e6f7420696e697469616c697a65640000000000000000000000600082015250565b60006133b1601583612e69565b91506133bc8261337b565b602082019050919050565b600060208201905081810360008301526133e0816133a4565b9050919050565b7f507269636520746f6f206f6c6400000000000000000000000000000000000000600082015250565b600061341d600d83612e69565b9150613428826133e7565b602082019050919050565b6000602082019050818103600083015261344c81613410565b9050919050565b7f4e6f2066756e647320746f207769746864726177000000000000000000000000600082015250565b6000613489601483612e69565b915061349482613453565b602082019050919050565b600060208201905081810360008301526134b88161347c565b9050919050565b600081905092915050565b50565b60006134da6000836134bf565b91506134e5826134ca565b600082019050919050565b60006134fb826134cd565b9150819050919050565b7f5472616e73666572206661696c65640000000000000000000000000000000000600082015250565b600061353b600f83612e69565b915061354682613505565b602082019050919050565b6000602082019050818103600083015261356a8161352e565b9050919050565b7f43616e6e6f742077697468647261772073616c6520746f6b656e730000000000600082015250565b60006135a7601b83612e69565b91506135b282613571565b602082019050919050565b600060208201905081810360008301526135d68161359a565b9050919050565b7f456d657267656e6379206d6f6465206163746976653a2075736520656d65726760008201527f656e637957697468647261770000000000000000000000000000000000000000602082015250565b6000613639602c83612e69565b9150613644826135dd565b604082019050919050565b600060208201905081810360008301526136688161362c565b9050919050565b7f4e6f20746f6b656e7320746f2077697468647261770000000000000000000000600082015250565b60006136a5601583612e69565b91506136b08261366f565b602082019050919050565b600060208201905081810360008301526136d481613698565b9050919050565b7f53616c65206e6f742066696e616c697a65642079657400000000000000000000600082015250565b6000613711601683612e69565b915061371c826136db565b602082019050919050565b6000602082019050818103600083015261374081613704565b9050919050565b7f436f6e7472616374206e656564732066756e647320666f72207072696365207560008201527f7064617465730000000000000000000000000000000000000000000000000000602082015250565b60006137a3602683612e69565b91506137ae82613747565b604082019050919050565b600060208201905081810360008301526137d281613796565b9050919050565b600082825260208201905092915050565b6000819050919050565b600082825260208201905092915050565b82818337600083830152505050565b6000601f19601f8301169050919050565b600061383183856137f4565b935061383e838584613805565b61384783613814565b840190509392505050565b600061385f848484613825565b90509392505050565b600080fd5b600080fd5b600080fd5b6000808335600160200384360303811261389457613893613872565b5b83810192508235915060208301925067ffffffffffffffff8211156138bc576138bb613868565b5b6001820236038313156138d2576138d161386d565b5b509250929050565b6000602082019050919050565b60006138f383856137d9565b935083602084028501613905846137ea565b8060005b8781101561394b5784840389526139208284613877565b61392b868284613852565b9550613936846138da565b935060208b019a505050600181019050613909565b50829750879450505050509392505050565b600060208201905081810360008301526139788184866138e7565b90509392505050565b7f496e73756666696369656e74207570646174652066756e647300000000000000600082015250565b60006139b7601983612e69565b91506139c282613981565b602082019050919050565b600060208201905081810360008301526139e6816139aa565b9050919050565b6000604082019050613a026000830185612cae565b613a0f6020830184612b58565b9392505050565b600080fd5b7f4e487b7100000000000000000000000000000000000000000000000000000000600052604160045260246000fd5b613a5382613814565b810181811067ffffffffffffffff82111715613a7257613a71613a1b565b5b80604052505050565b6000613a85612b82565b9050613a918282613a4a565b919050565b60008160070b9050919050565b613aac81613a96565b8114613ab757600080fd5b50565b600081519050613ac981613aa3565b92915050565b600067ffffffffffffffff82169050919050565b613aec81613acf565b8114613af757600080fd5b50565b600081519050613b0981613ae3565b92915050565b60008160030b9050919050565b613b2581613b0f565b8114613b3057600080fd5b50565b600081519050613b4281613b1c565b92915050565b600060808284031215613b5e57613b5d613a16565b5b613b686080613a7b565b90506000613b7884828501613aba565b6000830152506020613b8c84828501613afa565b6020830152506040613ba084828501613b33565b6040830152506060613bb4848285016132cd565b60608301525092915050565b600060808284031215613bd657613bd5612b8c565b5b6000613be484828501613b48565b91505092915050565b7f496e76616c696420707269636520666565643a206e65676174697665206f722060008201527f7a65726f2076616c756500000000000000000000000000000000000000000000602082015250565b6000613c49602a83612e69565b9150613c5482613bed565b604082019050919050565b60006020820190508181036000830152613c7881613c3c565b9050919050565b6000613c8a82613acf565b9150613c9583613acf565b925082613ca557613ca46130c1565b5b828204905092915050565b7f507269636520636f6e666964656e636520696e74657276616c20746f6f206c6160008201527f7267650000000000000000000000000000000000000000000000000000000000602082015250565b6000613d0c602383612e69565b9150613d1782613cb0565b604082019050919050565b60006020820190508181036000830152613d3b81613cff565b9050919050565b7f556e6578706563746564207072696365206665656420646563696d616c730000600082015250565b6000613d78601e83612e69565b9150613d8382613d42565b602082019050919050565b60006020820190508181036000830152613da781613d6b565b9050919050565b6000606082019050613dc36000830186612b58565b613dd06020830185612b58565b613ddd6040830184612b58565b949350505050565b7f4e6f20555344542073656e740000000000000000000000000000000000000000600082015250565b6000613e1b600c83612e69565b9150613e2682613de5565b602082019050919050565b60006020820190508181036000830152613e4a81613e0e565b9050919050565b7f496e76616c696420616464726573730000000000000000000000000000000000600082015250565b6000613e87600f83612e69565b9150613e9282613e51565b602082019050919050565b60006020820190508181036000830152613eb681613e7a565b9050919050565b7f456d657267656e6379206d6f6465206e6f742061637469766500000000000000600082015250565b6000613ef3601983612e69565b9150613efe82613ebd565b602082019050919050565b60006020820190508181036000830152613f2281613ee6565b9050919050565b7f4661696c656420746f2073656e64204554480000000000000000000000000000600082015250565b6000613f5f601283612e69565b9150613f6a82613f29565b602082019050919050565b60006020820190508181036000830152613f8e81613f52565b9050919050565b7f4e6f2045544820746f2077697468647261770000000000000000000000000000600082015250565b6000613fcb601283612e69565b9150613fd682613f95565b602082019050919050565b60006020820190508181036000830152613ffa81613fbe565b9050919050565b60006040820190506140166000830185612c7a565b6140236020830184612b58565b9392505050565b600060608201905061403f6000830186612c7a565b61404c6020830185612c7a565b6140596040830184612b58565b94935050505056fea2646970667358221220589c86cd9262aa88e113db1e0041dc0fdc68f40fdb0ce38eb7951313e3da0cac64736f6c634300081b0033",
  "linkReferences": {},
  "deployedLinkReferences": {}
}