{
  "_format": "hh-sol-artifact-1",
  "contractName": "TokenSaleWithPyth",
  "sourceName": "contracts/TokenSaleWithPyth.sol",
  "abi": [
    {
      "inputs": [
        {
          "internalType": "address",
          "name": "_mctToken",
          "type": "address"
        },
        {
          "internalType": "address",
          "name": "_usdtToken",
          "type": "address"
        },
        {
          "internalType": "address",
          "name": "_treasuryWallet",
          "type": "address"
        },
        {
          "internalType": "address",
          "name": "_pythAddress",
          "type": "address"
        }
      ],
      "stateMutability": "nonpayable",
      "type": "constructor"
    },
    {
      "inputs": [
        {
          "internalType": "address",
          "name": "owner",
          "type": "address"
        }
      ],
      "name": "OwnableInvalidOwner",
      "type": "error"
    },
    {
      "inputs": [
        {
          "internalType": "address",
          "name": "account",
          "type": "address"
        }
      ],
      "name": "OwnableUnauthorizedAccount",
      "type": "error"
    },
    {
      "inputs": [],
      "name": "ReentrancyGuardReentrantCall",
      "type": "error"
    },
    {
      "anonymous": false,
      "inputs": [],
      "name": "EmergencyModeDisabled",
      "type": "event"
    },
    {
      "anonymous": false,
      "inputs": [],
      "name": "EmergencyModeEnabled",
      "type": "event"
    },
    {
      "anonymous": false,
      "inputs": [
        {
          "indexed": true,
          "internalType": "address",
          "name": "user",
          "type": "address"
        },
        {
          "indexed": false,
          "internalType": "uint256",
          "name": "ethAmount",
          "type": "uint256"
        },
        {
          "indexed": false,
          "internalType": "uint256",
          "name": "usdtAmount",
          "type": "uint256"
        }
      ],
      "name": "EmergencyWithdraw",
      "type": "event"
    },
    {
      "anonymous": false,
      "inputs": [
        {
          "indexed": false,
          "internalType": "uint256",
          "name": "amount",
          "type": "uint256"
        }
      ],
      "name": "EthWithdrawn",
      "type": "event"
    },
    {
      "anonymous": false,
      "inputs": [
        {
          "indexed": true,
          "internalType": "address",
          "name": "token",
          "type": "address"
        },
        {
          "indexed": false,
          "internalType": "uint256",
          "name": "amount",
          "type": "uint256"
        }
      ],
      "name": "FundsWithdrawn",
      "type": "event"
    },
    {
      "anonymous": false,
      "inputs": [
        {
          "indexed": true,
          "internalType": "address",
          "name": "previousOwner",
          "type": "address"
        },
        {
          "indexed": true,
          "internalType": "address",
          "name": "newOwner",
          "type": "address"
        }
      ],
      "name": "OwnershipTransferred",
      "type": "event"
    },
    {
      "anonymous": false,
      "inputs": [],
      "name": "SaleFinalized",
      "type": "event"
    },
    {
      "anonymous": false,
      "inputs": [
        {
          "indexed": true,
          "internalType": "address",
          "name": "buyer",
          "type": "address"
        },
        {
          "indexed": false,
          "internalType": "uint256",
          "name": "amountUSD",
          "type": "uint256"
        },
        {
          "indexed": false,
          "internalType": "uint256",
          "name": "tokenAmount",
          "type": "uint256"
        }
      ],
      "name": "TokensPurchased",
      "type": "event"
    },
    {
      "anonymous": false,
      "inputs": [
        {
          "indexed": true,
          "internalType": "address",
          "name": "user",
          "type": "address"
        },
        {
          "indexed": false,
          "internalType": "uint256",
          "name": "amount",
          "type": "uint256"
        }
      ],
      "name": "TokensWithdrawn",
      "type": "event"
    },
    {
      "anonymous": false,
      "inputs": [
        {
          "indexed": true,
          "internalType": "address",
          "name": "newWallet",
          "type": "address"
        }
      ],
      "name": "TreasuryWalletUpdated",
      "type": "event"
    },
    {
      "inputs": [],
      "name": "ETH_USD_PRICE_ID",
      "outputs": [
        {
          "internalType": "bytes32",
          "name": "",
          "type": "bytes32"
        }
      ],
      "stateMutability": "view",
      "type": "function"
    },
    {
      "inputs": [],
      "name": "MAX_PURCHASE_USD",
      "outputs": [
        {
          "internalType": "uint256",
          "name": "",
          "type": "uint256"
        }
      ],
      "stateMutability": "view",
      "type": "function"
    },
    {
      "inputs": [],
      "name": "MIN_PURCHASE_USD",
      "outputs": [
        {
          "internalType": "uint256",
          "name": "",
          "type": "uint256"
        }
      ],
      "stateMutability": "view",
      "type": "function"
    },
    {
      "inputs": [],
      "name": "TOKEN_PRICE_USD",
      "outputs": [
        {
          "internalType": "uint256",
          "name": "",
          "type": "uint256"
        }
      ],
      "stateMutability": "view",
      "type": "function"
    },
    {
      "inputs": [],
      "name": "buyWithETH",
      "outputs": [],
      "stateMutability": "payable",
      "type": "function"
    },
    {
      "inputs": [
        {
          "internalType": "uint256",
          "name": "amount",
          "type": "uint256"
        }
      ],
      "name": "buyWithUSDT",
      "outputs": [],
      "stateMutability": "nonpayable",
      "type": "function"
    },
    {
      "inputs": [
        {
          "internalType": "uint256",
          "name": "usdAmount",
          "type": "uint256"
        }
      ],
      "name": "calculateTokensForUsd",
      "outputs": [
        {
          "internalType": "uint256",
          "name": "",
          "type": "uint256"
        }
      ],
      "stateMutability": "pure",
      "type": "function"
    },
    {
      "inputs": [],
      "name": "disableEmergencyMode",
      "outputs": [],
      "stateMutability": "nonpayable",
      "type": "function"
    },
    {
      "inputs": [],
      "name": "emergencyMode",
      "outputs": [
        {
          "internalType": "bool",
          "name": "",
          "type": "bool"
        }
      ],
      "stateMutability": "view",
      "type": "function"
    },
    {
      "inputs": [],
      "name": "emergencyWithdraw",
      "outputs": [],
      "stateMutability": "nonpayable",
      "type": "function"
    },
    {
      "inputs": [],
      "name": "enableEmergencyMode",
      "outputs": [],
      "stateMutability": "nonpayable",
      "type": "function"
    },
    {
      "inputs": [
        {
          "internalType": "address",
          "name": "",
          "type": "address"
        }
      ],
      "name": "ethContributions",
      "outputs": [
        {
          "internalType": "uint256",
          "name": "",
          "type": "uint256"
        }
      ],
      "stateMutability": "view",
      "type": "function"
    },
    {
      "inputs": [],
      "name": "finalizeSale",
      "outputs": [],
      "stateMutability": "nonpayable",
      "type": "function"
    },
    {
      "inputs": [],
      "name": "getEthPrice",
      "outputs": [
        {
          "internalType": "uint256",
          "name": "",
          "type": "uint256"
        }
      ],
      "stateMutability": "view",
      "type": "function"
    },
    {
      "inputs": [
        {
          "internalType": "address",
          "name": "user",
          "type": "address"
        }
      ],
      "name": "getTokenBalance",
      "outputs": [
        {
          "internalType": "uint256",
          "name": "",
          "type": "uint256"
        }
      ],
      "stateMutability": "view",
      "type": "function"
    },
    {
      "inputs": [],
      "name": "getTotalRaised",
      "outputs": [
        {
          "internalType": "uint256",
          "name": "eth",
          "type": "uint256"
        },
        {
          "internalType": "uint256",
          "name": "usdt",
          "type": "uint256"
        }
      ],
      "stateMutability": "view",
      "type": "function"
    },
    {
      "inputs": [
        {
          "internalType": "address",
          "name": "user",
          "type": "address"
        }
      ],
      "name": "getUserContributions",
      "outputs": [
        {
          "internalType": "uint256",
          "name": "eth",
          "type": "uint256"
        },
        {
          "internalType": "uint256",
          "name": "usdt",
          "type": "uint256"
        }
      ],
      "stateMutability": "view",
      "type": "function"
    },
    {
      "inputs": [],
      "name": "mctToken",
      "outputs": [
        {
          "internalType": "contract IERC20",
          "name": "",
          "type": "address"
        }
      ],
      "stateMutability": "view",
      "type": "function"
    },
    {
      "inputs": [],
      "name": "owner",
      "outputs": [
        {
          "internalType": "address",
          "name": "",
          "type": "address"
        }
      ],
      "stateMutability": "view",
      "type": "function"
    },
    {
      "inputs": [],
      "name": "pause",
      "outputs": [],
      "stateMutability": "nonpayable",
      "type": "function"
    },
    {
      "inputs": [],
      "name": "paused",
      "outputs": [
        {
          "internalType": "bool",
          "name": "",
          "type": "bool"
        }
      ],
      "stateMutability": "view",
      "type": "function"
    },
    {
      "inputs": [
        {
          "internalType": "address",
          "name": "",
          "type": "address"
        }
      ],
      "name": "pendingTokens",
      "outputs": [
        {
          "internalType": "uint256",
          "name": "",
          "type": "uint256"
        }
      ],
      "stateMutability": "view",
      "type": "function"
    },
    {
      "inputs": [],
      "name": "pyth",
      "outputs": [
        {
          "internalType": "contract IPyth",
          "name": "",
          "type": "address"
        }
      ],
      "stateMutability": "view",
      "type": "function"
    },
    {
      "inputs": [],
      "name": "remainingTokens",
      "outputs": [
        {
          "internalType": "uint256",
          "name": "",
          "type": "uint256"
        }
      ],
      "stateMutability": "view",
      "type": "function"
    },
    {
      "inputs": [],
      "name": "renounceOwnership",
      "outputs": [],
      "stateMutability": "nonpayable",
      "type": "function"
    },
    {
      "inputs": [],
      "name": "saleFinalized",
      "outputs": [
        {
          "internalType": "bool",
          "name": "",
          "type": "bool"
        }
      ],
      "stateMutability": "view",
      "type": "function"
    },
    {
      "inputs": [
        {
          "internalType": "address",
          "name": "_newWallet",
          "type": "address"
        }
      ],
      "name": "setTreasuryWallet",
      "outputs": [],
      "stateMutability": "nonpayable",
      "type": "function"
    },
    {
      "inputs": [],
      "name": "totalEthRaised",
      "outputs": [
        {
          "internalType": "uint256",
          "name": "",
          "type": "uint256"
        }
      ],
      "stateMutability": "view",
      "type": "function"
    },
    {
      "inputs": [],
      "name": "totalUsdtRaised",
      "outputs": [
        {
          "internalType": "uint256",
          "name": "",
          "type": "uint256"
        }
      ],
      "stateMutability": "view",
      "type": "function"
    },
    {
      "inputs": [
        {
          "internalType": "address",
          "name": "newOwner",
          "type": "address"
        }
      ],
      "name": "transferOwnership",
      "outputs": [],
      "stateMutability": "nonpayable",
      "type": "function"
    },
    {
      "inputs": [],
      "name": "treasuryWallet",
      "outputs": [
        {
          "internalType": "address",
          "name": "",
          "type": "address"
        }
      ],
      "stateMutability": "view",
      "type": "function"
    },
    {
      "inputs": [],
      "name": "unpause",
      "outputs": [],
      "stateMutability": "nonpayable",
      "type": "function"
    },
    {
      "inputs": [
        {
          "internalType": "address",
          "name": "",
          "type": "address"
        }
      ],
      "name": "usdtContributions",
      "outputs": [
        {
          "internalType": "uint256",
          "name": "",
          "type": "uint256"
        }
      ],
      "stateMutability": "view",
      "type": "function"
    },
    {
      "inputs": [],
      "name": "usdtToken",
      "outputs": [
        {
          "internalType": "contract IERC20",
          "name": "",
          "type": "address"
        }
      ],
      "stateMutability": "view",
      "type": "function"
    },
    {
      "inputs": [],
      "name": "withdrawETH",
      "outputs": [],
      "stateMutability": "nonpayable",
      "type": "function"
    },
    {
      "inputs": [
        {
          "internalType": "address",
          "name": "token",
          "type": "address"
        }
      ],
      "name": "withdrawToken",
      "outputs": [],
      "stateMutability": "nonpayable",
      "type": "function"
    },
    {
      "inputs": [],
      "name": "withdrawTokens",
      "outputs": [],
      "stateMutability": "nonpayable",
      "type": "function"
    },
    {
      "inputs": [],
      "name": "withdrawUSDT",
      "outputs": [],
      "stateMutability": "nonpayable",
      "type": "function"
    },
    {
      "stateMutability": "payable",
      "type": "receive"
    }
  ],
  "bytecode": "0x60806040526000600860006101000a81548160ff02191690831515021790555034801561002b57600080fd5b50604051613c8f380380613c8f833981810160405281019061004d919061056c565b336001600081905550600073ffffffffffffffffffffffffffffffffffffffff168173ffffffffffffffffffffffffffffffffffffffff16036100c85760006040517f1e4fbdf70000000000000000000000000000000000000000000000000000000081526004016100bf91906105e2565b60405180910390fd5b6100d78161044360201b60201c565b50600073ffffffffffffffffffffffffffffffffffffffff168473ffffffffffffffffffffffffffffffffffffffff1603610147576040517f08c379a000000000000000000000000000000000000000000000000000000000815260040161013e9061065a565b60405180910390fd5b600073ffffffffffffffffffffffffffffffffffffffff168373ffffffffffffffffffffffffffffffffffffffff16036101b6576040517f08c379a00000000000000000000000000000000000000000000000000000000081526004016101ad906106c6565b60405180910390fd5b600073ffffffffffffffffffffffffffffffffffffffff168273ffffffffffffffffffffffffffffffffffffffff1603610225576040517f08c379a000000000000000000000000000000000000000000000000000000000815260040161021c90610732565b60405180910390fd5b600073ffffffffffffffffffffffffffffffffffffffff168173ffffffffffffffffffffffffffffffffffffffff1603610294576040517f08c379a000000000000000000000000000000000000000000000000000000000815260040161028b9061079e565b60405180910390fd5b83600260006101000a81548173ffffffffffffffffffffffffffffffffffffffff021916908373ffffffffffffffffffffffffffffffffffffffff16021790555082600360006101000a81548173ffffffffffffffffffffffffffffffffffffffff021916908373ffffffffffffffffffffffffffffffffffffffff16021790555081600560006101000a81548173ffffffffffffffffffffffffffffffffffffffff021916908373ffffffffffffffffffffffffffffffffffffffff16021790555080600460006101000a81548173ffffffffffffffffffffffffffffffffffffffff021916908373ffffffffffffffffffffffffffffffffffffffff160217905550600260009054906101000a900473ffffffffffffffffffffffffffffffffffffffff1673ffffffffffffffffffffffffffffffffffffffff166370a08231306040518263ffffffff1660e01b81526004016103f391906105e2565b602060405180830381865afa158015610410573d6000803e3d6000fd5b505050506040513d601f19601f8201168201806040525081019061043491906107f4565b600c8190555050505050610821565b6000600160009054906101000a900473ffffffffffffffffffffffffffffffffffffffff16905081600160006101000a81548173ffffffffffffffffffffffffffffffffffffffff021916908373ffffffffffffffffffffffffffffffffffffffff1602179055508173ffffffffffffffffffffffffffffffffffffffff168173ffffffffffffffffffffffffffffffffffffffff167f8be0079c531659141344cd1fd0a4f28419497f9722a3daafe3b4186f6b6457e060405160405180910390a35050565b600080fd5b600073ffffffffffffffffffffffffffffffffffffffff82169050919050565b60006105398261050e565b9050919050565b6105498161052e565b811461055457600080fd5b50565b60008151905061056681610540565b92915050565b6000806000806080858703121561058657610585610509565b5b600061059487828801610557565b94505060206105a587828801610557565b93505060406105b687828801610557565b92505060606105c787828801610557565b91505092959194509250565b6105dc8161052e565b82525050565b60006020820190506105f760008301846105d3565b92915050565b600082825260208201905092915050565b7f4d43543a207a65726f2061646472657373000000000000000000000000000000600082015250565b60006106446011836105fd565b915061064f8261060e565b602082019050919050565b6000602082019050818103600083015261067381610637565b9050919050565b7f555344543a207a65726f20616464726573730000000000000000000000000000600082015250565b60006106b06012836105fd565b91506106bb8261067a565b602082019050919050565b600060208201905081810360008301526106df816106a3565b9050919050565b7f54726561737572793a207a65726f206164647265737300000000000000000000600082015250565b600061071c6016836105fd565b9150610727826106e6565b602082019050919050565b6000602082019050818103600083015261074b8161070f565b9050919050565b7f507974683a207a65726f20616464726573730000000000000000000000000000600082015250565b60006107886012836105fd565b915061079382610752565b602082019050919050565b600060208201905081810360008301526107b78161077b565b9050919050565b6000819050919050565b6107d1816107be565b81146107dc57600080fd5b50565b6000815190506107ee816107c8565b92915050565b60006020828403121561080a57610809610509565b5b6000610818848285016107df565b91505092915050565b61345f806108306000396000f3fe6080604052600436106102295760003560e01c80638da5cb5b11610123578063c9e904be116100ab578063e730395a1161006f578063e730395a14610741578063ef9525681461077e578063f2fde38b14610795578063f7a182f5146107be578063f98d06f0146107e957610230565b8063c9e904be1461067f578063db2e21bc146106aa578063e086e5ec146106c1578063e36465a3146106d8578063e6672fe71461071657610230565b8063a8602fea116100f2578063a8602fea146105ac578063a98ad46c146105d5578063bf58390314610600578063c031a66f1461062b578063c5b1c7d01461066857610230565b80638da5cb5b146105015780639f5502931461052c578063a5f0dea214610558578063a7c601601461058357610230565b80634626402b116101b15780636ea33e4e116101755780636ea33e4e14610468578063715018a6146104935780638456cb59146104aa57806389476069146104c15780638d8f2adb146104ea57610230565b80634626402b146103a557806358a687ec146103d05780635bbf7491146103e75780635c975abb1461041257806367c9b0171461043d57610230565b80632b2da7c8116101f85780632b2da7c8146102d25780632de8f4501461030f578063362e496b1461033a5780633aecd0e3146103515780633f4ba83a1461038e57610230565b80630905f56014610235578063150d283d146102605780631aae84911461026a5780631d634fb21461029557610230565b3661023057005b600080fd5b34801561024157600080fd5b5061024a610814565b6040516102579190612531565b60405180910390f35b610268610827565b005b34801561027657600080fd5b5061027f610bff565b60405161028c9190612565565b60405180910390f35b3480156102a157600080fd5b506102bc60048036038101906102b791906125bb565b610c07565b6040516102c99190612565565b60405180910390f35b3480156102de57600080fd5b506102f960048036038101906102f49190612646565b610c3f565b6040516103069190612565565b60405180910390f35b34801561031b57600080fd5b50610324610c57565b6040516103319190612565565b60405180910390f35b34801561034657600080fd5b5061034f610c60565b005b34801561035d57600080fd5b5061037860048036038101906103739190612646565b610ebf565b6040516103859190612565565b60405180910390f35b34801561039a57600080fd5b506103a3610f08565b005b3480156103b157600080fd5b506103ba610f2d565b6040516103c79190612682565b60405180910390f35b3480156103dc57600080fd5b506103e5610f53565b005b3480156103f357600080fd5b506103fc610fa4565b60405161040991906126b6565b60405180910390f35b34801561041e57600080fd5b50610427610fcb565b6040516104349190612531565b60405180910390f35b34801561044957600080fd5b50610452610fde565b60405161045f9190612565565b60405180910390f35b34801561047457600080fd5b5061047d6110eb565b60405161048a9190612565565b60405180910390f35b34801561049f57600080fd5b506104a86110f1565b005b3480156104b657600080fd5b506104bf611105565b005b3480156104cd57600080fd5b506104e860048036038101906104e39190612646565b61112a565b005b3480156104f657600080fd5b506104ff6113ba565b005b34801561050d57600080fd5b50610516611615565b6040516105239190612682565b60405180910390f35b34801561053857600080fd5b5061054161163f565b60405161054f9291906126d1565b60405180910390f35b34801561056457600080fd5b5061056d611650565b60405161057a9190612531565b60405180910390f35b34801561058f57600080fd5b506105aa60048036038101906105a591906125bb565b611663565b005b3480156105b857600080fd5b506105d360048036038101906105ce9190612646565b611aec565b005b3480156105e157600080fd5b506105ea611bea565b6040516105f79190612759565b60405180910390f35b34801561060c57600080fd5b50610615611c10565b6040516106229190612565565b60405180910390f35b34801561063757600080fd5b50610652600480360381019061064d9190612646565b611c16565b60405161065f9190612565565b60405180910390f35b34801561067457600080fd5b5061067d611c2e565b005b34801561068b57600080fd5b50610694611c9a565b6040516106a19190612565565b60405180910390f35b3480156106b657600080fd5b506106bf611ca0565b005b3480156106cd57600080fd5b506106d661204a565b005b3480156106e457600080fd5b506106ff60048036038101906106fa9190612646565b6121a3565b60405161070d9291906126d1565b60405180910390f35b34801561072257600080fd5b5061072b61222f565b6040516107389190612759565b60405180910390f35b34801561074d57600080fd5b5061076860048036038101906107639190612646565b612255565b6040516107759190612565565b60405180910390f35b34801561078a57600080fd5b5061079361226d565b005b3480156107a157600080fd5b506107bc60048036038101906107b79190612646565b6122be565b005b3480156107ca57600080fd5b506107d3612344565b6040516107e09190612565565b60405180910390f35b3480156107f557600080fd5b506107fe61234b565b60405161080b9190612795565b60405180910390f35b600860019054906101000a900460ff1681565b61082f612371565b600d60009054906101000a900460ff161561087f576040517f08c379a00000000000000000000000000000000000000000000000000000000081526004016108769061280d565b60405180910390fd5b600860019054906101000a900460ff16156108cf576040517f08c379a00000000000000000000000000000000000000000000000000000000081526004016108c69061289f565b60405180910390fd5b60003411610912576040517f08c379a00000000000000000000000000000000000000000000000000000000081526004016109099061290b565b60405180910390fd5b600860009054906101000a900460ff1615610962576040517f08c379a000000000000000000000000000000000000000000000000000000000815260040161095990612977565b60405180910390fd5b600061096c610fde565b90506000670de0b6b3a7640000823461098591906129c6565b61098f9190612a37565b90506305f5e1008110156109d8576040517f08c379a00000000000000000000000000000000000000000000000000000000081526004016109cf90612ab4565b60405180910390fd5b640ba43b7400811115610a20576040517f08c379a0000000000000000000000000000000000000000000000000000000008152600401610a1790612b20565b60405180910390fd5b6000610a2b82610c07565b9050600c54811115610a72576040517f08c379a0000000000000000000000000000000000000000000000000000000008152600401610a6990612b8c565b60405180910390fd5b80600c6000828254610a849190612bac565b925050819055503460066000828254610a9d9190612be0565b9250508190555034600960003373ffffffffffffffffffffffffffffffffffffffff1673ffffffffffffffffffffffffffffffffffffffff1681526020019081526020016000206000828254610af39190612be0565b9250508190555080600b60003373ffffffffffffffffffffffffffffffffffffffff1673ffffffffffffffffffffffffffffffffffffffff1681526020019081526020016000206000828254610b499190612be0565b925050819055503373ffffffffffffffffffffffffffffffffffffffff167f8fafebcaf9d154343dad25669bfa277f4fbacd7ac6b0c4fed522580e040a0f338383604051610b989291906126d1565b60405180910390a26000600c5403610bf2576001600860006101000a81548160ff0219169083151502179055507ff33fd39ddc653e5f9033d50b852a4e85dc19ab2e3553927ce281aa99f9718c5d60405160405180910390a15b505050610bfd6123b7565b565b6305f5e10081565b6000624c4b406103e8670de0b6b3a764000084610c2491906129c6565b610c2e91906129c6565b610c389190612a37565b9050919050565b600a6020528060005260406000206000915090505481565b640ba43b740081565b610c686123c1565b6000600360009054906101000a900473ffffffffffffffffffffffffffffffffffffffff1673ffffffffffffffffffffffffffffffffffffffff166370a08231306040518263ffffffff1660e01b8152600401610cc59190612682565b602060405180830381865afa158015610ce2573d6000803e3d6000fd5b505050506040513d601f19601f82011682018060405250810190610d069190612c29565b905060008111610d4b576040517f08c379a0000000000000000000000000000000000000000000000000000000008152600401610d4290612ca2565b60405180910390fd5b600360009054906101000a900473ffffffffffffffffffffffffffffffffffffffff1673ffffffffffffffffffffffffffffffffffffffff1663a9059cbb600560009054906101000a900473ffffffffffffffffffffffffffffffffffffffff16836040518363ffffffff1660e01b8152600401610dca929190612cc2565b6020604051808303816000875af1158015610de9573d6000803e3d6000fd5b505050506040513d601f19601f82011682018060405250810190610e0d9190612d17565b610e4c576040517f08c379a0000000000000000000000000000000000000000000000000000000008152600401610e4390612d90565b60405180910390fd5b600360009054906101000a900473ffffffffffffffffffffffffffffffffffffffff1673ffffffffffffffffffffffffffffffffffffffff167feaff4b37086828766ad3268786972c0cd24259d4c87a80f9d3963a3c3d999b0d82604051610eb49190612565565b60405180910390a250565b6000600b60008373ffffffffffffffffffffffffffffffffffffffff1673ffffffffffffffffffffffffffffffffffffffff168152602001908152602001600020549050919050565b610f106123c1565b6000600d60006101000a81548160ff021916908315150217905550565b600560009054906101000a900473ffffffffffffffffffffffffffffffffffffffff1681565b610f5b6123c1565b6001600860006101000a81548160ff0219169083151502179055507ff33fd39ddc653e5f9033d50b852a4e85dc19ab2e3553927ce281aa99f9718c5d60405160405180910390a1565b7fff61491a931112ddf1bd8147cd1b641375f79f5825126d665480874634fd0ace60001b81565b600d60009054906101000a900460ff1681565b600080600460009054906101000a900473ffffffffffffffffffffffffffffffffffffffff1673ffffffffffffffffffffffffffffffffffffffff166396834ad37fff61491a931112ddf1bd8147cd1b641375f79f5825126d665480874634fd0ace60001b6040518263ffffffff1660e01b815260040161105f91906126b6565b608060405180830381865afa15801561107c573d6000803e3d6000fd5b505050506040513d601f19601f820116820180604052508101906110a09190612f6b565b9050600080826000015160070b126110bc5781600001516110cb565b81600001516110ca90612f98565b5b905060648167ffffffffffffffff166110e49190612a37565b9250505090565b60075481565b6110f96123c1565b6111036000612448565b565b61110d6123c1565b6001600d60006101000a81548160ff021916908315150217905550565b6111326123c1565b600260009054906101000a900473ffffffffffffffffffffffffffffffffffffffff1673ffffffffffffffffffffffffffffffffffffffff168173ffffffffffffffffffffffffffffffffffffffff16036111c2576040517f08c379a00000000000000000000000000000000000000000000000000000000081526004016111b99061302c565b60405180910390fd5b600081905060008173ffffffffffffffffffffffffffffffffffffffff166370a08231306040518263ffffffff1660e01b81526004016112029190612682565b602060405180830381865afa15801561121f573d6000803e3d6000fd5b505050506040513d601f19601f820116820180604052508101906112439190612c29565b905060008111611288576040517f08c379a000000000000000000000000000000000000000000000000000000000815260040161127f90613098565b60405180910390fd5b8173ffffffffffffffffffffffffffffffffffffffff1663a9059cbb600560009054906101000a900473ffffffffffffffffffffffffffffffffffffffff16836040518363ffffffff1660e01b81526004016112e5929190612cc2565b6020604051808303816000875af1158015611304573d6000803e3d6000fd5b505050506040513d601f19601f820116820180604052508101906113289190612d17565b611367576040517f08c379a000000000000000000000000000000000000000000000000000000000815260040161135e90613104565b60405180910390fd5b8273ffffffffffffffffffffffffffffffffffffffff167feaff4b37086828766ad3268786972c0cd24259d4c87a80f9d3963a3c3d999b0d826040516113ad9190612565565b60405180910390a2505050565b6113c2612371565b600860009054906101000a900460ff16611411576040517f08c379a000000000000000000000000000000000000000000000000000000000815260040161140890613170565b60405180910390fd5b6000600b60003373ffffffffffffffffffffffffffffffffffffffff1673ffffffffffffffffffffffffffffffffffffffff16815260200190815260200160002054905060008111611498576040517f08c379a000000000000000000000000000000000000000000000000000000000815260040161148f90613098565b60405180910390fd5b6000600b60003373ffffffffffffffffffffffffffffffffffffffff1673ffffffffffffffffffffffffffffffffffffffff16815260200190815260200160002081905550600260009054906101000a900473ffffffffffffffffffffffffffffffffffffffff1673ffffffffffffffffffffffffffffffffffffffff1663a9059cbb33836040518363ffffffff1660e01b815260040161153a929190612cc2565b6020604051808303816000875af1158015611559573d6000803e3d6000fd5b505050506040513d601f19601f8201168201806040525081019061157d9190612d17565b6115bc576040517f08c379a00000000000000000000000000000000000000000000000000000000081526004016115b390613104565b60405180910390fd5b3373ffffffffffffffffffffffffffffffffffffffff167f6352c5382c4a4578e712449ca65e83cdb392d045dfcf1cad9615189db2da244b826040516116029190612565565b60405180910390a2506116136123b7565b565b6000600160009054906101000a900473ffffffffffffffffffffffffffffffffffffffff16905090565b600080600654600754915091509091565b600860009054906101000a900460ff1681565b61166b612371565b600d60009054906101000a900460ff16156116bb576040517f08c379a00000000000000000000000000000000000000000000000000000000081526004016116b29061280d565b60405180910390fd5b600860019054906101000a900460ff161561170b576040517f08c379a00000000000000000000000000000000000000000000000000000000081526004016117029061289f565b60405180910390fd5b6000811161174e576040517f08c379a0000000000000000000000000000000000000000000000000000000008152600401611745906131dc565b60405180910390fd5b600860009054906101000a900460ff161561179e576040517f08c379a000000000000000000000000000000000000000000000000000000000815260040161179590612977565b60405180910390fd5b6305f5e1008110156117e5576040517f08c379a00000000000000000000000000000000000000000000000000000000081526004016117dc90612ab4565b60405180910390fd5b640ba43b740081111561182d576040517f08c379a000000000000000000000000000000000000000000000000000000000815260040161182490612b20565b60405180910390fd5b600061183882610c07565b9050600c5481111561187f576040517f08c379a000000000000000000000000000000000000000000000000000000000815260040161187690612b8c565b60405180910390fd5b600360009054906101000a900473ffffffffffffffffffffffffffffffffffffffff1673ffffffffffffffffffffffffffffffffffffffff166323b872dd3330856040518463ffffffff1660e01b81526004016118de939291906131fc565b6020604051808303816000875af11580156118fd573d6000803e3d6000fd5b505050506040513d601f19601f820116820180604052508101906119219190612d17565b611960576040517f08c379a000000000000000000000000000000000000000000000000000000000815260040161195790612d90565b60405180910390fd5b80600c60008282546119729190612bac565b92505081905550816007600082825461198b9190612be0565b9250508190555081600a60003373ffffffffffffffffffffffffffffffffffffffff1673ffffffffffffffffffffffffffffffffffffffff16815260200190815260200160002060008282546119e19190612be0565b9250508190555080600b60003373ffffffffffffffffffffffffffffffffffffffff1673ffffffffffffffffffffffffffffffffffffffff1681526020019081526020016000206000828254611a379190612be0565b925050819055503373ffffffffffffffffffffffffffffffffffffffff167f8fafebcaf9d154343dad25669bfa277f4fbacd7ac6b0c4fed522580e040a0f338383604051611a869291906126d1565b60405180910390a26000600c5403611ae0576001600860006101000a81548160ff0219169083151502179055507ff33fd39ddc653e5f9033d50b852a4e85dc19ab2e3553927ce281aa99f9718c5d60405160405180910390a15b50611ae96123b7565b50565b611af46123c1565b600073ffffffffffffffffffffffffffffffffffffffff168173ffffffffffffffffffffffffffffffffffffffff1603611b63576040517f08c379a0000000000000000000000000000000000000000000000000000000008152600401611b5a9061327f565b60405180910390fd5b80600560006101000a81548173ffffffffffffffffffffffffffffffffffffffff021916908373ffffffffffffffffffffffffffffffffffffffff1602179055508073ffffffffffffffffffffffffffffffffffffffff167f97c79b3848e51f57983ac89e4403452655c8d83ceba8199011de63a74f60d1a760405160405180910390a250565b600360009054906101000a900473ffffffffffffffffffffffffffffffffffffffff1681565b600c5481565b600b6020528060005260406000206000915090505481565b611c366123c1565b6001600860016101000a81548160ff0219169083151502179055506001600860006101000a81548160ff0219169083151502179055507f2064d51aa5a8bd67928c7675e267e05c67ad5adf7c9098d0a602d01f36fda9c560405160405180910390a1565b60065481565b611ca8612371565b600860019054906101000a900460ff16611cf7576040517f08c379a0000000000000000000000000000000000000000000000000000000008152600401611cee906132eb565b60405180910390fd5b6000600960003373ffffffffffffffffffffffffffffffffffffffff1673ffffffffffffffffffffffffffffffffffffffff1681526020019081526020016000205490506000811115611e37576000600960003373ffffffffffffffffffffffffffffffffffffffff1673ffffffffffffffffffffffffffffffffffffffff1681526020019081526020016000208190555060003373ffffffffffffffffffffffffffffffffffffffff1682604051611daf9061333c565b60006040518083038185875af1925050503d8060008114611dec576040519150601f19603f3d011682016040523d82523d6000602084013e611df1565b606091505b5050905080611e35576040517f08c379a0000000000000000000000000000000000000000000000000000000008152600401611e2c9061339d565b60405180910390fd5b505b6000600a60003373ffffffffffffffffffffffffffffffffffffffff1673ffffffffffffffffffffffffffffffffffffffff1681526020019081526020016000205490506000811115611fa9576000600a60003373ffffffffffffffffffffffffffffffffffffffff1673ffffffffffffffffffffffffffffffffffffffff16815260200190815260200160002081905550600360009054906101000a900473ffffffffffffffffffffffffffffffffffffffff1673ffffffffffffffffffffffffffffffffffffffff1663a9059cbb33836040518363ffffffff1660e01b8152600401611f26929190612cc2565b6020604051808303816000875af1158015611f45573d6000803e3d6000fd5b505050506040513d601f19601f82011682018060405250810190611f699190612d17565b611fa8576040517f08c379a0000000000000000000000000000000000000000000000000000000008152600401611f9f90612d90565b60405180910390fd5b5b6000600b60003373ffffffffffffffffffffffffffffffffffffffff1673ffffffffffffffffffffffffffffffffffffffff168152602001908152602001600020819055503373ffffffffffffffffffffffffffffffffffffffff167fbb757047c2b5f3974fe26b7c10f732e7bce710b0952a71082702781e62ae059583836040516120369291906126d1565b60405180910390a250506120486123b7565b565b6120526123c1565b60004790506000811161209a576040517f08c379a000000000000000000000000000000000000000000000000000000000815260040161209190613409565b60405180910390fd5b6000600560009054906101000a900473ffffffffffffffffffffffffffffffffffffffff1673ffffffffffffffffffffffffffffffffffffffff16826040516120e29061333c565b60006040518083038185875af1925050503d806000811461211f576040519150601f19603f3d011682016040523d82523d6000602084013e612124565b606091505b5050905080612168576040517f08c379a000000000000000000000000000000000000000000000000000000000815260040161215f9061339d565b60405180910390fd5b7f7909752b76037727fecfc6c1abb7264306fd284ff7be21e2aa09bf2fdc00579d826040516121979190612565565b60405180910390a15050565b600080600960008473ffffffffffffffffffffffffffffffffffffffff1673ffffffffffffffffffffffffffffffffffffffff16815260200190815260200160002054600a60008573ffffffffffffffffffffffffffffffffffffffff1673ffffffffffffffffffffffffffffffffffffffff1681526020019081526020016000205491509150915091565b600260009054906101000a900473ffffffffffffffffffffffffffffffffffffffff1681565b60096020528060005260406000206000915090505481565b6122756123c1565b6000600860016101000a81548160ff0219169083151502179055507f0ba07ae52ba5d382f0af001934b3681d1490b6116d058e1b4bc448b15152280e60405160405180910390a1565b6122c66123c1565b600073ffffffffffffffffffffffffffffffffffffffff168173ffffffffffffffffffffffffffffffffffffffff16036123385760006040517f1e4fbdf700000000000000000000000000000000000000000000000000000000815260040161232f9190612682565b60405180910390fd5b61234181612448565b50565b624c4b4081565b600460009054906101000a900473ffffffffffffffffffffffffffffffffffffffff1681565b6002600054036123ad576040517f3ee5aeb500000000000000000000000000000000000000000000000000000000815260040160405180910390fd5b6002600081905550565b6001600081905550565b6123c961250e565b73ffffffffffffffffffffffffffffffffffffffff166123e7611615565b73ffffffffffffffffffffffffffffffffffffffff16146124465761240a61250e565b6040517f118cdaa700000000000000000000000000000000000000000000000000000000815260040161243d9190612682565b60405180910390fd5b565b6000600160009054906101000a900473ffffffffffffffffffffffffffffffffffffffff16905081600160006101000a81548173ffffffffffffffffffffffffffffffffffffffff021916908373ffffffffffffffffffffffffffffffffffffffff1602179055508173ffffffffffffffffffffffffffffffffffffffff168173ffffffffffffffffffffffffffffffffffffffff167f8be0079c531659141344cd1fd0a4f28419497f9722a3daafe3b4186f6b6457e060405160405180910390a35050565b600033905090565b60008115159050919050565b61252b81612516565b82525050565b60006020820190506125466000830184612522565b92915050565b6000819050919050565b61255f8161254c565b82525050565b600060208201905061257a6000830184612556565b92915050565b6000604051905090565b600080fd5b6125988161254c565b81146125a357600080fd5b50565b6000813590506125b58161258f565b92915050565b6000602082840312156125d1576125d061258a565b5b60006125df848285016125a6565b91505092915050565b600073ffffffffffffffffffffffffffffffffffffffff82169050919050565b6000612613826125e8565b9050919050565b61262381612608565b811461262e57600080fd5b50565b6000813590506126408161261a565b92915050565b60006020828403121561265c5761265b61258a565b5b600061266a84828501612631565b91505092915050565b61267c81612608565b82525050565b60006020820190506126976000830184612673565b92915050565b6000819050919050565b6126b08161269d565b82525050565b60006020820190506126cb60008301846126a7565b92915050565b60006040820190506126e66000830185612556565b6126f36020830184612556565b9392505050565b6000819050919050565b600061271f61271a612715846125e8565b6126fa565b6125e8565b9050919050565b600061273182612704565b9050919050565b600061274382612726565b9050919050565b61275381612738565b82525050565b600060208201905061276e600083018461274a565b92915050565b600061277f82612726565b9050919050565b61278f81612774565b82525050565b60006020820190506127aa6000830184612786565b92915050565b600082825260208201905092915050565b7f436f6e7472616374206973207061757365640000000000000000000000000000600082015250565b60006127f76012836127b0565b9150612802826127c1565b602082019050919050565b60006020820190508181036000830152612826816127ea565b9050919050565b7f456d657267656e6379206d6f64653a207075726368617365732064697361626c60008201527f6564000000000000000000000000000000000000000000000000000000000000602082015250565b60006128896022836127b0565b91506128948261282d565b604082019050919050565b600060208201905081810360008301526128b88161287c565b9050919050565b7f4e6f204554482073656e74000000000000000000000000000000000000000000600082015250565b60006128f5600b836127b0565b9150612900826128bf565b602082019050919050565b60006020820190508181036000830152612924816128e8565b9050919050565b7f53616c652069732066696e697368656400000000000000000000000000000000600082015250565b60006129616010836127b0565b915061296c8261292b565b602082019050919050565b6000602082019050818103600083015261299081612954565b9050919050565b7f4e487b7100000000000000000000000000000000000000000000000000000000600052601160045260246000fd5b60006129d18261254c565b91506129dc8361254c565b92508282026129ea8161254c565b91508282048414831517612a0157612a00612997565b5b5092915050565b7f4e487b7100000000000000000000000000000000000000000000000000000000600052601260045260246000fd5b6000612a428261254c565b9150612a4d8361254c565b925082612a5d57612a5c612a08565b5b828204905092915050565b7f42656c6f77206d696e696d756d20707572636861736500000000000000000000600082015250565b6000612a9e6016836127b0565b9150612aa982612a68565b602082019050919050565b60006020820190508181036000830152612acd81612a91565b9050919050565b7f45786365656473206d6178696d756d2070757263686173650000000000000000600082015250565b6000612b0a6018836127b0565b9150612b1582612ad4565b602082019050919050565b60006020820190508181036000830152612b3981612afd565b9050919050565b7f4e6f7420656e6f75676820746f6b656e732072656d61696e696e670000000000600082015250565b6000612b76601b836127b0565b9150612b8182612b40565b602082019050919050565b60006020820190508181036000830152612ba581612b69565b9050919050565b6000612bb78261254c565b9150612bc28361254c565b9250828203905081811115612bda57612bd9612997565b5b92915050565b6000612beb8261254c565b9150612bf68361254c565b9250828201905080821115612c0e57612c0d612997565b5b92915050565b600081519050612c238161258f565b92915050565b600060208284031215612c3f57612c3e61258a565b5b6000612c4d84828501612c14565b91505092915050565b7f4e6f205553445420746f20776974686472617700000000000000000000000000600082015250565b6000612c8c6013836127b0565b9150612c9782612c56565b602082019050919050565b60006020820190508181036000830152612cbb81612c7f565b9050919050565b6000604082019050612cd76000830185612673565b612ce46020830184612556565b9392505050565b612cf481612516565b8114612cff57600080fd5b50565b600081519050612d1181612ceb565b92915050565b600060208284031215612d2d57612d2c61258a565b5b6000612d3b84828501612d02565b91505092915050565b7f55534454207472616e73666572206661696c6564000000000000000000000000600082015250565b6000612d7a6014836127b0565b9150612d8582612d44565b602082019050919050565b60006020820190508181036000830152612da981612d6d565b9050919050565b600080fd5b6000601f19601f8301169050919050565b7f4e487b7100000000000000000000000000000000000000000000000000000000600052604160045260246000fd5b612dfe82612db5565b810181811067ffffffffffffffff82111715612e1d57612e1c612dc6565b5b80604052505050565b6000612e30612580565b9050612e3c8282612df5565b919050565b60008160070b9050919050565b612e5781612e41565b8114612e6257600080fd5b50565b600081519050612e7481612e4e565b92915050565b600067ffffffffffffffff82169050919050565b612e9781612e7a565b8114612ea257600080fd5b50565b600081519050612eb481612e8e565b92915050565b60008160030b9050919050565b612ed081612eba565b8114612edb57600080fd5b50565b600081519050612eed81612ec7565b92915050565b600060808284031215612f0957612f08612db0565b5b612f136080612e26565b90506000612f2384828501612e65565b6000830152506020612f3784828501612ea5565b6020830152506040612f4b84828501612ede565b6040830152506060612f5f84828501612c14565b60608301525092915050565b600060808284031215612f8157612f8061258a565b5b6000612f8f84828501612ef3565b91505092915050565b6000612fa382612e41565b91507fffffffffffffffffffffffffffffffffffffffffffffffff80000000000000008203612fd557612fd4612997565b5b816000039050919050565b7f43616e6e6f742077697468647261772073616c6520746f6b656e730000000000600082015250565b6000613016601b836127b0565b915061302182612fe0565b602082019050919050565b6000602082019050818103600083015261304581613009565b9050919050565b7f4e6f20746f6b656e7320746f2077697468647261770000000000000000000000600082015250565b60006130826015836127b0565b915061308d8261304c565b602082019050919050565b600060208201905081810360008301526130b181613075565b9050919050565b7f546f6b656e207472616e73666572206661696c65640000000000000000000000600082015250565b60006130ee6015836127b0565b91506130f9826130b8565b602082019050919050565b6000602082019050818103600083015261311d816130e1565b9050919050565b7f53616c65206e6f742066696e616c697a65642079657400000000000000000000600082015250565b600061315a6016836127b0565b915061316582613124565b602082019050919050565b600060208201905081810360008301526131898161314d565b9050919050565b7f4e6f20555344542073656e740000000000000000000000000000000000000000600082015250565b60006131c6600c836127b0565b91506131d182613190565b602082019050919050565b600060208201905081810360008301526131f5816131b9565b9050919050565b60006060820190506132116000830186612673565b61321e6020830185612673565b61322b6040830184612556565b949350505050565b7f496e76616c696420616464726573730000000000000000000000000000000000600082015250565b6000613269600f836127b0565b915061327482613233565b602082019050919050565b600060208201905081810360008301526132988161325c565b9050919050565b7f456d657267656e6379206d6f6465206e6f742061637469766500000000000000600082015250565b60006132d56019836127b0565b91506132e08261329f565b602082019050919050565b60006020820190508181036000830152613304816132c8565b9050919050565b600081905092915050565b50565b600061332660008361330b565b915061333182613316565b600082019050919050565b600061334782613319565b9150819050919050565b7f4661696c656420746f2073656e64204554480000000000000000000000000000600082015250565b60006133876012836127b0565b915061339282613351565b602082019050919050565b600060208201905081810360008301526133b68161337a565b9050919050565b7f4e6f2045544820746f2077697468647261770000000000000000000000000000600082015250565b60006133f36012836127b0565b91506133fe826133bd565b602082019050919050565b60006020820190508181036000830152613422816133e6565b905091905056fea264697066735822122025a2852d72c6467b9560e0cc019b40bf536355174da974cf08a0d9a77dd6c21e64736f6c634300081b0033",
  "linkReferences": {},
  "deployedLinkReferences": {}
}