{
  "_format": "hh-sol-artifact-1",
  "contractName": "TokenSaleWithPyth",
  "sourceName": "contracts/TokenSaleWithPyth.sol",
  "abi": [
    {
      "inputs": [
        {
          "internalType": "address",
          "name": "_mctToken",
          "type": "address"
        },
        {
          "internalType": "address",
          "name": "_usdtToken",
          "type": "address"
        },
        {
          "internalType": "address",
          "name": "_treasuryWallet",
          "type": "address"
        },
        {
          "internalType": "address",
          "name": "_pythAddress",
          "type": "address"
        }
      ],
      "stateMutability": "nonpayable",
      "type": "constructor"
    },
    {
      "inputs": [
        {
          "internalType": "address",
          "name": "owner",
          "type": "address"
        }
      ],
      "name": "OwnableInvalidOwner",
      "type": "error"
    },
    {
      "inputs": [
        {
          "internalType": "address",
          "name": "account",
          "type": "address"
        }
      ],
      "name": "OwnableUnauthorizedAccount",
      "type": "error"
    },
    {
      "inputs": [],
      "name": "ReentrancyGuardReentrantCall",
      "type": "error"
    },
    {
      "inputs": [
        {
          "internalType": "address",
          "name": "token",
          "type": "address"
        }
      ],
      "name": "SafeERC20FailedOperation",
      "type": "error"
    },
    {
      "anonymous": false,
      "inputs": [
        {
          "indexed": true,
          "internalType": "address",
          "name": "owner",
          "type": "address"
        }
      ],
      "name": "ContractPaused",
      "type": "event"
    },
    {
      "anonymous": false,
      "inputs": [
        {
          "indexed": true,
          "internalType": "address",
          "name": "owner",
          "type": "address"
        }
      ],
      "name": "ContractUnpaused",
      "type": "event"
    },
    {
      "anonymous": false,
      "inputs": [],
      "name": "EmergencyModeDisabled",
      "type": "event"
    },
    {
      "anonymous": false,
      "inputs": [],
      "name": "EmergencyModeEnabled",
      "type": "event"
    },
    {
      "anonymous": false,
      "inputs": [
        {
          "indexed": true,
          "internalType": "address",
          "name": "user",
          "type": "address"
        },
        {
          "indexed": false,
          "internalType": "uint256",
          "name": "ethAmount",
          "type": "uint256"
        },
        {
          "indexed": false,
          "internalType": "uint256",
          "name": "usdtAmount",
          "type": "uint256"
        }
      ],
      "name": "EmergencyWithdraw",
      "type": "event"
    },
    {
      "anonymous": false,
      "inputs": [
        {
          "indexed": false,
          "internalType": "uint256",
          "name": "amount",
          "type": "uint256"
        }
      ],
      "name": "EthWithdrawn",
      "type": "event"
    },
    {
      "anonymous": false,
      "inputs": [
        {
          "indexed": true,
          "internalType": "address",
          "name": "token",
          "type": "address"
        },
        {
          "indexed": false,
          "internalType": "uint256",
          "name": "amount",
          "type": "uint256"
        }
      ],
      "name": "FundsWithdrawn",
      "type": "event"
    },
    {
      "anonymous": false,
      "inputs": [
        {
          "indexed": true,
          "internalType": "address",
          "name": "previousOwner",
          "type": "address"
        },
        {
          "indexed": true,
          "internalType": "address",
          "name": "newOwner",
          "type": "address"
        }
      ],
      "name": "OwnershipTransferred",
      "type": "event"
    },
    {
      "anonymous": false,
      "inputs": [
        {
          "indexed": false,
          "internalType": "uint256",
          "name": "price",
          "type": "uint256"
        },
        {
          "indexed": false,
          "internalType": "uint256",
          "name": "timestamp",
          "type": "uint256"
        }
      ],
      "name": "PriceUpdated",
      "type": "event"
    },
    {
      "anonymous": false,
      "inputs": [
        {
          "indexed": false,
          "internalType": "uint256",
          "name": "amount",
          "type": "uint256"
        },
        {
          "indexed": false,
          "internalType": "uint256",
          "name": "newBalance",
          "type": "uint256"
        }
      ],
      "name": "PriceUpdatesFunded",
      "type": "event"
    },
    {
      "anonymous": false,
      "inputs": [],
      "name": "SaleFinalized",
      "type": "event"
    },
    {
      "anonymous": false,
      "inputs": [
        {
          "indexed": true,
          "internalType": "address",
          "name": "buyer",
          "type": "address"
        },
        {
          "indexed": false,
          "internalType": "uint256",
          "name": "amountUSD",
          "type": "uint256"
        },
        {
          "indexed": false,
          "internalType": "uint256",
          "name": "tokenAmount",
          "type": "uint256"
        }
      ],
      "name": "TokensPurchased",
      "type": "event"
    },
    {
      "anonymous": false,
      "inputs": [
        {
          "indexed": true,
          "internalType": "address",
          "name": "user",
          "type": "address"
        },
        {
          "indexed": false,
          "internalType": "uint256",
          "name": "amount",
          "type": "uint256"
        }
      ],
      "name": "TokensWithdrawn",
      "type": "event"
    },
    {
      "anonymous": false,
      "inputs": [
        {
          "indexed": true,
          "internalType": "address",
          "name": "newWallet",
          "type": "address"
        }
      ],
      "name": "TreasuryWalletUpdated",
      "type": "event"
    },
    {
      "inputs": [],
      "name": "ETH_USD_PRICE_ID",
      "outputs": [
        {
          "internalType": "bytes32",
          "name": "",
          "type": "bytes32"
        }
      ],
      "stateMutability": "view",
      "type": "function"
    },
    {
      "inputs": [],
      "name": "MAX_PURCHASE_USD",
      "outputs": [
        {
          "internalType": "uint256",
          "name": "",
          "type": "uint256"
        }
      ],
      "stateMutability": "view",
      "type": "function"
    },
    {
      "inputs": [],
      "name": "MIN_PURCHASE_USD",
      "outputs": [
        {
          "internalType": "uint256",
          "name": "",
          "type": "uint256"
        }
      ],
      "stateMutability": "view",
      "type": "function"
    },
    {
      "inputs": [],
      "name": "PRICE_FRESHNESS_THRESHOLD",
      "outputs": [
        {
          "internalType": "uint256",
          "name": "",
          "type": "uint256"
        }
      ],
      "stateMutability": "view",
      "type": "function"
    },
    {
      "inputs": [],
      "name": "TOKEN_PRICE_USD",
      "outputs": [
        {
          "internalType": "uint256",
          "name": "",
          "type": "uint256"
        }
      ],
      "stateMutability": "view",
      "type": "function"
    },
    {
      "inputs": [
        {
          "internalType": "bytes[]",
          "name": "priceUpdate",
          "type": "bytes[]"
        }
      ],
      "name": "buyWithETH",
      "outputs": [],
      "stateMutability": "payable",
      "type": "function"
    },
    {
      "inputs": [
        {
          "internalType": "uint256",
          "name": "amount",
          "type": "uint256"
        }
      ],
      "name": "buyWithUSDT",
      "outputs": [],
      "stateMutability": "nonpayable",
      "type": "function"
    },
    {
      "inputs": [
        {
          "internalType": "uint256",
          "name": "usdAmount",
          "type": "uint256"
        }
      ],
      "name": "calculateTokensForUsd",
      "outputs": [
        {
          "internalType": "uint256",
          "name": "",
          "type": "uint256"
        }
      ],
      "stateMutability": "pure",
      "type": "function"
    },
    {
      "inputs": [],
      "name": "disableEmergencyMode",
      "outputs": [],
      "stateMutability": "nonpayable",
      "type": "function"
    },
    {
      "inputs": [],
      "name": "emergencyMode",
      "outputs": [
        {
          "internalType": "bool",
          "name": "",
          "type": "bool"
        }
      ],
      "stateMutability": "view",
      "type": "function"
    },
    {
      "inputs": [],
      "name": "emergencyWithdraw",
      "outputs": [],
      "stateMutability": "nonpayable",
      "type": "function"
    },
    {
      "inputs": [],
      "name": "enableEmergencyMode",
      "outputs": [],
      "stateMutability": "nonpayable",
      "type": "function"
    },
    {
      "inputs": [
        {
          "internalType": "address",
          "name": "",
          "type": "address"
        }
      ],
      "name": "ethContributions",
      "outputs": [
        {
          "internalType": "uint256",
          "name": "",
          "type": "uint256"
        }
      ],
      "stateMutability": "view",
      "type": "function"
    },
    {
      "inputs": [],
      "name": "finalizeSale",
      "outputs": [],
      "stateMutability": "nonpayable",
      "type": "function"
    },
    {
      "inputs": [
        {
          "internalType": "address",
          "name": "user",
          "type": "address"
        }
      ],
      "name": "getTokenBalance",
      "outputs": [
        {
          "internalType": "uint256",
          "name": "",
          "type": "uint256"
        }
      ],
      "stateMutability": "view",
      "type": "function"
    },
    {
      "inputs": [],
      "name": "getTotalRaised",
      "outputs": [
        {
          "internalType": "uint256",
          "name": "eth",
          "type": "uint256"
        },
        {
          "internalType": "uint256",
          "name": "usdt",
          "type": "uint256"
        }
      ],
      "stateMutability": "view",
      "type": "function"
    },
    {
      "inputs": [
        {
          "internalType": "address",
          "name": "user",
          "type": "address"
        }
      ],
      "name": "getUserContributions",
      "outputs": [
        {
          "internalType": "uint256",
          "name": "eth",
          "type": "uint256"
        },
        {
          "internalType": "uint256",
          "name": "usdt",
          "type": "uint256"
        }
      ],
      "stateMutability": "view",
      "type": "function"
    },
    {
      "inputs": [],
      "name": "mctToken",
      "outputs": [
        {
          "internalType": "contract IERC20",
          "name": "",
          "type": "address"
        }
      ],
      "stateMutability": "view",
      "type": "function"
    },
    {
      "inputs": [],
      "name": "owner",
      "outputs": [
        {
          "internalType": "address",
          "name": "",
          "type": "address"
        }
      ],
      "stateMutability": "view",
      "type": "function"
    },
    {
      "inputs": [],
      "name": "pause",
      "outputs": [],
      "stateMutability": "nonpayable",
      "type": "function"
    },
    {
      "inputs": [],
      "name": "paused",
      "outputs": [
        {
          "internalType": "bool",
          "name": "",
          "type": "bool"
        }
      ],
      "stateMutability": "view",
      "type": "function"
    },
    {
      "inputs": [
        {
          "internalType": "address",
          "name": "",
          "type": "address"
        }
      ],
      "name": "pendingTokens",
      "outputs": [
        {
          "internalType": "uint256",
          "name": "",
          "type": "uint256"
        }
      ],
      "stateMutability": "view",
      "type": "function"
    },
    {
      "inputs": [],
      "name": "pyth",
      "outputs": [
        {
          "internalType": "contract IPyth",
          "name": "",
          "type": "address"
        }
      ],
      "stateMutability": "view",
      "type": "function"
    },
    {
      "inputs": [],
      "name": "remainingTokens",
      "outputs": [
        {
          "internalType": "uint256",
          "name": "",
          "type": "uint256"
        }
      ],
      "stateMutability": "view",
      "type": "function"
    },
    {
      "inputs": [],
      "name": "renounceOwnership",
      "outputs": [],
      "stateMutability": "nonpayable",
      "type": "function"
    },
    {
      "inputs": [],
      "name": "resetRemainingTokens",
      "outputs": [],
      "stateMutability": "nonpayable",
      "type": "function"
    },
    {
      "inputs": [],
      "name": "saleFinalized",
      "outputs": [
        {
          "internalType": "bool",
          "name": "",
          "type": "bool"
        }
      ],
      "stateMutability": "view",
      "type": "function"
    },
    {
      "inputs": [
        {
          "internalType": "address",
          "name": "_newWallet",
          "type": "address"
        }
      ],
      "name": "setTreasuryWallet",
      "outputs": [],
      "stateMutability": "nonpayable",
      "type": "function"
    },
    {
      "inputs": [],
      "name": "totalEthRaised",
      "outputs": [
        {
          "internalType": "uint256",
          "name": "",
          "type": "uint256"
        }
      ],
      "stateMutability": "view",
      "type": "function"
    },
    {
      "inputs": [],
      "name": "totalUsdtRaised",
      "outputs": [
        {
          "internalType": "uint256",
          "name": "",
          "type": "uint256"
        }
      ],
      "stateMutability": "view",
      "type": "function"
    },
    {
      "inputs": [
        {
          "internalType": "address",
          "name": "newOwner",
          "type": "address"
        }
      ],
      "name": "transferOwnership",
      "outputs": [],
      "stateMutability": "nonpayable",
      "type": "function"
    },
    {
      "inputs": [],
      "name": "treasuryWallet",
      "outputs": [
        {
          "internalType": "address",
          "name": "",
          "type": "address"
        }
      ],
      "stateMutability": "view",
      "type": "function"
    },
    {
      "inputs": [],
      "name": "unpause",
      "outputs": [],
      "stateMutability": "nonpayable",
      "type": "function"
    },
    {
      "inputs": [
        {
          "internalType": "address",
          "name": "",
          "type": "address"
        }
      ],
      "name": "usdtContributions",
      "outputs": [
        {
          "internalType": "uint256",
          "name": "",
          "type": "uint256"
        }
      ],
      "stateMutability": "view",
      "type": "function"
    },
    {
      "inputs": [],
      "name": "usdtToken",
      "outputs": [
        {
          "internalType": "contract IERC20",
          "name": "",
          "type": "address"
        }
      ],
      "stateMutability": "view",
      "type": "function"
    },
    {
      "inputs": [],
      "name": "withdrawETH",
      "outputs": [],
      "stateMutability": "nonpayable",
      "type": "function"
    },
    {
      "inputs": [
        {
          "internalType": "address",
          "name": "token",
          "type": "address"
        }
      ],
      "name": "withdrawToken",
      "outputs": [],
      "stateMutability": "nonpayable",
      "type": "function"
    },
    {
      "inputs": [],
      "name": "withdrawTokens",
      "outputs": [],
      "stateMutability": "nonpayable",
      "type": "function"
    },
    {
      "inputs": [],
      "name": "withdrawUSDT",
      "outputs": [],
      "stateMutability": "nonpayable",
      "type": "function"
    }
  ],
  "bytecode": "0x60806040526000600860006101000a81548160ff02191690831515021790555034801561002b57600080fd5b5060405161425b38038061425b833981810160405281019061004d919061056c565b336001600081905550600073ffffffffffffffffffffffffffffffffffffffff168173ffffffffffffffffffffffffffffffffffffffff16036100c85760006040517f1e4fbdf70000000000000000000000000000000000000000000000000000000081526004016100bf91906105e2565b60405180910390fd5b6100d78161044360201b60201c565b50600073ffffffffffffffffffffffffffffffffffffffff168473ffffffffffffffffffffffffffffffffffffffff1603610147576040517f08c379a000000000000000000000000000000000000000000000000000000000815260040161013e9061065a565b60405180910390fd5b600073ffffffffffffffffffffffffffffffffffffffff168373ffffffffffffffffffffffffffffffffffffffff16036101b6576040517f08c379a00000000000000000000000000000000000000000000000000000000081526004016101ad906106c6565b60405180910390fd5b600073ffffffffffffffffffffffffffffffffffffffff168273ffffffffffffffffffffffffffffffffffffffff1603610225576040517f08c379a000000000000000000000000000000000000000000000000000000000815260040161021c90610732565b60405180910390fd5b600073ffffffffffffffffffffffffffffffffffffffff168173ffffffffffffffffffffffffffffffffffffffff1603610294576040517f08c379a000000000000000000000000000000000000000000000000000000000815260040161028b9061079e565b60405180910390fd5b83600260006101000a81548173ffffffffffffffffffffffffffffffffffffffff021916908373ffffffffffffffffffffffffffffffffffffffff16021790555082600360006101000a81548173ffffffffffffffffffffffffffffffffffffffff021916908373ffffffffffffffffffffffffffffffffffffffff16021790555081600560006101000a81548173ffffffffffffffffffffffffffffffffffffffff021916908373ffffffffffffffffffffffffffffffffffffffff16021790555080600460006101000a81548173ffffffffffffffffffffffffffffffffffffffff021916908373ffffffffffffffffffffffffffffffffffffffff160217905550600260009054906101000a900473ffffffffffffffffffffffffffffffffffffffff1673ffffffffffffffffffffffffffffffffffffffff166370a08231306040518263ffffffff1660e01b81526004016103f391906105e2565b602060405180830381865afa158015610410573d6000803e3d6000fd5b505050506040513d601f19601f8201168201806040525081019061043491906107f4565b600c8190555050505050610821565b6000600160009054906101000a900473ffffffffffffffffffffffffffffffffffffffff16905081600160006101000a81548173ffffffffffffffffffffffffffffffffffffffff021916908373ffffffffffffffffffffffffffffffffffffffff1602179055508173ffffffffffffffffffffffffffffffffffffffff168173ffffffffffffffffffffffffffffffffffffffff167f8be0079c531659141344cd1fd0a4f28419497f9722a3daafe3b4186f6b6457e060405160405180910390a35050565b600080fd5b600073ffffffffffffffffffffffffffffffffffffffff82169050919050565b60006105398261050e565b9050919050565b6105498161052e565b811461055457600080fd5b50565b60008151905061056681610540565b92915050565b6000806000806080858703121561058657610585610509565b5b600061059487828801610557565b94505060206105a587828801610557565b93505060406105b687828801610557565b92505060606105c787828801610557565b91505092959194509250565b6105dc8161052e565b82525050565b60006020820190506105f760008301846105d3565b92915050565b600082825260208201905092915050565b7f4d43543a207a65726f2061646472657373000000000000000000000000000000600082015250565b60006106446011836105fd565b915061064f8261060e565b602082019050919050565b6000602082019050818103600083015261067381610637565b9050919050565b7f555344543a207a65726f20616464726573730000000000000000000000000000600082015250565b60006106b06012836105fd565b91506106bb8261067a565b602082019050919050565b600060208201905081810360008301526106df816106a3565b9050919050565b7f54726561737572793a207a65726f206164647265737300000000000000000000600082015250565b600061071c6016836105fd565b9150610727826106e6565b602082019050919050565b6000602082019050818103600083015261074b8161070f565b9050919050565b7f507974683a207a65726f20616464726573730000000000000000000000000000600082015250565b60006107886012836105fd565b915061079382610752565b602082019050919050565b600060208201905081810360008301526107b78161077b565b9050919050565b6000819050919050565b6107d1816107be565b81146107dc57600080fd5b50565b6000815190506107ee816107c8565b92915050565b60006020828403121561080a57610809610509565b5b6000610818848285016107df565b91505092915050565b613a2b806108306000396000f3fe6080604052600436106102305760003560e01c80638da5cb5b1161012e578063db2e21bc116100ab578063e9bc18011161006f578063e9bc18011461077c578063ef952568146107a7578063f2fde38b146107be578063f7a182f5146107e7578063f98d06f01461081257610230565b8063db2e21bc146106a8578063e086e5ec146106bf578063e36465a3146106d6578063e6672fe714610714578063e730395a1461073f57610230565b8063a98ad46c116100f2578063a98ad46c146105d3578063bf583903146105fe578063c031a66f14610629578063c5b1c7d014610666578063c9e904be1461067d57610230565b80638da5cb5b146104ff5780639f5502931461052a578063a5f0dea214610556578063a7c6016014610581578063a8602fea146105aa57610230565b80634626402b116101bc5780636ea33e4e116101805780636ea33e4e14610466578063715018a6146104915780638456cb59146104a857806389476069146104bf5780638d8f2adb146104e857610230565b80634626402b146103b257806358a687ec146103dd5780635bbf7491146103f45780635c975abb1461041f5780636990fc1f1461044a57610230565b80632b2da7c8116102035780632b2da7c8146102df5780632de8f4501461031c578063362e496b146103475780633aecd0e31461035e5780633f4ba83a1461039b57610230565b8063082cb1f3146102355780630905f5601461024c5780631aae8491146102775780631d634fb2146102a2575b600080fd5b34801561024157600080fd5b5061024a61083d565b005b34801561025857600080fd5b506102616108e9565b60405161026e91906127d2565b60405180910390f35b34801561028357600080fd5b5061028c6108fc565b6040516102999190612806565b60405180910390f35b3480156102ae57600080fd5b506102c960048036038101906102c49190612861565b610904565b6040516102d69190612806565b60405180910390f35b3480156102eb57600080fd5b50610306600480360381019061030191906128ec565b61093c565b6040516103139190612806565b60405180910390f35b34801561032857600080fd5b50610331610954565b60405161033e9190612806565b60405180910390f35b34801561035357600080fd5b5061035c61095d565b005b34801561036a57600080fd5b50610385600480360381019061038091906128ec565b610b2a565b6040516103929190612806565b60405180910390f35b3480156103a757600080fd5b506103b0610b73565b005b3480156103be57600080fd5b506103c7610bdb565b6040516103d49190612928565b60405180910390f35b3480156103e957600080fd5b506103f2610c01565b005b34801561040057600080fd5b50610409610c52565b604051610416919061295c565b60405180910390f35b34801561042b57600080fd5b50610434610c79565b60405161044191906127d2565b60405180910390f35b610464600480360381019061045f91906129dc565b610c8c565b005b34801561047257600080fd5b5061047b6113b4565b6040516104889190612806565b60405180910390f35b34801561049d57600080fd5b506104a66113ba565b005b3480156104b457600080fd5b506104bd6113ce565b005b3480156104cb57600080fd5b506104e660048036038101906104e191906128ec565b611436565b005b3480156104f457600080fd5b506104fd611684565b005b34801561050b57600080fd5b5061051461184d565b6040516105219190612928565b60405180910390f35b34801561053657600080fd5b5061053f611877565b60405161054d929190612a29565b60405180910390f35b34801561056257600080fd5b5061056b611888565b60405161057891906127d2565b60405180910390f35b34801561058d57600080fd5b506105a860048036038101906105a39190612861565b61189b565b005b3480156105b657600080fd5b506105d160048036038101906105cc91906128ec565b611c92565b005b3480156105df57600080fd5b506105e8611d90565b6040516105f59190612ab1565b60405180910390f35b34801561060a57600080fd5b50610613611db6565b6040516106209190612806565b60405180910390f35b34801561063557600080fd5b50610650600480360381019061064b91906128ec565b611dbc565b60405161065d9190612806565b60405180910390f35b34801561067257600080fd5b5061067b611dd4565b005b34801561068957600080fd5b50610692611e25565b60405161069f9190612806565b60405180910390f35b3480156106b457600080fd5b506106bd611e2b565b005b3480156106cb57600080fd5b506106d4612143565b005b3480156106e257600080fd5b506106fd60048036038101906106f891906128ec565b61229c565b60405161070b929190612a29565b60405180910390f35b34801561072057600080fd5b50610729612328565b6040516107369190612ab1565b60405180910390f35b34801561074b57600080fd5b50610766600480360381019061076191906128ec565b61234e565b6040516107739190612806565b60405180910390f35b34801561078857600080fd5b50610791612366565b60405161079e9190612806565b60405180910390f35b3480156107b357600080fd5b506107bc61236b565b005b3480156107ca57600080fd5b506107e560048036038101906107e091906128ec565b6123bc565b005b3480156107f357600080fd5b506107fc612442565b6040516108099190612806565b60405180910390f35b34801561081e57600080fd5b50610827612449565b6040516108349190612aed565b60405180910390f35b61084561246f565b600260009054906101000a900473ffffffffffffffffffffffffffffffffffffffff1673ffffffffffffffffffffffffffffffffffffffff166370a08231306040518263ffffffff1660e01b81526004016108a09190612928565b602060405180830381865afa1580156108bd573d6000803e3d6000fd5b505050506040513d601f19601f820116820180604052508101906108e19190612b1d565b600c81905550565b600860019054906101000a900460ff1681565b6305f5e10081565b6000624c4b406103e8670de0b6b3a7640000846109219190612b79565b61092b9190612b79565b6109359190612bea565b9050919050565b600a6020528060005260406000206000915090505481565b640ba43b740081565b61096561246f565b6000600360009054906101000a900473ffffffffffffffffffffffffffffffffffffffff1673ffffffffffffffffffffffffffffffffffffffff166370a08231306040518263ffffffff1660e01b81526004016109c29190612928565b602060405180830381865afa1580156109df573d6000803e3d6000fd5b505050506040513d601f19601f82011682018060405250810190610a039190612b1d565b905060008111610a48576040517f08c379a0000000000000000000000000000000000000000000000000000000008152600401610a3f90612c78565b60405180910390fd5b610ab7600560009054906101000a900473ffffffffffffffffffffffffffffffffffffffff1682600360009054906101000a900473ffffffffffffffffffffffffffffffffffffffff1673ffffffffffffffffffffffffffffffffffffffff166124f69092919063ffffffff16565b600360009054906101000a900473ffffffffffffffffffffffffffffffffffffffff1673ffffffffffffffffffffffffffffffffffffffff167feaff4b37086828766ad3268786972c0cd24259d4c87a80f9d3963a3c3d999b0d82604051610b1f9190612806565b60405180910390a250565b6000600b60008373ffffffffffffffffffffffffffffffffffffffff1673ffffffffffffffffffffffffffffffffffffffff168152602001908152602001600020549050919050565b610b7b61246f565b6000600d60006101000a81548160ff0219169083151502179055503373ffffffffffffffffffffffffffffffffffffffff167f5b65b0c1363b3003db9bcc5e1fd8805a6d6bf5bf6dc9d3431ee4494cd7d1176660405160405180910390a2565b600560009054906101000a900473ffffffffffffffffffffffffffffffffffffffff1681565b610c0961246f565b6001600860006101000a81548160ff0219169083151502179055507ff33fd39ddc653e5f9033d50b852a4e85dc19ab2e3553927ce281aa99f9718c5d60405160405180910390a1565b7fff61491a931112ddf1bd8147cd1b641375f79f5825126d665480874634fd0ace60001b81565b600d60009054906101000a900460ff1681565b610c94612575565b600d60009054906101000a900460ff1615610ce4576040517f08c379a0000000000000000000000000000000000000000000000000000000008152600401610cdb90612ce4565b60405180910390fd5b600860019054906101000a900460ff1615610d34576040517f08c379a0000000000000000000000000000000000000000000000000000000008152600401610d2b90612d76565b60405180910390fd5b60003411610d77576040517f08c379a0000000000000000000000000000000000000000000000000000000008152600401610d6e90612de2565b60405180910390fd5b600860009054906101000a900460ff1615610dc7576040517f08c379a0000000000000000000000000000000000000000000000000000000008152600401610dbe90612e4e565b60405180910390fd5b6000600460009054906101000a900473ffffffffffffffffffffffffffffffffffffffff1673ffffffffffffffffffffffffffffffffffffffff1663d47eed4584846040518363ffffffff1660e01b8152600401610e26929190612ff2565b602060405180830381865afa158015610e43573d6000803e3d6000fd5b505050506040513d601f19601f82011682018060405250810190610e679190612b1d565b9050803411610eab576040517f08c379a0000000000000000000000000000000000000000000000000000000008152600401610ea290613088565b60405180910390fd5b600460009054906101000a900473ffffffffffffffffffffffffffffffffffffffff1673ffffffffffffffffffffffffffffffffffffffff1663ef9e5e288285856040518463ffffffff1660e01b8152600401610f09929190612ff2565b6000604051808303818588803b158015610f2257600080fd5b505af1158015610f36573d6000803e3d6000fd5b50505050506000600460009054906101000a900473ffffffffffffffffffffffffffffffffffffffff1673ffffffffffffffffffffffffffffffffffffffff1663a4ae35e07fff61491a931112ddf1bd8147cd1b641375f79f5825126d665480874634fd0ace60001b60786040518363ffffffff1660e01b8152600401610fbe9291906130a8565b608060405180830381865afa158015610fdb573d6000803e3d6000fd5b505050506040513d601f19601f82011682018060405250810190610fff919061327b565b90506000816000015160070b1361104b576040517f08c379a0000000000000000000000000000000000000000000000000000000008152600401611042906132f4565b60405180910390fd5b6064816000015161105c9190613314565b67ffffffffffffffff16816020015167ffffffffffffffff1611156110b6576040517f08c379a00000000000000000000000000000000000000000000000000000000081526004016110ad90613391565b60405180910390fd5b60006064826000015167ffffffffffffffff166110d39190612bea565b9050600083346110e391906133b1565b90506000670de0b6b3a764000083836110fc9190612b79565b6111069190612bea565b90506305f5e10081101561114f576040517f08c379a000000000000000000000000000000000000000000000000000000000815260040161114690613431565b60405180910390fd5b640ba43b7400811115611197576040517f08c379a000000000000000000000000000000000000000000000000000000000815260040161118e9061349d565b60405180910390fd5b60006111a282610904565b9050600c548111156111e9576040517f08c379a00000000000000000000000000000000000000000000000000000000081526004016111e090613509565b60405180910390fd5b80600c60008282546111fb91906133b1565b9250508190555082600660008282546112149190613529565b9250508190555082600960003373ffffffffffffffffffffffffffffffffffffffff1673ffffffffffffffffffffffffffffffffffffffff168152602001908152602001600020600082825461126a9190613529565b9250508190555080600b60003373ffffffffffffffffffffffffffffffffffffffff1673ffffffffffffffffffffffffffffffffffffffff16815260200190815260200160002060008282546112c09190613529565b925050819055503373ffffffffffffffffffffffffffffffffffffffff167f8fafebcaf9d154343dad25669bfa277f4fbacd7ac6b0c4fed522580e040a0f33838360405161130f929190612a29565b60405180910390a27f945c1c4e99aa89f648fbfe3df471b916f719e16d960fcec0737d4d56bd6968388442604051611348929190612a29565b60405180910390a16000600c54036113a2576001600860006101000a81548160ff0219169083151502179055507ff33fd39ddc653e5f9033d50b852a4e85dc19ab2e3553927ce281aa99f9718c5d60405160405180910390a15b5050505050506113b06125bb565b5050565b60075481565b6113c261246f565b6113cc60006125c5565b565b6113d661246f565b6001600d60006101000a81548160ff0219169083151502179055503373ffffffffffffffffffffffffffffffffffffffff167f81990fd9a5c552b8e3677917d8a03c07678f0d2cb68f88b634aca2022e9bd19f60405160405180910390a2565b61143e61246f565b600260009054906101000a900473ffffffffffffffffffffffffffffffffffffffff1673ffffffffffffffffffffffffffffffffffffffff168173ffffffffffffffffffffffffffffffffffffffff16036114ce576040517f08c379a00000000000000000000000000000000000000000000000000000000081526004016114c5906135a9565b60405180910390fd5b600860019054906101000a900460ff161561151e576040517f08c379a00000000000000000000000000000000000000000000000000000000081526004016115159061363b565b60405180910390fd5b600081905060008173ffffffffffffffffffffffffffffffffffffffff166370a08231306040518263ffffffff1660e01b815260040161155e9190612928565b602060405180830381865afa15801561157b573d6000803e3d6000fd5b505050506040513d601f19601f8201168201806040525081019061159f9190612b1d565b9050600081116115e4576040517f08c379a00000000000000000000000000000000000000000000000000000000081526004016115db906136a7565b60405180910390fd5b611631600560009054906101000a900473ffffffffffffffffffffffffffffffffffffffff16828473ffffffffffffffffffffffffffffffffffffffff166124f69092919063ffffffff16565b8273ffffffffffffffffffffffffffffffffffffffff167feaff4b37086828766ad3268786972c0cd24259d4c87a80f9d3963a3c3d999b0d826040516116779190612806565b60405180910390a2505050565b61168c612575565b600860009054906101000a900460ff166116db576040517f08c379a00000000000000000000000000000000000000000000000000000000081526004016116d290613713565b60405180910390fd5b6000600b60003373ffffffffffffffffffffffffffffffffffffffff1673ffffffffffffffffffffffffffffffffffffffff16815260200190815260200160002054905060008111611762576040517f08c379a0000000000000000000000000000000000000000000000000000000008152600401611759906136a7565b60405180910390fd5b6000600b60003373ffffffffffffffffffffffffffffffffffffffff1673ffffffffffffffffffffffffffffffffffffffff168152602001908152602001600020819055506117f43382600260009054906101000a900473ffffffffffffffffffffffffffffffffffffffff1673ffffffffffffffffffffffffffffffffffffffff166124f69092919063ffffffff16565b3373ffffffffffffffffffffffffffffffffffffffff167f6352c5382c4a4578e712449ca65e83cdb392d045dfcf1cad9615189db2da244b8260405161183a9190612806565b60405180910390a25061184b6125bb565b565b6000600160009054906101000a900473ffffffffffffffffffffffffffffffffffffffff16905090565b600080600654600754915091509091565b600860009054906101000a900460ff1681565b6118a3612575565b600d60009054906101000a900460ff16156118f3576040517f08c379a00000000000000000000000000000000000000000000000000000000081526004016118ea90612ce4565b60405180910390fd5b600860019054906101000a900460ff1615611943576040517f08c379a000000000000000000000000000000000000000000000000000000000815260040161193a90612d76565b60405180910390fd5b60008111611986576040517f08c379a000000000000000000000000000000000000000000000000000000000815260040161197d9061377f565b60405180910390fd5b600860009054906101000a900460ff16156119d6576040517f08c379a00000000000000000000000000000000000000000000000000000000081526004016119cd90612e4e565b60405180910390fd5b6305f5e100811015611a1d576040517f08c379a0000000000000000000000000000000000000000000000000000000008152600401611a1490613431565b60405180910390fd5b640ba43b7400811115611a65576040517f08c379a0000000000000000000000000000000000000000000000000000000008152600401611a5c9061349d565b60405180910390fd5b6000611a7082610904565b9050600c54811115611ab7576040517f08c379a0000000000000000000000000000000000000000000000000000000008152600401611aae90613509565b60405180910390fd5b611b06333084600360009054906101000a900473ffffffffffffffffffffffffffffffffffffffff1673ffffffffffffffffffffffffffffffffffffffff1661268b909392919063ffffffff16565b80600c6000828254611b1891906133b1565b925050819055508160076000828254611b319190613529565b9250508190555081600a60003373ffffffffffffffffffffffffffffffffffffffff1673ffffffffffffffffffffffffffffffffffffffff1681526020019081526020016000206000828254611b879190613529565b9250508190555080600b60003373ffffffffffffffffffffffffffffffffffffffff1673ffffffffffffffffffffffffffffffffffffffff1681526020019081526020016000206000828254611bdd9190613529565b925050819055503373ffffffffffffffffffffffffffffffffffffffff167f8fafebcaf9d154343dad25669bfa277f4fbacd7ac6b0c4fed522580e040a0f338383604051611c2c929190612a29565b60405180910390a26000600c5403611c86576001600860006101000a81548160ff0219169083151502179055507ff33fd39ddc653e5f9033d50b852a4e85dc19ab2e3553927ce281aa99f9718c5d60405160405180910390a15b50611c8f6125bb565b50565b611c9a61246f565b600073ffffffffffffffffffffffffffffffffffffffff168173ffffffffffffffffffffffffffffffffffffffff1603611d09576040517f08c379a0000000000000000000000000000000000000000000000000000000008152600401611d00906137eb565b60405180910390fd5b80600560006101000a81548173ffffffffffffffffffffffffffffffffffffffff021916908373ffffffffffffffffffffffffffffffffffffffff1602179055508073ffffffffffffffffffffffffffffffffffffffff167f97c79b3848e51f57983ac89e4403452655c8d83ceba8199011de63a74f60d1a760405160405180910390a250565b600360009054906101000a900473ffffffffffffffffffffffffffffffffffffffff1681565b600c5481565b600b6020528060005260406000206000915090505481565b611ddc61246f565b6001600860016101000a81548160ff0219169083151502179055507f2064d51aa5a8bd67928c7675e267e05c67ad5adf7c9098d0a602d01f36fda9c560405160405180910390a1565b60065481565b611e33612575565b600860019054906101000a900460ff16611e82576040517f08c379a0000000000000000000000000000000000000000000000000000000008152600401611e7990613857565b60405180910390fd5b6000600960003373ffffffffffffffffffffffffffffffffffffffff1673ffffffffffffffffffffffffffffffffffffffff1681526020019081526020016000205490506000600a60003373ffffffffffffffffffffffffffffffffffffffff1673ffffffffffffffffffffffffffffffffffffffff1681526020019081526020016000205490506000600960003373ffffffffffffffffffffffffffffffffffffffff1673ffffffffffffffffffffffffffffffffffffffff168152602001908152602001600020819055506000600a60003373ffffffffffffffffffffffffffffffffffffffff1673ffffffffffffffffffffffffffffffffffffffff168152602001908152602001600020819055506000600b60003373ffffffffffffffffffffffffffffffffffffffff1673ffffffffffffffffffffffffffffffffffffffff1681526020019081526020016000208190555060008211156120905760003373ffffffffffffffffffffffffffffffffffffffff1683604051612008906138a8565b60006040518083038185875af1925050503d8060008114612045576040519150601f19603f3d011682016040523d82523d6000602084013e61204a565b606091505b505090508061208e576040517f08c379a000000000000000000000000000000000000000000000000000000000815260040161208590613909565b60405180910390fd5b505b60008111156120e7576120e63382600360009054906101000a900473ffffffffffffffffffffffffffffffffffffffff1673ffffffffffffffffffffffffffffffffffffffff166124f69092919063ffffffff16565b5b3373ffffffffffffffffffffffffffffffffffffffff167fbb757047c2b5f3974fe26b7c10f732e7bce710b0952a71082702781e62ae0595838360405161212f929190612a29565b60405180910390a250506121416125bb565b565b61214b61246f565b600047905060008111612193576040517f08c379a000000000000000000000000000000000000000000000000000000000815260040161218a90613975565b60405180910390fd5b6000600560009054906101000a900473ffffffffffffffffffffffffffffffffffffffff1673ffffffffffffffffffffffffffffffffffffffff16826040516121db906138a8565b60006040518083038185875af1925050503d8060008114612218576040519150601f19603f3d011682016040523d82523d6000602084013e61221d565b606091505b5050905080612261576040517f08c379a000000000000000000000000000000000000000000000000000000000815260040161225890613909565b60405180910390fd5b7f7909752b76037727fecfc6c1abb7264306fd284ff7be21e2aa09bf2fdc00579d826040516122909190612806565b60405180910390a15050565b600080600960008473ffffffffffffffffffffffffffffffffffffffff1673ffffffffffffffffffffffffffffffffffffffff16815260200190815260200160002054600a60008573ffffffffffffffffffffffffffffffffffffffff1673ffffffffffffffffffffffffffffffffffffffff1681526020019081526020016000205491509150915091565b600260009054906101000a900473ffffffffffffffffffffffffffffffffffffffff1681565b60096020528060005260406000206000915090505481565b607881565b61237361246f565b6000600860016101000a81548160ff0219169083151502179055507f0ba07ae52ba5d382f0af001934b3681d1490b6116d058e1b4bc448b15152280e60405160405180910390a1565b6123c461246f565b600073ffffffffffffffffffffffffffffffffffffffff168173ffffffffffffffffffffffffffffffffffffffff16036124365760006040517f1e4fbdf700000000000000000000000000000000000000000000000000000000815260040161242d9190612928565b60405180910390fd5b61243f816125c5565b50565b624c4b4081565b600460009054906101000a900473ffffffffffffffffffffffffffffffffffffffff1681565b61247761270d565b73ffffffffffffffffffffffffffffffffffffffff1661249561184d565b73ffffffffffffffffffffffffffffffffffffffff16146124f4576124b861270d565b6040517f118cdaa70000000000000000000000000000000000000000000000000000000081526004016124eb9190612928565b60405180910390fd5b565b612570838473ffffffffffffffffffffffffffffffffffffffff1663a9059cbb8585604051602401612529929190613995565b604051602081830303815290604052915060e01b6020820180517bffffffffffffffffffffffffffffffffffffffffffffffffffffffff8381831617835250505050612715565b505050565b6002600054036125b1576040517f3ee5aeb500000000000000000000000000000000000000000000000000000000815260040160405180910390fd5b6002600081905550565b6001600081905550565b6000600160009054906101000a900473ffffffffffffffffffffffffffffffffffffffff16905081600160006101000a81548173ffffffffffffffffffffffffffffffffffffffff021916908373ffffffffffffffffffffffffffffffffffffffff1602179055508173ffffffffffffffffffffffffffffffffffffffff168173ffffffffffffffffffffffffffffffffffffffff167f8be0079c531659141344cd1fd0a4f28419497f9722a3daafe3b4186f6b6457e060405160405180910390a35050565b612707848573ffffffffffffffffffffffffffffffffffffffff166323b872dd8686866040516024016126c0939291906139be565b604051602081830303815290604052915060e01b6020820180517bffffffffffffffffffffffffffffffffffffffffffffffffffffffff8381831617835250505050612715565b50505050565b600033905090565b600080602060008451602086016000885af180612738576040513d6000823e3d81fd5b3d92506000519150506000821461275357600181141561276f565b60008473ffffffffffffffffffffffffffffffffffffffff163b145b156127b157836040517f5274afe70000000000000000000000000000000000000000000000000000000081526004016127a89190612928565b60405180910390fd5b50505050565b60008115159050919050565b6127cc816127b7565b82525050565b60006020820190506127e760008301846127c3565b92915050565b6000819050919050565b612800816127ed565b82525050565b600060208201905061281b60008301846127f7565b92915050565b6000604051905090565b600080fd5b600080fd5b61283e816127ed565b811461284957600080fd5b50565b60008135905061285b81612835565b92915050565b6000602082840312156128775761287661282b565b5b60006128858482850161284c565b91505092915050565b600073ffffffffffffffffffffffffffffffffffffffff82169050919050565b60006128b98261288e565b9050919050565b6128c9816128ae565b81146128d457600080fd5b50565b6000813590506128e6816128c0565b92915050565b6000602082840312156129025761290161282b565b5b6000612910848285016128d7565b91505092915050565b612922816128ae565b82525050565b600060208201905061293d6000830184612919565b92915050565b6000819050919050565b61295681612943565b82525050565b6000602082019050612971600083018461294d565b92915050565b600080fd5b600080fd5b600080fd5b60008083601f84011261299c5761299b612977565b5b8235905067ffffffffffffffff8111156129b9576129b861297c565b5b6020830191508360208202830111156129d5576129d4612981565b5b9250929050565b600080602083850312156129f3576129f261282b565b5b600083013567ffffffffffffffff811115612a1157612a10612830565b5b612a1d85828601612986565b92509250509250929050565b6000604082019050612a3e60008301856127f7565b612a4b60208301846127f7565b9392505050565b6000819050919050565b6000612a77612a72612a6d8461288e565b612a52565b61288e565b9050919050565b6000612a8982612a5c565b9050919050565b6000612a9b82612a7e565b9050919050565b612aab81612a90565b82525050565b6000602082019050612ac66000830184612aa2565b92915050565b6000612ad782612a7e565b9050919050565b612ae781612acc565b82525050565b6000602082019050612b026000830184612ade565b92915050565b600081519050612b1781612835565b92915050565b600060208284031215612b3357612b3261282b565b5b6000612b4184828501612b08565b91505092915050565b7f4e487b7100000000000000000000000000000000000000000000000000000000600052601160045260246000fd5b6000612b84826127ed565b9150612b8f836127ed565b9250828202612b9d816127ed565b91508282048414831517612bb457612bb3612b4a565b5b5092915050565b7f4e487b7100000000000000000000000000000000000000000000000000000000600052601260045260246000fd5b6000612bf5826127ed565b9150612c00836127ed565b925082612c1057612c0f612bbb565b5b828204905092915050565b600082825260208201905092915050565b7f4e6f205553445420746f20776974686472617700000000000000000000000000600082015250565b6000612c62601383612c1b565b9150612c6d82612c2c565b602082019050919050565b60006020820190508181036000830152612c9181612c55565b9050919050565b7f436f6e7472616374206973207061757365640000000000000000000000000000600082015250565b6000612cce601283612c1b565b9150612cd982612c98565b602082019050919050565b60006020820190508181036000830152612cfd81612cc1565b9050919050565b7f456d657267656e6379206d6f64653a207075726368617365732064697361626c60008201527f6564000000000000000000000000000000000000000000000000000000000000602082015250565b6000612d60602283612c1b565b9150612d6b82612d04565b604082019050919050565b60006020820190508181036000830152612d8f81612d53565b9050919050565b7f4e6f204554482073656e74000000000000000000000000000000000000000000600082015250565b6000612dcc600b83612c1b565b9150612dd782612d96565b602082019050919050565b60006020820190508181036000830152612dfb81612dbf565b9050919050565b7f53616c652069732066696e697368656400000000000000000000000000000000600082015250565b6000612e38601083612c1b565b9150612e4382612e02565b602082019050919050565b60006020820190508181036000830152612e6781612e2b565b9050919050565b600082825260208201905092915050565b6000819050919050565b600082825260208201905092915050565b82818337600083830152505050565b6000601f19601f8301169050919050565b6000612ec68385612e89565b9350612ed3838584612e9a565b612edc83612ea9565b840190509392505050565b6000612ef4848484612eba565b90509392505050565b600080fd5b600080fd5b600080fd5b60008083356001602003843603038112612f2957612f28612f07565b5b83810192508235915060208301925067ffffffffffffffff821115612f5157612f50612efd565b5b600182023603831315612f6757612f66612f02565b5b509250929050565b6000602082019050919050565b6000612f888385612e6e565b935083602084028501612f9a84612e7f565b8060005b87811015612fe0578484038952612fb58284612f0c565b612fc0868284612ee7565b9550612fcb84612f6f565b935060208b019a505050600181019050612f9e565b50829750879450505050509392505050565b6000602082019050818103600083015261300d818486612f7c565b90509392505050565b7f496e73756666696369656e742045544820666f7220707269636520757064617460008201527f6520666565000000000000000000000000000000000000000000000000000000602082015250565b6000613072602583612c1b565b915061307d82613016565b604082019050919050565b600060208201905081810360008301526130a181613065565b9050919050565b60006040820190506130bd600083018561294d565b6130ca60208301846127f7565b9392505050565b600080fd5b7f4e487b7100000000000000000000000000000000000000000000000000000000600052604160045260246000fd5b61310e82612ea9565b810181811067ffffffffffffffff8211171561312d5761312c6130d6565b5b80604052505050565b6000613140612821565b905061314c8282613105565b919050565b60008160070b9050919050565b61316781613151565b811461317257600080fd5b50565b6000815190506131848161315e565b92915050565b600067ffffffffffffffff82169050919050565b6131a78161318a565b81146131b257600080fd5b50565b6000815190506131c48161319e565b92915050565b60008160030b9050919050565b6131e0816131ca565b81146131eb57600080fd5b50565b6000815190506131fd816131d7565b92915050565b600060808284031215613219576132186130d1565b5b6132236080613136565b9050600061323384828501613175565b6000830152506020613247848285016131b5565b602083015250604061325b848285016131ee565b604083015250606061326f84828501612b08565b60608301525092915050565b6000608082840312156132915761329061282b565b5b600061329f84828501613203565b91505092915050565b7f496e76616c696420707269636520666565640000000000000000000000000000600082015250565b60006132de601283612c1b565b91506132e9826132a8565b602082019050919050565b6000602082019050818103600083015261330d816132d1565b9050919050565b600061331f8261318a565b915061332a8361318a565b92508261333a57613339612bbb565b5b828204905092915050565b7f507269636520636f6e666964656e636520746f6f206c61726765000000000000600082015250565b600061337b601a83612c1b565b915061338682613345565b602082019050919050565b600060208201905081810360008301526133aa8161336e565b9050919050565b60006133bc826127ed565b91506133c7836127ed565b92508282039050818111156133df576133de612b4a565b5b92915050565b7f42656c6f77206d696e696d756d20707572636861736500000000000000000000600082015250565b600061341b601683612c1b565b9150613426826133e5565b602082019050919050565b6000602082019050818103600083015261344a8161340e565b9050919050565b7f45786365656473206d6178696d756d2070757263686173650000000000000000600082015250565b6000613487601883612c1b565b915061349282613451565b602082019050919050565b600060208201905081810360008301526134b68161347a565b9050919050565b7f4e6f7420656e6f75676820746f6b656e732072656d61696e696e670000000000600082015250565b60006134f3601b83612c1b565b91506134fe826134bd565b602082019050919050565b60006020820190508181036000830152613522816134e6565b9050919050565b6000613534826127ed565b915061353f836127ed565b925082820190508082111561355757613556612b4a565b5b92915050565b7f43616e6e6f742077697468647261772073616c6520746f6b656e730000000000600082015250565b6000613593601b83612c1b565b915061359e8261355d565b602082019050919050565b600060208201905081810360008301526135c281613586565b9050919050565b7f456d657267656e6379206d6f6465206163746976653a2075736520656d65726760008201527f656e637957697468647261770000000000000000000000000000000000000000602082015250565b6000613625602c83612c1b565b9150613630826135c9565b604082019050919050565b6000602082019050818103600083015261365481613618565b9050919050565b7f4e6f20746f6b656e7320746f2077697468647261770000000000000000000000600082015250565b6000613691601583612c1b565b915061369c8261365b565b602082019050919050565b600060208201905081810360008301526136c081613684565b9050919050565b7f53616c65206e6f742066696e616c697a65642079657400000000000000000000600082015250565b60006136fd601683612c1b565b9150613708826136c7565b602082019050919050565b6000602082019050818103600083015261372c816136f0565b9050919050565b7f4e6f20555344542073656e740000000000000000000000000000000000000000600082015250565b6000613769600c83612c1b565b915061377482613733565b602082019050919050565b600060208201905081810360008301526137988161375c565b9050919050565b7f496e76616c696420616464726573730000000000000000000000000000000000600082015250565b60006137d5600f83612c1b565b91506137e08261379f565b602082019050919050565b60006020820190508181036000830152613804816137c8565b9050919050565b7f456d657267656e6379206d6f6465206e6f742061637469766500000000000000600082015250565b6000613841601983612c1b565b915061384c8261380b565b602082019050919050565b6000602082019050818103600083015261387081613834565b9050919050565b600081905092915050565b50565b6000613892600083613877565b915061389d82613882565b600082019050919050565b60006138b382613885565b9150819050919050565b7f4661696c656420746f2073656e64204554480000000000000000000000000000600082015250565b60006138f3601283612c1b565b91506138fe826138bd565b602082019050919050565b60006020820190508181036000830152613922816138e6565b9050919050565b7f4e6f2045544820746f2077697468647261770000000000000000000000000000600082015250565b600061395f601283612c1b565b915061396a82613929565b602082019050919050565b6000602082019050818103600083015261398e81613952565b9050919050565b60006040820190506139aa6000830185612919565b6139b760208301846127f7565b9392505050565b60006060820190506139d36000830186612919565b6139e06020830185612919565b6139ed60408301846127f7565b94935050505056fea264697066735822122046fb108e23e246b2d740996f0958a05205ef790b15ef1b0a5fff7f732f76abe764736f6c634300081b0033",
  "linkReferences": {},
  "deployedLinkReferences": {}
}