{
  "_format": "hh-sol-artifact-1",
  "contractName": "TokenSaleWithPyth",
  "sourceName": "contracts/TokenSaleWithPyth.sol",
  "abi": [
    {
      "inputs": [
        {
          "internalType": "address",
          "name": "_mctToken",
          "type": "address"
        },
        {
          "internalType": "address",
          "name": "_usdtToken",
          "type": "address"
        },
        {
          "internalType": "address",
          "name": "_treasuryWallet",
          "type": "address"
        },
        {
          "internalType": "address",
          "name": "_pythAddress",
          "type": "address"
        }
      ],
      "stateMutability": "nonpayable",
      "type": "constructor"
    },
    {
      "inputs": [
        {
          "internalType": "address",
          "name": "owner",
          "type": "address"
        }
      ],
      "name": "OwnableInvalidOwner",
      "type": "error"
    },
    {
      "inputs": [
        {
          "internalType": "address",
          "name": "account",
          "type": "address"
        }
      ],
      "name": "OwnableUnauthorizedAccount",
      "type": "error"
    },
    {
      "inputs": [],
      "name": "ReentrancyGuardReentrantCall",
      "type": "error"
    },
    {
      "inputs": [
        {
          "internalType": "address",
          "name": "token",
          "type": "address"
        }
      ],
      "name": "SafeERC20FailedOperation",
      "type": "error"
    },
    {
      "anonymous": false,
      "inputs": [
        {
          "indexed": true,
          "internalType": "address",
          "name": "owner",
          "type": "address"
        }
      ],
      "name": "ContractPaused",
      "type": "event"
    },
    {
      "anonymous": false,
      "inputs": [
        {
          "indexed": true,
          "internalType": "address",
          "name": "owner",
          "type": "address"
        }
      ],
      "name": "ContractUnpaused",
      "type": "event"
    },
    {
      "anonymous": false,
      "inputs": [],
      "name": "EmergencyModeDisabled",
      "type": "event"
    },
    {
      "anonymous": false,
      "inputs": [],
      "name": "EmergencyModeEnabled",
      "type": "event"
    },
    {
      "anonymous": false,
      "inputs": [
        {
          "indexed": true,
          "internalType": "address",
          "name": "user",
          "type": "address"
        },
        {
          "indexed": false,
          "internalType": "uint256",
          "name": "ethAmount",
          "type": "uint256"
        },
        {
          "indexed": false,
          "internalType": "uint256",
          "name": "usdtAmount",
          "type": "uint256"
        }
      ],
      "name": "EmergencyWithdraw",
      "type": "event"
    },
    {
      "anonymous": false,
      "inputs": [
        {
          "indexed": false,
          "internalType": "uint256",
          "name": "amount",
          "type": "uint256"
        }
      ],
      "name": "EthWithdrawn",
      "type": "event"
    },
    {
      "anonymous": false,
      "inputs": [
        {
          "indexed": true,
          "internalType": "address",
          "name": "token",
          "type": "address"
        },
        {
          "indexed": false,
          "internalType": "uint256",
          "name": "amount",
          "type": "uint256"
        }
      ],
      "name": "FundsWithdrawn",
      "type": "event"
    },
    {
      "anonymous": false,
      "inputs": [
        {
          "indexed": true,
          "internalType": "address",
          "name": "previousOwner",
          "type": "address"
        },
        {
          "indexed": true,
          "internalType": "address",
          "name": "newOwner",
          "type": "address"
        }
      ],
      "name": "OwnershipTransferred",
      "type": "event"
    },
    {
      "anonymous": false,
      "inputs": [],
      "name": "SaleFinalized",
      "type": "event"
    },
    {
      "anonymous": false,
      "inputs": [
        {
          "indexed": true,
          "internalType": "address",
          "name": "buyer",
          "type": "address"
        },
        {
          "indexed": false,
          "internalType": "uint256",
          "name": "amountUSD",
          "type": "uint256"
        },
        {
          "indexed": false,
          "internalType": "uint256",
          "name": "tokenAmount",
          "type": "uint256"
        }
      ],
      "name": "TokensPurchased",
      "type": "event"
    },
    {
      "anonymous": false,
      "inputs": [
        {
          "indexed": true,
          "internalType": "address",
          "name": "user",
          "type": "address"
        },
        {
          "indexed": false,
          "internalType": "uint256",
          "name": "amount",
          "type": "uint256"
        }
      ],
      "name": "TokensWithdrawn",
      "type": "event"
    },
    {
      "anonymous": false,
      "inputs": [
        {
          "indexed": true,
          "internalType": "address",
          "name": "newWallet",
          "type": "address"
        }
      ],
      "name": "TreasuryWalletUpdated",
      "type": "event"
    },
    {
      "inputs": [],
      "name": "ETH_USD_PRICE_ID",
      "outputs": [
        {
          "internalType": "bytes32",
          "name": "",
          "type": "bytes32"
        }
      ],
      "stateMutability": "view",
      "type": "function"
    },
    {
      "inputs": [],
      "name": "MAX_PURCHASE_USD",
      "outputs": [
        {
          "internalType": "uint256",
          "name": "",
          "type": "uint256"
        }
      ],
      "stateMutability": "view",
      "type": "function"
    },
    {
      "inputs": [],
      "name": "MIN_PURCHASE_USD",
      "outputs": [
        {
          "internalType": "uint256",
          "name": "",
          "type": "uint256"
        }
      ],
      "stateMutability": "view",
      "type": "function"
    },
    {
      "inputs": [],
      "name": "PRICE_FRESHNESS_THRESHOLD",
      "outputs": [
        {
          "internalType": "uint256",
          "name": "",
          "type": "uint256"
        }
      ],
      "stateMutability": "view",
      "type": "function"
    },
    {
      "inputs": [],
      "name": "TOKEN_PRICE_USD",
      "outputs": [
        {
          "internalType": "uint256",
          "name": "",
          "type": "uint256"
        }
      ],
      "stateMutability": "view",
      "type": "function"
    },
    {
      "inputs": [],
      "name": "buyWithETH",
      "outputs": [],
      "stateMutability": "payable",
      "type": "function"
    },
    {
      "inputs": [
        {
          "internalType": "uint256",
          "name": "amount",
          "type": "uint256"
        }
      ],
      "name": "buyWithUSDT",
      "outputs": [],
      "stateMutability": "nonpayable",
      "type": "function"
    },
    {
      "inputs": [
        {
          "internalType": "uint256",
          "name": "usdAmount",
          "type": "uint256"
        }
      ],
      "name": "calculateTokensForUsd",
      "outputs": [
        {
          "internalType": "uint256",
          "name": "",
          "type": "uint256"
        }
      ],
      "stateMutability": "pure",
      "type": "function"
    },
    {
      "inputs": [],
      "name": "disableEmergencyMode",
      "outputs": [],
      "stateMutability": "nonpayable",
      "type": "function"
    },
    {
      "inputs": [],
      "name": "emergencyMode",
      "outputs": [
        {
          "internalType": "bool",
          "name": "",
          "type": "bool"
        }
      ],
      "stateMutability": "view",
      "type": "function"
    },
    {
      "inputs": [],
      "name": "emergencyWithdraw",
      "outputs": [],
      "stateMutability": "nonpayable",
      "type": "function"
    },
    {
      "inputs": [],
      "name": "enableEmergencyMode",
      "outputs": [],
      "stateMutability": "nonpayable",
      "type": "function"
    },
    {
      "inputs": [
        {
          "internalType": "address",
          "name": "",
          "type": "address"
        }
      ],
      "name": "ethContributions",
      "outputs": [
        {
          "internalType": "uint256",
          "name": "",
          "type": "uint256"
        }
      ],
      "stateMutability": "view",
      "type": "function"
    },
    {
      "inputs": [],
      "name": "finalizeSale",
      "outputs": [],
      "stateMutability": "nonpayable",
      "type": "function"
    },
    {
      "inputs": [],
      "name": "getEthPrice",
      "outputs": [
        {
          "internalType": "uint256",
          "name": "",
          "type": "uint256"
        }
      ],
      "stateMutability": "view",
      "type": "function"
    },
    {
      "inputs": [
        {
          "internalType": "address",
          "name": "user",
          "type": "address"
        }
      ],
      "name": "getTokenBalance",
      "outputs": [
        {
          "internalType": "uint256",
          "name": "",
          "type": "uint256"
        }
      ],
      "stateMutability": "view",
      "type": "function"
    },
    {
      "inputs": [],
      "name": "getTotalRaised",
      "outputs": [
        {
          "internalType": "uint256",
          "name": "eth",
          "type": "uint256"
        },
        {
          "internalType": "uint256",
          "name": "usdt",
          "type": "uint256"
        }
      ],
      "stateMutability": "view",
      "type": "function"
    },
    {
      "inputs": [
        {
          "internalType": "address",
          "name": "user",
          "type": "address"
        }
      ],
      "name": "getUserContributions",
      "outputs": [
        {
          "internalType": "uint256",
          "name": "eth",
          "type": "uint256"
        },
        {
          "internalType": "uint256",
          "name": "usdt",
          "type": "uint256"
        }
      ],
      "stateMutability": "view",
      "type": "function"
    },
    {
      "inputs": [],
      "name": "mctToken",
      "outputs": [
        {
          "internalType": "contract IERC20",
          "name": "",
          "type": "address"
        }
      ],
      "stateMutability": "view",
      "type": "function"
    },
    {
      "inputs": [],
      "name": "owner",
      "outputs": [
        {
          "internalType": "address",
          "name": "",
          "type": "address"
        }
      ],
      "stateMutability": "view",
      "type": "function"
    },
    {
      "inputs": [],
      "name": "pause",
      "outputs": [],
      "stateMutability": "nonpayable",
      "type": "function"
    },
    {
      "inputs": [],
      "name": "paused",
      "outputs": [
        {
          "internalType": "bool",
          "name": "",
          "type": "bool"
        }
      ],
      "stateMutability": "view",
      "type": "function"
    },
    {
      "inputs": [
        {
          "internalType": "address",
          "name": "",
          "type": "address"
        }
      ],
      "name": "pendingTokens",
      "outputs": [
        {
          "internalType": "uint256",
          "name": "",
          "type": "uint256"
        }
      ],
      "stateMutability": "view",
      "type": "function"
    },
    {
      "inputs": [],
      "name": "pyth",
      "outputs": [
        {
          "internalType": "contract IPyth",
          "name": "",
          "type": "address"
        }
      ],
      "stateMutability": "view",
      "type": "function"
    },
    {
      "inputs": [],
      "name": "remainingTokens",
      "outputs": [
        {
          "internalType": "uint256",
          "name": "",
          "type": "uint256"
        }
      ],
      "stateMutability": "view",
      "type": "function"
    },
    {
      "inputs": [],
      "name": "renounceOwnership",
      "outputs": [],
      "stateMutability": "nonpayable",
      "type": "function"
    },
    {
      "inputs": [],
      "name": "saleFinalized",
      "outputs": [
        {
          "internalType": "bool",
          "name": "",
          "type": "bool"
        }
      ],
      "stateMutability": "view",
      "type": "function"
    },
    {
      "inputs": [
        {
          "internalType": "address",
          "name": "_newWallet",
          "type": "address"
        }
      ],
      "name": "setTreasuryWallet",
      "outputs": [],
      "stateMutability": "nonpayable",
      "type": "function"
    },
    {
      "inputs": [],
      "name": "totalEthRaised",
      "outputs": [
        {
          "internalType": "uint256",
          "name": "",
          "type": "uint256"
        }
      ],
      "stateMutability": "view",
      "type": "function"
    },
    {
      "inputs": [],
      "name": "totalUsdtRaised",
      "outputs": [
        {
          "internalType": "uint256",
          "name": "",
          "type": "uint256"
        }
      ],
      "stateMutability": "view",
      "type": "function"
    },
    {
      "inputs": [
        {
          "internalType": "address",
          "name": "newOwner",
          "type": "address"
        }
      ],
      "name": "transferOwnership",
      "outputs": [],
      "stateMutability": "nonpayable",
      "type": "function"
    },
    {
      "inputs": [],
      "name": "treasuryWallet",
      "outputs": [
        {
          "internalType": "address",
          "name": "",
          "type": "address"
        }
      ],
      "stateMutability": "view",
      "type": "function"
    },
    {
      "inputs": [],
      "name": "unpause",
      "outputs": [],
      "stateMutability": "nonpayable",
      "type": "function"
    },
    {
      "inputs": [
        {
          "internalType": "address",
          "name": "",
          "type": "address"
        }
      ],
      "name": "usdtContributions",
      "outputs": [
        {
          "internalType": "uint256",
          "name": "",
          "type": "uint256"
        }
      ],
      "stateMutability": "view",
      "type": "function"
    },
    {
      "inputs": [],
      "name": "usdtToken",
      "outputs": [
        {
          "internalType": "contract IERC20",
          "name": "",
          "type": "address"
        }
      ],
      "stateMutability": "view",
      "type": "function"
    },
    {
      "inputs": [],
      "name": "withdrawETH",
      "outputs": [],
      "stateMutability": "nonpayable",
      "type": "function"
    },
    {
      "inputs": [
        {
          "internalType": "address",
          "name": "token",
          "type": "address"
        }
      ],
      "name": "withdrawToken",
      "outputs": [],
      "stateMutability": "nonpayable",
      "type": "function"
    },
    {
      "inputs": [],
      "name": "withdrawTokens",
      "outputs": [],
      "stateMutability": "nonpayable",
      "type": "function"
    },
    {
      "inputs": [],
      "name": "withdrawUSDT",
      "outputs": [],
      "stateMutability": "nonpayable",
      "type": "function"
    },
    {
      "stateMutability": "payable",
      "type": "receive"
    }
  ],
  "bytecode": "0x60806040526000600860006101000a81548160ff02191690831515021790555034801561002b57600080fd5b50604051613e4a380380613e4a833981810160405281019061004d919061056c565b336001600081905550600073ffffffffffffffffffffffffffffffffffffffff168173ffffffffffffffffffffffffffffffffffffffff16036100c85760006040517f1e4fbdf70000000000000000000000000000000000000000000000000000000081526004016100bf91906105e2565b60405180910390fd5b6100d78161044360201b60201c565b50600073ffffffffffffffffffffffffffffffffffffffff168473ffffffffffffffffffffffffffffffffffffffff1603610147576040517f08c379a000000000000000000000000000000000000000000000000000000000815260040161013e9061065a565b60405180910390fd5b600073ffffffffffffffffffffffffffffffffffffffff168373ffffffffffffffffffffffffffffffffffffffff16036101b6576040517f08c379a00000000000000000000000000000000000000000000000000000000081526004016101ad906106c6565b60405180910390fd5b600073ffffffffffffffffffffffffffffffffffffffff168273ffffffffffffffffffffffffffffffffffffffff1603610225576040517f08c379a000000000000000000000000000000000000000000000000000000000815260040161021c90610732565b60405180910390fd5b600073ffffffffffffffffffffffffffffffffffffffff168173ffffffffffffffffffffffffffffffffffffffff1603610294576040517f08c379a000000000000000000000000000000000000000000000000000000000815260040161028b9061079e565b60405180910390fd5b83600260006101000a81548173ffffffffffffffffffffffffffffffffffffffff021916908373ffffffffffffffffffffffffffffffffffffffff16021790555082600360006101000a81548173ffffffffffffffffffffffffffffffffffffffff021916908373ffffffffffffffffffffffffffffffffffffffff16021790555081600560006101000a81548173ffffffffffffffffffffffffffffffffffffffff021916908373ffffffffffffffffffffffffffffffffffffffff16021790555080600460006101000a81548173ffffffffffffffffffffffffffffffffffffffff021916908373ffffffffffffffffffffffffffffffffffffffff160217905550600260009054906101000a900473ffffffffffffffffffffffffffffffffffffffff1673ffffffffffffffffffffffffffffffffffffffff166370a08231306040518263ffffffff1660e01b81526004016103f391906105e2565b602060405180830381865afa158015610410573d6000803e3d6000fd5b505050506040513d601f19601f8201168201806040525081019061043491906107f4565b600c8190555050505050610821565b6000600160009054906101000a900473ffffffffffffffffffffffffffffffffffffffff16905081600160006101000a81548173ffffffffffffffffffffffffffffffffffffffff021916908373ffffffffffffffffffffffffffffffffffffffff1602179055508173ffffffffffffffffffffffffffffffffffffffff168173ffffffffffffffffffffffffffffffffffffffff167f8be0079c531659141344cd1fd0a4f28419497f9722a3daafe3b4186f6b6457e060405160405180910390a35050565b600080fd5b600073ffffffffffffffffffffffffffffffffffffffff82169050919050565b60006105398261050e565b9050919050565b6105498161052e565b811461055457600080fd5b50565b60008151905061056681610540565b92915050565b6000806000806080858703121561058657610585610509565b5b600061059487828801610557565b94505060206105a587828801610557565b93505060406105b687828801610557565b92505060606105c787828801610557565b91505092959194509250565b6105dc8161052e565b82525050565b60006020820190506105f760008301846105d3565b92915050565b600082825260208201905092915050565b7f4d43543a207a65726f2061646472657373000000000000000000000000000000600082015250565b60006106446011836105fd565b915061064f8261060e565b602082019050919050565b6000602082019050818103600083015261067381610637565b9050919050565b7f555344543a207a65726f20616464726573730000000000000000000000000000600082015250565b60006106b06012836105fd565b91506106bb8261067a565b602082019050919050565b600060208201905081810360008301526106df816106a3565b9050919050565b7f54726561737572793a207a65726f206164647265737300000000000000000000600082015250565b600061071c6016836105fd565b9150610727826106e6565b602082019050919050565b6000602082019050818103600083015261074b8161070f565b9050919050565b7f507974683a207a65726f20616464726573730000000000000000000000000000600082015250565b60006107886012836105fd565b915061079382610752565b602082019050919050565b600060208201905081810360008301526107b78161077b565b9050919050565b6000819050919050565b6107d1816107be565b81146107dc57600080fd5b50565b6000815190506107ee816107c8565b92915050565b60006020828403121561080a57610809610509565b5b6000610818848285016107df565b91505092915050565b61361a806108306000396000f3fe6080604052600436106102345760003560e01c80638da5cb5b1161012e578063db2e21bc116100ab578063e9bc18011161006f578063e9bc180114610789578063ef952568146107b4578063f2fde38b146107cb578063f7a182f5146107f4578063f98d06f01461081f5761023b565b8063db2e21bc146106b5578063e086e5ec146106cc578063e36465a3146106e3578063e6672fe714610721578063e730395a1461074c5761023b565b8063a98ad46c116100f2578063a98ad46c146105e0578063bf5839031461060b578063c031a66f14610636578063c5b1c7d014610673578063c9e904be1461068a5761023b565b80638da5cb5b1461050c5780639f55029314610537578063a5f0dea214610563578063a7c601601461058e578063a8602fea146105b75761023b565b80634626402b116101bc5780636ea33e4e116101805780636ea33e4e14610473578063715018a61461049e5780638456cb59146104b557806389476069146104cc5780638d8f2adb146104f55761023b565b80634626402b146103b057806358a687ec146103db5780635bbf7491146103f25780635c975abb1461041d57806367c9b017146104485761023b565b80632b2da7c8116102035780632b2da7c8146102dd5780632de8f4501461031a578063362e496b146103455780633aecd0e31461035c5780633f4ba83a146103995761023b565b80630905f56014610240578063150d283d1461026b5780631aae8491146102755780631d634fb2146102a05761023b565b3661023b57005b600080fd5b34801561024c57600080fd5b5061025561084a565b60405161026291906125e9565b60405180910390f35b61027361085d565b005b34801561028157600080fd5b5061028a610c35565b604051610297919061261d565b60405180910390f35b3480156102ac57600080fd5b506102c760048036038101906102c29190612673565b610c3d565b6040516102d4919061261d565b60405180910390f35b3480156102e957600080fd5b5061030460048036038101906102ff91906126fe565b610c75565b604051610311919061261d565b60405180910390f35b34801561032657600080fd5b5061032f610c8d565b60405161033c919061261d565b60405180910390f35b34801561035157600080fd5b5061035a610c96565b005b34801561036857600080fd5b50610383600480360381019061037e91906126fe565b610e63565b604051610390919061261d565b60405180910390f35b3480156103a557600080fd5b506103ae610eac565b005b3480156103bc57600080fd5b506103c5610f14565b6040516103d2919061273a565b60405180910390f35b3480156103e757600080fd5b506103f0610f3a565b005b3480156103fe57600080fd5b50610407610f8b565b604051610414919061276e565b60405180910390f35b34801561042957600080fd5b50610432610fb2565b60405161043f91906125e9565b60405180910390f35b34801561045457600080fd5b5061045d610fc5565b60405161046a919061261d565b60405180910390f35b34801561047f57600080fd5b506104886111cb565b604051610495919061261d565b60405180910390f35b3480156104aa57600080fd5b506104b36111d1565b005b3480156104c157600080fd5b506104ca6111e5565b005b3480156104d857600080fd5b506104f360048036038101906104ee91906126fe565b61124d565b005b34801561050157600080fd5b5061050a61149b565b005b34801561051857600080fd5b50610521611664565b60405161052e919061273a565b60405180910390f35b34801561054357600080fd5b5061054c61168e565b60405161055a929190612789565b60405180910390f35b34801561056f57600080fd5b5061057861169f565b60405161058591906125e9565b60405180910390f35b34801561059a57600080fd5b506105b560048036038101906105b09190612673565b6116b2565b005b3480156105c357600080fd5b506105de60048036038101906105d991906126fe565b611aa9565b005b3480156105ec57600080fd5b506105f5611ba7565b6040516106029190612811565b60405180910390f35b34801561061757600080fd5b50610620611bcd565b60405161062d919061261d565b60405180910390f35b34801561064257600080fd5b5061065d600480360381019061065891906126fe565b611bd3565b60405161066a919061261d565b60405180910390f35b34801561067f57600080fd5b50610688611beb565b005b34801561069657600080fd5b5061069f611c3c565b6040516106ac919061261d565b60405180910390f35b3480156106c157600080fd5b506106ca611c42565b005b3480156106d857600080fd5b506106e1611f5a565b005b3480156106ef57600080fd5b5061070a600480360381019061070591906126fe565b6120b3565b604051610718929190612789565b60405180910390f35b34801561072d57600080fd5b5061073661213f565b6040516107439190612811565b60405180910390f35b34801561075857600080fd5b50610773600480360381019061076e91906126fe565b612165565b604051610780919061261d565b60405180910390f35b34801561079557600080fd5b5061079e61217d565b6040516107ab919061261d565b60405180910390f35b3480156107c057600080fd5b506107c9612182565b005b3480156107d757600080fd5b506107f260048036038101906107ed91906126fe565b6121d3565b005b34801561080057600080fd5b50610809612259565b604051610816919061261d565b60405180910390f35b34801561082b57600080fd5b50610834612260565b604051610841919061284d565b60405180910390f35b600860019054906101000a900460ff1681565b610865612286565b600d60009054906101000a900460ff16156108b5576040517f08c379a00000000000000000000000000000000000000000000000000000000081526004016108ac906128c5565b60405180910390fd5b600860019054906101000a900460ff1615610905576040517f08c379a00000000000000000000000000000000000000000000000000000000081526004016108fc90612957565b60405180910390fd5b60003411610948576040517f08c379a000000000000000000000000000000000000000000000000000000000815260040161093f906129c3565b60405180910390fd5b600860009054906101000a900460ff1615610998576040517f08c379a000000000000000000000000000000000000000000000000000000000815260040161098f90612a2f565b60405180910390fd5b60006109a2610fc5565b90506000670de0b6b3a764000082346109bb9190612a7e565b6109c59190612aef565b90506305f5e100811015610a0e576040517f08c379a0000000000000000000000000000000000000000000000000000000008152600401610a0590612b6c565b60405180910390fd5b640ba43b7400811115610a56576040517f08c379a0000000000000000000000000000000000000000000000000000000008152600401610a4d90612bd8565b60405180910390fd5b6000610a6182610c3d565b9050600c54811115610aa8576040517f08c379a0000000000000000000000000000000000000000000000000000000008152600401610a9f90612c44565b60405180910390fd5b80600c6000828254610aba9190612c64565b925050819055503460066000828254610ad39190612c98565b9250508190555034600960003373ffffffffffffffffffffffffffffffffffffffff1673ffffffffffffffffffffffffffffffffffffffff1681526020019081526020016000206000828254610b299190612c98565b9250508190555080600b60003373ffffffffffffffffffffffffffffffffffffffff1673ffffffffffffffffffffffffffffffffffffffff1681526020019081526020016000206000828254610b7f9190612c98565b925050819055503373ffffffffffffffffffffffffffffffffffffffff167f8fafebcaf9d154343dad25669bfa277f4fbacd7ac6b0c4fed522580e040a0f338383604051610bce929190612789565b60405180910390a26000600c5403610c28576001600860006101000a81548160ff0219169083151502179055507ff33fd39ddc653e5f9033d50b852a4e85dc19ab2e3553927ce281aa99f9718c5d60405160405180910390a15b505050610c336122cc565b565b6305f5e10081565b6000624c4b406103e8670de0b6b3a764000084610c5a9190612a7e565b610c649190612a7e565b610c6e9190612aef565b9050919050565b600a6020528060005260406000206000915090505481565b640ba43b740081565b610c9e6122d6565b6000600360009054906101000a900473ffffffffffffffffffffffffffffffffffffffff1673ffffffffffffffffffffffffffffffffffffffff166370a08231306040518263ffffffff1660e01b8152600401610cfb919061273a565b602060405180830381865afa158015610d18573d6000803e3d6000fd5b505050506040513d601f19601f82011682018060405250810190610d3c9190612ce1565b905060008111610d81576040517f08c379a0000000000000000000000000000000000000000000000000000000008152600401610d7890612d5a565b60405180910390fd5b610df0600560009054906101000a900473ffffffffffffffffffffffffffffffffffffffff1682600360009054906101000a900473ffffffffffffffffffffffffffffffffffffffff1673ffffffffffffffffffffffffffffffffffffffff1661235d9092919063ffffffff16565b600360009054906101000a900473ffffffffffffffffffffffffffffffffffffffff1673ffffffffffffffffffffffffffffffffffffffff167feaff4b37086828766ad3268786972c0cd24259d4c87a80f9d3963a3c3d999b0d82604051610e58919061261d565b60405180910390a250565b6000600b60008373ffffffffffffffffffffffffffffffffffffffff1673ffffffffffffffffffffffffffffffffffffffff168152602001908152602001600020549050919050565b610eb46122d6565b6000600d60006101000a81548160ff0219169083151502179055503373ffffffffffffffffffffffffffffffffffffffff167f5b65b0c1363b3003db9bcc5e1fd8805a6d6bf5bf6dc9d3431ee4494cd7d1176660405160405180910390a2565b600560009054906101000a900473ffffffffffffffffffffffffffffffffffffffff1681565b610f426122d6565b6001600860006101000a81548160ff0219169083151502179055507ff33fd39ddc653e5f9033d50b852a4e85dc19ab2e3553927ce281aa99f9718c5d60405160405180910390a1565b7fff61491a931112ddf1bd8147cd1b641375f79f5825126d665480874634fd0ace60001b81565b600d60009054906101000a900460ff1681565b600080600460009054906101000a900473ffffffffffffffffffffffffffffffffffffffff1673ffffffffffffffffffffffffffffffffffffffff1663a4ae35e07fff61491a931112ddf1bd8147cd1b641375f79f5825126d665480874634fd0ace60001b60786040518363ffffffff1660e01b8152600401611049929190612d7a565b608060405180830381865afa158015611066573d6000803e3d6000fd5b505050506040513d601f19601f8201168201806040525081019061108a9190612f5e565b90506000816000015160070b136110d6576040517f08c379a00000000000000000000000000000000000000000000000000000000081526004016110cd90612ffd565b60405180910390fd5b606481600001516110e7919061301d565b67ffffffffffffffff16816020015167ffffffffffffffff161115611141576040517f08c379a0000000000000000000000000000000000000000000000000000000008152600401611138906130c0565b60405180910390fd5b7ffffffffffffffffffffffffffffffffffffffffffffffffffffffffffffffff8816040015160030b146111aa576040517f08c379a00000000000000000000000000000000000000000000000000000000081526004016111a19061312c565b60405180910390fd5b6064816000015167ffffffffffffffff166111c59190612aef565b91505090565b60075481565b6111d96122d6565b6111e360006123dc565b565b6111ed6122d6565b6001600d60006101000a81548160ff0219169083151502179055503373ffffffffffffffffffffffffffffffffffffffff167f81990fd9a5c552b8e3677917d8a03c07678f0d2cb68f88b634aca2022e9bd19f60405160405180910390a2565b6112556122d6565b600260009054906101000a900473ffffffffffffffffffffffffffffffffffffffff1673ffffffffffffffffffffffffffffffffffffffff168173ffffffffffffffffffffffffffffffffffffffff16036112e5576040517f08c379a00000000000000000000000000000000000000000000000000000000081526004016112dc90613198565b60405180910390fd5b600860019054906101000a900460ff1615611335576040517f08c379a000000000000000000000000000000000000000000000000000000000815260040161132c9061322a565b60405180910390fd5b600081905060008173ffffffffffffffffffffffffffffffffffffffff166370a08231306040518263ffffffff1660e01b8152600401611375919061273a565b602060405180830381865afa158015611392573d6000803e3d6000fd5b505050506040513d601f19601f820116820180604052508101906113b69190612ce1565b9050600081116113fb576040517f08c379a00000000000000000000000000000000000000000000000000000000081526004016113f290613296565b60405180910390fd5b611448600560009054906101000a900473ffffffffffffffffffffffffffffffffffffffff16828473ffffffffffffffffffffffffffffffffffffffff1661235d9092919063ffffffff16565b8273ffffffffffffffffffffffffffffffffffffffff167feaff4b37086828766ad3268786972c0cd24259d4c87a80f9d3963a3c3d999b0d8260405161148e919061261d565b60405180910390a2505050565b6114a3612286565b600860009054906101000a900460ff166114f2576040517f08c379a00000000000000000000000000000000000000000000000000000000081526004016114e990613302565b60405180910390fd5b6000600b60003373ffffffffffffffffffffffffffffffffffffffff1673ffffffffffffffffffffffffffffffffffffffff16815260200190815260200160002054905060008111611579576040517f08c379a000000000000000000000000000000000000000000000000000000000815260040161157090613296565b60405180910390fd5b6000600b60003373ffffffffffffffffffffffffffffffffffffffff1673ffffffffffffffffffffffffffffffffffffffff1681526020019081526020016000208190555061160b3382600260009054906101000a900473ffffffffffffffffffffffffffffffffffffffff1673ffffffffffffffffffffffffffffffffffffffff1661235d9092919063ffffffff16565b3373ffffffffffffffffffffffffffffffffffffffff167f6352c5382c4a4578e712449ca65e83cdb392d045dfcf1cad9615189db2da244b82604051611651919061261d565b60405180910390a2506116626122cc565b565b6000600160009054906101000a900473ffffffffffffffffffffffffffffffffffffffff16905090565b600080600654600754915091509091565b600860009054906101000a900460ff1681565b6116ba612286565b600d60009054906101000a900460ff161561170a576040517f08c379a0000000000000000000000000000000000000000000000000000000008152600401611701906128c5565b60405180910390fd5b600860019054906101000a900460ff161561175a576040517f08c379a000000000000000000000000000000000000000000000000000000000815260040161175190612957565b60405180910390fd5b6000811161179d576040517f08c379a00000000000000000000000000000000000000000000000000000000081526004016117949061336e565b60405180910390fd5b600860009054906101000a900460ff16156117ed576040517f08c379a00000000000000000000000000000000000000000000000000000000081526004016117e490612a2f565b60405180910390fd5b6305f5e100811015611834576040517f08c379a000000000000000000000000000000000000000000000000000000000815260040161182b90612b6c565b60405180910390fd5b640ba43b740081111561187c576040517f08c379a000000000000000000000000000000000000000000000000000000000815260040161187390612bd8565b60405180910390fd5b600061188782610c3d565b9050600c548111156118ce576040517f08c379a00000000000000000000000000000000000000000000000000000000081526004016118c590612c44565b60405180910390fd5b61191d333084600360009054906101000a900473ffffffffffffffffffffffffffffffffffffffff1673ffffffffffffffffffffffffffffffffffffffff166124a2909392919063ffffffff16565b80600c600082825461192f9190612c64565b9250508190555081600760008282546119489190612c98565b9250508190555081600a60003373ffffffffffffffffffffffffffffffffffffffff1673ffffffffffffffffffffffffffffffffffffffff168152602001908152602001600020600082825461199e9190612c98565b9250508190555080600b60003373ffffffffffffffffffffffffffffffffffffffff1673ffffffffffffffffffffffffffffffffffffffff16815260200190815260200160002060008282546119f49190612c98565b925050819055503373ffffffffffffffffffffffffffffffffffffffff167f8fafebcaf9d154343dad25669bfa277f4fbacd7ac6b0c4fed522580e040a0f338383604051611a43929190612789565b60405180910390a26000600c5403611a9d576001600860006101000a81548160ff0219169083151502179055507ff33fd39ddc653e5f9033d50b852a4e85dc19ab2e3553927ce281aa99f9718c5d60405160405180910390a15b50611aa66122cc565b50565b611ab16122d6565b600073ffffffffffffffffffffffffffffffffffffffff168173ffffffffffffffffffffffffffffffffffffffff1603611b20576040517f08c379a0000000000000000000000000000000000000000000000000000000008152600401611b17906133da565b60405180910390fd5b80600560006101000a81548173ffffffffffffffffffffffffffffffffffffffff021916908373ffffffffffffffffffffffffffffffffffffffff1602179055508073ffffffffffffffffffffffffffffffffffffffff167f97c79b3848e51f57983ac89e4403452655c8d83ceba8199011de63a74f60d1a760405160405180910390a250565b600360009054906101000a900473ffffffffffffffffffffffffffffffffffffffff1681565b600c5481565b600b6020528060005260406000206000915090505481565b611bf36122d6565b6001600860016101000a81548160ff0219169083151502179055507f2064d51aa5a8bd67928c7675e267e05c67ad5adf7c9098d0a602d01f36fda9c560405160405180910390a1565b60065481565b611c4a612286565b600860019054906101000a900460ff16611c99576040517f08c379a0000000000000000000000000000000000000000000000000000000008152600401611c9090613446565b60405180910390fd5b6000600960003373ffffffffffffffffffffffffffffffffffffffff1673ffffffffffffffffffffffffffffffffffffffff1681526020019081526020016000205490506000600a60003373ffffffffffffffffffffffffffffffffffffffff1673ffffffffffffffffffffffffffffffffffffffff1681526020019081526020016000205490506000600960003373ffffffffffffffffffffffffffffffffffffffff1673ffffffffffffffffffffffffffffffffffffffff168152602001908152602001600020819055506000600a60003373ffffffffffffffffffffffffffffffffffffffff1673ffffffffffffffffffffffffffffffffffffffff168152602001908152602001600020819055506000600b60003373ffffffffffffffffffffffffffffffffffffffff1673ffffffffffffffffffffffffffffffffffffffff168152602001908152602001600020819055506000821115611ea75760003373ffffffffffffffffffffffffffffffffffffffff1683604051611e1f90613497565b60006040518083038185875af1925050503d8060008114611e5c576040519150601f19603f3d011682016040523d82523d6000602084013e611e61565b606091505b5050905080611ea5576040517f08c379a0000000000000000000000000000000000000000000000000000000008152600401611e9c906134f8565b60405180910390fd5b505b6000811115611efe57611efd3382600360009054906101000a900473ffffffffffffffffffffffffffffffffffffffff1673ffffffffffffffffffffffffffffffffffffffff1661235d9092919063ffffffff16565b5b3373ffffffffffffffffffffffffffffffffffffffff167fbb757047c2b5f3974fe26b7c10f732e7bce710b0952a71082702781e62ae05958383604051611f46929190612789565b60405180910390a25050611f586122cc565b565b611f626122d6565b600047905060008111611faa576040517f08c379a0000000000000000000000000000000000000000000000000000000008152600401611fa190613564565b60405180910390fd5b6000600560009054906101000a900473ffffffffffffffffffffffffffffffffffffffff1673ffffffffffffffffffffffffffffffffffffffff1682604051611ff290613497565b60006040518083038185875af1925050503d806000811461202f576040519150601f19603f3d011682016040523d82523d6000602084013e612034565b606091505b5050905080612078576040517f08c379a000000000000000000000000000000000000000000000000000000000815260040161206f906134f8565b60405180910390fd5b7f7909752b76037727fecfc6c1abb7264306fd284ff7be21e2aa09bf2fdc00579d826040516120a7919061261d565b60405180910390a15050565b600080600960008473ffffffffffffffffffffffffffffffffffffffff1673ffffffffffffffffffffffffffffffffffffffff16815260200190815260200160002054600a60008573ffffffffffffffffffffffffffffffffffffffff1673ffffffffffffffffffffffffffffffffffffffff1681526020019081526020016000205491509150915091565b600260009054906101000a900473ffffffffffffffffffffffffffffffffffffffff1681565b60096020528060005260406000206000915090505481565b607881565b61218a6122d6565b6000600860016101000a81548160ff0219169083151502179055507f0ba07ae52ba5d382f0af001934b3681d1490b6116d058e1b4bc448b15152280e60405160405180910390a1565b6121db6122d6565b600073ffffffffffffffffffffffffffffffffffffffff168173ffffffffffffffffffffffffffffffffffffffff160361224d5760006040517f1e4fbdf7000000000000000000000000000000000000000000000000000000008152600401612244919061273a565b60405180910390fd5b612256816123dc565b50565b624c4b4081565b600460009054906101000a900473ffffffffffffffffffffffffffffffffffffffff1681565b6002600054036122c2576040517f3ee5aeb500000000000000000000000000000000000000000000000000000000815260040160405180910390fd5b6002600081905550565b6001600081905550565b6122de612524565b73ffffffffffffffffffffffffffffffffffffffff166122fc611664565b73ffffffffffffffffffffffffffffffffffffffff161461235b5761231f612524565b6040517f118cdaa7000000000000000000000000000000000000000000000000000000008152600401612352919061273a565b60405180910390fd5b565b6123d7838473ffffffffffffffffffffffffffffffffffffffff1663a9059cbb8585604051602401612390929190613584565b604051602081830303815290604052915060e01b6020820180517bffffffffffffffffffffffffffffffffffffffffffffffffffffffff838183161783525050505061252c565b505050565b6000600160009054906101000a900473ffffffffffffffffffffffffffffffffffffffff16905081600160006101000a81548173ffffffffffffffffffffffffffffffffffffffff021916908373ffffffffffffffffffffffffffffffffffffffff1602179055508173ffffffffffffffffffffffffffffffffffffffff168173ffffffffffffffffffffffffffffffffffffffff167f8be0079c531659141344cd1fd0a4f28419497f9722a3daafe3b4186f6b6457e060405160405180910390a35050565b61251e848573ffffffffffffffffffffffffffffffffffffffff166323b872dd8686866040516024016124d7939291906135ad565b604051602081830303815290604052915060e01b6020820180517bffffffffffffffffffffffffffffffffffffffffffffffffffffffff838183161783525050505061252c565b50505050565b600033905090565b600080602060008451602086016000885af18061254f576040513d6000823e3d81fd5b3d92506000519150506000821461256a576001811415612586565b60008473ffffffffffffffffffffffffffffffffffffffff163b145b156125c857836040517f5274afe70000000000000000000000000000000000000000000000000000000081526004016125bf919061273a565b60405180910390fd5b50505050565b60008115159050919050565b6125e3816125ce565b82525050565b60006020820190506125fe60008301846125da565b92915050565b6000819050919050565b61261781612604565b82525050565b6000602082019050612632600083018461260e565b92915050565b6000604051905090565b600080fd5b61265081612604565b811461265b57600080fd5b50565b60008135905061266d81612647565b92915050565b60006020828403121561268957612688612642565b5b60006126978482850161265e565b91505092915050565b600073ffffffffffffffffffffffffffffffffffffffff82169050919050565b60006126cb826126a0565b9050919050565b6126db816126c0565b81146126e657600080fd5b50565b6000813590506126f8816126d2565b92915050565b60006020828403121561271457612713612642565b5b6000612722848285016126e9565b91505092915050565b612734816126c0565b82525050565b600060208201905061274f600083018461272b565b92915050565b6000819050919050565b61276881612755565b82525050565b6000602082019050612783600083018461275f565b92915050565b600060408201905061279e600083018561260e565b6127ab602083018461260e565b9392505050565b6000819050919050565b60006127d76127d26127cd846126a0565b6127b2565b6126a0565b9050919050565b60006127e9826127bc565b9050919050565b60006127fb826127de565b9050919050565b61280b816127f0565b82525050565b60006020820190506128266000830184612802565b92915050565b6000612837826127de565b9050919050565b6128478161282c565b82525050565b6000602082019050612862600083018461283e565b92915050565b600082825260208201905092915050565b7f436f6e7472616374206973207061757365640000000000000000000000000000600082015250565b60006128af601283612868565b91506128ba82612879565b602082019050919050565b600060208201905081810360008301526128de816128a2565b9050919050565b7f456d657267656e6379206d6f64653a207075726368617365732064697361626c60008201527f6564000000000000000000000000000000000000000000000000000000000000602082015250565b6000612941602283612868565b915061294c826128e5565b604082019050919050565b6000602082019050818103600083015261297081612934565b9050919050565b7f4e6f204554482073656e74000000000000000000000000000000000000000000600082015250565b60006129ad600b83612868565b91506129b882612977565b602082019050919050565b600060208201905081810360008301526129dc816129a0565b9050919050565b7f53616c652069732066696e697368656400000000000000000000000000000000600082015250565b6000612a19601083612868565b9150612a24826129e3565b602082019050919050565b60006020820190508181036000830152612a4881612a0c565b9050919050565b7f4e487b7100000000000000000000000000000000000000000000000000000000600052601160045260246000fd5b6000612a8982612604565b9150612a9483612604565b9250828202612aa281612604565b91508282048414831517612ab957612ab8612a4f565b5b5092915050565b7f4e487b7100000000000000000000000000000000000000000000000000000000600052601260045260246000fd5b6000612afa82612604565b9150612b0583612604565b925082612b1557612b14612ac0565b5b828204905092915050565b7f42656c6f77206d696e696d756d20707572636861736500000000000000000000600082015250565b6000612b56601683612868565b9150612b6182612b20565b602082019050919050565b60006020820190508181036000830152612b8581612b49565b9050919050565b7f45786365656473206d6178696d756d2070757263686173650000000000000000600082015250565b6000612bc2601883612868565b9150612bcd82612b8c565b602082019050919050565b60006020820190508181036000830152612bf181612bb5565b9050919050565b7f4e6f7420656e6f75676820746f6b656e732072656d61696e696e670000000000600082015250565b6000612c2e601b83612868565b9150612c3982612bf8565b602082019050919050565b60006020820190508181036000830152612c5d81612c21565b9050919050565b6000612c6f82612604565b9150612c7a83612604565b9250828203905081811115612c9257612c91612a4f565b5b92915050565b6000612ca382612604565b9150612cae83612604565b9250828201905080821115612cc657612cc5612a4f565b5b92915050565b600081519050612cdb81612647565b92915050565b600060208284031215612cf757612cf6612642565b5b6000612d0584828501612ccc565b91505092915050565b7f4e6f205553445420746f20776974686472617700000000000000000000000000600082015250565b6000612d44601383612868565b9150612d4f82612d0e565b602082019050919050565b60006020820190508181036000830152612d7381612d37565b9050919050565b6000604082019050612d8f600083018561275f565b612d9c602083018461260e565b9392505050565b600080fd5b6000601f19601f8301169050919050565b7f4e487b7100000000000000000000000000000000000000000000000000000000600052604160045260246000fd5b612df182612da8565b810181811067ffffffffffffffff82111715612e1057612e0f612db9565b5b80604052505050565b6000612e23612638565b9050612e2f8282612de8565b919050565b60008160070b9050919050565b612e4a81612e34565b8114612e5557600080fd5b50565b600081519050612e6781612e41565b92915050565b600067ffffffffffffffff82169050919050565b612e8a81612e6d565b8114612e9557600080fd5b50565b600081519050612ea781612e81565b92915050565b60008160030b9050919050565b612ec381612ead565b8114612ece57600080fd5b50565b600081519050612ee081612eba565b92915050565b600060808284031215612efc57612efb612da3565b5b612f066080612e19565b90506000612f1684828501612e58565b6000830152506020612f2a84828501612e98565b6020830152506040612f3e84828501612ed1565b6040830152506060612f5284828501612ccc565b60608301525092915050565b600060808284031215612f7457612f73612642565b5b6000612f8284828501612ee6565b91505092915050565b7f496e76616c696420707269636520666565643a206e65676174697665206f722060008201527f7a65726f2076616c756500000000000000000000000000000000000000000000602082015250565b6000612fe7602a83612868565b9150612ff282612f8b565b604082019050919050565b6000602082019050818103600083015261301681612fda565b9050919050565b600061302882612e6d565b915061303383612e6d565b92508261304357613042612ac0565b5b828204905092915050565b7f507269636520636f6e666964656e636520696e74657276616c20746f6f206c6160008201527f7267650000000000000000000000000000000000000000000000000000000000602082015250565b60006130aa602383612868565b91506130b58261304e565b604082019050919050565b600060208201905081810360008301526130d98161309d565b9050919050565b7f556e6578706563746564207072696365206665656420646563696d616c730000600082015250565b6000613116601e83612868565b9150613121826130e0565b602082019050919050565b6000602082019050818103600083015261314581613109565b9050919050565b7f43616e6e6f742077697468647261772073616c6520746f6b656e730000000000600082015250565b6000613182601b83612868565b915061318d8261314c565b602082019050919050565b600060208201905081810360008301526131b181613175565b9050919050565b7f456d657267656e6379206d6f6465206163746976653a2075736520656d65726760008201527f656e637957697468647261770000000000000000000000000000000000000000602082015250565b6000613214602c83612868565b915061321f826131b8565b604082019050919050565b6000602082019050818103600083015261324381613207565b9050919050565b7f4e6f20746f6b656e7320746f2077697468647261770000000000000000000000600082015250565b6000613280601583612868565b915061328b8261324a565b602082019050919050565b600060208201905081810360008301526132af81613273565b9050919050565b7f53616c65206e6f742066696e616c697a65642079657400000000000000000000600082015250565b60006132ec601683612868565b91506132f7826132b6565b602082019050919050565b6000602082019050818103600083015261331b816132df565b9050919050565b7f4e6f20555344542073656e740000000000000000000000000000000000000000600082015250565b6000613358600c83612868565b915061336382613322565b602082019050919050565b600060208201905081810360008301526133878161334b565b9050919050565b7f496e76616c696420616464726573730000000000000000000000000000000000600082015250565b60006133c4600f83612868565b91506133cf8261338e565b602082019050919050565b600060208201905081810360008301526133f3816133b7565b9050919050565b7f456d657267656e6379206d6f6465206e6f742061637469766500000000000000600082015250565b6000613430601983612868565b915061343b826133fa565b602082019050919050565b6000602082019050818103600083015261345f81613423565b9050919050565b600081905092915050565b50565b6000613481600083613466565b915061348c82613471565b600082019050919050565b60006134a282613474565b9150819050919050565b7f4661696c656420746f2073656e64204554480000000000000000000000000000600082015250565b60006134e2601283612868565b91506134ed826134ac565b602082019050919050565b60006020820190508181036000830152613511816134d5565b9050919050565b7f4e6f2045544820746f2077697468647261770000000000000000000000000000600082015250565b600061354e601283612868565b915061355982613518565b602082019050919050565b6000602082019050818103600083015261357d81613541565b9050919050565b6000604082019050613599600083018561272b565b6135a6602083018461260e565b9392505050565b60006060820190506135c2600083018661272b565b6135cf602083018561272b565b6135dc604083018461260e565b94935050505056fea26469706673582212204331c47a0bc846c424a45c1c8c153fd52d4616e7ff64db64c61501822187875764736f6c634300081b0033",
  "linkReferences": {},
  "deployedLinkReferences": {}
}