{
  "contractName": "MoonCatStaking",
  "abi": [
    {
      "inputs": [
        {
          "internalType": "contract MoonCatToken",
          "name": "_token",
          "type": "address"
        }
      ],
      "stateMutability": "nonpayable",
      "type": "constructor"
    },
    {
      "inputs": [],
      "name": "AccessControlBadConfirmation",
      "type": "error"
    },
    {
      "inputs": [
        {
          "internalType": "address",
          "name": "account",
          "type": "address"
        },
        {
          "internalType": "bytes32",
          "name": "neededRole",
          "type": "bytes32"
        }
      ],
      "name": "AccessControlUnauthorizedAccount",
      "type": "error"
    },
    {
      "inputs": [],
      "name": "EnforcedPause",
      "type": "error"
    },
    {
      "inputs": [],
      "name": "ExpectedPause",
      "type": "error"
    },
    {
      "inputs": [],
      "name": "ReentrancyGuardReentrantCall",
      "type": "error"
    },
    {
      "anonymous": false,
      "inputs": [
        {
          "indexed": true,
          "internalType": "address",
          "name": "by",
          "type": "address"
        }
      ],
      "name": "EmergencyModeEnabled",
      "type": "event"
    },
    {
      "anonymous": false,
      "inputs": [
        {
          "indexed": true,
          "internalType": "address",
          "name": "user",
          "type": "address"
        },
        {
          "indexed": false,
          "internalType": "uint256",
          "name": "amount",
          "type": "uint256"
        },
        {
          "indexed": false,
          "internalType": "uint256",
          "name": "fee",
          "type": "uint256"
        }
      ],
      "name": "EmergencyWithdraw",
      "type": "event"
    },
    {
      "anonymous": false,
      "inputs": [
        {
          "indexed": true,
          "internalType": "address",
          "name": "user",
          "type": "address"
        },
        {
          "indexed": false,
          "internalType": "uint256",
          "name": "amount",
          "type": "uint256"
        },
        {
          "indexed": false,
          "internalType": "uint256",
          "name": "penalty",
          "type": "uint256"
        },
        {
          "indexed": true,
          "internalType": "string",
          "name": "stakeType",
          "type": "string"
        }
      ],
      "name": "ForceUnlocked",
      "type": "event"
    },
    {
      "anonymous": false,
      "inputs": [
        {
          "indexed": false,
          "internalType": "address",
          "name": "account",
          "type": "address"
        }
      ],
      "name": "Paused",
      "type": "event"
    },
    {
      "anonymous": false,
      "inputs": [
        {
          "indexed": true,
          "internalType": "string",
          "name": "stakeType",
          "type": "string"
        },
        {
          "indexed": false,
          "internalType": "uint256",
          "name": "oldRate",
          "type": "uint256"
        },
        {
          "indexed": false,
          "internalType": "uint256",
          "name": "newRate",
          "type": "uint256"
        }
      ],
      "name": "RateChanged",
      "type": "event"
    },
    {
      "anonymous": false,
      "inputs": [
        {
          "indexed": true,
          "internalType": "bytes32",
          "name": "role",
          "type": "bytes32"
        },
        {
          "indexed": true,
          "internalType": "bytes32",
          "name": "previousAdminRole",
          "type": "bytes32"
        },
        {
          "indexed": true,
          "internalType": "bytes32",
          "name": "newAdminRole",
          "type": "bytes32"
        }
      ],
      "name": "RoleAdminChanged",
      "type": "event"
    },
    {
      "anonymous": false,
      "inputs": [
        {
          "indexed": true,
          "internalType": "bytes32",
          "name": "role",
          "type": "bytes32"
        },
        {
          "indexed": true,
          "internalType": "address",
          "name": "account",
          "type": "address"
        },
        {
          "indexed": true,
          "internalType": "address",
          "name": "sender",
          "type": "address"
        }
      ],
      "name": "RoleGranted",
      "type": "event"
    },
    {
      "anonymous": false,
      "inputs": [
        {
          "indexed": true,
          "internalType": "bytes32",
          "name": "role",
          "type": "bytes32"
        },
        {
          "indexed": true,
          "internalType": "address",
          "name": "account",
          "type": "address"
        },
        {
          "indexed": true,
          "internalType": "address",
          "name": "sender",
          "type": "address"
        }
      ],
      "name": "RoleRevoked",
      "type": "event"
    },
    {
      "anonymous": false,
      "inputs": [
        {
          "indexed": true,
          "internalType": "address",
          "name": "user",
          "type": "address"
        },
        {
          "indexed": false,
          "internalType": "uint256",
          "name": "amount",
          "type": "uint256"
        },
        {
          "indexed": false,
          "internalType": "uint256",
          "name": "since",
          "type": "uint256"
        },
        {
          "indexed": true,
          "internalType": "string",
          "name": "stakeType",
          "type": "string"
        }
      ],
      "name": "Staked",
      "type": "event"
    },
    {
      "anonymous": false,
      "inputs": [
        {
          "indexed": true,
          "internalType": "address",
          "name": "user",
          "type": "address"
        },
        {
          "indexed": false,
          "internalType": "uint256",
          "name": "unlockRequestTime",
          "type": "uint256"
        },
        {
          "indexed": true,
          "internalType": "string",
          "name": "stakeType",
          "type": "string"
        }
      ],
      "name": "UnlockRequested",
      "type": "event"
    },
    {
      "anonymous": false,
      "inputs": [
        {
          "indexed": false,
          "internalType": "address",
          "name": "account",
          "type": "address"
        }
      ],
      "name": "Unpaused",
      "type": "event"
    },
    {
      "anonymous": false,
      "inputs": [
        {
          "indexed": true,
          "internalType": "address",
          "name": "user",
          "type": "address"
        },
        {
          "indexed": false,
          "internalType": "uint256",
          "name": "amount",
          "type": "uint256"
        },
        {
          "indexed": false,
          "internalType": "uint256",
          "name": "reward",
          "type": "uint256"
        },
        {
          "indexed": true,
          "internalType": "string",
          "name": "stakeType",
          "type": "string"
        }
      ],
      "name": "Unstaked",
      "type": "event"
    },
    {
      "inputs": [],
      "name": "BASIS_POINTS",
      "outputs": [
        {
          "internalType": "uint256",
          "name": "",
          "type": "uint256"
        }
      ],
      "stateMutability": "view",
      "type": "function",
      "constant": true
    },
    {
      "inputs": [],
      "name": "DEFAULT_ADMIN_ROLE",
      "outputs": [
        {
          "internalType": "bytes32",
          "name": "",
          "type": "bytes32"
        }
      ],
      "stateMutability": "view",
      "type": "function",
      "constant": true
    },
    {
      "inputs": [],
      "name": "FORCE_UNLOCK_PENALTY",
      "outputs": [
        {
          "internalType": "uint256",
          "name": "",
          "type": "uint256"
        }
      ],
      "stateMutability": "view",
      "type": "function",
      "constant": true
    },
    {
      "inputs": [],
      "name": "GOVERNOR_ROLE",
      "outputs": [
        {
          "internalType": "bytes32",
          "name": "",
          "type": "bytes32"
        }
      ],
      "stateMutability": "view",
      "type": "function",
      "constant": true
    },
    {
      "inputs": [],
      "name": "MAX_RATE_1YEAR",
      "outputs": [
        {
          "internalType": "uint256",
          "name": "",
          "type": "uint256"
        }
      ],
      "stateMutability": "view",
      "type": "function",
      "constant": true
    },
    {
      "inputs": [],
      "name": "MAX_RATE_7DAYS",
      "outputs": [
        {
          "internalType": "uint256",
          "name": "",
          "type": "uint256"
        }
      ],
      "stateMutability": "view",
      "type": "function",
      "constant": true
    },
    {
      "inputs": [],
      "name": "PAUSER_ROLE",
      "outputs": [
        {
          "internalType": "bytes32",
          "name": "",
          "type": "bytes32"
        }
      ],
      "stateMutability": "view",
      "type": "function",
      "constant": true
    },
    {
      "inputs": [],
      "name": "RATE_CHANGE_COOLDOWN",
      "outputs": [
        {
          "internalType": "uint256",
          "name": "",
          "type": "uint256"
        }
      ],
      "stateMutability": "view",
      "type": "function",
      "constant": true
    },
    {
      "inputs": [],
      "name": "UNLOCK_PERIOD_1YEAR",
      "outputs": [
        {
          "internalType": "uint256",
          "name": "",
          "type": "uint256"
        }
      ],
      "stateMutability": "view",
      "type": "function",
      "constant": true
    },
    {
      "inputs": [],
      "name": "UNLOCK_PERIOD_7DAYS",
      "outputs": [
        {
          "internalType": "uint256",
          "name": "",
          "type": "uint256"
        }
      ],
      "stateMutability": "view",
      "type": "function",
      "constant": true
    },
    {
      "inputs": [],
      "name": "emergencyMode",
      "outputs": [
        {
          "internalType": "bool",
          "name": "",
          "type": "bool"
        }
      ],
      "stateMutability": "view",
      "type": "function",
      "constant": true
    },
    {
      "inputs": [],
      "name": "emergencyWithdrawalFee",
      "outputs": [
        {
          "internalType": "uint256",
          "name": "",
          "type": "uint256"
        }
      ],
      "stateMutability": "view",
      "type": "function",
      "constant": true
    },
    {
      "inputs": [
        {
          "internalType": "bytes32",
          "name": "role",
          "type": "bytes32"
        }
      ],
      "name": "getRoleAdmin",
      "outputs": [
        {
          "internalType": "bytes32",
          "name": "",
          "type": "bytes32"
        }
      ],
      "stateMutability": "view",
      "type": "function",
      "constant": true
    },
    {
      "inputs": [
        {
          "internalType": "bytes32",
          "name": "role",
          "type": "bytes32"
        },
        {
          "internalType": "address",
          "name": "account",
          "type": "address"
        }
      ],
      "name": "grantRole",
      "outputs": [],
      "stateMutability": "nonpayable",
      "type": "function"
    },
    {
      "inputs": [
        {
          "internalType": "bytes32",
          "name": "role",
          "type": "bytes32"
        },
        {
          "internalType": "address",
          "name": "account",
          "type": "address"
        }
      ],
      "name": "hasRole",
      "outputs": [
        {
          "internalType": "bool",
          "name": "",
          "type": "bool"
        }
      ],
      "stateMutability": "view",
      "type": "function",
      "constant": true
    },
    {
      "inputs": [],
      "name": "lastRateChange",
      "outputs": [
        {
          "internalType": "uint256",
          "name": "",
          "type": "uint256"
        }
      ],
      "stateMutability": "view",
      "type": "function",
      "constant": true
    },
    {
      "inputs": [],
      "name": "paused",
      "outputs": [
        {
          "internalType": "bool",
          "name": "",
          "type": "bool"
        }
      ],
      "stateMutability": "view",
      "type": "function",
      "constant": true
    },
    {
      "inputs": [
        {
          "internalType": "bytes32",
          "name": "role",
          "type": "bytes32"
        },
        {
          "internalType": "address",
          "name": "callerConfirmation",
          "type": "address"
        }
      ],
      "name": "renounceRole",
      "outputs": [],
      "stateMutability": "nonpayable",
      "type": "function"
    },
    {
      "inputs": [
        {
          "internalType": "bytes32",
          "name": "role",
          "type": "bytes32"
        },
        {
          "internalType": "address",
          "name": "account",
          "type": "address"
        }
      ],
      "name": "revokeRole",
      "outputs": [],
      "stateMutability": "nonpayable",
      "type": "function"
    },
    {
      "inputs": [],
      "name": "rewardRate1Year",
      "outputs": [
        {
          "internalType": "uint256",
          "name": "",
          "type": "uint256"
        }
      ],
      "stateMutability": "view",
      "type": "function",
      "constant": true
    },
    {
      "inputs": [],
      "name": "rewardRate7Days",
      "outputs": [
        {
          "internalType": "uint256",
          "name": "",
          "type": "uint256"
        }
      ],
      "stateMutability": "view",
      "type": "function",
      "constant": true
    },
    {
      "inputs": [
        {
          "internalType": "address",
          "name": "",
          "type": "address"
        }
      ],
      "name": "stakes1Year",
      "outputs": [
        {
          "internalType": "uint256",
          "name": "amount",
          "type": "uint256"
        },
        {
          "internalType": "uint256",
          "name": "since",
          "type": "uint256"
        },
        {
          "internalType": "uint256",
          "name": "unlockRequestTime",
          "type": "uint256"
        },
        {
          "internalType": "bool",
          "name": "isLocked",
          "type": "bool"
        },
        {
          "internalType": "uint256",
          "name": "rewardDebt",
          "type": "uint256"
        }
      ],
      "stateMutability": "view",
      "type": "function",
      "constant": true
    },
    {
      "inputs": [
        {
          "internalType": "address",
          "name": "",
          "type": "address"
        }
      ],
      "name": "stakes7Days",
      "outputs": [
        {
          "internalType": "uint256",
          "name": "amount",
          "type": "uint256"
        },
        {
          "internalType": "uint256",
          "name": "since",
          "type": "uint256"
        },
        {
          "internalType": "uint256",
          "name": "unlockRequestTime",
          "type": "uint256"
        },
        {
          "internalType": "bool",
          "name": "isLocked",
          "type": "bool"
        },
        {
          "internalType": "uint256",
          "name": "rewardDebt",
          "type": "uint256"
        }
      ],
      "stateMutability": "view",
      "type": "function",
      "constant": true
    },
    {
      "inputs": [
        {
          "internalType": "bytes4",
          "name": "interfaceId",
          "type": "bytes4"
        }
      ],
      "name": "supportsInterface",
      "outputs": [
        {
          "internalType": "bool",
          "name": "",
          "type": "bool"
        }
      ],
      "stateMutability": "view",
      "type": "function",
      "constant": true
    },
    {
      "inputs": [],
      "name": "token",
      "outputs": [
        {
          "internalType": "contract MoonCatToken",
          "name": "",
          "type": "address"
        }
      ],
      "stateMutability": "view",
      "type": "function",
      "constant": true
    },
    {
      "inputs": [
        {
          "internalType": "uint256",
          "name": "_amount",
          "type": "uint256"
        }
      ],
      "name": "stake7Days",
      "outputs": [],
      "stateMutability": "nonpayable",
      "type": "function"
    },
    {
      "inputs": [],
      "name": "requestUnlock7Days",
      "outputs": [],
      "stateMutability": "nonpayable",
      "type": "function"
    },
    {
      "inputs": [],
      "name": "unstake7Days",
      "outputs": [],
      "stateMutability": "nonpayable",
      "type": "function"
    },
    {
      "inputs": [],
      "name": "forceUnlock7Days",
      "outputs": [],
      "stateMutability": "nonpayable",
      "type": "function"
    },
    {
      "inputs": [
        {
          "internalType": "uint256",
          "name": "_newRate",
          "type": "uint256"
        }
      ],
      "name": "setRewardRate7Days",
      "outputs": [],
      "stateMutability": "nonpayable",
      "type": "function"
    },
    {
      "inputs": [
        {
          "internalType": "uint256",
          "name": "_newRate",
          "type": "uint256"
        }
      ],
      "name": "setRewardRate1Year",
      "outputs": [],
      "stateMutability": "nonpayable",
      "type": "function"
    },
    {
      "inputs": [],
      "name": "enableEmergencyMode",
      "outputs": [],
      "stateMutability": "nonpayable",
      "type": "function"
    },
    {
      "inputs": [],
      "name": "emergencyWithdraw",
      "outputs": [],
      "stateMutability": "nonpayable",
      "type": "function"
    },
    {
      "inputs": [
        {
          "internalType": "address",
          "name": "user",
          "type": "address"
        }
      ],
      "name": "getPendingRewards7Days",
      "outputs": [
        {
          "internalType": "uint256",
          "name": "",
          "type": "uint256"
        }
      ],
      "stateMutability": "view",
      "type": "function",
      "constant": true
    },
    {
      "inputs": [
        {
          "internalType": "address",
          "name": "account",
          "type": "address"
        }
      ],
      "name": "checkRoles",
      "outputs": [
        {
          "internalType": "bool",
          "name": "isAdmin",
          "type": "bool"
        },
        {
          "internalType": "bool",
          "name": "isGovernor",
          "type": "bool"
        },
        {
          "internalType": "bool",
          "name": "isPauser",
          "type": "bool"
        }
      ],
      "stateMutability": "view",
      "type": "function",
      "constant": true
    },
    {
      "inputs": [],
      "name": "getDebugInfo",
      "outputs": [
        {
          "internalType": "bool",
          "name": "isPaused",
          "type": "bool"
        },
        {
          "internalType": "bool",
          "name": "hasGovernorRole",
          "type": "bool"
        },
        {
          "internalType": "bool",
          "name": "hasAdminRole",
          "type": "bool"
        },
        {
          "internalType": "uint256",
          "name": "currentRate7Days",
          "type": "uint256"
        },
        {
          "internalType": "uint256",
          "name": "currentRate1Year",
          "type": "uint256"
        },
        {
          "internalType": "uint256",
          "name": "lastChangeTime",
          "type": "uint256"
        },
        {
          "internalType": "uint256",
          "name": "timeUntilNextChange",
          "type": "uint256"
        },
        {
          "internalType": "bool",
          "name": "canChangeRate",
          "type": "bool"
        }
      ],
      "stateMutability": "view",
      "type": "function",
      "constant": true
    },
    {
      "inputs": [],
      "name": "pause",
      "outputs": [],
      "stateMutability": "nonpayable",
      "type": "function"
    },
    {
      "inputs": [],
      "name": "unpause",
      "outputs": [],
      "stateMutability": "nonpayable",
      "type": "function"
    }
  ],
  "bytecode": "0x60a06040526103e860085534801561001657600080fd5b50604051611b7b380380611b7b833981016040819052610035916101b8565b60016000556002805460ff191690556001600160a01b03811661009e5760405162461bcd60e51b815260206004820152601c60248201527f546f6b656e2063616e6e6f74206265207a65726f206164647265737300000000604482015260640160405180910390fd5b6001600160a01b0381166080526100b6600033610123565b506100e17f7935bd0ae54bc31f548c14dba4d37c5c64b3f8ca900cb468fb8abd54d5894f5533610123565b5061010c7f65d7a28e3265b37a6474929f336521b332c1681b933f6cb9f3376673440d862a33610123565b505061027a6005556103bf600655426009556101e8565b60008281526001602090815260408083206001600160a01b038516845290915281205460ff166101ae5760008381526001602081815260408084206001600160a01b0387168086529252808420805460ff19169093179092559051339286917f2f8788117e7eff1d82e926ec794901d17c78024a50270940304540a733656f0d9190a45060016101b2565b5060005b92915050565b6000602082840312156101ca57600080fd5b81516001600160a01b03811681146101e157600080fd5b9392505050565b608051611955610226600039600081816105400152818161061e0152818161078a01528181610c2f0152818161118e01526113af01526119556000f3fe608060405234801561001057600080fd5b50600436106102325760003560e01c80638456cb5911610130578063ccc57490116100b8578063dd847c881161007c578063dd847c881461046b578063e1f1c4a7146104d9578063e63ab1e9146104e2578063fb30eba8146104f7578063fc0c546a1461053b57600080fd5b8063ccc574901461042a578063cda01fc31461043f578063d547741f14610447578063da71ae791461045a578063db2e21bc1461046357600080fd5b8063a217fddf116100ff578063a217fddf146103fe578063ba3f1b5914610406578063c513b6001461040e578063c541f83914610417578063c5b1c7d01461042257600080fd5b80638456cb59146103bd57806386c39df4146103c55780638bd4dfe3146103d857806391d14854146103eb57600080fd5b806336568abe116101be578063690cc59911610182578063690cc599146103995780636abcc092146103a25780636d3995c5146103ab5780636eaa7ba2146103b357806378a95e07146103b357600080fd5b806336568abe146103615780633f4ba83a1461037457806349730fc11461037c57806356e586ba146103855780635c975abb1461038e57600080fd5b8063187342f611610205578063187342f614610298578063237b51b2146102ca578063248a9ca31461031757806329da3d931461033b5780632f2ff15d1461034e57600080fd5b806301ffc9a71461023757806308520b861461025f5780630905f560146102765780630f544ac714610283575b600080fd5b61024a610245366004611731565b61057a565b60405190151581526020015b60405180910390f35b61026860085481565b604051908152602001610256565b60075461024a9060ff1681565b610296610291366004611762565b6105b1565b005b6102ab6102a6366004611797565b6108b4565b6040805193151584529115156020840152151590820152606001610256565b6102d26108ff565b6040805198151589529615156020890152941515958701959095526060860192909252608085015260a084015260c0830191909152151560e082015261010001610256565b610268610325366004611762565b6000908152600160208190526040909120015490565b610296610349366004611762565b6109a2565b61029661035c3660046117b2565b610adb565b61029661036f3660046117b2565b610b07565b610296610b3f565b61026860055481565b610268610dac81565b60025460ff1661024a565b6102686107d081565b61026860065481565b610296610b5f565b61026862093a8081565b610296610d1a565b6102966103d3366004611762565b610d3a565b6102686103e6366004611797565b610e33565b61024a6103f93660046117b2565b610e98565b610268600081565b610296610ec3565b61026861138881565b6102686301e1338081565b61029661100a565b6102686000805160206118e083398151915281565b610296611058565b6102966104553660046117b2565b611276565b61026860095481565b61029661129c565b6104af610479366004611797565b60046020819052600091825260409091208054600182015460028301546003840154939094015491939092909160ff9091169085565b6040805195865260208601949094529284019190915215156060830152608082015260a001610256565b61026861271081565b61026860008051602061190083398151915281565b6104af610505366004611797565b60036020819052600091825260409091208054600182015460028301549383015460049093015491939092909160ff9091169085565b6105627f000000000000000000000000000000000000000000000000000000000000000081565b6040516001600160a01b039091168152602001610256565b60006001600160e01b03198216637965db0b60e01b14806105ab57506301ffc9a760e01b6001600160e01b03198316145b92915050565b6105b9611481565b6105c16114ab565b600081116106075760405162461bcd60e51b815260206004820152600e60248201526d043616e6e6f74207374616b6520360941b60448201526064015b60405180910390fd5b6040516370a0823160e01b815233600482015281907f00000000000000000000000000000000000000000000000000000000000000006001600160a01b0316906370a0823190602401602060405180830381865afa15801561066d573d6000803e3d6000fd5b505050506040513d601f19601f8201168201806040525081019061069191906117de565b10156106d65760405162461bcd60e51b8152602060048201526014602482015273496e73756666696369656e742062616c616e636560601b60448201526064016105fe565b3360009081526003602052604090208054158015906106fa5750600381015460ff16155b15610768576040805160a0810182528254815260018301546020820152600283015491810191909152600382015460ff16151560608201526004820154608082015260055460009161074b916114cf565b905080826000016000828254610761919061180d565b9091555050505b6040516323b872dd60e01b8152336004820152306024820152604481018390527f00000000000000000000000000000000000000000000000000000000000000006001600160a01b0316906323b872dd906064016020604051808303816000875af11580156107db573d6000803e3d6000fd5b505050506040513d601f19601f820116820180604052508101906107ff9190611820565b61081b5760405162461bcd60e51b81526004016105fe90611842565b8181600001600082825461082f919061180d565b90915550504260018281019190915560038201805460ff191690911790556000600282015560405164372d44617960d81b8152600501604080519182900382208483524260208401529133917f66d612d12bb1902ec26fd9a4991d9d58d71d0580427497d62731e7527f1e01a4910160405180910390a3506108b16001600055565b50565b600080806108c28185610e98565b6108da6000805160206118e083398151915286610e98565b6108f260008051602061190083398151915287610e98565b9250925092509193909250565b600080600080600080600080600062093a8060095461091e919061180d565b905061092c60025460ff1690565b6109446000805160206118e083398151915233610e98565b61094f600033610e98565b6005546006546009548642101561096f5761096a428861186b565b610972565b60005b87421015806109875750610987600033610e98565b98509850985098509850985098509850509091929394959697565b6000805160206118e08339815191526109ba81611552565b6109c26114ab565b6107d0821115610a045760405162461bcd60e51b815260206004820152600d60248201526c0a4c2e8ca40e8dede40d0d2ced609b1b60448201526064016105fe565b60095415801590610a1d5750610a1b600033610e98565b155b15610a795762093a80600954610a33919061180d565b421015610a795760405162461bcd60e51b81526020600482015260146024820152732930ba329031b430b733b2903a37b79039b7b7b760611b60448201526064016105fe565b600580548382554260095560405164372d44617960d81b81529091015b6040805191829003822083835260208301869052917f4451261fd4f7dbcc8fd7251b7a2f5501686e0ab7fad43ce240b0a0d60155eb6b910160405180910390a2505050565b60008281526001602081905260409091200154610af781611552565b610b01838361155c565b50505050565b6001600160a01b0381163314610b305760405163334bd91960e11b815260040160405180910390fd5b610b3a82826115d5565b505050565b600080516020611900833981519152610b5781611552565b6108b1611642565b610b67611481565b610b6f6114ab565b3360009081526003602052604090208054610b9c5760405162461bcd60e51b81526004016105fe9061187e565b60006127106113888360000154610bb391906118a6565b610bbd91906118bd565b90506000818360000154610bd1919061186b565b3360008181526003602081905260408083208381556001810184905560028101849055918201805460ff19169055600491820192909255905163a9059cbb60e01b815290810191909152602481018290529091506001600160a01b037f0000000000000000000000000000000000000000000000000000000000000000169063a9059cbb906044016020604051808303816000875af1158015610c78573d6000803e3d6000fd5b505050506040513d601f19601f82011682018060405250810190610c9c9190611820565b610cb85760405162461bcd60e51b81526004016105fe90611842565b60405164372d44617960d81b815260050160408051918290038220838352602083018590529133917f07d8a820151595a9521ea31802fb99d26992342fa0127530e142ff352ccd6a75910160405180910390a3505050610d186001600055565b565b600080516020611900833981519152610d3281611552565b6108b1611694565b6000805160206118e0833981519152610d5281611552565b610d5a6114ab565b610dac821115610d9c5760405162461bcd60e51b815260206004820152600d60248201526c0a4c2e8ca40e8dede40d0d2ced609b1b60448201526064016105fe565b60095415801590610db55750610db3600033610e98565b155b15610e115762093a80600954610dcb919061180d565b421015610e115760405162461bcd60e51b81526020600482015260146024820152732930ba329031b430b733b2903a37b79039b7b7b760611b60448201526064016105fe565b6006805483825542600955604051651896acb2b0b960d11b8152909101610a96565b6001600160a01b0381166000908152600360208181526040808420815160a081018352815481526001820154938101939093526002810154918301919091529182015460ff161515606082015260049091015460808201526005546105ab91906114cf565b60009182526001602090815260408084206001600160a01b0393909316845291905290205460ff1690565b610ecb6114ab565b3360009081526003602052604090208054610ef85760405162461bcd60e51b81526004016105fe9061187e565b600381015460ff16610f405760405162461bcd60e51b8152602060048201526011602482015270416c726561647920756e6c6f636b696e6760781b60448201526064016105fe565b6040805160a0810182528254815260018301546020820152600283015491810191909152600382015460ff161515606082015260048201546080820152600554600091610f8c916114cf565b905080826000016000828254610fa2919061180d565b909155505042600283015560038201805460ff1916905560405164372d44617960d81b81526005016040519081900381204282529033907faf1e05ce41cdb4bdc4f23bff459f1b9173663f6a49fcf52898845f8d659068869060200160405180910390a35050565b600061101581611552565b6007805460ff1916600117905561102a611694565b60405133907fc0a1c7e9f05b4d536e1ff8606bae9b847cdb43ef4a9b2d7a503a88cee08dccdb90600090a250565b611060611481565b6110686114ab565b33600090815260036020526040902080546110955760405162461bcd60e51b81526004016105fe9061187e565b60008160020154116110e05760405162461bcd60e51b8152602060048201526014602482015273155b9b1bd8dac81b9bdd081c995c5d595cdd195960621b60448201526064016105fe565b62093a8081600201546110f3919061180d565b4210156111315760405162461bcd60e51b815260206004820152600c60248201526b14dd1a5b1b081b1bd8dad95960a21b60448201526064016105fe565b80543360008181526003602081905260408083208381556001810184905560028101849055918201805460ff19169055600491820192909255905163a9059cbb60e01b815290810191909152602481018290526001600160a01b037f0000000000000000000000000000000000000000000000000000000000000000169063a9059cbb906044016020604051808303816000875af11580156111d7573d6000803e3d6000fd5b505050506040513d601f19601f820116820180604052508101906111fb9190611820565b6112175760405162461bcd60e51b81526004016105fe90611842565b60405164372d44617960d81b815260050160408051918290038220838352600060208401529133917fd224ec5ad02946fe147952e6ad900ce0567e05d53bd64beb1b564a8c603d869c910160405180910390a35050610d186001600055565b6000828152600160208190526040909120015461129281611552565b610b0183836115d5565b6112a4611481565b60075460ff166112f65760405162461bcd60e51b815260206004820152601960248201527f456d657267656e6379206d6f6465206e6f74206163746976650000000000000060448201526064016105fe565b33600090815260036020526040902080546113235760405162461bcd60e51b81526004016105fe9061187e565b80546008546000906127109061133990846118a6565b61134391906118bd565b90506000611351828461186b565b3360008181526003602081905260408083208381556001810184905560028101849055918201805460ff19169055600491820192909255905163a9059cbb60e01b815290810191909152602481018290529091506001600160a01b037f0000000000000000000000000000000000000000000000000000000000000000169063a9059cbb906044016020604051808303816000875af11580156113f8573d6000803e3d6000fd5b505050506040513d601f19601f8201168201806040525081019061141c9190611820565b6114385760405162461bcd60e51b81526004016105fe90611842565b604080518281526020810184905233917fbb757047c2b5f3974fe26b7c10f732e7bce710b0952a71082702781e62ae0595910160405180910390a250505050610d186001600055565b6002600054036114a457604051633ee5aeb560e01b815260040160405180910390fd5b6002600055565b60025460ff1615610d185760405163d93c066560e01b815260040160405180910390fd5b6000826060015115806114e157508251155b156114ee575060006105ab565b6000836020015142611500919061186b565b905060006301e1338061151385846118a6565b61151d91906118bd565b905061271081111561152e57506127105b84516127109061153f9083906118a6565b61154991906118bd565b95945050505050565b6108b181336116d1565b60006115688383610e98565b6115cd5760008381526001602081815260408084206001600160a01b0387168086529252808420805460ff19169093179092559051339286917f2f8788117e7eff1d82e926ec794901d17c78024a50270940304540a733656f0d9190a45060016105ab565b5060006105ab565b60006115e18383610e98565b156115cd5760008381526001602090815260408083206001600160a01b0386168085529252808320805460ff1916905551339286917ff6391f5c32d9c69d2a47ea670b442974b53935d1edc7fd64eb21e047a839171b9190a45060016105ab565b61164a61170e565b6002805460ff191690557f5db9ee0a495bf2e6ff9c91a7834c1ba4fdd244a5e8aa4e537bd38aeae4b073aa335b6040516001600160a01b03909116815260200160405180910390a1565b61169c6114ab565b6002805460ff191660011790557f62e78cea01bee320cd4e420270b5ea74000d11b0c9f74754ebdbfc544b05a2586116773390565b6116db8282610e98565b61170a5760405163e2517d3f60e01b81526001600160a01b0382166004820152602481018390526044016105fe565b5050565b60025460ff16610d1857604051638dfc202b60e01b815260040160405180910390fd5b60006020828403121561174357600080fd5b81356001600160e01b03198116811461175b57600080fd5b9392505050565b60006020828403121561177457600080fd5b5035919050565b80356001600160a01b038116811461179257600080fd5b919050565b6000602082840312156117a957600080fd5b61175b8261177b565b600080604083850312156117c557600080fd5b823591506117d56020840161177b565b90509250929050565b6000602082840312156117f057600080fd5b5051919050565b634e487b7160e01b600052601160045260246000fd5b808201808211156105ab576105ab6117f7565b60006020828403121561183257600080fd5b8151801515811461175b57600080fd5b6020808252600f908201526e151c985b9cd9995c8819985a5b1959608a1b604082015260600190565b818103818111156105ab576105ab6117f7565b6020808252600e908201526d139bc81cdd185ad948199bdd5b9960921b604082015260600190565b80820281158282048414176105ab576105ab6117f7565b6000826118da57634e487b7160e01b600052601260045260246000fd5b50049056fe7935bd0ae54bc31f548c14dba4d37c5c64b3f8ca900cb468fb8abd54d5894f5565d7a28e3265b37a6474929f336521b332c1681b933f6cb9f3376673440d862aa2646970667358221220464ee50c189fa31b3ee1b09e880407e46e450fd9fbbad75805a0a7986b5fe4f264736f6c634300081b0033",
  "immutableReferences": {
    "9362": [
      {
        "length": 32,
        "start": 1344
      },
      {
        "length": 32,
        "start": 1566
      },
      {
        "length": 32,
        "start": 1930
      },
      {
        "length": 32,
        "start": 3119
      },
      {
        "length": 32,
        "start": 4494
      },
      {
        "length": 32,
        "start": 5039
      }
    ]
  },
  "source": "// SPDX-License-Identifier: UNLICENSED\r\npragma solidity ^0.8.27;\r\n\r\nimport \"./MoonCatToken.sol\";\r\nimport \"@openzeppelin/contracts/utils/ReentrancyGuard.sol\";\r\nimport \"@openzeppelin/contracts/access/AccessControl.sol\";\r\nimport \"@openzeppelin/contracts/utils/Pausable.sol\";\r\n\r\ncontract MoonCatStaking is ReentrancyGuard, AccessControl, Pausable {\r\n    bytes32 public constant GOVERNOR_ROLE = keccak256(\"GOVERNOR_ROLE\");\r\n    bytes32 public constant PAUSER_ROLE = keccak256(\"PAUSER_ROLE\");\r\n    \r\n    MoonCatToken public immutable token;\r\n    \r\n    struct Stake {\r\n        uint256 amount;\r\n        uint256 since;\r\n        uint256 unlockRequestTime;\r\n        bool isLocked;\r\n        uint256 rewardDebt;\r\n    }\r\n\r\n    mapping(address => Stake) public stakes7Days;\r\n    mapping(address => Stake) public stakes1Year;\r\n    \r\n    uint256 public rewardRate7Days;\r\n    uint256 public rewardRate1Year;\r\n    \r\n    uint256 public constant UNLOCK_PERIOD_7DAYS = 7 days;\r\n    uint256 public constant UNLOCK_PERIOD_1YEAR = 365 days;\r\n    uint256 public constant BASIS_POINTS = 10000;\r\n    uint256 public constant FORCE_UNLOCK_PENALTY = 5000; // 50% penalty\r\n    uint256 public constant MAX_RATE_7DAYS = 2000;      // 20% APR max\r\n    uint256 public constant MAX_RATE_1YEAR = 3500;      // 35% APR max\r\n    uint256 public constant RATE_CHANGE_COOLDOWN = 7 days;\r\n\r\n    bool public emergencyMode;\r\n    uint256 public emergencyWithdrawalFee = 1000; // 10% fee during emergency\r\n    uint256 public lastRateChange;\r\n\r\n    event Staked(address indexed user, uint256 amount, uint256 since, string indexed stakeType);\r\n    event UnlockRequested(address indexed user, uint256 unlockRequestTime, string indexed stakeType);\r\n    event Unstaked(address indexed user, uint256 amount, uint256 reward, string indexed stakeType);\r\n    event ForceUnlocked(address indexed user, uint256 amount, uint256 penalty, string indexed stakeType);\r\n    event EmergencyWithdraw(address indexed user, uint256 amount, uint256 fee);\r\n    event RateChanged(string indexed stakeType, uint256 oldRate, uint256 newRate);\r\n    event EmergencyModeEnabled(address indexed by);\r\n\r\n    modifier validAddress(address _address) {\r\n        require(_address != address(0), \"Invalid address\");\r\n        _;\r\n    }\r\n\r\n    modifier rateChangeAllowed() {\r\n        require(block.timestamp >= lastRateChange + RATE_CHANGE_COOLDOWN, \"Rate change too soon\");\r\n        _;\r\n    }\r\n\r\n    constructor(MoonCatToken _token) {\r\n        require(address(_token) != address(0), \"Token cannot be zero address\");\r\n        token = _token;\r\n        _grantRole(DEFAULT_ADMIN_ROLE, msg.sender);\r\n        _grantRole(GOVERNOR_ROLE, msg.sender);\r\n        _grantRole(PAUSER_ROLE, msg.sender);\r\n        \r\n        // Set initial rates\r\n        rewardRate7Days = 634;  // ~6.34% APR\r\n        rewardRate1Year = 959;  // ~9.59% APR\r\n        lastRateChange = block.timestamp;\r\n    }\r\n\r\n    // Staking Functions\r\n    function stake7Days(uint256 _amount) external nonReentrant whenNotPaused {\r\n        require(_amount > 0, \"Cannot stake 0\");\r\n        require(token.balanceOf(msg.sender) >= _amount, \"Insufficient balance\");\r\n        \r\n        Stake storage userStake = stakes7Days[msg.sender];\r\n        \r\n        if (userStake.amount > 0 && !userStake.isLocked) {\r\n            uint256 reward = calculatePendingRewards(userStake, rewardRate7Days);\r\n            userStake.amount += reward;\r\n        }\r\n\r\n        require(token.transferFrom(msg.sender, address(this), _amount), \"Transfer failed\");\r\n        \r\n        userStake.amount += _amount;\r\n        userStake.since = block.timestamp;\r\n        userStake.isLocked = true;\r\n        userStake.unlockRequestTime = 0;\r\n        \r\n        emit Staked(msg.sender, _amount, block.timestamp, \"7-Day\");\r\n    }\r\n\r\n    function requestUnlock7Days() external whenNotPaused {\r\n        Stake storage userStake = stakes7Days[msg.sender];\r\n        require(userStake.amount > 0, \"No stake found\");\r\n        require(userStake.isLocked, \"Already unlocking\");\r\n\r\n        uint256 reward = calculatePendingRewards(userStake, rewardRate7Days);\r\n        userStake.amount += reward;\r\n        userStake.unlockRequestTime = block.timestamp;\r\n        userStake.isLocked = false;\r\n\r\n        emit UnlockRequested(msg.sender, block.timestamp, \"7-Day\");\r\n    }\r\n\r\n    function unstake7Days() external nonReentrant whenNotPaused {\r\n        Stake storage userStake = stakes7Days[msg.sender];\r\n        require(userStake.amount > 0, \"No stake found\");\r\n        require(userStake.unlockRequestTime > 0, \"Unlock not requested\");\r\n        require(block.timestamp >= userStake.unlockRequestTime + UNLOCK_PERIOD_7DAYS, \"Still locked\");\r\n\r\n        uint256 amount = userStake.amount;\r\n        delete stakes7Days[msg.sender];\r\n        \r\n        require(token.transfer(msg.sender, amount), \"Transfer failed\");\r\n        emit Unstaked(msg.sender, amount, 0, \"7-Day\");\r\n    }\r\n\r\n    function forceUnlock7Days() external nonReentrant whenNotPaused {\r\n        Stake storage userStake = stakes7Days[msg.sender];\r\n        require(userStake.amount > 0, \"No stake found\");\r\n        \r\n        uint256 penalty = (userStake.amount * FORCE_UNLOCK_PENALTY) / BASIS_POINTS;\r\n        uint256 amountAfterPenalty = userStake.amount - penalty;\r\n        \r\n        delete stakes7Days[msg.sender];\r\n        \r\n        require(token.transfer(msg.sender, amountAfterPenalty), \"Transfer failed\");\r\n        emit ForceUnlocked(msg.sender, amountAfterPenalty, penalty, \"7-Day\");\r\n    }\r\n\r\n    // Rate Management Functions\r\n    function setRewardRate7Days(uint256 _newRate) \r\n        external \r\n        onlyRole(GOVERNOR_ROLE) \r\n        whenNotPaused \r\n    {\r\n        require(_newRate <= MAX_RATE_7DAYS, \"Rate too high\");\r\n        \r\n        // Skip cooldown if it's the first rate change or if caller has admin role\r\n        if (lastRateChange != 0 && !hasRole(DEFAULT_ADMIN_ROLE, msg.sender)) {\r\n            require(block.timestamp >= lastRateChange + RATE_CHANGE_COOLDOWN, \"Rate change too soon\");\r\n        }\r\n        \r\n        uint256 oldRate = rewardRate7Days;\r\n        rewardRate7Days = _newRate;\r\n        lastRateChange = block.timestamp;\r\n        emit RateChanged(\"7-Day\", oldRate, _newRate);\r\n    }\r\n\r\n    function setRewardRate1Year(uint256 _newRate) \r\n        external \r\n        onlyRole(GOVERNOR_ROLE) \r\n        whenNotPaused \r\n    {\r\n        require(_newRate <= MAX_RATE_1YEAR, \"Rate too high\");\r\n        \r\n        // Skip cooldown if it's the first rate change or if caller has admin role\r\n        if (lastRateChange != 0 && !hasRole(DEFAULT_ADMIN_ROLE, msg.sender)) {\r\n            require(block.timestamp >= lastRateChange + RATE_CHANGE_COOLDOWN, \"Rate change too soon\");\r\n        }\r\n        \r\n        uint256 oldRate = rewardRate1Year;\r\n        rewardRate1Year = _newRate;\r\n        lastRateChange = block.timestamp;\r\n        emit RateChanged(\"1-Year\", oldRate, _newRate);\r\n    }\r\n\r\n    // Emergency Functions\r\n    function enableEmergencyMode() external onlyRole(DEFAULT_ADMIN_ROLE) {\r\n        emergencyMode = true;\r\n        _pause();\r\n        emit EmergencyModeEnabled(msg.sender);\r\n    }\r\n\r\n    function emergencyWithdraw() external nonReentrant {\r\n        require(emergencyMode, \"Emergency mode not active\");\r\n        \r\n        Stake storage userStake = stakes7Days[msg.sender];\r\n        require(userStake.amount > 0, \"No stake found\");\r\n\r\n        uint256 amount = userStake.amount;\r\n        uint256 fee = (amount * emergencyWithdrawalFee) / BASIS_POINTS;\r\n        uint256 withdrawAmount = amount - fee;\r\n\r\n        delete stakes7Days[msg.sender];\r\n\r\n        require(token.transfer(msg.sender, withdrawAmount), \"Transfer failed\");\r\n        emit EmergencyWithdraw(msg.sender, withdrawAmount, fee);\r\n    }\r\n\r\n    // View Functions\r\n    function calculatePendingRewards(\r\n        Stake memory stake,\r\n        uint256 rate\r\n    ) internal view returns (uint256) {\r\n        if (!stake.isLocked || stake.amount == 0) return 0;\r\n        \r\n        uint256 duration = block.timestamp - stake.since;\r\n        uint256 timeComponent = (duration * rate) / (365 days);\r\n        if (timeComponent > BASIS_POINTS) timeComponent = BASIS_POINTS;\r\n        \r\n        return (stake.amount * timeComponent) / BASIS_POINTS;\r\n    }\r\n\r\n    function getPendingRewards7Days(address user) external view returns (uint256) {\r\n        return calculatePendingRewards(stakes7Days[user], rewardRate7Days);\r\n    }\r\n\r\n    function checkRoles(address account) external view returns (bool isAdmin, bool isGovernor, bool isPauser) {\r\n        return (\r\n            hasRole(DEFAULT_ADMIN_ROLE, account),\r\n            hasRole(GOVERNOR_ROLE, account),\r\n            hasRole(PAUSER_ROLE, account)\r\n        );\r\n    }\r\n\r\n        function getDebugInfo() external view returns (\r\n        bool isPaused,\r\n        bool hasGovernorRole,\r\n        bool hasAdminRole,\r\n        uint256 currentRate7Days,\r\n        uint256 currentRate1Year,\r\n        uint256 lastChangeTime,\r\n        uint256 timeUntilNextChange,\r\n        bool canChangeRate\r\n        ) {\r\n            uint256 nextChangeTime = lastRateChange + RATE_CHANGE_COOLDOWN;\r\n            return (\r\n                paused(),\r\n                hasRole(GOVERNOR_ROLE, msg.sender),\r\n                hasRole(DEFAULT_ADMIN_ROLE, msg.sender),\r\n                rewardRate7Days,\r\n                rewardRate1Year,\r\n                lastRateChange,\r\n                block.timestamp >= nextChangeTime ? 0 : nextChangeTime - block.timestamp,\r\n                block.timestamp >= nextChangeTime || hasRole(DEFAULT_ADMIN_ROLE, msg.sender)\r\n            );\r\n    }\r\n\r\n    // Access Control Functions\r\n    function pause() external onlyRole(PAUSER_ROLE) {\r\n        _pause();\r\n    }\r\n\r\n    function unpause() external onlyRole(PAUSER_ROLE) {\r\n        _unpause();\r\n    }\r\n}",
  "sourcePath": "C:\\MooncatAI\\Github\\mooncat_ai\\contracts\\MoonCatStaking.sol",
  "compiler": {
    "name": "solc",
    "version": "0.8.27+commit.40a35a09.Emscripten.clang"
  },
  "schemaVersion": "3.4.16",
  "updatedAt": "2024-10-25T03:49:23.380Z",
  "networkType": "ethereum",
  "devdoc": {
    "errors": {
      "AccessControlBadConfirmation()": [
        {
          "details": "The caller of a function is not the expected one. NOTE: Don't confuse with {AccessControlUnauthorizedAccount}."
        }
      ],
      "AccessControlUnauthorizedAccount(address,bytes32)": [
        {
          "details": "The `account` is missing a role."
        }
      ],
      "EnforcedPause()": [
        {
          "details": "The operation failed because the contract is paused."
        }
      ],
      "ExpectedPause()": [
        {
          "details": "The operation failed because the contract is not paused."
        }
      ],
      "ReentrancyGuardReentrantCall()": [
        {
          "details": "Unauthorized reentrant call."
        }
      ]
    },
    "events": {
      "Paused(address)": {
        "details": "Emitted when the pause is triggered by `account`."
      },
      "RoleAdminChanged(bytes32,bytes32,bytes32)": {
        "details": "Emitted when `newAdminRole` is set as ``role``'s admin role, replacing `previousAdminRole` `DEFAULT_ADMIN_ROLE` is the starting admin for all roles, despite {RoleAdminChanged} not being emitted signaling this."
      },
      "RoleGranted(bytes32,address,address)": {
        "details": "Emitted when `account` is granted `role`. `sender` is the account that originated the contract call. This account bears the admin role (for the granted role). Expected in cases where the role was granted using the internal {AccessControl-_grantRole}."
      },
      "RoleRevoked(bytes32,address,address)": {
        "details": "Emitted when `account` is revoked `role`. `sender` is the account that originated the contract call:   - if using `revokeRole`, it is the admin role bearer   - if using `renounceRole`, it is the role bearer (i.e. `account`)"
      },
      "Unpaused(address)": {
        "details": "Emitted when the pause is lifted by `account`."
      }
    },
    "kind": "dev",
    "methods": {
      "getRoleAdmin(bytes32)": {
        "details": "Returns the admin role that controls `role`. See {grantRole} and {revokeRole}. To change a role's admin, use {_setRoleAdmin}."
      },
      "grantRole(bytes32,address)": {
        "details": "Grants `role` to `account`. If `account` had not been already granted `role`, emits a {RoleGranted} event. Requirements: - the caller must have ``role``'s admin role. May emit a {RoleGranted} event."
      },
      "hasRole(bytes32,address)": {
        "details": "Returns `true` if `account` has been granted `role`."
      },
      "paused()": {
        "details": "Returns true if the contract is paused, and false otherwise."
      },
      "renounceRole(bytes32,address)": {
        "details": "Revokes `role` from the calling account. Roles are often managed via {grantRole} and {revokeRole}: this function's purpose is to provide a mechanism for accounts to lose their privileges if they are compromised (such as when a trusted device is misplaced). If the calling account had been revoked `role`, emits a {RoleRevoked} event. Requirements: - the caller must be `callerConfirmation`. May emit a {RoleRevoked} event."
      },
      "revokeRole(bytes32,address)": {
        "details": "Revokes `role` from `account`. If `account` had been granted `role`, emits a {RoleRevoked} event. Requirements: - the caller must have ``role``'s admin role. May emit a {RoleRevoked} event."
      },
      "supportsInterface(bytes4)": {
        "details": "See {IERC165-supportsInterface}."
      }
    },
    "version": 1
  },
  "userdoc": {
    "kind": "user",
    "methods": {},
    "version": 1
  }
}