{
  "contractName": "MoonCatToken",
  "abi": [
    {
      "inputs": [
        {
          "internalType": "string",
          "name": "name",
          "type": "string"
        },
        {
          "internalType": "string",
          "name": "symbol",
          "type": "string"
        },
        {
          "internalType": "uint256",
          "name": "initialSupply",
          "type": "uint256"
        }
      ],
      "stateMutability": "nonpayable",
      "type": "constructor"
    },
    {
      "inputs": [
        {
          "internalType": "address",
          "name": "spender",
          "type": "address"
        },
        {
          "internalType": "uint256",
          "name": "allowance",
          "type": "uint256"
        },
        {
          "internalType": "uint256",
          "name": "needed",
          "type": "uint256"
        }
      ],
      "name": "ERC20InsufficientAllowance",
      "type": "error"
    },
    {
      "inputs": [
        {
          "internalType": "address",
          "name": "sender",
          "type": "address"
        },
        {
          "internalType": "uint256",
          "name": "balance",
          "type": "uint256"
        },
        {
          "internalType": "uint256",
          "name": "needed",
          "type": "uint256"
        }
      ],
      "name": "ERC20InsufficientBalance",
      "type": "error"
    },
    {
      "inputs": [
        {
          "internalType": "address",
          "name": "approver",
          "type": "address"
        }
      ],
      "name": "ERC20InvalidApprover",
      "type": "error"
    },
    {
      "inputs": [
        {
          "internalType": "address",
          "name": "receiver",
          "type": "address"
        }
      ],
      "name": "ERC20InvalidReceiver",
      "type": "error"
    },
    {
      "inputs": [
        {
          "internalType": "address",
          "name": "sender",
          "type": "address"
        }
      ],
      "name": "ERC20InvalidSender",
      "type": "error"
    },
    {
      "inputs": [
        {
          "internalType": "address",
          "name": "spender",
          "type": "address"
        }
      ],
      "name": "ERC20InvalidSpender",
      "type": "error"
    },
    {
      "anonymous": false,
      "inputs": [
        {
          "indexed": true,
          "internalType": "address",
          "name": "owner",
          "type": "address"
        },
        {
          "indexed": true,
          "internalType": "address",
          "name": "spender",
          "type": "address"
        },
        {
          "indexed": false,
          "internalType": "uint256",
          "name": "value",
          "type": "uint256"
        }
      ],
      "name": "Approval",
      "type": "event"
    },
    {
      "anonymous": false,
      "inputs": [
        {
          "indexed": true,
          "internalType": "address",
          "name": "from",
          "type": "address"
        },
        {
          "indexed": true,
          "internalType": "address",
          "name": "to",
          "type": "address"
        },
        {
          "indexed": false,
          "internalType": "uint256",
          "name": "value",
          "type": "uint256"
        }
      ],
      "name": "Transfer",
      "type": "event"
    },
    {
      "inputs": [
        {
          "internalType": "address",
          "name": "owner",
          "type": "address"
        },
        {
          "internalType": "address",
          "name": "spender",
          "type": "address"
        }
      ],
      "name": "allowance",
      "outputs": [
        {
          "internalType": "uint256",
          "name": "",
          "type": "uint256"
        }
      ],
      "stateMutability": "view",
      "type": "function",
      "constant": true
    },
    {
      "inputs": [
        {
          "internalType": "address",
          "name": "spender",
          "type": "address"
        },
        {
          "internalType": "uint256",
          "name": "value",
          "type": "uint256"
        }
      ],
      "name": "approve",
      "outputs": [
        {
          "internalType": "bool",
          "name": "",
          "type": "bool"
        }
      ],
      "stateMutability": "nonpayable",
      "type": "function"
    },
    {
      "inputs": [
        {
          "internalType": "address",
          "name": "account",
          "type": "address"
        }
      ],
      "name": "balanceOf",
      "outputs": [
        {
          "internalType": "uint256",
          "name": "",
          "type": "uint256"
        }
      ],
      "stateMutability": "view",
      "type": "function",
      "constant": true
    },
    {
      "inputs": [],
      "name": "decimals",
      "outputs": [
        {
          "internalType": "uint8",
          "name": "",
          "type": "uint8"
        }
      ],
      "stateMutability": "view",
      "type": "function",
      "constant": true
    },
    {
      "inputs": [],
      "name": "name",
      "outputs": [
        {
          "internalType": "string",
          "name": "",
          "type": "string"
        }
      ],
      "stateMutability": "view",
      "type": "function",
      "constant": true
    },
    {
      "inputs": [],
      "name": "owner",
      "outputs": [
        {
          "internalType": "address",
          "name": "",
          "type": "address"
        }
      ],
      "stateMutability": "view",
      "type": "function",
      "constant": true
    },
    {
      "inputs": [],
      "name": "symbol",
      "outputs": [
        {
          "internalType": "string",
          "name": "",
          "type": "string"
        }
      ],
      "stateMutability": "view",
      "type": "function",
      "constant": true
    },
    {
      "inputs": [],
      "name": "taxCollector",
      "outputs": [
        {
          "internalType": "address",
          "name": "",
          "type": "address"
        }
      ],
      "stateMutability": "view",
      "type": "function",
      "constant": true
    },
    {
      "inputs": [],
      "name": "taxRate",
      "outputs": [
        {
          "internalType": "uint256",
          "name": "",
          "type": "uint256"
        }
      ],
      "stateMutability": "view",
      "type": "function",
      "constant": true
    },
    {
      "inputs": [],
      "name": "totalSupply",
      "outputs": [
        {
          "internalType": "uint256",
          "name": "",
          "type": "uint256"
        }
      ],
      "stateMutability": "view",
      "type": "function",
      "constant": true
    },
    {
      "inputs": [
        {
          "internalType": "address",
          "name": "newOwner",
          "type": "address"
        }
      ],
      "name": "transferOwnership",
      "outputs": [],
      "stateMutability": "nonpayable",
      "type": "function"
    },
    {
      "inputs": [
        {
          "internalType": "address",
          "name": "recipient",
          "type": "address"
        },
        {
          "internalType": "uint256",
          "name": "amount",
          "type": "uint256"
        }
      ],
      "name": "transfer",
      "outputs": [
        {
          "internalType": "bool",
          "name": "",
          "type": "bool"
        }
      ],
      "stateMutability": "nonpayable",
      "type": "function"
    },
    {
      "inputs": [
        {
          "internalType": "address",
          "name": "sender",
          "type": "address"
        },
        {
          "internalType": "address",
          "name": "recipient",
          "type": "address"
        },
        {
          "internalType": "uint256",
          "name": "amount",
          "type": "uint256"
        }
      ],
      "name": "transferFrom",
      "outputs": [
        {
          "internalType": "bool",
          "name": "",
          "type": "bool"
        }
      ],
      "stateMutability": "nonpayable",
      "type": "function"
    },
    {
      "inputs": [
        {
          "internalType": "uint256",
          "name": "newTaxRate",
          "type": "uint256"
        }
      ],
      "name": "setTaxRate",
      "outputs": [],
      "stateMutability": "nonpayable",
      "type": "function"
    },
    {
      "inputs": [
        {
          "internalType": "address",
          "name": "newCollector",
          "type": "address"
        }
      ],
      "name": "setTaxCollector",
      "outputs": [],
      "stateMutability": "nonpayable",
      "type": "function"
    }
  ],
  "bytecode": "0x60806040526064600555348015610014575f5ffd5b50604051610fad380380610fad833981016040819052610033916102a3565b828260036100418382610394565b50600461004e8282610394565b505060078054336001600160a01b03199182168117909255600680549091168217905561009b915061007e601290565b61008c9060ff16600a610547565b6100969084610559565b6100a3565b505050610583565b6001600160a01b0382166100d15760405163ec442f0560e01b81525f60048201526024015b60405180910390fd5b6100dc5f83836100e0565b5050565b6001600160a01b03831661010a578060025f8282546100ff9190610570565b9091555061017a9050565b6001600160a01b0383165f908152602081905260409020548181101561015c5760405163391434e360e21b81526001600160a01b038516600482015260248101829052604481018390526064016100c8565b6001600160a01b0384165f9081526020819052604090209082900390555b6001600160a01b038216610196576002805482900390556101b4565b6001600160a01b0382165f9081526020819052604090208054820190555b816001600160a01b0316836001600160a01b03167fddf252ad1be2c89b69c2b068fc378daa952ba7f163c4a11628f55a4df523b3ef836040516101f991815260200190565b60405180910390a3505050565b634e487b7160e01b5f52604160045260245ffd5b5f82601f830112610229575f5ffd5b81516001600160401b0381111561024257610242610206565b604051601f8201601f19908116603f011681016001600160401b038111828210171561027057610270610206565b604052818152838201602001851015610287575f5ffd5b8160208501602083015e5f918101602001919091529392505050565b5f5f5f606084860312156102b5575f5ffd5b83516001600160401b038111156102ca575f5ffd5b6102d68682870161021a565b602086015190945090506001600160401b038111156102f3575f5ffd5b6102ff8682870161021a565b925050604084015190509250925092565b600181811c9082168061032457607f821691505b60208210810361034257634e487b7160e01b5f52602260045260245ffd5b50919050565b601f82111561038f57805f5260205f20601f840160051c8101602085101561036d5750805b601f840160051c820191505b8181101561038c575f8155600101610379565b50505b505050565b81516001600160401b038111156103ad576103ad610206565b6103c1816103bb8454610310565b84610348565b6020601f8211600181146103f3575f83156103dc5750848201515b5f19600385901b1c1916600184901b17845561038c565b5f84815260208120601f198516915b828110156104225787850151825560209485019460019092019101610402565b508482101561043f57868401515f19600387901b60f8161c191681555b50505050600190811b01905550565b634e487b7160e01b5f52601160045260245ffd5b6001815b600184111561049d578085048111156104815761048161044e565b600184161561048f57908102905b60019390931c928002610466565b935093915050565b5f826104b357506001610541565b816104bf57505f610541565b81600181146104d557600281146104df576104fb565b6001915050610541565b60ff8411156104f0576104f061044e565b50506001821b610541565b5060208310610133831016604e8410600b841016171561051e575081810a610541565b61052a5f198484610462565b805f190482111561053d5761053d61044e565b0290505b92915050565b5f61055283836104a5565b9392505050565b80820281158282048414176105415761054161044e565b808201808211156105415761054161044e565b610a1d806105905f395ff3fe608060405234801561000f575f5ffd5b50600436106100f0575f3560e01c8063771a3a1d11610093578063bea1dcf811610063578063bea1dcf8146101f5578063c6d69a3014610208578063dd62ed3e1461021b578063f2fde38b14610253575f5ffd5b8063771a3a1d146101a65780638da5cb5b146101af57806395d89b41146101da578063a9059cbb146101e2575f5ffd5b806318160ddd116100ce57806318160ddd1461014a57806323b872dd1461015c578063313ce5671461016f57806370a082311461017e575f5ffd5b806306fdde03146100f457806308695b4114610112578063095ea7b314610127575b5f5ffd5b6100fc610266565b60405161010991906107ee565b60405180910390f35b61012561012036600461083e565b6102f6565b005b61013a61013536600461085e565b61034b565b6040519015158152602001610109565b6002545b604051908152602001610109565b61013a61016a366004610886565b610364565b60405160128152602001610109565b61014e61018c36600461083e565b6001600160a01b03165f9081526020819052604090205490565b61014e60055481565b6007546101c2906001600160a01b031681565b6040516001600160a01b039091168152602001610109565b6100fc610442565b61013a6101f036600461085e565b610451565b6006546101c2906001600160a01b031681565b6101256102163660046108c0565b6104a9565b61014e6102293660046108d7565b6001600160a01b039182165f90815260016020908152604080832093909416825291909152205490565b61012561026136600461083e565b6104d8565b60606003805461027590610908565b80601f01602080910402602001604051908101604052809291908181526020018280546102a190610908565b80156102ec5780601f106102c3576101008083540402835291602001916102ec565b820191905f5260205f20905b8154815290600101906020018083116102cf57829003601f168201915b5050505050905090565b6007546001600160a01b031633146103295760405162461bcd60e51b815260040161032090610940565b60405180910390fd5b600680546001600160a01b0319166001600160a01b0392909216919091179055565b5f33610358818585610586565b60019150505b92915050565b5f5f61271060055484610377919061098b565b61038191906109a2565b90505f61038e82856109c1565b905061039b868683610598565b6006546103b39087906001600160a01b031684610598565b5f6103be8733610229565b9050848110156104215760405162461bcd60e51b815260206004820152602860248201527f45524332303a207472616e7366657220616d6f756e74206578636565647320616044820152676c6c6f77616e636560c01b6064820152608401610320565b610435873361043088856109c1565b610586565b5060019695505050505050565b60606004805461027590610908565b5f5f61271060055484610464919061098b565b61046e91906109a2565b90505f61047b82856109c1565b9050610488338683610598565b61049e336006546001600160a01b031684610598565b506001949350505050565b6007546001600160a01b031633146104d35760405162461bcd60e51b815260040161032090610940565b600555565b6007546001600160a01b031633146105025760405162461bcd60e51b815260040161032090610940565b6001600160a01b0381166105645760405162461bcd60e51b8152602060048201526024808201527f4e6577206f776e65722063616e6e6f7420626520746865207a65726f206164646044820152637265737360e01b6064820152608401610320565b600780546001600160a01b0319166001600160a01b0392909216919091179055565b61059383838360016105f5565b505050565b6001600160a01b0383166105c157604051634b637e8f60e11b81525f6004820152602401610320565b6001600160a01b0382166105ea5760405163ec442f0560e01b81525f6004820152602401610320565b6105938383836106c8565b6001600160a01b03841661061e5760405163e602df0560e01b81525f6004820152602401610320565b6001600160a01b03831661064757604051634a1406b160e11b81525f6004820152602401610320565b6001600160a01b038085165f90815260016020908152604080832093871683529290522082905580156106c257826001600160a01b0316846001600160a01b03167f8c5be1e5ebec7d5bd14f71427d1e84f3dd0314c0f7b2291e5b200ac8c7c3b925846040516106b991815260200190565b60405180910390a35b50505050565b6001600160a01b0383166106f2578060025f8282546106e791906109d4565b909155506107629050565b6001600160a01b0383165f90815260208190526040902054818110156107445760405163391434e360e21b81526001600160a01b03851660048201526024810182905260448101839052606401610320565b6001600160a01b0384165f9081526020819052604090209082900390555b6001600160a01b03821661077e5760028054829003905561079c565b6001600160a01b0382165f9081526020819052604090208054820190555b816001600160a01b0316836001600160a01b03167fddf252ad1be2c89b69c2b068fc378daa952ba7f163c4a11628f55a4df523b3ef836040516107e191815260200190565b60405180910390a3505050565b602081525f82518060208401528060208501604085015e5f604082850101526040601f19601f83011684010191505092915050565b80356001600160a01b0381168114610839575f5ffd5b919050565b5f6020828403121561084e575f5ffd5b61085782610823565b9392505050565b5f5f6040838503121561086f575f5ffd5b61087883610823565b946020939093013593505050565b5f5f5f60608486031215610898575f5ffd5b6108a184610823565b92506108af60208501610823565b929592945050506040919091013590565b5f602082840312156108d0575f5ffd5b5035919050565b5f5f604083850312156108e8575f5ffd5b6108f183610823565b91506108ff60208401610823565b90509250929050565b600181811c9082168061091c57607f821691505b60208210810361093a57634e487b7160e01b5f52602260045260245ffd5b50919050565b60208082526017908201527f43616c6c6572206973206e6f7420746865206f776e6572000000000000000000604082015260600190565b634e487b7160e01b5f52601160045260245ffd5b808202811582820484141761035e5761035e610977565b5f826109bc57634e487b7160e01b5f52601260045260245ffd5b500490565b8181038181111561035e5761035e610977565b8082018082111561035e5761035e61097756fea2646970667358221220d873ef2f520cb1b5bc3e3d224f80e18b69a84eda080276c15644f8093e532f4c64736f6c634300081b0033",
  "immutableReferences": {},
  "source": "// SPDX-License-Identifier: UNLICENSED\r\npragma solidity ^0.8.27;\r\n\r\nimport \"@openzeppelin/contracts/token/ERC20/ERC20.sol\";\r\n\r\ncontract MoonCatToken is ERC20 {\r\n    uint256 public taxRate = 100;  // 1% tax\r\n    address public taxCollector;\r\n    address public owner;\r\n\r\n    modifier onlyOwner() {\r\n        require(msg.sender == owner, \"Caller is not the owner\");\r\n        _;\r\n    }\r\n\r\n    constructor(string memory name, string memory symbol, uint256 initialSupply) ERC20(name, symbol) {\r\n        owner = msg.sender;\r\n        taxCollector = msg.sender;  // Initialize the tax collector\r\n        _mint(msg.sender, initialSupply * (10 ** uint256(decimals())));  // Mint the initial supply\r\n    }\r\n\r\n    // Transfer ownership\r\n    function transferOwnership(address newOwner) external onlyOwner {\r\n        require(newOwner != address(0), \"New owner cannot be the zero address\");\r\n        owner = newOwner;\r\n    }\r\n\r\n    // Override the transfer function to include tax logic\r\n    function transfer(address recipient, uint256 amount) public override returns (bool) {\r\n        uint256 taxAmount = (amount * taxRate) / 10000;\r\n        uint256 amountAfterTax = amount - taxAmount;\r\n\r\n        _transfer(_msgSender(), recipient, amountAfterTax);\r\n        _transfer(_msgSender(), taxCollector, taxAmount);\r\n        return true;\r\n    }\r\n\r\n    // Override the transferFrom function to include tax logic\r\n    function transferFrom(\r\n        address sender,\r\n        address recipient,\r\n        uint256 amount\r\n    ) public override returns (bool) {\r\n        uint256 taxAmount = (amount * taxRate) / 10000;\r\n        uint256 amountAfterTax = amount - taxAmount;\r\n\r\n        _transfer(sender, recipient, amountAfterTax);\r\n        _transfer(sender, taxCollector, taxAmount);\r\n\r\n        uint256 currentAllowance = allowance(sender, _msgSender());\r\n        require(currentAllowance >= amount, \"ERC20: transfer amount exceeds allowance\");\r\n        _approve(sender, _msgSender(), currentAllowance - amount);\r\n\r\n        return true;\r\n    }\r\n\r\n    // Set tax rate\r\n    function setTaxRate(uint256 newTaxRate) external onlyOwner {\r\n        taxRate = newTaxRate;\r\n    }\r\n\r\n    // Set tax collector address\r\n    function setTaxCollector(address newCollector) external onlyOwner {\r\n        taxCollector = newCollector;\r\n    }\r\n}\r\n",
  "sourcePath": "C:\\MooncatAI\\Github\\mooncat_ai\\contracts\\MoonCatToken.sol",
  "compiler": {
    "name": "solc",
    "version": "0.8.27+commit.40a35a09.Emscripten.clang"
  },
  "schemaVersion": "3.4.16",
  "updatedAt": "2024-09-28T03:16:50.532Z",
  "networkType": "ethereum",
  "devdoc": {
    "errors": {
      "ERC20InsufficientAllowance(address,uint256,uint256)": [
        {
          "details": "Indicates a failure with the `spender`s `allowance`. Used in transfers.",
          "params": {
            "allowance": "Amount of tokens a `spender` is allowed to operate with.",
            "needed": "Minimum amount required to perform a transfer.",
            "spender": "Address that may be allowed to operate on tokens without being their owner."
          }
        }
      ],
      "ERC20InsufficientBalance(address,uint256,uint256)": [
        {
          "details": "Indicates an error related to the current `balance` of a `sender`. Used in transfers.",
          "params": {
            "balance": "Current balance for the interacting account.",
            "needed": "Minimum amount required to perform a transfer.",
            "sender": "Address whose tokens are being transferred."
          }
        }
      ],
      "ERC20InvalidApprover(address)": [
        {
          "details": "Indicates a failure with the `approver` of a token to be approved. Used in approvals.",
          "params": {
            "approver": "Address initiating an approval operation."
          }
        }
      ],
      "ERC20InvalidReceiver(address)": [
        {
          "details": "Indicates a failure with the token `receiver`. Used in transfers.",
          "params": {
            "receiver": "Address to which tokens are being transferred."
          }
        }
      ],
      "ERC20InvalidSender(address)": [
        {
          "details": "Indicates a failure with the token `sender`. Used in transfers.",
          "params": {
            "sender": "Address whose tokens are being transferred."
          }
        }
      ],
      "ERC20InvalidSpender(address)": [
        {
          "details": "Indicates a failure with the `spender` to be approved. Used in approvals.",
          "params": {
            "spender": "Address that may be allowed to operate on tokens without being their owner."
          }
        }
      ]
    },
    "events": {
      "Approval(address,address,uint256)": {
        "details": "Emitted when the allowance of a `spender` for an `owner` is set by a call to {approve}. `value` is the new allowance."
      },
      "Transfer(address,address,uint256)": {
        "details": "Emitted when `value` tokens are moved from one account (`from`) to another (`to`). Note that `value` may be zero."
      }
    },
    "kind": "dev",
    "methods": {
      "allowance(address,address)": {
        "details": "See {IERC20-allowance}."
      },
      "approve(address,uint256)": {
        "details": "See {IERC20-approve}. NOTE: If `value` is the maximum `uint256`, the allowance is not updated on `transferFrom`. This is semantically equivalent to an infinite approval. Requirements: - `spender` cannot be the zero address."
      },
      "balanceOf(address)": {
        "details": "See {IERC20-balanceOf}."
      },
      "decimals()": {
        "details": "Returns the number of decimals used to get its user representation. For example, if `decimals` equals `2`, a balance of `505` tokens should be displayed to a user as `5.05` (`505 / 10 ** 2`). Tokens usually opt for a value of 18, imitating the relationship between Ether and Wei. This is the default value returned by this function, unless it's overridden. NOTE: This information is only used for _display_ purposes: it in no way affects any of the arithmetic of the contract, including {IERC20-balanceOf} and {IERC20-transfer}."
      },
      "name()": {
        "details": "Returns the name of the token."
      },
      "symbol()": {
        "details": "Returns the symbol of the token, usually a shorter version of the name."
      },
      "totalSupply()": {
        "details": "See {IERC20-totalSupply}."
      }
    },
    "version": 1
  },
  "userdoc": {
    "kind": "user",
    "methods": {},
    "version": 1
  }
}