{
  "contractName": "MoonCatToken",
  "abi": [
    {
      "inputs": [
        {
          "internalType": "string",
          "name": "name",
          "type": "string"
        },
        {
          "internalType": "string",
          "name": "symbol",
          "type": "string"
        },
        {
          "internalType": "uint256",
          "name": "initialSupply",
          "type": "uint256"
        }
      ],
      "stateMutability": "nonpayable",
      "type": "constructor"
    },
    {
      "inputs": [],
      "name": "CheckpointUnorderedInsertion",
      "type": "error"
    },
    {
      "inputs": [],
      "name": "ECDSAInvalidSignature",
      "type": "error"
    },
    {
      "inputs": [
        {
          "internalType": "uint256",
          "name": "length",
          "type": "uint256"
        }
      ],
      "name": "ECDSAInvalidSignatureLength",
      "type": "error"
    },
    {
      "inputs": [
        {
          "internalType": "bytes32",
          "name": "s",
          "type": "bytes32"
        }
      ],
      "name": "ECDSAInvalidSignatureS",
      "type": "error"
    },
    {
      "inputs": [
        {
          "internalType": "uint256",
          "name": "increasedSupply",
          "type": "uint256"
        },
        {
          "internalType": "uint256",
          "name": "cap",
          "type": "uint256"
        }
      ],
      "name": "ERC20ExceededSafeSupply",
      "type": "error"
    },
    {
      "inputs": [
        {
          "internalType": "address",
          "name": "spender",
          "type": "address"
        },
        {
          "internalType": "uint256",
          "name": "allowance",
          "type": "uint256"
        },
        {
          "internalType": "uint256",
          "name": "needed",
          "type": "uint256"
        }
      ],
      "name": "ERC20InsufficientAllowance",
      "type": "error"
    },
    {
      "inputs": [
        {
          "internalType": "address",
          "name": "sender",
          "type": "address"
        },
        {
          "internalType": "uint256",
          "name": "balance",
          "type": "uint256"
        },
        {
          "internalType": "uint256",
          "name": "needed",
          "type": "uint256"
        }
      ],
      "name": "ERC20InsufficientBalance",
      "type": "error"
    },
    {
      "inputs": [
        {
          "internalType": "address",
          "name": "approver",
          "type": "address"
        }
      ],
      "name": "ERC20InvalidApprover",
      "type": "error"
    },
    {
      "inputs": [
        {
          "internalType": "address",
          "name": "receiver",
          "type": "address"
        }
      ],
      "name": "ERC20InvalidReceiver",
      "type": "error"
    },
    {
      "inputs": [
        {
          "internalType": "address",
          "name": "sender",
          "type": "address"
        }
      ],
      "name": "ERC20InvalidSender",
      "type": "error"
    },
    {
      "inputs": [
        {
          "internalType": "address",
          "name": "spender",
          "type": "address"
        }
      ],
      "name": "ERC20InvalidSpender",
      "type": "error"
    },
    {
      "inputs": [
        {
          "internalType": "uint256",
          "name": "deadline",
          "type": "uint256"
        }
      ],
      "name": "ERC2612ExpiredSignature",
      "type": "error"
    },
    {
      "inputs": [
        {
          "internalType": "address",
          "name": "signer",
          "type": "address"
        },
        {
          "internalType": "address",
          "name": "owner",
          "type": "address"
        }
      ],
      "name": "ERC2612InvalidSigner",
      "type": "error"
    },
    {
      "inputs": [
        {
          "internalType": "uint256",
          "name": "timepoint",
          "type": "uint256"
        },
        {
          "internalType": "uint48",
          "name": "clock",
          "type": "uint48"
        }
      ],
      "name": "ERC5805FutureLookup",
      "type": "error"
    },
    {
      "inputs": [],
      "name": "ERC6372InconsistentClock",
      "type": "error"
    },
    {
      "inputs": [],
      "name": "EnforcedPause",
      "type": "error"
    },
    {
      "inputs": [],
      "name": "ExpectedPause",
      "type": "error"
    },
    {
      "inputs": [
        {
          "internalType": "address",
          "name": "account",
          "type": "address"
        },
        {
          "internalType": "uint256",
          "name": "currentNonce",
          "type": "uint256"
        }
      ],
      "name": "InvalidAccountNonce",
      "type": "error"
    },
    {
      "inputs": [],
      "name": "InvalidShortString",
      "type": "error"
    },
    {
      "inputs": [
        {
          "internalType": "address",
          "name": "owner",
          "type": "address"
        }
      ],
      "name": "OwnableInvalidOwner",
      "type": "error"
    },
    {
      "inputs": [
        {
          "internalType": "address",
          "name": "account",
          "type": "address"
        }
      ],
      "name": "OwnableUnauthorizedAccount",
      "type": "error"
    },
    {
      "inputs": [
        {
          "internalType": "uint8",
          "name": "bits",
          "type": "uint8"
        },
        {
          "internalType": "uint256",
          "name": "value",
          "type": "uint256"
        }
      ],
      "name": "SafeCastOverflowedUintDowncast",
      "type": "error"
    },
    {
      "inputs": [
        {
          "internalType": "string",
          "name": "str",
          "type": "string"
        }
      ],
      "name": "StringTooLong",
      "type": "error"
    },
    {
      "inputs": [
        {
          "internalType": "uint256",
          "name": "expiry",
          "type": "uint256"
        }
      ],
      "name": "VotesExpiredSignature",
      "type": "error"
    },
    {
      "anonymous": false,
      "inputs": [
        {
          "indexed": true,
          "internalType": "address",
          "name": "account",
          "type": "address"
        },
        {
          "indexed": false,
          "internalType": "bool",
          "name": "excluded",
          "type": "bool"
        }
      ],
      "name": "AddressExcludedFromTax",
      "type": "event"
    },
    {
      "anonymous": false,
      "inputs": [
        {
          "indexed": true,
          "internalType": "address",
          "name": "owner",
          "type": "address"
        },
        {
          "indexed": true,
          "internalType": "address",
          "name": "spender",
          "type": "address"
        },
        {
          "indexed": false,
          "internalType": "uint256",
          "name": "value",
          "type": "uint256"
        }
      ],
      "name": "Approval",
      "type": "event"
    },
    {
      "anonymous": false,
      "inputs": [
        {
          "indexed": true,
          "internalType": "address",
          "name": "delegator",
          "type": "address"
        },
        {
          "indexed": true,
          "internalType": "address",
          "name": "fromDelegate",
          "type": "address"
        },
        {
          "indexed": true,
          "internalType": "address",
          "name": "toDelegate",
          "type": "address"
        }
      ],
      "name": "DelegateChanged",
      "type": "event"
    },
    {
      "anonymous": false,
      "inputs": [
        {
          "indexed": true,
          "internalType": "address",
          "name": "delegate",
          "type": "address"
        },
        {
          "indexed": false,
          "internalType": "uint256",
          "name": "previousVotes",
          "type": "uint256"
        },
        {
          "indexed": false,
          "internalType": "uint256",
          "name": "newVotes",
          "type": "uint256"
        }
      ],
      "name": "DelegateVotesChanged",
      "type": "event"
    },
    {
      "anonymous": false,
      "inputs": [],
      "name": "EIP712DomainChanged",
      "type": "event"
    },
    {
      "anonymous": false,
      "inputs": [
        {
          "indexed": true,
          "internalType": "address",
          "name": "previousOwner",
          "type": "address"
        },
        {
          "indexed": true,
          "internalType": "address",
          "name": "newOwner",
          "type": "address"
        }
      ],
      "name": "OwnershipTransferred",
      "type": "event"
    },
    {
      "anonymous": false,
      "inputs": [
        {
          "indexed": false,
          "internalType": "address",
          "name": "account",
          "type": "address"
        }
      ],
      "name": "Paused",
      "type": "event"
    },
    {
      "anonymous": false,
      "inputs": [
        {
          "indexed": false,
          "internalType": "address",
          "name": "oldCollector",
          "type": "address"
        },
        {
          "indexed": false,
          "internalType": "address",
          "name": "newCollector",
          "type": "address"
        }
      ],
      "name": "TaxCollectorUpdated",
      "type": "event"
    },
    {
      "anonymous": false,
      "inputs": [
        {
          "indexed": false,
          "internalType": "uint256",
          "name": "oldRate",
          "type": "uint256"
        },
        {
          "indexed": false,
          "internalType": "uint256",
          "name": "newRate",
          "type": "uint256"
        }
      ],
      "name": "TaxRateUpdated",
      "type": "event"
    },
    {
      "anonymous": false,
      "inputs": [
        {
          "indexed": true,
          "internalType": "address",
          "name": "from",
          "type": "address"
        },
        {
          "indexed": true,
          "internalType": "address",
          "name": "to",
          "type": "address"
        },
        {
          "indexed": false,
          "internalType": "uint256",
          "name": "value",
          "type": "uint256"
        }
      ],
      "name": "Transfer",
      "type": "event"
    },
    {
      "anonymous": false,
      "inputs": [
        {
          "indexed": false,
          "internalType": "address",
          "name": "account",
          "type": "address"
        }
      ],
      "name": "Unpaused",
      "type": "event"
    },
    {
      "inputs": [],
      "name": "DOMAIN_SEPARATOR",
      "outputs": [
        {
          "internalType": "bytes32",
          "name": "",
          "type": "bytes32"
        }
      ],
      "stateMutability": "view",
      "type": "function"
    },
    {
      "inputs": [],
      "name": "MAX_TAX_RATE",
      "outputs": [
        {
          "internalType": "uint256",
          "name": "",
          "type": "uint256"
        }
      ],
      "stateMutability": "view",
      "type": "function"
    },
    {
      "inputs": [
        {
          "internalType": "address",
          "name": "owner",
          "type": "address"
        },
        {
          "internalType": "address",
          "name": "spender",
          "type": "address"
        }
      ],
      "name": "allowance",
      "outputs": [
        {
          "internalType": "uint256",
          "name": "",
          "type": "uint256"
        }
      ],
      "stateMutability": "view",
      "type": "function"
    },
    {
      "inputs": [
        {
          "internalType": "address",
          "name": "spender",
          "type": "address"
        },
        {
          "internalType": "uint256",
          "name": "value",
          "type": "uint256"
        }
      ],
      "name": "approve",
      "outputs": [
        {
          "internalType": "bool",
          "name": "",
          "type": "bool"
        }
      ],
      "stateMutability": "nonpayable",
      "type": "function"
    },
    {
      "inputs": [
        {
          "internalType": "address",
          "name": "account",
          "type": "address"
        }
      ],
      "name": "balanceOf",
      "outputs": [
        {
          "internalType": "uint256",
          "name": "",
          "type": "uint256"
        }
      ],
      "stateMutability": "view",
      "type": "function"
    },
    {
      "inputs": [
        {
          "internalType": "address",
          "name": "account",
          "type": "address"
        },
        {
          "internalType": "uint32",
          "name": "pos",
          "type": "uint32"
        }
      ],
      "name": "checkpoints",
      "outputs": [
        {
          "components": [
            {
              "internalType": "uint48",
              "name": "_key",
              "type": "uint48"
            },
            {
              "internalType": "uint208",
              "name": "_value",
              "type": "uint208"
            }
          ],
          "internalType": "struct Checkpoints.Checkpoint208",
          "name": "",
          "type": "tuple"
        }
      ],
      "stateMutability": "view",
      "type": "function"
    },
    {
      "inputs": [],
      "name": "decimals",
      "outputs": [
        {
          "internalType": "uint8",
          "name": "",
          "type": "uint8"
        }
      ],
      "stateMutability": "view",
      "type": "function"
    },
    {
      "inputs": [
        {
          "internalType": "address",
          "name": "delegatee",
          "type": "address"
        }
      ],
      "name": "delegate",
      "outputs": [],
      "stateMutability": "nonpayable",
      "type": "function"
    },
    {
      "inputs": [
        {
          "internalType": "address",
          "name": "delegatee",
          "type": "address"
        },
        {
          "internalType": "uint256",
          "name": "nonce",
          "type": "uint256"
        },
        {
          "internalType": "uint256",
          "name": "expiry",
          "type": "uint256"
        },
        {
          "internalType": "uint8",
          "name": "v",
          "type": "uint8"
        },
        {
          "internalType": "bytes32",
          "name": "r",
          "type": "bytes32"
        },
        {
          "internalType": "bytes32",
          "name": "s",
          "type": "bytes32"
        }
      ],
      "name": "delegateBySig",
      "outputs": [],
      "stateMutability": "nonpayable",
      "type": "function"
    },
    {
      "inputs": [
        {
          "internalType": "address",
          "name": "account",
          "type": "address"
        }
      ],
      "name": "delegates",
      "outputs": [
        {
          "internalType": "address",
          "name": "",
          "type": "address"
        }
      ],
      "stateMutability": "view",
      "type": "function"
    },
    {
      "inputs": [],
      "name": "eip712Domain",
      "outputs": [
        {
          "internalType": "bytes1",
          "name": "fields",
          "type": "bytes1"
        },
        {
          "internalType": "string",
          "name": "name",
          "type": "string"
        },
        {
          "internalType": "string",
          "name": "version",
          "type": "string"
        },
        {
          "internalType": "uint256",
          "name": "chainId",
          "type": "uint256"
        },
        {
          "internalType": "address",
          "name": "verifyingContract",
          "type": "address"
        },
        {
          "internalType": "bytes32",
          "name": "salt",
          "type": "bytes32"
        },
        {
          "internalType": "uint256[]",
          "name": "extensions",
          "type": "uint256[]"
        }
      ],
      "stateMutability": "view",
      "type": "function"
    },
    {
      "inputs": [
        {
          "internalType": "address",
          "name": "",
          "type": "address"
        }
      ],
      "name": "excludedFromTax",
      "outputs": [
        {
          "internalType": "bool",
          "name": "",
          "type": "bool"
        }
      ],
      "stateMutability": "view",
      "type": "function"
    },
    {
      "inputs": [
        {
          "internalType": "uint256",
          "name": "timepoint",
          "type": "uint256"
        }
      ],
      "name": "getPastTotalSupply",
      "outputs": [
        {
          "internalType": "uint256",
          "name": "",
          "type": "uint256"
        }
      ],
      "stateMutability": "view",
      "type": "function"
    },
    {
      "inputs": [
        {
          "internalType": "address",
          "name": "account",
          "type": "address"
        },
        {
          "internalType": "uint256",
          "name": "timepoint",
          "type": "uint256"
        }
      ],
      "name": "getPastVotes",
      "outputs": [
        {
          "internalType": "uint256",
          "name": "",
          "type": "uint256"
        }
      ],
      "stateMutability": "view",
      "type": "function"
    },
    {
      "inputs": [
        {
          "internalType": "address",
          "name": "account",
          "type": "address"
        }
      ],
      "name": "getVotes",
      "outputs": [
        {
          "internalType": "uint256",
          "name": "",
          "type": "uint256"
        }
      ],
      "stateMutability": "view",
      "type": "function"
    },
    {
      "inputs": [],
      "name": "name",
      "outputs": [
        {
          "internalType": "string",
          "name": "",
          "type": "string"
        }
      ],
      "stateMutability": "view",
      "type": "function"
    },
    {
      "inputs": [
        {
          "internalType": "address",
          "name": "account",
          "type": "address"
        }
      ],
      "name": "numCheckpoints",
      "outputs": [
        {
          "internalType": "uint32",
          "name": "",
          "type": "uint32"
        }
      ],
      "stateMutability": "view",
      "type": "function"
    },
    {
      "inputs": [],
      "name": "owner",
      "outputs": [
        {
          "internalType": "address",
          "name": "",
          "type": "address"
        }
      ],
      "stateMutability": "view",
      "type": "function"
    },
    {
      "inputs": [],
      "name": "paused",
      "outputs": [
        {
          "internalType": "bool",
          "name": "",
          "type": "bool"
        }
      ],
      "stateMutability": "view",
      "type": "function"
    },
    {
      "inputs": [
        {
          "internalType": "address",
          "name": "owner",
          "type": "address"
        },
        {
          "internalType": "address",
          "name": "spender",
          "type": "address"
        },
        {
          "internalType": "uint256",
          "name": "value",
          "type": "uint256"
        },
        {
          "internalType": "uint256",
          "name": "deadline",
          "type": "uint256"
        },
        {
          "internalType": "uint8",
          "name": "v",
          "type": "uint8"
        },
        {
          "internalType": "bytes32",
          "name": "r",
          "type": "bytes32"
        },
        {
          "internalType": "bytes32",
          "name": "s",
          "type": "bytes32"
        }
      ],
      "name": "permit",
      "outputs": [],
      "stateMutability": "nonpayable",
      "type": "function"
    },
    {
      "inputs": [],
      "name": "renounceOwnership",
      "outputs": [],
      "stateMutability": "nonpayable",
      "type": "function"
    },
    {
      "inputs": [],
      "name": "symbol",
      "outputs": [
        {
          "internalType": "string",
          "name": "",
          "type": "string"
        }
      ],
      "stateMutability": "view",
      "type": "function"
    },
    {
      "inputs": [],
      "name": "taxCollector",
      "outputs": [
        {
          "internalType": "address",
          "name": "",
          "type": "address"
        }
      ],
      "stateMutability": "view",
      "type": "function"
    },
    {
      "inputs": [],
      "name": "taxRate",
      "outputs": [
        {
          "internalType": "uint256",
          "name": "",
          "type": "uint256"
        }
      ],
      "stateMutability": "view",
      "type": "function"
    },
    {
      "inputs": [],
      "name": "totalSupply",
      "outputs": [
        {
          "internalType": "uint256",
          "name": "",
          "type": "uint256"
        }
      ],
      "stateMutability": "view",
      "type": "function"
    },
    {
      "inputs": [
        {
          "internalType": "address",
          "name": "newOwner",
          "type": "address"
        }
      ],
      "name": "transferOwnership",
      "outputs": [],
      "stateMutability": "nonpayable",
      "type": "function"
    },
    {
      "inputs": [
        {
          "internalType": "address",
          "name": "account",
          "type": "address"
        }
      ],
      "name": "excludeFromTax",
      "outputs": [],
      "stateMutability": "nonpayable",
      "type": "function"
    },
    {
      "inputs": [
        {
          "internalType": "address",
          "name": "account",
          "type": "address"
        }
      ],
      "name": "includeInTax",
      "outputs": [],
      "stateMutability": "nonpayable",
      "type": "function"
    },
    {
      "inputs": [
        {
          "internalType": "address",
          "name": "recipient",
          "type": "address"
        },
        {
          "internalType": "uint256",
          "name": "amount",
          "type": "uint256"
        }
      ],
      "name": "transfer",
      "outputs": [
        {
          "internalType": "bool",
          "name": "",
          "type": "bool"
        }
      ],
      "stateMutability": "nonpayable",
      "type": "function"
    },
    {
      "inputs": [
        {
          "internalType": "address",
          "name": "sender",
          "type": "address"
        },
        {
          "internalType": "address",
          "name": "recipient",
          "type": "address"
        },
        {
          "internalType": "uint256",
          "name": "amount",
          "type": "uint256"
        }
      ],
      "name": "transferFrom",
      "outputs": [
        {
          "internalType": "bool",
          "name": "",
          "type": "bool"
        }
      ],
      "stateMutability": "nonpayable",
      "type": "function"
    },
    {
      "inputs": [
        {
          "internalType": "uint256",
          "name": "newTaxRate",
          "type": "uint256"
        }
      ],
      "name": "setTaxRate",
      "outputs": [],
      "stateMutability": "nonpayable",
      "type": "function"
    },
    {
      "inputs": [
        {
          "internalType": "address",
          "name": "newCollector",
          "type": "address"
        }
      ],
      "name": "setTaxCollector",
      "outputs": [],
      "stateMutability": "nonpayable",
      "type": "function"
    },
    {
      "inputs": [],
      "name": "pause",
      "outputs": [],
      "stateMutability": "nonpayable",
      "type": "function"
    },
    {
      "inputs": [],
      "name": "unpause",
      "outputs": [],
      "stateMutability": "nonpayable",
      "type": "function"
    },
    {
      "inputs": [
        {
          "internalType": "address",
          "name": "owner",
          "type": "address"
        }
      ],
      "name": "nonces",
      "outputs": [
        {
          "internalType": "uint256",
          "name": "",
          "type": "uint256"
        }
      ],
      "stateMutability": "view",
      "type": "function"
    },
    {
      "inputs": [],
      "name": "clock",
      "outputs": [
        {
          "internalType": "uint48",
          "name": "",
          "type": "uint48"
        }
      ],
      "stateMutability": "view",
      "type": "function"
    },
    {
      "inputs": [],
      "name": "CLOCK_MODE",
      "outputs": [
        {
          "internalType": "string",
          "name": "",
          "type": "string"
        }
      ],
      "stateMutability": "pure",
      "type": "function"
    },
    {
      "inputs": [],
      "name": "getDomainSeparator",
      "outputs": [
        {
          "internalType": "bytes32",
          "name": "",
          "type": "bytes32"
        }
      ],
      "stateMutability": "view",
      "type": "function"
    }
  ],
  "bytecode": "0x6101606040526064600c5534801561001657600080fd5b50604051613345380380613345833981016040819052610035916109dc565b338380604051806040016040528060018152602001603160f81b815250868681600390816100639190610ad6565b5060046100708282610ad6565b506100809150839050600561025c565b6101205261008f81600661025c565b61014052815160208084019190912060e052815190820120610100524660a05261011c60e05161010051604080517f8b73c3c69bb8fe3d512ecc4cf759cc79239f7b179b0ffacaa9a75d522b39400f60208201529081019290925260608201524660808201523060a082015260009060c00160405160208183030381529060405280519060200120905090565b60805250503060c05250600b805460ff191690556001600160a01b03811661015f57604051631e4fbdf760e01b8152600060048201526024015b60405180910390fd5b6101688161028f565b50600081116101b95760405162461bcd60e51b815260206004820152601f60248201527f496e697469616c20737570706c79206d75737420626520706f736974697665006044820152606401610156565b6101c56012600a610c89565b6101d190600019610c98565b8111156102205760405162461bcd60e51b815260206004820152601860248201527f496e697469616c20737570706c7920746f6f206c6172676500000000000000006044820152606401610156565b600d80546001600160a01b03191633908117909155610254906102456012600a610c89565b61024f9084610cba565b6102e9565b505050610d8c565b60006020835110156102785761027183610323565b9050610289565b816102838482610ad6565b5060ff90505b92915050565b600b80546001600160a01b03838116610100818102610100600160a81b031985161790945560405193909204169182907f8be0079c531659141344cd1fd0a4f28419497f9722a3daafe3b4186f6b6457e090600090a35050565b6001600160a01b0382166103135760405163ec442f0560e01b815260006004820152602401610156565b61031f60008383610361565b5050565b600080829050601f8151111561034e578260405163305a27a960e01b81526004016101569190610cd1565b805161035982610d04565b179392505050565b61036c838383610371565b505050565b61037c8383836103d8565b6001600160a01b0383166103cd57600061039560025490565b90506001600160d01b03808211156103ca57604051630e58ae9360e11b81526004810183905260248101829052604401610156565b50505b61036c838383610502565b6001600160a01b0383166104035780600260008282546103f89190610d28565b909155506104759050565b6001600160a01b038316600090815260208190526040902054818110156104565760405163391434e360e21b81526001600160a01b03851660048201526024810182905260448101839052606401610156565b6001600160a01b03841660009081526020819052604090209082900390555b6001600160a01b038216610491576002805482900390556104b0565b6001600160a01b03821660009081526020819052604090208054820190555b816001600160a01b0316836001600160a01b03167fddf252ad1be2c89b69c2b068fc378daa952ba7f163c4a11628f55a4df523b3ef836040516104f591815260200190565b60405180910390a3505050565b6001600160a01b0383166105305761052d600a610eae61058b60201b176105288461059e565b6105d6565b50505b6001600160a01b03821661055957610556600a610eba61060560201b176105288461059e565b50505b6001600160a01b0383811660009081526008602052604080822054858416835291205461036c92918216911683610611565b60006105978284610d3b565b9392505050565b60006001600160d01b038211156105d2576040516306dfcc6560e41b815260d0600482015260248101839052604401610156565b5090565b6000806105f8426105f06105e988610766565b868860201c565b8791906107b0565b915091505b935093915050565b60006105978284610d5a565b816001600160a01b0316836001600160a01b0316141580156106335750600081115b1561036c576001600160a01b038316156106cd576001600160a01b03831660009081526009602090815260408220829161067a9190610605901b610eba176105288661059e565b6001600160d01b031691506001600160d01b03169150846001600160a01b031660008051602061332583398151915283836040516106c2929190918252602082015260400190565b60405180910390a250505b6001600160a01b0382161561036c576001600160a01b03821660009081526009602090815260408220829161070f919061058b901b610eae176105288661059e565b6001600160d01b031691506001600160d01b03169150836001600160a01b03166000805160206133258339815191528383604051610757929190918252602082015260400190565b60405180910390a25050505050565b805460009080156107a75761078e83610780600184610d79565b600091825260209091200190565b54660100000000000090046001600160d01b0316610597565b60009392505050565b6000806105f88585858254600090819080156108bb5760006107d787610780600185610d79565b805490915065ffffffffffff80821691660100000000000090046001600160d01b031690881682111561081d57604051632520601d60e01b815260040160405180910390fd5b8765ffffffffffff168265ffffffffffff160361085957825465ffffffffffff1666010000000000006001600160d01b038916021783556108ad565b6040805180820190915265ffffffffffff808a1682526001600160d01b03808a1660208085019182528d54600181018f5560008f815291909120945191519092166601000000000000029216919091179101555b94508593506105fd92505050565b50506040805180820190915265ffffffffffff80851682526001600160d01b0380851660208085019182528854600181018a5560008a81529182209551925190931666010000000000000291909316179201919091559050816105fd565b634e487b7160e01b600052604160045260246000fd5b60005b8381101561094a578181015183820152602001610932565b50506000910152565b600082601f83011261096457600080fd5b81516001600160401b0381111561097d5761097d610919565b604051601f8201601f19908116603f011681016001600160401b03811182821017156109ab576109ab610919565b6040528181528382016020018510156109c357600080fd5b6109d482602083016020870161092f565b949350505050565b6000806000606084860312156109f157600080fd5b83516001600160401b03811115610a0757600080fd5b610a1386828701610953565b602086015190945090506001600160401b03811115610a3157600080fd5b610a3d86828701610953565b925050604084015190509250925092565b600181811c90821680610a6257607f821691505b602082108103610a8257634e487b7160e01b600052602260045260246000fd5b50919050565b601f82111561036c57806000526020600020601f840160051c81016020851015610aaf5750805b601f840160051c820191505b81811015610acf5760008155600101610abb565b5050505050565b81516001600160401b03811115610aef57610aef610919565b610b0381610afd8454610a4e565b84610a88565b6020601f821160018114610b375760008315610b1f5750848201515b600019600385901b1c1916600184901b178455610acf565b600084815260208120601f198516915b82811015610b675787850151825560209485019460019092019101610b47565b5084821015610b855786840151600019600387901b60f8161c191681555b50505050600190811b01905550565b634e487b7160e01b600052601160045260246000fd5b6001815b60018411156105fd57808504811115610bc957610bc9610b94565b6001841615610bd757908102905b60019390931c928002610bae565b600082610bf457506001610289565b81610c0157506000610289565b8160018114610c175760028114610c2157610c3d565b6001915050610289565b60ff841115610c3257610c32610b94565b50506001821b610289565b5060208310610133831016604e8410600b8410161715610c60575081810a610289565b610c6d6000198484610baa565b8060001904821115610c8157610c81610b94565b029392505050565b600061059760ff841683610be5565b600082610cb557634e487b7160e01b600052601260045260246000fd5b500490565b808202811582820484141761028957610289610b94565b6020815260008251806020840152610cf081604085016020870161092f565b601f01601f19169190910160400192915050565b80516020808301519190811015610a825760001960209190910360031b1b16919050565b8082018082111561028957610289610b94565b6001600160d01b03818116838216019081111561028957610289610b94565b6001600160d01b03828116828216039081111561028957610289610b94565b8181038181111561028957610289610b94565b60805160a05160c05160e05161010051610120516101405161253f610de6600039600061133a0152600061130d0152600061102d0152600061100501526000610f6001526000610f8a01526000610fb4015261253f6000f3fe608060405234801561001057600080fd5b50600436106102325760003560e01c80638456cb5911610130578063a9059cbb116100b8578063dd62ed3e1161007c578063dd62ed3e14610500578063e17c4c7414610539578063ed24911d146102c1578063f1127ed81461054c578063f2fde38b1461058b57600080fd5b8063a9059cbb146104a1578063bea1dcf8146104b4578063c3cda520146104c7578063c6d69a30146104da578063d505accf146104ed57600080fd5b80638fa81732116100ff5780638fa817321461044457806391ddadf41461044d57806395d89b4114610463578063989763ef1461046b5780639ab24eb01461048e57600080fd5b80638456cb59146103f857806384b0196e146104005780638da5cb5b1461041b5780638e539e8c1461043157600080fd5b80634bf5d7e9116101be5780636fcfff45116101825780636fcfff451461038357806370a08231146103ab578063715018a6146103d4578063771a3a1d146103dc5780637ecebe00146103e557600080fd5b80634bf5d7e9146102e4578063587cde1e1461030e5780635c19a95c146103525780635c975abb1461036557806360d1259e1461037057600080fd5b806323b872dd1161020557806323b872dd1461029f578063313ce567146102b25780633644e515146102c15780633a46b1a8146102c95780633f4ba83a146102dc57600080fd5b806306fdde031461023757806308695b4114610255578063095ea7b31461026a57806318160ddd1461028d575b600080fd5b61023f61059e565b60405161024c9190612108565b60405180910390f35b610268610263366004612137565b610630565b005b61027d610278366004612152565b6106ca565b604051901515815260200161024c565b6002545b60405190815260200161024c565b61027d6102ad36600461217c565b6106e4565b6040516012815260200161024c565b6102916107a4565b6102916102d7366004612152565b6107b3565b61026861082a565b60408051808201909152600e81526d06d6f64653d74696d657374616d760941b602082015261023f565b61033a61031c366004612137565b6001600160a01b039081166000908152600860205260409020541690565b6040516001600160a01b03909116815260200161024c565b610268610360366004612137565b61083c565b600b5460ff1661027d565b61026861037e366004612137565b61084b565b610396610391366004612137565b6108d9565b60405163ffffffff909116815260200161024c565b6102916103b9366004612137565b6001600160a01b031660009081526020819052604090205490565b6102686108e4565b610291600c5481565b6102916103f3366004612137565b6108f6565b610268610901565b610408610911565b60405161024c97969594939291906121b9565b600b5461010090046001600160a01b031661033a565b61029161043f366004612251565b610957565b6102916103e881565b60405165ffffffffffff4216815260200161024c565b61023f6109b7565b61027d610479366004612137565b600e6020526000908152604090205460ff1681565b61029161049c366004612137565b6109c6565b61027d6104af366004612152565b6109f6565b600d5461033a906001600160a01b031681565b6102686104d536600461227b565b610b4a565b6102686104e8366004612251565b610c07565b6102686104fb3660046122d3565b610c9a565b61029161050e36600461233e565b6001600160a01b03918216600090815260016020908152604080832093909416825291909152205490565b610268610547366004612137565b610dd4565b61055f61055a366004612371565b610e52565b60408051825165ffffffffffff1681526020928301516001600160d01b0316928101929092520161024c565b610268610599366004612137565b610e70565b6060600380546105ad906123b1565b80601f01602080910402602001604051908101604052809291908181526020018280546105d9906123b1565b80156106265780601f106105fb57610100808354040283529160200191610626565b820191906000526020600020905b81548152906001019060200180831161060957829003601f168201915b5050505050905090565b610638610ec6565b806001600160a01b0381166106685760405162461bcd60e51b815260040161065f906123eb565b60405180910390fd5b600d80546001600160a01b038481166001600160a01b031983168117909355604080519190921680825260208201939093527f6044923ecb0965a63f176aa00cb41dc97a3255923e1e084d97bc6728b07765ae910160405180910390a1505050565b6000336106d8818585610ef9565b60019150505b92915050565b60006106ee610f0b565b6001600160a01b0384166000908152600e602052604090205460ff168061072d57506001600160a01b0383166000908152600e602052604090205460ff165b156107445761073d848484610f2f565b905061079d565b6000612710600c5484610757919061242a565b6107619190612457565b9050600061076f8285612479565b905061077c868683610f2f565b50600d546107959087906001600160a01b031684610f2f565b506001925050505b9392505050565b60006107ae610f53565b905090565b60004265ffffffffffff811683106107ef57604051637669fc0f60e11b81526004810184905265ffffffffffff8216602482015260440161065f565b6108196107fb8461107e565b6001600160a01b0386166000908152600960205260409020906110b5565b6001600160d01b0316949350505050565b610832610ec6565b61083a61116b565b565b3361084781836111bd565b5050565b610853610ec6565b806001600160a01b03811661087a5760405162461bcd60e51b815260040161065f906123eb565b6001600160a01b0382166000818152600e6020908152604091829020805460ff1916600190811790915591519182527f58b182f10f8497fe6013ebaa04cd13806fd9353e32506059d50ca956c488188991015b60405180910390a25050565b60006106de8261122f565b6108ec610ec6565b61083a6000611251565b60006106de826112ab565b610909610ec6565b61083a6112c9565b600060608060008060006060610925611306565b61092d611333565b60408051600080825260208201909252600f60f81b9b939a50919850469750309650945092509050565b60004265ffffffffffff8116831061099357604051637669fc0f60e11b81526004810184905265ffffffffffff8216602482015260440161065f565b6109a761099f8461107e565b600a906110b5565b6001600160d01b03169392505050565b6060600480546105ad906123b1565b6001600160a01b03811660009081526009602052604081206109e790611360565b6001600160d01b031692915050565b6000610a00610f0b565b6001600160a01b038316610a565760405162461bcd60e51b815260206004820152601860248201527f5472616e7366657220746f207a65726f20616464726573730000000000000000604482015260640161065f565b610a5f336103b9565b821115610aa55760405162461bcd60e51b8152602060048201526014602482015273496e73756666696369656e742062616c616e636560601b604482015260640161065f565b336000908152600e602052604090205460ff1680610adb57506001600160a01b0383166000908152600e602052604090205460ff165b15610af057610aeb338484611399565b610b41565b6000612710600c5484610b03919061242a565b610b0d9190612457565b90506000610b1b8285612479565b9050610b28338683611399565b610b3e33600d546001600160a01b031684611399565b50505b50600192915050565b83421115610b6e57604051632341d78760e11b81526004810185905260240161065f565b604080517fe48329057bfd03d55e49b547132e39cffd9c1820ad7b9d4c5307691425d15adf60208201526001600160a01b038816918101919091526060810186905260808101859052600090610be890610be09060a001604051602081830303815290604052805190602001206113f8565b858585611425565b9050610bf48187611453565b610bfe81886111bd565b50505050505050565b610c0f610ec6565b6103e8811115610c555760405162461bcd60e51b81526020600482015260116024820152700a8c2f040e4c2e8ca40e8dede40d0d2ced607b1b604482015260640161065f565b600c80549082905560408051828152602081018490527fa8ee157eb2a9aa895d74df4d2d3bc0ad165ff3162f8ec46a4ecf602dd5c48fda910160405180910390a15050565b83421115610cbe5760405163313c898160e11b81526004810185905260240161065f565b60007f6e71edae12b1b97f4d1f60370fef10105fa2faae0126114a169c64845d6126c9888888610d0b8c6001600160a01b0316600090815260076020526040902080546001810190915590565b6040805160208101969096526001600160a01b0394851690860152929091166060840152608083015260a082015260c0810186905260e0016040516020818303038152906040528051906020012090506000610d66826113f8565b90506000610d7682878787611425565b9050896001600160a01b0316816001600160a01b031614610dbd576040516325c0072360e11b81526001600160a01b0380831660048301528b16602482015260440161065f565b610dc88a8a8a610ef9565b50505050505050505050565b610ddc610ec6565b806001600160a01b038116610e035760405162461bcd60e51b815260040161065f906123eb565b6001600160a01b0382166000818152600e60209081526040808320805460ff19169055519182527f58b182f10f8497fe6013ebaa04cd13806fd9353e32506059d50ca956c488188991016108cd565b604080518082019091526000808252602082015261079d83836114a6565b610e78610ec6565b6001600160a01b038116610ea257604051631e4fbdf760e01b81526000600482015260240161065f565b610eab81611251565b50565b600061079d828461248c565b600061079d82846124ab565b600b546001600160a01b0361010090910416331461083a5760405163118cdaa760e01b815233600482015260240161065f565b610f0683838360016114dc565b505050565b600b5460ff161561083a5760405163d93c066560e01b815260040160405180910390fd5b600033610f3d8582856115b2565b610f48858585611399565b506001949350505050565b6000306001600160a01b037f000000000000000000000000000000000000000000000000000000000000000016148015610fac57507f000000000000000000000000000000000000000000000000000000000000000046145b15610fd657507f000000000000000000000000000000000000000000000000000000000000000090565b6107ae604080517f8b73c3c69bb8fe3d512ecc4cf759cc79239f7b179b0ffacaa9a75d522b39400f60208201527f0000000000000000000000000000000000000000000000000000000000000000918101919091527f000000000000000000000000000000000000000000000000000000000000000060608201524660808201523060a082015260009060c00160405160208183030381529060405280519060200120905090565b600065ffffffffffff8211156110b1576040516306dfcc6560e41b8152603060048201526024810183905260440161065f565b5090565b8154600090818160058111156111145760006110d08461162a565b6110da9085612479565b60008881526020902090915081015465ffffffffffff908116908716101561110457809150611112565b61110f8160016124ca565b92505b505b600061112287878585611783565b9050801561115d5761114787611139600184612479565b600091825260209091200190565b54600160301b90046001600160d01b0316611160565b60005b979650505050505050565b6111736117e5565b600b805460ff191690557f5db9ee0a495bf2e6ff9c91a7834c1ba4fdd244a5e8aa4e537bd38aeae4b073aa335b6040516001600160a01b03909116815260200160405180910390a1565b6001600160a01b0382811660008181526008602052604080822080548686166001600160a01b0319821681179092559151919094169392849290917f3134e8a2e6d97e929a7e54011ea5485d7d196dd5f0ba4d4ef95803e8e3fc257f9190a4610f06818361122a86611808565b611826565b6001600160a01b0381166000908152600960205260408120546106de90611992565b600b80546001600160a01b03838116610100818102610100600160a81b031985161790945560405193909204169182907f8be0079c531659141344cd1fd0a4f28419497f9722a3daafe3b4186f6b6457e090600090a35050565b6001600160a01b0381166000908152600760205260408120546106de565b6112d1610f0b565b600b805460ff191660011790557f62e78cea01bee320cd4e420270b5ea74000d11b0c9f74754ebdbfc544b05a2586111a03390565b60606107ae7f000000000000000000000000000000000000000000000000000000000000000060056119c3565b60606107ae7f000000000000000000000000000000000000000000000000000000000000000060066119c3565b805460009080156113905761137a83611139600184612479565b54600160301b90046001600160d01b031661079d565b60009392505050565b6001600160a01b0383166113c357604051634b637e8f60e11b81526000600482015260240161065f565b6001600160a01b0382166113ed5760405163ec442f0560e01b81526000600482015260240161065f565b610f06838383611a6e565b60006106de611405610f53565b8360405161190160f01b8152600281019290925260228201526042902090565b60008060008061143788888888611a79565b9250925092506114478282611b48565b50909695505050505050565b6001600160a01b0382166000908152600760205260409020805460018101909155818114610f06576040516301d4b62360e61b81526001600160a01b03841660048201526024810182905260440161065f565b60408051808201909152600080825260208201526001600160a01b038316600090815260096020526040902061079d9083611c01565b6001600160a01b0384166115065760405163e602df0560e01b81526000600482015260240161065f565b6001600160a01b03831661153057604051634a1406b160e11b81526000600482015260240161065f565b6001600160a01b03808516600090815260016020908152604080832093871683529290522082905580156115ac57826001600160a01b0316846001600160a01b03167f8c5be1e5ebec7d5bd14f71427d1e84f3dd0314c0f7b2291e5b200ac8c7c3b925846040516115a391815260200190565b60405180910390a35b50505050565b6001600160a01b0383811660009081526001602090815260408083209386168352929052205460001981146115ac578181101561161b57604051637dc7a0d960e11b81526001600160a01b0384166004820152602481018290526044810183905260640161065f565b6115ac848484840360006114dc565b600060018211611638575090565b816001600160801b82106116515760809190911c9060401b5b68010000000000000000821061166c5760409190911c9060201b5b64010000000082106116835760209190911c9060101b5b6201000082106116985760109190911c9060081b5b61010082106116ac5760089190911c9060041b5b601082106116bf5760049190911c9060021b5b600482106116cb5760011b5b600302600190811c908185816116e3576116e3612441565b048201901c905060018185816116fb576116fb612441565b048201901c9050600181858161171357611713612441565b048201901c9050600181858161172b5761172b612441565b048201901c9050600181858161174357611743612441565b048201901c9050600181858161175b5761175b612441565b048201901c905061177a81858161177457611774612441565b04821190565b90039392505050565b60005b818310156117dd57600061179a8484611c71565b60008781526020902090915065ffffffffffff86169082015465ffffffffffff1611156117c9578092506117d7565b6117d48160016124ca565b93505b50611786565b509392505050565b600b5460ff1661083a57604051638dfc202b60e01b815260040160405180910390fd5b6001600160a01b0381166000908152602081905260408120546106de565b816001600160a01b0316836001600160a01b0316141580156118485750600081115b15610f06576001600160a01b038316156118f0576001600160a01b0383166000908152600960205260408120819061188b90610eba61188686611c8c565b611cc0565b6001600160d01b031691506001600160d01b03169150846001600160a01b03167fdec2bacdd2f05b59de34da9b523dff8be42e5e38e818c82fdb0bae774387a72483836040516118e5929190918252602082015260400190565b60405180910390a250505b6001600160a01b03821615610f06576001600160a01b0382166000908152600960205260408120819061192990610eae61188686611c8c565b6001600160d01b031691506001600160d01b03169150836001600160a01b03167fdec2bacdd2f05b59de34da9b523dff8be42e5e38e818c82fdb0bae774387a7248383604051611983929190918252602082015260400190565b60405180910390a25050505050565b600063ffffffff8211156110b1576040516306dfcc6560e41b8152602060048201526024810183905260440161065f565b606060ff83146119dd576119d683611cf2565b90506106de565b8180546119e9906123b1565b80601f0160208091040260200160405190810160405280929190818152602001828054611a15906123b1565b8015611a625780601f10611a3757610100808354040283529160200191611a62565b820191906000526020600020905b815481529060010190602001808311611a4557829003601f168201915b505050505090506106de565b610f06838383611d31565b600080807f7fffffffffffffffffffffffffffffff5d576e7357a4501ddfe92f46681b20a0841115611ab45750600091506003905082611b3e565b604080516000808252602082018084528a905260ff891692820192909252606081018790526080810186905260019060a0016020604051602081039080840390855afa158015611b08573d6000803e3d6000fd5b5050604051601f1901519150506001600160a01b038116611b3457506000925060019150829050611b3e565b9250600091508190505b9450945094915050565b6000826003811115611b5c57611b5c6124dd565b03611b65575050565b6001826003811115611b7957611b796124dd565b03611b975760405163f645eedf60e01b815260040160405180910390fd5b6002826003811115611bab57611bab6124dd565b03611bcc5760405163fce698f760e01b81526004810182905260240161065f565b6003826003811115611be057611be06124dd565b03610847576040516335e2f38360e21b81526004810182905260240161065f565b6040805180820190915260008082526020820152826000018263ffffffff1681548110611c3057611c306124f3565b60009182526020918290206040805180820190915291015465ffffffffffff81168252600160301b90046001600160d01b0316918101919091529392505050565b6000611c806002848418612457565b61079d908484166124ca565b60006001600160d01b038211156110b1576040516306dfcc6560e41b815260d060048201526024810183905260440161065f565b600080611ce542611cdd611cd388611360565b868863ffffffff16565b879190611d98565b915091505b935093915050565b60606000611cff83611da6565b604080516020808252818301909252919250600091906020820181803683375050509182525060208101929092525090565b611d3c838383611dce565b6001600160a01b038316611d8d576000611d5560025490565b90506001600160d01b0380821115611d8a57604051630e58ae9360e11b8152600481018390526024810182905260440161065f565b50505b610f06838383611ef8565b600080611ce5858585611f6e565b600060ff8216601f8111156106de57604051632cd44ac360e21b815260040160405180910390fd5b6001600160a01b038316611df9578060026000828254611dee91906124ca565b90915550611e6b9050565b6001600160a01b03831660009081526020819052604090205481811015611e4c5760405163391434e360e21b81526001600160a01b0385166004820152602481018290526044810183905260640161065f565b6001600160a01b03841660009081526020819052604090209082900390555b6001600160a01b038216611e8757600280548290039055611ea6565b6001600160a01b03821660009081526020819052604090208054820190555b816001600160a01b0316836001600160a01b03167fddf252ad1be2c89b69c2b068fc378daa952ba7f163c4a11628f55a4df523b3ef83604051611eeb91815260200190565b60405180910390a3505050565b6001600160a01b038316611f1a57611f17600a610eae61188684611c8c565b50505b6001600160a01b038216611f3c57611f39600a610eba61188684611c8c565b50505b6001600160a01b03838116600090815260086020526040808220548584168352912054610f0692918216911683611826565b825460009081908015612067576000611f8c87611139600185612479565b805490915065ffffffffffff80821691600160301b90046001600160d01b0316908816821115611fcf57604051632520601d60e01b815260040160405180910390fd5b8765ffffffffffff168265ffffffffffff160361200857825465ffffffffffff16600160301b6001600160d01b03891602178355612059565b6040805180820190915265ffffffffffff808a1682526001600160d01b03808a1660208085019182528d54600181018f5560008f81529190912094519151909216600160301b029216919091179101555b9450859350611cea92505050565b50506040805180820190915265ffffffffffff80851682526001600160d01b0380851660208085019182528854600181018a5560008a815291822095519251909316600160301b029190931617920191909155905081611cea565b6000815180845260005b818110156120e8576020818501810151868301820152016120cc565b506000602082860101526020601f19601f83011685010191505092915050565b60208152600061079d60208301846120c2565b80356001600160a01b038116811461213257600080fd5b919050565b60006020828403121561214957600080fd5b61079d8261211b565b6000806040838503121561216557600080fd5b61216e8361211b565b946020939093013593505050565b60008060006060848603121561219157600080fd5b61219a8461211b565b92506121a86020850161211b565b929592945050506040919091013590565b60ff60f81b8816815260e0602082015260006121d860e08301896120c2565b82810360408401526121ea81896120c2565b606084018890526001600160a01b038716608085015260a0840186905283810360c08501528451808252602080870193509091019060005b81811015612240578351835260209384019390920191600101612222565b50909b9a5050505050505050505050565b60006020828403121561226357600080fd5b5035919050565b803560ff8116811461213257600080fd5b60008060008060008060c0878903121561229457600080fd5b61229d8761211b565b955060208701359450604087013593506122b96060880161226a565b9598949750929560808101359460a0909101359350915050565b600080600080600080600060e0888a0312156122ee57600080fd5b6122f78861211b565b96506123056020890161211b565b955060408801359450606088013593506123216080890161226a565b9699959850939692959460a0840135945060c09093013592915050565b6000806040838503121561235157600080fd5b61235a8361211b565b91506123686020840161211b565b90509250929050565b6000806040838503121561238457600080fd5b61238d8361211b565b9150602083013563ffffffff811681146123a657600080fd5b809150509250929050565b600181811c908216806123c557607f821691505b6020821081036123e557634e487b7160e01b600052602260045260246000fd5b50919050565b6020808252600f908201526e496e76616c6964206164647265737360881b604082015260600190565b634e487b7160e01b600052601160045260246000fd5b80820281158282048414176106de576106de612414565b634e487b7160e01b600052601260045260246000fd5b60008261247457634e487b7160e01b600052601260045260246000fd5b500490565b818103818111156106de576106de612414565b6001600160d01b0381811683821601908111156106de576106de612414565b6001600160d01b0382811682821603908111156106de576106de612414565b808201808211156106de576106de612414565b634e487b7160e01b600052602160045260246000fd5b634e487b7160e01b600052603260045260246000fdfea26469706673582212204f35d2a60f80f0274614ff151c01d886f5a2bad047400991aea9356cd4e9ecf564736f6c634300081b0033dec2bacdd2f05b59de34da9b523dff8be42e5e38e818c82fdb0bae774387a724",
  "immutableReferences": {
    "3651": [
      {
        "length": 32,
        "start": 4020
      }
    ],
    "3653": [
      {
        "length": 32,
        "start": 3978
      }
    ],
    "3655": [
      {
        "length": 32,
        "start": 3936
      }
    ],
    "3657": [
      {
        "length": 32,
        "start": 4101
      }
    ],
    "3659": [
      {
        "length": 32,
        "start": 4141
      }
    ],
    "3662": [
      {
        "length": 32,
        "start": 4877
      }
    ],
    "3665": [
      {
        "length": 32,
        "start": 4922
      }
    ]
  },
  "source": "// SPDX-License-Identifier: UNLICENSED\r\npragma solidity ^0.8.27;\r\n\r\nimport \"@openzeppelin/contracts/token/ERC20/ERC20.sol\";\r\nimport \"@openzeppelin/contracts/token/ERC20/extensions/ERC20Votes.sol\";\r\nimport \"@openzeppelin/contracts/token/ERC20/extensions/ERC20Permit.sol\";\r\nimport \"@openzeppelin/contracts/utils/Pausable.sol\";\r\nimport \"@openzeppelin/contracts/access/Ownable.sol\";\r\nimport \"@openzeppelin/contracts/utils/Nonces.sol\";\r\n\r\ncontract MoonCatToken is ERC20, ERC20Permit, ERC20Votes, Pausable, Ownable {\r\n    uint256 public taxRate = 100;  // 1% tax\r\n    address public taxCollector;\r\n    mapping(address => bool) public excludedFromTax;\r\n    \r\n    uint256 public constant MAX_TAX_RATE = 1000; // 10% max tax\r\n    \r\n    event TaxRateUpdated(uint256 oldRate, uint256 newRate);\r\n    event TaxCollectorUpdated(address oldCollector, address newCollector);\r\n    event AddressExcludedFromTax(address indexed account, bool excluded);\r\n\r\n    modifier validAddress(address _address) {\r\n        require(_address != address(0), \"Invalid address\");\r\n        _;\r\n    }\r\n\r\n    constructor(\r\n        string memory name, \r\n        string memory symbol, \r\n        uint256 initialSupply\r\n    ) ERC20(name, symbol) ERC20Permit(name) Ownable(msg.sender) {\r\n        require(initialSupply > 0, \"Initial supply must be positive\");\r\n        require(initialSupply <= type(uint256).max / (10 ** decimals()), \"Initial supply too large\");\r\n        \r\n        taxCollector = _msgSender();\r\n        _mint(_msgSender(), initialSupply * (10 ** decimals()));\r\n    }\r\n\r\n    function excludeFromTax(address account) external onlyOwner validAddress(account) {\r\n        excludedFromTax[account] = true;\r\n        emit AddressExcludedFromTax(account, true);\r\n    }\r\n\r\n    function includeInTax(address account) external onlyOwner validAddress(account) {\r\n        excludedFromTax[account] = false;\r\n        emit AddressExcludedFromTax(account, false);\r\n    }\r\n\r\n    function transfer(address recipient, uint256 amount) public virtual override whenNotPaused returns (bool) {\r\n        require(recipient != address(0), \"Transfer to zero address\");\r\n        require(amount <= balanceOf(_msgSender()), \"Insufficient balance\");\r\n\r\n        if (excludedFromTax[_msgSender()] || excludedFromTax[recipient]) {\r\n            _transfer(_msgSender(), recipient, amount);\r\n        } else {\r\n            uint256 taxAmount = (amount * taxRate) / 10000;\r\n            uint256 amountAfterTax = amount - taxAmount;\r\n            \r\n            _transfer(_msgSender(), recipient, amountAfterTax);\r\n            _transfer(_msgSender(), taxCollector, taxAmount);\r\n        }\r\n        return true;\r\n    }\r\n\r\n    function transferFrom(\r\n        address sender,\r\n        address recipient,\r\n        uint256 amount\r\n    ) public virtual override whenNotPaused returns (bool) {\r\n        if (excludedFromTax[sender] || excludedFromTax[recipient]) {\r\n            return super.transferFrom(sender, recipient, amount);\r\n        } else {\r\n            uint256 taxAmount = (amount * taxRate) / 10000;\r\n            uint256 amountAfterTax = amount - taxAmount;\r\n            \r\n            super.transferFrom(sender, recipient, amountAfterTax);\r\n            super.transferFrom(sender, taxCollector, taxAmount);\r\n            return true;\r\n        }\r\n    }\r\n\r\n    function setTaxRate(uint256 newTaxRate) external onlyOwner {\r\n        require(newTaxRate <= MAX_TAX_RATE, \"Tax rate too high\");\r\n        uint256 oldRate = taxRate;\r\n        taxRate = newTaxRate;\r\n        emit TaxRateUpdated(oldRate, newTaxRate);\r\n    }\r\n\r\n    function setTaxCollector(address newCollector) external onlyOwner validAddress(newCollector) {\r\n        address oldCollector = taxCollector;\r\n        taxCollector = newCollector;\r\n        emit TaxCollectorUpdated(oldCollector, newCollector);\r\n    }\r\n\r\n    function pause() external onlyOwner {\r\n        _pause();\r\n    }\r\n\r\n    function unpause() external onlyOwner {\r\n        _unpause();\r\n    }\r\n\r\n    // Required overrides\r\n    function _update(\r\n        address from,\r\n        address to,\r\n        uint256 amount\r\n    ) internal virtual override(ERC20, ERC20Votes) {\r\n        super._update(from, to, amount);\r\n    }\r\n\r\n    // This is how nonces should be overridden in OpenZeppelin 5.1.0\r\n    function nonces(\r\n        address owner\r\n    ) public view virtual override(ERC20Permit, Nonces) returns (uint256) {\r\n        return super.nonces(owner);\r\n    }\r\n\r\n    // Clock functions required by ERC20Votes\r\n    function clock() public view virtual override returns (uint48) {\r\n        return uint48(block.timestamp);\r\n    }\r\n\r\n    function CLOCK_MODE() public pure virtual override returns (string memory) {\r\n        return \"mode=timestamp\";\r\n    }\r\n\r\n    // Get domain separator\r\n    function getDomainSeparator() external view returns (bytes32) {\r\n        return _domainSeparatorV4();\r\n    }\r\n}",
  "sourcePath": "C:\\MooncatAI\\Github\\mooncat_ai\\contracts\\MoonCatToken.sol",
  "compiler": {
    "name": "solc",
    "version": "0.8.27+commit.40a35a09.Emscripten.clang"
  },
  "schemaVersion": "3.4.16",
  "updatedAt": "2024-10-25T03:48:59.962Z",
  "devdoc": {
    "errors": {
      "CheckpointUnorderedInsertion()": [
        {
          "details": "A value was attempted to be inserted on a past checkpoint."
        }
      ],
      "ECDSAInvalidSignature()": [
        {
          "details": "The signature derives the `address(0)`."
        }
      ],
      "ECDSAInvalidSignatureLength(uint256)": [
        {
          "details": "The signature has an invalid length."
        }
      ],
      "ECDSAInvalidSignatureS(bytes32)": [
        {
          "details": "The signature has an S value that is in the upper half order."
        }
      ],
      "ERC20ExceededSafeSupply(uint256,uint256)": [
        {
          "details": "Total supply cap has been exceeded, introducing a risk of votes overflowing."
        }
      ],
      "ERC20InsufficientAllowance(address,uint256,uint256)": [
        {
          "details": "Indicates a failure with the `spender`s `allowance`. Used in transfers.",
          "params": {
            "allowance": "Amount of tokens a `spender` is allowed to operate with.",
            "needed": "Minimum amount required to perform a transfer.",
            "spender": "Address that may be allowed to operate on tokens without being their owner."
          }
        }
      ],
      "ERC20InsufficientBalance(address,uint256,uint256)": [
        {
          "details": "Indicates an error related to the current `balance` of a `sender`. Used in transfers.",
          "params": {
            "balance": "Current balance for the interacting account.",
            "needed": "Minimum amount required to perform a transfer.",
            "sender": "Address whose tokens are being transferred."
          }
        }
      ],
      "ERC20InvalidApprover(address)": [
        {
          "details": "Indicates a failure with the `approver` of a token to be approved. Used in approvals.",
          "params": {
            "approver": "Address initiating an approval operation."
          }
        }
      ],
      "ERC20InvalidReceiver(address)": [
        {
          "details": "Indicates a failure with the token `receiver`. Used in transfers.",
          "params": {
            "receiver": "Address to which tokens are being transferred."
          }
        }
      ],
      "ERC20InvalidSender(address)": [
        {
          "details": "Indicates a failure with the token `sender`. Used in transfers.",
          "params": {
            "sender": "Address whose tokens are being transferred."
          }
        }
      ],
      "ERC20InvalidSpender(address)": [
        {
          "details": "Indicates a failure with the `spender` to be approved. Used in approvals.",
          "params": {
            "spender": "Address that may be allowed to operate on tokens without being their owner."
          }
        }
      ],
      "ERC2612ExpiredSignature(uint256)": [
        {
          "details": "Permit deadline has expired."
        }
      ],
      "ERC2612InvalidSigner(address,address)": [
        {
          "details": "Mismatched signature."
        }
      ],
      "ERC5805FutureLookup(uint256,uint48)": [
        {
          "details": "Lookup to future votes is not available."
        }
      ],
      "ERC6372InconsistentClock()": [
        {
          "details": "The clock was incorrectly modified."
        }
      ],
      "EnforcedPause()": [
        {
          "details": "The operation failed because the contract is paused."
        }
      ],
      "ExpectedPause()": [
        {
          "details": "The operation failed because the contract is not paused."
        }
      ],
      "InvalidAccountNonce(address,uint256)": [
        {
          "details": "The nonce used for an `account` is not the expected current nonce."
        }
      ],
      "OwnableInvalidOwner(address)": [
        {
          "details": "The owner is not a valid owner account. (eg. `address(0)`)"
        }
      ],
      "OwnableUnauthorizedAccount(address)": [
        {
          "details": "The caller account is not authorized to perform an operation."
        }
      ],
      "SafeCastOverflowedUintDowncast(uint8,uint256)": [
        {
          "details": "Value doesn't fit in an uint of `bits` size."
        }
      ],
      "VotesExpiredSignature(uint256)": [
        {
          "details": "The signature used has expired."
        }
      ]
    },
    "events": {
      "Approval(address,address,uint256)": {
        "details": "Emitted when the allowance of a `spender` for an `owner` is set by a call to {approve}. `value` is the new allowance."
      },
      "DelegateChanged(address,address,address)": {
        "details": "Emitted when an account changes their delegate."
      },
      "DelegateVotesChanged(address,uint256,uint256)": {
        "details": "Emitted when a token transfer or delegate change results in changes to a delegate's number of voting units."
      },
      "EIP712DomainChanged()": {
        "details": "MAY be emitted to signal that the domain could have changed."
      },
      "Paused(address)": {
        "details": "Emitted when the pause is triggered by `account`."
      },
      "Transfer(address,address,uint256)": {
        "details": "Emitted when `value` tokens are moved from one account (`from`) to another (`to`). Note that `value` may be zero."
      },
      "Unpaused(address)": {
        "details": "Emitted when the pause is lifted by `account`."
      }
    },
    "kind": "dev",
    "methods": {
      "CLOCK_MODE()": {
        "details": "Machine-readable description of the clock as specified in ERC-6372."
      },
      "DOMAIN_SEPARATOR()": {
        "details": "Returns the domain separator used in the encoding of the signature for {permit}, as defined by {EIP712}."
      },
      "allowance(address,address)": {
        "details": "See {IERC20-allowance}."
      },
      "approve(address,uint256)": {
        "details": "See {IERC20-approve}. NOTE: If `value` is the maximum `uint256`, the allowance is not updated on `transferFrom`. This is semantically equivalent to an infinite approval. Requirements: - `spender` cannot be the zero address."
      },
      "balanceOf(address)": {
        "details": "See {IERC20-balanceOf}."
      },
      "checkpoints(address,uint32)": {
        "details": "Get the `pos`-th checkpoint for `account`."
      },
      "clock()": {
        "details": "Clock used for flagging checkpoints. Can be overridden to implement timestamp based checkpoints (and voting), in which case {CLOCK_MODE} should be overridden as well to match."
      },
      "decimals()": {
        "details": "Returns the number of decimals used to get its user representation. For example, if `decimals` equals `2`, a balance of `505` tokens should be displayed to a user as `5.05` (`505 / 10 ** 2`). Tokens usually opt for a value of 18, imitating the relationship between Ether and Wei. This is the default value returned by this function, unless it's overridden. NOTE: This information is only used for _display_ purposes: it in no way affects any of the arithmetic of the contract, including {IERC20-balanceOf} and {IERC20-transfer}."
      },
      "delegate(address)": {
        "details": "Delegates votes from the sender to `delegatee`."
      },
      "delegateBySig(address,uint256,uint256,uint8,bytes32,bytes32)": {
        "details": "Delegates votes from signer to `delegatee`."
      },
      "delegates(address)": {
        "details": "Returns the delegate that `account` has chosen."
      },
      "eip712Domain()": {
        "details": "See {IERC-5267}."
      },
      "getPastTotalSupply(uint256)": {
        "details": "Returns the total supply of votes available at a specific moment in the past. If the `clock()` is configured to use block numbers, this will return the value at the end of the corresponding block. NOTE: This value is the sum of all available votes, which is not necessarily the sum of all delegated votes. Votes that have not been delegated are still part of total supply, even though they would not participate in a vote. Requirements: - `timepoint` must be in the past. If operating using block numbers, the block must be already mined."
      },
      "getPastVotes(address,uint256)": {
        "details": "Returns the amount of votes that `account` had at a specific moment in the past. If the `clock()` is configured to use block numbers, this will return the value at the end of the corresponding block. Requirements: - `timepoint` must be in the past. If operating using block numbers, the block must be already mined."
      },
      "getVotes(address)": {
        "details": "Returns the current amount of votes that `account` has."
      },
      "name()": {
        "details": "Returns the name of the token."
      },
      "numCheckpoints(address)": {
        "details": "Get number of checkpoints for `account`."
      },
      "owner()": {
        "details": "Returns the address of the current owner."
      },
      "paused()": {
        "details": "Returns true if the contract is paused, and false otherwise."
      },
      "permit(address,address,uint256,uint256,uint8,bytes32,bytes32)": {
        "details": "Sets `value` as the allowance of `spender` over ``owner``'s tokens, given ``owner``'s signed approval. IMPORTANT: The same issues {IERC20-approve} has related to transaction ordering also apply here. Emits an {Approval} event. Requirements: - `spender` cannot be the zero address. - `deadline` must be a timestamp in the future. - `v`, `r` and `s` must be a valid `secp256k1` signature from `owner` over the EIP712-formatted function arguments. - the signature must use ``owner``'s current nonce (see {nonces}). For more information on the signature format, see the https://eips.ethereum.org/EIPS/eip-2612#specification[relevant EIP section]. CAUTION: See Security Considerations above."
      },
      "renounceOwnership()": {
        "details": "Leaves the contract without owner. It will not be possible to call `onlyOwner` functions. Can only be called by the current owner. NOTE: Renouncing ownership will leave the contract without an owner, thereby disabling any functionality that is only available to the owner."
      },
      "symbol()": {
        "details": "Returns the symbol of the token, usually a shorter version of the name."
      },
      "totalSupply()": {
        "details": "See {IERC20-totalSupply}."
      },
      "transferOwnership(address)": {
        "details": "Transfers ownership of the contract to a new account (`newOwner`). Can only be called by the current owner."
      }
    },
    "version": 1
  },
  "userdoc": {
    "kind": "user",
    "methods": {},
    "version": 1
  }
}