{
  "contractName": "MoonCatStaking",
  "abi": [
    {
      "inputs": [
        {
          "internalType": "contract MoonCatToken",
          "name": "_token",
          "type": "address"
        }
      ],
      "stateMutability": "nonpayable",
      "type": "constructor"
    },
    {
      "anonymous": false,
      "inputs": [
        {
          "indexed": true,
          "internalType": "address",
          "name": "user",
          "type": "address"
        },
        {
          "indexed": false,
          "internalType": "uint256",
          "name": "amount",
          "type": "uint256"
        },
        {
          "indexed": false,
          "internalType": "uint256",
          "name": "since",
          "type": "uint256"
        },
        {
          "indexed": false,
          "internalType": "string",
          "name": "stakeType",
          "type": "string"
        }
      ],
      "name": "Staked",
      "type": "event"
    },
    {
      "anonymous": false,
      "inputs": [
        {
          "indexed": true,
          "internalType": "address",
          "name": "user",
          "type": "address"
        },
        {
          "indexed": false,
          "internalType": "uint256",
          "name": "unlockRequestTime",
          "type": "uint256"
        },
        {
          "indexed": false,
          "internalType": "string",
          "name": "stakeType",
          "type": "string"
        }
      ],
      "name": "UnlockRequested",
      "type": "event"
    },
    {
      "anonymous": false,
      "inputs": [
        {
          "indexed": true,
          "internalType": "address",
          "name": "user",
          "type": "address"
        },
        {
          "indexed": false,
          "internalType": "uint256",
          "name": "amount",
          "type": "uint256"
        },
        {
          "indexed": false,
          "internalType": "uint256",
          "name": "reward",
          "type": "uint256"
        },
        {
          "indexed": false,
          "internalType": "string",
          "name": "stakeType",
          "type": "string"
        }
      ],
      "name": "Unstaked",
      "type": "event"
    },
    {
      "inputs": [],
      "name": "UNLOCK_PERIOD_1YEAR",
      "outputs": [
        {
          "internalType": "uint256",
          "name": "",
          "type": "uint256"
        }
      ],
      "stateMutability": "view",
      "type": "function",
      "constant": true
    },
    {
      "inputs": [],
      "name": "UNLOCK_PERIOD_7DAYS",
      "outputs": [
        {
          "internalType": "uint256",
          "name": "",
          "type": "uint256"
        }
      ],
      "stateMutability": "view",
      "type": "function",
      "constant": true
    },
    {
      "inputs": [],
      "name": "owner",
      "outputs": [
        {
          "internalType": "address",
          "name": "",
          "type": "address"
        }
      ],
      "stateMutability": "view",
      "type": "function",
      "constant": true
    },
    {
      "inputs": [],
      "name": "rewardRate1Year",
      "outputs": [
        {
          "internalType": "uint256",
          "name": "",
          "type": "uint256"
        }
      ],
      "stateMutability": "view",
      "type": "function",
      "constant": true
    },
    {
      "inputs": [],
      "name": "rewardRate7Days",
      "outputs": [
        {
          "internalType": "uint256",
          "name": "",
          "type": "uint256"
        }
      ],
      "stateMutability": "view",
      "type": "function",
      "constant": true
    },
    {
      "inputs": [
        {
          "internalType": "address",
          "name": "",
          "type": "address"
        }
      ],
      "name": "stakes1Year",
      "outputs": [
        {
          "internalType": "uint256",
          "name": "amount",
          "type": "uint256"
        },
        {
          "internalType": "uint256",
          "name": "since",
          "type": "uint256"
        },
        {
          "internalType": "uint256",
          "name": "unlockRequestTime",
          "type": "uint256"
        }
      ],
      "stateMutability": "view",
      "type": "function",
      "constant": true
    },
    {
      "inputs": [
        {
          "internalType": "address",
          "name": "",
          "type": "address"
        }
      ],
      "name": "stakes7Days",
      "outputs": [
        {
          "internalType": "uint256",
          "name": "amount",
          "type": "uint256"
        },
        {
          "internalType": "uint256",
          "name": "since",
          "type": "uint256"
        },
        {
          "internalType": "uint256",
          "name": "unlockRequestTime",
          "type": "uint256"
        }
      ],
      "stateMutability": "view",
      "type": "function",
      "constant": true
    },
    {
      "inputs": [],
      "name": "token",
      "outputs": [
        {
          "internalType": "contract MoonCatToken",
          "name": "",
          "type": "address"
        }
      ],
      "stateMutability": "view",
      "type": "function",
      "constant": true
    },
    {
      "inputs": [
        {
          "internalType": "uint256",
          "name": "_newRate",
          "type": "uint256"
        }
      ],
      "name": "setRewardRate7Days",
      "outputs": [],
      "stateMutability": "nonpayable",
      "type": "function"
    },
    {
      "inputs": [
        {
          "internalType": "uint256",
          "name": "_newRate",
          "type": "uint256"
        }
      ],
      "name": "setRewardRate1Year",
      "outputs": [],
      "stateMutability": "nonpayable",
      "type": "function"
    },
    {
      "inputs": [
        {
          "internalType": "uint256",
          "name": "_amount",
          "type": "uint256"
        }
      ],
      "name": "stake7Days",
      "outputs": [],
      "stateMutability": "nonpayable",
      "type": "function"
    },
    {
      "inputs": [],
      "name": "requestUnlock7Days",
      "outputs": [],
      "stateMutability": "nonpayable",
      "type": "function"
    },
    {
      "inputs": [],
      "name": "unstake7Days",
      "outputs": [],
      "stateMutability": "nonpayable",
      "type": "function"
    },
    {
      "inputs": [],
      "name": "withdrawInterest7Days",
      "outputs": [],
      "stateMutability": "nonpayable",
      "type": "function"
    },
    {
      "inputs": [
        {
          "internalType": "uint256",
          "name": "_amount",
          "type": "uint256"
        }
      ],
      "name": "stake1Year",
      "outputs": [],
      "stateMutability": "nonpayable",
      "type": "function"
    },
    {
      "inputs": [],
      "name": "requestUnlock1Year",
      "outputs": [],
      "stateMutability": "nonpayable",
      "type": "function"
    },
    {
      "inputs": [],
      "name": "unstake1Year",
      "outputs": [],
      "stateMutability": "nonpayable",
      "type": "function"
    },
    {
      "inputs": [],
      "name": "withdrawInterest1Year",
      "outputs": [],
      "stateMutability": "nonpayable",
      "type": "function"
    }
  ],
  "bytecode": "0x6080604052348015600e575f5ffd5b50604051611094380380611094833981016040819052602b91606a565b5f80546001600160a01b039092166001600160a01b0319928316179055600180549091163317905564939d584400600455650101f9f248006005556095565b5f602082840312156079575f5ffd5b81516001600160a01b0381168114608e575f5ffd5b9392505050565b610ff2806100a25f395ff3fe608060405234801561000f575f5ffd5b5060043610610111575f3560e01c806378a95e071161009e578063c541f8391161006e578063c541f839146101e5578063cda01fc3146101f0578063dd847c88146101f8578063fb30eba814610241578063fc0c546a1461026e575f5ffd5b806378a95e071461019557806386c39df41461019f5780638da5cb5b146101b2578063ba3f1b59146101dd575f5ffd5b806349730fc1116100e457806349730fc11461014d5780634cdcc9f114610169578063546c10181461017c57806364f47933146101845780636abcc0921461018c575f5ffd5b80630f544ac7146101155780631532d0ba1461012a57806329da3d93146101325780633e47e5c214610145575b5f5ffd5b610128610123366004610d52565b610280565b005b610128610446565b610128610140366004610d52565b6104bd565b610128610516565b61015660045481565b6040519081526020015b60405180910390f35b610128610177366004610d52565b610670565b610128610825565b610128610894565b61015660055481565b61015662093a8081565b6101286101ad366004610d52565b610a9e565b6001546101c5906001600160a01b031681565b6040516001600160a01b039091168152602001610160565b610128610af7565b6101566301e1338081565b610128610b63565b610226610206366004610d69565b60036020525f908152604090208054600182015460029092015490919083565b60408051938452602084019290925290820152606001610160565b61022661024f366004610d69565b600260208190525f918252604090912080546001820154919092015483565b5f546101c5906001600160a01b031681565b5f81116102c55760405162461bcd60e51b815260206004820152600e60248201526d043616e6e6f74207374616b6520360941b60448201526064015b60405180910390fd5b5f546040516370a0823160e01b815233600482015282916001600160a01b0316906370a0823190602401602060405180830381865afa15801561030a573d5f5f3e3d5ffd5b505050506040513d601f19601f8201168201806040525081019061032e9190610d96565b101561034c5760405162461bcd60e51b81526004016102bc90610dad565b5f546040516323b872dd60e01b8152336004820152306024820152604481018390526001600160a01b03909116906323b872dd906064016020604051808303815f875af115801561039f573d5f5f3e3d5ffd5b505050506040513d601f19601f820116820180604052508101906103c39190610def565b50335f9081526002602052604090208054156103f65781815f015f8282546103eb9190610e22565b909155506104009050565b8181554260018201555b5f600282015560405133907f66d612d12bb1902ec26fd9a4991d9d58d71d0580427497d62731e7527f1e01a49061043a9085904290610e3b565b60405180910390a25050565b335f90815260036020526040902080546104725760405162461bcd60e51b81526004016102bc90610e73565b42600182018190556002820181905560405133917faf1e05ce41cdb4bdc4f23bff459f1b9173663f6a49fcf52898845f8d65906886916104b29190610e9b565b60405180910390a250565b6001546001600160a01b031633146105115760405162461bcd60e51b815260206004820152601760248201527621b0b63632b91034b9903737ba103a34329037bbb732b960491b60448201526064016102bc565b600455565b335f90815260026020526040902080546105425760405162461bcd60e51b81526004016102bc90610e73565b6002810154156105645760405162461bcd60e51b81526004016102bc90610ec6565b5f670de0b6b3a7640000825f01546004548460010154426105859190610f18565b61058f9190610f2b565b6105999190610f2b565b6105a39190610f42565b90505f81116105f45760405162461bcd60e51b815260206004820152601760248201527f4e6f20696e74657265737420746f20776974686472617700000000000000000060448201526064016102bc565b4260018301555f5460405163a9059cbb60e01b8152336004820152602481018390526001600160a01b039091169063a9059cbb906044016020604051808303815f875af1158015610647573d5f5f3e3d5ffd5b505050506040513d601f19601f8201168201806040525081019061066b9190610def565b505050565b5f81116106b05760405162461bcd60e51b815260206004820152600e60248201526d043616e6e6f74207374616b6520360941b60448201526064016102bc565b5f546040516370a0823160e01b815233600482015282916001600160a01b0316906370a0823190602401602060405180830381865afa1580156106f5573d5f5f3e3d5ffd5b505050506040513d601f19601f820116820180604052508101906107199190610d96565b10156107375760405162461bcd60e51b81526004016102bc90610dad565b5f546040516323b872dd60e01b8152336004820152306024820152604481018390526001600160a01b03909116906323b872dd906064016020604051808303815f875af115801561078a573d5f5f3e3d5ffd5b505050506040513d601f19601f820116820180604052508101906107ae9190610def565b50335f9081526003602052604090208054156107e15781815f015f8282546107d69190610e22565b909155506107eb9050565b8181554260018201555b5f600282015560405133907f66d612d12bb1902ec26fd9a4991d9d58d71d0580427497d62731e7527f1e01a49061043a9085904290610f61565b335f90815260036020526040902080546108515760405162461bcd60e51b81526004016102bc90610e73565b6002810154156108735760405162461bcd60e51b81526004016102bc90610ec6565b5f670de0b6b3a7640000825f01546005548460010154426105859190610f18565b335f90815260036020526040902080546108c05760405162461bcd60e51b81526004016102bc90610e73565b5f81600201541161090a5760405162461bcd60e51b8152602060048201526014602482015273155b9b1bd8dac81b9bdd081c995c5d595cdd195960621b60448201526064016102bc565b6301e13380816002015461091e9190610e22565b4210156109695760405162461bcd60e51b8152602060048201526019602482015278155b9b1bd8dac81c195c9a5bd9081b9bdd081c995858da1959603a1b60448201526064016102bc565b5f670de0b6b3a7640000825f015460055484600101546301e1338086600201546109939190610e22565b61099d9190610f18565b6109a79190610f2b565b6109b19190610f2b565b6109bb9190610f42565b90505f81835f01546109cd9190610e22565b5f5460405163a9059cbb60e01b8152336004820152602481018390529192506001600160a01b03169063a9059cbb906044016020604051808303815f875af1158015610a1b573d5f5f3e3d5ffd5b505050506040513d601f19601f82011682018060405250810190610a3f9190610def565b50335f818152600360205260408082208281556001810183905560020191909155845490517fd224ec5ad02946fe147952e6ad900ce0567e05d53bd64beb1b564a8c603d869c91610a91918690610f61565b60405180910390a2505050565b6001546001600160a01b03163314610af25760405162461bcd60e51b815260206004820152601760248201527621b0b63632b91034b9903737ba103a34329037bbb732b960491b60448201526064016102bc565b600555565b335f9081526002602052604090208054610b235760405162461bcd60e51b81526004016102bc90610e73565b42600182018190556002820181905560405133917faf1e05ce41cdb4bdc4f23bff459f1b9173663f6a49fcf52898845f8d65906886916104b29190610f92565b335f9081526002602052604090208054610b8f5760405162461bcd60e51b81526004016102bc90610e73565b5f816002015411610bd95760405162461bcd60e51b8152602060048201526014602482015273155b9b1bd8dac81b9bdd081c995c5d595cdd195960621b60448201526064016102bc565b62093a808160020154610bec9190610e22565b421015610c375760405162461bcd60e51b8152602060048201526019602482015278155b9b1bd8dac81c195c9a5bd9081b9bdd081c995858da1959603a1b60448201526064016102bc565b5f670de0b6b3a7640000825f015460045484600101548560020154610c5c9190610f18565b610c669190610f2b565b610c709190610f2b565b610c7a9190610f42565b90505f81835f0154610c8c9190610e22565b5f5460405163a9059cbb60e01b8152336004820152602481018390529192506001600160a01b03169063a9059cbb906044016020604051808303815f875af1158015610cda573d5f5f3e3d5ffd5b505050506040513d601f19601f82011682018060405250810190610cfe9190610def565b50335f8181526002602081905260408083208381556001810184905590910191909155845490517fd224ec5ad02946fe147952e6ad900ce0567e05d53bd64beb1b564a8c603d869c91610a91918690610e3b565b5f60208284031215610d62575f5ffd5b5035919050565b5f60208284031215610d79575f5ffd5b81356001600160a01b0381168114610d8f575f5ffd5b9392505050565b5f60208284031215610da6575f5ffd5b5051919050565b60208082526022908201527f496e73756666696369656e74207374616b696e6720746f6b656e2062616c616e604082015261636560f01b606082015260800190565b5f60208284031215610dff575f5ffd5b81518015158114610d8f575f5ffd5b634e487b7160e01b5f52601160045260245ffd5b80820180821115610e3557610e35610e0e565b92915050565b828152816020820152606060408201525f610e6b606083016005815264372d44617960d81b602082015260400190565b949350505050565b6020808252600e908201526d139bc81cdd185ad948199bdd5b9960921b604082015260600190565b818152604060208201525f610d8f6040830160068152651896acb2b0b960d11b602082015260400190565b60208082526032908201527f43616e6e6f7420776974686472617720696e746572657374207768696c6520756040820152711b9b1bd8dac81a5cc81c995c5d595cdd195960721b606082015260800190565b81810381811115610e3557610e35610e0e565b8082028115828204841417610e3557610e35610e0e565b5f82610f5c57634e487b7160e01b5f52601260045260245ffd5b500490565b828152816020820152606060408201525f610e6b6060830160068152651896acb2b0b960d11b602082015260400190565b818152604060208201525f610d8f604083016005815264372d44617960d81b60208201526040019056fea2646970667358221220c226161c98470e2440c82c973aab1b5691593e17fbc18fd77379fd3287940abd64736f6c634300081b0033",
  "immutableReferences": {},
  "source": "// SPDX-License-Identifier: UNLICENSED\r\npragma solidity ^0.8.27;\r\n\r\nimport \"./MoonCatToken.sol\";\r\n\r\ncontract MoonCatStaking {\r\n    MoonCatToken public token;\r\n    address public owner;\r\n\r\n    struct Stake {\r\n        uint256 amount;\r\n        uint256 since;\r\n        uint256 unlockRequestTime;\r\n    }\r\n\r\n    mapping(address => Stake) public stakes7Days;\r\n    mapping(address => Stake) public stakes1Year;\r\n\r\n    uint256 public rewardRate7Days;\r\n    uint256 public rewardRate1Year;\r\n\r\n    uint256 public constant UNLOCK_PERIOD_7DAYS = 7 days;\r\n    uint256 public constant UNLOCK_PERIOD_1YEAR = 365 days;\r\n\r\n    event Staked(address indexed user, uint256 amount, uint256 since, string stakeType);\r\n    event UnlockRequested(address indexed user, uint256 unlockRequestTime, string stakeType);\r\n    event Unstaked(address indexed user, uint256 amount, uint256 reward, string stakeType);\r\n\r\n    modifier onlyOwner() {\r\n        require(msg.sender == owner, \"Caller is not the owner\");\r\n        _;\r\n    }\r\n\r\n    constructor(MoonCatToken _token) {\r\n        token = _token;\r\n        owner = msg.sender;\r\n        rewardRate7Days = 6.34E11;  // Set your initial reward rates\r\n        rewardRate1Year = 1.108E12; // Higher reward rate for 1-year lock\r\n    }\r\n\r\n    // Owner functions to update reward rates\r\n    function setRewardRate7Days(uint256 _newRate) public onlyOwner {\r\n        rewardRate7Days = _newRate;\r\n    }\r\n\r\n    function setRewardRate1Year(uint256 _newRate) public onlyOwner {\r\n        rewardRate1Year = _newRate;\r\n    }\r\n\r\n    // -------------------- 7-Day Staking Functions --------------------\r\n\r\n    function stake7Days(uint256 _amount) public {\r\n        require(_amount > 0, \"Cannot stake 0\");\r\n        require(token.balanceOf(msg.sender) >= _amount, \"Insufficient staking token balance\");\r\n\r\n        // Transfer staking tokens from user to contract\r\n        token.transferFrom(msg.sender, address(this), _amount);\r\n\r\n        Stake storage userStake = stakes7Days[msg.sender];\r\n\r\n        // Add to existing stake or create a new one\r\n        if (userStake.amount > 0) {\r\n            userStake.amount += _amount;\r\n        } else {\r\n            userStake.amount = _amount;\r\n            userStake.since = block.timestamp;\r\n        }\r\n        userStake.unlockRequestTime = 0;\r\n\r\n        emit Staked(msg.sender, _amount, block.timestamp, \"7-Day\");\r\n    }\r\n\r\n    function requestUnlock7Days() public {\r\n        Stake storage userStake = stakes7Days[msg.sender];\r\n        require(userStake.amount > 0, \"No stake found\");\r\n\r\n        userStake.since = block.timestamp; // Stop interest accumulation\r\n        userStake.unlockRequestTime = block.timestamp;\r\n\r\n        emit UnlockRequested(msg.sender, userStake.unlockRequestTime, \"7-Day\");\r\n    }\r\n\r\n    function unstake7Days() public {\r\n        Stake storage userStake = stakes7Days[msg.sender];\r\n        require(userStake.amount > 0, \"No stake found\");\r\n        require(userStake.unlockRequestTime > 0, \"Unlock not requested\");\r\n        require(block.timestamp >= userStake.unlockRequestTime + UNLOCK_PERIOD_7DAYS, \"Unlock period not reached\");\r\n\r\n        // Calculate reward\r\n        uint256 reward = (userStake.unlockRequestTime - userStake.since) * rewardRate7Days * userStake.amount / 1e18;\r\n\r\n        uint256 totalAmount = userStake.amount + reward;\r\n\r\n        // Transfer staking tokens back to the user\r\n        token.transfer(msg.sender, totalAmount);\r\n\r\n        delete stakes7Days[msg.sender];\r\n\r\n        emit Unstaked(msg.sender, userStake.amount, reward, \"7-Day\");\r\n    }\r\n\r\n    function withdrawInterest7Days() public {\r\n        Stake storage userStake = stakes7Days[msg.sender];\r\n        require(userStake.amount > 0, \"No stake found\");\r\n        require(userStake.unlockRequestTime == 0, \"Cannot withdraw interest while unlock is requested\");\r\n\r\n        uint256 reward = (block.timestamp - userStake.since) * rewardRate7Days * userStake.amount / 1e18;\r\n        require(reward > 0, \"No interest to withdraw\");\r\n\r\n        userStake.since = block.timestamp; // Reset since to current time\r\n        token.transfer(msg.sender, reward);\r\n    }\r\n\r\n    // -------------------- 1-Year Staking Functions --------------------\r\n\r\n    function stake1Year(uint256 _amount) public {\r\n        require(_amount > 0, \"Cannot stake 0\");\r\n        require(token.balanceOf(msg.sender) >= _amount, \"Insufficient staking token balance\");\r\n\r\n        // Transfer staking tokens from user to contract\r\n        token.transferFrom(msg.sender, address(this), _amount);\r\n\r\n        Stake storage userStake = stakes1Year[msg.sender];\r\n\r\n        if (userStake.amount > 0) {\r\n            userStake.amount += _amount;\r\n        } else {\r\n            userStake.amount = _amount;\r\n            userStake.since = block.timestamp;\r\n        }\r\n        userStake.unlockRequestTime = 0;\r\n\r\n        emit Staked(msg.sender, _amount, block.timestamp, \"1-Year\");\r\n    }\r\n\r\n    function requestUnlock1Year() public {\r\n        Stake storage userStake = stakes1Year[msg.sender];\r\n        require(userStake.amount > 0, \"No stake found\");\r\n\r\n        userStake.since = block.timestamp; // Stop interest accumulation\r\n        userStake.unlockRequestTime = block.timestamp;\r\n\r\n        emit UnlockRequested(msg.sender, userStake.unlockRequestTime, \"1-Year\");\r\n    }\r\n\r\n    function unstake1Year() public {\r\n        Stake storage userStake = stakes1Year[msg.sender];\r\n        require(userStake.amount > 0, \"No stake found\");\r\n        require(userStake.unlockRequestTime > 0, \"Unlock not requested\");\r\n        require(block.timestamp >= userStake.unlockRequestTime + UNLOCK_PERIOD_1YEAR, \"Unlock period not reached\");\r\n\r\n        // Calculate reward\r\n        uint256 reward = (userStake.unlockRequestTime + UNLOCK_PERIOD_1YEAR - userStake.since) * rewardRate1Year * userStake.amount / 1e18;\r\n\r\n        uint256 totalAmount = userStake.amount + reward;\r\n\r\n        // Transfer staking tokens back to the user\r\n        token.transfer(msg.sender, totalAmount);\r\n\r\n        delete stakes1Year[msg.sender];\r\n\r\n        emit Unstaked(msg.sender, userStake.amount, reward, \"1-Year\");\r\n    }\r\n\r\n    function withdrawInterest1Year() public {\r\n        Stake storage userStake = stakes1Year[msg.sender];\r\n        require(userStake.amount > 0, \"No stake found\");\r\n        require(userStake.unlockRequestTime == 0, \"Cannot withdraw interest while unlock is requested\");\r\n\r\n        uint256 reward = (block.timestamp - userStake.since) * rewardRate1Year * userStake.amount / 1e18;\r\n        require(reward > 0, \"No interest to withdraw\");\r\n\r\n        userStake.since = block.timestamp; // Reset since to current time\r\n        token.transfer(msg.sender, reward);\r\n    }\r\n}\r\n",
  "sourcePath": "C:\\MooncatAI\\Github\\mooncat_ai\\contracts\\MoonCatStaking.sol",
  "compiler": {
    "name": "solc",
    "version": "0.8.27+commit.40a35a09.Emscripten.clang"
  },
  "schemaVersion": "3.4.16",
  "updatedAt": "2024-09-28T03:16:50.541Z",
  "networkType": "ethereum",
  "devdoc": {
    "kind": "dev",
    "methods": {},
    "version": 1
  },
  "userdoc": {
    "kind": "user",
    "methods": {},
    "version": 1
  }
}