{
  "contractName": "MoonCatToken",
  "abi": [
    {
      "inputs": [
        {
          "internalType": "string",
          "name": "name",
          "type": "string"
        },
        {
          "internalType": "string",
          "name": "symbol",
          "type": "string"
        },
        {
          "internalType": "uint256",
          "name": "initialSupply",
          "type": "uint256"
        }
      ],
      "stateMutability": "nonpayable",
      "type": "constructor"
    },
    {
      "inputs": [
        {
          "internalType": "address",
          "name": "spender",
          "type": "address"
        },
        {
          "internalType": "uint256",
          "name": "allowance",
          "type": "uint256"
        },
        {
          "internalType": "uint256",
          "name": "needed",
          "type": "uint256"
        }
      ],
      "name": "ERC20InsufficientAllowance",
      "type": "error"
    },
    {
      "inputs": [
        {
          "internalType": "address",
          "name": "sender",
          "type": "address"
        },
        {
          "internalType": "uint256",
          "name": "balance",
          "type": "uint256"
        },
        {
          "internalType": "uint256",
          "name": "needed",
          "type": "uint256"
        }
      ],
      "name": "ERC20InsufficientBalance",
      "type": "error"
    },
    {
      "inputs": [
        {
          "internalType": "address",
          "name": "approver",
          "type": "address"
        }
      ],
      "name": "ERC20InvalidApprover",
      "type": "error"
    },
    {
      "inputs": [
        {
          "internalType": "address",
          "name": "receiver",
          "type": "address"
        }
      ],
      "name": "ERC20InvalidReceiver",
      "type": "error"
    },
    {
      "inputs": [
        {
          "internalType": "address",
          "name": "sender",
          "type": "address"
        }
      ],
      "name": "ERC20InvalidSender",
      "type": "error"
    },
    {
      "inputs": [
        {
          "internalType": "address",
          "name": "spender",
          "type": "address"
        }
      ],
      "name": "ERC20InvalidSpender",
      "type": "error"
    },
    {
      "anonymous": false,
      "inputs": [
        {
          "indexed": true,
          "internalType": "address",
          "name": "owner",
          "type": "address"
        },
        {
          "indexed": true,
          "internalType": "address",
          "name": "spender",
          "type": "address"
        },
        {
          "indexed": false,
          "internalType": "uint256",
          "name": "value",
          "type": "uint256"
        }
      ],
      "name": "Approval",
      "type": "event"
    },
    {
      "anonymous": false,
      "inputs": [
        {
          "indexed": true,
          "internalType": "address",
          "name": "from",
          "type": "address"
        },
        {
          "indexed": true,
          "internalType": "address",
          "name": "to",
          "type": "address"
        },
        {
          "indexed": false,
          "internalType": "uint256",
          "name": "value",
          "type": "uint256"
        }
      ],
      "name": "Transfer",
      "type": "event"
    },
    {
      "inputs": [
        {
          "internalType": "address",
          "name": "owner",
          "type": "address"
        },
        {
          "internalType": "address",
          "name": "spender",
          "type": "address"
        }
      ],
      "name": "allowance",
      "outputs": [
        {
          "internalType": "uint256",
          "name": "",
          "type": "uint256"
        }
      ],
      "stateMutability": "view",
      "type": "function"
    },
    {
      "inputs": [
        {
          "internalType": "address",
          "name": "spender",
          "type": "address"
        },
        {
          "internalType": "uint256",
          "name": "value",
          "type": "uint256"
        }
      ],
      "name": "approve",
      "outputs": [
        {
          "internalType": "bool",
          "name": "",
          "type": "bool"
        }
      ],
      "stateMutability": "nonpayable",
      "type": "function"
    },
    {
      "inputs": [
        {
          "internalType": "address",
          "name": "account",
          "type": "address"
        }
      ],
      "name": "balanceOf",
      "outputs": [
        {
          "internalType": "uint256",
          "name": "",
          "type": "uint256"
        }
      ],
      "stateMutability": "view",
      "type": "function"
    },
    {
      "inputs": [],
      "name": "decimals",
      "outputs": [
        {
          "internalType": "uint8",
          "name": "",
          "type": "uint8"
        }
      ],
      "stateMutability": "view",
      "type": "function"
    },
    {
      "inputs": [
        {
          "internalType": "address",
          "name": "",
          "type": "address"
        }
      ],
      "name": "excludedFromTax",
      "outputs": [
        {
          "internalType": "bool",
          "name": "",
          "type": "bool"
        }
      ],
      "stateMutability": "view",
      "type": "function"
    },
    {
      "inputs": [],
      "name": "name",
      "outputs": [
        {
          "internalType": "string",
          "name": "",
          "type": "string"
        }
      ],
      "stateMutability": "view",
      "type": "function"
    },
    {
      "inputs": [],
      "name": "owner",
      "outputs": [
        {
          "internalType": "address",
          "name": "",
          "type": "address"
        }
      ],
      "stateMutability": "view",
      "type": "function"
    },
    {
      "inputs": [],
      "name": "symbol",
      "outputs": [
        {
          "internalType": "string",
          "name": "",
          "type": "string"
        }
      ],
      "stateMutability": "view",
      "type": "function"
    },
    {
      "inputs": [],
      "name": "taxCollector",
      "outputs": [
        {
          "internalType": "address",
          "name": "",
          "type": "address"
        }
      ],
      "stateMutability": "view",
      "type": "function"
    },
    {
      "inputs": [],
      "name": "taxRate",
      "outputs": [
        {
          "internalType": "uint256",
          "name": "",
          "type": "uint256"
        }
      ],
      "stateMutability": "view",
      "type": "function"
    },
    {
      "inputs": [],
      "name": "totalSupply",
      "outputs": [
        {
          "internalType": "uint256",
          "name": "",
          "type": "uint256"
        }
      ],
      "stateMutability": "view",
      "type": "function"
    },
    {
      "inputs": [
        {
          "internalType": "address",
          "name": "account",
          "type": "address"
        }
      ],
      "name": "excludeFromTax",
      "outputs": [],
      "stateMutability": "nonpayable",
      "type": "function"
    },
    {
      "inputs": [
        {
          "internalType": "address",
          "name": "account",
          "type": "address"
        }
      ],
      "name": "includeInTax",
      "outputs": [],
      "stateMutability": "nonpayable",
      "type": "function"
    },
    {
      "inputs": [
        {
          "internalType": "address",
          "name": "newOwner",
          "type": "address"
        }
      ],
      "name": "transferOwnership",
      "outputs": [],
      "stateMutability": "nonpayable",
      "type": "function"
    },
    {
      "inputs": [
        {
          "internalType": "address",
          "name": "recipient",
          "type": "address"
        },
        {
          "internalType": "uint256",
          "name": "amount",
          "type": "uint256"
        }
      ],
      "name": "transfer",
      "outputs": [
        {
          "internalType": "bool",
          "name": "",
          "type": "bool"
        }
      ],
      "stateMutability": "nonpayable",
      "type": "function"
    },
    {
      "inputs": [
        {
          "internalType": "address",
          "name": "sender",
          "type": "address"
        },
        {
          "internalType": "address",
          "name": "recipient",
          "type": "address"
        },
        {
          "internalType": "uint256",
          "name": "amount",
          "type": "uint256"
        }
      ],
      "name": "transferFrom",
      "outputs": [
        {
          "internalType": "bool",
          "name": "",
          "type": "bool"
        }
      ],
      "stateMutability": "nonpayable",
      "type": "function"
    },
    {
      "inputs": [
        {
          "internalType": "uint256",
          "name": "newTaxRate",
          "type": "uint256"
        }
      ],
      "name": "setTaxRate",
      "outputs": [],
      "stateMutability": "nonpayable",
      "type": "function"
    },
    {
      "inputs": [
        {
          "internalType": "address",
          "name": "newCollector",
          "type": "address"
        }
      ],
      "name": "setTaxCollector",
      "outputs": [],
      "stateMutability": "nonpayable",
      "type": "function"
    }
  ],
  "bytecode": "0x6080604052606460055534801561001557600080fd5b50604051611276380380611276833981016040819052610034916102c6565b8282600361004283826103c1565b50600461004f82826103c1565b505060078054336001600160a01b03199182168117909255600680549091168217905561009c915061007f601290565b61008d9060ff16600a61057e565b6100979084610591565b6100a4565b5050506105bb565b6001600160a01b0382166100d35760405163ec442f0560e01b8152600060048201526024015b60405180910390fd5b6100df600083836100e3565b5050565b6001600160a01b03831661010e57806002600082825461010391906105a8565b909155506101809050565b6001600160a01b038316600090815260208190526040902054818110156101615760405163391434e360e21b81526001600160a01b038516600482015260248101829052604481018390526064016100ca565b6001600160a01b03841660009081526020819052604090209082900390555b6001600160a01b03821661019c576002805482900390556101bb565b6001600160a01b03821660009081526020819052604090208054820190555b816001600160a01b0316836001600160a01b03167fddf252ad1be2c89b69c2b068fc378daa952ba7f163c4a11628f55a4df523b3ef8360405161020091815260200190565b60405180910390a3505050565b634e487b7160e01b600052604160045260246000fd5b600082601f83011261023457600080fd5b81516001600160401b0381111561024d5761024d61020d565b604051601f8201601f19908116603f011681016001600160401b038111828210171561027b5761027b61020d565b60405281815283820160200185101561029357600080fd5b60005b828110156102b257602081860181015183830182015201610296565b506000918101602001919091529392505050565b6000806000606084860312156102db57600080fd5b83516001600160401b038111156102f157600080fd5b6102fd86828701610223565b602086015190945090506001600160401b0381111561031b57600080fd5b61032786828701610223565b925050604084015190509250925092565b600181811c9082168061034c57607f821691505b60208210810361036c57634e487b7160e01b600052602260045260246000fd5b50919050565b601f8211156103bc57806000526020600020601f840160051c810160208510156103995750805b601f840160051c820191505b818110156103b957600081556001016103a5565b50505b505050565b81516001600160401b038111156103da576103da61020d565b6103ee816103e88454610338565b84610372565b6020601f821160018114610422576000831561040a5750848201515b600019600385901b1c1916600184901b1784556103b9565b600084815260208120601f198516915b828110156104525787850151825560209485019460019092019101610432565b50848210156104705786840151600019600387901b60f8161c191681555b50505050600190811b01905550565b634e487b7160e01b600052601160045260246000fd5b6001815b60018411156104d0578085048111156104b4576104b461047f565b60018416156104c257908102905b60019390931c928002610499565b935093915050565b6000826104e757506001610578565b816104f457506000610578565b816001811461050a576002811461051457610530565b6001915050610578565b60ff8411156105255761052561047f565b50506001821b610578565b5060208310610133831016604e8410600b8410161715610553575081810a610578565b6105606000198484610495565b80600019048211156105745761057461047f565b0290505b92915050565b600061058a83836104d8565b9392505050565b80820281158282048414176105785761057861047f565b808201808211156105785761057861047f565b610cac806105ca6000396000f3fe608060405234801561001057600080fd5b50600436106101165760003560e01c80638da5cb5b116100a2578063bea1dcf811610071578063bea1dcf814610253578063c6d69a3014610266578063dd62ed3e14610279578063e17c4c74146102b2578063f2fde38b146102c557600080fd5b80638da5cb5b146101ea57806395d89b4114610215578063989763ef1461021d578063a9059cbb1461024057600080fd5b806323b872dd116100e957806323b872dd14610183578063313ce5671461019657806360d1259e146101a557806370a08231146101b8578063771a3a1d146101e157600080fd5b806306fdde031461011b57806308695b4114610139578063095ea7b31461014e57806318160ddd14610171575b600080fd5b6101236102d8565b6040516101309190610a51565b60405180910390f35b61014c610147366004610abb565b61036a565b005b61016161015c366004610add565b610421565b6040519015158152602001610130565b6002545b604051908152602001610130565b610161610191366004610b07565b61043b565b60405160128152602001610130565b61014c6101b3366004610abb565b610570565b6101756101c6366004610abb565b6001600160a01b031660009081526020819052604090205490565b61017560055481565b6007546101fd906001600160a01b031681565b6040516001600160a01b039091168152602001610130565b6101236105be565b61016161022b366004610abb565b60086020526000908152604090205460ff1681565b61016161024e366004610add565b6105cd565b6006546101fd906001600160a01b031681565b61014c610274366004610b44565b610672565b610175610287366004610b5d565b6001600160a01b03918216600090815260016020908152604080832093909416825291909152205490565b61014c6102c0366004610abb565b6106f3565b61014c6102d3366004610abb565b61073e565b6060600380546102e790610b90565b80601f016020809104026020016040519081016040528092919081815260200182805461031390610b90565b80156103605780601f1061033557610100808354040283529160200191610360565b820191906000526020600020905b81548152906001019060200180831161034357829003601f168201915b5050505050905090565b6007546001600160a01b0316331461039d5760405162461bcd60e51b815260040161039490610bca565b60405180910390fd5b6001600160a01b0381166103ff5760405162461bcd60e51b8152602060048201526024808201527f54617820636f6c6c6563746f722063616e6e6f74206265207a65726f206164646044820152637265737360e01b6064820152608401610394565b600680546001600160a01b0319166001600160a01b0392909216919091179055565b60003361042f8185856107e0565b60019150505b92915050565b6001600160a01b03831660009081526008602052604081205460ff168061047a57506001600160a01b03831660009081526008602052604090205460ff165b1561048f5761048a8484846107f2565b6104e2565b6000612710600554846104a29190610c17565b6104ac9190610c2e565b905060006104ba8285610c50565b90506104c78686836107f2565b6006546104df9087906001600160a01b0316846107f2565b50505b60006104ee8533610287565b9050828110156105515760405162461bcd60e51b815260206004820152602860248201527f45524332303a207472616e7366657220616d6f756e74206578636565647320616044820152676c6c6f77616e636560c01b6064820152608401610394565b61056585336105608685610c50565b6107e0565b506001949350505050565b6007546001600160a01b0316331461059a5760405162461bcd60e51b815260040161039490610bca565b6001600160a01b03166000908152600860205260409020805460ff19166001179055565b6060600480546102e790610b90565b3360009081526008602052604081205460ff168061060357506001600160a01b03831660009081526008602052604090205460ff165b15610618576106133384846107f2565b610669565b60006127106005548461062b9190610c17565b6106359190610c2e565b905060006106438285610c50565b90506106503386836107f2565b610666336006546001600160a01b0316846107f2565b50505b50600192915050565b6007546001600160a01b0316331461069c5760405162461bcd60e51b815260040161039490610bca565b6103e88111156106ee5760405162461bcd60e51b815260206004820152601a60248201527f54617820726174652063616e6e6f7420657863656564203130250000000000006044820152606401610394565b600555565b6007546001600160a01b0316331461071d5760405162461bcd60e51b815260040161039490610bca565b6001600160a01b03166000908152600860205260409020805460ff19169055565b6007546001600160a01b031633146107685760405162461bcd60e51b815260040161039490610bca565b6001600160a01b0381166107be5760405162461bcd60e51b815260206004820181905260248201527f4e6577206f776e65722063616e6e6f74206265207a65726f20616464726573736044820152606401610394565b600780546001600160a01b0319166001600160a01b0392909216919091179055565b6107ed8383836001610851565b505050565b6001600160a01b03831661081c57604051634b637e8f60e11b815260006004820152602401610394565b6001600160a01b0382166108465760405163ec442f0560e01b815260006004820152602401610394565b6107ed838383610927565b6001600160a01b03841661087b5760405163e602df0560e01b815260006004820152602401610394565b6001600160a01b0383166108a557604051634a1406b160e11b815260006004820152602401610394565b6001600160a01b038085166000908152600160209081526040808320938716835292905220829055801561092157826001600160a01b0316846001600160a01b03167f8c5be1e5ebec7d5bd14f71427d1e84f3dd0314c0f7b2291e5b200ac8c7c3b9258460405161091891815260200190565b60405180910390a35b50505050565b6001600160a01b0383166109525780600260008282546109479190610c63565b909155506109c49050565b6001600160a01b038316600090815260208190526040902054818110156109a55760405163391434e360e21b81526001600160a01b03851660048201526024810182905260448101839052606401610394565b6001600160a01b03841660009081526020819052604090209082900390555b6001600160a01b0382166109e0576002805482900390556109ff565b6001600160a01b03821660009081526020819052604090208054820190555b816001600160a01b0316836001600160a01b03167fddf252ad1be2c89b69c2b068fc378daa952ba7f163c4a11628f55a4df523b3ef83604051610a4491815260200190565b60405180910390a3505050565b602081526000825180602084015260005b81811015610a7f5760208186018101516040868401015201610a62565b506000604082850101526040601f19601f83011684010191505092915050565b80356001600160a01b0381168114610ab657600080fd5b919050565b600060208284031215610acd57600080fd5b610ad682610a9f565b9392505050565b60008060408385031215610af057600080fd5b610af983610a9f565b946020939093013593505050565b600080600060608486031215610b1c57600080fd5b610b2584610a9f565b9250610b3360208501610a9f565b929592945050506040919091013590565b600060208284031215610b5657600080fd5b5035919050565b60008060408385031215610b7057600080fd5b610b7983610a9f565b9150610b8760208401610a9f565b90509250929050565b600181811c90821680610ba457607f821691505b602082108103610bc457634e487b7160e01b600052602260045260246000fd5b50919050565b60208082526017908201527f43616c6c6572206973206e6f7420746865206f776e6572000000000000000000604082015260600190565b634e487b7160e01b600052601160045260246000fd5b808202811582820484141761043557610435610c01565b600082610c4b57634e487b7160e01b600052601260045260246000fd5b500490565b8181038181111561043557610435610c01565b8082018082111561043557610435610c0156fea2646970667358221220934ed093ec9a3fa094ce4f20ef8904cc51d1795a111efce81b556b96373f53f564736f6c634300081b0033",
  "immutableReferences": {},
  "source": "// SPDX-License-Identifier: UNLICENSED\r\npragma solidity ^0.8.27;\r\n\r\nimport \"@openzeppelin/contracts/token/ERC20/ERC20.sol\";\r\n\r\ncontract MoonCatToken is ERC20 {\r\n    uint256 public taxRate = 100;  // 1% tax\r\n    address public taxCollector;\r\n    address public owner;\r\n    mapping(address => bool) public excludedFromTax;  // New: for staking contract\r\n\r\n    modifier onlyOwner() {\r\n        require(msg.sender == owner, \"Caller is not the owner\");\r\n        _;\r\n    }\r\n\r\n    constructor(string memory name, string memory symbol, uint256 initialSupply) ERC20(name, symbol) {\r\n        owner = msg.sender;\r\n        taxCollector = msg.sender;\r\n        _mint(msg.sender, initialSupply * (10 ** uint256(decimals())));\r\n    }\r\n\r\n    // New function to exclude addresses from tax (for staking contract)\r\n    function excludeFromTax(address account) external onlyOwner {\r\n        excludedFromTax[account] = true;\r\n    }\r\n\r\n    // New function to include addresses in tax\r\n    function includeInTax(address account) external onlyOwner {\r\n        excludedFromTax[account] = false;\r\n    }\r\n\r\n    function transferOwnership(address newOwner) external onlyOwner {\r\n        require(newOwner != address(0), \"New owner cannot be zero address\");\r\n        owner = newOwner;\r\n    }\r\n\r\n    // Updated transfer function with tax exclusion\r\n    function transfer(address recipient, uint256 amount) public override returns (bool) {\r\n        if (excludedFromTax[msg.sender] || excludedFromTax[recipient]) {\r\n            _transfer(_msgSender(), recipient, amount);\r\n        } else {\r\n            uint256 taxAmount = (amount * taxRate) / 10000;\r\n            uint256 amountAfterTax = amount - taxAmount;\r\n            _transfer(_msgSender(), recipient, amountAfterTax);\r\n            _transfer(_msgSender(), taxCollector, taxAmount);\r\n        }\r\n        return true;\r\n    }\r\n\r\n    // Updated transferFrom function with tax exclusion\r\n    function transferFrom(\r\n        address sender,\r\n        address recipient,\r\n        uint256 amount\r\n    ) public override returns (bool) {\r\n        if (excludedFromTax[sender] || excludedFromTax[recipient]) {\r\n            _transfer(sender, recipient, amount);\r\n        } else {\r\n            uint256 taxAmount = (amount * taxRate) / 10000;\r\n            uint256 amountAfterTax = amount - taxAmount;\r\n            _transfer(sender, recipient, amountAfterTax);\r\n            _transfer(sender, taxCollector, taxAmount);\r\n        }\r\n\r\n        uint256 currentAllowance = allowance(sender, _msgSender());\r\n        require(currentAllowance >= amount, \"ERC20: transfer amount exceeds allowance\");\r\n        _approve(sender, _msgSender(), currentAllowance - amount);\r\n\r\n        return true;\r\n    }\r\n\r\n    function setTaxRate(uint256 newTaxRate) external onlyOwner {\r\n        require(newTaxRate <= 1000, \"Tax rate cannot exceed 10%\");\r\n        taxRate = newTaxRate;\r\n    }\r\n\r\n    function setTaxCollector(address newCollector) external onlyOwner {\r\n        require(newCollector != address(0), \"Tax collector cannot be zero address\");\r\n        taxCollector = newCollector;\r\n    }\r\n}",
  "sourcePath": "C:\\MooncatAI\\Github\\mooncat_ai\\contracts\\MoonCatToken.sol",
  "compiler": {
    "name": "solc",
    "version": "0.8.27+commit.40a35a09.Emscripten.clang"
  },
  "schemaVersion": "3.4.16",
  "updatedAt": "2024-10-25T00:31:54.476Z",
  "devdoc": {
    "errors": {
      "ERC20InsufficientAllowance(address,uint256,uint256)": [
        {
          "details": "Indicates a failure with the `spender`s `allowance`. Used in transfers.",
          "params": {
            "allowance": "Amount of tokens a `spender` is allowed to operate with.",
            "needed": "Minimum amount required to perform a transfer.",
            "spender": "Address that may be allowed to operate on tokens without being their owner."
          }
        }
      ],
      "ERC20InsufficientBalance(address,uint256,uint256)": [
        {
          "details": "Indicates an error related to the current `balance` of a `sender`. Used in transfers.",
          "params": {
            "balance": "Current balance for the interacting account.",
            "needed": "Minimum amount required to perform a transfer.",
            "sender": "Address whose tokens are being transferred."
          }
        }
      ],
      "ERC20InvalidApprover(address)": [
        {
          "details": "Indicates a failure with the `approver` of a token to be approved. Used in approvals.",
          "params": {
            "approver": "Address initiating an approval operation."
          }
        }
      ],
      "ERC20InvalidReceiver(address)": [
        {
          "details": "Indicates a failure with the token `receiver`. Used in transfers.",
          "params": {
            "receiver": "Address to which tokens are being transferred."
          }
        }
      ],
      "ERC20InvalidSender(address)": [
        {
          "details": "Indicates a failure with the token `sender`. Used in transfers.",
          "params": {
            "sender": "Address whose tokens are being transferred."
          }
        }
      ],
      "ERC20InvalidSpender(address)": [
        {
          "details": "Indicates a failure with the `spender` to be approved. Used in approvals.",
          "params": {
            "spender": "Address that may be allowed to operate on tokens without being their owner."
          }
        }
      ]
    },
    "events": {
      "Approval(address,address,uint256)": {
        "details": "Emitted when the allowance of a `spender` for an `owner` is set by a call to {approve}. `value` is the new allowance."
      },
      "Transfer(address,address,uint256)": {
        "details": "Emitted when `value` tokens are moved from one account (`from`) to another (`to`). Note that `value` may be zero."
      }
    },
    "kind": "dev",
    "methods": {
      "allowance(address,address)": {
        "details": "See {IERC20-allowance}."
      },
      "approve(address,uint256)": {
        "details": "See {IERC20-approve}. NOTE: If `value` is the maximum `uint256`, the allowance is not updated on `transferFrom`. This is semantically equivalent to an infinite approval. Requirements: - `spender` cannot be the zero address."
      },
      "balanceOf(address)": {
        "details": "See {IERC20-balanceOf}."
      },
      "decimals()": {
        "details": "Returns the number of decimals used to get its user representation. For example, if `decimals` equals `2`, a balance of `505` tokens should be displayed to a user as `5.05` (`505 / 10 ** 2`). Tokens usually opt for a value of 18, imitating the relationship between Ether and Wei. This is the default value returned by this function, unless it's overridden. NOTE: This information is only used for _display_ purposes: it in no way affects any of the arithmetic of the contract, including {IERC20-balanceOf} and {IERC20-transfer}."
      },
      "name()": {
        "details": "Returns the name of the token."
      },
      "symbol()": {
        "details": "Returns the symbol of the token, usually a shorter version of the name."
      },
      "totalSupply()": {
        "details": "See {IERC20-totalSupply}."
      }
    },
    "version": 1
  },
  "userdoc": {
    "kind": "user",
    "methods": {},
    "version": 1
  }
}