{
  "contractName": "MoonCatToken",
  "abi": [
    {
      "inputs": [
        {
          "internalType": "string",
          "name": "_name",
          "type": "string"
        },
        {
          "internalType": "string",
          "name": "_symbol",
          "type": "string"
        },
        {
          "internalType": "uint256",
          "name": "_initialSupply",
          "type": "uint256"
        }
      ],
      "stateMutability": "nonpayable",
      "type": "constructor"
    },
    {
      "anonymous": false,
      "inputs": [
        {
          "indexed": true,
          "internalType": "address",
          "name": "owner",
          "type": "address"
        },
        {
          "indexed": true,
          "internalType": "address",
          "name": "spender",
          "type": "address"
        },
        {
          "indexed": false,
          "internalType": "uint256",
          "name": "value",
          "type": "uint256"
        }
      ],
      "name": "Approval",
      "type": "event"
    },
    {
      "anonymous": false,
      "inputs": [
        {
          "indexed": false,
          "internalType": "string",
          "name": "name",
          "type": "string"
        },
        {
          "indexed": false,
          "internalType": "string",
          "name": "symbol",
          "type": "string"
        },
        {
          "indexed": false,
          "internalType": "uint256",
          "name": "initialSupply",
          "type": "uint256"
        }
      ],
      "name": "ConstructorParams",
      "type": "event"
    },
    {
      "anonymous": false,
      "inputs": [
        {
          "indexed": true,
          "internalType": "address",
          "name": "from",
          "type": "address"
        },
        {
          "indexed": true,
          "internalType": "address",
          "name": "to",
          "type": "address"
        },
        {
          "indexed": false,
          "internalType": "uint256",
          "name": "value",
          "type": "uint256"
        }
      ],
      "name": "Transfer",
      "type": "event"
    },
    {
      "inputs": [
        {
          "internalType": "address",
          "name": "",
          "type": "address"
        },
        {
          "internalType": "address",
          "name": "",
          "type": "address"
        }
      ],
      "name": "allowance",
      "outputs": [
        {
          "internalType": "uint256",
          "name": "",
          "type": "uint256"
        }
      ],
      "stateMutability": "view",
      "type": "function"
    },
    {
      "inputs": [
        {
          "internalType": "address",
          "name": "",
          "type": "address"
        }
      ],
      "name": "balanceOf",
      "outputs": [
        {
          "internalType": "uint256",
          "name": "",
          "type": "uint256"
        }
      ],
      "stateMutability": "view",
      "type": "function"
    },
    {
      "inputs": [],
      "name": "decimals",
      "outputs": [
        {
          "internalType": "uint8",
          "name": "",
          "type": "uint8"
        }
      ],
      "stateMutability": "view",
      "type": "function"
    },
    {
      "inputs": [],
      "name": "name",
      "outputs": [
        {
          "internalType": "string",
          "name": "",
          "type": "string"
        }
      ],
      "stateMutability": "view",
      "type": "function"
    },
    {
      "inputs": [],
      "name": "symbol",
      "outputs": [
        {
          "internalType": "string",
          "name": "",
          "type": "string"
        }
      ],
      "stateMutability": "view",
      "type": "function"
    },
    {
      "inputs": [],
      "name": "taxCollector",
      "outputs": [
        {
          "internalType": "address",
          "name": "",
          "type": "address"
        }
      ],
      "stateMutability": "view",
      "type": "function"
    },
    {
      "inputs": [],
      "name": "taxRate",
      "outputs": [
        {
          "internalType": "uint256",
          "name": "",
          "type": "uint256"
        }
      ],
      "stateMutability": "view",
      "type": "function"
    },
    {
      "inputs": [],
      "name": "totalSupply",
      "outputs": [
        {
          "internalType": "uint256",
          "name": "",
          "type": "uint256"
        }
      ],
      "stateMutability": "view",
      "type": "function"
    },
    {
      "inputs": [
        {
          "internalType": "address",
          "name": "_to",
          "type": "address"
        },
        {
          "internalType": "uint256",
          "name": "_value",
          "type": "uint256"
        }
      ],
      "name": "transfer",
      "outputs": [
        {
          "internalType": "bool",
          "name": "success",
          "type": "bool"
        }
      ],
      "stateMutability": "nonpayable",
      "type": "function"
    },
    {
      "inputs": [
        {
          "internalType": "address",
          "name": "_spender",
          "type": "address"
        },
        {
          "internalType": "uint256",
          "name": "_value",
          "type": "uint256"
        }
      ],
      "name": "approve",
      "outputs": [
        {
          "internalType": "bool",
          "name": "success",
          "type": "bool"
        }
      ],
      "stateMutability": "nonpayable",
      "type": "function"
    },
    {
      "inputs": [
        {
          "internalType": "address",
          "name": "_from",
          "type": "address"
        },
        {
          "internalType": "address",
          "name": "_to",
          "type": "address"
        },
        {
          "internalType": "uint256",
          "name": "_value",
          "type": "uint256"
        }
      ],
      "name": "transferFrom",
      "outputs": [
        {
          "internalType": "bool",
          "name": "success",
          "type": "bool"
        }
      ],
      "stateMutability": "nonpayable",
      "type": "function"
    },
    {
      "inputs": [
        {
          "internalType": "uint256",
          "name": "_value",
          "type": "uint256"
        }
      ],
      "name": "burn",
      "outputs": [
        {
          "internalType": "bool",
          "name": "success",
          "type": "bool"
        }
      ],
      "stateMutability": "nonpayable",
      "type": "function"
    }
  ],
  "bytecode": "0x60806040526002805460ff19166012179055606460075534801562000022575f80fd5b5060405162000e4c38038062000e4c83398101604081905262000045916200023e565b5f8111620000aa5760405162461bcd60e51b815260206004820152602860248201527f496e697469616c20737570706c79206d7573742062652067726561746572207460448201526768616e207a65726f60c01b606482015260840160405180910390fd5b7fcba4e7d65d417006a9c5169536f17b995cc389a01daacf76926ff979031bab49838383604051620000df93929190620002d9565b60405180910390a15f620000f484826200039e565b5060016200010383826200039e565b50600254620001179060ff16600a62000575565b62000123908262000589565b6003819055335f81815260046020908152604080832085905551938452919290917fddf252ad1be2c89b69c2b068fc378daa952ba7f163c4a11628f55a4df523b3ef910160405180910390a3505050620005a3565b634e487b7160e01b5f52604160045260245ffd5b5f5b83811015620001a85781810151838201526020016200018e565b50505f910152565b5f82601f830112620001c0575f80fd5b81516001600160401b0380821115620001dd57620001dd62000178565b604051601f8301601f19908116603f0116810190828211818310171562000208576200020862000178565b8160405283815286602085880101111562000221575f80fd5b620002348460208301602089016200018c565b9695505050505050565b5f805f6060848603121562000251575f80fd5b83516001600160401b038082111562000268575f80fd5b6200027687838801620001b0565b945060208601519150808211156200028c575f80fd5b506200029b86828701620001b0565b925050604084015190509250925092565b5f8151808452620002c58160208601602086016200018c565b601f01601f19169290920160200192915050565b606081525f620002ed6060830186620002ac565b8281036020840152620003018186620002ac565b915050826040830152949350505050565b600181811c908216806200032757607f821691505b6020821081036200034657634e487b7160e01b5f52602260045260245ffd5b50919050565b601f82111562000399575f81815260208120601f850160051c81016020861015620003745750805b601f850160051c820191505b81811015620003955782815560010162000380565b5050505b505050565b81516001600160401b03811115620003ba57620003ba62000178565b620003d281620003cb845462000312565b846200034c565b602080601f83116001811462000408575f8415620003f05750858301515b5f19600386901b1c1916600185901b17855562000395565b5f85815260208120601f198616915b82811015620004385788860151825594840194600190910190840162000417565b50858210156200045657878501515f19600388901b60f8161c191681555b5050505050600190811b01905550565b634e487b7160e01b5f52601160045260245ffd5b600181815b80851115620004ba57815f19048211156200049e576200049e62000466565b80851615620004ac57918102915b93841c93908002906200047f565b509250929050565b5f82620004d2575060016200056f565b81620004e057505f6200056f565b8160018114620004f95760028114620005045762000524565b60019150506200056f565b60ff84111562000518576200051862000466565b50506001821b6200056f565b5060208310610133831016604e8410600b841016171562000549575081810a6200056f565b6200055583836200047a565b805f19048211156200056b576200056b62000466565b0290505b92915050565b5f620005828383620004c2565b9392505050565b80820281158282048414176200056f576200056f62000466565b61089b80620005b15f395ff3fe608060405234801561000f575f80fd5b50600436106100b1575f3560e01c806370a082311161006e57806370a0823114610152578063771a3a1d1461017157806395d89b411461017a578063a9059cbb14610182578063bea1dcf814610195578063dd62ed3e146101c0575f80fd5b806306fdde03146100b5578063095ea7b3146100d357806318160ddd146100f657806323b872dd1461010d578063313ce5671461012057806342966c681461013f575b5f80fd5b6100bd6101ea565b6040516100ca9190610640565b60405180910390f35b6100e66100e13660046106a6565b610275565b60405190151581526020016100ca565b6100ff60035481565b6040519081526020016100ca565b6100e661011b3660046106ce565b6102e1565b60025461012d9060ff1681565b60405160ff90911681526020016100ca565b6100e661014d366004610707565b61045d565b6100ff61016036600461071e565b60046020525f908152604090205481565b6100ff60075481565b6100bd6104f2565b6100e66101903660046106a6565b6104ff565b6006546101a8906001600160a01b031681565b6040516001600160a01b0390911681526020016100ca565b6100ff6101ce36600461073e565b600560209081525f928352604080842090915290825290205481565b5f80546101f69061076f565b80601f01602080910402602001604051908101604052809291908181526020018280546102229061076f565b801561026d5780601f106102445761010080835404028352916020019161026d565b820191905f5260205f20905b81548152906001019060200180831161025057829003601f168201915b505050505081565b335f8181526005602090815260408083206001600160a01b038716808552925280832085905551919290917f8c5be1e5ebec7d5bd14f71427d1e84f3dd0314c0f7b2291e5b200ac8c7c3b925906102cf9086815260200190565b60405180910390a35060015b92915050565b6001600160a01b0383165f908152600460205260408120548211156103215760405162461bcd60e51b8152600401610318906107a7565b60405180910390fd5b6001600160a01b0384165f9081526005602090815260408083203384529091529020548211156103885760405162461bcd60e51b8152602060048201526012602482015271105b1b1bddd85b98d948195e18d95959195960721b6044820152606401610318565b6001600160a01b0384165f90815260046020526040812080548492906103af9084906107e9565b90915550506001600160a01b0383165f90815260046020526040812080548492906103db9084906107fc565b90915550506001600160a01b0384165f908152600560209081526040808320338452909152812080548492906104129084906107e9565b92505081905550826001600160a01b0316846001600160a01b03165f805160206108468339815191528460405161044b91815260200190565b60405180910390a35060019392505050565b335f9081526004602052604081205482111561048b5760405162461bcd60e51b8152600401610318906107a7565b335f90815260046020526040812080548492906104a99084906107e9565b925050819055508160035f8282546104c191906107e9565b90915550506040518281525f9033905f805160206108468339815191529060200160405180910390a3506001919050565b600180546101f69061076f565b5f8061271060075484610512919061080f565b61051c9190610826565b90505f61052982856107e9565b335f9081526004602052604090205490915084111561055a5760405162461bcd60e51b8152600401610318906107a7565b335f90815260046020526040812080548692906105789084906107e9565b90915550506001600160a01b0385165f90815260046020526040812080548392906105a49084906107fc565b90915550506006546001600160a01b03165f90815260046020526040812080548492906105d29084906107fc565b90915550506040518181526001600160a01b0386169033905f805160206108468339815191529060200160405180910390a36006546040518381526001600160a01b039091169033905f805160206108468339815191529060200160405180910390a3506001949350505050565b5f6020808352835180828501525f5b8181101561066b5785810183015185820160400152820161064f565b505f604082860101526040601f19601f8301168501019250505092915050565b80356001600160a01b03811681146106a1575f80fd5b919050565b5f80604083850312156106b7575f80fd5b6106c08361068b565b946020939093013593505050565b5f805f606084860312156106e0575f80fd5b6106e98461068b565b92506106f76020850161068b565b9150604084013590509250925092565b5f60208284031215610717575f80fd5b5035919050565b5f6020828403121561072e575f80fd5b6107378261068b565b9392505050565b5f806040838503121561074f575f80fd5b6107588361068b565b91506107666020840161068b565b90509250929050565b600181811c9082168061078357607f821691505b6020821081036107a157634e487b7160e01b5f52602260045260245ffd5b50919050565b602080825260149082015273496e73756666696369656e742062616c616e636560601b604082015260600190565b634e487b7160e01b5f52601160045260245ffd5b818103818111156102db576102db6107d5565b808201808211156102db576102db6107d5565b80820281158282048414176102db576102db6107d5565b5f8261084057634e487b7160e01b5f52601260045260245ffd5b50049056feddf252ad1be2c89b69c2b068fc378daa952ba7f163c4a11628f55a4df523b3efa26469706673582212202213f0d22636e7ad4bef307d587ceb51306c74a760d54145fb00b2a133a7456664736f6c63430008140033",
  "immutableReferences": {},
  "source": "// SPDX-License-Identifier: UNLICENSED\r\npragma solidity ^0.8.20;\r\n\r\nimport \"@openzeppelin/contracts/access/Ownable.sol\"; \r\n\r\ncontract MoonCatToken {\r\n    string public name;\r\n    string public symbol;\r\n    uint8 public decimals = 18;\r\n    uint256 public totalSupply;\r\n\r\n    mapping(address => uint256) public balanceOf;\r\n    mapping(address => mapping(address => uint256)) public allowance;\r\n\r\n    event Transfer(address indexed from, address indexed to, uint256 value);\r\n    event Approval(address indexed owner, address indexed spender, uint256 value);\r\n    event ConstructorParams(string name, string symbol, uint256 initialSupply);\r\n\r\n    constructor(string memory _name, string memory _symbol, uint256 _initialSupply) {\r\n        require(_initialSupply > 0, \"Initial supply must be greater than zero\");\r\n        \r\n        emit ConstructorParams(_name, _symbol, _initialSupply);\r\n        name = _name;\r\n        symbol = _symbol;\r\n        totalSupply = _initialSupply * (10 ** uint256(decimals));\r\n        balanceOf[msg.sender] = totalSupply;\r\n        emit Transfer(address(0), msg.sender, totalSupply);\r\n    }\r\n\r\n    function transfer(address _to, uint256 _value) public returns (bool success) {\r\n        uint256 taxAmount = _value * taxRate / 10000;\r\n        uint256 amountAfterTax = _value - taxAmount;\r\n\r\n        require(balanceOf[msg.sender] >= _value, \"Insufficient balance\");\r\n        balanceOf[msg.sender] -= _value;\r\n        balanceOf[_to] += amountAfterTax;\r\n        balanceOf[taxCollector] += taxAmount;\r\n\r\n        emit Transfer(msg.sender, _to, amountAfterTax);\r\n        emit Transfer(msg.sender, taxCollector, taxAmount);\r\n        return true;\r\n    }\r\n\r\n    function approve(address _spender, uint256 _value) public returns (bool success) {\r\n        allowance[msg.sender][_spender] = _value;\r\n        emit Approval(msg.sender, _spender, _value);\r\n        return true;\r\n    }\r\n\r\n    function transferFrom(address _from, address _to, uint256 _value) public returns (bool success) {\r\n        require(_value <= balanceOf[_from], \"Insufficient balance\");\r\n        require(_value <= allowance[_from][msg.sender], \"Allowance exceeded\");\r\n        balanceOf[_from] -= _value;\r\n        balanceOf[_to] += _value;\r\n        allowance[_from][msg.sender] -= _value;\r\n        emit Transfer(_from, _to, _value);\r\n        return true;\r\n    }\r\n\r\n    function burn(uint256 _value) public returns (bool success) {\r\n        require(balanceOf[msg.sender] >= _value, \"Insufficient balance\");\r\n        balanceOf[msg.sender] -= _value;\r\n        totalSupply -= _value;\r\n        emit Transfer(msg.sender, address(0), _value);\r\n        return true;\r\n    }\r\n    address public taxCollector; // Address where the tax is sent\r\nuint256 public taxRate = 100; // Represents 1% tax (where 100 is equivalent to 1%)\r\n\r\n\r\n}\r\n",
  "sourcePath": "C:\\MooncatAI\\Github\\mooncat_ai\\contracts\\moonCatToken.sol",
  "compiler": {
    "name": "solc",
    "version": "0.8.20+commit.a1b79de6.Emscripten.clang"
  },
  "schemaVersion": "3.4.16",
  "updatedAt": "2024-09-22T01:30:34.934Z",
  "devdoc": {
    "kind": "dev",
    "methods": {},
    "version": 1
  },
  "userdoc": {
    "kind": "user",
    "methods": {},
    "version": 1
  }
}