{
  "contractName": "MoonCatStaking",
  "abi": [
    {
      "inputs": [
        {
          "internalType": "contract MoonCatToken",
          "name": "_token",
          "type": "address"
        }
      ],
      "stateMutability": "nonpayable",
      "type": "constructor"
    },
    {
      "anonymous": false,
      "inputs": [
        {
          "indexed": true,
          "internalType": "address",
          "name": "user",
          "type": "address"
        },
        {
          "indexed": false,
          "internalType": "uint256",
          "name": "amount",
          "type": "uint256"
        },
        {
          "indexed": false,
          "internalType": "string",
          "name": "stakeType",
          "type": "string"
        }
      ],
      "name": "ForceUnlocked",
      "type": "event"
    },
    {
      "anonymous": false,
      "inputs": [
        {
          "indexed": false,
          "internalType": "string",
          "name": "stakeType",
          "type": "string"
        },
        {
          "indexed": false,
          "internalType": "uint256",
          "name": "newRate",
          "type": "uint256"
        }
      ],
      "name": "RewardRateUpdated",
      "type": "event"
    },
    {
      "anonymous": false,
      "inputs": [
        {
          "indexed": true,
          "internalType": "address",
          "name": "user",
          "type": "address"
        },
        {
          "indexed": false,
          "internalType": "uint256",
          "name": "amount",
          "type": "uint256"
        },
        {
          "indexed": false,
          "internalType": "uint256",
          "name": "since",
          "type": "uint256"
        },
        {
          "indexed": false,
          "internalType": "string",
          "name": "stakeType",
          "type": "string"
        }
      ],
      "name": "Staked",
      "type": "event"
    },
    {
      "anonymous": false,
      "inputs": [
        {
          "indexed": true,
          "internalType": "address",
          "name": "user",
          "type": "address"
        },
        {
          "indexed": false,
          "internalType": "uint256",
          "name": "unlockRequestTime",
          "type": "uint256"
        },
        {
          "indexed": false,
          "internalType": "string",
          "name": "stakeType",
          "type": "string"
        }
      ],
      "name": "UnlockRequested",
      "type": "event"
    },
    {
      "anonymous": false,
      "inputs": [
        {
          "indexed": true,
          "internalType": "address",
          "name": "user",
          "type": "address"
        },
        {
          "indexed": false,
          "internalType": "uint256",
          "name": "amount",
          "type": "uint256"
        },
        {
          "indexed": false,
          "internalType": "uint256",
          "name": "reward",
          "type": "uint256"
        },
        {
          "indexed": false,
          "internalType": "string",
          "name": "stakeType",
          "type": "string"
        }
      ],
      "name": "Unstaked",
      "type": "event"
    },
    {
      "inputs": [],
      "name": "BASIS_POINTS",
      "outputs": [
        {
          "internalType": "uint256",
          "name": "",
          "type": "uint256"
        }
      ],
      "stateMutability": "view",
      "type": "function"
    },
    {
      "inputs": [],
      "name": "UNLOCK_PERIOD_1YEAR",
      "outputs": [
        {
          "internalType": "uint256",
          "name": "",
          "type": "uint256"
        }
      ],
      "stateMutability": "view",
      "type": "function"
    },
    {
      "inputs": [],
      "name": "UNLOCK_PERIOD_7DAYS",
      "outputs": [
        {
          "internalType": "uint256",
          "name": "",
          "type": "uint256"
        }
      ],
      "stateMutability": "view",
      "type": "function"
    },
    {
      "inputs": [],
      "name": "owner",
      "outputs": [
        {
          "internalType": "address",
          "name": "",
          "type": "address"
        }
      ],
      "stateMutability": "view",
      "type": "function"
    },
    {
      "inputs": [],
      "name": "rewardRate1Year",
      "outputs": [
        {
          "internalType": "uint256",
          "name": "",
          "type": "uint256"
        }
      ],
      "stateMutability": "view",
      "type": "function"
    },
    {
      "inputs": [],
      "name": "rewardRate7Days",
      "outputs": [
        {
          "internalType": "uint256",
          "name": "",
          "type": "uint256"
        }
      ],
      "stateMutability": "view",
      "type": "function"
    },
    {
      "inputs": [
        {
          "internalType": "address",
          "name": "",
          "type": "address"
        }
      ],
      "name": "stakes1Year",
      "outputs": [
        {
          "internalType": "uint256",
          "name": "amount",
          "type": "uint256"
        },
        {
          "internalType": "uint256",
          "name": "since",
          "type": "uint256"
        },
        {
          "internalType": "uint256",
          "name": "unlockRequestTime",
          "type": "uint256"
        },
        {
          "internalType": "bool",
          "name": "isLocked",
          "type": "bool"
        }
      ],
      "stateMutability": "view",
      "type": "function"
    },
    {
      "inputs": [
        {
          "internalType": "address",
          "name": "",
          "type": "address"
        }
      ],
      "name": "stakes7Days",
      "outputs": [
        {
          "internalType": "uint256",
          "name": "amount",
          "type": "uint256"
        },
        {
          "internalType": "uint256",
          "name": "since",
          "type": "uint256"
        },
        {
          "internalType": "uint256",
          "name": "unlockRequestTime",
          "type": "uint256"
        },
        {
          "internalType": "bool",
          "name": "isLocked",
          "type": "bool"
        }
      ],
      "stateMutability": "view",
      "type": "function"
    },
    {
      "inputs": [],
      "name": "token",
      "outputs": [
        {
          "internalType": "contract MoonCatToken",
          "name": "",
          "type": "address"
        }
      ],
      "stateMutability": "view",
      "type": "function"
    },
    {
      "inputs": [
        {
          "internalType": "uint256",
          "name": "_newRate",
          "type": "uint256"
        }
      ],
      "name": "setRewardRate7Days",
      "outputs": [],
      "stateMutability": "nonpayable",
      "type": "function"
    },
    {
      "inputs": [
        {
          "internalType": "uint256",
          "name": "_newRate",
          "type": "uint256"
        }
      ],
      "name": "setRewardRate1Year",
      "outputs": [],
      "stateMutability": "nonpayable",
      "type": "function"
    },
    {
      "inputs": [],
      "name": "forceUnlock7Days",
      "outputs": [],
      "stateMutability": "nonpayable",
      "type": "function"
    },
    {
      "inputs": [],
      "name": "forceUnlock1Year",
      "outputs": [],
      "stateMutability": "nonpayable",
      "type": "function"
    },
    {
      "inputs": [
        {
          "internalType": "uint256",
          "name": "_amount",
          "type": "uint256"
        }
      ],
      "name": "stake7Days",
      "outputs": [],
      "stateMutability": "nonpayable",
      "type": "function"
    },
    {
      "inputs": [],
      "name": "unstake7Days",
      "outputs": [],
      "stateMutability": "nonpayable",
      "type": "function"
    },
    {
      "inputs": [
        {
          "internalType": "address",
          "name": "_user",
          "type": "address"
        }
      ],
      "name": "getAccumulatedRewards7Days",
      "outputs": [
        {
          "internalType": "uint256",
          "name": "",
          "type": "uint256"
        }
      ],
      "stateMutability": "view",
      "type": "function"
    }
  ],
  "bytecode": "0x608060405261027a6004556103bf600555348015601b57600080fd5b50604051610e5f380380610e5f8339810160408190526038916065565b600080546001600160a01b039092166001600160a01b031992831617905560018054909116331790556093565b600060208284031215607657600080fd5b81516001600160a01b0381168114608c57600080fd5b9392505050565b610dbd806100a26000396000f3fe608060405234801561001057600080fd5b50600436106101005760003560e01c8063c541f83911610097578063e4862e4911610066578063e4862e491461021a578063e69702881461022d578063fb30eba814610235578063fc0c546a1461026f57600080fd5b8063c541f839146101a2578063cda01fc3146101ad578063dd847c88146101b5578063e1f1c4a71461021157600080fd5b80636d3995c5116100d35780636d3995c51461015257806378a95e071461015a57806386c39df4146101645780638da5cb5b1461017757600080fd5b80630f544ac71461010557806329da3d931461011a57806349730fc11461012d5780636abcc09214610149575b600080fd5b610118610113366004610b7f565b610282565b005b610118610128366004610b7f565b6104c6565b61013660045481565b6040519081526020015b60405180910390f35b61013660055481565b61011861059c565b61013662093a8081565b610118610172366004610b7f565b6106f5565b60015461018a906001600160a01b031681565b6040516001600160a01b039091168152602001610140565b6101366301e1338081565b6101186107c0565b6101ef6101c3366004610b98565b600360208190526000918252604090912080546001820154600283015492909301549092919060ff1684565b6040805194855260208501939093529183015215156060820152608001610140565b61013661271081565b610136610228366004610b98565b61097a565b6101186109f6565b6101ef610243366004610b98565b600260208190526000918252604090912080546001820154928201546003909201549092919060ff1684565b60005461018a906001600160a01b031681565b600081116102c85760405162461bcd60e51b815260206004820152600e60248201526d043616e6e6f74207374616b6520360941b60448201526064015b60405180910390fd5b6000546040516370a0823160e01b815233600482015282916001600160a01b0316906370a0823190602401602060405180830381865afa158015610310573d6000803e3d6000fd5b505050506040513d601f19601f820116820180604052508101906103349190610bc8565b10156103795760405162461bcd60e51b8152602060048201526014602482015273496e73756666696369656e742062616c616e636560601b60448201526064016102bf565b6000546040516323b872dd60e01b8152336004820152306024820152604481018390526001600160a01b03909116906323b872dd906064016020604051808303816000875af11580156103d0573d6000803e3d6000fd5b505050506040513d601f19601f820116820180604052508101906103f49190610be1565b5033600090815260026020526040902080541561045057600081600101544261041d9190610c19565b90506000610432836000015483600454610b4e565b9050808360000160008282546104489190610c32565b909155505050505b818160000160008282546104649190610c32565b90915550504260018083018290556000600284015560038301805460ff1916909117905560405133917f66d612d12bb1902ec26fd9a4991d9d58d71d0580427497d62731e7527f1e01a4916104ba918691610c45565b60405180910390a25050565b6001546001600160a01b0316331461051a5760405162461bcd60e51b815260206004820152601760248201527621b0b63632b91034b9903737ba103a34329037bbb732b960491b60448201526064016102bf565b6107d081111561055c5760405162461bcd60e51b815260206004820152600d60248201526c0a4c2e8ca40e8dede40d0d2ced609b1b60448201526064016102bf565b60048190556040517fbb9d066fcebd3792263684403a32b849e960a1127945fb842f4e82fe891b3a9b90610591908390610c76565b60405180910390a150565b33600090815260026020526040902080546105c95760405162461bcd60e51b81526004016102bf90610ca9565b60008160010154426105db9190610c19565b9050600060026105f2846000015484600454610b4e565b6105fc9190610cd1565b905060008184600001546106109190610c32565b60005460405163a9059cbb60e01b8152336004820152602481018390529192506001600160a01b03169063a9059cbb906044016020604051808303816000875af1158015610662573d6000803e3d6000fd5b505050506040513d601f19601f820116820180604052508101906106869190610be1565b50835460405133917f25f4e0a649ff63c6dd584125f38da0245181c8a494c19fb3ae3c05cb92453b6c916106ba9190610cf3565b60405180910390a2505033600090815260026020819052604082208281556001810183905590810191909155600301805460ff191690555050565b6001546001600160a01b031633146107495760405162461bcd60e51b815260206004820152601760248201527621b0b63632b91034b9903737ba103a34329037bbb732b960491b60448201526064016102bf565b610dac81111561078b5760405162461bcd60e51b815260206004820152600d60248201526c0a4c2e8ca40e8dede40d0d2ced609b1b60448201526064016102bf565b60058190556040517fbb9d066fcebd3792263684403a32b849e960a1127945fb842f4e82fe891b3a9b90610591908390610d1e565b33600090815260026020526040902080546107ed5760405162461bcd60e51b81526004016102bf90610ca9565b60008160020154116108385760405162461bcd60e51b8152602060048201526014602482015273155b9b1bd8dac81b9bdd081c995c5d595cdd195960621b60448201526064016102bf565b62093a80816002015461084b9190610c32565b42101561088f5760405162461bcd60e51b81526020600482015260126024820152714c6f636b20706572696f642061637469766560701b60448201526064016102bf565b6000816001015482600201546108a59190610c19565b905060006108ba836000015483600454610b4e565b905060008184600001546108ce9190610c32565b60005460405163a9059cbb60e01b8152336004820152602481018390529192506001600160a01b03169063a9059cbb906044016020604051808303816000875af1158015610920573d6000803e3d6000fd5b505050506040513d601f19601f820116820180604052508101906109449190610be1565b50835460405133917fd224ec5ad02946fe147952e6ad900ce0567e05d53bd64beb1b564a8c603d869c916106ba91908690610c45565b6001600160a01b0381166000908152600260205260408120805482036109a35750600092915050565b6002810154600090156109cb57816001015482600201546109c49190610c19565b90506109dd565b60018201546109da9042610c19565b90505b6109ee826000015482600454610b4e565b949350505050565b3360009081526003602052604090208054610a235760405162461bcd60e51b81526004016102bf90610ca9565b6000816001015442610a359190610c19565b905060006002610a4c846000015484600554610b4e565b610a569190610cd1565b90506000818460000154610a6a9190610c32565b60005460405163a9059cbb60e01b8152336004820152602481018390529192506001600160a01b03169063a9059cbb906044016020604051808303816000875af1158015610abc573d6000803e3d6000fd5b505050506040513d601f19601f82011682018060405250810190610ae09190610be1565b50835460405133917f25f4e0a649ff63c6dd584125f38da0245181c8a494c19fb3ae3c05cb92453b6c91610b149190610d44565b60405180910390a25050336000908152600360208190526040822082815560018101839055600281019290925501805460ff191690555050565b6000610b606127106301e13380610d70565b83610b6b8487610d70565b610b759190610d70565b6109ee9190610cd1565b600060208284031215610b9157600080fd5b5035919050565b600060208284031215610baa57600080fd5b81356001600160a01b0381168114610bc157600080fd5b9392505050565b600060208284031215610bda57600080fd5b5051919050565b600060208284031215610bf357600080fd5b81518015158114610bc157600080fd5b634e487b7160e01b600052601160045260246000fd5b81810381811115610c2c57610c2c610c03565b92915050565b80820180821115610c2c57610c2c610c03565b8281528160208201526060604082015260006109ee606083016005815264372d44617960d81b602082015260400190565b604081526000610c9b604083016005815264372d44617960d81b602082015260400190565b905082602083015292915050565b6020808252600e908201526d139bc81cdd185ad948199bdd5b9960921b604082015260600190565b600082610cee57634e487b7160e01b600052601260045260246000fd5b500490565b818152604060208201526000610bc1604083016005815264372d44617960d81b602082015260400190565b604081526000610c9b6040830160068152651896acb2b0b960d11b602082015260400190565b818152604060208201526000610bc16040830160068152651896acb2b0b960d11b602082015260400190565b8082028115828204841417610c2c57610c2c610c0356fea2646970667358221220c30419b0b334e5a905ab93cadb6483a572f28283be6547d8f8d3535f0feaea3764736f6c634300081b0033",
  "immutableReferences": {},
  "source": "// SPDX-License-Identifier: UNLICENSED\r\npragma solidity ^0.8.27;\r\n\r\nimport \"./MoonCatToken.sol\";\r\n\r\ncontract MoonCatStaking {\r\n    MoonCatToken public token;\r\n    address public owner;\r\n\r\n    struct Stake {\r\n        uint256 amount;\r\n        uint256 since;\r\n        uint256 unlockRequestTime;\r\n        bool isLocked;  // New field to track lock status\r\n    }\r\n\r\n    mapping(address => Stake) public stakes7Days;\r\n    mapping(address => Stake) public stakes1Year;\r\n\r\n    // Update reward rates to be more precise (using basis points)\r\n    // 2000 = 20% APR for 7 days\r\n    // 3500 = 35% APR for 1 year\r\n    uint256 public rewardRate7Days = 634;  // roughly 20% APR (2000 / 365 * 7 / 28)\r\n    uint256 public rewardRate1Year = 959;  // roughly 35% APR (3500 / 365)\r\n\r\n    uint256 public constant UNLOCK_PERIOD_7DAYS = 7 days;\r\n    uint256 public constant UNLOCK_PERIOD_1YEAR = 365 days;\r\n    uint256 public constant BASIS_POINTS = 10000;\r\n\r\n    event Staked(address indexed user, uint256 amount, uint256 since, string stakeType);\r\n    event UnlockRequested(address indexed user, uint256 unlockRequestTime, string stakeType);\r\n    event Unstaked(address indexed user, uint256 amount, uint256 reward, string stakeType);\r\n    event ForceUnlocked(address indexed user, uint256 amount, string stakeType);\r\n    event RewardRateUpdated(string stakeType, uint256 newRate);\r\n\r\n    modifier onlyOwner() {\r\n        require(msg.sender == owner, \"Caller is not the owner\");\r\n        _;\r\n    }\r\n\r\n    constructor(MoonCatToken _token) {\r\n        token = _token;\r\n        owner = msg.sender;\r\n    }\r\n\r\n    // Updated reward rate functions with validation\r\n    function setRewardRate7Days(uint256 _newRate) public onlyOwner {\r\n        require(_newRate <= 2000, \"Rate too high\"); // Max 20% APR\r\n        rewardRate7Days = _newRate;\r\n        emit RewardRateUpdated(\"7-Day\", _newRate);\r\n    }\r\n\r\n    function setRewardRate1Year(uint256 _newRate) public onlyOwner {\r\n        require(_newRate <= 3500, \"Rate too high\"); // Max 35% APR\r\n        rewardRate1Year = _newRate;\r\n        emit RewardRateUpdated(\"1-Year\", _newRate);\r\n    }\r\n\r\n    // Updated interest calculation function\r\n    function calculateInterest(\r\n        uint256 amount,\r\n        uint256 duration,\r\n        uint256 rate\r\n    ) internal pure returns (uint256) {\r\n        // Calculate interest using basis points\r\n        // (amount * rate * duration) / (BASIS_POINTS * 365 days)\r\n        return (amount * rate * duration) / (BASIS_POINTS * 365 days);\r\n    }\r\n\r\n    // New force unlock functions\r\n    function forceUnlock7Days() public {\r\n        Stake storage userStake = stakes7Days[msg.sender];\r\n        require(userStake.amount > 0, \"No stake found\");\r\n        \r\n        // Calculate reduced reward (50% penalty)\r\n        uint256 duration = block.timestamp - userStake.since;\r\n        uint256 reward = calculateInterest(userStake.amount, duration, rewardRate7Days) / 2;\r\n        uint256 totalAmount = userStake.amount + reward;\r\n        \r\n        token.transfer(msg.sender, totalAmount);\r\n        \r\n        emit ForceUnlocked(msg.sender, userStake.amount, \"7-Day\");\r\n        delete stakes7Days[msg.sender];\r\n    }\r\n\r\n    function forceUnlock1Year() public {\r\n        Stake storage userStake = stakes1Year[msg.sender];\r\n        require(userStake.amount > 0, \"No stake found\");\r\n        \r\n        // Calculate reduced reward (50% penalty)\r\n        uint256 duration = block.timestamp - userStake.since;\r\n        uint256 reward = calculateInterest(userStake.amount, duration, rewardRate1Year) / 2;\r\n        uint256 totalAmount = userStake.amount + reward;\r\n        \r\n        token.transfer(msg.sender, totalAmount);\r\n        \r\n        emit ForceUnlocked(msg.sender, userStake.amount, \"1-Year\");\r\n        delete stakes1Year[msg.sender];\r\n    }\r\n\r\n    // Updated stake7Days function\r\n    function stake7Days(uint256 _amount) public {\r\n        require(_amount > 0, \"Cannot stake 0\");\r\n        require(token.balanceOf(msg.sender) >= _amount, \"Insufficient balance\");\r\n        \r\n        token.transferFrom(msg.sender, address(this), _amount);\r\n        \r\n        Stake storage userStake = stakes7Days[msg.sender];\r\n        \r\n        if (userStake.amount > 0) {\r\n            // Calculate accumulated interest before adding new stake\r\n            uint256 duration = block.timestamp - userStake.since;\r\n            uint256 reward = calculateInterest(userStake.amount, duration, rewardRate7Days);\r\n            userStake.amount += reward;\r\n        }\r\n        \r\n        userStake.amount += _amount;\r\n        userStake.since = block.timestamp;\r\n        userStake.unlockRequestTime = 0;\r\n        userStake.isLocked = true;\r\n        \r\n        emit Staked(msg.sender, _amount, block.timestamp, \"7-Day\");\r\n    }\r\n\r\n    // Updated unstake7Days function with corrected interest calculation\r\n    function unstake7Days() public {\r\n        Stake storage userStake = stakes7Days[msg.sender];\r\n        require(userStake.amount > 0, \"No stake found\");\r\n        require(userStake.unlockRequestTime > 0, \"Unlock not requested\");\r\n        require(block.timestamp >= userStake.unlockRequestTime + UNLOCK_PERIOD_7DAYS, \"Lock period active\");\r\n\r\n        // Calculate interest only up to unlock request time\r\n        uint256 duration = userStake.unlockRequestTime - userStake.since;\r\n        uint256 reward = calculateInterest(userStake.amount, duration, rewardRate7Days);\r\n        uint256 totalAmount = userStake.amount + reward;\r\n\r\n        token.transfer(msg.sender, totalAmount);\r\n        \r\n        emit Unstaked(msg.sender, userStake.amount, reward, \"7-Day\");\r\n        delete stakes7Days[msg.sender];\r\n    }\r\n\r\n    // View function to check current rewards\r\n    function getAccumulatedRewards7Days(address _user) public view returns (uint256) {\r\n        Stake storage userStake = stakes7Days[_user];\r\n        if (userStake.amount == 0) return 0;\r\n        \r\n        uint256 duration;\r\n        if (userStake.unlockRequestTime > 0) {\r\n            duration = userStake.unlockRequestTime - userStake.since;\r\n        } else {\r\n            duration = block.timestamp - userStake.since;\r\n        }\r\n        \r\n        return calculateInterest(userStake.amount, duration, rewardRate7Days);\r\n    }\r\n}",
  "sourcePath": "C:\\MooncatAI\\Github\\mooncat_ai\\contracts\\MoonCatStaking.sol",
  "compiler": {
    "name": "solc",
    "version": "0.8.27+commit.40a35a09.Emscripten.clang"
  },
  "schemaVersion": "3.4.16",
  "updatedAt": "2024-10-25T00:31:54.471Z",
  "devdoc": {
    "kind": "dev",
    "methods": {},
    "version": 1
  },
  "userdoc": {
    "kind": "user",
    "methods": {},
    "version": 1
  }
}