{
  "contractName": "MoonCatToken",
  "abi": [
    {
      "inputs": [
        {
          "internalType": "string",
          "name": "_name",
          "type": "string"
        },
        {
          "internalType": "string",
          "name": "_symbol",
          "type": "string"
        },
        {
          "internalType": "uint256",
          "name": "_initialSupply",
          "type": "uint256"
        }
      ],
      "stateMutability": "nonpayable",
      "type": "constructor"
    },
    {
      "anonymous": false,
      "inputs": [
        {
          "indexed": true,
          "internalType": "address",
          "name": "owner",
          "type": "address"
        },
        {
          "indexed": true,
          "internalType": "address",
          "name": "spender",
          "type": "address"
        },
        {
          "indexed": false,
          "internalType": "uint256",
          "name": "value",
          "type": "uint256"
        }
      ],
      "name": "Approval",
      "type": "event"
    },
    {
      "anonymous": false,
      "inputs": [
        {
          "indexed": false,
          "internalType": "string",
          "name": "name",
          "type": "string"
        },
        {
          "indexed": false,
          "internalType": "string",
          "name": "symbol",
          "type": "string"
        },
        {
          "indexed": false,
          "internalType": "uint256",
          "name": "initialSupply",
          "type": "uint256"
        }
      ],
      "name": "ConstructorParams",
      "type": "event"
    },
    {
      "anonymous": false,
      "inputs": [
        {
          "indexed": true,
          "internalType": "address",
          "name": "from",
          "type": "address"
        },
        {
          "indexed": true,
          "internalType": "address",
          "name": "to",
          "type": "address"
        },
        {
          "indexed": false,
          "internalType": "uint256",
          "name": "value",
          "type": "uint256"
        }
      ],
      "name": "Transfer",
      "type": "event"
    },
    {
      "inputs": [
        {
          "internalType": "address",
          "name": "",
          "type": "address"
        },
        {
          "internalType": "address",
          "name": "",
          "type": "address"
        }
      ],
      "name": "allowance",
      "outputs": [
        {
          "internalType": "uint256",
          "name": "",
          "type": "uint256"
        }
      ],
      "stateMutability": "view",
      "type": "function"
    },
    {
      "inputs": [
        {
          "internalType": "address",
          "name": "",
          "type": "address"
        }
      ],
      "name": "balanceOf",
      "outputs": [
        {
          "internalType": "uint256",
          "name": "",
          "type": "uint256"
        }
      ],
      "stateMutability": "view",
      "type": "function"
    },
    {
      "inputs": [],
      "name": "decimals",
      "outputs": [
        {
          "internalType": "uint8",
          "name": "",
          "type": "uint8"
        }
      ],
      "stateMutability": "view",
      "type": "function"
    },
    {
      "inputs": [],
      "name": "name",
      "outputs": [
        {
          "internalType": "string",
          "name": "",
          "type": "string"
        }
      ],
      "stateMutability": "view",
      "type": "function"
    },
    {
      "inputs": [],
      "name": "symbol",
      "outputs": [
        {
          "internalType": "string",
          "name": "",
          "type": "string"
        }
      ],
      "stateMutability": "view",
      "type": "function"
    },
    {
      "inputs": [],
      "name": "taxCollector",
      "outputs": [
        {
          "internalType": "address",
          "name": "",
          "type": "address"
        }
      ],
      "stateMutability": "view",
      "type": "function"
    },
    {
      "inputs": [],
      "name": "taxRate",
      "outputs": [
        {
          "internalType": "uint256",
          "name": "",
          "type": "uint256"
        }
      ],
      "stateMutability": "view",
      "type": "function"
    },
    {
      "inputs": [],
      "name": "totalSupply",
      "outputs": [
        {
          "internalType": "uint256",
          "name": "",
          "type": "uint256"
        }
      ],
      "stateMutability": "view",
      "type": "function"
    },
    {
      "inputs": [
        {
          "internalType": "address",
          "name": "_to",
          "type": "address"
        },
        {
          "internalType": "uint256",
          "name": "_value",
          "type": "uint256"
        }
      ],
      "name": "transfer",
      "outputs": [
        {
          "internalType": "bool",
          "name": "success",
          "type": "bool"
        }
      ],
      "stateMutability": "nonpayable",
      "type": "function"
    },
    {
      "inputs": [
        {
          "internalType": "address",
          "name": "_spender",
          "type": "address"
        },
        {
          "internalType": "uint256",
          "name": "_value",
          "type": "uint256"
        }
      ],
      "name": "approve",
      "outputs": [
        {
          "internalType": "bool",
          "name": "success",
          "type": "bool"
        }
      ],
      "stateMutability": "nonpayable",
      "type": "function"
    },
    {
      "inputs": [
        {
          "internalType": "address",
          "name": "_from",
          "type": "address"
        },
        {
          "internalType": "address",
          "name": "_to",
          "type": "address"
        },
        {
          "internalType": "uint256",
          "name": "_value",
          "type": "uint256"
        }
      ],
      "name": "transferFrom",
      "outputs": [
        {
          "internalType": "bool",
          "name": "success",
          "type": "bool"
        }
      ],
      "stateMutability": "nonpayable",
      "type": "function"
    },
    {
      "inputs": [
        {
          "internalType": "uint256",
          "name": "_value",
          "type": "uint256"
        }
      ],
      "name": "burn",
      "outputs": [
        {
          "internalType": "bool",
          "name": "success",
          "type": "bool"
        }
      ],
      "stateMutability": "nonpayable",
      "type": "function"
    }
  ],
  "bytecode": "0x60806040526002805460ff191660121790556064600555348015610021575f5ffd5b50604051610e68380380610e6883398101604081905261004091610216565b5f81116100a45760405162461bcd60e51b815260206004820152602860248201527f496e697469616c20737570706c79206d7573742062652067726561746572207460448201526768616e207a65726f60c01b606482015260840160405180910390fd5b7fcba4e7d65d417006a9c5169536f17b995cc389a01daacf76926ff979031bab498383836040516100d7939291906102b1565b60405180910390a15f6100ea848261036a565b5060016100f7838261036a565b506002546101099060ff16600a61051d565b610113908261052f565b6003819055335f818152600660209081526040808320859055600480546001600160a01b0319168517905551938452919290917fddf252ad1be2c89b69c2b068fc378daa952ba7f163c4a11628f55a4df523b3ef910160405180910390a3505050610546565b634e487b7160e01b5f52604160045260245ffd5b5f82601f83011261019c575f5ffd5b81516001600160401b038111156101b5576101b5610179565b604051601f8201601f19908116603f011681016001600160401b03811182821017156101e3576101e3610179565b6040528181528382016020018510156101fa575f5ffd5b8160208501602083015e5f918101602001919091529392505050565b5f5f5f60608486031215610228575f5ffd5b83516001600160401b0381111561023d575f5ffd5b6102498682870161018d565b602086015190945090506001600160401b03811115610266575f5ffd5b6102728682870161018d565b925050604084015190509250925092565b5f81518084528060208401602086015e5f602082860101526020601f19601f83011685010191505092915050565b606081525f6102c36060830186610283565b82810360208401526102d58186610283565b915050826040830152949350505050565b600181811c908216806102fa57607f821691505b60208210810361031857634e487b7160e01b5f52602260045260245ffd5b50919050565b601f82111561036557805f5260205f20601f840160051c810160208510156103435750805b601f840160051c820191505b81811015610362575f815560010161034f565b50505b505050565b81516001600160401b0381111561038357610383610179565b6103978161039184546102e6565b8461031e565b6020601f8211600181146103c9575f83156103b25750848201515b5f19600385901b1c1916600184901b178455610362565b5f84815260208120601f198516915b828110156103f857878501518255602094850194600190920191016103d8565b508482101561041557868401515f19600387901b60f8161c191681555b50505050600190811b01905550565b634e487b7160e01b5f52601160045260245ffd5b6001815b60018411156104735780850481111561045757610457610424565b600184161561046557908102905b60019390931c92800261043c565b935093915050565b5f8261048957506001610517565b8161049557505f610517565b81600181146104ab57600281146104b5576104d1565b6001915050610517565b60ff8411156104c6576104c6610424565b50506001821b610517565b5060208310610133831016604e8410600b84101617156104f4575081810a610517565b6105005f198484610438565b805f190482111561051357610513610424565b0290505b92915050565b5f610528838361047b565b9392505050565b808202811582820484141761051757610517610424565b610915806105535f395ff3fe608060405234801561000f575f5ffd5b50600436106100b1575f3560e01c806370a082311161006e57806370a0823114610152578063771a3a1d1461017157806395d89b411461017a578063a9059cbb14610182578063bea1dcf814610195578063dd62ed3e146101c0575f5ffd5b806306fdde03146100b5578063095ea7b3146100d357806318160ddd146100f657806323b872dd1461010d578063313ce5671461012057806342966c681461013f575b5f5ffd5b6100bd6101ea565b6040516100ca91906106cf565b60405180910390f35b6100e66100e136600461071f565b610275565b60405190151581526020016100ca565b6100ff60035481565b6040519081526020016100ca565b6100e661011b366004610747565b6102e1565b60025461012d9060ff1681565b60405160ff90911681526020016100ca565b6100e661014d366004610781565b6104ec565b6100ff610160366004610798565b60066020525f908152604090205481565b6100ff60055481565b6100bd610581565b6100e661019036600461071f565b61058e565b6004546101a8906001600160a01b031681565b6040516001600160a01b0390911681526020016100ca565b6100ff6101ce3660046107b8565b600760209081525f928352604080842090915290825290205481565b5f80546101f6906107e9565b80601f0160208091040260200160405190810160405280929190818152602001828054610222906107e9565b801561026d5780601f106102445761010080835404028352916020019161026d565b820191905f5260205f20905b81548152906001019060200180831161025057829003601f168201915b505050505081565b335f8181526007602090815260408083206001600160a01b038716808552925280832085905551919290917f8c5be1e5ebec7d5bd14f71427d1e84f3dd0314c0f7b2291e5b200ac8c7c3b925906102cf9086815260200190565b60405180910390a35060015b92915050565b5f5f612710600554846102f49190610835565b6102fe919061084c565b90505f61030b828561086b565b6001600160a01b0387165f9081526006602052604090205490915084111561034e5760405162461bcd60e51b81526004016103459061087e565b60405180910390fd5b6001600160a01b0386165f9081526007602090815260408083203384529091529020548411156103b55760405162461bcd60e51b8152602060048201526012602482015271105b1b1bddd85b98d948195e18d95959195960721b6044820152606401610345565b6001600160a01b0386165f90815260066020526040812080548692906103dc90849061086b565b90915550506001600160a01b0385165f90815260066020526040812080548392906104089084906108ac565b90915550506004546001600160a01b03165f90815260066020526040812080548492906104369084906108ac565b90915550506001600160a01b0386165f9081526007602090815260408083203384529091528120805486929061046d90849061086b565b92505081905550846001600160a01b0316866001600160a01b03165f5160206108c05f395f51905f52836040516104a691815260200190565b60405180910390a36004546040518381526001600160a01b03918216918816905f5160206108c05f395f51905f529060200160405180910390a350600195945050505050565b335f9081526006602052604081205482111561051a5760405162461bcd60e51b81526004016103459061087e565b335f908152600660205260408120805484929061053890849061086b565b925050819055508160035f828254610550919061086b565b90915550506040518281525f9033905f5160206108c05f395f51905f529060200160405180910390a3506001919050565b600180546101f6906107e9565b5f5f612710600554846105a19190610835565b6105ab919061084c565b90505f6105b8828561086b565b335f908152600660205260409020549091508411156105e95760405162461bcd60e51b81526004016103459061087e565b335f908152600660205260408120805486929061060790849061086b565b90915550506001600160a01b0385165f90815260066020526040812080548392906106339084906108ac565b90915550506004546001600160a01b03165f90815260066020526040812080548492906106619084906108ac565b90915550506040518181526001600160a01b0386169033905f5160206108c05f395f51905f529060200160405180910390a36004546040518381526001600160a01b039091169033905f5160206108c05f395f51905f529060200160405180910390a3506001949350505050565b602081525f82518060208401528060208501604085015e5f604082850101526040601f19601f83011684010191505092915050565b80356001600160a01b038116811461071a575f5ffd5b919050565b5f5f60408385031215610730575f5ffd5b61073983610704565b946020939093013593505050565b5f5f5f60608486031215610759575f5ffd5b61076284610704565b925061077060208501610704565b929592945050506040919091013590565b5f60208284031215610791575f5ffd5b5035919050565b5f602082840312156107a8575f5ffd5b6107b182610704565b9392505050565b5f5f604083850312156107c9575f5ffd5b6107d283610704565b91506107e060208401610704565b90509250929050565b600181811c908216806107fd57607f821691505b60208210810361081b57634e487b7160e01b5f52602260045260245ffd5b50919050565b634e487b7160e01b5f52601160045260245ffd5b80820281158282048414176102db576102db610821565b5f8261086657634e487b7160e01b5f52601260045260245ffd5b500490565b818103818111156102db576102db610821565b602080825260149082015273496e73756666696369656e742062616c616e636560601b604082015260600190565b808201808211156102db576102db61082156feddf252ad1be2c89b69c2b068fc378daa952ba7f163c4a11628f55a4df523b3efa2646970667358221220ce00a4acb995d0be093bfa92a784e77683a7c5c8dbaad5316647b22923a97d8964736f6c634300081b0033",
  "immutableReferences": {},
  "source": "// SPDX-License-Identifier: UNLICENSED\r\npragma solidity ^0.8.27;\r\n\r\ncontract MoonCatToken {\r\n    string public name;\r\n    string public symbol;\r\n    uint8 public decimals = 18;\r\n    uint256 public totalSupply;\r\n\r\n    address public taxCollector; // Moved here\r\n    uint256 public taxRate = 100; // Moved here (Represents 1% tax where 100 is equivalent to 1%)\r\n\r\n    mapping(address => uint256) public balanceOf;\r\n    mapping(address => mapping(address => uint256)) public allowance;\r\n\r\n    event Transfer(address indexed from, address indexed to, uint256 value);\r\n    event Approval(address indexed owner, address indexed spender, uint256 value);\r\n    event ConstructorParams(string name, string symbol, uint256 initialSupply);\r\n\r\n    // Constructor\r\n    constructor(string memory _name, string memory _symbol, uint256 _initialSupply) {\r\n        require(_initialSupply > 0, \"Initial supply must be greater than zero\");\r\n\r\n        emit ConstructorParams(_name, _symbol, _initialSupply);\r\n        name = _name;\r\n        symbol = _symbol;\r\n        totalSupply = _initialSupply * (10 ** uint256(decimals));\r\n        balanceOf[msg.sender] = totalSupply;\r\n        taxCollector = msg.sender; // Initialize taxCollector\r\n        emit Transfer(address(0), msg.sender, totalSupply);\r\n    }\r\n\r\n    function transfer(address _to, uint256 _value) public returns (bool success) {\r\n        uint256 taxAmount = (_value * taxRate) / 10000;\r\n        uint256 amountAfterTax = _value - taxAmount;\r\n\r\n        require(balanceOf[msg.sender] >= _value, \"Insufficient balance\");\r\n        balanceOf[msg.sender] -= _value;\r\n        balanceOf[_to] += amountAfterTax;\r\n        balanceOf[taxCollector] += taxAmount;\r\n\r\n        emit Transfer(msg.sender, _to, amountAfterTax);\r\n        emit Transfer(msg.sender, taxCollector, taxAmount);\r\n        return true;\r\n    }\r\n\r\n    function approve(address _spender, uint256 _value) public returns (bool success) {\r\n        allowance[msg.sender][_spender] = _value;\r\n        emit Approval(msg.sender, _spender, _value);\r\n        return true;\r\n    }\r\n\r\n    function transferFrom(address _from, address _to, uint256 _value) public returns (bool success) {\r\n        uint256 taxAmount = (_value * taxRate) / 10000;\r\n        uint256 amountAfterTax = _value - taxAmount;\r\n\r\n        require(_value <= balanceOf[_from], \"Insufficient balance\");\r\n        require(_value <= allowance[_from][msg.sender], \"Allowance exceeded\");\r\n\r\n        balanceOf[_from] -= _value;\r\n        balanceOf[_to] += amountAfterTax;\r\n        balanceOf[taxCollector] += taxAmount;\r\n        allowance[_from][msg.sender] -= _value;\r\n\r\n        emit Transfer(_from, _to, amountAfterTax);\r\n        emit Transfer(_from, taxCollector, taxAmount);\r\n        return true;\r\n    }\r\n\r\n    function burn(uint256 _value) public returns (bool success) {\r\n        require(balanceOf[msg.sender] >= _value, \"Insufficient balance\");\r\n        balanceOf[msg.sender] -= _value;\r\n        totalSupply -= _value;\r\n        emit Transfer(msg.sender, address(0), _value);\r\n        return true;\r\n    }\r\n}\r\n",
  "sourcePath": "C:\\MooncatAI\\Github\\mooncat_ai\\contracts\\MoonCatToken.sol",
  "compiler": {
    "name": "solc",
    "version": "0.8.27+commit.40a35a09.Emscripten.clang"
  },
  "schemaVersion": "3.4.16",
  "updatedAt": "2024-09-27T04:07:30.624Z",
  "devdoc": {
    "kind": "dev",
    "methods": {},
    "version": 1
  },
  "userdoc": {
    "kind": "user",
    "methods": {},
    "version": 1
  }
}