{
  "contractName": "MoonCatToken",
  "abi": [
    {
      "inputs": [],
      "stateMutability": "nonpayable",
      "type": "constructor"
    },
    {
      "inputs": [
        {
          "internalType": "address",
          "name": "sender",
          "type": "address"
        },
        {
          "internalType": "uint256",
          "name": "balance",
          "type": "uint256"
        },
        {
          "internalType": "uint256",
          "name": "needed",
          "type": "uint256"
        },
        {
          "internalType": "uint256",
          "name": "tokenId",
          "type": "uint256"
        }
      ],
      "name": "ERC1155InsufficientBalance",
      "type": "error"
    },
    {
      "inputs": [
        {
          "internalType": "address",
          "name": "approver",
          "type": "address"
        }
      ],
      "name": "ERC1155InvalidApprover",
      "type": "error"
    },
    {
      "inputs": [
        {
          "internalType": "uint256",
          "name": "idsLength",
          "type": "uint256"
        },
        {
          "internalType": "uint256",
          "name": "valuesLength",
          "type": "uint256"
        }
      ],
      "name": "ERC1155InvalidArrayLength",
      "type": "error"
    },
    {
      "inputs": [
        {
          "internalType": "address",
          "name": "operator",
          "type": "address"
        }
      ],
      "name": "ERC1155InvalidOperator",
      "type": "error"
    },
    {
      "inputs": [
        {
          "internalType": "address",
          "name": "receiver",
          "type": "address"
        }
      ],
      "name": "ERC1155InvalidReceiver",
      "type": "error"
    },
    {
      "inputs": [
        {
          "internalType": "address",
          "name": "sender",
          "type": "address"
        }
      ],
      "name": "ERC1155InvalidSender",
      "type": "error"
    },
    {
      "inputs": [
        {
          "internalType": "address",
          "name": "operator",
          "type": "address"
        },
        {
          "internalType": "address",
          "name": "owner",
          "type": "address"
        }
      ],
      "name": "ERC1155MissingApprovalForAll",
      "type": "error"
    },
    {
      "anonymous": false,
      "inputs": [
        {
          "indexed": true,
          "internalType": "address",
          "name": "account",
          "type": "address"
        },
        {
          "indexed": true,
          "internalType": "address",
          "name": "operator",
          "type": "address"
        },
        {
          "indexed": false,
          "internalType": "bool",
          "name": "approved",
          "type": "bool"
        }
      ],
      "name": "ApprovalForAll",
      "type": "event"
    },
    {
      "anonymous": false,
      "inputs": [
        {
          "indexed": true,
          "internalType": "address",
          "name": "operator",
          "type": "address"
        },
        {
          "indexed": true,
          "internalType": "address",
          "name": "from",
          "type": "address"
        },
        {
          "indexed": true,
          "internalType": "address",
          "name": "to",
          "type": "address"
        },
        {
          "indexed": false,
          "internalType": "uint256[]",
          "name": "ids",
          "type": "uint256[]"
        },
        {
          "indexed": false,
          "internalType": "uint256[]",
          "name": "values",
          "type": "uint256[]"
        }
      ],
      "name": "TransferBatch",
      "type": "event"
    },
    {
      "anonymous": false,
      "inputs": [
        {
          "indexed": true,
          "internalType": "address",
          "name": "operator",
          "type": "address"
        },
        {
          "indexed": true,
          "internalType": "address",
          "name": "from",
          "type": "address"
        },
        {
          "indexed": true,
          "internalType": "address",
          "name": "to",
          "type": "address"
        },
        {
          "indexed": false,
          "internalType": "uint256",
          "name": "id",
          "type": "uint256"
        },
        {
          "indexed": false,
          "internalType": "uint256",
          "name": "value",
          "type": "uint256"
        }
      ],
      "name": "TransferSingle",
      "type": "event"
    },
    {
      "anonymous": false,
      "inputs": [
        {
          "indexed": false,
          "internalType": "string",
          "name": "value",
          "type": "string"
        },
        {
          "indexed": true,
          "internalType": "uint256",
          "name": "id",
          "type": "uint256"
        }
      ],
      "name": "URI",
      "type": "event"
    },
    {
      "inputs": [],
      "name": "GOVERNANCE_TOKEN",
      "outputs": [
        {
          "internalType": "uint256",
          "name": "",
          "type": "uint256"
        }
      ],
      "stateMutability": "view",
      "type": "function",
      "constant": true
    },
    {
      "inputs": [],
      "name": "STAKING_TOKEN",
      "outputs": [
        {
          "internalType": "uint256",
          "name": "",
          "type": "uint256"
        }
      ],
      "stateMutability": "view",
      "type": "function",
      "constant": true
    },
    {
      "inputs": [
        {
          "internalType": "address",
          "name": "account",
          "type": "address"
        },
        {
          "internalType": "uint256",
          "name": "id",
          "type": "uint256"
        }
      ],
      "name": "balanceOf",
      "outputs": [
        {
          "internalType": "uint256",
          "name": "",
          "type": "uint256"
        }
      ],
      "stateMutability": "view",
      "type": "function",
      "constant": true
    },
    {
      "inputs": [
        {
          "internalType": "address[]",
          "name": "accounts",
          "type": "address[]"
        },
        {
          "internalType": "uint256[]",
          "name": "ids",
          "type": "uint256[]"
        }
      ],
      "name": "balanceOfBatch",
      "outputs": [
        {
          "internalType": "uint256[]",
          "name": "",
          "type": "uint256[]"
        }
      ],
      "stateMutability": "view",
      "type": "function",
      "constant": true
    },
    {
      "inputs": [
        {
          "internalType": "address",
          "name": "account",
          "type": "address"
        },
        {
          "internalType": "address",
          "name": "operator",
          "type": "address"
        }
      ],
      "name": "isApprovedForAll",
      "outputs": [
        {
          "internalType": "bool",
          "name": "",
          "type": "bool"
        }
      ],
      "stateMutability": "view",
      "type": "function",
      "constant": true
    },
    {
      "inputs": [],
      "name": "owner",
      "outputs": [
        {
          "internalType": "address",
          "name": "",
          "type": "address"
        }
      ],
      "stateMutability": "view",
      "type": "function",
      "constant": true
    },
    {
      "inputs": [
        {
          "internalType": "address",
          "name": "from",
          "type": "address"
        },
        {
          "internalType": "address",
          "name": "to",
          "type": "address"
        },
        {
          "internalType": "uint256[]",
          "name": "ids",
          "type": "uint256[]"
        },
        {
          "internalType": "uint256[]",
          "name": "values",
          "type": "uint256[]"
        },
        {
          "internalType": "bytes",
          "name": "data",
          "type": "bytes"
        }
      ],
      "name": "safeBatchTransferFrom",
      "outputs": [],
      "stateMutability": "nonpayable",
      "type": "function"
    },
    {
      "inputs": [
        {
          "internalType": "address",
          "name": "operator",
          "type": "address"
        },
        {
          "internalType": "bool",
          "name": "approved",
          "type": "bool"
        }
      ],
      "name": "setApprovalForAll",
      "outputs": [],
      "stateMutability": "nonpayable",
      "type": "function"
    },
    {
      "inputs": [
        {
          "internalType": "bytes4",
          "name": "interfaceId",
          "type": "bytes4"
        }
      ],
      "name": "supportsInterface",
      "outputs": [
        {
          "internalType": "bool",
          "name": "",
          "type": "bool"
        }
      ],
      "stateMutability": "view",
      "type": "function",
      "constant": true
    },
    {
      "inputs": [],
      "name": "taxCollector",
      "outputs": [
        {
          "internalType": "address",
          "name": "",
          "type": "address"
        }
      ],
      "stateMutability": "view",
      "type": "function",
      "constant": true
    },
    {
      "inputs": [],
      "name": "taxRate",
      "outputs": [
        {
          "internalType": "uint256",
          "name": "",
          "type": "uint256"
        }
      ],
      "stateMutability": "view",
      "type": "function",
      "constant": true
    },
    {
      "inputs": [],
      "name": "totalSupplyGovernance",
      "outputs": [
        {
          "internalType": "uint256",
          "name": "",
          "type": "uint256"
        }
      ],
      "stateMutability": "view",
      "type": "function",
      "constant": true
    },
    {
      "inputs": [],
      "name": "totalSupplyStaking",
      "outputs": [
        {
          "internalType": "uint256",
          "name": "",
          "type": "uint256"
        }
      ],
      "stateMutability": "view",
      "type": "function",
      "constant": true
    },
    {
      "inputs": [
        {
          "internalType": "uint256",
          "name": "",
          "type": "uint256"
        }
      ],
      "name": "uri",
      "outputs": [
        {
          "internalType": "string",
          "name": "",
          "type": "string"
        }
      ],
      "stateMutability": "view",
      "type": "function",
      "constant": true
    },
    {
      "inputs": [
        {
          "internalType": "address",
          "name": "newOwner",
          "type": "address"
        }
      ],
      "name": "transferOwnership",
      "outputs": [],
      "stateMutability": "nonpayable",
      "type": "function"
    },
    {
      "inputs": [
        {
          "internalType": "address",
          "name": "to",
          "type": "address"
        },
        {
          "internalType": "uint256",
          "name": "amount",
          "type": "uint256"
        }
      ],
      "name": "mintStakingToken",
      "outputs": [],
      "stateMutability": "nonpayable",
      "type": "function"
    },
    {
      "inputs": [
        {
          "internalType": "address",
          "name": "to",
          "type": "address"
        },
        {
          "internalType": "uint256",
          "name": "amount",
          "type": "uint256"
        }
      ],
      "name": "mintGovernanceToken",
      "outputs": [],
      "stateMutability": "nonpayable",
      "type": "function"
    },
    {
      "inputs": [
        {
          "internalType": "address",
          "name": "from",
          "type": "address"
        },
        {
          "internalType": "address",
          "name": "to",
          "type": "address"
        },
        {
          "internalType": "uint256",
          "name": "id",
          "type": "uint256"
        },
        {
          "internalType": "uint256",
          "name": "amount",
          "type": "uint256"
        },
        {
          "internalType": "bytes",
          "name": "data",
          "type": "bytes"
        }
      ],
      "name": "safeTransferFrom",
      "outputs": [],
      "stateMutability": "nonpayable",
      "type": "function"
    },
    {
      "inputs": [
        {
          "internalType": "uint256",
          "name": "newTaxRate",
          "type": "uint256"
        }
      ],
      "name": "setTaxRate",
      "outputs": [],
      "stateMutability": "nonpayable",
      "type": "function"
    },
    {
      "inputs": [
        {
          "internalType": "address",
          "name": "newCollector",
          "type": "address"
        }
      ],
      "name": "setTaxCollector",
      "outputs": [],
      "stateMutability": "nonpayable",
      "type": "function"
    }
  ],
  "bytecode": "0x60806040526064600555348015610014575f5ffd5b506040518060600160405280602581526020016116b3602591396100378161005f565b5060078054336001600160a01b031991821681179092556006805490911690911790556101c1565b600261006b8282610107565b5050565b634e487b7160e01b5f52604160045260245ffd5b600181811c9082168061009757607f821691505b6020821081036100b557634e487b7160e01b5f52602260045260245ffd5b50919050565b601f82111561010257805f5260205f20601f840160051c810160208510156100e05750805b601f840160051c820191505b818110156100ff575f81556001016100ec565b50505b505050565b81516001600160401b038111156101205761012061006f565b6101348161012e8454610083565b846100bb565b6020601f821160018114610166575f831561014f5750848201515b5f19600385901b1c1916600184901b1784556100ff565b5f84815260208120601f198516915b828110156101955787850151825560209485019460019092019101610175565b50848210156101b257868401515f19600387901b60f8161c191681555b50505050600190811b01905550565b6114e5806101ce5f395ff3fe608060405234801561000f575f5ffd5b5060043610610126575f3560e01c80637d156981116100a9578063c6d69a301161006e578063c6d69a301461026a578063e985e9c51461027d578063f242432a146102b8578063f2fde38b146102cb578063f65dfca9146102de575f5ffd5b80637d156981146101fd5780638c0b012a146102065780638da5cb5b14610219578063a22cb46514610244578063bea1dcf814610257575f5ffd5b80632eb2c2d6116100ef5780632eb2c2d6146101b05780632efd46d6146101c35780634e1273f4146101cb57806368596194146101eb578063771a3a1d146101f4575f5ffd5b8062fdd58e1461012a57806301ffc9a7146101505780630479d6441461017357806308695b411461017b5780630e89341c14610190575b5f5ffd5b61013d610138366004610e47565b6102f1565b6040519081526020015b60405180910390f35b61016361015e366004610e87565b610318565b6040519015158152602001610147565b61013d600181565b61018e610189366004610ea9565b610367565b005b6101a361019e366004610ec2565b6103bc565b6040516101479190610f07565b61018e6101be366004611057565b61044e565b61013d600281565b6101de6101d9366004611106565b6104d3565b6040516101479190611203565b61013d60035481565b61013d60055481565b61013d60045481565b61018e610214366004610e47565b61059e565b60075461022c906001600160a01b031681565b6040516001600160a01b039091168152602001610147565b61018e610252366004611215565b6105ff565b60065461022c906001600160a01b031681565b61018e610278366004610ec2565b61060a565b61016361028b36600461124e565b6001600160a01b039182165f90815260016020908152604080832093909416825291909152205460ff1690565b61018e6102c636600461127f565b610639565b61018e6102d9366004610ea9565b6106e4565b61018e6102ec366004610e47565b610792565b5f818152602081815260408083206001600160a01b03861684529091529020545b92915050565b5f6001600160e01b03198216636cdb3d1360e11b148061034857506001600160e01b031982166303a24d0760e21b145b8061031257506301ffc9a760e01b6001600160e01b0319831614610312565b6007546001600160a01b0316331461039a5760405162461bcd60e51b8152600401610391906112d3565b60405180910390fd5b600680546001600160a01b0319166001600160a01b0392909216919091179055565b6060600280546103cb9061130a565b80601f01602080910402602001604051908101604052809291908181526020018280546103f79061130a565b80156104425780601f1061041957610100808354040283529160200191610442565b820191905f5260205f20905b81548152906001019060200180831161042557829003601f168201915b50505050509050919050565b336001600160a01b038616811480159061048d57506001600160a01b038087165f9081526001602090815260408083209385168352929052205460ff16155b156104be5760405163711bec9160e11b81526001600160a01b03808316600483015287166024820152604401610391565b6104cb86868686866107ef565b505050505050565b606081518351146105045781518351604051635b05999160e01b815260048101929092526024820152604401610391565b5f835167ffffffffffffffff81111561051f5761051f610f19565b604051908082528060200260200182016040528015610548578160200160208202803683370190505b5090505f5b845181101561059657602080820286010151610571906020808402870101516102f1565b82828151811061058357610583611342565b602090810291909101015260010161054d565b509392505050565b6007546001600160a01b031633146105c85760405162461bcd60e51b8152600401610391906112d3565b8060035f8282546105d9919061136a565b925050819055506105fb8260018360405180602001604052805f815250610854565b5050565b6105fb3383836108af565b6007546001600160a01b031633146106345760405162461bcd60e51b8152600401610391906112d3565b600555565b5f6127106005548461064b919061137d565b6106559190611394565b90505f61066282856113b3565b90508361066f88876102f1565b10156106b45760405162461bcd60e51b8152602060048201526014602482015273496e73756666696369656e742062616c616e636560601b6044820152606401610391565b6106c18787878487610943565b6006546106db9088906001600160a01b0316878587610943565b50505050505050565b6007546001600160a01b0316331461070e5760405162461bcd60e51b8152600401610391906112d3565b6001600160a01b0381166107705760405162461bcd60e51b8152602060048201526024808201527f4e6577206f776e65722063616e6e6f7420626520746865207a65726f206164646044820152637265737360e01b6064820152608401610391565b600780546001600160a01b0319166001600160a01b0392909216919091179055565b6007546001600160a01b031633146107bc5760405162461bcd60e51b8152600401610391906112d3565b8060045f8282546107cd919061136a565b925050819055506105fb8260028360405180602001604052805f815250610854565b6001600160a01b03841661081857604051632bfa23e760e11b81525f6004820152602401610391565b6001600160a01b03851661084057604051626a0d4560e21b81525f6004820152602401610391565b61084d85858585856109c2565b5050505050565b6001600160a01b03841661087d57604051632bfa23e760e11b81525f6004820152602401610391565b604080516001808252602082018690528183019081526060820185905260808201909252906104cb5f878484876109c2565b6001600160a01b0382166108d75760405162ced3e160e81b81525f6004820152602401610391565b6001600160a01b038381165f81815260016020908152604080832094871680845294825291829020805460ff191686151590811790915591519182527f17307eab39ab6107e8899845ad3d59bd9653f200f220920489ca2b5937696c31910160405180910390a3505050565b6001600160a01b03841661096c57604051632bfa23e760e11b81525f6004820152602401610391565b6001600160a01b03851661099457604051626a0d4560e21b81525f6004820152602401610391565b604080516001808252602082018690528183019081526060820185905260808201909252906106db87878484875b6109ce85858585610a15565b6001600160a01b0384161561084d5782513390600103610a075760208481015190840151610a00838989858589610c24565b50506104cb565b6104cb818787878787610d45565b8051825114610a445781518151604051635b05999160e01b815260048101929092526024820152604401610391565b335f5b8351811015610b46576020818102858101820151908501909101516001600160a01b03881615610af8575f828152602081815260408083206001600160a01b038c16845290915290205481811015610ad2576040516303dee4c560e01b81526001600160a01b038a166004820152602481018290526044810183905260648101849052608401610391565b5f838152602081815260408083206001600160a01b038d16845290915290209082900390555b6001600160a01b03871615610b3c575f828152602081815260408083206001600160a01b038b16845290915281208054839290610b3690849061136a565b90915550505b5050600101610a47565b508251600103610bc65760208301515f906020840151909150856001600160a01b0316876001600160a01b0316846001600160a01b03167fc3d58168c5ae7397731d063d5bbf3d657854427343f4c083240f7aacaa2d0f628585604051610bb7929190918252602082015260400190565b60405180910390a4505061084d565b836001600160a01b0316856001600160a01b0316826001600160a01b03167f4a39dc06d4c0dbc64b70af90fd698a233a518aa5d07e595d983b8c0526c8f7fb8686604051610c159291906113c6565b60405180910390a45050505050565b6001600160a01b0384163b156104cb5760405163f23a6e6160e01b81526001600160a01b0385169063f23a6e6190610c6890899089908890889088906004016113f3565b6020604051808303815f875af1925050508015610ca2575060408051601f3d908101601f19168201909252610c9f91810190611437565b60015b610d09573d808015610ccf576040519150601f19603f3d011682016040523d82523d5f602084013e610cd4565b606091505b5080515f03610d0157604051632bfa23e760e11b81526001600160a01b0386166004820152602401610391565b805181602001fd5b6001600160e01b0319811663f23a6e6160e01b146106db57604051632bfa23e760e11b81526001600160a01b0386166004820152602401610391565b6001600160a01b0384163b156104cb5760405163bc197c8160e01b81526001600160a01b0385169063bc197c8190610d899089908990889088908890600401611452565b6020604051808303815f875af1925050508015610dc3575060408051601f3d908101601f19168201909252610dc091810190611437565b60015b610df0573d808015610ccf576040519150601f19603f3d011682016040523d82523d5f602084013e610cd4565b6001600160e01b0319811663bc197c8160e01b146106db57604051632bfa23e760e11b81526001600160a01b0386166004820152602401610391565b80356001600160a01b0381168114610e42575f5ffd5b919050565b5f5f60408385031215610e58575f5ffd5b610e6183610e2c565b946020939093013593505050565b6001600160e01b031981168114610e84575f5ffd5b50565b5f60208284031215610e97575f5ffd5b8135610ea281610e6f565b9392505050565b5f60208284031215610eb9575f5ffd5b610ea282610e2c565b5f60208284031215610ed2575f5ffd5b5035919050565b5f81518084528060208401602086015e5f602082860101526020601f19601f83011685010191505092915050565b602081525f610ea26020830184610ed9565b634e487b7160e01b5f52604160045260245ffd5b604051601f8201601f1916810167ffffffffffffffff81118282101715610f5657610f56610f19565b604052919050565b5f67ffffffffffffffff821115610f7757610f77610f19565b5060051b60200190565b5f82601f830112610f90575f5ffd5b8135610fa3610f9e82610f5e565b610f2d565b8082825260208201915060208360051b860101925085831115610fc4575f5ffd5b602085015b83811015610fe1578035835260209283019201610fc9565b5095945050505050565b5f82601f830112610ffa575f5ffd5b813567ffffffffffffffff81111561101457611014610f19565b611027601f8201601f1916602001610f2d565b81815284602083860101111561103b575f5ffd5b816020850160208301375f918101602001919091529392505050565b5f5f5f5f5f60a0868803121561106b575f5ffd5b61107486610e2c565b945061108260208701610e2c565b9350604086013567ffffffffffffffff81111561109d575f5ffd5b6110a988828901610f81565b935050606086013567ffffffffffffffff8111156110c5575f5ffd5b6110d188828901610f81565b925050608086013567ffffffffffffffff8111156110ed575f5ffd5b6110f988828901610feb565b9150509295509295909350565b5f5f60408385031215611117575f5ffd5b823567ffffffffffffffff81111561112d575f5ffd5b8301601f8101851361113d575f5ffd5b803561114b610f9e82610f5e565b8082825260208201915060208360051b85010192508783111561116c575f5ffd5b6020840193505b828410156111955761118484610e2c565b825260209384019390910190611173565b9450505050602083013567ffffffffffffffff8111156111b3575f5ffd5b6111bf85828601610f81565b9150509250929050565b5f8151808452602084019350602083015f5b828110156111f95781518652602095860195909101906001016111db565b5093949350505050565b602081525f610ea260208301846111c9565b5f5f60408385031215611226575f5ffd5b61122f83610e2c565b915060208301358015158114611243575f5ffd5b809150509250929050565b5f5f6040838503121561125f575f5ffd5b61126883610e2c565b915061127660208401610e2c565b90509250929050565b5f5f5f5f5f60a08688031215611293575f5ffd5b61129c86610e2c565b94506112aa60208701610e2c565b93506040860135925060608601359150608086013567ffffffffffffffff8111156110ed575f5ffd5b60208082526017908201527f43616c6c6572206973206e6f7420746865206f776e6572000000000000000000604082015260600190565b600181811c9082168061131e57607f821691505b60208210810361133c57634e487b7160e01b5f52602260045260245ffd5b50919050565b634e487b7160e01b5f52603260045260245ffd5b634e487b7160e01b5f52601160045260245ffd5b8082018082111561031257610312611356565b808202811582820484141761031257610312611356565b5f826113ae57634e487b7160e01b5f52601260045260245ffd5b500490565b8181038181111561031257610312611356565b604081525f6113d860408301856111c9565b82810360208401526113ea81856111c9565b95945050505050565b6001600160a01b03868116825285166020820152604081018490526060810183905260a0608082018190525f9061142c90830184610ed9565b979650505050505050565b5f60208284031215611447575f5ffd5b8151610ea281610e6f565b6001600160a01b0386811682528516602082015260a0604082018190525f9061147d908301866111c9565b828103606084015261148f81866111c9565b905082810360808401526114a38185610ed9565b9897505050505050505056fea264697066735822122004b802a637471e9ea5e5f3bfe998f12d46e4b0aca3ee576c89b1150e0746e9cc64736f6c634300081b003368747470733a2f2f6d6f6f6e6361742e61692f6d657461646174612f7b69647d2e6a736f6e",
  "immutableReferences": {},
  "source": "// SPDX-License-Identifier: UNLICENSED\r\npragma solidity ^0.8.27;\r\n\r\nimport \"@openzeppelin/contracts/token/ERC1155/ERC1155.sol\";\r\n\r\ncontract MoonCatToken is ERC1155 {\r\n    uint256 public constant STAKING_TOKEN = 1;  // ID 1 for staking token\r\n    uint256 public constant GOVERNANCE_TOKEN = 2;  // ID 2 for governance token\r\n\r\n    uint256 public totalSupplyStaking;\r\n    uint256 public totalSupplyGovernance;\r\n\r\n    uint256 public taxRate = 100;  // 1% tax\r\n    address public taxCollector;\r\n    address public owner;\r\n\r\n    modifier onlyOwner() {\r\n        require(msg.sender == owner, \"Caller is not the owner\");\r\n        _;\r\n    }\r\n\r\n    constructor() ERC1155(\"https://mooncat.ai/metadata/{id}.json\") {\r\n        owner = msg.sender;  // Set deployer as the initial owner\r\n        taxCollector = msg.sender;  // Initialize the tax collector\r\n    }\r\n\r\n    // Transfer ownership\r\n    function transferOwnership(address newOwner) external onlyOwner {\r\n        require(newOwner != address(0), \"New owner cannot be the zero address\");\r\n        owner = newOwner;\r\n    }\r\n\r\n    // Mint Staking Token\r\n    function mintStakingToken(address to, uint256 amount) external onlyOwner {\r\n        totalSupplyStaking += amount;\r\n        _mint(to, STAKING_TOKEN, amount, \"\");\r\n    }\r\n\r\n    // Mint Governance Token (issued when users stake)\r\n    function mintGovernanceToken(address to, uint256 amount) external onlyOwner {\r\n        totalSupplyGovernance += amount;\r\n        _mint(to, GOVERNANCE_TOKEN, amount, \"\");\r\n    }\r\n\r\n    // Override the safeTransferFrom to include tax logic\r\n    function safeTransferFrom(\r\n        address from,\r\n        address to,\r\n        uint256 id,\r\n        uint256 amount,\r\n        bytes memory data\r\n    ) public override {\r\n        uint256 taxAmount = (amount * taxRate) / 10000;\r\n        uint256 amountAfterTax = amount - taxAmount;\r\n\r\n        require(balanceOf(from, id) >= amount, \"Insufficient balance\");\r\n\r\n        // Send tax to taxCollector and remaining amount to recipient\r\n        _safeTransferFrom(from, to, id, amountAfterTax, data);\r\n        _safeTransferFrom(from, taxCollector, id, taxAmount, data);\r\n    }\r\n\r\n    // Set tax rate\r\n    function setTaxRate(uint256 newTaxRate) external onlyOwner {\r\n        taxRate = newTaxRate;\r\n    }\r\n\r\n    // Set tax collector address\r\n    function setTaxCollector(address newCollector) external onlyOwner {\r\n        taxCollector = newCollector;\r\n    }\r\n}\r\n",
  "sourcePath": "C:\\MooncatAI\\Github\\mooncat_ai\\contracts\\MoonCatToken.sol",
  "compiler": {
    "name": "solc",
    "version": "0.8.27+commit.40a35a09.Emscripten.clang"
  },
  "schemaVersion": "3.4.16",
  "updatedAt": "2024-09-28T02:23:16.538Z",
  "networkType": "ethereum",
  "devdoc": {
    "errors": {
      "ERC1155InsufficientBalance(address,uint256,uint256,uint256)": [
        {
          "details": "Indicates an error related to the current `balance` of a `sender`. Used in transfers.",
          "params": {
            "balance": "Current balance for the interacting account.",
            "needed": "Minimum amount required to perform a transfer.",
            "sender": "Address whose tokens are being transferred.",
            "tokenId": "Identifier number of a token."
          }
        }
      ],
      "ERC1155InvalidApprover(address)": [
        {
          "details": "Indicates a failure with the `approver` of a token to be approved. Used in approvals.",
          "params": {
            "approver": "Address initiating an approval operation."
          }
        }
      ],
      "ERC1155InvalidArrayLength(uint256,uint256)": [
        {
          "details": "Indicates an array length mismatch between ids and values in a safeBatchTransferFrom operation. Used in batch transfers.",
          "params": {
            "idsLength": "Length of the array of token identifiers",
            "valuesLength": "Length of the array of token amounts"
          }
        }
      ],
      "ERC1155InvalidOperator(address)": [
        {
          "details": "Indicates a failure with the `operator` to be approved. Used in approvals.",
          "params": {
            "operator": "Address that may be allowed to operate on tokens without being their owner."
          }
        }
      ],
      "ERC1155InvalidReceiver(address)": [
        {
          "details": "Indicates a failure with the token `receiver`. Used in transfers.",
          "params": {
            "receiver": "Address to which tokens are being transferred."
          }
        }
      ],
      "ERC1155InvalidSender(address)": [
        {
          "details": "Indicates a failure with the token `sender`. Used in transfers.",
          "params": {
            "sender": "Address whose tokens are being transferred."
          }
        }
      ],
      "ERC1155MissingApprovalForAll(address,address)": [
        {
          "details": "Indicates a failure with the `operator`s approval. Used in transfers.",
          "params": {
            "operator": "Address that may be allowed to operate on tokens without being their owner.",
            "owner": "Address of the current owner of a token."
          }
        }
      ]
    },
    "events": {
      "ApprovalForAll(address,address,bool)": {
        "details": "Emitted when `account` grants or revokes permission to `operator` to transfer their tokens, according to `approved`."
      },
      "TransferBatch(address,address,address,uint256[],uint256[])": {
        "details": "Equivalent to multiple {TransferSingle} events, where `operator`, `from` and `to` are the same for all transfers."
      },
      "TransferSingle(address,address,address,uint256,uint256)": {
        "details": "Emitted when `value` amount of tokens of type `id` are transferred from `from` to `to` by `operator`."
      },
      "URI(string,uint256)": {
        "details": "Emitted when the URI for token type `id` changes to `value`, if it is a non-programmatic URI. If an {URI} event was emitted for `id`, the standard https://eips.ethereum.org/EIPS/eip-1155#metadata-extensions[guarantees] that `value` will equal the value returned by {IERC1155MetadataURI-uri}."
      }
    },
    "kind": "dev",
    "methods": {
      "balanceOf(address,uint256)": {
        "details": "See {IERC1155-balanceOf}."
      },
      "balanceOfBatch(address[],uint256[])": {
        "details": "See {IERC1155-balanceOfBatch}. Requirements: - `accounts` and `ids` must have the same length."
      },
      "isApprovedForAll(address,address)": {
        "details": "See {IERC1155-isApprovedForAll}."
      },
      "safeBatchTransferFrom(address,address,uint256[],uint256[],bytes)": {
        "details": "See {IERC1155-safeBatchTransferFrom}."
      },
      "setApprovalForAll(address,bool)": {
        "details": "See {IERC1155-setApprovalForAll}."
      },
      "supportsInterface(bytes4)": {
        "details": "See {IERC165-supportsInterface}."
      },
      "uri(uint256)": {
        "details": "See {IERC1155MetadataURI-uri}. This implementation returns the same URI for *all* token types. It relies on the token type ID substitution mechanism https://eips.ethereum.org/EIPS/eip-1155#metadata[defined in the EIP]. Clients calling this function must replace the `\\{id\\}` substring with the actual token type ID."
      }
    },
    "version": 1
  },
  "userdoc": {
    "kind": "user",
    "methods": {},
    "version": 1
  }
}