{
  "contractName": "MoonCatStaking",
  "abi": [
    {
      "inputs": [
        {
          "internalType": "contract MoonCatToken",
          "name": "_token",
          "type": "address"
        }
      ],
      "stateMutability": "nonpayable",
      "type": "constructor"
    },
    {
      "anonymous": false,
      "inputs": [
        {
          "indexed": true,
          "internalType": "address",
          "name": "user",
          "type": "address"
        },
        {
          "indexed": false,
          "internalType": "uint256",
          "name": "amount",
          "type": "uint256"
        },
        {
          "indexed": false,
          "internalType": "uint256",
          "name": "since",
          "type": "uint256"
        },
        {
          "indexed": false,
          "internalType": "string",
          "name": "stakeType",
          "type": "string"
        }
      ],
      "name": "Staked",
      "type": "event"
    },
    {
      "anonymous": false,
      "inputs": [
        {
          "indexed": true,
          "internalType": "address",
          "name": "user",
          "type": "address"
        },
        {
          "indexed": false,
          "internalType": "uint256",
          "name": "unlockRequestTime",
          "type": "uint256"
        },
        {
          "indexed": false,
          "internalType": "string",
          "name": "stakeType",
          "type": "string"
        }
      ],
      "name": "UnlockRequested",
      "type": "event"
    },
    {
      "anonymous": false,
      "inputs": [
        {
          "indexed": true,
          "internalType": "address",
          "name": "user",
          "type": "address"
        },
        {
          "indexed": false,
          "internalType": "uint256",
          "name": "amount",
          "type": "uint256"
        },
        {
          "indexed": false,
          "internalType": "uint256",
          "name": "reward",
          "type": "uint256"
        },
        {
          "indexed": false,
          "internalType": "string",
          "name": "stakeType",
          "type": "string"
        }
      ],
      "name": "Unstaked",
      "type": "event"
    },
    {
      "inputs": [],
      "name": "UNLOCK_PERIOD_1YEAR",
      "outputs": [
        {
          "internalType": "uint256",
          "name": "",
          "type": "uint256"
        }
      ],
      "stateMutability": "view",
      "type": "function",
      "constant": true
    },
    {
      "inputs": [],
      "name": "UNLOCK_PERIOD_7DAYS",
      "outputs": [
        {
          "internalType": "uint256",
          "name": "",
          "type": "uint256"
        }
      ],
      "stateMutability": "view",
      "type": "function",
      "constant": true
    },
    {
      "inputs": [],
      "name": "owner",
      "outputs": [
        {
          "internalType": "address",
          "name": "",
          "type": "address"
        }
      ],
      "stateMutability": "view",
      "type": "function",
      "constant": true
    },
    {
      "inputs": [],
      "name": "rewardRate1Year",
      "outputs": [
        {
          "internalType": "uint256",
          "name": "",
          "type": "uint256"
        }
      ],
      "stateMutability": "view",
      "type": "function",
      "constant": true
    },
    {
      "inputs": [],
      "name": "rewardRate7Days",
      "outputs": [
        {
          "internalType": "uint256",
          "name": "",
          "type": "uint256"
        }
      ],
      "stateMutability": "view",
      "type": "function",
      "constant": true
    },
    {
      "inputs": [
        {
          "internalType": "address",
          "name": "",
          "type": "address"
        }
      ],
      "name": "stakes1Year",
      "outputs": [
        {
          "internalType": "uint256",
          "name": "amount",
          "type": "uint256"
        },
        {
          "internalType": "uint256",
          "name": "since",
          "type": "uint256"
        },
        {
          "internalType": "uint256",
          "name": "unlockRequestTime",
          "type": "uint256"
        }
      ],
      "stateMutability": "view",
      "type": "function",
      "constant": true
    },
    {
      "inputs": [
        {
          "internalType": "address",
          "name": "",
          "type": "address"
        }
      ],
      "name": "stakes7Days",
      "outputs": [
        {
          "internalType": "uint256",
          "name": "amount",
          "type": "uint256"
        },
        {
          "internalType": "uint256",
          "name": "since",
          "type": "uint256"
        },
        {
          "internalType": "uint256",
          "name": "unlockRequestTime",
          "type": "uint256"
        }
      ],
      "stateMutability": "view",
      "type": "function",
      "constant": true
    },
    {
      "inputs": [],
      "name": "token",
      "outputs": [
        {
          "internalType": "contract MoonCatToken",
          "name": "",
          "type": "address"
        }
      ],
      "stateMutability": "view",
      "type": "function",
      "constant": true
    },
    {
      "inputs": [
        {
          "internalType": "uint256",
          "name": "_newRate",
          "type": "uint256"
        }
      ],
      "name": "setRewardRate7Days",
      "outputs": [],
      "stateMutability": "nonpayable",
      "type": "function"
    },
    {
      "inputs": [
        {
          "internalType": "uint256",
          "name": "_newRate",
          "type": "uint256"
        }
      ],
      "name": "setRewardRate1Year",
      "outputs": [],
      "stateMutability": "nonpayable",
      "type": "function"
    },
    {
      "inputs": [
        {
          "internalType": "uint256",
          "name": "_amount",
          "type": "uint256"
        }
      ],
      "name": "stake7Days",
      "outputs": [],
      "stateMutability": "nonpayable",
      "type": "function"
    },
    {
      "inputs": [],
      "name": "requestUnlock7Days",
      "outputs": [],
      "stateMutability": "nonpayable",
      "type": "function"
    },
    {
      "inputs": [],
      "name": "unstake7Days",
      "outputs": [],
      "stateMutability": "nonpayable",
      "type": "function"
    },
    {
      "inputs": [
        {
          "internalType": "uint256",
          "name": "_amount",
          "type": "uint256"
        }
      ],
      "name": "stake1Year",
      "outputs": [],
      "stateMutability": "nonpayable",
      "type": "function"
    },
    {
      "inputs": [],
      "name": "requestUnlock1Year",
      "outputs": [],
      "stateMutability": "nonpayable",
      "type": "function"
    },
    {
      "inputs": [],
      "name": "unstake1Year",
      "outputs": [],
      "stateMutability": "nonpayable",
      "type": "function"
    },
    {
      "inputs": [],
      "name": "withdrawAllInterest",
      "outputs": [],
      "stateMutability": "nonpayable",
      "type": "function"
    }
  ],
  "bytecode": "0x6080604052348015600e575f5ffd5b50604051611034380380611034833981016040819052602b91606a565b5f80546001600160a01b039092166001600160a01b0319928316179055600180549091163317905564939d584400600455650101f9f248006005556095565b5f602082840312156079575f5ffd5b81516001600160a01b0381168114608e575f5ffd5b9392505050565b610f92806100a25f395ff3fe608060405234801561000f575f5ffd5b5060043610610106575f3560e01c806386c39df41161009e578063c541f8391161006e578063c541f839146101d2578063cda01fc3146101dd578063dd847c88146101e5578063fb30eba81461022e578063fc0c546a1461025b575f5ffd5b806386c39df4146101845780638da5cb5b14610197578063ba3f1b59146101c2578063bb9287ad146101ca575f5ffd5b80634cdcc9f1116100d95780634cdcc9f11461015657806364f47933146101695780636abcc0921461017157806378a95e071461017a575f5ffd5b80630f544ac71461010a5780631532d0ba1461011f57806329da3d931461012757806349730fc11461013a575b5f5ffd5b61011d610118366004610d44565b61026d565b005b61011d610433565b61011d610135366004610d44565b6104aa565b61014360045481565b6040519081526020015b60405180910390f35b61011d610164366004610d44565b610503565b61011d6106b8565b61014360055481565b61014362093a8081565b61011d610192366004610d44565b6108c2565b6001546101aa906001600160a01b031681565b6040516001600160a01b03909116815260200161014d565b61011d61091b565b61011d610987565b6101436301e1338081565b61011d610b55565b6102136101f3366004610d5b565b60036020525f908152604090208054600182015460029092015490919083565b6040805193845260208401929092529082015260600161014d565b61021361023c366004610d5b565b600260208190525f918252604090912080546001820154919092015483565b5f546101aa906001600160a01b031681565b5f81116102b25760405162461bcd60e51b815260206004820152600e60248201526d043616e6e6f74207374616b6520360941b60448201526064015b60405180910390fd5b5f546040516370a0823160e01b815233600482015282916001600160a01b0316906370a0823190602401602060405180830381865afa1580156102f7573d5f5f3e3d5ffd5b505050506040513d601f19601f8201168201806040525081019061031b9190610d88565b10156103395760405162461bcd60e51b81526004016102a990610d9f565b5f546040516323b872dd60e01b8152336004820152306024820152604481018390526001600160a01b03909116906323b872dd906064016020604051808303815f875af115801561038c573d5f5f3e3d5ffd5b505050506040513d601f19601f820116820180604052508101906103b09190610de1565b50335f9081526002602052604090208054156103e35781815f015f8282546103d89190610e14565b909155506103ed9050565b8181554260018201555b5f600282015560405133907f66d612d12bb1902ec26fd9a4991d9d58d71d0580427497d62731e7527f1e01a4906104279085904290610e2d565b60405180910390a25050565b335f908152600360205260409020805461045f5760405162461bcd60e51b81526004016102a990610e65565b42600182018190556002820181905560405133917faf1e05ce41cdb4bdc4f23bff459f1b9173663f6a49fcf52898845f8d659068869161049f9190610e8d565b60405180910390a250565b6001546001600160a01b031633146104fe5760405162461bcd60e51b815260206004820152601760248201527621b0b63632b91034b9903737ba103a34329037bbb732b960491b60448201526064016102a9565b600455565b5f81116105435760405162461bcd60e51b815260206004820152600e60248201526d043616e6e6f74207374616b6520360941b60448201526064016102a9565b5f546040516370a0823160e01b815233600482015282916001600160a01b0316906370a0823190602401602060405180830381865afa158015610588573d5f5f3e3d5ffd5b505050506040513d601f19601f820116820180604052508101906105ac9190610d88565b10156105ca5760405162461bcd60e51b81526004016102a990610d9f565b5f546040516323b872dd60e01b8152336004820152306024820152604481018390526001600160a01b03909116906323b872dd906064016020604051808303815f875af115801561061d573d5f5f3e3d5ffd5b505050506040513d601f19601f820116820180604052508101906106419190610de1565b50335f9081526003602052604090208054156106745781815f015f8282546106699190610e14565b9091555061067e9050565b8181554260018201555b5f600282015560405133907f66d612d12bb1902ec26fd9a4991d9d58d71d0580427497d62731e7527f1e01a4906104279085904290610eb8565b335f90815260036020526040902080546106e45760405162461bcd60e51b81526004016102a990610e65565b5f81600201541161072e5760405162461bcd60e51b8152602060048201526014602482015273155b9b1bd8dac81b9bdd081c995c5d595cdd195960621b60448201526064016102a9565b6301e1338081600201546107429190610e14565b42101561078d5760405162461bcd60e51b8152602060048201526019602482015278155b9b1bd8dac81c195c9a5bd9081b9bdd081c995858da1959603a1b60448201526064016102a9565b5f670de0b6b3a7640000825f015460055484600101546301e1338086600201546107b79190610e14565b6107c19190610ee9565b6107cb9190610efc565b6107d59190610efc565b6107df9190610f13565b90505f81835f01546107f19190610e14565b5f5460405163a9059cbb60e01b8152336004820152602481018390529192506001600160a01b03169063a9059cbb906044016020604051808303815f875af115801561083f573d5f5f3e3d5ffd5b505050506040513d601f19601f820116820180604052508101906108639190610de1565b50335f818152600360205260408082208281556001810183905560020191909155845490517fd224ec5ad02946fe147952e6ad900ce0567e05d53bd64beb1b564a8c603d869c916108b5918690610eb8565b60405180910390a2505050565b6001546001600160a01b031633146109165760405162461bcd60e51b815260206004820152601760248201527621b0b63632b91034b9903737ba103a34329037bbb732b960491b60448201526064016102a9565b600555565b335f90815260026020526040902080546109475760405162461bcd60e51b81526004016102a990610e65565b42600182018190556002820181905560405133917faf1e05ce41cdb4bdc4f23bff459f1b9173663f6a49fcf52898845f8d659068869161049f9190610f32565b335f9081526002602052604081205415610a0c57335f9081526002602052604081208054600454600190920154670de0b6b3a764000092906109c99042610ee9565b6109d39190610efc565b6109dd9190610efc565b6109e79190610f13565b90506109f38183610e14565b335f908152600260205260409020426001909101559150505b335f9081526003602052604090205415610a9157335f9081526003602052604081208054600554600190920154670de0b6b3a76400009290610a4e9042610ee9565b610a589190610efc565b610a629190610efc565b610a6c9190610f13565b9050610a788183610e14565b335f908152600360205260409020426001909101559150505b5f8111610ae05760405162461bcd60e51b815260206004820152601760248201527f4e6f20696e74657265737420746f20776974686472617700000000000000000060448201526064016102a9565b5f5460405163a9059cbb60e01b8152336004820152602481018390526001600160a01b039091169063a9059cbb906044016020604051808303815f875af1158015610b2d573d5f5f3e3d5ffd5b505050506040513d601f19601f82011682018060405250810190610b519190610de1565b5050565b335f9081526002602052604090208054610b815760405162461bcd60e51b81526004016102a990610e65565b5f816002015411610bcb5760405162461bcd60e51b8152602060048201526014602482015273155b9b1bd8dac81b9bdd081c995c5d595cdd195960621b60448201526064016102a9565b62093a808160020154610bde9190610e14565b421015610c295760405162461bcd60e51b8152602060048201526019602482015278155b9b1bd8dac81c195c9a5bd9081b9bdd081c995858da1959603a1b60448201526064016102a9565b5f670de0b6b3a7640000825f015460045484600101548560020154610c4e9190610ee9565b610c589190610efc565b610c629190610efc565b610c6c9190610f13565b90505f81835f0154610c7e9190610e14565b5f5460405163a9059cbb60e01b8152336004820152602481018390529192506001600160a01b03169063a9059cbb906044016020604051808303815f875af1158015610ccc573d5f5f3e3d5ffd5b505050506040513d601f19601f82011682018060405250810190610cf09190610de1565b50335f8181526002602081905260408083208381556001810184905590910191909155845490517fd224ec5ad02946fe147952e6ad900ce0567e05d53bd64beb1b564a8c603d869c916108b5918690610e2d565b5f60208284031215610d54575f5ffd5b5035919050565b5f60208284031215610d6b575f5ffd5b81356001600160a01b0381168114610d81575f5ffd5b9392505050565b5f60208284031215610d98575f5ffd5b5051919050565b60208082526022908201527f496e73756666696369656e74207374616b696e6720746f6b656e2062616c616e604082015261636560f01b606082015260800190565b5f60208284031215610df1575f5ffd5b81518015158114610d81575f5ffd5b634e487b7160e01b5f52601160045260245ffd5b80820180821115610e2757610e27610e00565b92915050565b828152816020820152606060408201525f610e5d606083016005815264372d44617960d81b602082015260400190565b949350505050565b6020808252600e908201526d139bc81cdd185ad948199bdd5b9960921b604082015260600190565b818152604060208201525f610d816040830160068152651896acb2b0b960d11b602082015260400190565b828152816020820152606060408201525f610e5d6060830160068152651896acb2b0b960d11b602082015260400190565b81810381811115610e2757610e27610e00565b8082028115828204841417610e2757610e27610e00565b5f82610f2d57634e487b7160e01b5f52601260045260245ffd5b500490565b818152604060208201525f610d81604083016005815264372d44617960d81b60208201526040019056fea26469706673582212201099b49d698d66fc13020c92fe732e5a1c0539eea1cb7568ca6d5da0658de5ae64736f6c634300081b0033",
  "immutableReferences": {},
  "source": "// SPDX-License-Identifier: UNLICENSED\r\npragma solidity ^0.8.27;\r\n\r\nimport \"./MoonCatToken.sol\";\r\n\r\ncontract MoonCatStaking {\r\n    MoonCatToken public token;\r\n    address public owner;\r\n\r\n    struct Stake {\r\n        uint256 amount;\r\n        uint256 since;\r\n        uint256 unlockRequestTime;\r\n    }\r\n\r\n    mapping(address => Stake) public stakes7Days;\r\n    mapping(address => Stake) public stakes1Year;\r\n\r\n    uint256 public rewardRate7Days;\r\n    uint256 public rewardRate1Year;\r\n\r\n    uint256 public constant UNLOCK_PERIOD_7DAYS = 7 days;\r\n    uint256 public constant UNLOCK_PERIOD_1YEAR = 365 days;\r\n\r\n    event Staked(address indexed user, uint256 amount, uint256 since, string stakeType);\r\n    event UnlockRequested(address indexed user, uint256 unlockRequestTime, string stakeType);\r\n    event Unstaked(address indexed user, uint256 amount, uint256 reward, string stakeType);\r\n\r\n    modifier onlyOwner() {\r\n        require(msg.sender == owner, \"Caller is not the owner\");\r\n        _;\r\n    }\r\n\r\n    constructor(MoonCatToken _token) {\r\n        token = _token;\r\n        owner = msg.sender;\r\n        rewardRate7Days = 6.34E11;  // Set your initial reward rates\r\n        rewardRate1Year = 1.108E12; // Higher reward rate for 1-year lock\r\n    }\r\n\r\n    // Owner functions to update reward rates\r\n    function setRewardRate7Days(uint256 _newRate) public onlyOwner {\r\n        rewardRate7Days = _newRate;\r\n    }\r\n\r\n    function setRewardRate1Year(uint256 _newRate) public onlyOwner {\r\n        rewardRate1Year = _newRate;\r\n    }\r\n\r\n    // -------------------- 7-Day Staking Functions --------------------\r\n    function stake7Days(uint256 _amount) public {\r\n        require(_amount > 0, \"Cannot stake 0\");\r\n        require(token.balanceOf(msg.sender) >= _amount, \"Insufficient staking token balance\");\r\n\r\n        // Transfer staking tokens from user to contract\r\n        token.transferFrom(msg.sender, address(this), _amount);\r\n\r\n        Stake storage userStake = stakes7Days[msg.sender];\r\n\r\n        if (userStake.amount > 0) {\r\n            userStake.amount += _amount;\r\n        } else {\r\n            userStake.amount = _amount;\r\n            userStake.since = block.timestamp;\r\n        }\r\n        userStake.unlockRequestTime = 0;\r\n\r\n        emit Staked(msg.sender, _amount, block.timestamp, \"7-Day\");\r\n    }\r\n\r\n    function requestUnlock7Days() public {\r\n        Stake storage userStake = stakes7Days[msg.sender];\r\n        require(userStake.amount > 0, \"No stake found\");\r\n\r\n        userStake.since = block.timestamp; // Stop interest accumulation\r\n        userStake.unlockRequestTime = block.timestamp;\r\n\r\n        emit UnlockRequested(msg.sender, userStake.unlockRequestTime, \"7-Day\");\r\n    }\r\n\r\n    function unstake7Days() public {\r\n        Stake storage userStake = stakes7Days[msg.sender];\r\n        require(userStake.amount > 0, \"No stake found\");\r\n        require(userStake.unlockRequestTime > 0, \"Unlock not requested\");\r\n        require(block.timestamp >= userStake.unlockRequestTime + UNLOCK_PERIOD_7DAYS, \"Unlock period not reached\");\r\n\r\n        // Calculate reward\r\n        uint256 reward = (userStake.unlockRequestTime - userStake.since) * rewardRate7Days * userStake.amount / 1e18;\r\n        uint256 totalAmount = userStake.amount + reward;\r\n\r\n        // Transfer staking tokens back to the user\r\n        token.transfer(msg.sender, totalAmount);\r\n\r\n        delete stakes7Days[msg.sender];\r\n\r\n        emit Unstaked(msg.sender, userStake.amount, reward, \"7-Day\");\r\n    }\r\n\r\n    // -------------------- 1-Year Staking Functions --------------------\r\n    function stake1Year(uint256 _amount) public {\r\n        require(_amount > 0, \"Cannot stake 0\");\r\n        require(token.balanceOf(msg.sender) >= _amount, \"Insufficient staking token balance\");\r\n\r\n        token.transferFrom(msg.sender, address(this), _amount);\r\n\r\n        Stake storage userStake = stakes1Year[msg.sender];\r\n\r\n        if (userStake.amount > 0) {\r\n            userStake.amount += _amount;\r\n        } else {\r\n            userStake.amount = _amount;\r\n            userStake.since = block.timestamp;\r\n        }\r\n        userStake.unlockRequestTime = 0;\r\n\r\n        emit Staked(msg.sender, _amount, block.timestamp, \"1-Year\");\r\n    }\r\n\r\n    function requestUnlock1Year() public {\r\n        Stake storage userStake = stakes1Year[msg.sender];\r\n        require(userStake.amount > 0, \"No stake found\");\r\n\r\n        userStake.since = block.timestamp;\r\n        userStake.unlockRequestTime = block.timestamp;\r\n\r\n        emit UnlockRequested(msg.sender, userStake.unlockRequestTime, \"1-Year\");\r\n    }\r\n\r\n    function unstake1Year() public {\r\n        Stake storage userStake = stakes1Year[msg.sender];\r\n        require(userStake.amount > 0, \"No stake found\");\r\n        require(userStake.unlockRequestTime > 0, \"Unlock not requested\");\r\n        require(block.timestamp >= userStake.unlockRequestTime + UNLOCK_PERIOD_1YEAR, \"Unlock period not reached\");\r\n\r\n        uint256 reward = (userStake.unlockRequestTime + UNLOCK_PERIOD_1YEAR - userStake.since) * rewardRate1Year * userStake.amount / 1e18;\r\n        uint256 totalAmount = userStake.amount + reward;\r\n\r\n        token.transfer(msg.sender, totalAmount);\r\n\r\n        delete stakes1Year[msg.sender];\r\n\r\n        emit Unstaked(msg.sender, userStake.amount, reward, \"1-Year\");\r\n    }\r\n\r\n    // -------------------- Unified Interest Withdrawal --------------------\r\n    function withdrawAllInterest() public {\r\n        uint256 totalReward;\r\n\r\n        // Check for 7-day pool interest\r\n        if (stakes7Days[msg.sender].amount > 0) {\r\n            uint256 reward7Days = (block.timestamp - stakes7Days[msg.sender].since) * rewardRate7Days * stakes7Days[msg.sender].amount / 1e18;\r\n            totalReward += reward7Days;\r\n            stakes7Days[msg.sender].since = block.timestamp; // Reset staking time for 7-day pool\r\n        }\r\n\r\n        // Check for 1-year pool interest\r\n        if (stakes1Year[msg.sender].amount > 0) {\r\n            uint256 reward1Year = (block.timestamp - stakes1Year[msg.sender].since) * rewardRate1Year * stakes1Year[msg.sender].amount / 1e18;\r\n            totalReward += reward1Year;\r\n            stakes1Year[msg.sender].since = block.timestamp; // Reset staking time for 1-year pool\r\n        }\r\n\r\n        require(totalReward > 0, \"No interest to withdraw\");\r\n        token.transfer(msg.sender, totalReward);\r\n    }\r\n}\r\n",
  "sourcePath": "C:\\MooncatAI\\Github\\mooncat_ai\\contracts\\MoonCatStaking.sol",
  "compiler": {
    "name": "solc",
    "version": "0.8.27+commit.40a35a09.Emscripten.clang"
  },
  "schemaVersion": "3.4.16",
  "updatedAt": "2024-09-28T07:32:24.600Z",
  "networkType": "ethereum",
  "devdoc": {
    "kind": "dev",
    "methods": {},
    "version": 1
  },
  "userdoc": {
    "kind": "user",
    "methods": {},
    "version": 1
  }
}