{
  "contractName": "MoontestToken",
  "abi": [
    {
      "inputs": [
        {
          "internalType": "string",
          "name": "_name",
          "type": "string"
        },
        {
          "internalType": "string",
          "name": "_symbol",
          "type": "string"
        },
        {
          "internalType": "uint256",
          "name": "_initialSupply",
          "type": "uint256"
        }
      ],
      "stateMutability": "nonpayable",
      "type": "constructor"
    },
    {
      "anonymous": false,
      "inputs": [
        {
          "indexed": true,
          "internalType": "address",
          "name": "owner",
          "type": "address"
        },
        {
          "indexed": true,
          "internalType": "address",
          "name": "spender",
          "type": "address"
        },
        {
          "indexed": false,
          "internalType": "uint256",
          "name": "value",
          "type": "uint256"
        }
      ],
      "name": "Approval",
      "type": "event"
    },
    {
      "anonymous": false,
      "inputs": [
        {
          "indexed": false,
          "internalType": "string",
          "name": "name",
          "type": "string"
        },
        {
          "indexed": false,
          "internalType": "string",
          "name": "symbol",
          "type": "string"
        },
        {
          "indexed": false,
          "internalType": "uint256",
          "name": "initialSupply",
          "type": "uint256"
        }
      ],
      "name": "ConstructorParams",
      "type": "event"
    },
    {
      "anonymous": false,
      "inputs": [
        {
          "indexed": true,
          "internalType": "address",
          "name": "from",
          "type": "address"
        },
        {
          "indexed": true,
          "internalType": "address",
          "name": "to",
          "type": "address"
        },
        {
          "indexed": false,
          "internalType": "uint256",
          "name": "value",
          "type": "uint256"
        }
      ],
      "name": "Transfer",
      "type": "event"
    },
    {
      "inputs": [
        {
          "internalType": "address",
          "name": "",
          "type": "address"
        },
        {
          "internalType": "address",
          "name": "",
          "type": "address"
        }
      ],
      "name": "allowance",
      "outputs": [
        {
          "internalType": "uint256",
          "name": "",
          "type": "uint256"
        }
      ],
      "stateMutability": "view",
      "type": "function",
      "constant": true
    },
    {
      "inputs": [
        {
          "internalType": "address",
          "name": "",
          "type": "address"
        }
      ],
      "name": "balanceOf",
      "outputs": [
        {
          "internalType": "uint256",
          "name": "",
          "type": "uint256"
        }
      ],
      "stateMutability": "view",
      "type": "function",
      "constant": true
    },
    {
      "inputs": [],
      "name": "decimals",
      "outputs": [
        {
          "internalType": "uint8",
          "name": "",
          "type": "uint8"
        }
      ],
      "stateMutability": "view",
      "type": "function",
      "constant": true
    },
    {
      "inputs": [],
      "name": "name",
      "outputs": [
        {
          "internalType": "string",
          "name": "",
          "type": "string"
        }
      ],
      "stateMutability": "view",
      "type": "function",
      "constant": true
    },
    {
      "inputs": [],
      "name": "symbol",
      "outputs": [
        {
          "internalType": "string",
          "name": "",
          "type": "string"
        }
      ],
      "stateMutability": "view",
      "type": "function",
      "constant": true
    },
    {
      "inputs": [],
      "name": "totalSupply",
      "outputs": [
        {
          "internalType": "uint256",
          "name": "",
          "type": "uint256"
        }
      ],
      "stateMutability": "view",
      "type": "function",
      "constant": true
    },
    {
      "inputs": [
        {
          "internalType": "address",
          "name": "_to",
          "type": "address"
        },
        {
          "internalType": "uint256",
          "name": "_value",
          "type": "uint256"
        }
      ],
      "name": "transfer",
      "outputs": [
        {
          "internalType": "bool",
          "name": "success",
          "type": "bool"
        }
      ],
      "stateMutability": "nonpayable",
      "type": "function"
    },
    {
      "inputs": [
        {
          "internalType": "address",
          "name": "_spender",
          "type": "address"
        },
        {
          "internalType": "uint256",
          "name": "_value",
          "type": "uint256"
        }
      ],
      "name": "approve",
      "outputs": [
        {
          "internalType": "bool",
          "name": "success",
          "type": "bool"
        }
      ],
      "stateMutability": "nonpayable",
      "type": "function"
    },
    {
      "inputs": [
        {
          "internalType": "address",
          "name": "_from",
          "type": "address"
        },
        {
          "internalType": "address",
          "name": "_to",
          "type": "address"
        },
        {
          "internalType": "uint256",
          "name": "_value",
          "type": "uint256"
        }
      ],
      "name": "transferFrom",
      "outputs": [
        {
          "internalType": "bool",
          "name": "success",
          "type": "bool"
        }
      ],
      "stateMutability": "nonpayable",
      "type": "function"
    },
    {
      "inputs": [
        {
          "internalType": "uint256",
          "name": "_value",
          "type": "uint256"
        }
      ],
      "name": "burn",
      "outputs": [
        {
          "internalType": "bool",
          "name": "success",
          "type": "bool"
        }
      ],
      "stateMutability": "nonpayable",
      "type": "function"
    }
  ],
  "bytecode": "0x60806040526002805460ff191660121790553480156200001e57600080fd5b5060405162000d9138038062000d91833981016040819052620000419162000244565b60008111620000a75760405162461bcd60e51b815260206004820152602860248201527f496e697469616c20737570706c79206d7573742062652067726561746572207460448201526768616e207a65726f60c01b606482015260840160405180910390fd5b7fcba4e7d65d417006a9c5169536f17b995cc389a01daacf76926ff979031bab49838383604051620000dc93929190620002e5565b60405180910390a16000620000f28482620003ae565b506001620001018382620003ae565b50600254620001159060ff16600a6200058f565b620001219082620005a4565b600381905533600081815260046020908152604080832085905551938452919290917fddf252ad1be2c89b69c2b068fc378daa952ba7f163c4a11628f55a4df523b3ef910160405180910390a3505050620005be565b634e487b7160e01b600052604160045260246000fd5b60005b83811015620001aa57818101518382015260200162000190565b50506000910152565b600082601f830112620001c557600080fd5b81516001600160401b0380821115620001e257620001e262000177565b604051601f8301601f19908116603f011681019082821181831017156200020d576200020d62000177565b816040528381528660208588010111156200022757600080fd5b6200023a8460208301602089016200018d565b9695505050505050565b6000806000606084860312156200025a57600080fd5b83516001600160401b03808211156200027257600080fd5b6200028087838801620001b3565b945060208601519150808211156200029757600080fd5b50620002a686828701620001b3565b925050604084015190509250925092565b60008151808452620002d18160208601602086016200018d565b601f01601f19169290920160200192915050565b606081526000620002fa6060830186620002b7565b82810360208401526200030e8186620002b7565b915050826040830152949350505050565b600181811c908216806200033457607f821691505b6020821081036200035557634e487b7160e01b600052602260045260246000fd5b50919050565b601f821115620003a957600081815260208120601f850160051c81016020861015620003845750805b601f850160051c820191505b81811015620003a55782815560010162000390565b5050505b505050565b81516001600160401b03811115620003ca57620003ca62000177565b620003e281620003db84546200031f565b846200035b565b602080601f8311600181146200041a5760008415620004015750858301515b600019600386901b1c1916600185901b178555620003a5565b600085815260208120601f198616915b828110156200044b578886015182559484019460019091019084016200042a565b50858210156200046a5787850151600019600388901b60f8161c191681555b5050505050600190811b01905550565b634e487b7160e01b600052601160045260246000fd5b600181815b80851115620004d1578160001904821115620004b557620004b56200047a565b80851615620004c357918102915b93841c939080029062000495565b509250929050565b600082620004ea5750600162000589565b81620004f95750600062000589565b81600181146200051257600281146200051d576200053d565b600191505062000589565b60ff8411156200053157620005316200047a565b50506001821b62000589565b5060208310610133831016604e8410600b841016171562000562575081810a62000589565b6200056e838362000490565b80600019048211156200058557620005856200047a565b0290505b92915050565b60006200059d8383620004d9565b9392505050565b80820281158282048414176200058957620005896200047a565b6107c380620005ce6000396000f3fe608060405234801561001057600080fd5b506004361061009e5760003560e01c806342966c681161006657806342966c681461012d57806370a082311461014057806395d89b4114610160578063a9059cbb14610168578063dd62ed3e1461017b57600080fd5b806306fdde03146100a3578063095ea7b3146100c157806318160ddd146100e457806323b872dd146100fb578063313ce5671461010e575b600080fd5b6100ab6101a6565b6040516100b891906105ab565b60405180910390f35b6100d46100cf366004610615565b610234565b60405190151581526020016100b8565b6100ed60035481565b6040519081526020016100b8565b6100d461010936600461063f565b6102a1565b60025461011b9060ff1681565b60405160ff90911681526020016100b8565b6100d461013b36600461067b565b610435565b6100ed61014e366004610694565b60046020526000908152604090205481565b6100ab6104e1565b6100d4610176366004610615565b6104ee565b6100ed6101893660046106b6565b600560209081526000928352604080842090915290825290205481565b600080546101b3906106e9565b80601f01602080910402602001604051908101604052809291908181526020018280546101df906106e9565b801561022c5780601f106102015761010080835404028352916020019161022c565b820191906000526020600020905b81548152906001019060200180831161020f57829003601f168201915b505050505081565b3360008181526005602090815260408083206001600160a01b038716808552925280832085905551919290917f8c5be1e5ebec7d5bd14f71427d1e84f3dd0314c0f7b2291e5b200ac8c7c3b9259061028f9086815260200190565b60405180910390a35060015b92915050565b6001600160a01b0383166000908152600460205260408120548211156102e25760405162461bcd60e51b81526004016102d990610723565b60405180910390fd5b6001600160a01b038416600090815260056020908152604080832033845290915290205482111561034a5760405162461bcd60e51b8152602060048201526012602482015271105b1b1bddd85b98d948195e18d95959195960721b60448201526064016102d9565b6001600160a01b03841660009081526004602052604081208054849290610372908490610767565b90915550506001600160a01b0383166000908152600460205260408120805484929061039f90849061077a565b90915550506001600160a01b0384166000908152600560209081526040808320338452909152812080548492906103d7908490610767565b92505081905550826001600160a01b0316846001600160a01b03167fddf252ad1be2c89b69c2b068fc378daa952ba7f163c4a11628f55a4df523b3ef8460405161042391815260200190565b60405180910390a35060019392505050565b336000908152600460205260408120548211156104645760405162461bcd60e51b81526004016102d990610723565b3360009081526004602052604081208054849290610483908490610767565b92505081905550816003600082825461049c9190610767565b909155505060405182815260009033907fddf252ad1be2c89b69c2b068fc378daa952ba7f163c4a11628f55a4df523b3ef9060200160405180910390a3506001919050565b600180546101b3906106e9565b3360009081526004602052604081205482111561051d5760405162461bcd60e51b81526004016102d990610723565b336000908152600460205260408120805484929061053c908490610767565b90915550506001600160a01b0383166000908152600460205260408120805484929061056990849061077a565b90915550506040518281526001600160a01b0384169033907fddf252ad1be2c89b69c2b068fc378daa952ba7f163c4a11628f55a4df523b3ef9060200161028f565b600060208083528351808285015260005b818110156105d8578581018301518582016040015282016105bc565b506000604082860101526040601f19601f8301168501019250505092915050565b80356001600160a01b038116811461061057600080fd5b919050565b6000806040838503121561062857600080fd5b610631836105f9565b946020939093013593505050565b60008060006060848603121561065457600080fd5b61065d846105f9565b925061066b602085016105f9565b9150604084013590509250925092565b60006020828403121561068d57600080fd5b5035919050565b6000602082840312156106a657600080fd5b6106af826105f9565b9392505050565b600080604083850312156106c957600080fd5b6106d2836105f9565b91506106e0602084016105f9565b90509250929050565b600181811c908216806106fd57607f821691505b60208210810361071d57634e487b7160e01b600052602260045260246000fd5b50919050565b602080825260149082015273496e73756666696369656e742062616c616e636560601b604082015260600190565b634e487b7160e01b600052601160045260246000fd5b8181038181111561029b5761029b610751565b8082018082111561029b5761029b61075156fea2646970667358221220ede7ae8461e72d4c54b8c20aac13dfe418b6a77ea2c79638a324d15784ad41f464736f6c63430008130033",
  "immutableReferences": {},
  "source": "// SPDX-License-Identifier: UNLICENSED\r\npragma solidity ^0.8.19;\r\n\r\ncontract MoontestToken {\r\n    string public name;\r\n    string public symbol;\r\n    uint8 public decimals = 18;\r\n    uint256 public totalSupply;\r\n\r\n    mapping(address => uint256) public balanceOf;\r\n    mapping(address => mapping(address => uint256)) public allowance;\r\n\r\n    event Transfer(address indexed from, address indexed to, uint256 value);\r\n    event Approval(address indexed owner, address indexed spender, uint256 value);\r\n    event ConstructorParams(string name, string symbol, uint256 initialSupply);\r\n\r\n    constructor(string memory _name, string memory _symbol, uint256 _initialSupply) {\r\n        require(_initialSupply > 0, \"Initial supply must be greater than zero\");\r\n        \r\n        emit ConstructorParams(_name, _symbol, _initialSupply);\r\n        name = _name;\r\n        symbol = _symbol;\r\n        totalSupply = _initialSupply * (10 ** uint256(decimals));\r\n        balanceOf[msg.sender] = totalSupply;\r\n        emit Transfer(address(0), msg.sender, totalSupply);\r\n    }\r\n\r\n    function transfer(address _to, uint256 _value) public returns (bool success) {\r\n        require(balanceOf[msg.sender] >= _value, \"Insufficient balance\");\r\n        balanceOf[msg.sender] -= _value;\r\n        balanceOf[_to] += _value;\r\n        emit Transfer(msg.sender, _to, _value);\r\n        return true;\r\n    }\r\n\r\n    function approve(address _spender, uint256 _value) public returns (bool success) {\r\n        allowance[msg.sender][_spender] = _value;\r\n        emit Approval(msg.sender, _spender, _value);\r\n        return true;\r\n    }\r\n\r\n    function transferFrom(address _from, address _to, uint256 _value) public returns (bool success) {\r\n        require(_value <= balanceOf[_from], \"Insufficient balance\");\r\n        require(_value <= allowance[_from][msg.sender], \"Allowance exceeded\");\r\n        balanceOf[_from] -= _value;\r\n        balanceOf[_to] += _value;\r\n        allowance[_from][msg.sender] -= _value;\r\n        emit Transfer(_from, _to, _value);\r\n        return true;\r\n    }\r\n\r\n    function burn(uint256 _value) public returns (bool success) {\r\n        require(balanceOf[msg.sender] >= _value, \"Insufficient balance\");\r\n        balanceOf[msg.sender] -= _value;\r\n        totalSupply -= _value;\r\n        emit Transfer(msg.sender, address(0), _value);\r\n        return true;\r\n    }\r\n}\r\n",
  "sourcePath": "C:\\Git Local\\mooncat_ai\\contracts\\moontesttoken.sol",
  "compiler": {
    "name": "solc",
    "version": "0.8.19+commit.7dd6d404.Emscripten.clang"
  },
  "schemaVersion": "3.4.16",
  "updatedAt": "2024-07-21T02:11:40.692Z",
  "networkType": "ethereum",
  "devdoc": {
    "kind": "dev",
    "methods": {},
    "version": 1
  },
  "userdoc": {
    "kind": "user",
    "methods": {},
    "version": 1
  }
}