{
  "contractName": "Staking",
  "abi": [
    {
      "inputs": [
        {
          "internalType": "contract MoontestToken",
          "name": "_token",
          "type": "address"
        }
      ],
      "stateMutability": "nonpayable",
      "type": "constructor"
    },
    {
      "anonymous": false,
      "inputs": [
        {
          "indexed": true,
          "internalType": "address",
          "name": "user",
          "type": "address"
        },
        {
          "indexed": false,
          "internalType": "uint256",
          "name": "amount",
          "type": "uint256"
        },
        {
          "indexed": false,
          "internalType": "uint256",
          "name": "since",
          "type": "uint256"
        }
      ],
      "name": "Staked",
      "type": "event"
    },
    {
      "anonymous": false,
      "inputs": [
        {
          "indexed": true,
          "internalType": "address",
          "name": "user",
          "type": "address"
        },
        {
          "indexed": false,
          "internalType": "uint256",
          "name": "unlockRequestTime",
          "type": "uint256"
        }
      ],
      "name": "UnlockRequested",
      "type": "event"
    },
    {
      "anonymous": false,
      "inputs": [
        {
          "indexed": true,
          "internalType": "address",
          "name": "user",
          "type": "address"
        },
        {
          "indexed": false,
          "internalType": "uint256",
          "name": "amount",
          "type": "uint256"
        },
        {
          "indexed": false,
          "internalType": "uint256",
          "name": "reward",
          "type": "uint256"
        }
      ],
      "name": "Unstaked",
      "type": "event"
    },
    {
      "inputs": [],
      "name": "UNLOCK_PERIOD",
      "outputs": [
        {
          "internalType": "uint256",
          "name": "",
          "type": "uint256"
        }
      ],
      "stateMutability": "view",
      "type": "function",
      "constant": true
    },
    {
      "inputs": [],
      "name": "rewardRate",
      "outputs": [
        {
          "internalType": "uint256",
          "name": "",
          "type": "uint256"
        }
      ],
      "stateMutability": "view",
      "type": "function",
      "constant": true
    },
    {
      "inputs": [
        {
          "internalType": "address",
          "name": "",
          "type": "address"
        }
      ],
      "name": "stakes",
      "outputs": [
        {
          "internalType": "uint256",
          "name": "amount",
          "type": "uint256"
        },
        {
          "internalType": "uint256",
          "name": "since",
          "type": "uint256"
        },
        {
          "internalType": "uint256",
          "name": "unlockRequestTime",
          "type": "uint256"
        }
      ],
      "stateMutability": "view",
      "type": "function",
      "constant": true
    },
    {
      "inputs": [],
      "name": "token",
      "outputs": [
        {
          "internalType": "contract MoontestToken",
          "name": "",
          "type": "address"
        }
      ],
      "stateMutability": "view",
      "type": "function",
      "constant": true
    },
    {
      "inputs": [
        {
          "internalType": "uint256",
          "name": "_amount",
          "type": "uint256"
        }
      ],
      "name": "stake",
      "outputs": [],
      "stateMutability": "nonpayable",
      "type": "function"
    },
    {
      "inputs": [],
      "name": "requestUnlock",
      "outputs": [],
      "stateMutability": "nonpayable",
      "type": "function"
    },
    {
      "inputs": [],
      "name": "unstake",
      "outputs": [],
      "stateMutability": "nonpayable",
      "type": "function"
    }
  ],
  "bytecode": "0x608060405234801561001057600080fd5b5060405161074838038061074883398101604081905261002f9161005e565b600080546001600160a01b0319166001600160a01b03929092169190911790556508a6af61900060025561008e565b60006020828403121561007057600080fd5b81516001600160a01b038116811461008757600080fd5b9392505050565b6106ab8061009d6000396000f3fe608060405234801561001057600080fd5b506004361061007d5760003560e01c806356e19a2c1161005b57806356e19a2c146100f25780637b0a47ee146100fa578063a694fc3a14610103578063fc0c546a1461011657600080fd5b806316934fc414610082578063259a28cf146100d05780632def6620146100e8575b600080fd5b6100b061009036600461058f565b600160208190526000918252604090912080549181015460029091015483565b604080519384526020840192909252908201526060015b60405180910390f35b6100da62093a8081565b6040519081526020016100c7565b6100f0610141565b005b6100f061038e565b6100da60025481565b6100f06101113660046105bf565b61041d565b600054610129906001600160a01b031681565b6040516001600160a01b0390911681526020016100c7565b3360009081526001602081815260409283902083516060810185528154808252938201549281019290925260020154928101929092526101b95760405162461bcd60e51b815260206004820152600e60248201526d139bc81cdd185ad948199bdd5b9960921b60448201526064015b60405180910390fd5b62093a8081604001516101cc91906105ee565b42101561021b5760405162461bcd60e51b815260206004820152601960248201527f556e6c6f636b20706572696f64206e6f7420726561636865640000000000000060448201526064016101b0565b6000670de0b6b3a7640000826000015160025484602001514261023e9190610607565b610248919061061a565b610252919061061a565b61025c9190610631565b60005483519192506001600160a01b03169063a9059cbb9033906102819085906105ee565b6040516001600160e01b031960e085901b1681526001600160a01b03909216600483015260248201526044016020604051808303816000875af11580156102cc573d6000803e3d6000fd5b505050506040513d601f19601f820116820180604052508101906102f09190610653565b61032e5760405162461bcd60e51b815260206004820152600f60248201526e151c985b9cd9995c8819985a5b1959608a1b60448201526064016101b0565b336000818152600160208181526040808420848155928301849055600290920192909255845181519081529182018490527f7fc4727e062e336010f2c282598ef5f14facb3de68cf8195c2f23e1454b2b74e910160405180910390a25050565b33600090815260016020526040902080546103dc5760405162461bcd60e51b815260206004820152600e60248201526d139bc81cdd185ad948199bdd5b9960921b60448201526064016101b0565b426002820181905560405190815233907fd843ce9ef55b27026be6c5e44e9f58097e0ebfa0d9d2d5823cb8ffa779585170906020015b60405180910390a250565b6000811161045e5760405162461bcd60e51b815260206004820152600e60248201526d043616e6e6f74207374616b6520360941b60448201526064016101b0565b6000546040516323b872dd60e01b8152336004820152306024820152604481018390526001600160a01b03909116906323b872dd906064016020604051808303816000875af11580156104b5573d6000803e3d6000fd5b505050506040513d601f19601f820116820180604052508101906104d99190610653565b6105175760405162461bcd60e51b815260206004820152600f60248201526e151c985b9cd9995c8819985a5b1959608a1b60448201526064016101b0565b60408051606081018252828152426020808301828152600084860181815233808352600180865292889020965187559251918601919091555160029094019390935583518581529081019190915290917f1449c6dd7851abc30abf37f57715f492010519147cc2652fbc38202c18a6ee909101610412565b6000602082840312156105a157600080fd5b81356001600160a01b03811681146105b857600080fd5b9392505050565b6000602082840312156105d157600080fd5b5035919050565b634e487b7160e01b600052601160045260246000fd5b80820180821115610601576106016105d8565b92915050565b81810381811115610601576106016105d8565b8082028115828204841417610601576106016105d8565b60008261064e57634e487b7160e01b600052601260045260246000fd5b500490565b60006020828403121561066557600080fd5b815180151581146105b857600080fdfea2646970667358221220dd741769f2aabc5d7424e4b10089bf0c7bf45cb794eee3df2d4f6ba402bba7e364736f6c63430008130033",
  "immutableReferences": {},
  "source": "// SPDX-License-Identifier: UNLICENSED\r\npragma solidity ^0.8.19;\r\n\r\nimport \"./moontesttoken.sol\";\r\n\r\ncontract Staking {\r\n    MoontestToken public token;\r\n\r\n    struct Stake {\r\n        uint256 amount;\r\n        uint256 since;\r\n        uint256 unlockRequestTime;\r\n    }\r\n\r\n    mapping(address => Stake) public stakes;\r\n    uint256 public rewardRate;\r\n\r\n    uint256 public constant UNLOCK_PERIOD = 7 days;\r\n\r\n    event Staked(address indexed user, uint256 amount, uint256 since);\r\n    event UnlockRequested(address indexed user, uint256 unlockRequestTime);\r\n    event Unstaked(address indexed user, uint256 amount, uint256 reward);\r\n\r\n    constructor(MoontestToken _token) {\r\n        token = _token;\r\n        rewardRate = 9.512E12;\r\n    }\r\n\r\n    function stake(uint256 _amount) public {\r\n        require(_amount > 0, \"Cannot stake 0\");\r\n        require(token.transferFrom(msg.sender, address(this), _amount), \"Transfer failed\");\r\n\r\n        stakes[msg.sender] = Stake(_amount, block.timestamp, 0);\r\n        emit Staked(msg.sender, _amount, block.timestamp);\r\n    }\r\n\r\n    function requestUnlock() public {\r\n        Stake storage userStake = stakes[msg.sender];\r\n        require(userStake.amount > 0, \"No stake found\");\r\n\r\n        userStake.unlockRequestTime = block.timestamp;\r\n        emit UnlockRequested(msg.sender, userStake.unlockRequestTime);\r\n    }\r\n\r\n    function unstake() public {\r\n        Stake memory userStake = stakes[msg.sender];\r\n        require(userStake.amount > 0, \"No stake found\");\r\n        require(block.timestamp >= userStake.unlockRequestTime + UNLOCK_PERIOD, \"Unlock period not reached\");\r\n\r\n        uint256 reward = (block.timestamp - userStake.since) * rewardRate * userStake.amount / 1e18;\r\n        require(token.transfer(msg.sender, userStake.amount + reward), \"Transfer failed\");\r\n\r\n        delete stakes[msg.sender];\r\n        emit Unstaked(msg.sender, userStake.amount, reward);\r\n    }\r\n}\r\n",
  "sourcePath": "C:\\Git Local\\mooncat_ai\\contracts\\staking.sol",
  "compiler": {
    "name": "solc",
    "version": "0.8.19+commit.7dd6d404.Emscripten.clang"
  },
  "schemaVersion": "3.4.16",
  "updatedAt": "2024-08-25T07:09:16.909Z",
  "networkType": "ethereum",
  "devdoc": {
    "kind": "dev",
    "methods": {},
    "version": 1
  },
  "userdoc": {
    "kind": "user",
    "methods": {},
    "version": 1
  }
}