{
  "contractName": "Staking",
  "abi": [
    {
      "inputs": [
        {
          "internalType": "contract MoonCatToken",
          "name": "_token",
          "type": "address"
        }
      ],
      "stateMutability": "nonpayable",
      "type": "constructor"
    },
    {
      "inputs": [
        {
          "internalType": "address",
          "name": "owner",
          "type": "address"
        }
      ],
      "name": "OwnableInvalidOwner",
      "type": "error"
    },
    {
      "inputs": [
        {
          "internalType": "address",
          "name": "account",
          "type": "address"
        }
      ],
      "name": "OwnableUnauthorizedAccount",
      "type": "error"
    },
    {
      "anonymous": false,
      "inputs": [
        {
          "indexed": true,
          "internalType": "address",
          "name": "previousOwner",
          "type": "address"
        },
        {
          "indexed": true,
          "internalType": "address",
          "name": "newOwner",
          "type": "address"
        }
      ],
      "name": "OwnershipTransferred",
      "type": "event"
    },
    {
      "anonymous": false,
      "inputs": [
        {
          "indexed": true,
          "internalType": "address",
          "name": "user",
          "type": "address"
        },
        {
          "indexed": false,
          "internalType": "uint256",
          "name": "amount",
          "type": "uint256"
        },
        {
          "indexed": false,
          "internalType": "uint256",
          "name": "since",
          "type": "uint256"
        },
        {
          "indexed": false,
          "internalType": "string",
          "name": "stakeType",
          "type": "string"
        }
      ],
      "name": "Staked",
      "type": "event"
    },
    {
      "anonymous": false,
      "inputs": [
        {
          "indexed": true,
          "internalType": "address",
          "name": "user",
          "type": "address"
        },
        {
          "indexed": false,
          "internalType": "uint256",
          "name": "unlockRequestTime",
          "type": "uint256"
        },
        {
          "indexed": false,
          "internalType": "string",
          "name": "stakeType",
          "type": "string"
        }
      ],
      "name": "UnlockRequested",
      "type": "event"
    },
    {
      "anonymous": false,
      "inputs": [
        {
          "indexed": true,
          "internalType": "address",
          "name": "user",
          "type": "address"
        },
        {
          "indexed": false,
          "internalType": "uint256",
          "name": "amount",
          "type": "uint256"
        },
        {
          "indexed": false,
          "internalType": "uint256",
          "name": "reward",
          "type": "uint256"
        },
        {
          "indexed": false,
          "internalType": "string",
          "name": "stakeType",
          "type": "string"
        }
      ],
      "name": "Unstaked",
      "type": "event"
    },
    {
      "inputs": [],
      "name": "UNLOCK_PERIOD_1YEAR",
      "outputs": [
        {
          "internalType": "uint256",
          "name": "",
          "type": "uint256"
        }
      ],
      "stateMutability": "view",
      "type": "function"
    },
    {
      "inputs": [],
      "name": "UNLOCK_PERIOD_7DAYS",
      "outputs": [
        {
          "internalType": "uint256",
          "name": "",
          "type": "uint256"
        }
      ],
      "stateMutability": "view",
      "type": "function"
    },
    {
      "inputs": [],
      "name": "owner",
      "outputs": [
        {
          "internalType": "address",
          "name": "",
          "type": "address"
        }
      ],
      "stateMutability": "view",
      "type": "function"
    },
    {
      "inputs": [],
      "name": "renounceOwnership",
      "outputs": [],
      "stateMutability": "nonpayable",
      "type": "function"
    },
    {
      "inputs": [],
      "name": "rewardRate1Year",
      "outputs": [
        {
          "internalType": "uint256",
          "name": "",
          "type": "uint256"
        }
      ],
      "stateMutability": "view",
      "type": "function"
    },
    {
      "inputs": [],
      "name": "rewardRate7Days",
      "outputs": [
        {
          "internalType": "uint256",
          "name": "",
          "type": "uint256"
        }
      ],
      "stateMutability": "view",
      "type": "function"
    },
    {
      "inputs": [
        {
          "internalType": "address",
          "name": "",
          "type": "address"
        }
      ],
      "name": "stakes1Year",
      "outputs": [
        {
          "internalType": "uint256",
          "name": "amount",
          "type": "uint256"
        },
        {
          "internalType": "uint256",
          "name": "since",
          "type": "uint256"
        },
        {
          "internalType": "uint256",
          "name": "unlockRequestTime",
          "type": "uint256"
        }
      ],
      "stateMutability": "view",
      "type": "function"
    },
    {
      "inputs": [
        {
          "internalType": "address",
          "name": "",
          "type": "address"
        }
      ],
      "name": "stakes7Days",
      "outputs": [
        {
          "internalType": "uint256",
          "name": "amount",
          "type": "uint256"
        },
        {
          "internalType": "uint256",
          "name": "since",
          "type": "uint256"
        },
        {
          "internalType": "uint256",
          "name": "unlockRequestTime",
          "type": "uint256"
        }
      ],
      "stateMutability": "view",
      "type": "function"
    },
    {
      "inputs": [],
      "name": "token",
      "outputs": [
        {
          "internalType": "contract MoonCatToken",
          "name": "",
          "type": "address"
        }
      ],
      "stateMutability": "view",
      "type": "function"
    },
    {
      "inputs": [
        {
          "internalType": "address",
          "name": "newOwner",
          "type": "address"
        }
      ],
      "name": "transferOwnership",
      "outputs": [],
      "stateMutability": "nonpayable",
      "type": "function"
    },
    {
      "inputs": [
        {
          "internalType": "uint256",
          "name": "_newRate",
          "type": "uint256"
        }
      ],
      "name": "setRewardRate7Days",
      "outputs": [],
      "stateMutability": "nonpayable",
      "type": "function"
    },
    {
      "inputs": [
        {
          "internalType": "uint256",
          "name": "_newRate",
          "type": "uint256"
        }
      ],
      "name": "setRewardRate1Year",
      "outputs": [],
      "stateMutability": "nonpayable",
      "type": "function"
    },
    {
      "inputs": [
        {
          "internalType": "uint256",
          "name": "_amount",
          "type": "uint256"
        }
      ],
      "name": "stake7Days",
      "outputs": [],
      "stateMutability": "nonpayable",
      "type": "function"
    },
    {
      "inputs": [],
      "name": "requestUnlock7Days",
      "outputs": [],
      "stateMutability": "nonpayable",
      "type": "function"
    },
    {
      "inputs": [],
      "name": "unstake7Days",
      "outputs": [],
      "stateMutability": "nonpayable",
      "type": "function"
    },
    {
      "inputs": [],
      "name": "withdrawInterest7Days",
      "outputs": [],
      "stateMutability": "nonpayable",
      "type": "function"
    },
    {
      "inputs": [
        {
          "internalType": "uint256",
          "name": "_amount",
          "type": "uint256"
        }
      ],
      "name": "stake1Year",
      "outputs": [],
      "stateMutability": "nonpayable",
      "type": "function"
    },
    {
      "inputs": [],
      "name": "requestUnlock1Year",
      "outputs": [],
      "stateMutability": "nonpayable",
      "type": "function"
    },
    {
      "inputs": [],
      "name": "unstake1Year",
      "outputs": [],
      "stateMutability": "nonpayable",
      "type": "function"
    },
    {
      "inputs": [],
      "name": "withdrawInterest1Year",
      "outputs": [],
      "stateMutability": "nonpayable",
      "type": "function"
    }
  ],
  "bytecode": "0x608060405234801561000f575f80fd5b506040516110e13803806110e183398101604081905261002e916100e6565b338061005357604051631e4fbdf760e01b81525f600482015260240160405180910390fd5b61005c81610097565b50600180546001600160a01b0319166001600160a01b03929092169190911790556508a6af61900060045566013e52b9abe000600555610113565b5f80546001600160a01b038381166001600160a01b0319831681178455604051919092169283917f8be0079c531659141344cd1fd0a4f28419497f9722a3daafe3b4186f6b6457e09190a35050565b5f602082840312156100f6575f80fd5b81516001600160a01b038116811461010c575f80fd5b9392505050565b610fc1806101205f395ff3fe608060405234801561000f575f80fd5b5060043610610127575f3560e01c806378a95e07116100a9578063cda01fc31161006e578063cda01fc314610207578063dd847c881461020f578063f2fde38b14610258578063fb30eba81461026b578063fc0c546a14610298575f80fd5b806378a95e07146101b357806386c39df4146101bd5780638da5cb5b146101d0578063ba3f1b59146101f4578063c541f839146101fc575f80fd5b80634cdcc9f1116100ef5780634cdcc9f11461017f578063546c10181461019257806364f479331461019a5780636abcc092146101a2578063715018a6146101ab575f80fd5b80630f544ac71461012b5780631532d0ba1461014057806329da3d93146101485780633e47e5c21461015b57806349730fc114610163575b5f80fd5b61013e610139366004610d51565b6102ab565b005b61013e610406565b61013e610156366004610d51565b61047d565b61013e61048a565b61016c60045481565b6040519081526020015b60405180910390f35b61013e61018d366004610d51565b610632565b61013e61077c565b61013e6107eb565b61016c60055481565b61013e610a02565b61016c62093a8081565b61013e6101cb366004610d51565b610a15565b5f546001600160a01b03165b6040516001600160a01b039091168152602001610176565b61013e610a22565b61016c6301e1338081565b61013e610a8e565b61023d61021d366004610d68565b60036020525f908152604090208054600182015460029092015490919083565b60408051938452602084019290925290820152606001610176565b61013e610266366004610d68565b610c99565b61023d610279366004610d68565b600260208190525f918252604090912080546001820154919092015483565b6001546101dc906001600160a01b031681565b5f81116102f05760405162461bcd60e51b815260206004820152600e60248201526d043616e6e6f74207374616b6520360941b60448201526064015b60405180910390fd5b6001546040516323b872dd60e01b8152336004820152306024820152604481018390526001600160a01b03909116906323b872dd906064016020604051808303815f875af1158015610344573d5f803e3d5ffd5b505050506040513d601f19601f820116820180604052508101906103689190610d95565b6103845760405162461bcd60e51b81526004016102e790610db4565b335f9081526002602052604090208054156103b65781815f015f8282546103ab9190610df1565b909155506103c09050565b8181554260018201555b5f600282015560405133907f66d612d12bb1902ec26fd9a4991d9d58d71d0580427497d62731e7527f1e01a4906103fa9085904290610e0a565b60405180910390a25050565b335f90815260036020526040902080546104325760405162461bcd60e51b81526004016102e790610e42565b42600182018190556002820181905560405133917faf1e05ce41cdb4bdc4f23bff459f1b9173663f6a49fcf52898845f8d65906886916104729190610e6a565b60405180910390a250565b610485610cd6565b600455565b335f90815260026020526040902080546104b65760405162461bcd60e51b81526004016102e790610e42565b6002810154156104d85760405162461bcd60e51b81526004016102e790610e95565b5f670de0b6b3a7640000825f01546004548460010154426104f99190610ee7565b6105039190610efa565b61050d9190610efa565b6105179190610f11565b90505f81116105685760405162461bcd60e51b815260206004820152601760248201527f4e6f20696e74657265737420746f20776974686472617700000000000000000060448201526064016102e7565b426001838101919091555460405163a9059cbb60e01b8152336004820152602481018390526001600160a01b039091169063a9059cbb906044016020604051808303815f875af11580156105be573d5f803e3d5ffd5b505050506040513d601f19601f820116820180604052508101906105e29190610d95565b61062e5760405162461bcd60e51b815260206004820152601860248201527f496e746572657374207472616e73666572206661696c6564000000000000000060448201526064016102e7565b5050565b5f81116106725760405162461bcd60e51b815260206004820152600e60248201526d043616e6e6f74207374616b6520360941b60448201526064016102e7565b6001546040516323b872dd60e01b8152336004820152306024820152604481018390526001600160a01b03909116906323b872dd906064016020604051808303815f875af11580156106c6573d5f803e3d5ffd5b505050506040513d601f19601f820116820180604052508101906106ea9190610d95565b6107065760405162461bcd60e51b81526004016102e790610db4565b335f9081526003602052604090208054156107385781815f015f82825461072d9190610df1565b909155506107429050565b8181554260018201555b5f600282015560405133907f66d612d12bb1902ec26fd9a4991d9d58d71d0580427497d62731e7527f1e01a4906103fa9085904290610f30565b335f90815260036020526040902080546107a85760405162461bcd60e51b81526004016102e790610e42565b6002810154156107ca5760405162461bcd60e51b81526004016102e790610e95565b5f670de0b6b3a7640000825f01546005548460010154426104f99190610ee7565b335f90815260036020526040902080546108175760405162461bcd60e51b81526004016102e790610e42565b5f8160020154116108615760405162461bcd60e51b8152602060048201526014602482015273155b9b1bd8dac81b9bdd081c995c5d595cdd195960621b60448201526064016102e7565b6301e1338081600201546108759190610df1565b4210156108c05760405162461bcd60e51b8152602060048201526019602482015278155b9b1bd8dac81c195c9a5bd9081b9bdd081c995858da1959603a1b60448201526064016102e7565b5f670de0b6b3a7640000825f0154600554846001015485600201546108e59190610ee7565b6108ef9190610efa565b6108f99190610efa565b6109039190610f11565b90505f81835f01546109159190610df1565b60015460405163a9059cbb60e01b8152336004820152602481018390529192506001600160a01b03169063a9059cbb906044016020604051808303815f875af1158015610964573d5f803e3d5ffd5b505050506040513d601f19601f820116820180604052508101906109889190610d95565b6109a45760405162461bcd60e51b81526004016102e790610db4565b335f818152600360205260408082208281556001810183905560020191909155845490517fd224ec5ad02946fe147952e6ad900ce0567e05d53bd64beb1b564a8c603d869c916109f5918690610f30565b60405180910390a2505050565b610a0a610cd6565b610a135f610d02565b565b610a1d610cd6565b600555565b335f9081526002602052604090208054610a4e5760405162461bcd60e51b81526004016102e790610e42565b42600182018190556002820181905560405133917faf1e05ce41cdb4bdc4f23bff459f1b9173663f6a49fcf52898845f8d65906886916104729190610f61565b335f9081526002602052604090208054610aba5760405162461bcd60e51b81526004016102e790610e42565b5f816002015411610b045760405162461bcd60e51b8152602060048201526014602482015273155b9b1bd8dac81b9bdd081c995c5d595cdd195960621b60448201526064016102e7565b62093a808160020154610b179190610df1565b421015610b625760405162461bcd60e51b8152602060048201526019602482015278155b9b1bd8dac81c195c9a5bd9081b9bdd081c995858da1959603a1b60448201526064016102e7565b5f670de0b6b3a7640000825f015460045484600101548560020154610b879190610ee7565b610b919190610efa565b610b9b9190610efa565b610ba59190610f11565b90505f81835f0154610bb79190610df1565b60015460405163a9059cbb60e01b8152336004820152602481018390529192506001600160a01b03169063a9059cbb906044016020604051808303815f875af1158015610c06573d5f803e3d5ffd5b505050506040513d601f19601f82011682018060405250810190610c2a9190610d95565b610c465760405162461bcd60e51b81526004016102e790610db4565b335f8181526002602081905260408083208381556001810184905590910191909155845490517fd224ec5ad02946fe147952e6ad900ce0567e05d53bd64beb1b564a8c603d869c916109f5918690610e0a565b610ca1610cd6565b6001600160a01b038116610cca57604051631e4fbdf760e01b81525f60048201526024016102e7565b610cd381610d02565b50565b5f546001600160a01b03163314610a135760405163118cdaa760e01b81523360048201526024016102e7565b5f80546001600160a01b038381166001600160a01b0319831681178455604051919092169283917f8be0079c531659141344cd1fd0a4f28419497f9722a3daafe3b4186f6b6457e09190a35050565b5f60208284031215610d61575f80fd5b5035919050565b5f60208284031215610d78575f80fd5b81356001600160a01b0381168114610d8e575f80fd5b9392505050565b5f60208284031215610da5575f80fd5b81518015158114610d8e575f80fd5b6020808252600f908201526e151c985b9cd9995c8819985a5b1959608a1b604082015260600190565b634e487b7160e01b5f52601160045260245ffd5b80820180821115610e0457610e04610ddd565b92915050565b828152816020820152606060408201525f610e3a606083016005815264372d44617960d81b602082015260400190565b949350505050565b6020808252600e908201526d139bc81cdd185ad948199bdd5b9960921b604082015260600190565b818152604060208201525f610d8e6040830160068152651896acb2b0b960d11b602082015260400190565b60208082526032908201527f43616e6e6f7420776974686472617720696e746572657374207768696c6520756040820152711b9b1bd8dac81a5cc81c995c5d595cdd195960721b606082015260800190565b81810381811115610e0457610e04610ddd565b8082028115828204841417610e0457610e04610ddd565b5f82610f2b57634e487b7160e01b5f52601260045260245ffd5b500490565b828152816020820152606060408201525f610e3a6060830160068152651896acb2b0b960d11b602082015260400190565b818152604060208201525f610d8e604083016005815264372d44617960d81b60208201526040019056fea264697066735822122049987b771115a5655eda786665285029c9f41b8df96e2f4bb0b20cf7439128d264736f6c63430008140033",
  "immutableReferences": {},
  "source": "// SPDX-License-Identifier: UNLICENSED\r\n\r\npragma solidity ^0.8.20;\r\n\r\nimport \"./moonCatToken.sol\";\r\nimport \"@openzeppelin/contracts/access/Ownable.sol\"; // Import OpenZeppelin's Ownable contract\r\n\r\ncontract Staking is Ownable {\r\n    MoonCatToken public token;\r\n\r\n    struct Stake {\r\n        uint256 amount;\r\n        uint256 since;\r\n        uint256 unlockRequestTime;\r\n    }\r\n\r\n    // Separate mappings for 7-day and 1-year stakes\r\n    mapping(address => Stake) public stakes7Days;\r\n    mapping(address => Stake) public stakes1Year;\r\n\r\n    uint256 public rewardRate7Days;\r\n    uint256 public rewardRate1Year;\r\n\r\n    uint256 public constant UNLOCK_PERIOD_7DAYS = 7 days;\r\n    uint256 public constant UNLOCK_PERIOD_1YEAR = 365 days;\r\n\r\n    event Staked(address indexed user, uint256 amount, uint256 since, string stakeType);\r\n    event UnlockRequested(address indexed user, uint256 unlockRequestTime, string stakeType);\r\n    event Unstaked(address indexed user, uint256 amount, uint256 reward, string stakeType);\r\n\r\n    // Pass the owner's address to the Ownable constructor\r\n    constructor(MoonCatToken _token) Ownable(msg.sender) {\r\n        token = _token;\r\n        rewardRate7Days = 9.512E12; // Set your initial reward rates\r\n        rewardRate1Year = 3.5E14;   // Higher reward rate for 1-year lock\r\n    }\r\n\r\n    // -------------------- Owner-Only Functions to Change Reward Rates --------------------\r\n    \r\n    function setRewardRate7Days(uint256 _newRate) public onlyOwner {\r\n        rewardRate7Days = _newRate;\r\n    }\r\n\r\n    function setRewardRate1Year(uint256 _newRate) public onlyOwner {\r\n        rewardRate1Year = _newRate;\r\n    }\r\n\r\n    // -------------------- 7-Day Staking Functions --------------------\r\n\r\n    function stake7Days(uint256 _amount) public {\r\n        require(_amount > 0, \"Cannot stake 0\");\r\n        require(token.transferFrom(msg.sender, address(this), _amount), \"Transfer failed\");\r\n\r\n        Stake storage userStake = stakes7Days[msg.sender];\r\n\r\n        // Add to existing stake or create a new one\r\n        if (userStake.amount > 0) {\r\n            userStake.amount += _amount;\r\n        } else {\r\n            userStake.amount = _amount;\r\n            userStake.since = block.timestamp;\r\n        }\r\n        userStake.unlockRequestTime = 0; // Reset unlock request if new stake is made\r\n\r\n        emit Staked(msg.sender, _amount, block.timestamp, \"7-Day\");\r\n    }\r\n\r\n    function requestUnlock7Days() public {\r\n        Stake storage userStake = stakes7Days[msg.sender];\r\n        require(userStake.amount > 0, \"No stake found\");\r\n\r\n        // Stop interest accumulation\r\n        userStake.since = block.timestamp; // Reset \"since\" time to stop interest\r\n        userStake.unlockRequestTime = block.timestamp;\r\n\r\n        emit UnlockRequested(msg.sender, userStake.unlockRequestTime, \"7-Day\");\r\n    }\r\n\r\n    function unstake7Days() public {\r\n        Stake storage userStake = stakes7Days[msg.sender];\r\n        require(userStake.amount > 0, \"No stake found\");\r\n        require(userStake.unlockRequestTime > 0, \"Unlock not requested\");\r\n        require(block.timestamp >= userStake.unlockRequestTime + UNLOCK_PERIOD_7DAYS, \"Unlock period not reached\");\r\n\r\n        // Calculate reward up to unlock request time\r\n        uint256 reward = (userStake.unlockRequestTime - userStake.since) * rewardRate7Days * userStake.amount / 1e18;\r\n\r\n        uint256 totalAmount = userStake.amount + reward;\r\n\r\n        require(token.transfer(msg.sender, totalAmount), \"Transfer failed\");\r\n\r\n        delete stakes7Days[msg.sender];\r\n\r\n        emit Unstaked(msg.sender, userStake.amount, reward, \"7-Day\");\r\n    }\r\n\r\n    function withdrawInterest7Days() public {\r\n        Stake storage userStake = stakes7Days[msg.sender];\r\n        require(userStake.amount > 0, \"No stake found\");\r\n        require(userStake.unlockRequestTime == 0, \"Cannot withdraw interest while unlock is requested\");\r\n\r\n        uint256 reward = (block.timestamp - userStake.since) * rewardRate7Days * userStake.amount / 1e18;\r\n        require(reward > 0, \"No interest to withdraw\");\r\n\r\n        userStake.since = block.timestamp; // Reset since to current time after withdrawing interest\r\n        require(token.transfer(msg.sender, reward), \"Interest transfer failed\");\r\n    }\r\n\r\n    // -------------------- 1-Year Staking Functions --------------------\r\n\r\n    function stake1Year(uint256 _amount) public {\r\n        require(_amount > 0, \"Cannot stake 0\");\r\n        require(token.transferFrom(msg.sender, address(this), _amount), \"Transfer failed\");\r\n\r\n        Stake storage userStake = stakes1Year[msg.sender];\r\n\r\n        if (userStake.amount > 0) {\r\n            userStake.amount += _amount;\r\n        } else {\r\n            userStake.amount = _amount;\r\n            userStake.since = block.timestamp;\r\n        }\r\n        userStake.unlockRequestTime = 0;\r\n\r\n        emit Staked(msg.sender, _amount, block.timestamp, \"1-Year\");\r\n    }\r\n\r\n    function requestUnlock1Year() public {\r\n        Stake storage userStake = stakes1Year[msg.sender];\r\n        require(userStake.amount > 0, \"No stake found\");\r\n\r\n        userStake.since = block.timestamp; // Stop interest accumulation\r\n        userStake.unlockRequestTime = block.timestamp;\r\n\r\n        emit UnlockRequested(msg.sender, userStake.unlockRequestTime, \"1-Year\");\r\n    }\r\n\r\n    function unstake1Year() public {\r\n        Stake storage userStake = stakes1Year[msg.sender];\r\n        require(userStake.amount > 0, \"No stake found\");\r\n        require(userStake.unlockRequestTime > 0, \"Unlock not requested\");\r\n        require(block.timestamp >= userStake.unlockRequestTime + UNLOCK_PERIOD_1YEAR, \"Unlock period not reached\");\r\n\r\n        uint256 reward = (userStake.unlockRequestTime - userStake.since) * rewardRate1Year * userStake.amount / 1e18;\r\n\r\n        uint256 totalAmount = userStake.amount + reward;\r\n\r\n        require(token.transfer(msg.sender, totalAmount), \"Transfer failed\");\r\n\r\n        delete stakes1Year[msg.sender];\r\n\r\n        emit Unstaked(msg.sender, userStake.amount, reward, \"1-Year\");\r\n    }\r\n\r\n    function withdrawInterest1Year() public {\r\n        Stake storage userStake = stakes1Year[msg.sender];\r\n        require(userStake.amount > 0, \"No stake found\");\r\n        require(userStake.unlockRequestTime == 0, \"Cannot withdraw interest while unlock is requested\");\r\n\r\n        uint256 reward = (block.timestamp - userStake.since) * rewardRate1Year * userStake.amount / 1e18;\r\n        require(reward > 0, \"No interest to withdraw\");\r\n\r\n        userStake.since = block.timestamp; // Reset since to current time\r\n        require(token.transfer(msg.sender, reward), \"Interest transfer failed\");\r\n    }\r\n}\r\n",
  "sourcePath": "C:\\MooncatAI\\Github\\mooncat_ai\\contracts\\staking.sol",
  "compiler": {
    "name": "solc",
    "version": "0.8.20+commit.a1b79de6.Emscripten.clang"
  },
  "schemaVersion": "3.4.16",
  "updatedAt": "2024-09-22T01:30:34.941Z",
  "devdoc": {
    "errors": {
      "OwnableInvalidOwner(address)": [
        {
          "details": "The owner is not a valid owner account. (eg. `address(0)`)"
        }
      ],
      "OwnableUnauthorizedAccount(address)": [
        {
          "details": "The caller account is not authorized to perform an operation."
        }
      ]
    },
    "kind": "dev",
    "methods": {
      "owner()": {
        "details": "Returns the address of the current owner."
      },
      "renounceOwnership()": {
        "details": "Leaves the contract without owner. It will not be possible to call `onlyOwner` functions. Can only be called by the current owner. NOTE: Renouncing ownership will leave the contract without an owner, thereby disabling any functionality that is only available to the owner."
      },
      "transferOwnership(address)": {
        "details": "Transfers ownership of the contract to a new account (`newOwner`). Can only be called by the current owner."
      }
    },
    "version": 1
  },
  "userdoc": {
    "kind": "user",
    "methods": {},
    "version": 1
  }
}