{
  "contractName": "YourToken",
  "abi": [
    {
      "inputs": [
        {
          "internalType": "string",
          "name": "_name",
          "type": "string"
        },
        {
          "internalType": "string",
          "name": "_symbol",
          "type": "string"
        },
        {
          "internalType": "uint256",
          "name": "_initialSupply",
          "type": "uint256"
        }
      ],
      "stateMutability": "nonpayable",
      "type": "constructor"
    },
    {
      "anonymous": false,
      "inputs": [
        {
          "indexed": true,
          "internalType": "address",
          "name": "owner",
          "type": "address"
        },
        {
          "indexed": true,
          "internalType": "address",
          "name": "spender",
          "type": "address"
        },
        {
          "indexed": false,
          "internalType": "uint256",
          "name": "value",
          "type": "uint256"
        }
      ],
      "name": "Approval",
      "type": "event"
    },
    {
      "anonymous": false,
      "inputs": [
        {
          "indexed": true,
          "internalType": "address",
          "name": "from",
          "type": "address"
        },
        {
          "indexed": true,
          "internalType": "address",
          "name": "to",
          "type": "address"
        },
        {
          "indexed": false,
          "internalType": "uint256",
          "name": "value",
          "type": "uint256"
        }
      ],
      "name": "Transfer",
      "type": "event"
    },
    {
      "inputs": [
        {
          "internalType": "address",
          "name": "",
          "type": "address"
        },
        {
          "internalType": "address",
          "name": "",
          "type": "address"
        }
      ],
      "name": "allowance",
      "outputs": [
        {
          "internalType": "uint256",
          "name": "",
          "type": "uint256"
        }
      ],
      "stateMutability": "view",
      "type": "function"
    },
    {
      "inputs": [
        {
          "internalType": "address",
          "name": "",
          "type": "address"
        }
      ],
      "name": "balanceOf",
      "outputs": [
        {
          "internalType": "uint256",
          "name": "",
          "type": "uint256"
        }
      ],
      "stateMutability": "view",
      "type": "function"
    },
    {
      "inputs": [],
      "name": "decimals",
      "outputs": [
        {
          "internalType": "uint8",
          "name": "",
          "type": "uint8"
        }
      ],
      "stateMutability": "view",
      "type": "function"
    },
    {
      "inputs": [],
      "name": "name",
      "outputs": [
        {
          "internalType": "string",
          "name": "",
          "type": "string"
        }
      ],
      "stateMutability": "view",
      "type": "function"
    },
    {
      "inputs": [],
      "name": "symbol",
      "outputs": [
        {
          "internalType": "string",
          "name": "",
          "type": "string"
        }
      ],
      "stateMutability": "view",
      "type": "function"
    },
    {
      "inputs": [],
      "name": "totalSupply",
      "outputs": [
        {
          "internalType": "uint256",
          "name": "",
          "type": "uint256"
        }
      ],
      "stateMutability": "view",
      "type": "function"
    },
    {
      "inputs": [
        {
          "internalType": "address",
          "name": "_to",
          "type": "address"
        },
        {
          "internalType": "uint256",
          "name": "_value",
          "type": "uint256"
        }
      ],
      "name": "transfer",
      "outputs": [
        {
          "internalType": "bool",
          "name": "success",
          "type": "bool"
        }
      ],
      "stateMutability": "nonpayable",
      "type": "function"
    },
    {
      "inputs": [
        {
          "internalType": "address",
          "name": "_spender",
          "type": "address"
        },
        {
          "internalType": "uint256",
          "name": "_value",
          "type": "uint256"
        }
      ],
      "name": "approve",
      "outputs": [
        {
          "internalType": "bool",
          "name": "success",
          "type": "bool"
        }
      ],
      "stateMutability": "nonpayable",
      "type": "function"
    },
    {
      "inputs": [
        {
          "internalType": "address",
          "name": "_from",
          "type": "address"
        },
        {
          "internalType": "address",
          "name": "_to",
          "type": "address"
        },
        {
          "internalType": "uint256",
          "name": "_value",
          "type": "uint256"
        }
      ],
      "name": "transferFrom",
      "outputs": [
        {
          "internalType": "bool",
          "name": "success",
          "type": "bool"
        }
      ],
      "stateMutability": "nonpayable",
      "type": "function"
    },
    {
      "inputs": [
        {
          "internalType": "uint256",
          "name": "_value",
          "type": "uint256"
        }
      ],
      "name": "burn",
      "outputs": [
        {
          "internalType": "bool",
          "name": "success",
          "type": "bool"
        }
      ],
      "stateMutability": "nonpayable",
      "type": "function"
    }
  ],
  "bytecode": "0x60806040526002805460ff1916601217905534801561001c575f80fd5b50604051610b88380380610b8883398101604081905261003b91610129565b5f610046848261021a565b506001610053838261021a565b506002546100659060ff16600a6103cd565b61006f90826103df565b6003819055335f90815260046020526040902055506103f6915050565b634e487b7160e01b5f52604160045260245ffd5b5f82601f8301126100af575f80fd5b81516001600160401b038111156100c8576100c861008c565b604051601f8201601f19908116603f011681016001600160401b03811182821017156100f6576100f661008c565b60405281815283820160200185101561010d575f80fd5b8160208501602083015e5f918101602001919091529392505050565b5f805f6060848603121561013b575f80fd5b83516001600160401b03811115610150575f80fd5b61015c868287016100a0565b602086015190945090506001600160401b03811115610179575f80fd5b610185868287016100a0565b925050604084015190509250925092565b600181811c908216806101aa57607f821691505b6020821081036101c857634e487b7160e01b5f52602260045260245ffd5b50919050565b601f82111561021557805f5260205f20601f840160051c810160208510156101f35750805b601f840160051c820191505b81811015610212575f81556001016101ff565b50505b505050565b81516001600160401b038111156102335761023361008c565b610247816102418454610196565b846101ce565b6020601f821160018114610279575f83156102625750848201515b5f19600385901b1c1916600184901b178455610212565b5f84815260208120601f198516915b828110156102a85787850151825560209485019460019092019101610288565b50848210156102c557868401515f19600387901b60f8161c191681555b50505050600190811b01905550565b634e487b7160e01b5f52601160045260245ffd5b6001815b600184111561032357808504811115610307576103076102d4565b600184161561031557908102905b60019390931c9280026102ec565b935093915050565b5f82610339575060016103c7565b8161034557505f6103c7565b816001811461035b576002811461036557610381565b60019150506103c7565b60ff841115610376576103766102d4565b50506001821b6103c7565b5060208310610133831016604e8410600b84101617156103a4575081810a6103c7565b6103b05f1984846102e8565b805f19048211156103c3576103c36102d4565b0290505b92915050565b5f6103d8838361032b565b9392505050565b80820281158282048414176103c7576103c76102d4565b610785806104035f395ff3fe608060405234801561000f575f80fd5b506004361061009b575f3560e01c806342966c681161006357806342966c681461012957806370a082311461013c57806395d89b411461015b578063a9059cbb14610163578063dd62ed3e14610176575f80fd5b806306fdde031461009f578063095ea7b3146100bd57806318160ddd146100e057806323b872dd146100f7578063313ce5671461010a575b5f80fd5b6100a76101a0565b6040516100b49190610595565b60405180910390f35b6100d06100cb3660046105e5565b61022b565b60405190151581526020016100b4565b6100e960035481565b6040519081526020016100b4565b6100d061010536600461060d565b610297565b6002546101179060ff1681565b60405160ff90911681526020016100b4565b6100d0610137366004610647565b610426565b6100e961014a36600461065e565b60046020525f908152604090205481565b6100a76104ce565b6100d06101713660046105e5565b6104db565b6100e961018436600461067e565b600560209081525f928352604080842090915290825290205481565b5f80546101ac906106af565b80601f01602080910402602001604051908101604052809291908181526020018280546101d8906106af565b80156102235780601f106101fa57610100808354040283529160200191610223565b820191905f5260205f20905b81548152906001019060200180831161020657829003601f168201915b505050505081565b335f8181526005602090815260408083206001600160a01b038716808552925280832085905551919290917f8c5be1e5ebec7d5bd14f71427d1e84f3dd0314c0f7b2291e5b200ac8c7c3b925906102859086815260200190565b60405180910390a35060015b92915050565b6001600160a01b0383165f908152600460205260408120548211156102d75760405162461bcd60e51b81526004016102ce906106e7565b60405180910390fd5b6001600160a01b0384165f90815260056020908152604080832033845290915290205482111561033e5760405162461bcd60e51b8152602060048201526012602482015271105b1b1bddd85b98d948195e18d95959195960721b60448201526064016102ce565b6001600160a01b0384165f9081526004602052604081208054849290610365908490610729565b90915550506001600160a01b0383165f908152600460205260408120805484929061039190849061073c565b90915550506001600160a01b0384165f908152600560209081526040808320338452909152812080548492906103c8908490610729565b92505081905550826001600160a01b0316846001600160a01b03167fddf252ad1be2c89b69c2b068fc378daa952ba7f163c4a11628f55a4df523b3ef8460405161041491815260200190565b60405180910390a35060019392505050565b335f908152600460205260408120548211156104545760405162461bcd60e51b81526004016102ce906106e7565b335f9081526004602052604081208054849290610472908490610729565b925050819055508160035f82825461048a9190610729565b90915550506040518281525f9033907fddf252ad1be2c89b69c2b068fc378daa952ba7f163c4a11628f55a4df523b3ef9060200160405180910390a3506001919050565b600180546101ac906106af565b335f908152600460205260408120548211156105095760405162461bcd60e51b81526004016102ce906106e7565b335f9081526004602052604081208054849290610527908490610729565b90915550506001600160a01b0383165f908152600460205260408120805484929061055390849061073c565b90915550506040518281526001600160a01b0384169033907fddf252ad1be2c89b69c2b068fc378daa952ba7f163c4a11628f55a4df523b3ef90602001610285565b602081525f82518060208401528060208501604085015e5f604082850101526040601f19601f83011684010191505092915050565b80356001600160a01b03811681146105e0575f80fd5b919050565b5f80604083850312156105f6575f80fd5b6105ff836105ca565b946020939093013593505050565b5f805f6060848603121561061f575f80fd5b610628846105ca565b9250610636602085016105ca565b929592945050506040919091013590565b5f60208284031215610657575f80fd5b5035919050565b5f6020828403121561066e575f80fd5b610677826105ca565b9392505050565b5f806040838503121561068f575f80fd5b610698836105ca565b91506106a6602084016105ca565b90509250929050565b600181811c908216806106c357607f821691505b6020821081036106e157634e487b7160e01b5f52602260045260245ffd5b50919050565b602080825260149082015273496e73756666696369656e742062616c616e636560601b604082015260600190565b634e487b7160e01b5f52601160045260245ffd5b8181038181111561029157610291610715565b808201808211156102915761029161071556fea264697066735822122049308ddcfff12ad555144d1d5763976111f3693d9e175dbc6abb0ed27b77b87a64736f6c634300081a0033",
  "immutableReferences": {},
  "source": "// SPDX-License-Identifier: MIT\r\npragma solidity ^0.8.26;\r\n\r\n// The YourToken contract implements a basic ERC20 token with additional functionalities like burning tokens.\r\ncontract YourToken {\r\n    // Token details\r\n    string public name;       // Name of the token\r\n    string public symbol;     // Symbol of the token\r\n    uint8 public decimals = 18; // Number of decimals for the token\r\n    uint256 public totalSupply; // Total supply of tokens\r\n\r\n    // Mappings to keep track of token balances and allowances\r\n    mapping(address => uint256) public balanceOf;\r\n    mapping(address => mapping(address => uint256)) public allowance;\r\n\r\n    // Events to notify about transfers and approvals\r\n    event Transfer(address indexed from, address indexed to, uint256 value);\r\n    event Approval(address indexed owner, address indexed spender, uint256 value);\r\n\r\n    // Constructor to initialize the token with name, symbol, and initial supply\r\n    constructor(string memory _name, string memory _symbol, uint256 _initialSupply) {\r\n        name = _name;\r\n        symbol = _symbol;\r\n        totalSupply = _initialSupply * (10 ** uint256(decimals)); // Set total supply considering decimals\r\n        balanceOf[msg.sender] = totalSupply; // Assign total supply to the contract deployer\r\n    }\r\n\r\n    // Function to transfer tokens from the caller to another address\r\n    function transfer(address _to, uint256 _value) public returns (bool success) {\r\n        require(balanceOf[msg.sender] >= _value, \"Insufficient balance\"); // Check if sender has enough balance\r\n        balanceOf[msg.sender] -= _value; // Deduct tokens from sender\r\n        balanceOf[_to] += _value; // Add tokens to receiver\r\n        emit Transfer(msg.sender, _to, _value); // Emit Transfer event\r\n        return true;\r\n    }\r\n\r\n    // Function to approve another address to spend tokens on behalf of the caller\r\n    function approve(address _spender, uint256 _value) public returns (bool success) {\r\n        allowance[msg.sender][_spender] = _value; // Set allowance for spender\r\n        emit Approval(msg.sender, _spender, _value); // Emit Approval event\r\n        return true;\r\n    }\r\n\r\n    // Function to transfer tokens from one address to another using an allowance\r\n    function transferFrom(address _from, address _to, uint256 _value) public returns (bool success) {\r\n        require(_value <= balanceOf[_from], \"Insufficient balance\"); // Check if sender has enough balance\r\n        require(_value <= allowance[_from][msg.sender], \"Allowance exceeded\"); // Check if allowance is sufficient\r\n        balanceOf[_from] -= _value; // Deduct tokens from sender\r\n        balanceOf[_to] += _value; // Add tokens to receiver\r\n        allowance[_from][msg.sender] -= _value; // Decrease allowance\r\n        emit Transfer(_from, _to, _value); // Emit Transfer event\r\n        return true;\r\n    }\r\n\r\n    // Function to burn tokens from the caller's balance\r\n    function burn(uint256 _value) public returns (bool success) {\r\n        require(balanceOf[msg.sender] >= _value, \"Insufficient balance\"); // Check if caller has enough balance\r\n        balanceOf[msg.sender] -= _value; // Deduct tokens from caller\r\n        totalSupply -= _value; // Decrease total supply\r\n        emit Transfer(msg.sender, address(0), _value); // Emit Transfer event to address(0) indicating burn\r\n        return true;\r\n    }\r\n}\r\n",
  "sourcePath": "C:\\Git Local\\mooncat_ai\\contracts\\moontesttoken.sol",
  "compiler": {
    "name": "solc",
    "version": "0.8.26+commit.8a97fa7a.Emscripten.clang"
  },
  "schemaVersion": "3.4.16",
  "updatedAt": "2024-07-20T00:40:40.169Z",
  "devdoc": {
    "kind": "dev",
    "methods": {},
    "version": 1
  },
  "userdoc": {
    "kind": "user",
    "methods": {},
    "version": 1
  }
}